S01900003730325F5A4C4C5F4C696768745F746573742E7333377B
S31508000000281F00204D1F0208C1F80108C3F801087F
S31508000010A70B0000000000000000FFFF54000008C6
S3150800002004030300000000000000000000000000B8
S3150800003000000000000000000000000000000000B2
S315080000400000000000000000000000007A01000027
S3150800005000000000281F00204D1F0208C1F80108F3
S31508000060C3F80108A70A080100010008040303AC45
S3150800007000537A01000000000000000000000000A4
S315080000800000000000000000000000000000000062
S31508000090000000000000000000000000FFFFFFFF56
S315080000A0FFFFFFFFFFFFFFFF00E002080000000060
S315080000B000000000FFFFFFFFFFFFFFFFFFFFFFFF3E
S315080000C0FFFFFFFFFFFFFFFFFFFFFFFFFFFFFFFF32
S315080000D0FFFFFFFFF02F002000000000EE2F00209A
S315080000E0EE2F0020281F0020F47C02088021020839
S315080000F0C8150020380D0020000003080030002035
S31508000100281F00204D1F0208C1F80108C3F801087E
S31508000110C7F80108C5F80108C9F8010888FA0108EE
S3150800012088FA010888FA010888FA010888FA010895
S31508000130CBF8010888FA01083121020883A80008CB
S31508000140310E000888FA0108A5B0000888FA0108E7
S31508000150071C0008B1AE000888FA010888FA0108E9
S315080001606D840108D90B01086B900008C1AB000823
S3150800017088FA0108B7AF0008FFAF0008F71A0008A9
S31508000180C573010888FA010888FA010889FA01087E
S3150800019010B5494CE06858B9207818B1072000F026
S315080001A09FF802E0072000F0ACF80020207110BD8F
S315080001B0072000F0BDF8E068FF288CBFA0F5807026
S315080001C00020E0604FF48071201DBDE8104000F06B
S315080001D0F6B810B500F016FA384C20B9207001218F
S315080001E00FF2F80007E000F08CFC204600F0DCF87F
S315080001F001210FF2E000BDE8104000F0DBBD10B5AC
S3150800020090282E4C07D10020207001210FF2BC0047
S3150800021000F0D0FD07E0912805D100F0A6FE10B940
S31508000220204600F0C1F8002010BD244800F0BCB8F4
S31508000230002101B1704710B582B00121009100225A
S315080002401D4C2346062100F099FF58B9207820B1A5
S31508000250BDE81640072000F043B8BDE81640072061
S3150800026000F04FB813BD7047704700207047012053
S3150800027070477047704701210FF2500000F09ABD91
S3150800028001210FF2500000F095BD0020704710B50F
S31508000290040018BF00F01CFE4FF6FF7084420649A2
S315080002A00CBF4FF44060A002C860081DBDE81040AE
S315080002B000F07AB8000000006027002070270020B0
S315080002C07047012070470020704700001F01000199
S315080002D00F0100000F0100011F0500001F010000AB
S315080002E010B50446062C02D101F002FC40B9E0081C
S315080002F0032805DA00F016F81B4A02EB812108608C
S3150800030010BD10B50446062C02D101F0F1FB40B928
S31508000310E008032805DA00F005F8144A02EB812103
S31508000320086010BD012004F007018840E108704705
S3150800033010B50446062C02D101F0DAFB90B901F09B
S3150800034035FCE108032909DA094A02EB8121012370
S315080003500A6804F00704A3405A400A60BDE8104042
S3150800036001F02ABC10BD000014B0004010B00040D7
S315080003700CB0004000281CBF0620FFF7B1BF0620BE
S31508000380BFE7704738B54478456801F00FFC0C2183
S3150800039061438B4A8B585B1BB3F1004F98BF8D5056
S315080003A0BDE8324001F008BC10B5044601F013FC64
S315080003B06060042020702046BDE81040E2E738B5AA
S315080003C000F011F828186060012007E038B500F041
S315080003D00AF805EB10200002606002202070204613
S315080003E0BDE83240CEE704460D4601F0F4BB38B509
S315080003F0FFF7F9FF05EB1040000460600320EDE706
S3150800040010B50446207860B1042806D001F0E3FB55
S315080004106168421AB2F1004F01D8002010BD081ACF
S3150800042010BD4FF0FF3010BD70B5044601F0D3FB88
S31508000430054601F0BBFB06466FF00041606800F018
S315080004402CF8401920603046BDE8704001F0B4BB76
S3150800045070B504460D46164601F0BDFB002156B19F
S31508000460FF22327007E0121AAA4202D2154606B1D6
S315080004703170491C083422680AB9284670BD1378B9
S31508000480002BF6D0042B04D05268831AB3F1004F20
S31508000490E9D806B13170002070BD0022D8E738B51A
S315080004A0044601F098FB05460BE0017841B10429A2
S315080004B004D04168691AB1F1004F01D861688847CC
S315080004C0083420680028F0D131BD10B50C213C4A0B
S315080004D001FB002401F07FFB2168401AB0F1004FB0
S315080004E006D86068FFF7DBFF2046BDE810409BE7AB
S315080004F010BD70B50446334D68783349097888428B
S3150800050005D34FF484710FF2C40001F0DBFB6E785B
S31508000510701C68700C202A4900FB061044600121F3
S31508000520017200E04E7054F8081B0029FAD1FFF753
S315080005307BFF304670BDF8B505464FF0FF3000909A
S31508000540204C207840B302F05DF928B940F2391101
S315080005500FF2780001F0B6FB01F03DFB0C21184ABA
S3150800056001FB052300251D72002305E0009EB54208
S3150800057088BF354600955B1C6578DBB2AB420FD267
S3150800058001FB03263568471BB7F1004F04D92D1A1E
S31508000590367A0EB9002DE9D102F03CF90020F2BDF9
S315080005A000A801F037FB0120F2BD0C21044A01FB2B
S315080005B00020012101727047024908707047000047
S315080005C00C290020D22F0020B06E02086576656ED1
S315080005D0742D636F6E74726F6C2E630038B5784D28
S315080005E02878702460B9774800F0B9F8040002D179
S315080005F00220287004E023460FF2E81200F043F8C0
S31508000600204632BD38B56E4D2878702470B96D48CD
S315080006100068042102F002F9040002D101202870C2
S3150800062004E023460FF2E01200F02DF8204632BD12
S3150800063030B587B00446FFF744FE0125C8B1182235
S315080006400021684602F0CAFA0822211D684602F00F
S3150800065082FA2088ADF8080003208DF80A00A078F1
S315080006608DF80B0000F0C9F9684602F045FE050052
S3150800067007D02B460FF2B41200F005F85248FFF7E0
S3150800068093FE07B030BD0FF24C11022003F006B8F6
S3150800069010B50B4602460321184600F0DDF90400A2
S315080006A008D023460FF29C12FFF7EDFF2046BDE85F
S315080006B0104000E010BD10B5414C2178AB2808BFAA
S315080006C0022909D14149096859B103202070201D22
S315080006D0BDE81040FFF768BE012908BF0FF27C127B
S315080006E001D00FF298120346FFF7CDFF00202070C5
S315080006F010BD0822364902F02EBA014608223448AF
S3150800070002F029BA70B52E4C0FF2C80500202071E8
S315080007102078022818BF03280AD102F0DFF938B179
S3150800072002F006F9060012D033460FF270120AE0FC
S31508000730207803280CD1254800F011F8060006D0C9
S3150800074033460FF2A0022946022002F0A7FF2EB177
S3150800075000202070BDE8704002F0E3B970BD1C4966
S31508000760006802F0C2B81FB5154C217890281FD131
S31508000770012922D0022918BF032920D1684603F08F
S315080007800EFB00984008400000900020019002905F
S31508000790ADF80C00684603F00CFB03F0D5FB207897
S315080007A040F0800020700121201DFFF720FE1FBDAC
S315080007B0022904DB01F07F002070FFF7A3FF1FBDAD
S315080007C01C2C002088250020202C00208C250020A9
S315080007D05C2C00204572726F723A2025703A2030E0
S315080007E078257800636F756C64206E6F7420736368
S315080007F0616E20666F72206A6F696E61626C652031
S315080008006E6574776F726B00636F756C64206E6FBC
S3150800081074207363616E20666F7220756E757365DA
S3150800082064206E6574776F726B000000636F756C79
S3150800083064206E6F74206A6F696E206E6574776FB8
S31508000840726B0000636F756C64206E6F7420666F40
S31508000850726D206E6574776F726B0000636F756CCE
S3150800086064206E6F742066696E6420756E75736594
S3150800087064206E6574776F726B000000636F756C29
S3150800088064206E6F742066696E64206A6F696E6193
S31508000890626C65206E6574776F726B00636F756C3A
S315080008A064206E6F7420636F6E74696E756520734D
S315080008B063616E20666F72206A6F696E61626C652D
S315080008C0206E6574776F726B00000000002003F0DD
S315080008D099BA2DE9FF4204460D46E0894CF25E01BD
S315080008E0884206BF208AB0F5805F002016464AD1A6
S315080008F02078002846D1207D800743D5072D41DB87
S315080009003078B77840B1112802D1032F04D139E0E5
S31508000910192808BF032F35D12A460321304603F08C
S3150800092072FB022F814604D0062F0AD0072F1BD050
S3150800093028E0082D26DBF2794946601C00F008F904
S3150800094020E0092D1EDB2A460721304603F05DFB11
S31508000950044623464A460FF21441082002F09EFE3A
S315080009602046FFF794FC0DE04A460FF22441082082
S3150800097002F094FE684603F012FA0098C00758BFC2
S3150800098000F0BFF8012004B0BDE8F082A34910B515
S315080009900A788F231A4288B02BD090281AD10020C3
S315080009A0087001A9684603F07BFD9D4C9DF80F0071
S315080009B0A0700822BDF80C00208001A9201D02F0B5
S315080009C0CAF89DF814006073002200212046FFF73C
S315080009D052FC10E003F0E2FB01280CD003F0BAFE4B
S315080009E048B90FF27C2000F07DF8022000F084F868
S315080009F001E0FFF7B8FE08B010BD70B590B005A8C5
S31508000A000FF26C21282205F0B5F803F0C7FB08B1F0
S31508000A1000201FE001A800F0F3FA04000FF2782581
S31508000A200FF21C2604D0009432460FF280230CE005
S31508000A3005A8FFF71FFC05A901A802F03DFF040061
S31508000A4007D0009432460FF27C232946022002F092
S31508000A5025FE204610B070BD70B58CB005460C4614
S31508000A6016462C220021684602F0B8F88DF8025086
S31508000A70ADF8006001A8FFF73CFE0020ADF826009F
S31508000A80684800684078012808BF02208DF82800C9
S31508000A90FFF7B3FF2146684602F0C3FE0CB070BDEF
S31508000AA0702070477020704770207047702070471C
S31508000AB010B55A4C20788F21084282B011D00FF217
S31508000AC01C2000F00FF82078410603D5BDE8164033
S31508000AD0002011E040F020002070BDE8134005F02A
S31508000AE0F0B813BD0FF260130FF254120FF248114B
S31508000AF00090022002F0D2BD484A00211170FFF78B
S31508000B00BFBB80B505F067FA28B102460FF2E411BB
S31508000B10022002F0C3FDFF2005F056FFFF2006F075
S31508000B206CFBFF2006F0BBFEBDE80140FFF7C8BB23
S31508000B307047704780B501462C22394802F00BF8F9
S31508000B4036498020087001BD374900200870704773
S31508000B502DE9F04786B082460F46164605F024FC76
S31508000B60054633463A460FF2BC11082002F096FDB8
S31508000B7002960195009728A303224FF48051192065
S31508000B8007F047F903A803F087FC2849284809888D
S31508000B904718002003F0FCF94CF25E0822E03046C4
S31508000BA005F0BFFE8146082103A803F006FA484669
S31508000BB003F0EEF9404603F0F6F91E4800EB06147A
S31508000BC0A08803F0F0F9A07903F0E2F94846FFF7A8
S31508000BD05CFB03F0DDF9304603F0DAF93878401C9F
S31508000BE03870761CF6B2AE42D9DB4FF6FF72CDF8F6
S31508000BF0008000235146104607F02DF948B10090B1
S31508000C000FF24C130FF238020FF28C01082002F093
S31508000C1045FD06B0BDE8F08777757500D12F002031
S31508000C20302C0020D8290020282C002076290020E6
S31508000C3084290020E02700202570257025700000F3
S31508000C404572726F723A2000546F756368206C693A
S31508000C506E6B696E67206661696C65643A20000090
S31508000C606A6F696E696E67206661696C6564000003
S31508000C70000000000FC0C1C2C3C4C5C6C7C8C9CAE0
S31508000C80CBCCCDCECFD0D1D2D3D4D5D6D7D8D9DA2E
S31508000C90DBDCDDDEDF00000025702570206661697B
S31508000CA06C656420307825780000000047656E651D
S31508000CB0726174696E672072616E646F6D206B6510
S31508000CC079000000496E697469616C697A696E67B2
S31508000CD020736563757269747900000061626F72CA
S31508000CE0746564206279206170706C6963617469E7
S31508000CF06F6E00004572726F723A204661696C65C4
S31508000D006420746F206C65617665206E6574776FF4
S31508000D10726B2C207374617475733A203078255879
S31508000D200000000052583A20446576696365496EAA
S31508000D30666F726D6174696F6E52657175657374ED
S31508000D402030782534782C2030782578000000006B
S31508000D5044657669636520696E666F726D6174694C
S31508000D606F6E20726573706F6E73650052583A2005
S31508000D704964656E74696679526571756573742020
S31508000D8030782534782C2030782532780000000019
S31508000D9052583A205265736574546F466163746F8E
S31508000DA072794E657752657175657374203078254A
S31508000DB03478000070B50C46404D414E0021296537
S31508000DC00D220521A962012169610021A961A9698C
S31508000DD041F44051A961706001785143E9620F22DC
S31508000DE0002169620178407891FBF2F1C8225043EC
S31508000DF090FBF1F07080022030700020707000F0D7
S31508000E00D5FE304A012111602F490A6842F00102D5
S31508000E100A6010212962296841F00101296000F061
S31508000E20CBFE01E007F052F870782043FAD070BD87
S31508000E30F0B523484288511E4180002A234938D1FB
S31508000E40027845681D4BAE18777827B3AC5CC8277F
S31508000E50002C11D04FF00D0E0EFB04F4DC620024BA
S31508000E605C6210241C620F24AB5C93FBF4F3747869
S31508000E707C4394FBF3F30AE040F29314DC6200240B
S31508000E805C621C6273787B4303EBD3735B10921C22
S31508000E90438002700DE00A6C520852000A640A4A3E
S31508000EA0146864086400146000221A621A60012239
S31508000EB042704FF0FF300860F0BD000000E00040CF
S31508000EC0D41F002040A8004000E100E000A8004030
S31508000ED001210FF204006DE71F0100011F01000147
S31508000EE01F0100010F050000604800684088704730
S31508000EF05E480068001D70475C480068C07E704701
S31508000F0070B55A4D29684873594C5A4E022817D15C
S31508000F1000F0B2F868B92868007B04283CBF304660
S31508000F20FFF742FA2868007B03283CBF2046FFF7F4
S31508000F303BFA28684069C00054BF9024BC240AE0E4
S31508000F4000F09AF810B107F021F803E0307020702D
S31508000F5007F079F89124204602F004FC20B92046CF
S31508000F60BDE8704007F037BB70BD40480068407B5D
S31508000F7000F00F0070473D480068407B00F00F0006
S31508000F80022801D1012070470020704738B5044671
S31508000F9000F072F820B12046BDE8324006F0EABFFC
S31508000FA0324DFFF7E8FF28B92868407B032801D0AF
S31508000FB0932032BD07F0B1FC20812868C07BA0725F
S31508000FC02868807BE072204604F01DFD002020730F
S31508000FD004F1140104F1100007F043FDE08100203C
S31508000FE032BD10B5002300E05B1CDBB28B4205D294
S31508000FF010F8014B9442F7D0002010BD012010BD17
S3150800100080B5082108F0CEF808B1002002BDA52059
S3150800101002BD30B5531E002404E0DBB25D5C2554E6
S315080010205B1E641CE4B29442F7D330BD0F480068D7
S31508001030407B01281CBF3128332801D10120704785
S315080010400020704710B5044608F06DFB10B9074933
S315080010500968CC7310BD0548006890F90F00704701
S3150800106002480068807B704700000000A02C002022
S31508001070102E0020082E002080B507F056FC032805
S3150800108001D1012002BD002002BD80B5FFF7F4FFA3
S3150800109038B140F22B110FF20C00BDE8044000F005
S315080010A011BE01BD656D6265722D737461636B2D2A
S315080010B0636F6D6D6F6E2E63000000002DE9F047BB
S315080010C086B00F9F109D0E9C0295019706468A468C
S315080010D090469946009408F008FC18B1022803D0F7
S315080010E002D310E001200EE00CBF012000200021F1
S315080010F0049103900295019700944B464246514647
S31508001100304600F0F0F906B0BDE8F08710B586B0B5
S315080011100024049401240394099C0294089C0194D5
S31508001120002400940FE010B586B000F002F84023C2
S3150800113009E0002404940193012403940023089CE5
S3150800114000930294704700F0CEF906B010BD10B5B2
S3150800115086B001240494002403940A9C0294099CF2
S315080011600194089C0094EEE71FB5089C0394079C1D
S315080011700294069C0194002400940CE01FB500F02C
S3150800118002F8402307E00024019303940023069CF9
S3150800119000930294704700F073FA04B010BD2DE96D
S315080011A0FE4F92461D46074688462A4605F02BFB03
S315080011B0002400265FEA000B0C988DF80070B146F3
S315080011C0ADF802808DF80450ADF806A0ADF8080019
S315080011D053D06946584605F0F6F900284DD0002543
S315080011E005E002F0D5FE641C09F101096D1CBBF887
S315080011F00810A8B2884239D2DBF80400ADB20C2137
S3150800120069434718BBF80000B0F57C4F09DA3888FF
S31508001210ADF806006A463946584605F0EAF9002848
S31508001220E4D03888504538BF761CDDD39DF8342085
S31508001230A1B29142D8D202F0B6FEB87802F0A8FE62
S315080012409DF838000028CED03888002808BFB8F1A5
S31508001250030F05D13879C00754BF01200320C0E722
S315080012603879C0074CBF07200520BAE7A4B2B6B242
S3150800127030191FFA89F1884201D1012000E00020C7
S31508001280BDE8FE8F2DE9F04F8DB04FF00009DFF86D
S31508001290408201E009F1010905F086F85FFA89F153
S315080012A0814280F0A6805FFA89F94FEA091A0FF29F
S315080012B0284118F80A2000F0D3F90FF2284100F067
S315080012C0CCF9002700E07F1C08EB0A00F9B2806819
S315080012D002799142DED20068FFB21421794344189C
S315080012E0002516E0F278012392B204A9042008F03A
S315080012F05FFB208808F09BFC4FF6FF71884207D0F9
S31508001300744901EBC0000FF2C831426800F0A8F931
S315080013106D1C2189A8B28842D5D26068ADB20C216D
S31508001320694346180FF2FC31307940063088009040
S315080013304CBF0FF204430FF208432288042002F040
S31508001340B3F93146204605F022F9834628B90FF24B
S31508001350F831042002F0A8F904E05A4659A10420FD
S3150800136002F0A2F93079810748BF0FF2FC3105D4A3
S31508001370C1064CBF0FF2F8310FF2FC31C00754BF5B
S3150800138051A052A001910090F378B2780FF2C031C3
S31508001390042002F089F93079CDF800B040064CBF38
S315080013A080234023002003902120029004A8019066
S315080013B03288218818F80A0000F062F9862804D1D4
S315080013C00FF2BC3100F049F9A2E7B07805F004F84D
S315080013D020B104A802F03AFE421C84E7B07805F072
S315080013E003F800283FF47EAF04A802F034FE821CFE
S315080013F079E70DB0BDE8F08F2DE9F0438FB081464F
S31508001400179C052C884617461E464ADB169D0FF282
S315080014107C3102950196009743464A4600F060F8EB
S3150800142004A80390009521200290334605A8019050
S315080014303A464146484600F023F9050034D19DF85E
S31508001440100004F0BDFF20B105A802F0FFFD451C01
S3150800145004E09DF8100009F06DF80546EDB2281D68
S3150800146084421EDB384602F09EFD002002F090FD05
S315080014709DF81000184C02F08BFD20882918522977
S3150800148008DA164B2A4605A9184401F064FB208899
S315080014902818208000953B4642460FF2483100F056
S315080014A01FF80FB0BDE8F083384602F07CFD2846E9
S315080014B002F06EFD00953B4642460FF20431EEE718
S315080014C00000000025327800524F000052570000F5
S315080014D0E0270020C8A400087629002084290020D7
S315080014E0042002F0DBB82DE9F04F89B081460020D0
S315080014F0049000900E46129C174698468DF8149054
S31508001500ADF816608DF81880ADF81A70ADF81C4065
S315080015100023002204A905A805F07EF804980FF216
S31508001520183240B9019700964B460FF2E421FFF7AF
S31508001530D7FF86208EE01598A8B904999DF8500023
S315080015408978884205D00FF2FC2100F089F88D20B1
S3150800155080E004980079C00705D40FF2FC2100F05A
S315080015607FF8882076E004980079139D400726D5F1
S3150800157004988068406802900498806880680190A2
S315080015800498807808F03CFE82460498C0788DF866
S315080015900000032853460246294628DA02A808F01E
S315080015A0D3FD83469DF800205346294601A808F036
S315080015B0CBFDBBF1010F18BF10F1010F26D016980D
S315080015C0002842D100F04FF808F0B3F900F04BF8C4
S315080015D004F079FF01003DD10120009000232A463E
S315080015E0002105A805F018F8010011D032E002988C
S315080015F008F0AAFD012809D09DF800200198534655
S31508001600294608F0A1FD10F1010FD8D1872021E065
S31508001610049B32464946284605F068FA0295009426
S3150800162043469DF8500001903A463146484608F030
S3150800163097F900F018F808F07BF9009443463A4603
S315080016403146484604F01BFF03E00FF2202100F064
S3150800165004F8002009B0BDE8F08F042002F01EB897
S31508001660042002F01BB8039543460498C0780290FC
S3150800167000943A469DF85000019031464846704716
S3150800168010B586B000248DF808008DF80C30ADF83A
S315080016900E20ADF80A100194009401A908980A9B37
S315080016A0099AADF8100002A804F0B6FF040005D1A7
S315080016B00B9848B101998978017005E0892C03D106
S315080016C00FF2C811FFF7C9FF204606B010BD00008B
S315080016D02825702900000000454E44504F494E54B5
S315080016E020257800636C7573202F20736964652044
S315080016F02F2061747472202F206D666720202F7446
S31508001700797065286C656E292F207277202F2073D3
S31508001710746F72616765202F206461746120287276
S3150800172061772900253278202F202570202F202543
S315080017303278202F20000000636C6E7400000000D1
S3150800174073727672000000002D2D2D2D000000000A
S31508001750202F2025782028257829202F202570203D
S315080017602F202570202F200020746F6B656E2000B7
S3150800177065787465726E2000202052414D20200045
S31508001780556E737570706F72746564004F5441209E
S31508001790524541443A2065703A2578206369643A8F
S315080017A02532782061747469643A253278206D731D
S315080017B06B3A2578206D66636F64653A2532780042
S315080017C0524541443A20636C7573202532782C20A3
S315080017D06174747220253278206661696C656420AC
S315080017E025780000524541443A20636C75732025DC
S315080017F032782C2061747472202532782C2064612A
S3150800180074614C656E3A2025782C204F4B000000F9
S315080018102570657020257820636C757320253278CD
S31508001820206174747220253278206E6F7420737567
S3150800183070706F727465640057524954452045525A
S31508001840523A20002570696E76616C69642064617D
S315080018507461207479706500257061747472206EE5
S315080018606F74207772697461626C650057524954C7
S31508001870453A206E6F2077726974652C206A7573F5
S315080018807420612074657374000000005245414459
S315080018903A206174747269627574652073697A6531
S315080018A020746F6F206C6172676520666F722063A3
S315080018B0616C6C657200000038B5012008F04CFFB9
S315080018C0002009F095F8DFF85842206840F0080033
S315080018D0206006F0F2FA09F07BF800F027F88D7818
S315080018E0DD608D890560CD89456000F016F82068B1
S315080018F020F01000206009F096F909F0D8FA09F0EE
S3150800190015FB08F0BCFF06F0D6FABDE8314006F034
S31508001910F1BA40F2016009F0A5BB088A1060488A4E
S315080019205060888A1860C88A586042E07D497E48B7
S315080019300A78C2604B787D4AD3607D4B7047F0B514
S315080019400B68784C0F25646A960005FA06F6344249
S3150800195012D0002606EB820724FA07F7FF0708D5F8
S31508001960B70005FA07F730F812C0BB4307EA0C07B9
S315080019703B43761C042EEDDB0B60F0BDF0B50B681F
S31508001980684CFF25646AD600B5402C420FD0002566
S3150800199005EBC20624FA06F7FE0705D50126AE4072
S315080019A0875CB3433E4033436D1C082DF0DB0B6068
S315080019B0F0BD10B55B4C606A002825D000225D4951
S315080019C0201DFFF7DBFF01225B49201DFFF7D6FF2D
S315080019D002225A49201DFFF7D1FF0022524900F082
S315080019E014F80122564900F010F802224F4900F077
S315080019F00CF80322534900F008F804224C4900F079
S31508001A0004F804F1180032E010BD04F1180096E756
S31508001A1010B5444C606A002825D000224549204666
S31508001A20FFF7ACFF012244492046FFF7A7FF022231
S31508001A3042492046FFF7A2FF00223B4900F014F86E
S31508001A4001223F4900F010F80222384900F00CF84C
S31508001A5003223C4900F008F80422354900F004F84E
S31508001A6004F10C0003E010BD04F10C0067E7BDE8C3
S31508001A7010400522344962E7032009F03ABC80B5D4
S31508001A8009F07CFC0FF2CC010AE080B509F07AFC7B
S31508001A900FF2EC010204120E51F8221000F0FF00BA
S31508001AA001EB800002BD000010B509F067FC044692
S31508001AB009F068FCC0B208B9012C07D1072C11D867
S31508001AC0DFE804F004100608080A0C0E002010BD12
S31508001AD0092010BD022010BD032010BD0B2010BD2B
S31508001AE0062010BD44F0800010BD0E48007A7047ED
S31508001AF00C48807A704716484FF40041C1600821A7
S31508001B0001600849887A50B1104800680B7A800944
S31508001B1000F0010083421CBF087207F0C3BB704780
S31508001B2000BC00408824002000B0004000B40040FB
S31508001B3000B800400CB000400CB400400CB800409F
S31508001B4004B0004004B4004004B8004008B00040A7
S31508001B5014A80040554E4B004649420042544C00DA
S31508001B6045585400505752005744470020535700D1
S31508001B70435253004653480042414400464C5400E1
S31508001B80806F0208846F0208DC6F0208FC6F020887
S31508001B9004700208107002081C70020828700208F7
S31508001BA0307002083C7002084C700208EFF311808E
S31508001BB0602181F31188704780F31188704700000F
S31508001BC080B500F008F880B202BD80B500F003F8D1
S31508001BD00002000C02BD10B5FFF7E8FF30490A689D
S31508001BE0496841EA0244FFF7E7FF2E48017831B118
S31508001BF02D4909688C4202D12C48406810BD002145
S31508001C000170204610BD2A48072101602748012196
S31508001C10017070472DE9F84304460025206810B97D
S31508001C2000F0F8FD2CE0FFF7C1FF00F02CF8206863
S31508001C3010F1010F1CBF401C2060FFF7CCFF814646
S31508001C401C482168494489B2416021684944090C05
S31508001C500160164E3570164F02203860386400F061
S31508001C6017F8012009F096FE3D64307838B98525C5
S31508001C70FFF7B1FF2168081A4844206000E0256094
S31508001C802846BDE8F28380460B481021016070475C
S31508001C900A48102101604046FFF78EBF0000000089
S31508001CA010600040702B0020782B0020C82C0020E4
S31508001CB014A000401860004080E100E000E100E068
S31508001CC042DE704738B504460D4606F0FFF8FFF7C2
S31508001CD06DFF2B4622460FF2885101200AF084F840
S31508001CE029462046BDE83440EAE7DFF83C052DE9F9
S31508001CF0F843DFF838650168371D4FF420697965C0
S31508001D00016AB965DFF828150968F965416A39660F
S31508001D10816A7966C16AB966016BF966806B38674C
S31508001D2097F8340040074CBFFC6BBC6B09F03CFAD3
S31508001D30844224BFDFF8FC54A542A046386506F164
S31508001D408C01DFF8F424DFF8F43418D3A5693D6470
S31508001D50E4697C647C6DC4F30804062C13D19D42A7
S31508001D6011D395420FD22C884DF64265AC420AD162
S31508001D703C684C6040F201797C688C6003E0002482
S31508001D803C647C648046DFF8B844A04238BF2046ED
S31508001D90DFF8B04400E0001D0546A54204D2D0F89D
S31508001DA000E0BEF1CD3FF6D0DFF89C04401BB864D6
S31508001DB000240020F86406EB8005401C0628AC6762
S31508001DC0F9DB0020DFF884C403E0C0B206EB800527
S31508001DD0AC67E04528D25CF8044D9C42F9D394429E
S31508001DE0F7D2E507F5D54FF0000E06EB8E05AD6F79
S31508001DF0A54204D00EF1010EBEF1060FF5DBBEF1C9
S31508001E00060FE6D1002814BF401E0520DDE77C6FCB
S31508001E104FF0000E06EB8E020EF1010ED36F93679C
S31508001E20BEF1050FF6DB0C600246501ED2B2002A40
S31508001E30EDD1786DC0F3080002280AD0032816D021
S31508001E40042817D0052818D0062819D00C281DD024
S31508001E501FE0DFF8FC030168890748BF40F602194E
S31508001E601CD40068C00719D540F2025916E040F69E
S31508001E70012913E040F6022910E040F603290DE097
S31508001E80B9F5206F0AD140F6042907E040F605297E
S31508001E9004E018B1242838BF40F607294846BDE8AB
S31508001EA0F2832DE9F04FDFF884538046A86B41078B
S31508001EB085B007D5296C2F6D0FF2B836039100242B
S31508001EC0A14607E0E96BEF6C0FF2B036DFF88493B2
S31508001ED003916C6D00074CBF0FF2A8320FF2AC32BB
S31508001EE0B9EB040A07D064204FEA5A0100FB071031
S31508001EF0B0FBFAFB01E04FF0000B03980290CDF817
S31508001F000490009433460FF28C31404609F002FFE4
S31508001F101FFA8AF0019000961FFA8BF3BAB20FF2F5
S31508001F20A431404609F0F6FE95F8380040070CD46F
S31508001F30AAF19800874208D1686DC149884204D23F
S31508001F400FF2BC31404609F0E5FE0398814528BFEB
S31508001F50A04205D232460FF2D431404609F0DAFEE5
S31508001F60404609F02FFF286EE8B10FF2E0310FF274
S31508001F709074404609F0C6FE0026A6A7286EF040D3
S31508001F80C00707D554F82620107818B139464046B8
S31508001F9009F0B8FE761C112EF0DB404605B0BDE808
S31508001FA0F04F09F09BBE404605B0BDE8F04F0FF272
S31508001FB0CC3109F0AFBE2DE9F843044609F0E2F941
S31508001FC040F20151401AA44D0FF2B4570FF2CC5605
S31508001FD00FF2B4680FF22C4916D0401E17D040F203
S31508001FE0FF11401A35D04FF44071401A39D0401EBF
S31508001FF053D0401E73D0401E00F0B080401E00F043
S31508002000C880401E06D0C2E00FF2883142E00FF2C7
S31508002010C431C0E0E86C012806D0032807D004289C
S3150800202007D0052808D00AE00FF2F43608E07AA6A9
S3150800203006E00FF2F43603E00FF2F43600E077A676
S315080020400FF2F43100F0B5F82B6D0FF21441324659
S3150800205003E02B6DEA6C0FF22041204609F05AFE88
S3150800206090E00FF2304100F0A4F8686AC0F340002F
S3150800207018B10FF2384100F09CF8686AC0F3807016
S3150800208018B10FF2644100F094F8686AC00F79D06D
S315080020900FF2884100F08DF874E00FF2BC4100F0B1
S315080020A088F895F8200010F0030F01D000F07CF8AE
S315080020B0286AC0F3C01018B1EA6A394600F076F803
S315080020C00027286AF840C00705D500F069F810B15E
S315080020D0314600F06BF87F1C082FF2DB52E00FF256
S315080020E0C44100F066F800F05FF8286AC0F3802063
S315080020F018B10FF2C84100F05CF8286AC0F3C03086
S3150800210018B1EA6A394600F051F80827286AF840F3
S31508002110C00705D500F044F810B1314600F046F87E
S315080021207F1C102FF2DB95F82000000603D10FF272
S31508002130D44100F03EF801270FF2F8460FF2B058E6
S31508002140286BF840C00705D500F02AF810B13146CB
S3150800215000F02CF87F1C042FF2DB13E00FF2DC41B1
S3150800216000F027F800F020F81027286AF840C00782
S3150800217005D500F015F810B1314600F017F87F1CA8
S315080021801A2FF2DB2046BDE8F24309F01BBEBDE874
S31508002190F1830FF2C44100F00CF800F005F8F1E7FE
S315080021A058F82720107870472A684946204609F0CB
S315080021B0B1BD204609F0AEBD2DE9F0478046DFF8EF
S315080021C09CA00FF280560FF2B449002514A715A457
S315080021D006E0404609F096FD404609F0F3FD6D1C01
S315080021E03078A8B15AF8043B32464946404609F0C9
S315080021F089FD16F8010B0028FBD1307800281EBF90
S31508002200EDB205F00300032814BF21463946E0E77E
S31508002210BDE8F08720257000414443003F3F000099
S315080022200D0A00002C20000004ED00E0000000204C
S3150800223000E300E0081F0020802102089001000842
S3150800224098000020281F0020281F0020281F002093
S315080022501CA00040281F0020440000200400002085
S315080022600D0A5B4153534552543A25703A25645D2D
S315080022700D0A000070726F63657373006D61696E95
S3150800228000000000546872656164000048616E646D
S315080022906C6572002570206D6F6465207573696EB4
S315080022A06720257020737461636B20282534782095
S315080022B0746F20253478292C205350203D2025344E
S315080022C0780000002575206279746573207573653A
S315080022D0642028257525252920696E2025702073F8
S315080022E07461636B20286F7574206F6620257520CE
S315080022F0627974657320746F74616C29000000003C
S31508002300537461636B205F6D61795F2068617665E0
S31508002310207573656420757020746F203130302500
S3150800232025206F6620746F74616C2E0053502069E7
S3150800233073206F75747369646520257020737461E2
S31508002340636B2072616E676521000000496E7465D3
S315080023507272757074732061637469766520286F6C
S3150800236072207072652D656D7074656420616E6487
S3150800237020737461636B6564293A00004E6F2069A7
S315080023806E746572727570747320616374697665AC
S315080023900000000052657365742063617573653AC1
S315080023A0205761746368646F672065787069726521
S315080023B0642C206E6F2072656C6961626C6520659D
S315080023C07874726120696E666F726D6174696F6E7A
S315080023D00000000052657365742063617573653A81
S315080023E0205761746368646F6720636175676874F2
S315080023F0207769746820656E68616E636564206914
S315080024006E666F00496E737472756374696F6E20B9
S31508002410616464726573733A20253478000000009D
S3150800242053433120527800004D4143205278000032
S3150800243053433220527800005265736574206361F5
S315080024407573653A20444D412070726F74656374E4
S31508002450696F6E2076696F6C6174696F6E00000033
S31508002460444D413A2025702C20616464726573736B
S315080024703A2025347800000052657365742063613C
S315080024807573653A204173736572742025703A2511
S315080024906400000052657365742063617573653A5C
S315080024A02048617264204661756C74004846535230
S315080024B02E5645435454424C3A206572726F722028
S315080024C072656164696E6720766563746F722074DD
S315080024D061626C6520666F7220616E20657863653F
S315080024E07074696F6E000000484653522E464F526C
S315080024F04345443A20636F6E666967757261626C1C
S3150800250065206661756C7420636F756C64206E6FE8
S315080025107420616374697661746500004846535295
S315080025202E44454255474556543A206661756C74A3
S315080025302072656C6174656420746F2064656275C9
S3150800254067202D20652E672E2C20657865637574A7
S31508002550656420424B50540052657365742063616C
S315080025607573653A204D656D6F7279204D616E61A0
S3150800257067656D656E74204661756C7400000000B1
S31508002580496C6C6567616C20616363657373206170
S315080025906464726573733A2025347800434653524F
S315080025A02E25700052657365742063617573653AEC
S315080025B020427573204661756C740000416464722C
S315080025C0657373206973206F6620616E20696E7368
S315080025D07472756374696F6E2061667465722062C1
S315080025E07573206661756C74206F636375727265A6
S315080025F0642C206E6F74207468652063617573653A
S315080026002E000000434653522E286E6F6E65292011
S315080026106C6F6164206F722073746F7265206174C9
S3150800262020616E20696C6C6567616C2061646472F8
S3150800263065737300414653522E25700052657365C3
S31508002640742063617573653A205573616765204622
S3150800265061756C74000000005265736574206361CF
S315080026607573653A204465627567204D6F6E6974A7
S315080026706F72204661756C74000000002570203D5D
S315080026802025347800000000C0690208006A0208A4
S31508002690386A02083C6A0208806A0208386A020830
S315080026A0386A0208BC6A0208EC6A02081C6B02084F
S315080026B0406B0208686B0208A86B0208386A0208B1
S315080026C0386A0208E46B0208146C02084C6C0208AB
S315080026D0886C0208B86C0208386A0208386A020868
S315080026E0386A0208386A0208F06C0208206D020887
S315080026F0386A0208606D0208A46D0208E46D0208D3
S31508002700206E0208286E0208306E02083C6E020827
S31508002710486E0208546E0208586E02085C6E02087B
S31508002720686E0208746E02087C6E0208846E0208DF
S31508002730886E0208906E0208986E0208A06E02085B
S31508002740A86E02085230005231005232005233004D
S315080027505234005235005236005237005238005271
S315080027603900523130005231310052313200523183
S3150800277033284C5229004D535000505350005043B3
S315080027800078505352004D535020757365640050BD
S31508002790535020757365640043535441434B20627C
S315080027A06F74746F6D004943535200534843535234
S315080027B000494E545F4143544956450043465352D7
S315080027C000484653520044465352004D4D41522F3D
S315080027D042464152004146535200526574300052F7
S315080027E0657431005265743200526574330052655F
S315080027F07434005265743500446174300044617461
S3150800280031000000EFF3118060288041C043C00FFB
S3150800281070470000002181F31188704770B504469F
S315080028200D46022000F060F9012658B1C4484068F8
S315080028301022FF2100F0D2F92A462146002000F096
S3150800284081F90646304670BD70B5BD4D6968FF24EE
S31508002850002600200A5CA4F119039A42BCBF02F1C3
S315080028601904E4B2401C1028F4DB00200A5CA242DA
S31508002870BCBF761CF6B2401C1028F7DB300003D12B
S31508002880BDE8704001204CE109F00BFB90FBF6F126
S3150800289006FB1101C9B200206A68125CA24206DA78
S315080028A00A0002D10B30687004E0491EC9B2401C08
S315080028B01028F1DBBDE8704010B5002409F0F1FAE4
S315080028C04FF6FF7290429E4903D04A6822F81400D8
S315080028D0641C102CF2DB032008704978BDE8104010
S315080028E00120032200FA01F12CE138B504460D4611
S315080028F0012000F0F9F808B9702032BD90480A2185
S31508002900417084603DB10021C9B26A5C42B9491C74
S31508002910CAB2082AF8D301218170BDE8314007E020
S3150800292000218170082229460C3000F014F9F4E7DA
S3150800293010B5834C2078012807D0702000F0D1FC10
S31508002940702010BDE07809F0D7FAE078010014D0BD
S31508002950401EE070C0B209F0B7FA4FF6FF72018860
S315080029609142EFD090F90F20817B00F0ABFCE07824
S3150800297009F0C2FA09F0AEFA14E06078401C6070FB
S3150800298060781B280BDA0121A26881401142F5D034
S31508002990042020700322BDE810400120D2E0AB20BD
S315080029A000F0BFF8002010BD10B50C4600F08EF8F8
S315080029B028B163490878022818BF002C01D00020E6
S315080029C010BD801E032820D8DFE800F002051B1B77
S315080029D0FFF73AFF19E000224FF6FF73486830F810
S315080029E01200984206D1521CD2B2102AF6DBFFF723
S315080029F063FF0AE0497800F058FC002000F091F8DF
S31508002A0003E001200870FFF793FF012010BD2DE9B0
S31508002A10F0414B4D0446287803280E46904602D0CE
S31508002A2004280FD042E06968002031F81020238876
S31508002A309A4204BF4FF6FF7221F81020401C102856
S31508002A40F3DB33E0E07888B309F03CFA217B814276
S31508002A502CD1A87830B90822211D05F10C0000F008
S31508002A60C4F818BB002709E0F8B209F02DFA0822C5
S31508002A70211D001D00F0B9F8C0B17F1CE878F9B235
S31508002A808142F1D3401CC0B209F036FA70B9E87831
S31508002A9009F01AFA0746E878401CE8700E22214623
S31508002AA0384600F058F8BE7387F80F80BDE8F04145
S31508002AB00CE038B504460D4600F008F828B1204861
S31508002AC04068204400F80B5C012032BD1C480078A1
S31508002AD0022801DB0120704700207047184800785B
S31508002AE0012818BF0020704738B50446FFF7EEFFE7
S31508002AF018B13D2000F0F5FB0FE009F0EBF90020D6
S31508002B0000F00FF80E4D0020E8702C7009F0E6F979
S31508002B10686020B9182000F004F8002032BD0120B2
S31508002B2032BD10B5044606490020087009F0EEF9D2
S31508002B30200003D0BDE8104000F0D3BB10BD000054
S31508002B403C29002010B503F041F8040018BFFFF730
S31508002B50E8FF204610BD814233D210441144401E7E
S31508002B60491E10E011F8013900F80139121F11F851
S31508002B70013900F8013911F8013900F8013911F85D
S31508002B80013900F8013992B2042AEBDA93B2002B24
S31508002B901EBF11F8013900F80139521EF6D17047E7
S31508002BA011F8013B00F8013B121F11F8013B00F830
S31508002BB0013B11F8013B00F8013B11F8013B00F815
S31508002BC0013B92B2042AEBDA93B2002B1EBF11F82E
S31508002BD0013B00F8013B521EF6D17047130003D0A3
S31508002BE00A46194609F0A2B9704710B500E0521E08
S31508002BF093B21BB100F00FF8F9D012E0002010BD17
S31508002C0010B500E0521E93B21BB100F004F8F9D0DB
S31508002C1007E0002010BD10F8013B11F8014BA34254
S31508002C207047181B40B210BD0020DFF8B41701EB3F
S31508002C30C003FF221A71002241F83020401C0328E5
S31508002C40F5DB70472DE9FB4D1F46032F83B014466D
S31508002C5005DB0E9E3178490705D5052F01DA0120D7
S31508002C6074E0307900E0B0788DF804000025DFF8CC
S31508002C70708708EBC5000079FF2804D06D1CEDB2FB
S31508002C80032DF6DBFF25DDF840B05FEA0B0003D025
S31508002C90FF2D08BFB42059D0207903F040FE8246A4
S31508002CA0BAF1FF0F08BFA32050D0207909F07CF9AC
S31508002CB000284BD1DFF82C0700EB0A1000214388C7
S31508002CC0238060880F9A00909DF8040007F0D7F9D2
S31508002CD018B1E08840F02000E080BDF810109DF89B
S31508002CE00C00224607F0D6F9B8421CD3FF208DF80F
S31508002CF0080002A801900096BDF810109DF80C0077
S31508002D00FBB2224601F096FB07465FEA0B000CD0A1
S31508002D105FB99DF80800FF2812D008EBC50148F8EE
S31508002D2035B008710CE074270DE0BA2F07D1A079E9
S31508002D30C00604D5012009F05CF9002700E017B9A0
S31508002D40112006F0D1FD09F038F9384606B0BDE87D
S31508002D50F08D10B584B0088100931346069C029442
S31508002D600A46012401460194032011E010B582B0F9
S31508002D7000240094FFF7EDFF16BD10B584B0069C3D
S31508002D800093029413460A4601240146019404203E
S31508002D90FFF758FF04B010BD10B582B000240094A8
S31508002DA0FFF7EBFF16BDF0B50446022C85B00D46BD
S31508002DB016461F460BD16946E8B209F0DFF901004D
S31508002DC011D19DF8010030719DF8040070713B46E1
S31508002DD00B98029032460020019029460A980090E6
S31508002DE02046FFF72FFF05B0F0BD1CB5002401945F
S31508002DF0049C0094FFF7D7FF16BDF0B587B00446CC
S31508002E000D4616461F46162200216846FFF7E6FEBF
S31508002E10ADF80C40ADF80A606DB1082229460DF1EF
S31508002E200100FFF798FEBDF8140040F00200ADF867
S31508002E30140000200BE0380003D0ADF812700C2007
S31508002E4005E04FF6FC708642B4BF002008208DF8D6
S31508002E5000000D980F9A0E99ADF80E000C98ADF873
S31508002E601000684609F03DFD07B0F0BD80B5034681
S31508002E70DFF8740500880A0007D1BDE800500FF294
S31508002E8084520FF2785100F00FBC00910FF28C5269
S31508002E900FF2785100F008FC01BD7CB504460D46DA
S31508002EA001F0EAFC0646334622460FF27851022024
S31508002EB000F0F4FB30000FD175B101A800210160C4
S31508002EC0032000908DF8054001AB002236214FF60D
S31508002ED0FC7009F038FF0646304676BD2DE9F0430A
S31508002EE00D4687B0044628881646994608B100203C
S31508002EF059E0688848F2040188421FBF48F2060173
S31508002F00884248F22001884248F2010833D0132843
S31508002F10DFF8D87427D1B07A0690707A0590307A9F
S31508002F200490F0790390B079029070790190307925
S31508002F300090B1787078F37800EB01220FF2FC412B
S31508002F40022000F0ABFB7178B278787801EB0221A9
S31508002F5007EB4002401C91807870C0B240280ADB1B
S31508002F600020787007E0404505D048F20501884200
S31508002F7004BF307938704B4632462946204606F05B
S31508002F80DDFC002802BF688848F22101884203D187
S31508002F907178204606F0CAFC68884045A4BF082018
S31508002FA006F0DBFC012007B0BDE8F0832DE9F04709
S31508002FB088B081460E469246984609F056FF8DF827
S31508002FC0089003960546119F0497ADF816508DF89C
S31508002FD018A08DF81980109CADF8144001F0E0F89F
S31508002FE08DF81A0001F0DEF88DF81B0005F09BFA43
S31508002FF08DF81C0002A806F09FFCA8B923463A469D
S315080030003146284609F0F5FF70B923463A46314657
S315080030102846FFF763FF38B90190009523463A46DC
S315080030204946304606F0ADFE08B0BDE8F0872DE902
S31508003030FC471D000A9C0B9E80468946174632D0DF
S315080030400FF298420FF28841022000F02DFB3B88D0
S31508003050180008BFB8A20AD040F209118B4208BF6F
S31508003060B6A204D0B3F5827F0CBFB5A2B5A201946F
S3150800307078880FF208410090022000F015FB388886
S3150800308070B1032C0CDB3078B3780FF22041C007FF
S315080030904CBF0FF22C420FF23042022000F004FB24
S315080030A0CCA100F050F80C98CD49002201EBC203E0
S315080030B01B79834210D0521CD2B2032AF6DB4FF09A
S315080030C0000A002201EBC20393F804C0844506D027
S315080030D0521C032AF6DB07E051F832A0F1E7FF207D
S315080030E01871002041F832002946404606F00AFCCD
S315080030F0002D04BF3888002806D17888B0F5004F1F
S31508003100BCBF082006F0F0FB012006F026FC36B10D
S315080031103078C00703D500F019F803F083F9BAF13F
S31508003120000F02D000F012F8D047019600942B4603
S315080031303A46494640460AF028F800F007F806F0ED
S31508003140F1FBBDE8F387022000F0A8BA01950096C6
S3150800315023463A464946404670472DE9FC4204460E
S3150800316090380FF290350FF294390CD0401E48D0A3
S31508003170C01E46D0801E44D0801E42D01338042874
S315080031803FD911384ED10AF07FF8074601F002F808
S31508003190461EB641F60F2FB1002E14BFB8883889DF
S315080031A0ADF804000DF106000AF025F9BDF8060091
S315080031B0800605D5BDF8040040F02000ADF80400EF
S315080031C0324601A9002006F0CDFBBDF804000AF03E
S315080031D0FFF800F0DFFF00904B462A460FF2043155
S315080031E0022000F05BFABC2C06D10FF21C31FFF767
S315080031F0AAFF06F0ABFB01E00AF053FF06F0A7FBB7
S3150800320010E0912C04D14B462A460FF21C3104E0FB
S315080032100FF22C330FF21C312A46022000F03EFA38
S3150800322006F0F6FC2046FDF7B1FB204609F0DDFF67
S315080032302046FCF7E4FF18B10FF20C31FFF783FFC5
S31508003240BDE8F38230B56A4C657883B0002008F093
S31508003250A6FE207878B9012D08BF0AF053FF684604
S3150800326001F02AF970B99DF80000A84203D0012D93
S3150800327008BF022806D10FF200300068019001A8A5
S3150800328001F0EAFB08F099FE37BD30B583B00C466D
S315080032900123082269460BF0C3F905460822694648
S315080032A02046FDF7B6FE28463EBD38B504460D460F
S315080032B008F078FE29462046FDF7EAF9BDE83140D0
S315080032C008F07BBE70B504460D46164608F06AFE41
S315080032D0324629462046FDF7ABF9BDE8704008F0AE
S315080032E06CBE10B5044608F05DFE2046FDF7E3F90E
S315080032F0BDE8104008F061BE38B53E4909680A784D
S3150800330004467020AAB94D78012D08BF02250BF096
S31508003310F5FA20890FF280220FF260210090012031
S31508003320E37A00F0BBF921462846BDE8344001F0AF
S31508003330C0BA32BD000000005A444F005345000091
S31508003340484100003F3F000010B5044600F01BFF4F
S315080033500020215CFF2904BF00212154401C1028AD
S31508003360F7DB0020207410BD33B581B0002000249F
S315080033700FF2542108E011F830309DF80A50AB429C
S3150800338008BF5468401CC0B201EBC0025368002B4A
S31508003390F1D19DF808009DF807309DF806200FF238
S315080033A000210090022000F07FF99DF80920100006
S315080033B003D009A1022000F077F904B907A4BDF8E3
S315080033C00430224603B0BDE830400FF2EC1102206B
S315080033D000F064B9000000002E2564003F3F3F005E
S315080033E0B8270020E0270020A42F0020501F002027
S315080033F09C220208D82900207047000025703A2030
S3150800340025700000537563636573730025703A2051
S3150800341025703A2030782578000000004572726FD2
S3150800342072000000704A6F696E20666F722025640C
S31508003430207365633A2030782578000044657669FC
S31508003440636520416E6E6F756E63653A2030782528
S3150800345032782C307825782C307825782C307825D9
S31508003460782C307825782C307825782C3078257883
S315080034702C307825782C307825782C0050726F6699
S31508003480696C653A20257020283078253258292C11
S3150800349020436C75737465723A2030782532582C3F
S315080034A02025642062797465732C0000205A434CE9
S315080034B020257020436D642049443A202564000085
S315080034C0436C757374657200476C6F62616C0000BB
S315080034D0257074782025782C200000004552524F1C
S315080034E0523A2000257025705550203078253258DC
S315080034F000000000454D4245525F00004E455457B6
S315080035004F524B5F00000000547275737420436578
S315080035106E74657220455549206861732063686139
S315080035206E6765642E00000025702570444F574E5F
S315080035300000000025704A4F494E25700000000023
S315080035405F4641494C4544005468652061707020C7
S315080035506672616D65776F726B2069732068616E3C
S31508003560646C696E672074686520737461636B2088
S315080035707374617475732E00000000002570696EFF
S3150800358067206F6E2063682025642C2070616E4961
S3150800359064203078253258004A6F696E00000000B2
S315080035A0737461636B207665722E205B25642E2505
S315080035B0642E256400000000202570206275696C61
S315080035C0642025645D0000000000000080210208D8
S315080035D0110000008C210208120000009421020844
S315080035E0130000009C21020821000000A421020803
S315080035F022000000AC21020823000000B4210208C2
S31508003600AA000000BC210208FF000000000000001C
S315080036104FF6FF71884207D0010A01D00020704793
S315080036203F490978084000D001207047020A07D1AF
S315080036303B4A1378002914BF184323EA0000107088
S315080036407047830800EB5373C108DB080122A0EB1F
S31508003650C30002FA00F000EB012080B27047F8B50B
S3150800366004460D4616461F46FFF7D2FF58B13A469E
S315080036703146012008F034FB1DB126A1012008F0CF
S3150800368041FB28480480F1BD80B5FFF7C1FF20B192
S31508003690BDE80240012008F095BB01BD0CB480B519
S315080036A00A4602AB012104E00CB480B50A4602AB17
S315080036B00021FFF7D4FF01BC5DF80CFB2DE9F041B2
S315080036C082B000240FF28005DFF85C8012A713A6EB
S315080036D0E0B2FFF7B6FFFFF79BFF002814BF30469E
S315080036E038460090224658F824302946012008F02A
S315080036F011FB012008F066FB641C042CE8DBBDE81E
S31508003700F3810122FF2101E0012200210448FFF78D
S3150800371065BA00000D0A00006E6F00005945530097
S315080037203B270020A42F0020F024002080B5FFF7B7
S3150800373088FFBDE80440012178E780B5FFF781FFDF
S31508003740BDE80440002171E75B25645D20257020F3
S315080037503A20257000000000DFF8B406007E00B1AC
S3150800376001207047DFF8A8160A7E072A18BFFFF758
S31508003770F3BF80B5902803D1002008760BF032FB02
S31508003780BDE80140E8E770B504460D461646FF2237
S31508003790FDF727FC28B9002229462046FDF721FC1B
S315080037A050B146B16908204605F0FCFC08B9A520C9
S315080037B070BD002070BD702070BD70B50446084607
S315080037C015461E4632460821FFF7DDFFA8B93246E0
S315080037D002212046FFF7D7FF78B92878002818BFB6
S315080037E0FF2807D0012101FA00F06FF3DA2018B19B
S315080037F0702070BD0B202870002070BD10B50A46D9
S31508003800441A48BF6442C92C02DB884203D201E04D
S31508003810884200D30246904201D1012010BD002003
S3150800382010BD70B586B004460D46DFF8E805006899
S31508003830407B0F21084206BF94F828000228702012
S3150800384038D10123A21C211D2046FFF7B6FF06002A
S3150800385030D194F8260000F0020040F0010000F094
S3150800386031FBDFF8AC0594F82810417618220021C0
S3150800387000A8FFF7B3F90822211D00A8FFF76BF986
S315080038802088ADF808008DF80A50A0788DF80B004E
S3150800389003208DF80C00DFF88005059000AB94F83E
S315080038A028204FF44171012001F014F8064604F06F
S315080038B008FE304606B070BD30B58BB004460D46DE
S315080038C02C22002100A8FFF789F941F60630ADF849
S315080038D00000102205F115010DF10200FFF73BF972
S315080038E0102221460DF11200FFF735F9284600F09F
S315080038F00EFB00A809F0F2FC0BB030BDDFF810058E
S31508003900007E012818BF00207047DFF80405407EB6
S3150800391018B9DFF800050068007B704770B50646E1
S315080039201546DFF8EC44218530882081B078E072AE
S31508003930FDF791FBA0720822311D2046FFF70BF90F
S31508003940707B2074DFF8D0046061032020734DB9C2
S3150800395000F0A9FAC00705D404224FF6FD7100202D
S3150800396002F040FB9120FDF7CBFA03202076002DCC
S3150800397014BF0821022104F12000BDE87040FCF7BD
S3150800398025BD10B5DFF88844002084F82000207E85
S31508003990032835D100F087FAA17E002914BF6FF4F9
S315080039A080714FF6FF7108404FF6FE71084000F02F
S315080039B089FA0120A076DFF85C04006800214173CB
S315080039C0FFF7A3FF03283CBF072020760BF010FB68
S315080039D041F6063100200CF001FEFFF796FF02467D
S315080039E02346218D002000F075FFFFF78EFF032880
S315080039F01AD3002020760021012001F07EF813E07A
S31508003A00042818BF052808D1FFF77FFF01F0BAFE82
S31508003A100020207600F09CF806E0062804D1002055
S31508003A202076E07E0DF0EAFABDE8104004F049BDC4
S31508003A3070B582B004460D46DFF8D463307E01289F
S31508003A4011D105F069FE00902B462246C5A100203B
S31508003A500DF044FE7077FF2805D002203076BDE8C9
S31508003A60734002F033B973BD30B589B0DFF8A043AF
S31508003A7094F91C00217E01290BD100212176FDF73E
S31508003A80E1FA04F05AFD0020FDF753F804F05BFD57
S31508003A9059E0022959D1FDF7D5FA04F04EFD012067
S31508003AA0FDF747F804F04FFD1822002103A8FFF799
S31508003AB095F8207F8DF816000C21607F0DF0B5FD76
S31508003AC08DF8170003208DF8180000208DF81C00CB
S31508003AD0DFF84403089001230DF1170203A905A88E
S31508003AE0FFF76BFE05460020FDF70AFA3DB903AB62
S31508003AF002224FF44171002000F0ECFE0546F5B9AC
S31508003B000821607F0DF06DFE054600200090082311
S31508003B100022617F01A80DF092FC607F0DF0F2FB98
S31508003B20FF20607705202076012201A928460EF09D
S31508003B302AFA202104F12000FCF748FC03E00020C3
S31508003B40207600F005F8012000E0002009B030BD1D
S31508003B5000B585B000F0DAF89DF8030000F041F9E9
S31508003B60942004F038FDFFF7D0FE032808D3A948AF
S31508003B70006840884FF6FF71884208BF032000D0CE
S31508003B800220FDF7BDF905B000BD2DE9F04196B05C
S31508003B9004460D46164698460127082205F11C01DB
S31508003BA005A8FEF7D8FF022C08D1FFF7AEFE0328BA
S31508003BB069D300F078F9C00704D464E0FFF7A5FEDE
S31508003BC0032860D2288B0EF036FBFF285BD007ABA4
S31508003BD0424605F1100100200EF040FB002852D1A4
S31508003BE00E22314601A8FEF7B6FFBDF80C00BDF857
S31508003BF00A10884204D20020ADF80A00ADF80C007D
S31508003C00BDF80800BDF80610884204D20020ADF8B9
S31508003C100600ADF80800BDF81000BDF80E10884281
S31508003C2004D20020ADF80E00ADF81000BDF8100063
S31508003C300090BDF80E30BDF80A20BDF80810BDF892
S31508003C40060000F003F9F0B9002C34D1A87810B9B1
S31508003C50FDF706FAA8700123AA1C291D2846FFF7B6
S31508003C60ACFD80B900270122002107A809F031FF21
S31508003C700BA800F02FF90DF141033A4641F606313B
S31508003C8040200CF075FC2A46214638460EF01CFAF0
S31508003C9077B9002231882846FFF740FE0120FDF754
S31508003CA02FF904F04AFC2846FCF744FF04F04BFCC5
S31508003CB016B0BDE8F0810023CEE77FB515461C4651
S31508003CC053490A7E042A20D1002281F820200A7648
S31508003CD010B1FFF73DFF7FBD04F017FE06467DB124
S31508003CE000F014F8082202A9201DFEF734FF9DF8FB
S31508003CF00300A070BDF80000208004F0C6FE6073C3
S31508003D00012231462046FFF709FE7FBD1023072210
S31508003D1000A901200AF048B97CB504460D4600A85A
S31508003D2001F071FE082200A9201DFEF75EFF80B98A
S31508003D30268804F0F2FD86420BD104F0A6FE014661
S31508003D40607BFFF75BFD20B1002229462046FFF77E
S31508003D50E5FD73BD80B5012000F0B4F82C480021BC
S31508003D60017601BD3834310070B504460D46164655
S31508003D70FFF7CBFD032811D22848007870B1AC4272
S31508003D800CD1B0070AD528460EF039FB30B10079B8
S31508003D9020B92348BDE87040FCF706BB70BD102368
S31508003DA07F22172107F070BA28237F22182107F0EF
S31508003DB06BBA102302467F21172007F076BA80B522
S31508003DC000F071F8000A00F0010080F0010002BD61
S31508003DD080B500E080B5FFF7F2FF401E8041C00FB6
S31508003DE002BD0C490968887304F041BB80B50D48CB
S31508003DF00D49016000F057F8C00702D404480721AE
S31508003E00017601BD094908700020704700000000CE
S31508003E1090250020A02C002000F8FF07002700208E
S31508003E20102E0020D42C0020947402083927002074
S31508003E30102302467F21172007F037BA00B585B050
S31508003E4000F03AF89DF80E0005B000BD2DE9FF41D7
S31508003E500700884616461D4603D04FF6F87080457B
S31508003E600CD22EB1701E4FF6FF6180B2884205D281
S31508003E700A9C2DB1A4B2B4F57F4F01D301200FE0FF
S31508003E8000F01AF8ADF80470ADF80680ADF80860D1
S31508003E90ADF80A50ADF80C4000A8FFF7C9FF00209E
S31508003EA004B0BDE8F08100B585B000F005F80098CB
S31508003EB080B205B000BD044610237F22172100A852
S31508003EC007F0E2B91FB5FFF7F6FF009400A8FFF761
S31508003ED0AFFF1FBD10B58AB0044628237F221821DC
S31508003EE000A807F0D1F9002020609DF80400207191
S31508003EF010220DF10501601DFEF72DFE10220DF1B1
S31508003F00150104F11500FEF726FE0AB010BD10B51E
S31508003F108AB004460020009020798DF8040010220B
S31508003F20611D0DF10500FEF716FE102204F11501BC
S31508003F300DF11500FEF70FFE282300AA7F21182091
S31508003F4007F0B3F90AB010BD00B585B0FFF7B4FFA6
S31508003F50009840F48070009000A8FFF769FF05B04C
S31508003F6000BD000010B53549354C0020087000F03A
S31508003F7011F92080522200213248FEF72FFE002038
S31508003F8060800C22201DBDE810400021FEF726BEE9
S31508003F902B494A88522A00DB704710B5294CA05491
S31508003FA0501C488010BD10B50446C0B2FFF7F0FF9C
S31508003FB0200AFFE7BDE81040EAE738B5204D6B88D0
S31508003FC00C46E118522908DA01461E4822461844CA
S31508003FD0FEF7C1FD68882018688031BD30B51D46DA
S31508003FE000245B189A4209DA002030BDEDB26A183F
S31508003FF002446D1E12F8012C02EB0424EAB2002AD0
S31508004000F4D1204630BD0423E8E780B50223FFF744
S31508004010E5FF80B202BDF8B591420C4615460A4E38
S3150800402007D20719384600F011F80019401C8542D6
S3150800403001DA3046F2BD3846F2BD000056250020AA
S315080040407429002084290020FE2B00200078FF28F0
S3150800405008BF0020704780B502220021FFF7D5FF70
S315080040604FF6FF71884208BF002002BD70B582B0C6
S3150800407007F084F9044607F085F90546FDF71CFCA8
S31508004080FEF7C8FB00220021684605F048FC00B18F
S3150800409073BD04F0B3FA0646012300220F2101205E
S315080040A007F081FDFDF7EBFC034622460FF2C841F7
S315080040B00120FFF7F3FAFDF7E8FC03462A460FF25C
S315080040C0D0410120FFF7EAFA07F058F940F2A17447
S315080040D0C440E0070AD5DFF818442078FDF7E1FE6A
S315080040E02078FDF768FF2078FEF766F866B1334654
S315080040F00FF2D0420FF2B8410120FFF7CFFAAB21F9
S315080041000FF2C840FDF7DEFD07F044FFFEF78CFD11
S3150800411002F016F9FCF789F805F043FD02210220A2
S315080041200EF010FCFFF78EF80AF024F8DFF8C41337
S315080041300FF2A84541F2020008805220DFF8B813B2
S315080041400880B5A4DFF8B41308804FF4004005F0E2
S315080041503BF901E007F033FF03F0B8FE04F0CEFAAE
S3150800416005F045FD07F064FE0EF06CFC0121002009
S315080041700AF032F80028EDD02A4621464FF6FF709D
S31508004180FFF792FAE6E7DFF87813098810237F220B
S315080041900EF018BD04F0B9BB04F0BFBBFCF7E5BED2
S315080041A00FF008B938B508F060FE04460025284621
S315080041B00FF049FAA04201D1284632BD6D1CEDB276
S315080041C0022DF4DBFF2032BD38B5044607F0ECFEBD
S315080041D0050008D14FF4A051204608F03AFD0546DF
S315080041E007F0EBFE284632BD7FB500F0A1F804F0D3
S315080041F08CFB38B16088B0F5006F03D1601D05F0FF
S3150800420093FB13E0204605F0A6FB050014D1002613
S315080042106946304607F0B2FF002804BF9DF8000043
S31508004220002805D12146304607F0B3FF054603E0CE
S31508004230761CF6B2022EEBDB07F0BFFE284604B06A
S3150800424070BD38B500F074F8204605F082FB05000D
S3150800425003D1204607F0E3FF054607F0AEFE2846E1
S3150800426032BD10B5044604F060F9A64901EB041105
S31508004270097B814208D1204602F09AF820B12046EF
S31508004280BDE8104002F04DBBFF2010BD70B50446D6
S315080042900D4602F044FB0646FF2E07D004F045F90A
S315080042A0984901EB06110A7B824201D0002070BDB5
S315080042B0488828808888688088792871012120465E
S315080042C002F033FB68710021204602F02EFBA8712C
S315080042D0012070BD2DE9F04105460E46904602F0D4
S315080042E01EFB0746FF2F4FF6FF7414D004F01DF986
S315080042F0844901EB0711097B81420CD1300008BFC4
S31508004300012202D0012E06D100224146284602F09B
S3150800431031FB00B104882046BDE8F08110B500F0F5
S3150800432007F82046FEF719FFBDE8104007F045BE1E
S31508004330044607F037BE38B50C46734909680D5C64
S315080043402B469A4209D2009202200FF278220FF2E7
S31508004350A021FFF7A3F9002032BD00210091002219
S31508004360014620460DF06BF8284632BD70B598B068
S3150800437004460D46164607F015FE644800F052F846
S315080043800FF28421FFF78AF900F048F8060011D0E9
S315080043900DF1090008F062FD02A808F061FD03A806
S315080043A001909DF908309DF8092000962946204677
S315080043B0FEF7FCFD07F001FE18B070BD2DE9F043CD
S315080043C099B00546884691461E4607F0EBFD00F073
S315080043D025F807001BD0209C4C48662C04BF0178A2
S315080043E0002902D10121017007E0210005D100F062
S315080043F019F80FF24421FFF751F9029603A8019024
S31508004400009723464A4641462846FEF710FE07F01F
S31508004410D4FD19B0BDE8F08325703E00522203A9E9
S31508004420304688E700210170C16001714FF6FF70C0
S3150800443070470000F8B504460D4606981646194614
S315080044400CF0E3FF0746FF2F01D11820F2BD0798AD
S3150800445007702046042819D8DFE800F0030303098B
S3150800446010003B46324629460EF07DFD0CE03B46E1
S315080044700C220C2130460EF0C8FD05E03B460C2206
S31508004480314628460EF0B8FD044600E002243846B8
S315080044900CF038FF2046F2BD08221D49FEF75BBB2B
S315080044A010B50C4601F091FA010004D12046BDE88A
S315080044B01040FCF76BBD10BD01F087BA05207047A8
S315080044C00020704702207047042070471148007882
S315080044D070474B20704700B583B068460E490822DE
S315080044E001F038FBDDE90001FEF73EFF07BD0000DD
S315080044F021270020F8260020FC260020FE26002082
S31508004500AE740208E0270020EC230020D027002004
S31508004510C02C0020242700208474020810B582B01D
S31508004520FFF706FF0DF1010008F098FC684608F051
S3150800453097FC9DF900209DF801102046FEF767FAC2
S3150800454007F03BFD13BD38B504460D4607F02AFDB6
S3150800455029462046FEF728FA08E038B504460D46EF
S3150800456007F020FD29462046FEF7A3FABDE83140AC
S3150800457007F023BD70470000526573657420696EA5
S31508004580666F3A20307825782028257029000000A3
S31508004590457874656E646564205265736574206930
S315080045A06E666F3A20307825325820282570290003
S315080045B02570656D626572496E6974203078257854
S315080045C0000000004552524F523A200061662D6D98
S315080045D061696E2D736F632E630000003730325F9A
S315080045E05A4C4C5F4C696768745F74657374000055
S315080045F025706D736720746F6F20626967202825A0
S3150800460064203E20256429002A2A2A2A2A2A2A2AB8
S315080046102A5245434549564520636C6561722074A4
S3150800462068652063616C63756C61746F722A2A2AE7
S315080046302A2A2A2A2A2A00002A2A2A2A2A2A2A2A20
S315080046402A53454E4420636C656172207468652060
S3150800465063616C63756C61746F722A2A2A2A2A2A26
S315080046602A2A2A00DFF8542C1268127882420AD0C5
S3150800467019B1012A03D1022805D000207047022A61
S3150800468008BF0128F9D101207047DFF8481C0875D2
S31508004690704710B5DFF8244C2068407B112804D0F9
S315080046A0B6210FF21000FDF70DFB2068412141737A
S315080046B010BD00006173736F63696174696F6E2E54
S315080046C06300000080B5022003F033FF03F03AFFD1
S315080046D0DFF8000CDFF8E41B0968097B042903D31B
S315080046E0C17C491DC17404E04FF47A711830FBF798
S315080046F066FE00F005BE10B5DFF8D84B00206074E2
S315080047002078FF2803D00CF0FDFDFF20207010BD97
S3150800471038B504460D460CF081FD007C00F0070113
S31508004720400800F0380000EB410000F11102DFF804
S31508004730F80B0068205CD2B282420ADA831ADBB22E
S315080047400F2B88BF0F2300200090214628460CF027
S3150800475076FE31BDDFF8640B0068407B33281CBF4A
S315080047604328532801D101207047002070471FB500
S315080047700AF063FCF8B1DFF85C4B00A92078FFF774
S31508004780C7FF0020207661790DF1030001F05AF881
S31508004790FFF7B1FF00F010F800F076FB007DC007C8
S315080047A002D50FF0CBF808B90AF01CFB0FF0C5F8D4
S315080047B0012001F071F91FBD10B500F065FB017B02
S315080047C0032906D340884FF6FF71884208BF0320A5
S315080047D008D0FCF789FB0446FCF78AFB214607F05C
S315080047E05CFC0220FCF78CFB04F034F9BDE81040B1
S315080047F000F08ABD10B5DFF8DC4A2075FFF77BFFAD
S3150800480000214FF6FF7001F014F9DFF8B00A0068CE
S31508004810417B032918BF002919D0332918BF43291A
S315080048200FD1017B032906D303214173207DBDE8FF
S31508004830104003F0D0BE207D03F0CDFEBDE8104049
S31508004840BAE721214173BDE8104001F015BC10BD3F
S3150800485080B500F019FB002141734FF6FE7004F095
S3150800486058F84FF6FF7004F05CF8DFF8680A007D28
S31508004870BDE8024003F0AFBE80B5DFF8B82A0021D4
S31508004880117110B1FF2802D10120107007E0012133
S3150800489011708000411C89B2101DFBF797FD00F0CE
S315080048A033FD002002BDDFF88C0A002101710020CB
S315080048B0E2E738B504460D46287B00280CBF4FF6BC
S315080048C0FE7004F022F82B4622460146012001B06C
S315080048D0BDE830402DE9F04180460F4616461C4695
S315080048E0DFF8D8592868407B00284BD1701EC0B223
S315080048F0052847D2DFF8340A00780A2842D103F09F
S3150800490023FE00283ED103F021FE08B1042E39D338
S31508004910207B032816D14FF6FE70874214D1012E4C
S3150800492008BF002710D0022E2CD103F0EEFF4FF659
S31508004930FC71884202D203F0E8FF01E00FF02CF880
S31508004940074601E0012E1DD0B8F1000F0CD0207BE0
S3150800495003280CBF01210021012E0CBF01200020D5
S3150800496008F072FD002850D12146384600F026FF8F
S3150800497000284AD103F0E2FD03F0CEFD20B103F092
S31508004980E5FD08B1702040E02868407BDFF84479EF
S3150800499033281EBF532800207875304600F0F2FEF3
S315080049A0DFF88C69307820B103F0D0FD08B90FF034
S315080049B0A8FB207B032803D12046BDE8F04126E06A
S315080049C00822214607F10800FEF7C5F8207B0328D0
S315080049D028BF00203874FFF78EFE94203875387C7F
S315080049E000280CBF01203120296848730020B874BC
S315080049F0727801202968897B00FA01F1032001F009
S31508004A00E5F810B1296800224A73BDE8F08110B5AF
S31508004A10044600220821FCF7E4FA08B1012010BD7B
S31508004A2003F073FF00224FF6FF7100F0F0FE217CC1
S31508004A30204600F007FF6269E189207C04F03BF814
S31508004A40DFF878080068007B012808BF09F039FA02
S31508004A50FFF7B2FE002010BD70B582B00546DFF83C
S31508004A605C482068407B002802BFDFF8C008007851
S31508004A700A2801D0702076BD03F093FA00283AD1AF
S31508004A80DFF850682DB10222294606F12000FEF70C
S31508004A9062F800A800F099FF08B1932076BD00F0EF
S31508004AA019FF48BB9DF8000000F06CFE2068007BEB
S31508004AB0012818BF022805D003280ED3002000F0CD
S31508004AC0C4FF50B100F01DFF2068007B032828BFF3
S31508004AD00FF0C9FCFFF770FE0DE020681321417343
S31508004AE00020B074052201202168897B00FA01F1B3
S31508004AF0052001F06BF8002076BDFF22F8B50546C3
S31508004B000E461446DFF8B4070068017B012926D053
S31508004B10407B022818BF032821D1FCF7B6FADFF834
S31508004B20100842783146032001F050F8060017D1E4
S31508004B303320FCF7E5F9FFF7DEFDDFF8987703F099
S31508004B40ECFEF880002D14BF02200120387407F10E
S31508004B50080000F058FF0020B8747C7500E0702645
S31508004B603046F2BD38B504460CF058FB05462046DB
S31508004B700FF0C3FC441920460CF010FE4FF6FF5107
S31508004B8001402046BDE834400CF00EBE70B584B036
S31508004B9003F0BBFE0646DFF83C470B2120780FF0F2
S31508004BA08BFC002100F045FFDFF81057FCF73EFAB2
S31508004BB058B11EB14FF6F870864206D30EF0ECFED9
S31508004BC00646286840888642F8D0304603F0A1FE9B
S31508004BD0092120780FF070FC03F0A3FE2E68307BC5
S31508004BE0052813D100F01AFF8DF80800207C00284C
S31508004BF00CBF4FF4804244F201020120009002AB40
S31508004C004FF4806170880EF07EF90BE006208DF86F
S31508004C10080000F003FF8DF8090000F0F8FA708824
S31508004C200FF081FE0646FF2E08BF002015D0286823
S31508004C30418830460FF09FFC207C02281CBF304676
S31508004C40FFF790FF002300221146304610F07EF849
S31508004C50044630460CF056FB204604B070BD2DE9DC
S31508004C60F04186B0884616461F460C9C0D9D38B9FD
S31508004C70404610F04DF902AA03A90FF075F903A8EA
S31508004C8007218DF808108DF80960310A8DF80A1089
S31508004C908DF80B40019001200090042302AA0121FF
S31508004CA040460FF040FE0446FF2C1BD041460FF04D
S31508004CB062FC17B92046FFF755FF0DB9204611E0EB
S31508004CC040460FF07DF918B1204610F049F905E085
S31508004CD0002300221146204610F038F820460CF032
S31508004CE011FBFF2006B0BDE8F0812DE9F64F83B031
S31508004CF004461E460E9D00274FF6FF7856B14FF024
S31508004D00010B30460FF04DFE81467078400800F0E2
S31508004D10010A05E0BB4610460FF094FC8146BA46E8
S31508004D20DFF898050068007B032880F0A580691CD9
S31508004D30C9B29DF810000CF078FC054605F0020093
S31508004D4002909DF80C0018B9280658BF45F0800552
S31508004D5000F09AF8407B022804D1DFF8D8050078DD
S31508004D60204301D1022721E09DF80C0030B1B4F1AF
S31508004D70010868EB08084FEAD87800E0B846BBF1A6
S31508004D80000F03D0301D0CF009FD01E04FF6FF704F
S31508004D900121009143462A46014648460FF041F84C
S31508004DA080464FF6FF70804508BF0127DEB11CB963
S31508004DB04FF6FF70804504D1301D0CF0EFFC01461C
S31508004DC000E0414601200190009753464246484676
S31508004DD0FFF745FF0298C0B250B94FF6FF71484633
S31508004DE00DF030FC04E03A464146484610F0CCFC4B
S31508004DF0002F41D10298C0B2F0B1494640460DF0A5
S31508004E0042FC0E2101FB00F7DFF8B0140968896A35
S31508004E1079184A7942F040024A710DF067FCDFF8CA
S31508004E209C040068806A381841796A064CBF41F0CC
S31508004E30800101F07F014171F6B1DFF8586C9DF8E9
S31508004E401000307003F061FD0FF2340C690648BF9C
S31508004E500CF1010CBAF1000F18BF0CF1020C02D1CB
S31508004E600CB90CF1040C4B46424601469CF800006E
S31508004E7010F0FCFCFF20307005B0BDE8F08F000094
S31508004E800307000401050000DFF8300400687047D6
S31508004E902DE9FE4F04468846164640460FF038FB75
S31508004EA08146DFF83054297C01B101218DF80510BF
S31508004EB0DFF808743868007B05280CBF012000203D
S31508004EC08DF8040044B148460FF06BFD824648460B
S31508004ED00FF05AFD834605E040460FF0B3FB8246C5
S31508004EE0DFF818BC0020009004233246414602A889
S31508004EF00CF0A5FA0DF109000CF050FC80469DF85F
S31508004F000B60B4B10822DFF8F41B5846FDF76DFEB6
S31508004F1000285FD13868407B022808BF002E08D1D8
S31508004F20404603F0F6FC09F05DFF992003F053FBB9
S31508004F3050E0FCF77BF800284CD09DF805009DF85A
S31508004F400410084301D014B944E0002C42D11EB124
S31508004F509420FFF74FFC3DE05146386840880DF035
S31508004F6092FB0DF0C3FB524638684188404600F074
S31508004F704EFC3868417B012916BF3129112143218E
S31508004F804173022003F0D4FA40F6B83105F118004F
S31508004F90FBF715FA0FF067FA0020E8743868C17E47
S31508004FA021B905F11800FBF7FFF911E034B199F8BA
S31508004FB00110890702D5FFF7DAFB09E0007B042810
S31508004FC006D3052105F11800FBF7F9F90620E87460
S31508004FD0AD20287503F075FABDE8F78F2DE9FE4F69
S31508004FE004460FF095FA05460FF0D9FA064606EB81
S31508004FF0050920460FF081FA3518EDB220460FF064
S3150800500021FB804699F80070FCF736F8002818BF8F
S31508005010072F14D105F1030A4FF6FF7BA74E012F80
S315080050200ED0022F14D0042F00F0C180062F15D001
S31508005030072F66D0082F22D07C2F00F08180E0E071
S3150800504000950023224600210846FFF74EFED8E0C9
S315080050502A4621460020FFF71BFFD2E040460EF005
S3150800506065FF584503D00146404610F03EFB3068C0
S31508005070407B022802D1404610F047FEC1E0691C79
S3150800508000F0C1F807465FFA8AF100F0BDF88246DB
S31508005090A91D00F0B8F805465D45EFD00FF0E3F915
S315080050A03068407B132808D100F02BFC20460FF00F
S315080050B0C9FA014650460DF0E6FA3068407B0228E8
S315080050C018BF13281CD1284603F023FC384603F0E2
S315080050D028FC0021002000F0B5FB4146504600F0B0
S315080050E0A8FC7C48C078DFF8181A087000F00CF99C
S315080050F03068417B132903D12321417300F0E6FD73
S315080051007FE03068407B022802BF894C207900285E
S3150800511077D106F0C6FE0546012021568840C0EB29
S3150800512000181FFA88F6002003F002FA95FBF6F03D
S3150800513006FB1050411C89B2201DFBF740F960E0C0
S3150800514099F80100652804BF99F802006D2858D11E
S3150800515075480068205C5FFA8AF5854251D20822B4
S31508005160414601A8FDF7F7FC00AB00222946204678
S315080051700FF0C8FA002844D19DF80000FF2840D057
S31508005180DFF8805901202870DFF80869347003F0C9
S31508005190D4F99DF8001001A810F0B1FD03F0D3F979
S315080051A0FF203070002028709DF8000027E0204678
S315080051B00FF067FA0546DFF850090078FE2809D38C
S315080051C020460FF0AFF9000B00F00101284610F059
S315080051D09AFD16E00FF678100088ADF8080000F082
S315080051E016F828460FF09FFB0446FF2C09D02946DF
S315080051F00FF0C1F90021204602F0E0FE20460CF02F
S3150800520081F8BDE8F78FC9B220460CF0D1BA002064
S3150800521001900090022302AA0121704738B50220A6
S3150800522003F087F903F08EF92A4C00202076234DE7
S3150800523009F003FF28B12868C07E10B9FFF797FA6E
S315080052403AE009F0FAFE10B9FBF7F0FE48B1E07C47
S3150800525038B100F035F8E07C401EE07402F0E5FE57
S315080052602AE02868407B132809D0FBF7DFFE30B90F
S315080052702868407B11281CBF4328412803D1207D7C
S31508005280FFF7B8FA18E0022818BF032803D0002849
S3150800529018BF212810D10024DFF8705808E02046EE
S315080052A003F050F9002000F0F7FB03F04CF9641CFA
S315080052B02878E4B28442F2D35FE30000A02C0020F1
S315080052C0C82104F11800FBF77AB8DFF84408002172
S315080052D0C1747047CC25002080B5002003F029F959
S315080052E003F030F9124800210171DFF894040068D0
S315080052F0417B022904D1007B032838BF10F063FAEA
S31508005300BDE8014003F01FB980B503F021F9FF2875
S3150800531004D00848007810B1012000E00020DFF82A
S31508005320F417087001BD0000EC2300200C260020AD
S31508005330F0250020B42C00202DE9F04F8BB0044650
S31508005340DFF8D4070068255C20460BF067FF0746A0
S31508005350B81D0CF023FA064607F109000CF01EFAF0
S31508005360834607F10B000CF019FAADF8020007F1B5
S315080053700D000CF013FA80464FEAD039FBF77CFE95
S3150800538018B1204602F000FEE4E001A92046FFF726
S31508005390BFF99DF80600C0F3C30A9DF8050000F0A2
S315080053A00F008DF80000202DACBF9DF81270002765
S315080053B0DFF8CC030068407B022811D103F0ADFA70
S315080053C083450DD109A800F01EFB1C2D06DB08221B
S315080053D00DF1070109A8FDF708FC08B103F097FCD1
S315080053E0B6F5004F02BF28F4404040F6FF718842E8
S315080053F0CAD11C2DC8DB002208210DF10700FBF7D6
S31508005400F0FD00282FD1DFF814070078012826D1EF
S31508005410DFF80C0700788DF81600ADF814B08DF893
S3150800542017909DF800008DF820008DF8217008224D
S315080054300DF1070106A8FDF78EFBFFF725FD407B5A
S31508005440DFF8505601281CBF33282C7003F075F876
S3150800545005A8FFF763F8FF20287003F074F8DFF853
S31508005460B056A87C002875D1FBF7E0FD002871D05E
S31508005470012068740022082105F10800FBF7B1FD38
S3150800548010B1E888834508D008220DF1070105F117
S315080054900800FDF7AAFB00285CD1B9F1000F06D178
S315080054A0B7480068407B312818BF332852D10121FC
S315080054B09DF80000FFF7D6F800284BD09DF80400A9
S315080054C0002802BF9DF805000009022842D1AC4811
S315080054D00068017B9DF80620022902D1500709D4ED
S315080054E038E0120606D405291EBF4088BDF802100A
S315080054F088422FD1DFF82C66DFF82CB62878FF28EB
