S01A00005A30325F476174657761795F7261696E626F772E7333379C
S31508002000E020002011D601088DD501088FD50108DA
S31508002010A70A080100210008040303AC00537A014B
S3150800202000000000000000000000000000000000A2
S315080020300000000000000000000000000000000092
S315080020400000000000000000FFFFFFFFFFFFFFFF8A
S31508002050FFFFFFFF00E0020800000000000000008C
S31508002060FFFFFFFFFFFFFFFFFFFFFFFFFFFFFFFF72
S31508002070FFFFFFFFFFFFFFFFFFFFFFFFFFFFFFFF62
S31508002080F02F002000000000EF2F0020EF2F002087
S31508002090E020002064E5010878D8010880170020B0
S311080020A060140020000003080030002037
S31508002100E020002011D601088DD501088FD50108D9
S3150800211093D5010891D5010895D501080CD6010873
S315080021200CD601080CD601080CD601080CD60108F5
S3150800213097D501080CD6010829D80108837001082B
S31508002140F5D401080CD60108B99C01080CD601087B
S31508002150736001088D4200080CD601080CD60108E8
S31508002160E995010825F600081BBD0008C1AD010860
S315080021700CD601080BAF010853AF0108BBD70008FE
S3150800218001D300080CD601080CD601080DD60108A3
S315080021904048704710B54049A52281F888205A233F
S315080021A001F1880253709070002281F8092106E037
S315080021B05418521C94F88B40E31881F80931D2B2AE
S315080021C091F809318242F3D34218883182F88B306C
S315080021D0021DBDE81040D2B2012000F0F9B92E491F
S315080021E081F88B000120D5E770B52B4D82B00C46DF
S315080021F005F1800605E00320FFF7F1FF4FF4FA70BA
S31508002200706000A9204600F05FF9002840D195F8D3
S3150800221080009DF8001010B9A529EFD103E0012828
S315080022200FD15A290AD195F880009DF8001041551A
S3150800223095F88000401C85F88000DFE7A529DDD1E8
S31508002240F9E7022803D171700020B070EBE77178C6
S31508002250B278CB1C834215D19DF80000824209D181
S3150800226001290AD00020FFF7BAFF7178E81C01F0AF
S3150800227066FE02E00220FFF7B2FF002085F8800024
S315080022807060BBE78028B6DA9DF800008018DCE7A6
S31508002290002076BDD32500204825002070B51346BA
S315080022A0101802E0A4192C705B1EDBB24BB101F0CA
S315080022B00F060909451E28460A2EB4BF30243724BE
S315080022C0F0E7101870BD2DE9F04F87B0804601A8D9
S315080022D0894614469B4601AD00278DF800001BE091
S315080022E05BF804AB04224FEA1A412846FFF7D6FFEB
S315080022F004221FFA8AF1FFF7D1FF054605A8854291
S3150800230009D39DF800002E1A00F096F8002831D15E
S31508002310F719FFB201AD641C9DF800002E1A20784B
S31508002320002807D0252802D005F8010BE6E714F89F
S31508002330010F002876D02528F6D0322818BF342871
S315080023405FD0582857D063280CD0642818BF6C284B
S3150800235025D0702818BF732807D075281FD078286D
S3150800236049D0CBE75BF8040BDEE75BF804AB00F07B
S3150800237063F800285CD1F719FFB201AD002600E02A
S31508002380761CF6B216F80A000028F9D132465146EC
S315080023904846C04700284BD1F719FFB2AEE75BF8AD
S315080023A0040B0021002803D52D2129704042012164
S315080023B0002300224FF0000C02E0801B0CF1010CF8
S315080023C00FF22C3656F82260B042F6D243EA0C06D3
S315080023D0F6B2002E05D0C9B20CF130034B55491C94
S315080023E00123521C092AE5DBC9B230304855481C7E
S315080023F0C0B2451982E75BF8041B0222C9B2284617
S3150800240079E714F8010F78281CBF5828641EF1D103
S3150800241014F8010C32287FF463AF5BF8041B04221E
S3150800242089B2ECE700F008F810B9F019C0B200E07C
S31508002430002007B0BDE8F08FF2B201A94846404730
S315080024402DE9FC4E0400894692469B4618BF022C8D
S315080024502CD0032C18BF042C28D0042C26DA0FF213
S315080024607820205C012821D1DFF8585205EB840634
S31508002470F76801F0E9FD0021B9803980798001F01B
S31508002480E9FDF66901F0E0FD0021B1803180718037
S31508002490615501F0DFFD01F0F8FE5B4652464946FC
S315080024A0204602B0BDE8F04E01F0E6BD2120BDE8A9
S315080024B0F68E10B5044601F0CAFEDFF8080200EBF6
S315080024C08400C069808810BD2DE9F041884604461D
S315080024D0DFF8F05105EB8401CE690FF2FC11615C5F
S315080024E009B9012034E0615D05EB440761B1B9889B
S315080024F07288914208D101F0A7FD665D00216155F9
S3150800250001F0A8FD304623E001F0A1FEB088F0B145
S3150800251001F09AFD71880FF2CC128919897988F829
S3150800252000104FF6FF78718832F8142000F01EF874
S315080025307180B1884144B18001F08CFD605D20B1A5
S31508002540B888404504BF3088B880002000E02620BF
S31508002550BDE8F08180880FF2781333F81110891AD4
S31508002560884201DA0120704700207047491C91FB18
S31508002570F2F302FB1311704751A111E010B50FF2E7
S315080025805813C35C0024012B08D113460A4601469A
S315080025900FF23D00FFF797FE00B90124204610BD53
S315080025A00CB480B502AAFFF7E9FF02BC5DF80CFB84
S315080025B00CB438B5044604AAFFF7E0FF05462046E2
S315080025C0FFF7DAFF284632BC5DF80CFB0000000076
S315080025D02DE9F84F804647460FF2FC00385C8B46DB
S315080025E01646012839D137480FF200190FF2EC0ABE
S315080025F000EB87000025C46814E001F025FDA188DA
S3150800260001B9012521881BF8012B09198A7121882E
S315080026103AF81720FFF7AAFF2180A188491CA18054
S3150800262001F018FD3046461EC0B288B10022414668
S315080026302046FFF78FFF0028DFD11DB1404601F085
S3150800264058FD002517F809000028EFD1222005E0DB
S31508002650404601F04EFD002000E00120BDE8F28F63
S3150800266080B50FF27402825C012A06D1154A02EB84
S315080026708001C9688A88002AFCD101F073FD002010
S3150800268002BD0CB438B504460D4601F04BFD04AB4B
S315080026902A4621460C48FFF716FE0FF23C01615CFC
S315080026A0012908D1074901EB8400C068808810B168
S315080026B0204601F01EFD32BC00205DF80CFB000030
S315080026C00D0A000048230020354100087047000025
S315080026D000008000000000000001000000008000EB
S315080026E0000000000000800000000000000100005B
S315080026F000CA9A3B00E1F5058096980040420F0013
S31508002700A086010010270000E8030000640000000E
S315080027100A000000F8B5DFF8585BDFF8806C07465A
S3150800272028880C46801900220021401C01F02FFE43
S315080027302888801922463946401C01F0E5FD28887C
S315080027408455611C08182880F1BDA0F130030A2BB6
S3150800275038BF30210AD3A0F16103062B38BF5721B1
S3150800276004D3A0F14102062A38BF3721401AC0B265
S315080027707047F8B504460D46002614F81600FFF70C
S31508002780E4FF074604EB46004078FFF7DEFF40EA21
S315080027900710761C05F8010B082EEEDBF1BD0129A2
S315080027A00CBF000900F00F000A28B8BF303004DB60
S315080027B0A0F10A01062901D25730C0B2704770B598
S315080027C004460D4616460CE028780121FFF7E7FF78
S315080027D004F8010B002115F8010BFFF7E0FF04F8D8
S315080027E0010B3046461EC0B20028EDD1207004F811
S315080027F0010F70BD38B504460D4614F8010B01F0FB
S3150800280022FE2846451EC0B20028F6D131BD002159
S31508002810DFF88C2B0B5C8B54491C1029FADB002043
S3150800282010827047F8B50446DFF8785BDFF8406A2F
S31508002830DFF8687B61B10021012001F0CFFD328805
S315080028403B462946204601B0BDE8F04001F0B4BE3B
S315080028504FF6FC7084420CDBFF21012001F0BEFD1F
S3150800286032883B462946204601B0BDE8F04001F0D3
S31508002870BCBE0121012001F0B1FD338800972A462C
S315080028802146002001F0DCFEF2BD2DE9F04100F002
S3150800289064F815461E4600F006FD6062078021783A
S315080028A0891C217000F054F821702A0018BF0122F3
S315080028B000F015F9491C2170C9B20E52881C40E077
S315080028C02DE9F8438146DFF8745C089C00208846A9
S315080028D016461F4600F09AF86862A0F8009000F0C5
S315080028E081F818BF012200F087F80F52891C297059
S315080028F0C9B20C52881C63E02DE9F04100F02DF8AE
S3150800290016461D4600F0CFFC60620780217800F06D
S315080029101EF8320018BF012200F058F80E54069926
S31508002920D2B25E5C16545B1C561C3246122BF7DB81
S315080029302270F6B2B11C355221700122C9B20A546E
S31508002940481C2070C0B2BDE8F041FFF723BC891CC3
S31508002950C9B221F80080891C70470746DFF8DC4BAE
S315080029600020884670472DE9F8438146DFF8CC5B9E
S31508002970099C0020884617461E4600F047F86862FC
S31508002980A0F800902978FFF7E2FF3A0018BF012265
S3150800299000F01CF80F540899D2B25F5C17545B1C00
S315080029A0571C3A46122BF7DB2A70FFB2B91C3E5267
S315080029B02970012201F0C7F82970C9B20C54481CC5
S315080029C02870C0B2BDE8F243FFF7E4BBC9B20023E2
S315080029D00A54491CC9B24A1C70472178891C2170BF
S315080029E0C9B270472978891C2970C9B221F80080B4
S315080029F0891C297032007047C9B20A54491C2970CB
S31508002A00C9B20E54491C2970C9B270472870FFF71D
S31508002A10BFBB38B501F0EEF860620321018082225F
S31508002A2000F038F818BF012200F00EF802F05DF841
S31508002A302178626A8854481C207002F012FA2178BC
S31508002A40626A8852881C44E0C9B20A54491C21703B
S31508002A50C9B20D54481C2070704710B5046802F0BE
S31508002A600FFB022803D1BDE810407020D1E72046AD
S31508002A70BDE81040052102F09DBC38B502F027FEDE
S31508002A8001F0B8F800F06FF8012200F003F818BF5B
S31508002A9001221BE02178891C2170C9B20A52891CBF
S31508002AA021702A00704738B500780121814000233B
S31508002AB0FE224FF6FF7003F097F901F09BF800F03D
S31508002AC052F80222FFF7E6FF18BF012200F007F8C6
S31508002AD0481C2070C0B2BDE83240FFF75BBBC9B2E4
S31508002AE00A54491C2170C9B20D54704770B505784F
S31508002AF0DFF8484A1DB101206070002002E000207E
S31508002B0060700120A0700121284601F0A5FD064647
S31508002B1001F073F800F027F800F0ADFF320018BF97
S31508002B20012201F014F80E54491C2170C9B20D5443
S31508002B30481C01F002B870B500F0A6FF00F013F8C3
S31508002B400422217800F022FD21700822C9B28B1CCC
S31508002B500E5223702946DBB21818FFF730FE20788C
S31508002B60123000F0EABF606204210180704710B598
S31508002B70044682B00022002100F086FE00F05FF9CC
S31508002B8038B14FF6FF71009102462346052100F041
S31508002B9094FD13BD3EB50446FFF739FE01A920464C
S31508002BA0FFF7E7FD658A0023402201A9284603F0BE
S31508002BB06FFA30B1024600942B4683210320FFF7B3
S31508002BC09BFE37BD10B5DFF87449207986B0012819
S31508002BD022D1002020714FF48250059001200490E4
S31508002BE0002003900123DFF8140C0FF23001029045
S31508002BF004F12C0203200190E07831F810000090CF
S31508002C002121A08B03F00AFA020005D0A38B4FF608
S31508002C10FF70009000F050FD06B010BD06000800D9
S31508002C200003020700000000000000000000010089
S31508002C30000000000003000010B5DFF8004930F876
S31508002C40021BA18304F12C01FFF793FD01202071DB
S31508002C504FF4FA710020E07004F10C00BDE8104052
S31508002C6003F04BBA30B540F202744FF44075A8B180
S31508002C70012818D002281AD003281BD004281ED0F1
S31508002C80092820D00C2822D00D2823D00E2824D09D
S31508002C900F2827D0B0F5017F28D02DE00620088020
S31508002CA0102100202CE008200880002022E00D805A
S31508002CB0072015E00C804FF480602A2120E00C8064
S31508002CC0002025211CE001200880212012E00D802B
S31508002CD0032005E00D80042002E003200880002080
S31508002CE021210DE00D800820302109E04FF6014032
S31508002CF008800320202103E04FF6FF700880FF219B
S31508002D001080197030BD062802D181BB002070479B
S31508002D10082802D159BB01207047B0F5407F03D17E
S31508002D20072913D10220704740F20273984204D152
S31508002D30B1F5806F07D10320704701280AD12129F0
S31508002D4015D10920704791B904207047032907D186
S31508002D500C207047032808BF002908D10E207047A9
S31508002D60042901D10D207047082908BF0F20704794
S31508002D7070B50446084682B006781546022103F067
S31508002D802BFB0146042DB8BF00262046FFF7BBFFE4
S31508002D9000903246DFF8640C0068C38801F0C7F873
S31508002DA0002003F007FD012076BDFEB5044601AB01
S31508002DB0658802AA0DF106012846FFF753FFBDF8FC
S31508002DC00600B0F57C4F0BDDDFF8506CBDF8061039
S31508002DD037884FF48B50308000F02DF8378002E0AA
S31508002DE0014600F028F8002001F02DFBBDF8080088
S31508002DF001F032FB9DF8040001F025FBA08801F0E4
S31508002E002BFBE08801F028FB9DF8040003F0D2FDB7
S31508002E1040B99DF8040003F003FE014604F10800DA
S31508002E20FFF7E8FC00F00BF8020003D000952346F4
S31508002E3001F07DF8F7BD0622102001F0E0BA2488DB
S31508002E4000212046EEE410B570B9042908BF4FF4F6
S31508002E50004275D0052908BF48F2010270D003293F
S31508002E606ED148F203026BE0192804D1022967D112
S31508002E7048F2020264E0062803D1002960D1002244
S31508002E805EE0082803D100295AD1012258E0B0F59E
S31508002E90407F0FD1072908BF022251D0032908BF56
S31508002EA00C224DD0042908BF0D2249D0082947D144
S31508002EB00F2245E040F20274A04208D1B1F5806FB6
S31508002EC008BF03223CD000293AD1042238E040F654
S31508002ED00534A04210D140F21D10814208BF0522D8
S31508002EE02ED0B1F58E7F08BF062229D040F21B10DE
S31508002EF0814225D1072223E0012803D121291FD1A8
S31508002F0009221DE0B0F5A06F07D1012908BF0A22E2
S31508002F1016D0022914D10B2212E0032802D179B95E
S31508002F200E220DE04FF60443984203D141B94FF4FF
S31508002F30827205E04FF60143984208BF01F201226A
S31508002F4090B210BD2DE9F0478146DFF8F065002004
S31508002F500C4690463070FFF71BF970620421018019
S31508002F6008223178891C3170C9B20A52881C30701F
S31508002F7042460021204603F02FFA01463078A5780C
S31508002F80421C32702B0018BF0123776AC355D2B290
S31508002F90501CD5553070C0B2DFF8602A1268D28846
S31508002FA0C25300F1020A86F800A04846FFF74BFF15
S31508002FB05FFA8AF1C853881C3070EDB9E57828465F
S31508002FC003F093FD20B1201D03F012FA401C02E025
S31508002FD0284603F025FDC0B2011D88450CDB0021FB
S31508002FE007E00B193278756A1B795355521C3270F3
S31508002FF0491CC9B28142F4DB3078411C3170716AD0
S31508003000401804F06BFA3078411C3170716A00F090
S31508003010CCFA3078FFF7BEF8002003F0CBFB01208E
S31508003020BDE8F08730B5B0F5004F02D10020088022
S315080030305DE048F20104A04203D100200880052083
S3150800304072E048F20204A04202D1192008803EE04C
S3150800305048F20304A04202D10020088042E008B9E1
S31508003060062054E0012801D1082050E04FF44074AE
S31508003070022802D10C80072056E040F20275032888
S3150800308003D10D804FF480604EE0042801D10D80F5
S315080030903EE040F60535052805D0062807D10D80FF
S315080030A04FF48E7040E00D8040F21D103CE007287A
S315080030B003D10D8040F21B1036E04FF4A0650A28B4
S315080030C002D10D8001202FE00B2802D10D800220AD
S315080030D02AE0092803D101200880212024E00C28B1
S315080030E002D10C8003201FE00D2802D10C80042099
S315080030F01AE00F2802D10C80082015E00E2801D10D
S31508003100032004E0B0F5827F04D14FF6044008801E
S31508003110002009E0A0F20123052B06D24FF6014351
S315080031200B8040F20121401A108030BD2DE9FC4188
S31508003130044620886788002862D1DFF8004400F03A
S31508003140B2F8054665620420288008212078801C8C
S315080031502070C0B24153801C20700021C0B200F01C
S31508003160A5F800F0A3F84153801C2070C0B247535D
S31508003170801C2070461CC0B2804667B90FF2F4075F
S31508003180384604F0C1F900F088F8C9B2814233DA4A
S3150800319000F07CF8F9E7012F0CD10FF2E00738466A
S315080031A004F0B2F900F079F8C9B2814224DA00F0E5
S315080031B06DF8F9E7022F05D141F2941148F8051088
S315080031C0001D18E0032F09D100F00AFFDFF8340AC2
S315080031D00068800754BF0120022008E0042F02D1AE
S315080031E001F04EFF03E0052F06D101F07EFC2178A1
S315080031F0626A8854481C20702078FEF7CBFF34E0BA
S315080032000DF1060201A93846FFF70CFFBDF80400C8
S31508003210B0F57C4F0FDA48F20200874204D1BDF8B8
S3150800322004100022182003E0BDF804100022102024
S3150800323001F0E5F80CE0DFF8E457BDF804102E8835
S315080032404FF48B5028800022142001F0D8F82E80E5
S31508003250BDF8060001F000F9FFF7F1FD020004D001
S3150800326000972346082100F063FEBDE8F3810000BD
S315080032707E2C002073656E676C6564005A30312DAC
S315080032804131392D47617465776179002378CA5DC4
S315080032905A55491C5A1C22707047C0B208F80500D6
S315080032A02670002170472070FEF772BF4155401CFA
S315080032B02070C0B270472DE9F047054682B0A8884D
S315080032C06C880A2290FBF2F84FF60140B4F1080226
S315080032D00ED0921F10D0F63A40D0FD3A10D0521EAA
S315080032E02ED0521E30D0521E31D0521E32D038E067
S315080032F008211126202737E003210026212733E05D
S31508003300014600262027DFF81497B9F800A04FF4E5
S315080033108B50A9F800000222142001F070F8A9F8D1
S3150800332000A0B0B201F098F8F8B201F08CF8FFB23C
S31508003330202F18BF102F1BD1287901F084F820E020
S31508003340014601261027DEE701460226FAE701466E
S315080033500326D7E7014604262127D4E74FF604417A
S31508003360CFE7B1F57C4FCEDA0222FFF765FDD8E745
S31508003370212F06D10E2C0CBF1FFA88F0A88801F061
S315080033806BF82D8800F0D8FA28B1024600942B462F
S315080033900A2100F0CDFDBDE8F38700001C2C0020B3
S315080033A054260020702C00202DE9F04100F02CFE58
S315080033B09046FFF778FFFFF7D6FB09222178DFF85A
S315080033C03C7600F0E3F83A682170C9B2D2880A520E
S315080033D0881C207042460021304602F0FDFF217805
S315080033E0626A8B1C062D04D100280BD100F0BDF8AB
S315080033F07DE0032D03D10E2000F0A8F877E0012D1B
S3150800340005D121287DD1092000F0AFF86FE0082DFD
S3150800341005D1002875D1012000F0A7F867E0B5F5B9
S31508003420407F13D1072803D1022000F08FF85EE011
S31508003430032818BF042803D1093000F087F856E09E
S3150800344008285ED10F2000F090F850E040F2027C88
S31508003450654523D168B90420885223700020DBB261
S3150800346000F06EF80628FBDB981800218171C171FF
S3150800347010E0B0F5806F44D10320885223700020F5
S31508003480DBB200F05DF80328FBDB98180521C01CA9
S3150800349004F056F820780830207032E0B5F5A06FB1
S315080034A00BD1012803D10A2000F050F81FE00228AA
S315080034B027D10B2000F04AF819E04FF6044C654571
S315080034C004D14FF4827000F050F810E04FF6014C2A
S315080034D0654516D100F201258D522370591CDBB2C1
S315080034E0042807DAF078985421700720002300F0A2
S315080034F046F806E005D1F078985400F02DF800F06B
S315080035003EF82078616A401803F0E8FF2078616A7F
S31508003510FFF7CDFE00F049F820783A68616AFFF7B0
S31508003520C6FE927C4254FFF7C2FEFEF733FE002029
S3150800353003F040F90120BDE8F0810000E0200020FA
S315080035408519C118ED788D54401C70478852237030
S31508003550DBB2F0789854591C2170C9B23079885476
S315080035600023481C20700620704788522370DBB25F
S31508003570F0789854581C207000230720704721784B
S315080035808B54491C2170401EF9D17047891C217043
S31508003590C9B20A52891C21700022C9B20A54491CB0
S315080035A02170C9B20A54491C7047401803F098BFE5
S315080035B010B5044682B010464A8848F221039A425A
S315080035C008D14FF6FF710091234642780D2100F08D
S315080035D074F81FE0362A04BF098800291AD1002288
S315080035E003F063F901F04AFD844211D0DFF8340A8A
S315080035F0018C8C4204BFC18B002909D000210484A8
S31508003600C1838078012803D10121002001F021F827
S31508003610012016BD002016BDF0B50746DFF8040ADE
S31508003620042189B0C1704FF6FF743E88254606A965
S31508003630B81CFFF79EF8B88AB0B1401E16D0401ED7
S3150800364016D0401E012816D9801F17D0401E012803
S3150800365016D9801E01280BD940F2F511401A042804
S3150800366098BF4FF601450DE006250BE0082509E051
S315080036704FF4407506E040F2027503E0012501E0CB
S315080036804FF4A0654FF482500590009501200490F0
S3150800369001230020039006AA5848029021210320FE
S315080036A00190304602F0BAFC20B100F064F80D2112
S315080036B000F003F809B0F0BD06210420FFF7E5B8CD
S315080036C070B582B000F05BF8A07C50B900220621E4
S315080036D000F0DAF8B4F813601B2D0CBFA17D0021A9
S315080036E003E0012809D10122F1E700F089F820B1A9
S315080036F000F041F8802100F086F873BD70B582B0FD
S3150800370000F03DF80422082100F0BEF8A07C00F085
S315080037109AFEB4F8130000F09FFEB4F815601D2D4C
S315080037200CBF217E002100F06BF820B100F023F8D1
S315080037307F2100F068F873BD70B582B000F01FF8FD
S315080037400622082100F0A0F8A07C00F07CFEE07CB0
S3150800375000F079FEA08A00F07FFEE68A1E2D0CBFD7
S31508003760617E002100F04CF820B100F004F88221B7
S3150800377000F049F873BD0246009433467047044684
S315080037800D46FFF744B810B94FF4B970704764286E
S3150800379001DB99207047D9214843642190FBF1F059
S315080037A0C0F5B97080B2704770B5044682B0A07C87
S315080037B00D46652820DADFF86C080021417120469D
S315080037C0FFF725F800F05DF8A07CFFF7DCFF00F0B6
S315080037D043FEB4F8130000F03FFEB4F815601D2D43
S315080037E00CBF217E002100F00BF8020004D00094E3
S315080037F033467E2100F007F873BD0000842C0020B4
S315080038003046FFF70FB80120FFF776B870B50446C3
S315080038100D46DFF810080121417182B02046FEF7F7
S31508003820F6FF00F02EF8608A00F016FEA08A00F077
S3150800383013FEE68A1E2D0CBF617E0021FFF7E0FF0E
S3150800384020B1FFF798FF9121FFF7DDFF73BD38B56B
S315080038500446FEF7DCFF0022032100F015F8608A13
S315080038600A2190FBF1F080B200F0F6FDA58A00F07F
S3150800387063F828B1024600942B467D21FFF7C3FF63
S3150800388031BD0A224FF44071112000F0B8BD70B561
S3150800389082B0FFF774FF0722FFF7F4FF608A00F093
S315080038A0DBFDA08A00F0D8FDE08A00F0D5FD268B66
S315080038B0202D0CBFE17E0021FFF7A2FF20B1FFF704
S315080038C05AFF8121FFF79FFF73BD30B50022930091
S315080038D041FA03F303F00F0354422418A3F10A052F
S315080038E0062D38BF373302D30A2B01DA3033637417
S315080038F0521C042AEBDB30BD70B586B0044601A81D
S315080039000FF23071132203F02FFE002200F030F878
S3150800391066882588304600F09FFD314601A8FFF7E6
S31508003920D4FF122101A8FEF7F5FE00F005F808B14C
S3150800393000F017F806B070BD00212846FEF772BFE2
S3150800394070B5044682B025886688032200F010F810
S31508003950304600F081FDFFF7EFFF08B100F001F8EF
S3150800396073BD024600942B460E210420FEF7C4BF01
S315080039700421012000F043BD38B5044604222588F9
S31508003980FFF7F6FFFFF7D8FF08B1FFF7EAFF31BDEB
S3150800399010B5DFF8904600202075A07928B90120D7
S315080039A02072BDE8104003F00BBE012815D100F0C7
S315080039B024F900F00AF90122FFF70FF80A52891CC8
S315080039C0E2792170012A18BF002200F0BCF82170A4
S315080039D00022C9B20A54481C0EE002280DD1002064
S315080039E02072FFF760FC00F0B8F8012200F008F832
S315080039F00022C9B20A50081D36E110BD98230020DE
S31508003A00C9B20A54491C2170C9B20A54491C21700A
S31508003A107047DFF81006007A70470000802C0020F7
S31508003A2010B5DFF8004603F0FAFEE0710020A06248
S31508003A300120A0710020207203F0C2FD04F11400D9
S31508003A40BDE810404FF4FA5102F057BB70B500F0CC
S31508003A501BF800F0BAF800F00EF8C9B20E52FEF7DD
S31508003A60BDFF2A880A52FEF7B9FF6A880A52FEF78E
S31508003A70B5FF6A685FE003222178891C2170C9B204
S31508003A800A52891C217070470646DFF898450020BF
S31508003A900D462070FEF77CBB70B50646DFF88445F8
S31508003AA0D6F80110A06A884239D1607A401C607243
S31508003AB006F10900D6F8052003F096FF0546012D04
S31508003AC01AD100206072D6F80510A06A0818A062FC
S31508003AD03078012807D10020A0714FF4FA6104F16B
S31508003AE0140002F00AFB00F088F800F036F8012D01
S31508003AF00CBF0022012214E0607A3228F3DB002092
S31508003B006072A06203F08BFEE0714FF4FA51022056
S31508003B10A07104F11400BDE8704002F0EEBA002569
S31508003B20E1E700F010F82170012D0CBF00220122F8
S31508003B3000F00DF8A26A0A50081D2070C0B2BDE850
S31508003B407040FEF727BBC9B20A54491C7047C9B270
S31508003B500A54491C2170C9B2704760620521018068
S31508003B6004222178891C2170C9B20A52891C217045
S31508003B70704738B500F03EF800F027F8052200F047
S31508003B8043F82A680A50091D2170C9B26A680A50A2
S31508003B90091D2170C9B20A186968286803F01BFF55
S31508003BA0207869680818FEF794BF38B5054628785E
S31508003BB003F0D0FF00F01FF800F007F8082200F025
S31508003BC023F82A780A54FEF783BF6062052101802C
S31508003BD0704738B50546288803F0C4FF00F00BF88F
S31508003BE0FFF7F3FF092200F00FF82A880A52881C0B
S31508003BF0FEF76FBF0546DFF82C4400202070FEF75D
S31508003C00C7BA000008B800402178891C2170C9B2DB
S31508003C100A52891C21700022C9B20A54491C217013
S31508003C20C9B20A54491C2170C9B2704710B5044676
S31508003C3000221921192000F0E2FB002000F003FC05
S31508003C40642000F000FC2088DFF8D8436084002157
S31508003C50FEF7E8FDFFF7D1FFFFF7B7FF0A22FFF7E8
S31508003C60D3FF628C0A52881C2070C0B2BDE810408F
S31508003C70FEF790BA2DE9F04383B089461188DDF83E
S31508003C8028C00B9C0546B1F5827F48D19CF8007088
S31508003C907E074CBF4FF0020E4FF0000EFF073ED4D2
S31508003CA00EEB0C018B78062B09D1002C36D08988AF
S31508003CB05088FFF728F800F036F907212CE053B9A9
S31508003CC0002C2BD0B1F803105088FFF7BCF800F091
S31508003CD02AF9082120E0022B20D15288082A05D18A
S31508003CE0B1F80310112913D1082011E04FF6044347
S31508003CF09A4205D1B1F8031051B94FF4827007E022
S31508003D004FF601439A4204BFB1F8030000F20120BE
S31508003D1080B200F008F90A2100F00AF9FBE056889B
S31508003D20DFF80073DFF80003AE464FF6FF788EB172
S31508003D30032E13D0042E15D0062E41D0082E51D0AE
S31508003D40212E00F0B980342E00F0DF80B6F5407FD2
S31508003D5076D0E0E000F0E2F80521D2E000F0E3F8E2
S31508003D607D219BE09CF802000428F2D100203870DF
S31508003D70FEF70EFA78620421018010223978891C30
S31508003D803970C9B20A52891C4A1C3A70230018BFF6
S31508003D900123C9B2D2B20B541454511C3970FF22F4
S31508003DA0C9B221F80090891C3970FFF7CCFE39702A
S31508003DB0C9B20A54481C3870C0B2FEF7EBF9AAE03B
S31508003DC0002D14BFBEF1040FB1F5827F03D100F0B8
S31508003DD0AAF8802162E0BEF1030FF0D100F0ABF83B
S31508003DE0802163E0032BEADB9CF8001049074CBFEF
S31508003DF09CF804109CF8021004290FD1002D18BF56
S31508003E00BEF1040F03D100F08EF87F2146E0BEF123
S31508003E10030F04D100F08FF87F2147E006297AD1F5
S31508003E20002D18BFBEF1040F03D100F07CF88221E3
S31508003E3034E0BEF1030F6ED100F07DF8822135E043
S31508003E40032B68DB9CF8001049074CBF9CF804104C
S31508003E509CF802100A2917D17979002D18BFBEF1EE
S31508003E60040F06D101290CBF91217E2100F05BF8D1
S31508003E7014E0BEF1030F4ED101290CBF91217E211A
S31508003E8001230193009011E0072944D1002D18BFA2
S31508003E90BEF1040F04D100F046F88121012038E074
S31508003EA0BEF1030F37D100F046F881211389224667
S31508003EB00120FEF758FD2EE0F878042804D154B303
S31508003EC000F02CF80D211DE0C4B9401CF870012142
S31508003ED0C0B2397104280ADB0020F870CDF80080DA
S31508003EE00022BB8BFFF7E8FB0020387313E04FF482
S31508003EF0FA7107F10C0002F000F90CE000F00EF878
S31508003F0006210420FEF7C1FC05E000F00CF8832129
S31508003F100320FEF7F1FC0020BDE8FE83CDF8008003
S31508003F204B462246704700904B462246704707216B
S31508003F300420FEF7C5BC012101910090704738B5F1
S31508003F4030F8022B30F8023B384C5D1EADB204EB5C
S31508003F508505012A06D0032A0FD0042A16D0052A79
S31508003F6018D031BD912B08BF8323A3F17D0292B2ED
S31508003F7054F82220BDE838401047A3F1820292B2D5
S31508003F8004EB8202BDE83840D26910476A6ABDE888
S31508003F90384010476A6EBDE83840104710B50446E9
S31508003FA000F01EF82248006880070CD51A2C02D1AA
S31508003FB06FF02A0010BD192C02D16FF00B0010BD4E
S31508003FC06FF0050010BD1A2C02D16FF0190010BD54
S31508003FD0192C02D16FF0080010BD6FF0040010BD57
S31508003FE00821112003F007BE80B5FFF7F9FF104836
S31508003FF00068800705D5BDE804400921162003F0AE
S31508004000FABD01BD704770470546064C00200E46AE
S31508004010704780B5902812BFBC280020FEF7F9FC2F
S31508004020002002BDE0200020542600201421002094
S3150800403008B8004053656E676C65645F47726F75B4
S31508004040705F303030300000EFF31180602181F36B
S315080040501188704780F31188704700009848016CF2
S3150800406041F4C04141F0090101644FF6FF71016056
S31508004070202194480160704770B515461E460128F0
S3150800408035D113293CBF0FF26C20095C080964225C
S31508004090504301F00F010B2903DA884006E00A2293
S315080040A050430A46511ED2B20B2AF8DA01460120BD
S315080040B003F09DFEE0B9300907280CBF0020022056
S315080040C0012D08BF40F0180003D0022D08BF40F0AC
S315080040D0080006F00F010229A8BF40F004007A493B
S315080040E0886001200860FFF7B9FF002062BD212023
S315080040F062BD012800D0704738B5734800680128AA
S315080041000FD1FFF7A1FF05467048016841F0060187
S315080041100160012000F09CF82846BDE82640FFF71C
S3150800412099BF23BD012804D16848016821F006011A
S3150800413001607047012802BF65488369012B07D0D3
S3150800414021207047C3685B07FCD511F8013B036063
S3150800415013465A1EDBB2002BF4D1C1684906FCD5BA
S315080041600020704710B5044603F030FD012C03D13A
S31508004170584800684006FBD510BD70472DE9F04346
S315080041805549564B51F82020554C564D564EDFF89A
S31508004190408119E0B2F804E036F810707F1EBE457B
S315080041A026DAB2F800E096448EF806C0178835F885
S315080041B010E007F1010C9CFBFEF70EFB17CCA2F8EA
S315080041C000C097887F1C9780D8F80C70BF073CD52D
S315080041D0D8F80C70D8F800C017F03807DAD05FEABC
S315080041E0077C08D45FEAC76C08D54FF0240E0BE0AD
S315080041F04FF0230E08E04FF0270E05E0BF064CBF30
S315080042004FF0250E4FF0010E51F820C0075D37B963
S31508004210BCF8007023F8107000F804E0D4E733F80F
S315080042201070ACF8007000F804E0BCF80070BCF838
S3150800423002E077452FBFA7EB0E0E36F81090A9EBD4
S315080042400E0EBE44ACF804E0BEE7BDE8F083704746
S3150800425070B52649264A51F820101D4B0FE04C88A8
S315080042606418A4791C604C8832F81050641C94FBBE
S31508004270F5F605FB16444C808C88641E8C808C8869
S3150800428014B1DC686407EAD470BD704738B50C4CC5
S315080042900FE046F229702560054203D0A9B2012035
S315080042A0FFF76CFF41F6D60005421CBF0120FFF759
S315080042B0CFFF2068216C11EA0005EAD131BD000064
S315080042C008A8004000E100E054C8004048A80040A3
S315080042D03CC8004048C80040642300204C23002006
S315080042E048230020E42600089CDD0108542300200A
S315080042F0DC260008306090C0C1C2C394C495C55C72
S3150800430096C6AC9798990D00814233D21018511869
S31508004310401E491E10E011F8013900F80139121F34
S3150800432011F8013900F8013911F8013900F8013995
S3150800433011F8013900F8013992B2042AEBDA92B27F
S31508004340002A1EBF11F8013900F80139521EF6D1AC
S31508004350704711F8013B00F8013B121F11F8013BA9
S3150800436000F8013B11F8013B00F8013B11F8013B4D
S3150800437000F8013B92B2042AEBDA92B2002A1EBF79
S3150800438011F8013B00F8013B521EF6D170471300A5
S3150800439003D00A46194603F07FBD704710B500E002
S315080043A0521E92B232B110F8013B11F8014BA342EA
S315080043B0F6D00FE0002010BD10B500E0521E92B2F4
S315080043C032B110F8013B11F8014BA342F6D001E0D7
S315080043D0002010BD181B40B210BD000010B50C46D9
S315080043E008B903F0A3FDDFF8841008714C7110BDFD
S315080043F0DFF878104FF48252CA80488070472DE95A
S31508004400F041804608461446FFF7F2FFDFF85C5095
S31508004410288A0127002814BF04210021DFF85060EC
S3150800442041EA0801317018B170700327000AB070AC
S3150800443002F06BF9B855781CC0B28455401CC0B25E
S31508004440E881BDE8F081DFF82410DFF82430CA8956
S31508004450D054501CC881704710B50446C0B2FFF747
S31508004460F2FF200ABDE81040EDE70000702C00209E
S315080044701C2C00200020DFF85815FF2301EBC00292
S315080044801371002241F83020401C0328F6DB7047E0
S315080044902DE9F84B0BB484B01446032B05DB109DAD
S315080044A02978490706D5052B01DA012079E095F820
S315080044B0049001E095F802900026DFF814B50BEB9E
S315080044C0C6000079FF2804D0701CC6B2032EF6DB9E
S315080044D0FF26DDF848805FEA080003D0FF2E08BFF4
S315080044E0B4205ED0207902F07CFD0746FF2F08BF76
S315080044F0A32056D0207903F00DFD002851D1DFF80E
S31508004500D40400EB071000214388238060889DF8B7
S3150800451044200090484602F08FF918B1E08840F030
S315080045202000E080BDF814109DF81000224602F025
S315080045308FF9BDF81810884220D3FF208DF808009F
S3150800454002A8019000952246BDF81830BDF814104F
S315080045509DF81000DBB200F0A5FE07465FEA0800EA
S315080045600ED06FB99DF80800FF2814D00BEBC600D3
S315080045709DF8081001714BF836800CE074270DE0A1
S31508004580BA2F07D1A079C00608D50027012003F065
S31508004590E6FC00E017B9112003F0E6FC03F0C3FCC3
S315080045A0384608B0BDE8F08B10B584B0069C088183
S315080045B000F013F803200CE010B582B00024009434
S315080045C0FFF7F2FF16BD10B584B0069C00F005F89B
S315080045D00420FFF75DFF04B010BD00930294134654
S315080045E00A46012401460194704710B582B000249A
S315080045F00094FFF7E8FF16BD2DE9F04385B00446A1
S315080046000C9D0D9F884616469946022C0BD100A98B
S315080046105FFA88F003F0B0FD78B99DF801003071B3
S315080046209DF80400707102970020019000954B4692
S31508004630324641462046FFF72BFF05B0BDE8F0831A
S3150800464030B583B00025069C01950094FFF7D4FF8A
S315080046503EBDFF2808BFFE2030B583B004460D4690
S3150800466004F047F870B96DB101A800210160032074
S3150800467000908DF8054001AB002236214FF6FC70FC
S3150800468005F030FA3EBD2DE9F0410D46044628886E
S3150800469016461F4608B1002034E0688848F204012F
S315080046A048F2010888421CBF48F2060188420DD02C
S315080046B048F2200188421CBF1328404506D048F21C
S315080046C00501884202D13079C34908702946204637
S315080046D005F08FFB3B46324629462046FEF768FF23
S315080046E0002802BF688848F22101884203D1717800
S315080046F0204603F058FC68884045A4BF082003F00C
S3150800470071FC0120BDE8F0812DE9F04788B08146AB
S315080047100E469246984602F0E8FE8DF808900396F3
S315080047200546119F0497ADF816508DF818A08DF818
S315080047301980109CADF8144000F0A4FC8DF81A00FE
S3150800474000F0A2FC8DF81B0005F0C7FC8DF81C00D4
S3150800475002A803F03AFCA8B9A3B23A46314628465D
S3150800476005F0A1FD70B9A3B23A4631462846FFF7CF
S315080047708AFF38B901900095A3B23A4649463046B1
S3150800478001F00DFF08B0BDE8F0872DE9FC4780462B
S315080047908A4617460C988E491D46002201EBC2032D
S315080047A01B79834210D0521CD2B2032AF6DB4FF093
S315080047B00009002201EBC2031C79844207D0521C6F
S315080047C0D2B2032AF6DB07E051F83290F1E7FF2070
S315080047D01871002041F832002946404603F0D0FB04
S315080047E0002D04BF3888002806D17888B0F5004F18
S315080047F0BCBF082003F0B8FB012003F0F3FB0A9CBA
S315080048000B9E36B13078C00703D500F01BF802F0CE
S315080048109EF95FEA090002D000F014F8C84701962D
S31508004820A4B200942B463A465146404605F0FEFD92
S315080048300195009623463A4651464046FFF71AFA2E
S31508004840BDE8F38701950096A3B23A46514640461D
S31508004850704770B5044682B090380CD0401E3AD0E6
S31508004860C01E38D0801E36D0801E34D01338042897
S3150800487031D9113831D105F031FE064600F0FEFB7C
S31508004880451EAD41ED0F2EB1002D14BFB0883089FD
S31508004890ADF800000DF1020005F0D9FEBDF80200E2
S315080048A0800605D5BDF8000040F02000ADF80000F0
S315080048B02A4600A9002003F098FBBDF8000005F081
S315080048C0B3FEBC2C02D103F086FB01E006F001FD25
S315080048D003F082FB01E001F01FFE204605F0D7FD3C
S315080048E0204606F08DFD2046FFF793FB73BD10B5F5
S315080048F084B03A4C002003F008FB207880B964782D
S31508004900012C08BF06F0A4FD00A800F005FD70B94B
S315080049109DF80000A04203D0012C08BF022806D14A
S315080049200FF2C4000068019001A803F0D2FF03F05B
S31508004930FAFA1FBD38B504460D4603F0E9FA2946CA
S31508004940204606F003FDBDE8314003F0ECBA70B529
S3150800495004460D46164603F0DBFA3246294620463B
S3150800496006F00EFDBDE8704003F0DDBA10B504464A
S3150800497003F0CEFA204606F03EFDBDE8104003F0EF
S31508004980D2BA10B5164909680A7804467020002A72
S3150800499004BF4978012906D106F06FFD2046BDE817
S315080049A0104003F05DBE10BD38B50D4909680A7898
S315080049B0044670205AB94D78012D08BF022506F025
S315080049C0BBFD21462846BDE8344003F0AFBE32BDE4
S315080049D098260020B0260020BC21002098D801087F
S315080049E09429002070470000000000004148006834
S315080049F0408870473F480068001D70473D4800687A
S31508004A00C07E704770B53B4D296848733A4C3B4E9B
S31508004A10022817D100F074F868B92868007B0428C2
S31508004A203CBF304601F05EFB2868007B03283CBF8C
S31508004A30204601F057FB28684069C00054BF9024FF
S31508004A40BC240AE000F05CF810B106F0C1FD03E0F2
S31508004A503070207006F019FE9124204606F0E3FF18
S31508004A6020B92046BDE8704005F08FBB70BD2148CF
S31508004A700068407B00F00F0070471E480068407BC6
S31508004A8000F00F00022801D101207047002070476E
S31508004A9010B5002300E05B1CDBB28B4205D210F890
S31508004AA0014B9442F7D0002010BD012010BD80B5FF
S31508004AB0082107F0CFF908B1002002BDA52002BDE4
S31508004AC00C480068407B01281CBF3128332801D1D7
S31508004AD0012070470020704710B5044607F07BFC9C
S31508004AE010B904490968CC7310BD02480068807B78
S31508004AF070470000E02C0020302F0020942E002064
S31508004B0080B500F0B6F9032801D1012002BD0020C6
S31508004B1002BD80B5FFF7F4FF38B140F22B110FF252
S31508004B200C00BDE8044007F039BD01BD656D62653E
S31508004B30722D737461636B2D636F6D6D6F6E2E636B
S31508004B400000000010B508F0CDFA08F021FBDFF8E8
S31508004B502C432078002839D1102008F05DFC000687
S31508004B600BD4002008F058FC000606D5E07801288A
S31508004B7012D108F091FCA8B310BD102008F04CFC27
S31508004B800006F6D5002008F047FC0006F1D5E078C7
S31508004B90012818BF0F28ECD0E078022818BF06288D
S31508004BA0E7D0072818BF0828E3D0092818BF0A281D
S31508004BB0DFD0032818BF1028DBD0112818BF122809
S31508004BC0D7D013281CBF14281528D2D00FF2E024FA
S31508004BD021460020FDF755FD21460120FDF751FD30
S31508004BE0B02010BD08F0BFFD08F016FEDFF89002F1
S31508004BF0007808B103F0FEFB08F018FE09F041F84A
S31508004C00DFF880420FF2D42001F011FB2070DFF8A4
S31508004C10780201F00CFB607005F0C6F906F0BBFDE2
S31508004C2009F062F90AF0CEFB0AF0CFFB06F002FFA4
S31508004C3001200AF0F6FDF021DFF8500201F064FACF
S31508004C40002010BD2DE9F0470BF050F80BF054F991
S31508004C500BF06CFC08B90BF03CFCDFF834824046DC
S31508004C600BF0ECFF08B909F05CFCDFF8289248461F
S31508004C700BF0E4FF08B90CF0AEF90CF0B3FC0CF03D
S31508004C8052FEDFF80052287801F0BDFA687801F084
S31508004C90BAFA0CF0B7FF00270024DFF8FC61DFF84A
S31508004CA0FCA10AE0204605F027FA3068007B0428B4
S31508004CB028BF012705F021FA641C9AF80000E4B21F
S31508004CC08442EFD3002F1EBF75480078002805D010
S31508004CD000F03EF8102808BF0DF03CFA71480BF0BA
S31508004CE0ADFF08B908F0A2FF0DF09EFDFFF7ACF97D
S31508004CF007460BF01BFC68B140460BF09FFF48B116
S31508004D0048460BF09BFF28B10DF08CFD10B12878B2
S31508004D1001F0AFFA3846FFF79DF9FFF795F9044613
S31508004D200BF004FC30B140460BF088FF10B16878F0
S31508004D3001F09FFA2046FFF78DF905F0D6F918B964
S31508004D4040F26B1100F035F803F050F8BDE8F08733
S31508004D5038B506F00AFD28B10DF019FE441EA44127
S31508004D60E40F00E001240AF05AFE00280CBF0425CF
S31508004D7000250BF0DBFB48B145480BF05FFF28B177
S31508004D8044480BF05BFF08B1002000E002204649CA
S31508004D90097801B12021424A127802B11022434B08
S31508004DA01B7803B140232C43204308431043184380
S31508004DB032BD0FF2181007F0F1BB38B50446364875
S31508004DC00068007B03280BD220460EF001F84FF648
S31508004DD0FF75A84204BF20460EF048FAA84204D13F
S31508004DE02046BDE8324008F00ABE32BD70B504461A
S31508004DF00D464FF6F870844201D3012070BD264E49
S31508004E003CB93068007D800703D428460EF06FFD54
S31508004E10A8B9306841888C4205D10822011D284668
S31508004E20FFF772FA0BE0007B03280AD220460EF041
S31508004E30DDFEFF2805D029460EF0FBFE08B100204E
S31508004E4070BD2946204608F01BFE401E8041C00F53
S31508004E5070BD11480068008A70470F4909680882C2
S31508004E6070470D480068408A70470B4909684882B0
S31508004E7070470948006800787047000096070408DC
S31508004E809E230020D92F0020DCE001087C2E00207C
S31508004E90E424002020240020E02C002024220020E6
S31508004EA0EC24002028240020EC230020882F002052
S31508004EB0537461636B2F4861726477617265204D24
S31508004EC069736D617463680D0A0000007A69676228
S31508004ED065652D737461636B2E630000B82400202A
S31508004EE0E9180108A02E0020897B01083424002037
S31508004EF0B54301083C2F0020B92A01081C250020CB
S31508004F0073920108EC23002099900008FC230020E6
S31508004F1055910008EC24002051210108C82C0020D6
S31508004F2021870008B0230020A15600086424002029
S31508004F30955E010884240020B1590108942E0020AA
S31508004F40EF360108302F00206FB90108282F0020FE
S31508004F50C38901088C2E002055730108082E0020ED
S31508004F60C13B01089C240020091F0108882F002046
S31508004F700DBA0008D02C002077A00008842E002047
S31508004F80CB9501087C2E002061D80108D82C00207A
S31508004F9083A10008000000000000000038B50EF0EC
S31508004FA053FF0EF055FF08F001FB0EF063FF0022D9
S31508004FB0002100A802F0F3FF00B131BDFFF7C2FDE2
S31508004FC00446012300220F210120FDF739FA40F299
S31508004FD0A1750EF039FF25FA00F0C0070AD5DFF8EB
S31508004FE03C53287807F0D6FB287807F05CFC28782D
S31508004FF007F05CFD24B10FF29830AB2107F0CEFA2A
S3150800500002F07EFFFFF736FA01F030FDFEF7ECFFFF
S3150800501001F049FA022164200EF030FFFFF767FC21
S315080050200EF080FFDFF8F8024FF48B510180522111
S31508005030DFF8F0020180DFF8F0020180022007F0B5
S315080050401BF8B4A40FF2583501E002F06EFF02F027
S31508005050BDFDFFF7F7FD01F04EFAFDF737FB0EF041
S3150800506099FF01210020FDF7BFF80028EDD02A4658
S3150800507021464FF6FF700FF064F8E6E7FFF7E9BE42
S31508005080FFF7F5BC0CF068B938B502F02EFA0446FD
S315080050900025284608F051FCA04201D1284632BD19
S315080050A06D1CEDB2642DF4DBFF2032BD7FB500F038
S315080050B0A0F8FFF7CEFE38B16088B0F5006F03D1CF
S315080050C0601D02F06EFF13E0204602F089FF05001E
S315080050D014D1002600A9304603F04EF8002804BF74
S315080050E09DF80000002805D12146304603F04FF808
S315080050F0054603E0761CF6B2102EEBDB02F013FF32
S31508005100284604B070BD38B500F073F8204602F0A2
S3150800511065FF050003D1204603F07FF8054602F037
S3150800512002FF284632BD10B5044604F0D8FF7F4971
S3150800513001EB0411097B814208D1204601F0CDFC20
S3150800514020B12046BDE8104001F04DBFFF2010BD3C
S3150800515070B504460D4601F044FF0646FF2E07D0FB
S3150800516004F0BDFF714901EB06110A7B824201D0AA
S31508005170002070BD488828808888688088792871CA
S315080051800121204601F033FF68710021204601F015
S315080051902EFFA871012070BD2DE9F04105460E4687
S315080051A0904601F01EFF07464FF6FF74FF2F13D0F7
S315080051B004F095FF5D4901EB0711097B81420BD18C
S315080051C00EB9012202E0012E06D1002241462846E8
S315080051D001F031FF00B104882046BDE8F08110B522
S315080051E000F007F82046FFF734FBBDE8104002F050
S315080051F09ABE044602F08CBE38B50C464C4909687E
S31508005200455CAA4201D2002032BD002100912B46FE
S315080052100146002220460BF0B4FA284632BD70B586
S3150800522098B004460D46164602F072FE522203A9AD
S315080052303046FFF7E1FF060011D00DF1090002F034
S315080052404DF902A802F04CF903A801909DF908301F
S315080052509DF80920009629462046FFF755FA02F0E0
S3150800526062FE18B070BD2DE9F04198B005461E9C47
S315080052700E4690461F4602F04BFE522203A93846B8
S31508005280FFF7BAFF48B1029703A901910090234698
S31508005290424631462846FFF778FA02F044FE18B02F
S315080052A0BDE8F0812DE9F04104460D460698079FB2
S315080052B0904619460BF04BFA0646FF2E08BF1820F3
S315080052C022D020463E70022804D9C01E08D0401EAF
S315080052D00DD014E03346424629460BF016FE0CE084
S315080052E033460C220C2140460BF061FE05E033469E
S315080052F00C22414628460BF051FE044600E00224E3
S3150800530030460BF0A1F92046BDE8F081082209498C
S31508005310FEF7FABF25703E0004F097BABD210020BB
S31508005320082400200C2400200E240020B02600208B
S31508005330E0210020842C002010B582B0FFF759FF29
S315080053400DF1010002F0CAF800A802F0C9F89DF9AB
S3150800535000209DF80110204600F004F902F0E3FD54
S3150800536013BD38B504460D4602F0D2FD294620463F
S3150800537000F0C3F808E038B504460D4602F0C8FD4B
S315080053802946204600F040F9BDE8314002F0CBBD81
S3150800539061662D6D61696E2D736F632E6300000063
S315080053A05A30325F476174657761795F7261696EF9
S315080053B0626F770070B504460D460126022000F09C
S315080053C038F958B1B04840681022FF21FEF7DFFFD0
S315080053D02A462146002000F059F90646304670BD97
S315080053E070B5A94D6968FF2400260020425CA4F127
S315080053F019039A42BCBF02F11904E4B2401C1028F2
S31508005400F4DB0020425CA242BCBF761CF6B2401C0C
S315080054101028F7DB300003D1BDE87040012025E1F4
S315080054200EF0B4FE90FBF6F106FB1101C9B200209E
S315080054306A68825CA24206DA0A0002D10B306870FA
S3150800544005E0491EC9B2401CC0B21028F0DBBDE811
S31508005450704010B500240EF099FE4FF6FF728A4987
S31508005460904203D04A6822F81400641C102CF2DB20
S31508005470032008704978BDE810400120032200FA8D
S3150800548001F103E110B5804C2078012807D070207F
S31508005490FFF76CFA702010BDE0780EF0A1FEE078F8
S315080054A0A0B1401EE070C0B20EF082FE01884FF631
S315080054B0FF729142F0D090F90F20817BFFF747FAEF
S315080054C0E0780EF08DFE0EF079FE14E06078401C50
S315080054D0607060781B280BDA0121A26881401142AE
S315080054E0F5D0042020700322BDE810400120CDE04D
S315080054F0AB2000F0BBF8002010BD10B50C4600F03C
S3150800550090F828B160490878022818BF002C01D005
S31508005510002010BD022806D022D304281CD005D3AB
S31508005520052819D01CE0FFF75BFF19E000224FF6AB
S31508005530FF73486830F81200984206D1521CD2B25E
S31508005540102AF6DBFFF785FF0AE04978FFF7F2F93C
S31508005550002000F08BF803E001200870FFF792FFA7
S31508005560012010BD2DE9FC41474D044628780E461A
S315080055709046032802D004280FD042E0002069682C
S31508005580238831F810209A4204BF4FF6FF7221F89B
S315080055901020401C1028F2DB33E0E07888B3277B24
S315080055A00EF004FE87422CD1A87830B90822211DB6
S315080055B005F10C00FEF7F2FE18BB002709E0384695
S315080055C00EF0F6FD0822211D001DFEF7E7FEC0B10C
S315080055D07F1CE878FFB28742F1D3401CC0B20EF0B8
S315080055E0FFFD70B9E8780EF0E3FD0746E878401C41
S315080055F0E8700E2221463846FEF786FEBE7387F807
S315080056000F80BDE8F3410CE038B504460D4600F0BE
S3150800561008F828B11C484068201800F80B5C0120DF
S3150800562032BD19480078022801DB012070470020A6
S31508005630704738B50446FFF7F4FF18B13D20FFF769
S3150800564095F90FE00EF0BAFD002000F00FF80E4DA8
S315080056500020E8702C700EF0B5FD686020B918209F
S3150800566000F004F8002032BD012032BD10B5044612
S315080056700548002101700EF0BDFD24B12046BDE8A5
S315080056801040FFF773B910BD5028002010B50EF072
S31508005690C1FD040018BFFFF7E9FF204610BD000052
S315080056A080B5DFF83C0300210171042004F01BFDDE
S315080056B004F022FDDFF82C030068407B042814BFA1
S315080056C0532800F055F8BDE8014004F016BD80B532
S315080056D0FFF71FFA0020BDE8024045E0F8B5C14CC7
S315080056E023685D7B05F00F06002D18BF212D07D016
S315080056F01D7B012D01D1850602D4B94D2F790FB135
S315080057007020F2BD2A70A981012E04D12120587378
S3150800571000F02EF826E081064CBF53210421597368
S3150800572021680A7B032A27BF4A8800F020004FF623
S31508005730FD7200F0A0000146104600F016F9206838
S31508005740407B042804BF012003F0E8FF042004F08E
S31508005750C9FC2068007B03282CBF02210821281DCC
S3150800576000F0D2FC0020F2BDFF224FF6FF71B5E72C
S3150800577080B50CF023FC0DF017F90CF0D0F89A4818
S3150800578000780A281CBFBDE801400EF0BEBD042003
S3150800579004F0A8FC01210FF20D00BDE8044005F055
S315080057A0BBBF000010B5042004F09DFC04F0A4FC67
S315080057B08C4C2068417B532906D103214173002173
S315080057C0012003F0D7F826E0042918BF212922D1A1
S315080057D0012003F0A3FF4FF6FE70FFF73EFB4FF6DE
S315080057E0FF70FFF742FB002003F00CFF03F0CAFC32
S315080057F008F09EFB06F014F92068407B212802D1A8
S3150800580002F01AFF07E00020FFF7FCF800214FF42A
S3150800581000400EF03BF804F070FCBDE8104004F0C0
S315080058202ABC2DE9F84380460E46511CC9B23046BB
S315080058300BF09DF8054630460EF002FF0646B01CF2
S315080058400BF03DF9814605F04004664F3868017B48
S31508005850032903D34088804503D023E04069C0016B
S3150800586020D4200010D07078000708D530460FF0F5
S3150800587023F908225D49FEF791FD002802E0FFF7AB
S31508005880E8FA81453DD107E003290CD34FF6F870B5
S31508005890814508DB280606D50122414605F0A00009
S315080058A0FFF71CFF6CBB3868007B032829D2707889
S315080058B0C00626D530460FF00CF9054629460020C5
S315080058C00DF0B3F90646FF2E04D000F01CF830465A
S315080058D00DF055FB40460DF0F6FCFF2818BF0DF0FD
S315080058E091FDFFF7B6FA60B904F001FC4FF6FF73B5
S315080058F002222946404605F0FCFDBDE8F14304F0C6
S31508005900FCBBBDE8F1831CB50DF070FA044600A98E
S315080059100DF0CAFA50B1FFF79CFA38B1FFF76EF8E6
S3150800592020B1022200A9204605F00EF913BD38B5AC
S3150800593004460D460FF03EFAFF2801D1012032BD7C
S3150800594028490968C97E49B12949096831F81010FA
S31508005950490403D50DF013FB002032BDFFF7D3FF32
S3150800596045F040012046BDE8344030B585B00446D0
S3150800597001F0400504208DF808008DF8091045B19E
S3150800598003A920460DF090FA08B9012025E003A8DE
S3150800599000E0002001900095022302AA012120467A
S315080059A00FF059F80546FF2D08BF182015D04FF6F9
S315080059B0F870844206D300230022022128460CF000
S315080059C09DFF03E02146284608F06EFC441EA441CC
S315080059D0E40F28460AF038FE204605B030BD000020
S315080059E0AC230020E02C00202C240020842C00204E
S315080059F0FC21002038B504460EF022FE0546204656
S31508005A000FF048F8411CC9B220460AF0B0FF697881
S31508005A1009070AD528460FF04FF8014600200DF071
S31508005A2004F9BDE832400DF0AABA40065CBFBDE8ED
S31508005A303140FFF735BE31BD2DE9F24F90B08046B3
S31508005A401546994605A99DF8400000F06AF90746EB
S31508005A509DF81400DFF874150968405CC21BDFF86E
S31508005A6070150968CE88B1F802A0BAF5004F01D2C0
S31508005A70B84204DADFF85C05002101708CE0B9F160
S31508005A80000F18BF4FF4A076D4B2152C34BF2046A9
S31508005A90152000210091431CDBB27A1ED2B29DF874
S31508005AA0141006A80AF06DFE9DF818B05B4632463B
S31508005AB04AF400410CA800F0FBF9012D14BF01209F
S31508005AC0002001900DF1190000904B4642465146C0
S31508005AD0304600F065F808B101205EE0002D5BD184
S31508005AE0DFF8EC0400684088342841D1C8259DF8C1
S31508005AF0210041064CBF8021002100064CBF202012
S31508005B00002040EA0104002208210DF11900FEF7E1
S31508005B10BFFF38B90822DFF8C0140DF11900FEF7E7
S31508005B203DFC90B9DFF8B4040068017B032903D370
S31508005B304088804503D015E04069C00112D403228D
S31508005B4041462046FFF7CAFD0AE00DF119000DF09F
S31508005B503FF94FF6FF71884204D02146FFF7E7FE6A
S31508005B6000B900252A469FA1404600F0ACF913E08B
S31508005B70DFF86C04007878B1CDF810B0039602947B
S31508005B800DF11900019000979DF814304A469DF8CA
S31508005B90401040460FF02EF9002011B0BDE8F08FF6
S31508005BA02DE9F54F85B01D46119C0DF10C0900260F
S31508005BB0DFF824B4109FF9B9B94607F10808082296
S31508005BC059463846FEF7EAFB38B9FFF742F98246E6
S31508005BD0ACBB95B386F001002CE038460DF0F8F81A
S31508005BE082464FF6FF70824504D050460DF03AF9CA
S31508005BF00028EDD10126E8E701291AD17878397805
S31508005C0001EB002A07F10208FFF723F91FFA8AFABF
S31508005C10824508BFD946DBD050460DF023F928B196
S31508005C2003A950460DF040F90028D1D1D9460126DE
S31508005C30CEE7002007B0BDE8F08F0120FAE7002D77
S31508005C4018BF002EF9D198F8005098F801700EB1D7
S31508005C50812203E0022DB4BF002280220297002091
S31508005C600190CDF800A04B460FF2843101200AF0CE
S31508005C70C6FE0446FF2CE0D0002E08BF012D0DD02D
S31508005C800C2120460AF02FFE22460021BDF81800F6
S31508005C9000F019F920460AF0D7FCCEE7FFF7D9F845
S31508005CA0824536D14FF0000BDFF820A3DFF8349396
S31508005CB0DFF8345303E0781EC7B20BF1010B2878DE
S31508005CC05FFA8BFB834522D2D9F8000010F81B0037
S31508005CD08007F2D53800EED158460DF087F88DF8D2
S31508005CE0000000128DF80100022200A920460AF0E1
S31508005CF0B8FD0028CED1761CF6B2BDF814000BF01C
S31508005D00F1FADAF80010615C891C8842D5DA3000AD
S31508005D1001D10D21B5E732460C2120460AF02CFEAA
S31508005D20B2E738B504460D460AF0C5FCFF2805D08B
S31508005D3020460AF0C0FC2870012004E02C7020469A
S31508005D400EF02BFF401CC0B232BD30B587B00446FA
S31508005D500846154601A9FFF7E4FF02469DF8040028
S31508005D609A490968405C831ADBB20B2B88BF0B2360
S31508005D70002000909DF8041004A80AF002FD4FF4D4
S31508005D800041681A012803D9213801281CD926E0C0
S31508005D909DF8100018BB9DF81A009DF8191001EB24
S31508005DA0002508220DF1110102A8FEF7ADFA01221D
S31508005DB002A9A8B20FF0BFFCADB2A5420FD00121CF
S31508005DC002A807F0DFFE0AE048F2210085420CBF70
S31508005DD0012000209DF8102021460FF0E2FE07B0B2
S31508005DE030BD000031000000F0B587B000F05AF869
S31508005DF00022382103A800F05BF800208DF8100077
S31508005E00BDF8120040F04000ADF81200FF2E04D194
S31508005E100FF08DFF0FF2E0110BE0FE2E18BF38468B
S31508005E2005D10FF084FF401CC0B20FF088FF0FF2B7
S31508005E30D0110297C0B2019000962B0CAAB2204648
S31508005E4000F041F807B0F0BD1FB500234FF480629B
S31508005E50132101A800F02CF803F020FD0446FEF7F4
S31508005E60F8FF024600945C4B54A14FF6FD7000F013
S31508005E702AF81FBDF0B585B000F014F84FF480621B
S31508005E80002101A800F014F88DF808702B0018BF3F
S31508005E900123009622464AA14FF6FD7000F013F83A
S31508005EA005B0F0BD04460D4616461F46002370474A
S31508005EB010B500240471447141800480C2800381B6
S31508005EC04A49486010BD0CB42DE9FC4780460D00D0
S31508005ED00AAA08BF166803D001200AF076FD06460E
S31508005EE0FEF717FEF6B2FF2E08BF182062D04FF64F
S31508005EF0F879C8458041C043C00F3C4C61680A79AF
S31508005F0022B900280CBF0627072705E000220A71D8
S31508005F10002814BF042700274888B0F5004F05D28B
S31508005F202078401C207040F0800A01E0B1F808A0F3
S31508005F305FFA8AF2002130460AF01EFD0020019021
S31508005F400096FF236268414638460AF087FE0746F0
S31508005F5015B130460AF078FB742F2AD1C84528D2E5
S31508005F6060684088B0F5004F23D3FEF772FF61687A
S31508005F70498848F2040291420CBF12A112A10022DC
S31508005F80009203468A2201200AF039FD0546FF2DB4
S31508005F900FD05FFA8AF200210AF0EEFC0020019089
S31508005FA00095FF23626841460AF058FE28460AF023
S31508005FB04BFB3846BDE8F6075DF80CFB3238310076
S31508005FC0383131003132310031320000E021002011
S31508005FD0982C0020DC2F0020842C0020E02C0020A8
S31508005FE09E230020FC210020F82100208C2C002074
S31508005FF0313832313100000032323131320000009E
S31508006000323231310000000003480178491C017022
S3150800601001F07F0070470000D52F00202DE9F043DE
S3150800602087B0884606461146109F129C139D9946CE
S3150800603000F040F80E988DF80E008DF80D900004CB
S31508006040000E8DF80F000F988DF81000012814D057
S3150800605003281BD1082239460DF11100FEF754F921
S315080060608DF819401620009001ABAAB24146304679
S3150800607003F038FD07B0BDE8F08311988DF81100DC
S315080060800004000E8DF812000F20ECE70120F1E75E
S315080060907FB5044615461E4600F00CF80A20009007
S315080060A08DF80D5001AB32463421204603F01AFD17
S315080060B004B070BD08220DF10500FEF725B90000F1
S315080060C038B544784568FDF7BFFF0C2161438B4A14
S315080060D08B585B1BB3F1004F98BF8D50BDE832401B
S315080060E0FDF7B8BF10B504460FF0ABFF606004209B
S315080060F020702046BDE81040E2E738B500F011F8F8
S3150800610028186060012007E038B500F00AF805EBAA
S31508006110102000026060022020702046BDE8324050
S31508006120CEE704460D460FF08CBF38B5FFF7F9FFEA
S3150800613005EB1040000460600320EDE710B5044647
S31508006140207860B1042806D00FF07BFF6168421AF8
S31508006150B2F1004F01D8002010BD081A10BD4FF04B
S31508006160FF3010BD70B504460FF06BFF0546FDF70E
S315080061706BFF06466FF00041606800F02CF8401986
S3150800618020603046BDE87040FDF764BF70B5044630
S315080061900D4616460FF055FF002156B1FF22327004
S315080061A007E0121AAA4202D2154606B13170491CF6
S315080061B0083422680AB9284670BD1378002BF6D031
S315080061C0042B04D05268831AB3F1004FE9D806B1FC
S315080061D03170002070BD0022D8E738B504460FF0AC
S315080061E030FF05460BE0017841B1042904D0416827
S315080061F0691AB1F1004F01D86168884708342068E8
S315080062000028F0D131BD10B50C213C4A01FB002411
S315080062100FF017FF2168401AB0F1004F06D86068E2
S31508006220FFF7DBFF2046BDE810409BE710BD70B5C1
S315080062300446334D687833490978884205D34FF4C4
S3150800624084710FF2C40006F0A9F96E78701C6870A4
S315080062500C202A4900FB061044600121017200E067
S315080062604E7054F8081B0029FAD1FFF77BFF304619
S3150800627070BDF8B505464FF0FF300090204C2078E9
S3150800628040B30FF053FF28B940F239110FF27800E6
S3150800629006F084F90FF0D5FE0C21184A01FB0523F8
S315080062A000251D72002305E0009EB54288BF3546CD
S315080062B000955B1C6578DBB2AB420FD201FB032667
S315080062C03568471BB7F1004F04D92D1A367A0EB92F
S315080062D0002DE9D10DF0CEFD0020F2BD00A80FF08B
S315080062E0CFFE0120F2BD0C21044A01FB002001214A
S315080062F00172704702490870704700002028002084
S31508006300D62F00208CDD01086576656E742D636FC7
S315080063106E74726F6C2E630010B53248324C0021D1
S315080063200170FEF7ABFE2080522200212F48FEF7AF
S315080063302EF8002060800C22201DBDE810400021A8
S31508006340FEF725B828494A88522A00DB704710B557
S31508006350264C1055501C488010BD10B50446C0B2D6
S31508006360FFF7F0FF200A0DE010B50446C0B2FFF7AC
S31508006370E9FF2004000EFFF7E5FF2002000EFFF7F5
S31508006380E1FF200EBDE81040DCE738B5164D6B88F6
S315080063900C46E118522908DA01461448224618180C
S315080063A0FDF7B2FF68882018688031BD30B51D46F4
S315080063B000245B189A4208DA002030BD6A181218C1
S315080063C06D1E12F8012C02EB0424EDB2002DF5D156
S315080063D0204630BD0423E9E780B50223FFF7E6FF30
S315080063E080B202BD7E2300203029002040290020EB
S315080063F00078FF2808BF0020704780B502220021D8
S31508006400FFF7EAFF4FF6FF71884208BF002002BD7A
S3150800641080B501F0E9FD0FF091FE0FF007FEDFF8F9
S31508006420BC150A88821A92B2C92AA8BF088001BD7B
S3150800643080B500F0D6FDFF2804D018B9DFF8A0050E
S31508006440007802BD002002BD10B50168DFF894256A
S315080064500B8813804B885380497911710168097933
S3150800646051714FF48251D18001688979890644BFF8
S315080064704FF48351D180DFF870458269A1783AB923
S31508006480C088DFF86825108001F0FD00A07010BDF7
S3150800649041F00201A17016228169201DFDF734FF23
S315080064A00020207110BD80B5002001F02EFDFF20D0
S315080064B000F0E6FD01F037FD00F00BFB0246012176
S315080064C0DFF81C05FDF763FFDFF81835DFF8202530
S315080064D0DFF8200552210FF0E9FE0DF050FD0FF010
S315080064E01BFF03F090FF0FF019FF04F023FFBDE830
S315080064F0014000F0C3BB70B500240FF2185501E047
S31508006500B047641CE4B255F82460300003D001F0AB
S3150800651023FD0128F4D170BD80B502F00FF820B92B
S31508006520FEF7A5FA08B901F022FD01F054FDBDE811
S31508006530014001F05CBD10B504462068407900F0C2
S3150800654050FDFF281DD0DFF8B014227F01EB0010A4
S31508006550017B914215D1226840881188884206D06D
S315080065604FF6FF7399420CD1B0F5004F09DA20793E
S31508006570022818BF032806D11189507901F007FDB2
S3150800658008B9002010BDA07B002820461CBFBDE826
S3150800659010400FF06DBFBDE810400FF095BFF0B585
S315080065A089B00F4614460E99DFF83C6400251A4652
S315080065B0032B73DB94F800C05FEA4C7C01D5052BEE
S315080065C06CDB01908DF80870ADF80A100394ADF8ED
S315080065D01020207800F001008DF81200207800F0D5
S315080065E004008DF813002078C00800F001008DF82B
S315080065F0190001208DF818009DF8130058B10121E3
S315080066002046FFF7E9FEADF814009DF81800801C37
S315080066108DF8180001E0ADF814009DF81800015D2A
S315080066208DF81610401C8DF81800C0B2015D0F9C3D
S315080066308DF81710401C8DF81800079403F04DFDCF
S315080066408DF8200001A8F0619DF81600307001A8A9
S31508006650FFF7FAFE01A801F0B6FCF0B9FCB9042F61
S3150800666018BF052F03D0022F18BF032F01D101220F
S3150800667000E00022019840880090012101980388D3
S315080066809DF8170000F0D8F860B101988079800667
S3150800669008D4012101A800F0CDF8012529E0207DC4
S315080066A0800726D501984079FF281ED10024DFF8F7
S315080066B0347300F00EFAE4B284421AD2204600F08F
S315080066C00CFA80B101A8FFF7BFFE204600F08BFC4C
S315080066D001994871204600F086FC387101A8FFF739
S315080066E02AFF00B10125641CE3E701A8FFF723FF91
S315080066F00546FFF711FE16220021301DFDF747FE5D
S315080067000020F06109B02846F0BDDFF8F0020178F4
S31508006710491C017001F07F0070477CB5DFF8C8425C
S31508006720A378D90701D5002076BD6278DFF8B412C0
S31508006730012A03D1CA8842F0400205E0022A04D1A0
S31508006740CA884FF6BF752A40CA80DFF8A82225787E
S31508006750167876074CBFD5705570DFF894522D8899
S315080067609B0708D52946201D01F017FCA17801F0E2
S31508006770FD01A17076BDDFF874321C884FF6FC73F4
S315080067809C4208DA009201900A462B4621460020D0
S31508006790FDF732FF76BD009013462A462046FDF7E0
S315080067A012FF76BD0020B8E70A460146DFF8380230
S315080067B0C06901E00021F7E770B504460D46207967
S315080067C01646002818BF01280AD1A0680078C00616
S315080067D000D52DB1A07B002804BFE07C0B2801D191
S315080067E0002070BDDFF8080200210180607D0028C6
S315080067F00CBF08200020E17B11B9FFF7A3FD06E0D6
S3150800680040F00400FFF79EFD208AFFF7A6FDA07C56
S31508006810FFF798FD0B20FFF795FDE07CFFF792FD4B
S315080068202846FFF78FFD2046FFF70EFE3046BDE8E7
S31508006830704072E70022BFE738B51D46049C034640
S315080068400A46A1B2284601F095FB00B1012032BDE7
S3150800685038B5D28852244FF6FD73950648BF4924A9
S31508006860550544BF083CE4B2150544BF083CE4B2EC
S31508006870120444BFA41EE4B238B102280BD006D3D2
S31508006880032804BF641EE4B209E00B4607E0C8B259
S3150800689007F053F802E0C8B201F069FC034618464F
S315080068A003F0DCFD201AC0B232BD0A540818110ADA
S315080068B04170704770B504460D00164602D1002097
S315080068C0207070BD2846FFF793FD864288BF0646AE
S315080068D03246691C601CFDF717FD267070BD70B541
S315080068E004460D00164603D100206070207070BD66
S315080068F02846FFF782FD864288BF06463246A91C0F
S31508006900A01CFDF701FD2670300A607070BD2DE9E8
S315080069107841541E002B38D0052A48DA002500266F
S315080069202B460EE0A2EB03084FEAC8080CFA08FC4F
S315080069304CEA06061EF801C00CFA08FC4CEA0505E6
S315080069405B1CDBB2934208D2A4EB030E00280CBFF3
S315080069504FF0000C1EF800C0E4E7042A0FDAD00056
S315080069600121D200401E9140494246FA00F2D20760
S3150800697048BF0E4345FA00F0C00748BF0D43B5426D
S315080069800EDBAE4213DA0FE05B1CDBB293420ED28B
S31508006990E51A00280CBF00262E5C6D5CB54201DAAC
S315080069A0012005E0AE42EFDA4FF0FF3000E00020AC
S315080069B0BDE8728100210FF2480201E0891CC9B2C4
S315080069C08B5C8342FAD388184078704728380828A1
S315080069D08041C00F704701F009BB0000B02F0020AE
S315080069E0D42F0020342900207C23002030290020C1
S315080069F03229002040290020B02600209C230020B0
S31508006A0007021F012F0037013F005701DF02E70089
S31508006A10FF0200000540000811640008000000009D
S31508006A2000210FF21C028B5C834202D18818407841
S31508006A307047891CC9B22C29F5D30020704700007D
S31508006A4019021B041D061801100108013102300144
S31508006A50F008290221022A0322032B04230425060F
S31508006A60260728012001F110E004E2040FF2F8706D
S31508006A700FF6D012007882B001218DF803000FF2CC
S31508006A80EC700088ADF806000FF2E4700088ADF8E7
S31508006A90040000208DF80200ADF80000DFF8F406C7
S31508006AA001749DF803100170BDF806104180BDF809
S31508006AB0041081809DF8021081719DF8011002EB87
S31508006AC0C10181609DF80010017302B00121417374
S31508006AD07047DFF8C006007C7047DFF8B81601EB90
S31508006AE00010407B00F001007047412818BF42287B
S31508006AF003D0432818BF442801D10120704700203D
S31508006B007047412818BF422801D10120704700204C
S31508006B107047432818BF442801D101207047002038
S31508006B207047F8B51546069A04461E4600F0FFF962
S31508006B3060B1042100F035FB070007D0204601F0BC
S31508006B40E9F9324629462046B84793E0F1BD2DE9D2
S31508006B50FC470B9C8046894617001D461CBF0A9EAB
S31508006B60002E1DD0E5B1307800074CBF40228022A8
S31508006B707988387900F0DBF990B1082100F011FB2B
S31508006B80824668B1387901F0C5F9019400962B461A
S31508006B903A4649464046D047BDE8F34701F0C3B9EF
S31508006BA0BDE8F387F8B5164605461A4600F0BFF95C
S31508006BB0D8B1069CA4B25CB9022100F0F2FA04002E
S31508006BC013D0284601F0A6F931462846A0470BE01F
S31508006BD0102100F0E6FA070007D0284601F09AF9D6
S31508006BE0224631462846B84744E0F1BD2DE9F0472C
S31508006BF082B090460A9E0B9C0C9D0D9F81461A46B4
S31508006C0000F095F908B9862015E04FF0000AB6B2EB
S31508006C1086B9202100F0C5FA06000BD0484601F0D7
S31508006C2079F900972B46224641464846B0478246A0
S31508006C3001F079F95046BDE8F687F8B50446A56827
S31508006C40207801F067F9002610E02968142000FB77
S31508006C5006172078398801F08CF90121384600F0AA
S31508006C60A0FA01001CBF20788847761C2879F6B25E
S31508006C708642EAD3BDE8F14001F055B938B500249B
S31508006C80DFF8105508E02046FFF727FF18B105EB97
S31508006C900410FFF7D2FF641C287CE4B28442F2D3C6
S31508006CA031BD10B5002301E05B1C001D9BB28B4271
S31508006CB004D204889442F7D1408810BD002010BD44
S31508006CC00288B2F57C4FA8BF00F00BB80FF24C60F3
S31508006CD0081A0C2190FBF1F292B200210FF27070A3
S31508006CE0DFE70FF25C61401A142190FBF1F292B2D1
S31508006CF000210FF25870D4E710B50C460188628857
S31508006D0091420DD1027B23791A4209D0B1F57C4F05
S31508006D1004DBFFF7E6FF2189884201D1012010BD77
S31508006D20002010BD10B514460A88E3889A420AD195
S31508006D300288B2F57C4F04DAFFF7C2FF2189884240
S31508006D4001D1012010BD002010BD2DE9FE4F002500
S31508006D5082B00446AA46DFF83CB404E0C088451968
S31508006D60ADB20AF1010A9BF810005FFA8AFA824569
S31508006D7080F0B1804FEA0A1101EB0B0011F80B10F5
S31508006D80227880689142E9D100905046FFF7A5FE27
S31508006D900028E6D0002704E0B8F80A004519ADB285
S31508006DA07F1C00980079FFB28742DAD200990968F9
S31508006DB0142000FB071821464046FFF79DFF0028D0
S31508006DC0EAD04FF0000908E030793021084202D1B4
S31508006DD0F0784519ADB209F10109B8F808001FFAAB
S31508006DE089F98145DCD2D8F804100C2000FB091675
S31508006DF0224631464046FFF795FF0028E4D0029820
S31508006E0000B106603079810611D50FF210510022C3
S31508006E1006E00B799B0602D5CB789A1892B20C310C
S31508006E20B142F6D302EB0B0101F1140A03E005EBBC
S31508006E300B0101F2120A0E9D1DB1039FDFF858934C
S31508006E4006E00399002944D057468A46DFF84C9352
S31508006E50C0060BD531464046FFF732FF0346039876
S31508006E600090324661882078C84735E0BDF81000A2
S31508006E7096F8028000280CBFF47804464046FFF7CF
S31508006E8040FE30B1621ED2B239465046FFF712FDB7
S31508006E901FE04046FFF73DFE30B1A21E92B23946CA
S31508006EA05046FFF71CFD14E03DB9BDF8100020B1AF
S31508006EB0F178884238BF89200ED3002F224604D1A4
S31508006EC000215046FDF763FA03E039465046FDF7C0
S31508006ED01BFA002000E0862005B0BDE8F08F58B503
S31508006EE00346002403E0067B360615D4641C18798D
S31508006EF0E4B284420FD21E68142000FB04600688A0
S31508006F008E42F3D142B1802AEDD0402AEED1067BDB
S31508006F107606EBD552BD002052BD80B5402200F062
S31508006F2006F800B1012002BD80B58022F7E738B522
S31508006F300C46154600F055F8FF2801D1002032BD51
S31508006F40944B2A46214603EB0010BDE8384080687A
S31508006F50C5E74022FFE72DE9F843044688469146EF
S31508006F600025FFF7E4FF08B9FF2016E00026894F41
S31508006F7002E04019C5B2761C387CF6B286420BD2BE
S31508006F803001C05DA04207D04A464146FFF7CFFF11
S31508006F900028EED00120ECE72846BDE8F28330B59C
S31508006FA000227C4B00E0521C1C7CD2B2A2420AD2C0
S31508006FB01401E55C8542F6D119B1E418647BE4074F
S31508006FC0F1D5104630BDFF2030BD80B50021FFF752
S31508006FD0E6FFFF281CBFBDE80240FFF77EBD002084
S31508006FE002BD0121DBE700016A49405C704738B5FC
S31508006FF00C46FFF7F6FF01460020FF291FBF654A2A
S3150800700002EB01118968002914D0002203E01B064F
S3150800701048BF2846521C0B79D2B29A4209D20D684B
S31508007020142303FB0253451C1B7B002CEFD05B0685
S31508007030EEE7C0B232BD70B50C461546FFF7D1FF74
S315080070400021FF281AD0534A02EB0012002301E060
S31508007050491C5B1C90680679DBB2B3420ED2006805
S31508007060142606FB0300067B15B1760602D4F0E764
S315080070703606EED5C9B2A142EAD170BD002070BD70
S315080070800021FFE72DE9F14F86B08A4603F025F87F
S31508007090059000259DF81800019000E06D1C3D48FC
S315080070A0007CEDB2854270D20198FF2806D09DF883
S315080070B01800FFF796FF0546FF2D66D0354800EB0A
S315080070C005160198FF2803D1307B05998842E5D13A
S315080070D0002700E07F1CB0680179FFB28F4251D2C9
S315080070E00068142101FB07084FF0000913E001208E
S315080070F0009000235A46002102A8FFF726FEBAF19F
S31508007100000F06D0BDF80A2031782346584600F00D
S3150800711047F809F10109B8F808001FFA89F9814505
S31508007120D8D2D8F804100C2000FB09142079C00620
S31508007130EFD430788DF80800B8F80000ADF80A00EA
S31508007140207940064CBF802040208DF80C0021464F
S315080071502088ADF80E004046FFF7B2FDADF81000E6
S315080071602179E078490706D5D4F808B00328BEDBAC
S31508007170DBF800B0BBE70328B4BF04F1080BD4F86A
S3150800718008B0B4E70198FF2888D007B0BDE8F08FAB
S3150800719000000000B0260020977F0008937F0008B3
S315080071A0704718B5047B012200230C4205D1002044
S315080071B012BD144218BF5B1C5200D2B28A42F8D3E1
S315080071C00069DBB250F8230012BD2DE9FC470A46D8
S315080071D0002701210028507D07D010B94FF0020C76
S315080071E009E0012805D18C4605E010B94FF0080CD6
S315080071F001E04FF0040C0A980B9CDDF83090DDF89E
S3150800720034A00FF27008BE4680B238F82E60BDF87A
S315080072100050AE421CD108EB8E05EE7816EA0C0F2C
S3150800722016D0AE784E4513D3EE78F606D67B01D542
S315080072300EB90DE066B9BA4501D0874201DB0021D7
S315080072400DE0AE78FE547F1C2688761C2680BFB2D9
S315080072500EF101061FFA86FEBEF12A0FD5DB084697
S31508007260BDE8F687000000000100000004010000E8
S3150800727007000000030000090300000203000109DB
S3150800728004000001040001010400020104000301D6
S3150800729004000401040005010500000105000101C0
S315080072A005000201050003010500040105000501AA
S315080072B0050006010600000106000101060002019C
S315080072C00800000108000101080002010800030186
S315080072D00800040108000501080006010800070166
S315080072E01900000219000202190005021900070216
S315080072F01900090200030701000308010003090138
S315080073000005000100050004000501040207000449
S315080073100207010402070204020703040000200111
S3150800732020000000010000000700300120000000D6
S31508007330000000000000210201000000000000001B
S31508007340000000001C730008020000004000000056
S31508007350000000000100000034730008000000006F
S3150800736080000000000000000300000034730008DD
S31508007370000000008000000000000000030000007C
S3150800738034730008010002004300000088D8010891
S3150800739004000000407300080000000080000000A0
S315080073A0000000000500000040730008000000000F
S315080073B0800000000000000006000000407300087E
S315080073C00000000080000000000000000800000027
S315080073D04073000800000000800000000000000064
S315080073E0190000004073000800000000410000007A
S315080073F090D8010800030000407300080000000050
S31508007400800000000000000000050000407300082E
S31508007410000000008100000094D80108020700005F
S315080074204073000800000000800000000000000013
S31508007430050B0000407300080000000080000000F3
S3150800744000000000407300080D0002000000000064
S3150800745000000000FEB506460D461746274CA168F3
S3150800746029B1082201A8FCF74FFF01A8A06037B987
S31508007470FDF7EFFC6188814218BF012700D100277C
S3150800748030460DF08AFB00AB3A46014630460DF011
S31508007490D1F910BB0120207002F029FE9DF80020CA
S315080074A061682846FDF7BBFE02F027FE9DF800003E
S315080074B0FF2818BF09F0C8F86DB96068C18848F296
S315080074C040021140402906D12178490703D4FF21FB
S315080074D0408809F01CFF00202070F7BD084900E02D
S315080074E0084909780170002070470448017811B9E5
S315080074F04FF6FF707047408870470000942C0020B4
S31508007500DD2F0020DE2F002000F10103810704D0C3
S3150800751010F8011B89B18107FAD10268B2F101316D
S31508007520914311F0803F04BF50F8042FF6E710F896
S31508007530011B11B110F8011BFBE7C01A70470000C8
S31508007540002200F0ADBC000062B38B0708D0521EC3
