S01E00006170702D626F6F746C6F616465722D737069666C6173682E733337B6
S1130000580D0020C5150000D9150000D9150000B1
S1130010D9150000D9150000D91500000000000012
S1130020000000000000000000000000D9150000DE
S1130030D915000000000000D9150000D9150000F2
S1130040B0494A685207FCD508607047AD4841681A
S11300508907FCD50068C0B2704710B5044601E0BA
S1130060FFF7F4FF2046441EC0B20028F8D110BDAB
S113007010B504462002000EFFF7E2FF2004000E34
S1130080FFF7DEFFE0B2BDE81040D9E780B501E03C
S113009080B5FF20FFF7D4FFBDE80140D6E710B5D7
S11300A000F056F80620FFF7F1FF0820206010BD8D
S11300B010B5954C41F64910206000219348C16069
S11300C0016141601021416002210160072001218A
S11300D000F0A8F98020206142F2107000F0C8F905
S11300E008206061AB20FFF7D1FF082020611E20AB
S11300F000F0BEF9002010BD10B500F014F800287F
S1130100FBD100F025F8B920FFF7C0FF08202060DC
S11301108020606010BD80B500F005F80028FBD198
S11301200FF2A42002BD10B500F012F80520FFF76D
S113013087FFFF20FFF784FFFFF788FFFFF786FFA5
S113014008212160C00701D5012010BD002010BD89
S11301506F4C08206060704710B50446FFF7E3FF5A
S11301600028FBD17CB1207810B9032020700AE06C
S1130170401E0B2813D8DFE800F0060C060C0F0F06
S1130180090C06090C0F4FF4802010BD4FF4002019
S113019010BD4FF4801010BD4FF4001010BD0020AE
S11301A010BD10B50C18B4F5802F04D91046FFF714
S11301B0D3FFA04201D3012010BD002010BDF8B52B
S11301C00D4600F07DF808B98520F2BDFFF7ABFFBE
S11301D00028FBD100F079F82046FFF749FF00F032
S11301E06DF803E0FFF754FF05F8010B3046461E97
S11301F080B20028F6D1082038600020F2BD2DE935
S1130200F84F894600F05CF808B985202BE0B04629
S1130210FFF789FF0028FBD100F057F82046FFF7CD
S113022027FF00F04BF84046A0F1010880B228B146
S1130230FFF72EFFFF28F6D0872014E0082038604F
S11302404FF48078200608D0200A000200F5807060
S11302503119814204D3051B03E0B6F5807F04DC29
S113026035461EB90020BDE8F28F4546AB46CA4666
S1130270FFF759FF0028FBD1FFF711FF0820786032
S11302800220FFF7DDFE2046FFF7F2FE00F016F82D
S113029003E01AF8010BFFF7F9FE5846A0F1010B31
S11302A080B20028F5D108203860761BA8B2B6B217
S11302B004448144B6F5807FD7DCD1E70420CCE642
S11302C016460446002231466BE7114F0820786039
S11302D00320B5E670B504460D46FFF724FF002859
S11302E0FBD1FFF7DCFE0A4E082070602046FFF7C2
S11302F0A7FE2846FFF7BCFEFFF7E0FF08203060AA
S113030070BD00003CC0004000B0004054C000403C
S113031010B00040F8B5044600208DF800000D46EA
S113032040F6FF7600A8FFF717FF07469DF8000088
S11303300938042838BF4FF6FF76354201D08220B1
S1130340F2BD344201D08120F2BD00AAA9B22046F8
S1130350FFF727FF08B98520F2BDBCB9BD4215D10E
S1130360FFF7E1FE0028FBD1FFF799FEFFF7F0FE4F
S1130370C720FFF78BFE0820206022E021462020C2
S1130380FFF7A8FF04F58054A5F58055CDB12004EE
S1130390F4D1B5F5803F12D32146D820FFF79AFF58
S11303A005F17F4504F5803405F57F05F1E7214625
S11303B02020FFF78FFF04F58054A5F58055002D0C
S11303C0F5D10020F2BD0000020103009A01340FB0
S11303D00010000000000400B81500000100000037
S11303E019480068C00702D442F6E060704745F639
S11303F0C050704780B5FFF7F3FF1449096801B98D
S1130400400802BD80B5FFF7EBFF400802BD10486D
S1130410012181604EF6BE21416000E00D480121BA
S11304200160704710B50FF23003820853F82220A0
S1130430136800F0030080000F248440A34301FAF2
S113044000F01843106010BD1C40004020400040E4
S1130450006000400860004000B0004004B000406C
S113046000B4004004B4004000B8004004B80040A8
S113047070B50646274C2568FFF7C4FFFA2190FBA8
S1130480F1F070432F303021B0FBF1F0032809D391
S1130490616D41F0010161652168491B0903090B84
S11304A08142F9D370BD38B50C4620B1012818D06B
S11304B003282BD02CE0184D8CB1184884421CBF63
S11304C04FF4017000F02EF8FFF79CFF4FF47A719F
S11304D04843B0FBF4F0401EB0F5005F0ED2286034
S11304E014E05CB1FFF78EFF4FF4FA61620801FB80
S11304F00020B0FBF4F0B0F5003F01D3202032BD62
S1130500074900F001024A6040080860002032BD3B
S1130510212032BD38200040100004E020A1070053
S113052068C800400D4930220A600D490A600D492F
S11305300A600D4910220A60010A08BF00020B4933
S113054008804FF20F004880BFF35F8F08480021F6
S1130550016041600748084901607047302000404D
S113056030C8004030C0004010D0004000000020DF
S11305701C4000400CED00E00400FA05F8B5044608
S11305800D4616461F4607E03046A047294600F0B0
S1130590E1F905467F1E761CBFB2002FF4D1284630
S11305A0F2BD38B50C46154605E0014614F8010BBA
S11305B000F0D0F96D1EADB2002DF6D132BDF8B504
S11305C004460D4616461F463A46314628682368B7
S11305D09847040005D13A463146E868FFF7E1FF41
S11305E0E8602046F2BD10B5029C8472038142602B
S11305F001604FF0FF31C1600021017410BD2DE98D
S1130600F84F04468B461E469BF81B70802F28BF6C
S11306108027D068A649884250D1002E4CD0B068BB
S113062000904FF0FF384FF000090BEB490A9AF89D
S113063048500FE0FF2D16D0FFF7F0FE4FF4006393
S1130640E80240F0006241460098FFF797FF8046B9
S1130650681CC5B29AF84900A842EBDA09F101090D
S1130660B9F1060FE1DBDBF844006FEA08018842C8
S113067024D1A06800BA7A08594673689847C8B963
S1130680E06805BAA06802BA3B464FF0FF31B06893
S1130690FFF774FFC04385420CD140F6A720ABF8A6
S11306A01000A06800BA01220BF110011030736829
S11306B0984708B1422002E0172000E04320BDE83B
S11306C0F28F2DE9F84F80460D469146D5F804A0E7
S11306D02889ADF8000005F1140606F1100704237B
S11306E052464046FFF76BFF002824D1BAF80000B9
S11306F040BA1FFA80FBBAF8020040BA84B2E0079D
S113070048BF462075D4B4F5026FC8BF4E2070DCD4
S1130710002C6DD05FEA0B000AD04FF60441BBEB0E
S1130720010000F0AD80FF3865D0FE3863D0BDE035
S1130730287C08B151205CE08D2C28BF4F2058D272
S11307402346321D00F0BBF8002852D1FA7E802ADD
S113075028BF802202F10C00844201BFB08840BA55
S113076000F47F40B0F5007F3ED1F08840BA4EF2ED
S11307705031884202BF388A40F6A721884202BF1E
S1130780788A00F47F40B0F5807F2DD1B06800BA3C
S11307904849C969884227D14648008B40F2032161
S11307A088420BD1788AB0F5847F1DD3F86D41055A
S11307B01AD14149081AB0F5283F15D84FF6FF70F1
S11307C0388206F110014FF0FF30FFF7EAFEF168BE
S11307D009BAC943884204BF387E042804D1787E0C
S11307E0032818BF062801D0452002E00120287400
S11307F00020BDE8F28F287C002843D0042300F0B9
S11308005DF80028F5D1DAF8000006BA201F84B29A
S11308102848C069864238BF4820EAD3A019796DB8
S1130820884228BF4920E4D24FF6035083450DD1B6
S1130830B9F1000F0AD031460220D9F800209047C0
S113084020B14A20D5E7E01B84B2BE19002CCFD0DA
S1130850BDF800008442B4BF274607463B4600F07B
S11308602DF80028C5D1B9F1000FECD07A08514613
S11308703046D9F8043098470028E4D04B20B8E734
S1130880287C08B94120B4E7042C18BF4C20B0D10F
S113089004236A6800F013F80028AAD14B462A46BC
S11308A03946304601B0BDE8F04FA8E64420A0E741
S11308B0E320BBDEA014000000E0020852462946F3
S11308C040467CE670B504460D4616462889C107A5
S11308D001D4802803DA4F2070BDA87A78B9324653
S11308E029462046FFF7EDFE0028F6D0172807D149
S11308F0286861688847172802D1002070BD5020FD
S113090070BD10B450F8041B81B102681218001DA8
S113091050F8043BDC0744BFA9F10104E31852F882
S1130920044B43F8044B091FF9D1EBE710BC7047A3
S11309300A0242EA11214840C0F30311484080EA08
S1130940003041010206C9B2D20E41EA02214840F8
S113095080B270470A0A4840C0B208214308C00761
S113096046BF034858401846491EF7D150407047C7
S11309702083B8ED017001224270827001290CBFFE
S11309808021402181800021C18001811D480160B6
S11309900E218162016821F0100101600021416390
S11309A041627047F8B504460D46164616484FF0A6
S11309B0FF310160134FFE6200207862386840F016
S11309C001003860FFF72AFD012C19D16DB900F040
S11309D04AF978B9786AB042F4D3002EF2D0386874
S11309E04008400038601620F2BD284600F043F964
S11309F00028EFD138684008400038600020F2BD7C
S1130A000120F2BD00E0004000A8004038B50446D3
S1130A100D4600F009F800F007F82A462146182090
S1130A20BDE8384000F075B92A462146182000F088
S1130A3070B930B583B00446002020814AF6B43240
S1130A4000A92078FFF7AEFF08B11C203EBD9DF839
S1130A500000032818BF182801D118203EBD04281F
S1130A6001D117203EBD012801D021203EBD002523
S1130A7000E06D1CEDB2A188091D8D420BDA40F235
S1130A80DD22281900F10A012078FFF78BFF0028E6
S1130A90EFD026203EBD0025002006E00146EDB241
S1130AA02819007BFFF744FF6D1CA188EAB28A4233
S1130AB0F4D3A27AE37A9B18FF2B01D022203EBD07
S1130AC00B191D7BB5EB102F01D023203EBD5B7BA2
S1130AD0C0B2834201D024203EBDA078824207D018
S1130AE0401EC0B2824201D127203EBD25203EBD1A
S1130AF0881C20810220E08000203EBD38B50446D9
S1130B006078012804D023D3032855D018D31FE0DC
S1130B102078012811D13B25432000F07FF840F2D2
S1130B20DD2200212078FFF73DFF30B12846451E25
S1130B30C0B20028F0D11B2032BD0220607010E04A
S1130B4000F0ACF800F03AF8A078401CA07008E07F
S1130B50182032BD2278A078411EC9B2062000F0C8
S1130B60D8F82046FFF765FF050018BF00F096F897
S1130B70272DEFD0A8060BD52278A178152000F0F8
S1130B80C8F8002DEDD1032000F0AAF9002032BDF1
S1130B90680603D4182D18BF1C2D07D121782846C8
S1130BA0FFF734FF04206070284632BD172DE8D1CA
S1130BB000F004F803206070172032BD2278A17879
S1130BC0062000F0A6B850F8041B61B150F8042BBD
S1130BD0D30744BFA9F101039A18002342F8043B48
S1130BE0091FFAD1EFE7704780B54FF4E1310120D6
S1130BF0FFF759FC26480221816001210160092088
S1130C000921FFF70FFCBDE8044004210A20FFF787
S1130C1009BC204800684006FBD570471E49CA68D5
S1130C205207FCD50860704710B5044603E014F879
S1130C30010BFFF7F3FF20780028F8D110BD10B5A1
S1130C40044620090A28ACBF37303030C0B2FFF761
S1130C50E5FF04F00F000A28ACBF37303030BDE8A0
S1130C601040C0B2DAE70B480068800701D50120C4
S1130C7070470020704710B50446FFF7F4FF20B119
S1130C80054800682070002010BD012010BD000040
S1130C9054C8004048C800403CC8004080B500A883
S1130CA0FFF7E9FF0028FAD001BD00000078704783
S1130CB0002101608180C18001817047F8B504463C
S1130CC00D461646002710E0206880302060002082
S1130CD0E08080202081A088401CA080E088411C06
S1130CE0E1800019807A78557F1CBFB2B7420CD2DC
S1130CF0E08821898842F1D3802204F10A01206826
S1130D00FFF75DFA0028DFD0F2BD0020F2BD00201D
S1130D10704710B50446FFF781FB2046BDE810403C
S1130D20FFF77CBF2DE9F043A5B0FFF75DFFFFF7A8
S1130D3075FBFFF7B3FF012100A8FFF71BFE404C32
S1130D4004F1800500206860A860FFF7E4F900283A
S1130D500FBFE8608168E9604088A4F8800000A8BB
S1130D60FFF7CCFE070046D1BDF80420BDF806000D
S1130D7000A9401800F20A065FFA82F894F880008D
S1130D8080070FD5E96869B1686808EB00024B1E5B
S1130D9022EA030710B1A868B84203D23846FFF725
S1130DA0B9FAAF60424631466868FFF728FA07008F
S1130DB00FD1424621466868FFF701FA002000E09F
S1130DC0401C404505DA015D825D9142F8D08327DD
S1130DD006E0686840446860002FC0D01B2FBED076
S1130DE0042000F07DF801213846FFF70FFE384655
S1130DF025B0BDE8F083172FF0D10020F8E770B5D7
S1130E00DAB0044636A8FFF753FF012000904FF4F0
S1130E1002630C4A36A901A8FFF7E5FB0FF284052B
S1130E200FF27406FFF7FAFA002C14BF32460022C0
S1130E3001A92846FFF746FD5028F3D05AB070BDEB
S1130E40C0080020A000002080B500F030F900F0B8
S1130E502FF8FFF72DF918B14FF40170FFF762FB7B
S1130E60FFF7DCFA00F051F940F2011188421CBF8F
S1130E7040F21111884207D040F2052188421CBF7C
S1130E8040F20321884201D1012000E0002000F05B
S1130E90DFF9002002BD0000151400005114000009
S1130EA0AD0C0000BD0C00000F0D000000207047C9
S1130EB080B5FFF7ACFA01210620FFF7B3FA06204C
S1130EC000F016FA01210720FFF7ACFA072000F022
S1130ED003FA1748016821F01001016001BD000008
S1130EE0052800D9704710B5DFE800F01721030F7B
S1130EF01C17104C2088411E2180C0B9072000F027
S1130F0003FA42F21070208010BD072000F0F0F9BF
S1130F100620BDE8104000F0F7B9BDE810400620F7
S1130F2000F0DAB9BDE81040062000F0E1B910BDC8
S1130F3000BC0040500900202AE038B50546FFF700
S1130F4059FAFA2190FBF1F44FF4F070B0FBF4F08D
S1130F502D1A2DB21E2DBCBF4FF40170FFF7E2FA1B
S1130F605F48072101600021416081605D494FF0C5
S1130F7000720A6005FB04F1C91C8908491E41601E
S1130F8031BD5A48016841F001010160012141600D
S1130F905748512101607047002070472DE9F843FC
S1130FA0804640F2DC594C464F48B0F900704C483A
S1130FB0514D504E012F1ADA0221B1802960006888
S1130FC0C00348BF00F075F8A86900F003000328C7
S1130FD05DD0002F03D5A86940F00200A861404607
S1130FE0FFF7DAFF04001AD1002F50D54DE04FF679
S1130FF0FF77B188B9421CD102237F223F48018880
S1131000301D00F097F9B088B84204BF0220B080C8
S1131010A869800703D4A86940F00200A8610120F0
S11310207070B088286020B2FFF787FF2046BDE8C3
S1131030F283A9698907EED50068C00348BF00F0B0
S113104038F8707808B14846F1E7A86810F0010054
S1131050A968B28803D10F2A08D2521C06E0890776
S113106004D5F17811B1032A28BF521EF07092B250
S1131070022A38BF0222B2802868B1888842CED1C1
S1131080A86900F00300032801D0FFF77AFF0020CD
S1131090CDE710B5044604E0FFF7EAF90620FFF7B0
S11310A07BFF2046FFF77AFF0028F5D110BD022010
S11310B0EFE70B48002141608160016821F00201E3
S11310C0016008484FF0007101600A48417801B995
S11310D0704780B5002141700620FFF75DFF01BD18
S11310E010E000E004ED00E0AA1500001C40004000
S11310F00080004098000020044000409E1500003D
S113110006E000005FEA000D70474448008870471D
S11311104FF40170FFF706BA38B54FF20F04404D93
S1131120FFF7C4FE28B140F2052028806C8001201E
S113113032BD3C480068C00613D56888A0421CD163
S1131140288840F2022188421CBF40F206218842CE
S113115013D040F2011188421CBF40F211118842A1
S11311600BD0314C208A40F6A721884205D1206853
S1131170FFF7C8FF6068804700BF002032BD000051
S113118038B50446294872B6016849084900016027
S1131190FFF7D2FE23480068000910F001000CBFDD
S11311A02349244902E0CD2201F8012B224A91422D
S11311B0F9D32249224A234B03E011F8015B02F8D8
S11311C0015B9A42F9D32049204A002301E001F847
S11311D0013B9142FBD3124A53884FF20F0540F270
S11311E00521AB420AD113888B4205D030B1180ACD
S11311F0012818BF022801D1194601E004B90021D1
S1131200064801804CF23C305080FFF71DFE4FF43D
S11312100170BDE83240FFF785B900005209002093
S1131220000000202C00004058110020FCED00E0DC
S11312305809002098000020580D0020D015000007
S113124098000020A0000020A000002058090020E1
S113125010B504460020FFF743FE24BB0020FFF72F
S1131260CEFD50B90120FFF7CAFD30B90520FFF7C4
S113127037FE40F20120FFF755F90420FFF730FE56
S11312800120FFF72DFEBDE8104040F20320FFF7D8
S113129049B90FF23400FFF7C7FCFFF7BAFC40F27C
S11312A00220FFF73FF9FFF73DFD0400F1D00FF2F4
S11312B02000FFF7B9FC2046FFF7C1FC01A0FFF7AF
S11312C0B3FCF0E70D0A00000D0A4F6B0D0A000095
S11312D00D0A455252200000C108032907DA890289
S11312E0114A012300F0070003FA00F05050704740
S11312F0C108032907DA89020C4A012300F0070018
S113130003FA00F050507047C10803290ADA084A6A
S113131002EB812101230A6800F0070003FA00F0C0
S1131320504008607047000014B0004010B0004006
S11313300CB0004030B50446104683B07F2808BF87
S11313400020B1F5004F1AD108237F2240F6120184
S113135000A8FFF7EFFF08220FF2380100A800F001
S113136036F830B908237F2240F2A27100A8FFF7B3
S1131370E1FF082200A9204600F010F837BD044D13
S1131380294300FB03111A46204600F007F837BD35
S113139000000408FFFFFFFFFFFFFFFF814212D29E
S11313A010185118401E491E92B2002A1EBF11F88F
S11313B0013900F80139521EF6D1704711F8013B8A
S11313C000F8013B521E92B2002AF7D1704710B5C3
S11313D000E0521E92B232B110F8013B11F8014BF9
S11313E0A342F6D001E0002010BD181B40B210BD8E
S11313F02848018A40F6A772914202BF418A4FF4FD
S11314007F40014204D102298041C043C00F70478C
S113141000207047F8B504460D461D4E012030707B
S1131420FFF7E6FF18B94FF40170FFF77BF819488E
S1131430876A294644F48070B847002131700FF25E
S1131440580618B9294644F40070B847805DF2BDC7
S11314502DE9F041044688465600FFF7C9FF18B944
S11314604FF40170FFF75EF80A48476A00233246DA
S113147041462046B8470FF2200520B933460022E2
S113148041462046B847405DBDE8F08100000000B9
S11314905409002004120020000202024B4B46476C
S11314A0580D00200F15000001110000011100006B
S11314B0A70B09010000000001020053581100208D
S11314C004030000E7050000C5080000A40E0000A6
S11314D0B1000000BF010000FF010000F90000009E
S11314E01701000015030000270100007A01000025
S11314F00000000009480068202100EA010028B12A
S11315000748016842685FEA010D10477047FFF71A
S1131510F1FFFFF701FEFFF733FE00002C0000404F
S11315205811002010B5074979441831064C7C4401
S1131530163404E00A68081D511888470146A14280
S1131540F8D110BD08000000380000007BF6FFFF52
S11315509800000000000020B8080000A00000204F
S1131560D8040000580D00200000000097F3FFFF8E
S1131570080000005C00000098000020000000004B
S113158000F009F8002801D0FFF7CCFF0020FFF796
S11315905BFC00F002F80120704700F001B8EE088F
S11315A00746384600F002F8FBE7C05D0149182001
S11315B0ABBEFBE7260002004D5832354C323030CA
S11315C036450000C046C046C046C046FFF7D8FFB7
S10F15D000000001FFFF0000FEE7000027
S90315C522
