S01400005A30334875625F46616B655A332E733337A1
S31508002000F02000202DD00108A9CF0108ABCF010888
S31508002010A70A080100210008040303AC00537A014B
S3150800202000000000000000000000000000000000A2
S315080020300000000000000000000000000000000092
S315080020400000000000000000FFFFFFFFFFFFFFFF8A
S31508002050FFFFFFFF00E0020800000000000000008C
S31508002060FFFFFFFFFFFFFFFFFFFFFFFFFFFFFFFF72
S31508002070FFFFFFFFFFFFFFFFFFFFFFFFFFFFFFFF62
S31508002080F02F002000000000EA2F0020EA2F002091
S31508002090F020002068DF010894D20108901700207C
S311080020A060140020000003080030002037
S31508002100F02000202DD00108A9CF0108ABCF010887
S31508002110AFCF0108ADCF0108B1CF010828D001081B
S3150800212028D0010828D0010828D0010828D001089D
S31508002130B3CF010828D0010845D20108AF6A0108C3
S3150800214011CF010828D001087998010828D001087C
S31508002150C75901089D3D000828D0010828D0010864
S315080021605DAD010815D80008172F0108919D0108D3
S3150800217028D00108DB9E0108239F01087FB50008C7
S31508002180C5B0000828D0010828D0010829D00108C0
S315080021904048704710B54049A52281F888205A233F
S315080021A001F1880253709070002281F8092106E037
S315080021B05418521C94F88B40E31881F80931D2B2AE
S315080021C091F809318242F3D34218883182F88B306C
S315080021D0021DBDE81040D2B2012000F0F9B92E491F
S315080021E081F88B000120D5E770B52B4D82B00C46DF
S315080021F005F1800605E00320FFF7F1FF4FF4FA70BA
S31508002200706000A9204600F05FF9002840D195F8D3
S3150800221080009DF8001010B9A529EFD103E0012828
S315080022200FD15A290AD195F880009DF8001041551A
S3150800223095F88000401C85F88000DFE7A529DDD1E8
S31508002240F9E7022803D171700020B070EBE77178C6
S31508002250B278CB1C834215D19DF80000824209D181
S3150800226001290AD00020FFF7BAFF7178E81C01F0AF
S31508002270E8FB02E00220FFF7B2FF002085F88000A5
S315080022807060BBE78028B6DA9DF800008018DCE7A6
S31508002290002076BDCB2500204025002070B51346CA
S315080022A0101802E0A4192C705B1EDBB24BB101F0CA
S315080022B00F060909451E28460A2EB4BF30243724BE
S315080022C0F0E7101870BD2DE9F04F87B0804601A8D9
S315080022D0894614469B4601AD00278DF800001BE091
S315080022E05BF804AB04224FEA1A412846FFF7D6FFEB
S315080022F004221FFA8AF1FFF7D1FF054605A8854291
S3150800230009D39DF800002E1A00F096F8002831D15E
S31508002310F719FFB201AD641C9DF800002E1A20784B
S31508002320002807D0252802D005F8010BE6E714F89F
S31508002330010F002876D02528F6D0322818BF342871
S315080023405FD0582857D063280CD0642818BF6C284B
S3150800235025D0702818BF732807D075281FD078286D
S3150800236049D0CBE75BF8040BDEE75BF804AB00F07B
S3150800237063F800285CD1F719FFB201AD002600E02A
S31508002380761CF6B216F80A000028F9D132465146EC
S315080023904846C04700284BD1F719FFB2AEE75BF8AD
S315080023A0040B0021002803D52D2129704042012164
S315080023B0002300224FF0000C02E0801B0CF1010CF8
S315080023C00FF22C3656F82260B042F6D243EA0C06D3
S315080023D0F6B2002E05D0C9B20CF130034B55491C94
S315080023E00123521C092AE5DBC9B230304855481C7E
S315080023F0C0B2451982E75BF8041B0222C9B2284617
S3150800240079E714F8010F78281CBF5828641EF1D103
S3150800241014F8010C32287FF463AF5BF8041B04221E
S3150800242089B2ECE700F008F810B9F019C0B200E07C
S31508002430002007B0BDE8F08FF2B201A94846404730
S315080024402DE9FC4E0400894692469B4618BF022C8D
S315080024502CD0032C18BF042C28D0042C26DA0FF213
S315080024607820205C012821D1DFF8585205EB840634
S31508002470F76801F071FB0021B9803980798001F095
S3150800248071FBF66901F068FB0021B180318071802B
S31508002490615501F067FB01F080FC5B4652464946F0
S315080024A0204602B0BDE8F04E01F06EBB2120BDE823
S315080024B0F68E10B5044601F052FCDFF8080200EB70
S315080024C08400C069808810BD2DE9F041884604461D
S315080024D0DFF8F05105EB8401CE690FF2FC11615C5F
S315080024E009B9012034E0615D05EB440761B1B9889B
S315080024F07288914208D101F02FFB665D0021615573
S3150800250001F030FB304623E001F029FCB088F0B139
S3150800251001F022FB71880FF2CC128919897988F8A3
S3150800252000104FF6FF78718832F8142000F01EF874
S315080025307180B1884144B18001F014FB605D20B11F
S31508002540B888404504BF3088B880002000E02620BF
S31508002550BDE8F08180880FF2781333F81110891AD4
S31508002560884201DA0120704700207047491C91FB18
S31508002570F2F302FB1311704751A111E010B50FF2E7
S315080025805813C35C0024012B08D113460A4601469A
S315080025900FF23D00FFF797FE00B90124204610BD53
S315080025A00CB480B502AAFFF7E9FF02BC5DF80CFB84
S315080025B00CB438B5044604AAFFF7E0FF05462046E2
S315080025C0FFF7DAFF284632BC5DF80CFB0000000076
S315080025D02DE9F84F804647460FF2FC00385C8B46DB
S315080025E01646012839D137480FF200190FF2EC0ABE
S315080025F000EB87000025C46814E001F0ADFAA18855
S3150800260001B9012521881BF8012B09198A7121882E
S315080026103AF81720FFF7AAFF2180A188491CA18054
S3150800262001F0A0FA3046461EC0B288B100224146E3
S315080026302046FFF78FFF0028DFD11DB1404601F085
S31508002640E0FA002517F809000028EFD1222005E056
S31508002650404601F0D6FA002000E00120BDE8F28FDE
S3150800266080B50FF27402825C012A06D1154A02EB84
S315080026708001C9688A88002AFCD101F0FBFA00208B
S3150800268002BD0CB438B504460D4601F0D3FA04ABC6
S315080026902A4621460C48FFF716FE0FF23C01615CFC
S315080026A0012908D1074901EB8400C068808810B168
S315080026B0204601F0A6FA32BC00205DF80CFB0000AB
S315080026C00D0A000040230020453C00087047000022
S315080026D000008000000000000001000000008000EB
S315080026E0000000000000800000000000000100005B
S315080026F000CA9A3B00E1F5058096980040420F0013
S31508002700A086010010270000E8030000640000000E
S315080027100A000000A0F130030A2B38BF30210AD383
S31508002720A0F16103062B38BF572104D3A0F141025B
S31508002730062A38BF3721401AC0B27047F8B5044692
S315080027400D46002614F81600FFF7E4FF074604EBCB
S3150800275046004078FFF7DEFF40EA0710761C05F8CA
S31508002760010B082EEEDBF1BD01290CBF000900F0B4
S315080027700F000A28B8BF303004DBA0F10A01062989
S3150800278001D25730C0B2704770B504460D4616469A
S315080027900CE028780121FFF7E7FF04F8010B002178
S315080027A015F8010BFFF7E0FF04F8010B3046461E4B
S315080027B0C0B20028EDD1207004F8010F70BD38B5FD
S315080027C004460D4614F8010B01F05BFB2846451E2E
S315080027D0C0B20028F6D131BD0021DFF8402C0B5CD1
S315080027E08B54491C1029FADB00201082704738B533
S315080027F004460121012001F00FFBDFF8240CDFF865
S31508002800241C028820464FF6FC75DFF81C3CA842BB
S315080028101FBF4FF6FD75A8424FF6FF75A84204D1B3
S3150800282001B0BDE8304001F0EFBB0093002013462D
S315080028300A46214601F013FC32BD2DE9F04100F0AD
S3150800284070F815461E4600F040FC6061078000F0EF
S315080028500FF821F80080891C21702A0018BF012270
S3150800286000F065F8491C2170C9B20E52881C52E066
S315080028702178891C2170C9B270472DE9F843814631
S31508002880DFF8A85B089C0020884616461F46287075
S31508002890FFF77EFC6861A0F8009000F04FF818BFBB
S315080028A0012200F055F80F52891C2970C9B20C5242
S315080028B0881C2870C0B2BDE8F243FFF76BBC2DE94F
S315080028C0F04100F02EF816461D4600F0FEFB60614A
S315080028D007802178891CC9B221F80080891C32003A
S315080028E018BF0122C9B200230A54491CC9B24A1C9E
S315080028F00E540699D2B25E5C16545B1C561C3246C0
S31508002900122BF7DB2270F6B2B11C35522170012268
S31508002910C9B20A54481C2070C0B2BDE8F041FFF79E
S3150800292039BC0746DFF8044B002088467047C9B211
S315080029300A54491C2170C9B20D5470472978891C5C
S315080029402970C9B221F80080891C297032007047A5
S31508002950C9B20A54491C2970C9B20E54491C2970B7
S31508002960C9B2704770B5064601F0DBFE05464FF65C
S31508002970FF70854216D000F07EFF00F014F8320092
S3150800298018BF012200F074F8481C207001F0E5FF1A
S31508002990616922785054501C2070C0B24552801C80
S315080029A000F009BF70BD6061032101808222217891
S315080029B0891C2170C9B20A52891C2170704710B54A
S315080029C0046802F071F8022803D1BDE810407020AF
S315080029D0C8E72046BDE81040052102F0FDB938B524
S315080029E002F087FB00F046FF6061042100F039FE23
S315080029F021702A0018BF012215E038B50078012198
S31508002A0081400023FE224FF6FF7002F0FFFE00F021
S31508002A1031FF6061042101800222217800F058FC10
S31508002A202A0018BF0122FFF782FF481C2070C0B297
S31508002A30BDE83240FFF7AEBB70B5054601212878E0
S31508002A4001F016FBDFF8E449064600F015FF606161
S31508002A50042100F04CFE320018BF012200F008F8ED
S31508002A60491C2170C9B22A780A54481C00F0A3BE32
S31508002A70C9B20A54491C2170C9B20E54704770B5C0
S31508002A8000F03FFE6061042100F0F6FD002200F030
S31508002A90DFFD0822C9B28B1C0E5223702946DBB211
S31508002AA01818FFF771FE2078123000F084BE10B5B2
S31508002AB0044682B00022002100F07AFD00F008FBEF
S31508002AC038B14FF6FF71009102462346052100F002
S31508002AD093FC13BD3EB500F0F8FC01A92046FFF7AC
S31508002AE02DFE658A0023402201A9284602F0E2FF4E
S31508002AF028B100F0E6FC83210320FFF7E0FE37BD8E
S31508002B0010B5DFF81849607D86B0012817D1002076
S31508002B10607500F074FC04F1240203200190207D06
S31508002B2031F8100000902121208C02F089FF020064
S31508002B3005D0238C4FF6FF70009000F05CFC06B0C1
S31508002B4010BD10B5DFF8D44830F8021B218404F113
S31508002B502401FFF7F3FD012060754FF4FA71002098
S31508002B60207504F11800BDE8104002F0D8BF30B552
S31508002B7028B90620088000201080102036E0012899
S31508002B8003D10820088000201CE04FF44074022876
S31508002B9002D10C80072027E040F20275032805D1F0
S31508002BA00D804FF4806010802A201FE0042804D18D
S31508002BB00D8000201080252018E0092805D1012065
S31508002BC0088021201080202010E00C2802D10C80DB
S31508002BD0032009E00D2802D10C80042004E00E2809
S31508002BE005D103200880002010802120187030BDF0
S31508002BF0062802D161BB00207047082802D139BBDC
S31508002C0001207047B0F5407F03D1072913D1022070
S31508002C10704740F20273984204D1B1F5806F07D12C
S31508002C200320704701280AD1212911D109207047AC
S31508002C3071B904207047032907D10C20704703286F
S31508002C4008BF002904D10E207047042908BF0D20AB
S31508002C50704770B50446084682B0067815460221C4
S31508002C6003F0CCF80146042DB8BF00262046FFF72E
S31508002C70BFFF00903246DFF8080C0068C38800F0F2
S31508002C80DCFE002003F0A8FA012076BD3EB5044616
S31508002C9001AB65880DF1060202A92846FFF767FF12
S31508002CA0BDF808100622102001F0C7F8002001F030
S31508002CB0E8F8BDF8060001F0EDF89DF8040001F00B
S31508002CC0E0F8A08801F0E6F8E08801F0E3F89DF85E
S31508002CD0040003F07CFB40B99DF8040003F0ACFB4C
S31508002CE0014604F10800FFF76AFD00F0F1F9020059
S31508002CF003D00095234600F0A0FE37BD10B570B985
S31508002D00042908BF4FF4004261D0052908BF48F2DC
S31508002D1001025CD003295AD148F2030257E0192868
S31508002D2004D1022953D148F2020250E0062803D101
S31508002D3000294CD100224AE0082803D1002946D1AF
S31508002D40012244E0B0F5407F0BD1072908BF0222D3
S31508002D503DD0032908BF0C2239D0042937D10D22CA
S31508002D6035E040F20274A04207D1B1F5806F08BF82
S31508002D7003222CD059BB042229E040F60534A04290
S31508002D8010D140F21D10814208BF05221FD0B1F5AF
S31508002D908E7F08BF06221AD040F21B10814216D138
S31508002DA0072214E0012803D1212910D109220EE0B7
S31508002DB0B0F5A06F07D1012908BF0A2207D002295A
S31508002DC005D10B2203E0032804BF00290E2290B286
S31508002DD010BD2DE9F0478146DFF8506600200C4605
S31508002DE090463070FFF7D4F97061042101800822FB
S31508002DF03178891C3170C9B20A52881C3070424633
S31508002E000021204602F0FAFF01463078A578421CD8
S31508002E1032702B0018BF01237769C355D2B2501CF4
S31508002E20D5553070C0B2DFF8582A1268D288C25316
S31508002E3000F1020A86F800A04846FFF75FFF5FFA2E
S31508002E408AF1C853881C3070EDB9E578284603F036
S31508002E5058FB20B1201D02F0DDFF401C02E0284689
S31508002E6003F0EAFAC0B2011D88450CDB002107E031
S31508002E700B19327875691B795355521C3270491CE7
S31508002E80C9B28142F4DB00F00FF804F033F800F021
S31508002E900BF804F031F83078FFF77CF9002003F0DE
S31508002EA09BF90120BDE8F0873078411C31707169C3
S31508002EB04018704710B50346B3F5004F01D10020FE
S31508002EC05BE048F20104A34203D1002008800520F4
S31508002ED05BE048F20204A34202D1192008803DE0D3
S31508002EE048F20304A34201D1002041E008B90620B4
S31508002EF049E0012B08BF082045D04FF44070022B4B
S31508002F0002D10880072040E040F20274032B03D167
S31508002F100C804FF4806038E0042B08BF0C8033D057
S31508002F2040F60534052B05D0062B07D10C804FF447
S31508002F308E702AE00C8040F21D1026E0072B03D184
S31508002F400C8040F21B1020E04FF4A0640A2B02D13B
S31508002F500C80012019E00B2B02D10C80022014E012
S31508002F60092B03D10120088021200EE00C2B02D169
S31508002F700880032009E00D2B02D10880042004E014
S31508002F800E2B03D1032008800020108010BD2DE9E8
S31508002F90FC4104462088678800285FD1DFF88C4406
S31508002FA000F093F8054665610420288008212078FA
S31508002FB0801C00F084F80021C0B2415500F07AF96F
S31508002FC04155401C00F07BF8C0B24753801C207066
S31508002FD0461CC0B2804667B90FF65037384603F02C
S31508002FE09FFF00F066F8C9B2814233DA00F05AF85A
S31508002FF0F9E7012F0CD10FF63C37384603F090FF5E
S3150800300000F057F8C9B2814224DA00F04BF8F9E724
S31508003010022F05D140F2031148F80510001D18E0EB
S31508003020032F09D100F04DFDDFF8E40A0068800798
S3150800303054BF0120022008E0042F02D101F034FD1C
S3150800304003E0052F06D101F088FC217862698854CF
S31508003050481C20702078FFF79DF821E00DF1060244
S3150800306001A93846FFF726FF48F20200874204D135
S31508003070BDF804100022182003E0BDF80410002251
S31508003080102000F0DAFEBDF8060000F003FF00F09D
S315080030901FF8020004D000972346082100F0CEFC52
S315080030A0BDE8F3812378CA5D5A55491C5A1C22701B
S315080030B07047C0B208F805002670002170472070D6
S315080030C0C0B24153801C207070472070FFF760B86B
S315080030D024882046FFF78BBB2DE9F041044682B0D1
S315080030E06588A0880A2290FBF2F8082D03D10821EA
S315080030F01126202704E00E2D02D1032100262127C0
S315080031000222102000F099FEB0B200F0C3FEF8B219
S3150800311000F0B7FE082D03D1207900F0B2FE05E0D5
S315080031200E2D04BF1FFA88F000F0B4FEFFF7D0FF9B
S3150800313028B10246009523460A2100F07FFCBDE827
S31508003140F3812DE9F04100F0DDFC9046FFF7BDFF65
S3150800315060610421018009222178DFF8247700F0D4
S31508003160B7F8002200F02DFB0A54491C3A68217072
S31508003170C9B2D2880A52881C2070424600213046BD
S3150800318002F03CFE217862698B1C062D04D10028CA
S315080031906ED100F093F860E0032D01D10E204EE0C9
S315080031A0012D05D1212863D1092000F087F854E0C4
S315080031B0082D05D100285BD1012000F07FF84CE0EE
S315080031C0B5F5407F09D1072801D1022037E0032849
S315080031D018BF04284CD1093031E040F2027C65451D
S315080031E023D168B90420885223700020DBB200F08E
S315080031F05AF80628FBDB981800218171C17110E086
S31508003200B0F5806F34D10320885223700020DBB2DA
S3150800321000F049F80328FBDB98180521C01C03F0C9
S315080032209BFE20780830207022E0B5F5A06F17D1F4
S31508003230012801D10A2002E0022819D10B20885260
S315080032402370DBB2F0789854581C2070C0B23179DC
S315080032508154401C20700023062000F040F807E047
S315080032604FF6FF70885223700820FF2300F037F8C6
S3150800327020786169401803F03DFE207800F019F8BF
S31508003280401803F039FE20783A6800F012F8927C6C
S31508003290425400F00FF8FEF77DFF002002F09CFF75
S315080032A00120BDE8F0818519C118ED788D54401CC0
S315080032B070476169401C2070C0B2704788522370FD
S315080032C0DBB2F0789854581C20700023072070470A
S315080032D0891C2170C9B20A52891C2170704721784D
S315080032E08B54491C2170401EF9D170472DE9F047CF
S315080032F080464E4E089C099D00200F4691469A46E8
S315080033003070FEF745FF7061042231780A52891C35
S31508003310C9B2092200F0ECFBC9B221F80090891C59
S31508003320B8F5A06F08BF022F14D1C9B20B220A52F2
S31508003330891CC9B2032221F800A0891CC9B200233E
S315080033400C52491CC9B20D52891CC9B20B54491CEE
S31508003350521EFAD131703178081803F0CBFD307857
S315080033607169401C3070C0B2401803F0C5FD307852
S31508003370DFF80C2571691268401C3070C0B2927C67
S315080033804254401C3070C0B2BDE8F047FEF702BF99
S3150800339080B5498848F22103994207D14FF6FF7153
S315080033A00091034652780D2100F026F8002002BD50
S315080033B030B504461948042189B0017506A925883F
S315080033C0A01CFFF7BBF900F01AF806AA0320019023
S315080033D0A08A31F8100000902121284602F030FB1F
S315080033E038B14FF6FF71009102462B460D2100F0C9
S315080033F003F809B030BD06210420FFF71EBA4FF4C2
S315080034008250059001200490002003900123DFF8E4
S3150800341004070FF230710290704700004C26002016
S315080034207A2C00206C2C0020182C0020F02000207C
S3150800343038B500F04AF8A07C70B90022062100F0E1
S31508003440B7F8B4F8135000F0ADF820B100F039F829
S31508003450802100F06FF831BD0128FCD10122EDE78B
S3150800346038B500F032F80422082100F0A1F8A07C53
S3150800347000F007FDB4F8130000F00CFD00F090F81A
S3150800348020B100F01EF87F2100F054F831BD38B5A0
S3150800349000F01BF80622082100F08AF8A07C00F04C
S315080034A0F0FCE07C00F0EDFCA08A00F0F3FCE58A75
S315080034B000F078F820B100F004F8822100F03AF81C
S315080034C031BD024600942B4670470446FFF784B97F
S315080034D010B94FF4B9707047642801DB992070471A
S315080034E0D9214843642190FBF1F0C0F5B97080B248
S315080034F0704738B50446A07C65281ADADFF818063E
S31508003500002181752046FFF767F900F04EF8A07C88
S31508003510FFF7DEFF00F0BEFCB4F8130000F0BAFCBB
S3150800352000F03EF8020004D000942B467E2100F0FD
S3150800353001F831BD0120FFF7C2B938B50446DFF8F6
S31508003540D805012181752046FFF746F900F02DF8C8
S31508003550608A00F09FFCA08A00F09CFCE58A00F0D7
S3150800356021F820B1FFF7ADFF9121FFF7E3FF31BD49
S3150800357038B5FFF7AAFF0022032100F019F8608A80
S315080035800A2190FBF1F080B200F084FCA58A00F0D5
S3150800359009F820B1FFF795FF7D21FFF7CBFF31BD75
S315080035A0B4F815502846FFF722B90A224FF440719D
S315080035B0112000F042BC38B5FFF787FF0722FFF756
S315080035C0F5FF608A00F066FCA08A00F063FCE08ADA
S315080035D000F060FC258BFFF7E5FF20B1FFF771FFD0
S315080035E08121FFF7A7FF31BD10B5DFF8FC440020A5
S315080035F02072607828B90120E070BDE8104003F019
S31508003600AFBC012813D100F037F96061052100F03D
S3150800361028F8A2782170012A18BF0022C9B20A54D4
S31508003620491C21700022C9B20A54481C0EE002281F
S315080036300DD10020E070FFF748FD00F01BF80122CD
S3150800364000F006F80022C9B20A50081D36E110BD7E
S31508003650C9B20A54491C2170C9B20A54491C2170BE
S315080036607047018001222178891C2170C9B20A524B
S31508003670891C704760610521018004222178891C14
S315080036802170C9B20A52891C21707047DFF85804A4
S31508003690C078704710B5DFF8504403F090FDA0706D
S315080036A003F09AFD0020A061012060700020E07000
S315080036B003F056FC04F10800BDE810404FF4FA5137
S315080036C002F02DBA70B500F01CF86061052100F013
S315080036D00EF8C9B20E52FFF7CCF82A880A52FFF73D
S315080036E0C8F86A880A52FFF7C4F86A6861E0018078
S315080036F003222178891C2170C9B20A52891C2170BB
S3150800370070470646DFF8E04300200D462070FEF7B6
S315080037103FBD70B50646DFF8D043D6F80110A0695C
S31508003720884239D12079401C207106F10900D6F863
S31508003730052003F037FE0546012D1AD10020207119
S31508003740D6F80510A0690818A0613078012807D1B5
S31508003750002060704FF4FA6104F1080002F0DFF906
S3150800376000F08AF8FFF786FF012D0CBF0022012220
S3150800377014E020793228F3DB00202071A06103F0E1
S315080037801EFDA0704FF4FA510220607004F1080083
S31508003790BDE8704002F0C3B90025E1E7C9B20A5492
S315080037A0491C2170012D0CBF0022012200F009F8E6
S315080037B0A2690A50081D2070C0B2BDE87040FEF725
S315080037C0E9BCC9B20A54491C2170C9B2704738B558
S315080037D000F050F800F04AF8052200F035F82A689B
S315080037E00A50091D2170C9B26A680A50091D21705C
S315080037F0C9B20A186968286803F0CBFD2078696899
S315080038000818FFF713B938B50546287803F080FE7F
S3150800381000F031F800F02AF8082200F015F82A78A6
S315080038200A54FFF702B938B50546288803F078FE2A
S3150800383000F021F800F01AF8092200F005F82A88A5
S315080038400A52881CFFF7F2B82178891C2170C9B280
S315080038500A52891C21700022C9B20A54491C2170D7
S31508003860C9B20A54491C2170C9B270476061052162
S315080038700180704705469C4C00202070FEF788BCE6
S315080038809023002010B5044600221921192000F0C3
S31508003890D4FA002000F0F5FA642000F0F2FA208845
S315080038A0914C2082FEF7A3FFFFF7E6FFFFF7DEFF46
S315080038B00A22FFF7C9FF228A0A52881C2070C0B262
S315080038C0BDE81040FEF766BCF8B50D4616880699A1
S315080038D0079CB6F5827F2FD10E7877074CBF022753
S315080038E00027F60728D479188B78062B09D1002CDF
S315080038F021D089885088FFF77BF900F09AF80721CC
S3150800390017E053B9002C16D0B1F803105088FFF70A
S31508003910F5F900F08EF808210BE0022B0BD152883E
S31508003920082A02BFB1F803101129082000F081F80F
S315080039300A2100F083F876E05288774E4FF6FF703A
S315080039406AB1032A0FD0062A11D0082A13D0212AD1
S315080039503CD0342A61D0B2F5407F1FD063E000F036
S3150800396068F8052156E000F060F87D212CE000F0AB
S315080039705CF8802128E0032B55DB087840074CBF0C
S3150800398008798878042803D100F04FF87F211BE0D6
S31508003990062848D100F049F8822115E0032B42DBBE
S315080039A0087840074CBF087988780A2807D1B07D7F
S315080039B001280CBF91217E2100F037F804E0072882
S315080039C031D100F032F8812101202AE0317D042925
S315080039D004D144B300F02DF80D211BE0BCB9491CF5
S315080039E031750122C9B27275042909DB00213175C6
S315080039F000900022338CFFF7FEFC0020307612E0A0
S31508003A004FF4FA7106F1180002F089F80BE000F09D
S31508003A1010F80621FFF7F0FC05E000F006F8832110
S31508003A200320FEF74CFF0020F2BD00962B462246E7
S31508003A30704700902B462246704707210420FEF760
S31508003A401CBF38B530F8022B30F8023B334C5D1EEC
S31508003A50ADB204EB8505012A06D0032A0FD0042A45
S31508003A6016D0052A18D031BD912B08BF8323A3F1A0
S31508003A707D0292B254F82220BDE838401047A3F1DF
S31508003A80820292B204EB8202BDE83840D26910473E
S31508003A906A6ABDE838401047AA6DBDE83840104745
S31508003AA010B5044600F00DF81A2C02D16FF02A0062
S31508003AB010BD192C02D16FF0040010BD6FF0020082
S31508003AC010BD0821112003F074BD80B5FFF7F9FF7A
S31508003AD00F480068800705D5BDE80440092116206F
S31508003AE003F067BD01BD0000F02000207047704755
S31508003AF00A52891CC9B200220A54491CC9B20A547E
S31508003B00491C70470546064C00200E4670470000C3
S31508003B1008B80040802C00204C2600200C210020EC
S31508003B20F0200020002070470120704773656E67FB
S31508003B306C6564005A30312D4131392D4761746501
S31508003B4077617900060008000003020700000000FC
S31508003B500000000000000100EFF31180602181F3EE
S31508003B601188704780F31188704700009848016CE7
S31508003B7041F4C04141F0090101644FF6FF7101604B
S31508003B80202194480160704770B515461E460128E5
S31508003B9035D113293CBF0FF26C20095C0809642251
S31508003BA0504301F00F010B2903DA884006E00A2288
S31508003BB050430A46511ED2B20B2AF8DA01460120B2
S31508003BC003F0F3FDE0B9300907280CBF00200220F6
S31508003BD0012D08BF40F0180003D0022D08BF40F0A1
S31508003BE0080006F00F010229A8BF40F004007A4930
S31508003BF0886001200860FFF7B9FF002062BD212018
S31508003C0062BD012800D0704738B57348006801289E
S31508003C100FD1FFF7A1FF05467048016841F006017C
S31508003C200160012000F09CF82846BDE82640FFF711
S31508003C3099BF23BD012804D16848016821F006010F
S31508003C4001607047012802BF65488369012B07D0C8
S31508003C5021207047C3685B07FCD511F8013B036058
S31508003C6013465A1EDBB2002BF4D1C1684906FCD5AF
S31508003C700020704710B5044603F086FC012C03D1DA
S31508003C80584800684006FBD510BD70472DE9F0433B
S31508003C905549564B51F82020554C564D564EDFF88F
S31508003CA0408119E0B2F804E036F810707F1EBE4570
S31508003CB026DAB2F800E096448EF806C0178835F87A
S31508003CC010E007F1010C9CFBFEF70EFB17CCA2F8DF
S31508003CD000C097887F1C9780D8F80C70BF073CD522
S31508003CE0D8F80C70D8F800C017F03807DAD05FEAB1
S31508003CF0077C08D45FEAC76C08D54FF0240E0BE0A2
S31508003D004FF0230E08E04FF0270E05E0BF064CBF24
S31508003D104FF0250E4FF0010E51F820C0075D37B958
S31508003D20BCF8007023F8107000F804E0D4E733F804
S31508003D301070ACF8007000F804E0BCF80070BCF82D
S31508003D4002E077452FBFA7EB0E0E36F81090A9EBC9
S31508003D500E0EBE44ACF804E0BEE7BDE8F08370473B
S31508003D6070B52649264A51F820101D4B0FE04C889D
S31508003D706418A4791C604C8832F81050641C94FBB3
S31508003D80F5F605FB16444C808C88641E8C808C885E
S31508003D9014B1DC686407EAD470BD704738B50C4CBA
S31508003DA00FE046F229702560054203D0A9B201202A
S31508003DB0FFF76CFF41F6D60005421CBF0120FFF74E
S31508003DC0CFFF2068216C11EA0005EAD131BD000059
S31508003DD008A8004000E100E054C8004048A8004098
S31508003DE03CC8004048C800405C230020442300200B
S31508003DF040230020E4260008B8D701084C230020F9
S31508003E00DC260008306090C0C1C2C394C495C55C66
S31508003E1096C6AC9798990D0010B50C4608B903F0EC
S31508003E202FFDDFF8841008714C7110BDDFF878108B
S31508003E304FF48252CA80488070472DE9F041804687
S31508003E4008461446FFF7F2FFDFF85C50288A012778
S31508003E50002814BF04210021DFF8506041EA080158
S31508003E60317018B170700327000AB07002F05FF95C
S31508003E70B855781CC0B28455401CC0B2E881BDE86C
S31508003E80F081DFF82410DFF82430CA89D054501C9A
S31508003E90C881704710B50446C0B2FFF7F2FF200A82
S31508003EA0BDE81040EDE700006C2C0020182C00201F
S31508003EB00020DFF83415FF2301EBC002137100223E
S31508003EC041F83020401C0328F6DB70472DE9F84BF3
S31508003ED00BB484B01446032B05DB109D29784907DB
S31508003EE006D5052B01DA012079E095F8049001E062
S31508003EF095F802900026DFF8F0B40BEBC6000079BF
S31508003F00FF2804D0701CC6B2032EF6DBFF26DDF8A8
S31508003F1048805FEA080003D0FF2E08BFB4205ED0B1
S31508003F20207902F06AFD0746FF2F08BFA32056D066
S31508003F30207903F099FC002851D1DFF8B00400EB92
S31508003F40071000214388238060889DF8442000904C
S31508003F50484602F083F918B1E08840F02000E08076
S31508003F60BDF814109DF81000224602F083F9BDF83A
S31508003F701810884220D3FF208DF8080002A8019067
S31508003F8000952246BDF81830BDF814109DF81000AB
S31508003F90DBB200F09BFE07465FEA08000ED06FB959
S31508003FA09DF80800FF2814D00BEBC6009DF80810F2
S31508003FB001714BF836800CE074270DE0BA2F07D153
S31508003FC0A079C00608D50027012003F072FC00E09E
S31508003FD017B9112003F072FC03F04FFC384608B0FD
S31508003FE0BDE8F08B10B584B0069C00F005F80420F7
S31508003FF0FFF76CFF04B010BD0093029413460A46FF
S31508004000012401460194704710B582B0002400943B
S31508004010FFF7E8FF16BD2DE9F04385B004460C9D71
S315080040200D9F884616469946022C0BD100A95FFAC1
S3150800403088F003F049FD78B99DF8010030719DF8C4
S315080040400400707102970020019000954B46324695
S3150800405041462046FFF73AFF05B0BDE8F08330B584
S3150800406083B00025069C01950094FFF7D4FF3EBD5A
S3150800407030B583B004460D4603F0E3FF70B96DB161
S3150800408001A800210160032000908DF8054001ABCE
S31508004090002236214FF6FC7005F0CCF93EBD2DE91D
S315080040A0F0410D460446288816461F4608B10020EA
S315080040B034E0688848F2040148F2010888421CBFC7
S315080040C048F2060188420DD048F2200188421CBFFA
S315080040D01328404506D048F20501884202D13079B6
S315080040E0C34908702946204605F000FB3B46324680
S315080040F029462046FFF74CF9002802BF688848F28F
S315080041002101884203D17178204603F0F6FB6888BE
S315080041104045A4BF082003F00DFC0120BDE8F0814E
S315080041202DE9F04788B081460E469246984602F039
S31508004130E8FE8DF8089003960546119F0497ADF89A
S3150800414016508DF818A08DF81980109CADF81440FB
S3150800415000F0ACFC8DF81A0000F0AAFC8DF81B00E4
S3150800416005F035FC8DF81C0002A803F0D6FBA8B9AB
S31508004170A3B23A463146284605F00FFD70B9A3B2F8
S315080041803A4631462846FFF78AFF38B90190009526
S31508004190A3B23A464946304601F013FF08B0BDE8D7
S315080041A0F0872DE9FC4780468A4617460C988E49C3
S315080041B01D46002201EBC2031B79834210D0521C14
S315080041C0D2B2032AF6DB4FF00009002201EBC20344
S315080041D01C79844207D0521CD2B2032AF6DB07E0C8
S315080041E051F83290F1E7FF201871002041F83200AB
S315080041F02946404603F06EFB002D04BF3888002888
S3150800420006D17888B0F5004FBCBF082003F056FBEE
S31508004210012003F08FFB0A9C0B9E36B13078C0074D
S3150800422003D500F01BF802F09EF95FEA090002D0F8
S3150800423000F014F8C8470196A4B200942B463A46F3
S315080042405146404605F06CFD0195009623463A46D0
S3150800425051464046FFF738FBBDE8F38701950096BF
S31508004260A3B23A4651464046704770B5044682B0F6
S3150800427090380CD0401E3AD0C01E38D0801E36D09A
S31508004280801E34D01338042831D9113831D105F0BD
S315080042909FFD064600F006FC451EAD41ED0F2EB10A
S315080042A0002D14BFB0883089ADF800000DF102006A
S315080042B005F047FEBDF80200800605D5BDF80000EA
S315080042C040F02000ADF800002A4600A9002003F0BF
S315080042D034FBBDF8000005F021FEBC2C02D103F02A
S315080042E022FB01E006F06FFC03F01EFB01E001F083
S315080042F025FE204605F045FD204606F0FBFC204637
S31508004300FFF710FC73BD10B584B03A4C002003F0DB
S31508004310A6FA207880B96478012C08BF06F012FD49
S3150800432000A800F00DFD70B99DF80000A04203D06A
S31508004330012C08BF022806D10FF2C40000680190BC
S3150800434001A803F06EFF03F098FA1FBD38B50446BE
S315080043500D4603F087FA2946204606F071FCBDE8AB
S31508004360314003F08ABA70B504460D46164603F086
S3150800437079FA32462946204606F07CFCBDE87040AC
S3150800438003F07BBA10B5044603F06CFA204606F033
S31508004390ACFCBDE8104003F070BA10B516490968C0
S315080043A00A7804467020002A04BF4978012906D1F4
S315080043B006F0DDFC2046BDE8104003F0F9BD10BD4F
S315080043C038B50D4909680A78044670205AB94D78F7
S315080043D0012D08BF022506F029FD21462846BDE81D
S315080043E0344003F04BBE32BDA8260020C02600206C
S315080043F0A8210020B4D201089029002070470000A7
S315080044000000000010B506F04FFD06F0A3FDDFF82A
S315080044102C432078002839D1102006F0DFFE00064C
S315080044200BD4002006F0DAFE000606D5E07801284F
S3150800443012D106F013FFA8B310BD102006F0CEFE69
S315080044400006F6D5002006F0C9FE0006F1D5E0788C
S31508004450012818BF0F28ECD0E078022818BF0628D4
S31508004460E7D0072818BF0828E3D0092818BF0A2864
S31508004470DFD0032818BF1028DBD0112818BF122850
S31508004480D7D013281CBF14281528D2D00FF2E02441
S3150800449021460020FEF7F5F821460120FEF7F1F83F
S315080044A0B02010BD07F041F807F098F8DFF8900241
S315080044B0007808B103F046FC07F09AF807F0BEFA50
S315080044C0DFF880420FF2D42001F0C3FB2070DFF83A
S315080044D0780201F0BEFB607005F0E0F907F0ABFC6E
S315080044E007F0E4FD09F050F809F051F809F064F80E
S315080044F0012009F08EFAF021DFF8500201F016FBD0
S31508004500002010BD2DE9F04709F0E8FC09F0ECFDA4
S315080045100AF004F908B90AF0D4F8DFF834824046FC
S315080045200AF084FC08B908F0DEF8DFF82892484655
S315080045300AF07CFC08B90AF046FE0BF04BF90BF0C2
S31508004540EAFADFF80052287801F06FFB687801F084
S315080045506CFB0BF04FFC00270024DFF8FC61DFF84A
S31508004560FCA10AE0204605F041FA3068007B0428E1
S3150800457028BF012705F03BFA641C9AF80000E4B24C
S315080045808442EFD3002F1EBF75480078002805D057
S3150800459000F03EF8102808BF0BF0D4FE71480AF068
S315080045A045FC08B907F024FA0CF036FAFFF7D4FAF6
S315080045B007460AF0B3F868B140460AF037FC48B136
S315080045C048460AF033FC28B10CF024FA10B12878D2
S315080045D001F061FB3846FFF7C5FAFFF7BDFA044656
S315080045E00AF09CF830B140460AF020FC10B1687811
S315080045F001F051FB2046FFF7B5FA05F0F0F918B9B6
S3150800460040F26B1100F035F803F0CEF8BDE8F087FC
S3150800461038B507F0FAFB28B10CF0B1FA441EA441EC
S31508004620E40F00E0012409F0F2FA00280CBF042583
S3150800463000250AF073F848B145480AF0F7FB28B197
S3150800464044480AF0F3FB08B1002000E0022046497E
S31508004650097801B12021424A127802B11022434B4F
S315080046601B7803B140232C432043084310431843C7
S3150800467032BD0FF218100CF01DBB38B5044636488B
S315080046800068007B03280BD220460DF03BFA4FF654
S31508004690FF75A84204BF20460DF082FCA84204D14B
S315080046A02046BDE8324007F08CB832BD70B50446E6
S315080046B00D464FF6F870844201D3012070BD264E90
S315080046C03CB93068007D800703D428460DF0A9FF61
S315080046D0A8B9306841888C4205D10822011D2846B0
S315080046E00EF01EF90BE0007B03280AD220460EF0D6
S315080046F081F9FF2805D029460EF09FF908B1002058
S3150800470070BD2946204607F09DF8401E8041C00F1F
S3150800471070BD11480068008A70470F490968088209
S3150800472070470D480068408A70470B4909684882F7
S315080047307047094800680078704700009607040823
S3150800474096230020D42F0020F8DA0108782E0020BE
S31508004750D824002018240020DC2C00201022002059
S31508004760E024002098240020E4230020842F002041
S31508004770537461636B2F4861726477617265204D6B
S3150800478069736D617463680D0A0000007A6967626F
S3150800479065652D737461636B2E630000AC2400207D
S315080047A0D9FA00089C2E0020B57501082824002097
S315080047B0093D0108382F0020A90C01081025002002
S315080047C0DF9F0108E4230020E9890008F42300207C
S315080047D0A58A0008E024002041030108C42C002013
S315080047E071800008A8230020C55000085424002022
S315080047F0E95701087424002005530108902E00206B
S31508004800232401082C2F0020C7AB0108242F0020E1
S31508004810EF830108882E0020816D0108042E0020F0
S31508004820F52801088C240020F9000108842F0020AF
S3150800483091D50008CC2C00206B990008802E00200A
S315080048403FAD0108782E00207DD20108D42C002027
S31508004850779A000800000000000000004148006840
S31508004860408870473F480068001D70473D4800680B
S31508004870C07E704770B53B4D296848733A4C3B4E2D
S31508004880022817D100F074F868B92868007B042854
S315080048903CBF304601F038F92868007B03283CBF46
S315080048A0204601F031F928684069C00054BF9024B9
S315080048B0BC240AE000F05CF810B10EF0A3F903E09E
S315080048C03070207007F031FA9124204608F06DFE0A
S315080048D020B92046BDE8704005F0D1B870BD214822
S315080048E00068407B00F00F0070471E480068407B58
S315080048F000F00F00022801D1012070470020704700
S3150800490010B5002300E05B1CDBB28B4205D210F821
S31508004910014B9442F7D0002010BD012010BD80B590
S3150800492008210EF095FB08B1002002BDA52002BDA6
S315080049300C480068407B01281CBF3128332801D168
S31508004940012070470020704710B504460EF041FE5E
S3150800495010B904490968CC7310BD02480068807B09
S3150800496070470000DC2C00202C2F0020902E002001
S3150800497080B5FFF7DEFE032801D1012002BD002025
S3150800498002BD80B5FFF7F4FF38B140F22B110FF2E4
S315080049900C00BDE804400CF08DB901BD656D62657B
S315080049A0722D737461636B2D636F6D6D6F6E2E63FD
S315080049B00000000038B50EF021FF0EF023FF06F0C8
S315080049C0D7FC0EF031FF0022002100A802F091FF6B
S315080049D000B131BDFFF716FD0446012300220F2161
S315080049E00120FDF72DFD40F2A1750EF007FF25FA0F
S315080049F000F0C0070AD5DFF84C5328780CF052FAB5
S31508004A0028780CF0D8FA28780CF0D8FB24B10FF2E5
S31508004A10A830AB210CF04EF902F01CFFFFF748FA5C
S31508004A2001F030FDFFF751F801F04FFA022164203A
S31508004A300EF0FEFEFFF767FC0EF04EFFDFF80803E8
S31508004A404FF48B5101805221DFF800030180DFF813
S31508004A500003018001200EF00DFC0921152002F04B
S31508004A60A8FD0921162002F0A4FDB4A40FF25835BA
S31508004A7001E002F004FF02F087FDFFF743FD01F0B5
S31508004A804CFAFDF723FE0EF05FFF01210020FDF72B
S31508004A90ABFB0028EDD02A4621464FF6FF700FF0F3
S31508004AA007F8E6E7FFF735BEFFF719BF0AF04CBD72
S31508004AB038B502F026FA04460025284606F01FFEF9
S31508004AC0A04201D1284632BD6D1CEDB2642DF4DB3F
S31508004AD0FF2032BD7FB500F0A0F8FFF71AFE38B107
S31508004AE06088B0F5006F03D1601D02F004FF13E083
S31508004AF0204602F01DFF050014D1002600A9304605
S31508004B0002F0E2FF002804BF9DF80000002805D146
S31508004B102146304602F0E3FF054603E0761CF6B26E
S31508004B20102EEBDB02F0A9FE284604B070BD38B59E
S31508004B3000F073F8204602F0F9FE050003D120467E
S31508004B4003F013F8054602F098FE284632BD10B564
S31508004B50044604F03EFF7F4901EB0411097B8142BC
S31508004B6008D1204601F0C5FC20B12046BDE810401A
S31508004B7001F045BFFF2010BD70B504460D4601F093
S31508004B803CFF0646FF2E07D004F023FF714901EBD0
S31508004B9006110A7B824201D0002070BD4888288011
S31508004BA088886880887928710121204601F02BFFC2
S31508004BB068710021204601F026FFA871012070BD0A
S31508004BC02DE9F04105460E46904601F016FF0746C8
S31508004BD04FF6FF74FF2F13D004F0FBFE5D4901EB7F
S31508004BE00711097B81420BD10EB9012202E0012E81
S31508004BF006D100224146284601F029FF00B1048863
S31508004C002046BDE8F08110B500F007F82046FFF70A
S31508004C102CFBBDE8104002F030BE044602F022BE6E
S31508004C2038B50C464C490968455CAA4201D20020B1
S31508004C3032BD002100912B4601460022204609F08C
S31508004C4098FE284632BD70B598B004460D461646FD
S31508004C5002F008FE522203A93046FFF7E1FF0600DC
S31508004C6011D00DF1090002F045F902A802F044F945
S31508004C7003A801909DF908309DF809200096294659
S31508004C802046FFF74DFA02F0F8FD18B070BD2DE981
S31508004C90F04198B005461E9C0E4690461F4602F007
S31508004CA0E1FD522203A93846FFF7BAFF48B1029739
S31508004CB003A9019100902346424631462846FFF74C
S31508004CC070FA02F0DAFD18B0BDE8F0812DE9F0417E
S31508004CD004460D460698079F9046194609F02FFE8A
S31508004CE00646FF2E08BF182022D020463E7002280E
S31508004CF004D9C01E08D0401E0DD014E033464246E3
S31508004D0029460AF0FAF90CE033460C220C214046F3
S31508004D100AF045FA05E033460C22414628460AF0D1
S31508004D2035FA044600E00224304609F085FD20469F
S31508004D30BDE8F081082209490DF0F2BD25703E0054
S31508004D4004F02BBAA9210020002400200424002006
S31508004D5006240020C0260020CC210020802C00201C
S31508004D6010B582B0FFF759FF0DF1010002F0C2F845
S31508004D7000A802F0C1F89DF900209DF80110204610
S31508004D8000F002F902F079FD13BD38B504460D4668
S31508004D9002F068FD2946204600F0C1F808E038B55B
S31508004DA004460D4602F05EFD2946204600F03EF90F
S31508004DB0BDE8314002F061BD61662D6D61696E2DF9
S31508004DC0736F632E630000005A30334875625F467E
S31508004DD0616B655A3300000070B504460D4601261E
S31508004DE0022000F038F958B1B04840681022FF2177
S31508004DF00DF0D9FD2A462146002000F059F906464D
S31508004E00304670BD70B5A94D6968FF24002600209C
S31508004E10425CA4F119039A42BCBF02F11904E4B238
S31508004E20401C1028F4DB0020425CA242BCBF761C62
S31508004E30F6B2401C1028F7DB300003D1BDE87040FD
S31508004E40012025E10EF04CFE90FBF6F106FB110160
S31508004E50C9B200206A68825CA24206DA0A0002D158
S31508004E600B30687005E0491EC9B2401CC0B2102854
S31508004E70F0DBBDE8704010B500240EF031FE4FF6A9
S31508004E80FF728A49904203D04A6822F81400641CCB
S31508004E90102CF2DB032008704978BDE81040012089
S31508004EA0032200FA01F103E110B5804C20780128AD
S31508004EB007D07020FFF766FA702010BDE0780EF074
S31508004EC039FEE078A0B1401EE070C0B20EF01AFEBE
S31508004ED001884FF6FF729142F0D090F90F20817B3E
S31508004EE0FFF741FAE0780EF025FE0EF011FE14E009
S31508004EF06078401C607060781B280BDA0121A26874
S31508004F0081401142F5D0042020700322BDE81040EC
S31508004F100120CDE0AB2000F0BBF8002010BD10B595
S31508004F200C4600F090F828B160490878022818BFA6
S31508004F30002C01D0002010BD022806D022D3042858
S31508004F401CD005D3052819D01CE0FFF75BFF19E034
S31508004F5000224FF6FF73486830F81200984206D1CF
S31508004F60521CD2B2102AF6DBFFF785FF0AE0497811
S31508004F70FFF7ECF9002000F08BF803E00120087039
S31508004F80FFF792FF012010BD2DE9FC41474D04466D
S31508004F9028780E469046032802D004280FD042E00F
S31508004FA000206968238831F810209A4204BF4FF61A
S31508004FB0FF7221F81020401C1028F2DB33E0E0785D
S31508004FC088B3277B0EF09CFD87422CD1A87830B990
S31508004FD00822211D05F10C000DF0ECFC18BB00277A
S31508004FE009E038460EF08EFD0822211D001D0DF041
S31508004FF0E1FCC0B17F1CE878FFB28742F1D3401CC0
S31508005000C0B20EF097FD70B9E8780EF07BFD074642
S31508005010E878401CE8700E22214638460DF080FCE0
S31508005020BE7387F80F80BDE8F3410CE038B5044637
S315080050300D4600F008F828B11C484068201800F80A
S315080050400B5C012032BD19480078022801DB0120DB
S3150800505070470020704738B50446FFF7F4FF18B1CB
S315080050603D20FFF78FF90FE00EF052FD002000F00B
S315080050700FF80E4D0020E8702C700EF04DFD68609C
S3150800508020B9182000F004F8002032BD012032BDF6
S3150800509010B504460548002101700EF055FD24B1EF
S315080050A02046BDE81040FFF76DB910BD6028002006
S315080050B010B50EF059FD040018BFFFF7E9FF2046AA
S315080050C010BD000080B5DFF83C0300210171042003
S315080050D004F083FC04F08AFCDFF82C030068407BAC
S315080050E0042814BF532800F055F8BDE8014004F021
S315080050F07EBC80B5FFF745FC0020BDE8024045E0D0
S31508005100F8B5C14C23685D7B05F00F06002D18BF66
S31508005110212D07D01D7B012D01D1850602D4B94D5D
S315080051202F790FB17020F2BD2A70A981012E04D102
S315080051302120587300F02EF826E081064CBF532133
S315080051400421597321680A7B032A27BF4A8800F07D
S3150800515020004FF6FD7200F0A0000146104600F050
S3150800516016F92068407B042804BF012003F07EFF5F
S31508005170042004F031FC2068007B03282CBF0221A0
S315080051800821281D00F0D2FC0020F2BDFF224FF6B0
S31508005190FF71B5E780B50BF009F80BF0FDFC0AF0D6
S315080051A0B6FC9A4800780A281CBFBDE801400EF0F4
S315080051B056BD042004F010FC01210FF20D00BDE8D5
S315080051C0044006F0F9BD000010B5042004F005FC03
S315080051D004F00CFC8C4C2068417B532906D1032132
S315080051E041730021012003F06DF826E0042918BF59
S315080051F0212922D1012003F039FF4FF6FE70FFF76F
S315080052008CFA4FF6FF70FFF790FA002003F0A2FE23
S3150800521003F060FC06F06EFF08F0C4F92068407BD6
S31508005220212802D102F0B0FE07E00020FFF722FB9A
S3150800523000214FF400400DF0C3F904F0D8FBBDE897
S31508005240104004F092BB2DE9F84380460E46511CE7
S31508005250C9B2304609F083FC054630460EF09AFE80
S315080052600646B01C09F023FD814605F04004664F4A
S315080052703868017B032903D34088804503D023E09F
S315080052804069C00120D4200010D07078000708D5E6
S3150800529030460FF0BBF808225D490DF08BFB00285D
S315080052A002E0FFF736FA81453DD107E003290CD322
S315080052B04FF6F870814508DB280606D501224146D7
S315080052C005F0A000FFF71CFF6CBB3868007B0328BD
S315080052D029D27078C00626D530460FF0A4F80546C0
S315080052E0294600200CF03BFB0646FF2E04D000F0B2
S315080052F01CF830460CF0DDFC40460CF07EFEFF281C
S3150800530018BF0CF019FFFFF704FA60B904F069FB3F
S315080053104FF6FF7302222946404605F064FDBDE8B4
S31508005320F14304F064BBBDE8F1831CB50CF0F8FB4F
S31508005330044600A90CF052FC50B1FFF7EAF938B15F
S31508005340FFF794FA20B1022200A9204605F076F864
S3150800535013BD38B504460D460FF0D6F9FF2801D11E
S31508005360012032BD28490968C97E49B12949096819
S3150800537031F81010490403D50CF09BFC002032BD0F
S31508005380FFF7D3FF45F040012046BDE8344030B56D
S3150800539085B0044601F0400504208DF808008DF814
S315080053A0091045B103A920460CF018FC08B90120DC
S315080053B025E003A800E0002001900095022302AA38
S315080053C0012120460EF0F1FF0546FF2D08BF1820E3
S315080053D015D04FF6F870844206D300230022022126
S315080053E028460BF083FB03E02146284607F03EF8E3
S315080053F0441EA441E40F284609F01EFA204605B0CB
S3150800540030BD0000A4230020DC2C0020202400202E
S31508005410802C0020E821002038B504460EF0BAFD9D
S31508005420054620460EF0E0FF411CC9B2204609F0A9
S3150800543096FB697809070AD528460EF0E7FF014664
S3150800544000200CF08CFABDE832400CF032BC400665
S315080054505CBFBDE83140FFF735BE31BD2DE9F24FDF
S3150800546090B080461546994605A99DF8400000F07B
S315080054706AF907469DF81400DFF874150968405C58
S31508005480C21BDFF870150968CE88B1F802A0BAF514
S31508005490004F01D2B84204DADFF85C05002101703A
S315080054A08CE0B9F1000F18BF4FF4A076D4B2152CD2
S315080054B034BF2046152000210091431CDBB27A1E1A
S315080054C0D2B29DF8141006A809F053FA9DF818B040
S315080054D05B4632464AF400410CA800F0FBF9012D60
S315080054E014BF0120002001900DF1190000904B46D1
S315080054F042465146304600F065F808B101205EE0A4
S31508005500002D5BD1DFF8EC0400684088342841D1CF
S31508005510C8259DF8210041064CBF802100210006C0
S315080055204CBF2020002040EA0104002208210DF18A
S315080055301900FFF7E5F938B90822DFF8C0140DF1AC
S3150800554019000DF037FA90B9DFF8B4040068017B4A
S31508005550032903D34088804503D015E04069C0017C
S3150800556012D4032241462046FFF7CAFD0AE00DF190
S3150800557019000CF0C7FA4FF6FF71884204D021468D
S31508005580FFF7E7FE00B900252A469FA1404600F02E
S31508005590ACF913E0DFF86C04007878B1CDF810B0F8
S315080055A0039602940DF11900019000979DF81430A6
S315080055B04A469DF8401040460FF0C6F8002011B044
S315080055C0BDE8F08F2DE9F54F85B01D46119C0DF10C
S315080055D00C090026DFF824B4109FF9B9B94607F17B
S315080055E008080822594638460DF0E4F938B9FFF795
S315080055F090F88246ACBB95B386F001002CE038469D
S315080056000CF080FA82464FF6FF70824504D0504669
S315080056100CF0C2FA0028EDD10126E8E701291AD1D3
S315080056207878397801EB002A07F10208FFF771F854
S315080056301FFA8AFA824508BFD946DBD050460CF0D5
S31508005640ABFA28B103A950460CF0C8FA0028D1D104
S31508005650D9460126CEE7002007B0BDE8F08F012025
S31508005660FAE7002D18BF002EF9D198F8005098F8DF
S3150800567001700EB1812203E0022DB4BF0022802200
S31508005680029700200190CDF800A04B460FF2843116
S31508005690012009F0ACFA0446FF2CE0D0002E08BF22
S315080056A0012D0DD00C21204609F015FA22460021BD
S315080056B0BDF8180000F019F9204609F0BDF8CEE744
S315080056C0FFF727F8824536D14FF0000BDFF820A305
S315080056D0DFF83493DFF8345303E0781EC7B20BF1D2
S315080056E0010B28785FFA8BFB834522D2D9F8000094
S315080056F010F81B008007F2D53800EED158460CF09A
S315080057000FFA8DF8000000128DF80100022200A998
S31508005710204609F09EF90028CED1761CF6B2BDF8CF
S31508005720140009F0D7FEDAF80010615C891C88427B
S31508005730D5DA300001D10D21B5E732460C212046D5
S3150800574009F012FAB2E738B504460D4609F0ABF887
S31508005750FF2805D0204609F0A6F82870012004E0A5
S315080057602C7020460EF0C3FE401CC0B232BD30B5C8
S3150800577087B004460846154601A9FFF7E4FF024626
S315080057809DF804009A490968405C831ADBB20B2B22
S3150800579088BF0B23002000909DF8041004A809F088
S315080057A0E8F84FF40041681A012803D9213801287E
S315080057B01CD926E09DF8100018BB9DF81A009DF824
S315080057C0191001EB002508220DF1110102A80DF0B0
S315080057D0A7F8012202A9A8B20FF057FCADB2A5425C
S315080057E00FD0012102A806F0AFF80AE048F221001E
S315080057F085420CBF012000209DF8102021460FF09D
S315080058007AFE07B030BD000031000000F0B587B061
S3150800581000F05AF80022382103A800F05BF80020AF
S315080058208DF81000BDF8120040F04000ADF81200E7
S31508005830FF2E04D10FF025FF0FF2E0110BE0FE2E2C
S3150800584018BF384605D10FF01CFF401CC0B20FF038
S3150800585020FF0FF2D0110297C0B2019000962B0CD0
S31508005860AAB2204600F041F807B0F0BD1FB50023E4
S315080058704FF48062132101A800F02CF803F0B6FC5F
S315080058800446FEF746FF024600945C4B54A14FF6C9
S31508005890FD7000F02AF81FBDF0B585B000F014F8C9
S315080058A04FF48062002101A800F014F88DF8087002
S315080058B02B0018BF0123009622464AA14FF6FD7019
S315080058C000F013F805B0F0BD04460D4616461F460F
S315080058D00023704710B50024047144714180048088
S315080058E0C28003814A49486010BD0CB42DE9FC47C3
S315080058F080460D000AAA08BF166803D0012009F0E1
S315080059005CF90646FFF73DF8F6B2FF2E08BF1820E9
S3150800591062D04FF6F879C8458041C043C00F3C4C69
S3150800592061680A7922B900280CBF0627072705E00F
S3150800593000220A71002814BF042700274888B0F5FA
S31508005940004F05D22078401C207040F0800A01E004
S31508005950B1F808A05FFA8AF20021304609F004F986
S31508005960002001900096FF2362684146384609F0F8
S315080059706DFA074615B1304608F05EFF742F2AD136
S31508005980C84528D260684088B0F5004F23D3FEF793
S31508005990C0FE6168498848F2040291420CBF12A110
S315080059A012A10022009203468A22012009F01FF95B
S315080059B00546FF2D0FD05FFA8AF2002109F0D4F8C8
S315080059C0002001900095FF236268414609F03EFADF
S315080059D0284608F031FF3846BDE8F6075DF80CFBA7
S315080059E0323831003831310031323100313200007D
S315080059F0CC210020942C0020D72F0020802C0020BA
S31508005A00DC2C002096230020E8210020E421002039
S31508005A10882C0020313832313100000032323131E1
S31508005A2032000000323231310000000003480178AC
S31508005A30491C017001F07F0070470000D02F00203C
S31508005A402DE9F04387B0884606461146109F129CFA
S31508005A50139D994600F040F80E988DF80E008DF8C3
S31508005A600D900004000E8DF80F000F988DF81000A9
S31508005A70012814D003281BD1082239460DF111003C
S31508005A800CF04EFF8DF819401620009001ABAAB213
S31508005A904146304603F0CEFC07B0BDE8F0831198C6
S31508005AA08DF811000004000E8DF812000F20ECE7A7
S31508005AB00120F1E77FB5044615461E4600F00CF8AE
S31508005AC00A2000908DF80D5001AB3246342120464D
S31508005AD003F0B0FC04B070BD08220DF105000CF00F
S31508005AE01FBF000038B544784568FEF735F80C2125
S31508005AF061438B4A8B585B1BB3F1004F98BF8D509F
S31508005B00BDE83240FEF72EB810B504460FF043FF45
S31508005B106060042020702046BDE81040E2E738B5F2
S31508005B2000F011F828186060012007E038B500F089
S31508005B300AF805EB1020000260600220207020465B
S31508005B40BDE83240CEE704460D460FF024BF38B50F
S31508005B50FFF7F9FF05EB1040000460600320EDE74E
S31508005B6010B50446207860B1042806D00FF013FF5C
S31508005B706168421AB2F1004F01D8002010BD081A18
S31508005B8010BD4FF0FF3010BD70B504460FF003FF8F
S31508005B900546FDF7E1FF06466FF00041606800F034
S31508005BA02CF8401920603046BDE87040FDF7DABF92
S31508005BB070B504460D4616460FF0EDFE002156B1A7
S31508005BC0FF22327007E0121AAA4202D2154606B11F
S31508005BD03170491C083422680AB9284670BD137802
S31508005BE0002BF6D0042B04D05268831AB3F1004F69
S31508005BF0E9D806B13170002070BD0022D8E738B563
S31508005C0004460FF0C8FE05460BE0017841B10429A9
S31508005C1004D04168691AB1F1004F01D86168884714
S31508005C20083420680028F0D131BD10B50C213C4A53
S31508005C3001FB00240FF0AFFE2168401AB0F1004FB7
S31508005C4006D86068FFF7DBFF2046BDE810409BE7F3
S31508005C5010BD70B50446334D6878334909788842D3
S31508005C6005D34FF484710FF2C4000BF023F86E7855
S31508005C70701C68700C202A4900FB0610446001213C
S31508005C80017200E04E7054F8081B0029FAD1FFF79C
S31508005C907BFF304670BDF8B505464FF0FF300090E3
S31508005CA0204C207840B30FF0EBFE28B940F23911AA
S31508005CB00FF278000AF0FEFF0FF06DFE0C21184A6D
S31508005CC001FB052300251D72002305E0009EB54251
S31508005CD088BF354600955B1C6578DBB2AB420FD2B0
S31508005CE001FB03263568471BB7F1004F04D92D1A67
S31508005CF0367A0EB9002DE9D10DF096FD0020F2BDD9
S31508005D0000A80FF067FE0120F2BD0C21044A01FB32
S31508005D10002001210172704702490870704700008F
S31508005D2030280020D12F0020A8D701086576656E97
S31508005D30742D636F6E74726F6C2E630010B53248E3
S31508005D40324C00210170FEF7ADFE20805222002160
S31508005D502F480CF028FE002060800C22201DBDE88C
S31508005D60104000210CF01FBE28494A88522A00DB41
S31508005D70704710B5264C1055501C488010BD10B5FC
S31508005D800446C0B2FFF7F0FF200A0DE010B504463E
S31508005D90C0B2FFF7E9FF2004000EFFF7E5FF200277
S31508005DA0000EFFF7E1FF200EBDE81040DCE738B52E
S31508005DB0164D6B880C46E118522908DA0146144834
S31508005DC0224618180CF0ACFD68882018688031BD8A
S31508005DD030B51D4600245B189A4208DA002030BD0B
S31508005DE06A1812186D1E12F8012C02EB0424EDB283
S31508005DF0002DF5D1204630BD0423E9E780B50223FE
S31508005E00FFF7E6FF80B202BD762300202C2900208A
S31508005E103C2900200078FF2808BF0020704780B57D
S31508005E2002220021FFF7EAFF4FF6FF71884208BFFA
S31508005E30002002BD80B501F07FFD0FF029FE0FF0AE
S31508005E409FFDDFF8B0150A88821A92B2C92AA8BF40
S31508005E50088001BD80B500F0D0FDFF2804D018B930
S31508005E60DFF89405007802BD002002BD10B5016870
S31508005E70DFF888250B8813804B8853804979117180
S31508005E800168097951714FF48251D1800168897985
S31508005E90890644BF4FF48351D180DFF8644582698F
S31508005EA0A1783AB9C088DFF85C25108001F0FD00BA
S31508005EB0A07010BD41F00201A17016228169201D53
S31508005EC00CF02EFD0020207110BD80B5002001F0D9
S31508005ED0C6FCFF2000F0E0FD01F0CFFC00F005FB5A
S31508005EE002460121DFF810050CF05DFDDFF80C35E0
S31508005EF0DFF81425DFF8140552210FF081FE0DF0A6
S31508005F0018FD0FF0AFFE03F0F8FE0FF0ADFE04F03B
S31508005F108BFEBDE8014000F0BDBB70B500240FF252
S31508005F200C5501E0B047641CE4B255F82460300013
S31508005F3003D001F0BBFC0128F4D170BD80B501F097
S31508005F40A5FF20B9FEF7CBFC08B901F0BAFC01F0B1
S31508005F50EAFCBDE8014001F0F2BC10B50446206831
S31508005F60407900F04AFDFF281DD0DFF8A414227FEF
S31508005F7001EB0010017B914215D1226840881188F7
S31508005F80884206D04FF6FF7399420CD1B0F5004F00
S31508005F9009DA2079022818BF032806D11189507911
S31508005FA001F09FFC08B9002010BDA07B0028204600
S31508005FB01CBFBDE810400FF001BFBDE810400FF050
S31508005FC029BFF0B589B00F4614460E99DFF830643C
S31508005FD000251A46032B73DB94F800C05FEA4C7C55
S31508005FE001D5052B6CDB01908DF80870ADF80A1009
S31508005FF00394ADF81020207800F001008DF8120007
S31508006000207800F004008DF813002078C00800F00E
S3150800601001008DF8190001208DF818009DF813006D
S3150800602058B101212046FFF7E9FEADF814009DF8A6
S315080060301800801C8DF8180001E0ADF814009DF8D2
S315080060401800015D8DF81610401C8DF81800C0B2B6
S31508006050015D0F9C8DF81710401C8DF818000794E9
S3150800606003F0B5FC8DF8200001A8F0619DF8160034
S31508006070307001A8FFF7FAFE01A801F04CFCF0B950
S31508006080FCB9042F18BF052F03D0022F18BF032F02
S3150800609001D1012200E000220198408800900121E8
S315080060A0019803889DF8170000F0D8F860B10198A8
S315080060B08079800608D4012101A800F0CDF80125D1
S315080060C029E0207D800726D501984079FF281ED132
S315080060D00024DFF8287300F008FAE4B284421AD2E2
S315080060E0204600F006FA80B101A8FFF7BFFE204659
S315080060F000F085FC01994871204600F080FC387153
S3150800610001A8FFF72AFF00B10125641CE3E701A8EF
S31508006110FFF723FF0546FFF711FE16220021301D63
S315080061200CF041FC0020F06109B02846F0BDDFF80C
S31508006130E4020178491C017001F07F0070477CB5C4
S31508006140DFF8BC42A378D90701D5002076BD62786E
S31508006150DFF8A812012A03D1CA8842F0400205E0F6
S31508006160022A04D1CA884FF6BF752A40CA80DFF8CA
S315080061709C222578167876074CBFD5705570DFF8BF
S3150800618088522D889B0708D52946201D01F0AFFBAC
S31508006190A17801F0FD01A17076BDDFF868321C8890
S315080061A04FF6FC739C4208DA009201900A462B4689
S315080061B021460020FDF72FFF76BD009013462A469C
S315080061C02046FDF70FFF76BD0020B8E70A460146D0
S315080061D0DFF82C02C06901E00021F7E770B5044634
S315080061E00D4620791646002818BF01280AD1A0684E
S315080061F00078C00600D52DB1A07B002804BFE07C3E
S315080062000B2801D1002070BDDFF8FC0100210180B8
S31508006210607D00280CBF08200020E17B11B9FFF73C
S31508006220A3FD06E040F00400FFF79EFD208AFFF775
S31508006230A6FDA07CFFF798FD0B20FFF795FDE07CF7
S31508006240FFF792FD2846FFF78FFD2046FFF70EFE63
S315080062503046BDE8704072E70022BFE738B51D46F4
S31508006260049C03460A46A1B2284601F02DFB00B15C
S31508006270012032BD38B5D28852244FF6FD739506F3
S3150800628048BF4924550544BF083CE4B2150544BF38
S31508006290083CE4B2120444BFA41EE4B238B1022892
S315080062A00BD006D3032804BF641EE4B209E00B46EC
S315080062B007E0C8B205F023FA02E0C8B201F0FFFB16
S315080062C00346184603F044FD201AC0B232BD70B525
S315080062D004460D00164602D10020207070BD2846DF
S315080062E0FFF798FD864288BF06463246691C601C41
S315080062F00CF016FB267070BD70B504460D001646E8
S3150800630003D100206070207070BD2846FFF787FD16
S31508006310864288BF06463246A91CA01C0CF000FB24
S315080063202670300A607070BD2DE97841541E002B26
S3150800633038D0052A48DA002500262B460EE0A2EBBF
S3150800634003084FEAC8080CFA08FC4CEA06061EF8C9
S3150800635001C00CFA08FC4CEA05055B1CDBB293424B
S3150800636008D2A4EB030E00280CBF4FF0000C1EF851
S3150800637000C0E4E7042A0FDAD0000121D200401E4B
S315080063809140494246FA00F2D20748BF0E4345FA01
S3150800639000F0C00748BF0D43B5420EDBAE4213DA24
S315080063A00FE05B1CDBB293420ED2E51A00280CBF45
S315080063B000262E5C6D5CB54201DA012005E0AE428E
S315080063C0EFDA4FF0FF3000E00020BDE872810021CF
S315080063D00FF2440201E0891CC9B28B5C8342FAD3EE
S315080063E0881840787047283808288041C00F7047B9
S315080063F001F0A4BA7E2C0020CF2F002030290020DF
S31508006400742300202C2900202E2900203C29002056
S31508006410C02600209423002007021F012F00370101
S315080064203F005701DF02E700FF020000ED3A0008CF
S31508006430355E00080000000000210FF21C028B5C8C
S31508006440834202D1881840787047891CC9B22C2922
S31508006450F5D300207047000019021B041D06180119
S315080064601001080131023001F008290221022A032D
S3150800647022032B0423042506260728012001F110F0
S31508006480E004E2040FF2F8700FF6D012007882B03A
S3150800649001218DF803000FF2EC700088ADF80600B4
S315080064A00FF2E4700088ADF8040000208DF80200B1
S315080064B0ADF80000DFF8F40601749DF803100170CA
S315080064C0BDF806104180BDF8041081809DF80210C1
S315080064D081719DF8011002EBC10181609DF80010E1
S315080064E0017302B0012141737047DFF8C006007CD2
S315080064F07047DFF8B81601EB0010407B00F001008A
S315080065007047412818BF422803D0432818BF44289B
S3150800651001D10120704700207047412818BF422842
S3150800652001D10120704700207047432818BF44282E
S3150800653001D10120704700207047F8B51546069A24
S3150800654004461E4600F0FFF960B1042100F035FB51
S31508006550070007D0204601F087F93246294620462B
S31508006560B84793E0F1BD2DE9FC470B9C8046894668
S3150800657017001D461CBF0A9E002E1DD0E5B13078B7
S3150800658000074CBF402280227988387900F0DBF971
S3150800659090B1082100F011FB824668B1387901F004
S315080065A063F9019400962B463A4649464046D04739
S315080065B0BDE8F34701F061B9BDE8F387F8B51646BB
S315080065C005461A4600F0BFF9D8B1069CA4B25CB9D4
S315080065D0022100F0F2FA040013D0284601F044F92B
S315080065E031462846A0470BE0102100F0E6FA0700DE
S315080065F007D0284601F038F9224631462846B847DA
S3150800660044E0F1BD2DE9F04782B090460A9E0B9C06
S315080066100C9D0D9F81461A4600F095F908B986200B
S3150800662015E04FF0000AB6B286B9202100F0C5FA87
S3150800663006000BD0484601F017F900972B4622466C
S3150800664041464846B047824601F017F95046BDE82C
S31508006650F687F8B50446A568207801F005F90026FE
S3150800666010E02968142000FB06172078398801F005
S315080066702AF90121384600F0A0FA01001CBF20784B
S315080066808847761C2879F6B28642EAD3BDE8F140F7
S3150800669001F0F3B838B50024DFF8105508E02046B5
S315080066A0FFF727FF18B105EB0410FFF7D2FF641CAC
S315080066B0287CE4B28442F2D331BD10B5002301E050
S315080066C05B1C001D9BB28B4204D204889442F7D10E
S315080066D0408810BD002010BD0288B2F57C4FA8BFC7
S315080066E000F00BB80FF24C60081A0C2190FBF1F27F
S315080066F092B200210FF27070DFE70FF25C61401A68
S31508006700142190FBF1F292B200210FF25870D4E7EF
S3150800671010B50C460188628891420DD1027B237917
S315080067201A4209D0B1F57C4F04DBFFF7E6FF218951
S31508006730884201D1012010BD002010BD10B51446B5
S315080067400A88E3889A420AD10288B2F57C4F04DAAD
S31508006750FFF7C2FF2189884201D1012010BD002020
S3150800676010BD2DE9FE4F002582B00446AA46DFF883
S315080067703CB404E0C0884519ADB20AF1010A9BF899
S3150800678010005FFA8AFA824580F0B1804FEA0A1152
S3150800679001EB0B0011F80B10227880689142E9D1C1
S315080067A000905046FFF7A5FE0028E6D0002704E033
S315080067B0B8F80A004519ADB27F1C00980079FFB2F7
S315080067C08742DAD200990968142000FB0718214687
S315080067D04046FFF79DFF0028EAD04FF0000908E081
S315080067E030793021084202D1F0784519ADB209F165
S315080067F00109B8F808001FFA89F98145DCD2D8F8EA
S3150800680004100C2000FB0916224631464046FFF7C5
S3150800681095FF0028E4D0029800B106603079810619
S3150800682011D50FF21051002206E00B799B0602D50E
S31508006830CB789A1892B20C31B142F6D302EB0B011F
S3150800684001F1140A03E005EB0B0101F2120A0E9D91
S315080068501DB1039FDFF8589306E00399002944D039
S3150800686057468A46DFF84C93C0060BD53146404654
S31508006870FFF732FF03460398009032466188207876
S31508006880C84735E0BDF8100096F8028000280CBF0E
S31508006890F47804464046FFF740FE30B1621ED2B295
S315080068A039465046FFF713FD1FE04046FFF73DFE09
S315080068B030B1A21E92B239465046FFF71DFD14E0CC
S315080068C03DB9BDF8100020B1F178884238BF89205B
S315080068D00ED3002F224604D1002150460CF063F84F
S315080068E003E0394650460CF01BF8002000E08620ED
S315080068F005B0BDE8F08F58B50346002403E0067BD3
S31508006900360615D4641C1879E4B284420FD21E6880
S31508006910142000FB046006888E42F3D142B1802A17
S31508006920EDD0402AEED1067B7606EBD552BD002087
S3150800693052BD80B5402200F006F800B1012002BD24
S3150800694080B58022F7E738B50C46154600F055F8AD
S31508006950FF2801D1002032BD944B2A46214603EB7D
S315080069600010BDE838408068C5E74022FFE72DE9FA
S31508006970F8430446884691460025FFF7E4FF08B920
S31508006980FF2016E00026894F02E04019C5B2761CA2
S31508006990387CF6B286420BD23001C05DA04207D0E1
S315080069A04A464146FFF7CFFF0028EED00120ECE724
S315080069B02846BDE8F28330B500227C4B00E0521C25
S315080069C01C7CD2B2A2420AD21401E55C8542F6D1F9
S315080069D019B1E418647BE407F1D5104630BDFF20F1
S315080069E030BD80B50021FFF7E6FFFF281CBFBDE8D4
S315080069F00240FFF77EBD002002BD0121DBE7000152
S31508006A006A49405C704738B50C46FFF7F6FF014601
S31508006A100020FF291FBF654A02EB0111896800297A
S31508006A2014D0002203E01B0648BF2846521C0B79E7
S31508006A30D2B29A4209D20D68142303FB0253451CAD
S31508006A401B7B002CEFD05B06EEE7C0B232BD70B5FB
S31508006A500C461546FFF7D1FF0021FF281AD0534AE6
S31508006A6002EB0012002301E0491C5B1C90680679C2
S31508006A70DBB2B3420ED20068142606FB0300067B7F
S31508006A8015B1760602D4F0E73606EED5C9B2A142AC
S31508006A90EAD170BD002070BD0021FFE72DE9F14F56
S31508006AA086B08A4602F093FF059000259DF81800E7
S31508006AB0019000E06D1C3D48007CEDB2854270D225
S31508006AC00198FF2806D09DF81800FFF796FF05469F
S31508006AD0FF2D66D0354800EB05160198FF2803D12F
S31508006AE0307B05998842E5D1002700E07F1CB06815
S31508006AF00179FFB28F4251D20068142101FB0708C1
S31508006B004FF0000913E00120009000235A460021A7
S31508006B1002A8FFF726FEBAF1000F06D0BDF80A2034
S31508006B2031782346584600F047F809F10109B8F8C4
S31508006B3008001FFA89F98145D8D2D8F804100C2024
S31508006B4000FB09142079C006EFD430788DF80800C8
S31508006B50B8F80000ADF80A00207940064CBF80203E
S31508006B6040208DF80C0021462088ADF80E004046DE
S31508006B70FFF7B2FDADF810002179E078490706D590
S31508006B80D4F808B00328BEDBDBF800B0BBE703285F
S31508006B90B4BF04F1080BD4F808B0B4E70198FF288D
S31508006BA088D007B0BDE8F08F00000000C02600209E
S31508006BB0EB780008E7780008704718B5047B0122CF
S31508006BC000230C4205D1002012BD144218BF5B1CDD
S31508006BD05200D2B28A42F8D30069DBB250F82300D9
S31508006BE012BD2DE9FC470A46002701210028507DE1
S31508006BF007D010B94FF0020C09E0012805D18C46E0
S31508006C0005E010B94FF0080C01E04FF0040C0A98A3
S31508006C100B9CDDF83090DDF834A00FF27008BE4604
S31508006C2080B238F82E60BDF80050AE421CD108EB91
S31508006C308E05EE7816EA0C0F16D0AE784E4513D3AD
S31508006C40EE78F606D67B01D50EB90DE066B9BA45DB
S31508006C5001D0874201DB00210DE0AE78FE547F1C8F
S31508006C602688761C2680BFB20EF101061FFA86FE1C
S31508006C70BEF12A0FD5DB0846BDE8F68700000000FE
S31508006C8001000000040100000700000003000009DD
S31508006C9003000002030001090400000104000101C9
S31508006CA004000201040003010400040104000501B4
S31508006CB005000001050001010500020105000301A8
S31508006CC0050004010500050105000601060000018E
S31508006CD00600010106000201080000010800010182
S31508006CE00800020108000301080004010800050164
S31508006CF0080006010800070119000002190002022F
S31508006D001900050219000702190009020003070104
S31508006D10000308010003090100050001000500043D
S31508006D200005010402070004020701040207020421
S31508006D3002070304000020012000000001000000F3
S31508006D4007003001200000000000000000002102BA
S31508006D50010000000000000000000000346D00087B
S31508006D6002000000400000000000000001000000D2
S31508006D704C6D0008000000008000000000000000C4
S31508006D80030000004C6D00080000000080000000B1
S31508006D9000000000030000004C6D0008010002001E
S31508006DA043000000A4D2010804000000586D000842
S31508006DB00000000080000000000000000500000040
S31508006DC0586D000800000000800000000000000068
S31508006DD006000000586D0008000000008000000052
S31508006DE00000000008000000586D000800000000C0
S31508006DF0800000000000000019000000586D00081F
S31508006E000000000041000000ACD2010800030000A9
S31508006E10586D000800000000800000000000000017
S31508006E2000050000586D0008000000008100000001
S31508006E30B0D2010802070000586D000800000000E3
S31508006E408000000000000000050B0000586D0008D7
S31508006E50000000008000000000000000586D0008D7
S31508006E600D0002000000000000000000FEB5064606
S31508006E700D461746274CA16829B1082201A80BF030
S31508006E804FFD01A8A06037B9FDF743FC6188814230
S31508006E9018BF012700D1002730460DF028FB00ABAC
S31508006EA03A46014630460DF06FF910BB01202070B6
S31508006EB002F097FD9DF8002061682846FDF7C3FE9D
S31508006EC002F095FD9DF80000FF2818BF07F0B4FCF6
S31508006ED06DB96068C18848F240021140402906D160
S31508006EE02178490703D4FF21408808F008FB0020D1
S31508006EF02070F7BD084900E00849097801700020AC
S31508006F0070470448017811B94FF6FF7070474088FA
S31508006F1070470000902C0020D82F0020D92F002081
S31508006F2000F10103810704D010F8011B89B181071C
S31508006F30FAD10268B2F10131914311F0803F04BFE2
S31508006F4050F8042FF6E710F8011B11B110F8011BD1
S31508006F50FBE7C01A7047000000220FF089B900004D
S31508006F6010B592B0A24CFCF791FB40B920744FF6CD
S31508006F70FF70208060804FF0FF30606002E000F014
S31508006F807EF908B9012008E0002100A800F059F8A8
S31508006F90401E8041C00F2074002012B010BD70B58D
S31508006FA0934D0446288889B292B01E46814202BF94
S31508006FB0688892B2824212D1A6B1002100A800F0D8
S31508006FC040F860B99DF8040040070BD53088BDF835
S31508006FD04210884224BFBDF84410814202D220469E
S31508006FE0844901E02046294610220FF081F912B0A3
S31508006FF070BD38B504467E4D0846297C09B901207E
S3150800700032BD002100F01DF828B910222146284675
S315080070100BF0D0FC00B10120C0B232BD10B5744CE3
S31508007020217C39B10146102220460BF0C3FC08B971
S31508007030606910BD002010BD102200216C480BF0BD
S31508007040B2BC2DE9F04192B00446002500AA4621BB
S31508007050002000F09EF9002800F0898048220021CF
S3150800706020460BF0A0FC04220FF2B01100A80BF08A
S31508007070AFFC00287BD101A800F0BEF82080B0F54F
S31508007080807F74D10DF1060000F0B6F8608002A882
S3150800709000F0B2F8A0800DF10A0000F0ADF8E0802B
S315080070A003A800F0A9F820810DF10E0000F0AAF857
S315080070B0E0600DF1120000F09FF8208221220021E5
S315080070C004F112000BF06FFC202205A904F112004E
S315080070D00BF026FC0DA800F095F8454E606370612C
S315080070E0FFF7AAFFE088308020897080E06870602A
S315080070F0A088002842D00027A088C10706D51FB15E
S3150800710000A9695C84F838106D1CEDB2800711D5AA
S3150800711077B100A805EB00080822414604F13900BA
S315080071200BF0FEFB0822414606F108000BF0F8FBBF
S315080071300835EDB22079400710D56FB100A805EBE8
S315080071400008404600F058F8A4F8420008F102008A
S3150800715000F052F8A4F844002D1DEDB257B9472D9A
S3150800716005DA00AA2946382000F013F908B90120E3
S3150800717005E038257F1CFFB2022FBDDB002012B0C8
S31508007180BDE8F0812DE9F0410C461546069F184EDC
S315080071909846102231460BF00DFC50B97069001B59
S315080071A0A84238BF054642462946204600F0F1F86F
S315080071B008B9012001E03D600020BDE8F08138B53E
S315080071C00B4D287C10B10FF0BEF904460020287438
S315080071D0FFF732FFE0B232BD10B50FF0B4F904463E
S315080071E0034800210174FFF727FF204610BD000061
S315080071F0BC29002094D201080178407801EB0020D0
S3150800720080B2704738B50446FFF7F6FF0546A01C5E
S31508007210FFF7F2FF05EB004032BD00001EF1EE0B52
S3150800722080B5042200A90FF06FFA9DF800009DF8BA
S31508007230011000EB01209DF8021000EB01409DF8BB
S31508007240031000EB016002BD38B505460C46204622
S31508007250FFF7E6FFA8420FD0280A8DF801008DF83F
S315080072600050280C8DF802000422280E8DF8030021
S3150800727000A920460FF0DAF931BD5B48D0E780B5A2
S315080072800FF0C6F950B10FF0C3F9C068B0F5483F22
S3150800729004D28B210FF2581009F00CFD0FF0B7F845
S315080072A0012002BDF8B504460D4620684F490F185F
S315080072B000264D48FFF7B4FF2168814207D22A68A5
S315080072C05218904204D2401A0126286000E00F1A8C
S315080072D027603046F2BD2DE9F04383B00446884660
S315080072E01E4601270096019200A901A8FFF7DAFFBA
S315080072F000B10227B6F5803F17D2DDF828900025A1
S3150800730002E0301A00906D1CEDB2BD4218D2009A08
S31508007310002C92B204D0019849460FF0F5F903E023
S31508007320019841460FF082F908B1002009E0022FC2
S31508007330E9DB0190002C009814BF81448044E0E703
S315080073400120BDE8FE8310B586B00FF2BC011CC94A
S3150800735003A800F018F80FF0D7F90A2200A903A825
S315080073600BF028FB002814BF0020012006B010BD32
S3150800737010B584B00FF29C011CC900A800F003F8F0
S315080073800FF054F91FBD00A91CC00A224FF447305C
S31508007390704780B500920B46024600210120FFF790
S315080073A09AFF02BD70B582B004460D0016460CD190
S315080073B0082E01D2002076BDA079E2790A4900EBB1
S315080073C00220801D80B2FFF73FFF00200090334661
S315080073D02A462146FFF77FFF20B1002170190FF0DA
S315080073E081F8012076BD00000A1C03000E1E03006A
S315080073F06F74612D73746F726167652D6565707240
S315080074006F6D2E63000000000109050100020000EF
S315080074100002000001090501000200000002000048
S31508007420F0B5064697B00F461546728831889824F7
S315080074303B4600A8FFF7B3FD284600A910220EF028
S3150800744057FF28460FF0A4F918B387B104A92846B0
S31508007450FFF7CFFD9DF81400400708D53888BDF81A
S315080074605210884224BFBDF85410814211D32E4AC7
S315080074707068696812784AB1022A01D003D308E015
S31508007480814206D104E0814203D201E0884200D25B
S315080074900024204617B0F0BD10B584B0044600207D
S315080074A0ADF8060002F0A8FC28B1BDF8060040F0C9
S315080074B02000ADF8060000AA21460020FEF7DAFEF5
S315080074C01138C0B204B010BD817C01F00301032954
S315080074D007D11649C28909888A4202D0C1819720F4
S315080074E070470020704738B5144641B9104D2978C1
S315080074F011B91946FCF7E6F82878032801D10020C7
S3150800750032BD0FF2340151F820002060012032BD4F
S315080075100428BCBF044908707047064800787047BD
S315080075200249088070470000C72F0020D626002091
S31508007530C82F0020FC220020000000007800000070
S31508007540FFFFFFFF0000000036480068C00702D4AE
