S00E00003730375F5A45442E73333706
S31508000000B01F002021CF010859AE01085BAE0108D8
S31508000010A70B0000000000000000FFFF54000008C6
S3150800002004030300000000000000000000000000B8
S3150800003000000000000000000000000000000000B2
S315080000400000000000000000000000007A01000027
S3150800005000000000B01F002021CF010859AE01089A
S315080000605BAE0108A70A080100010008040303ACF7
S3150800007000537A01000000000000000000000000A4
S315080000800000000000000000000000000000000062
S31508000090000000000000000000000000FFFFFFFF56
S315080000A0FFFFFFFFFFFFFFFF00E002080000000060
S315080000B000000000FFFFFFFFFFFFFFFFFFFFFFFF3E
S315080000C0FFFFFFFFFFFFFFFFFFFFFFFFFFFFFFFF32
S315080000D0FFFFFFFFF02F002000000000F02F002098
S315080000E0F02F0020B01F0020A8290208F4D101082B
S315080000F050160020440D00200000030800300020A0
S31508000100B01F002021CF010859AE01085BAE0108D7
S315080001105FAE01085DAE010861AE010820B00108B6
S3150800012020B0010820B0010820B0010820B001085D
S3150800013063AE010820B0010805D10108E7460108A9
S31508000140DD0F000820B00108594D010820B001084C
S31508000150E78A00089572010820B0010820B0010856
S31508000160753F0108CDE4000863530008A56F010830
S3150800017020B0010873030008BB030008B79B0008FA
S3150800018035ED000820B0010820B0010821B00108AB
S3150800019038B5374C374D002020700E2000F0CCF8CB
S315080001A001281ED100F07DF9022809D1287804F12A
S315080001B0080201B0BDE830400123002100F08DBAE5
S315080001C0C8B900F0E3FC10B900F0CFFD10B90FF282
S315080001D0FC0001E00FF2EC00BDE83440012100F01C
S315080001E0BFBE162000F0A8F8012804D12878BDE87B
S315080001F0324000F03FBB31BD80B5902803D10121C4
S315080002000FF2B80004E0912804D101210FF2B400DE
S3150800021000F0A6FE002002BD00B585B000208DF8CE
S315080002200000144800788DF801000620ADF8020099
S315080002300020ADF8040040208DF806000020ADF837
S3150800024008000220ADF80C000820ADF80E000020CA
S315080002500490684601F04CFA05B000BD0E2818BF98
S31508000260162804D1012904BF014801F04BBB704789
S31508000270B01F002034280020002101B1704700B5C6
S3150800028083B00121009101AB0022062101F0B4FCE4
S3150800029048B99DF8040018B1072002F04DF807BDCB
S315080002A0072002F05AF807BD7047704770470020CC
S315080002B07047704701207047002070471F010001F2
S315080002C00F0100000F0100011F0500001F010000BB
S315080002D02DE9F0414B4C4C4EDFF83081002020656B
S315080002E04FF40055356002202060E5600020206547
S315080002F04FF48047206D40F0600020650E2000F026
S3150800030027F888F800000020606537600420206020
S31508000310E76016203E49086000206065606D40F081
S3150800032060006065162000F013F888F80100394867
S3150800033005600760BDE8F0810E28344902D016280A
S3150800034002D003E008787047487870470020704765
S315080003500E2802D0162802D009E02F4800E02F48C0
S315080003600068800900F0010080F001007047002055
S31508000370704710B52348254C4FF40051C16002213F
S3150800038001600E20FFF7E4FF227801468A4218BF73
S3150800039021700DD1501E8041C00F20700E2021788B
S315080003A002F0D8FB2178481E8041C00F20702178C2
S315080003B0BDE810400E2002F0CDBB10B51148134C15
S315080003C04FF48041C160042101601620FFF7C0FF89
S315080003D0627801468A4218BF61700DD1501E80416D
S315080003E0C00F60701620617802F0B4FB6178481E71
S315080003F08041C00F60706178BDE81040162002F099
S31508000400A9BB000014A8004080E100E0BA2F002034
S3150800041014BC004000E100E008B4004008B8004001
S315080004205D480068408870475B480068001D704753
S3150800043059480068C07E704770B5574D296848739B
S31508000440564C574E022817D100F0ACF868B9286800
S31508000450007B04283CBF304601F054FA2868007B2C
S3150800046003283CBF204601F04DFA28684069C000C1
S3150800047054BF9024BC240AE000F094F810B102F0AE
S3150800048085FC03E03070207002F0DDFC91242046E4
S3150800049002F0A9FE20B92046BDE8704002F09FBFD1
S315080004A070BD3D480068407B00F00F0070473A4831
S315080004B00068407B00F00F00022801D10120704738
S315080004C00020704738B5044600F06CF820B1204685
S315080004D0BDE8324002F04EBC2F4DFFF7E8FF28B9C1
S315080004E02868407B032801D0932032BD03F019F910
S315080004F020812868C07BA0722868807BE07220462D
S3150800050004F07DFB0020207304F1140104F11000AF
S3150800051004F023FCE081002032BD10B5002300E082
S315080005205B1CDBB28B4205D210F8014B9442F7D024
S31508000530002010BD012010BD80B5082104F0AEFFD3
S3150800054008B1002002BDA52002BD30B5531E002407
S3150800055004E0DBB25D5C25545B1E641CE4B2944285
S31508000560F7D330BD0C480068407B01281CBF3128F2
S31508000570332801D1012070470020704710B5044682
S3150800058005F04DFA10B904490968CC7310BD024844
S315080005900068807B704700009C2C00200C2E0020F1
S315080005A0042E002080B503F0C4F8032801D10120E9
S315080005B002BD002002BD80B5FFF7F4FF38B140F256
S315080005C02B110FF20C00BDE8044005F00BBB01BD72
S315080005D0656D6265722D737461636B2D636F6D6DE6
S315080005E06F6E2E630000000010B59F4C2079FFF750
S315080005F05BFE0020607110BD82B0039840B99A482E
S315080006000321417108304FF4205102B001F085B939
S3150800061002B0E9E7002030B5934C0FF2D5152072E9
S3150800062083B06079401E052853D8DFE800F003142C
S315080006302C2F394C0FF2602100F04CF80121B42020
S3150800064001F0E0FF022060714FF4806104F10800B8
S3150800065001F063F937BD0FF2502100F03BF8012194
S31508000660B42001F0CFFF7FA301220321012006F069
S3150800067001F96078FF2106F02EF97C494FF6FF70E4
S3150800068006F018F91DE00FF234211EE00FF248219A
S3150800069000F020F82178208A2A4606F04CF910E066
S315080006A00FF2442100F016F8208A694602F0FEFF90
S315080006B018B9684600F03FF837BD208A294606F083
S315080006C05BF930B103E00FF2302100F003F8FFF7D1
S315080006D08BFF37BD012006F0B5BA38B50AB9022036
S315080006E032BD614CFF252571A170E37003B9002264
S315080006F0607062610120607104F1080001F002F97E
S31508000700002032BD10B5044606F08EFB584909682C
S31508000710CA8890420DD04CB15348028209680979BB
S31508000720017004214171083001F0ECF8002007F04F
S315080007307FF8012010BD7FB5044600254A4E69465C
S31508000740284607F0BCFB002804BF9DF800000128D6
S3150800075015D19DF801007178884202BFBDF80200E4
S31508000760718A884202BF9DF804003178884206D112
S31508000770082221460DF1050007F06CFD48B36D1CF3
S31508000780EDB2062DDBDB00256946284607F097FB08
S31508000790002804BF9DF80000002822D101208DF80A
S315080007A00000082270788DF80100214630788DF80F
S315080007B00400708AADF802000DF1050007F000FD8F
S315080007C06946284607F086FB58B9318A284607F055
S315080007D05FFB06207071357106F1080001F092F88A
S315080007E07FBD6D1CEDB2062DCEDBFFF7FDFE7FBD8E
S315080007F002780021D20758BFFFF7F6BEF8B542883F
S31508000800042A26D1184A93788068012B19BF037ADF
S31508000810C0680378406800E0491CC9B20C469C428F
S315080008201DDA30F81440002500E06D1CD778EEB2CA
S31508000830BE42F1D25669EDB236F81560B442F4D12B
S3150800084054820520507102F10800BDE8F24001F01B
S3150800085059B8012A03D18068BDE8F2406BE7BDE8C4
S31508000860F140C1E6000000002C290020F905000827
S31508000870DC250020B42102B582B059B1FF2909DA76
S3150800088021210191402302A900910022032101F0B0
S315080008907BF900B102200EBD3C657A6D6F64652058
S315080008A062706A6F696E3E003C657A6D6F6465209A
S315080008B06964656E746966793E0000003C657A6D08
S315080008C06F6465206964656E746966792074696DFC
S315080008D0656F75743E0000003C657A6D6F6465202F
S315080008E06D617463683E00003C657A6D6F646520CF
S315080008F062696E643E0000003C657A6D6F6465202F
S31508000900626F756E643E000070B5BA4D6968FF2463
S31508000910002600200A5CA4F119039A42BCBF02F122
S315080009201904E4B2401C1028F4DB00200A5CA24239
S31508000930BCBF761CF6B2401C1028F7DB300003D18A
S31508000940BDE87040012046E107F0B9FC90FBF6F1DE
S3150800095006FB1101C9B200206A68125CA24206DAD7
S315080009600A0002D10B30687004E0491EC9B2401C67
S315080009701028F1DBBDE8704010B5002407F09FFC95
S315080009804FF6FF7290429B4903D04A6822F814003A
S31508000990641C102CF2DB032008704978BDE810406F
S315080009A00120032200FA01F126E138B504460D4676
S315080009B0012000F0F3F808B9702032BD8D480A21ED
S315080009C0417084603DB10021C9B26A5C42B9491CD4
S315080009D0CAB2082AF8D301218170BDE8314007E080
S315080009E000218170082229460C3007F0E9FBF4E75C
S315080009F010B5804C2078012807D0702002F01EF828
S31508000A00702010BDE07807F085FCE078010014D06E
S31508000A10401EE070C0B207F065FC4FF6FF72018811
S31508000A209142EFD090F90F20817B01F0F8FFE07832
S31508000A3007F070FC07F05CFC14E06078401C6070FE
S31508000A4060781B280BDA0121A26881401142F5D093
S31508000A50042020700322BDE810400120CCE0AB2022
S31508000A6000F0B9F8002010BD10B50C4600F08EF85D
S31508000A7028B160490878022818BF002C01D0002048
S31508000A8010BD801E032820D8DFE800F002051B1BD6
S31508000A90FFF73AFF19E000224FF6FF73486830F86F
S31508000AA01200984206D1521CD2B2102AF6DBFFF782
S31508000AB063FF0AE0497801F0A5FF002000F08BF8F3
S31508000AC003E001200870FFF793FF012010BD2DE910
S31508000AD0F041484D0446287803280E46904602D031
S31508000AE004280FD042E06968002031F810202388D6
S31508000AF09A4204BF4FF6FF7221F81020401C1028B6
S31508000B00F3DB33E0E07888B307F0EAFB217B814228
S31508000B102CD1A87830B90822211D05F10C0007F060
S31508000B2099FB18BB002709E0F8B207F0DBFB08229F
S31508000B30211D001D07F08EFBC0B17F1CE878F9B2B5
S31508000B408142F1D3401CC0B207F0E4FB70B9E878E3
S31508000B5007F0C8FB0746E878401CE8700E222146D5
S31508000B60384607F02DFBBE7387F80F80BDE8F041C5
S31508000B700CE038B504460D4600F008F828B11D48C3
S31508000B804068204400F80B5C012032BD1948007803
S31508000B90022801DB012070470020704738B504465B
S31508000BA0FFF7F4FF18B13D2001F048FF0FE007F00A
S31508000BB09FFB002000F00FF80E4D0020E8702C7007
S31508000BC007F09AFB686020B9182000F004F80020A6
S31508000BD032BD012032BD10B5044606490020087012
S31508000BE007F0A2FB200003D0BDE8104001F026BFA5
S31508000BF010BD00004429002010B507F0A5FB04002D
S31508000C0018BFFFF7E8FF204610BD704700B583B050
S31508000C100021CDE9001108226946824807F0D0FA7A
S31508000C2007BD30B587B004460D461822002101A835
S31508000C3007F009FB01A800F0D9F803208DF80E008B
S31508000C40ADF80C408DF80F5001A801F002FF040022
S31508000C500DD00FF2FC100FF2F0120FF2D81100901F
S31508000C602346022005F0EEFF204600F059F807B0AB
S31508000C7030BD30B587B00446FFF71CFB0125F0B13F
S31508000C8018220021684607F0DEFA0822211D684668
S31508000C9007F096FA20880FF2C411ADF80800A0787C
S31508000CA08DF80B0003208DF80A002388A27802200D
S31508000CB005F0C8FF684601F0CEFE05000DD00FF21C
S31508000CC090100FF2D4120FF2BC1100902B4602209E
S31508000CD005F0B8FF544800F015FE07B030BD80B5E2
S31508000CE0524800210171017802290AD10FF2C41273
S31508000CF00FF2AC11022005F0A5FFBDE80140FFF791
S31508000D0077BE0021017002200FF2BC1105F09AFF90
S31508000D100020FFF760FFBDE802400020FFF7C9BAD0
S31508000D2010B504462346AB2B07D10FF21C120FF25F
S31508000D30B011012005F086FF06E00FF2CC120FF283
S31508000D40B811012005F07EFF38490FF27C12002009
S31508000D50087002200FF2B81105F074FF2046BDE8AE
S31508000D601040FFF7A6BA7020704730B52F4C207890
S31508000D7083B040B10FF2C4120FF2A811022005F099
S31508000D8061FF70203EBD0FF22C120FF2B811284DEC
S31508000D90022005F05DFF022005F00EFF10B128467F
S31508000DA007F036FD1EA1022005F04CFF684600F04C
S31508000DB01DF869462846FFF7F8FD010004BF022121
S31508000DC021703EBD194A1178902809D101290BD006
S31508000DD002290AD1032010700121101D00F0B5BDAB
S31508000DE0022902DB0220107079E7704710B5044625
S31508000DF002F09DFA0B4901EBC0012046BDE8104000
S31508000E00082207F0DDB910B5044602F090FA21462B
S31508000E10BDE81040034B082203EBC00007F0D0B929
S31508000E2000000000DC290020D4290020D029002059
S31508000E3000C818032570206572726F7220307825F5
S31508000E407820257000000000466F726D00000000D3
S31508000E5061626F7274696E67000000004E776B20DE
S31508000E60666F756E642C2063682025642C2070617B
S31508000E706E49642030782532582C206A6F696E696D
S31508000E806E6700002570206572726F7220307825B3
S31508000E90782C2025700000004A6F696E000000005B
S31508000EA0436F6E74696E756520257020736561726F
S31508000EB0636800006A6F696E61626C65206E6574AE
S31508000EC0776F726B000000004E6574776F726B2047
S31508000ED066696E6420636F6D706C657465000000EA
S31508000EE0257020616E64206A6F696E207363616E77
S31508000EF020646F6E650000002570206572726F723F
S31508000F0020307825780000005363616E00000000E9
S31508000F10257020287363616E206572726F72292EA0
S31508000F20000000002570466F726D20616E64206AAD
S31508000F306F696E206F6E676F696E67004572726FB4
S31508000F40723A200053656172636820666F722025C5
S31508000F50700A4368616E6E656C733A200000000083
S31508000F6070B50C46404D414E002129650D220521DC
S31508000F70A962012169610021A961A96941F4405169
S31508000F80A961706001785143E9620F220021696204
S31508000F900178407891FBF2F1C822504390FBF1F0BA
S31508000FA07080022030700020707007F073FC304AA1
S31508000FB0012111602F490A6842F001020A601021D6
S31508000FC02962296841F00101296007F069FC01E0FE
S31508000FD007F08CFC70782043FAD070BDF0B5234832
S31508000FE04288511E4180002A234938D10278456833
S31508000FF01D4BAE18777827B3AC5CC827002C11D0E8
S315080010004FF00D0E0EFB04F4DC6200245C62102423
S315080010101C620F24AB5C93FBF4F374787C4394FB5B
S31508001020F3F30AE040F29314DC6200245C621C626B
S3150800103073787B4303EBD3735B10921C4380027077
S315080010400DE00A6C520852000A640A4A14686408D9
S315080010506400146000221A621A60012242704FF07E
S31508001060FF300860F0BD000000E000405C20002072
S3150800107040A8004000E100E000A8004001210FF26E
S3150800108004006DE71F0100011F0100011F01000197
S315080010900F05000010B582B0059C1CB1049C009495
S315080010A001F05FFA13BD10B502460C462046BDE8AE
S315080010B0104014231D2107F0ADBC0A46014614232F
S315080010C01D2007F0B8BCBBE22DE9F0478CB007F04D
S315080010D0F2FC0026804600250FF2CC290DF1120AF3
S315080010E006A9E8B2FFF7DFFF0C21DFF8100769430E
S315080010F044182068A8EB00019DF81900020000F0CA
S315080011009A809DF81820002A1FD1BDF82420B1EB3B
S31508001110822F05D3227A2AB9BDF82620B1EB822F71
S31508001120C0F0898004A90391022102910DF11201F0
S315080011300191BDF820109DF81E30BDF81C200091C5
S31508001140BDF81A1000F0DCFF002874D1C6B130795A
S315080011509DF819207188824204BFBDF81A208A4278
S315080011600CD19DF81E209DF81130D2099A4202BF73
S31508001170BDF82020BDF814309A421FD000F069F857
S3150800118005F0A6FB06469DF81E00BDF82020BDF812
S315080011901A10CDF80090C0098DF8110014BF002070
S315080011A008200A2305F059FB9DF8190030714FF401
S315080011B08A50F080BDF82000ADF81400BDF81C0078
S315080011C007F00FFD9DF8100007F000FD9DF81000D0
S315080011D007F0A9FD28B10DF1120007F055FD471CCF
S315080011E004E09DF8100008F073FA0746BDF81A00E7
S315080011F040F202718842FFB201BFBDF81C00002808
S315080012008AF804008AF8050039460DF1120007F03D
S31508001210F2FC00202072052FC4F8008002D260601C
S315080012203A4603E0062F06D1606004220DF112014A
S31508001230201D06F0C5FF6D1C052DFFF651AF1EB12A
S315080012407188307900F005F800F0FAF90CB0BDE8BD
S31508001250F08710B50C4606F059F808B9032C05D1E5
S31508001260BDE81040DFF8980505F019BB10BD2DE95B
S31508001270F04F044687B0607D267D0027002807BF0B
S3150800128008204021002080218DF80410072346A15C
S3150800129000912168228A498805F0DFFAA289B6B248
S315080012A0F01C90427ADAA068815D8DF80610761CEB
S315080012B0B1B207F0C8FC80469DF80600B61C10B10E
S315080012C001285ED068E0A068B6B20025815D8DF879
S315080012D00510761CA289B1B207F0B5FC8146B61C8A
S315080012E000F064F882469DF8050006F099FBB61CE6
S315080012F060B99DF8050008F0EBF98346A289A06855
S315080013005B46B1B207F088FC05465E442068218A30
S315080013109DF80430009142464188407907F0DBFD8C
S3150800132000281FBF80789DF8051088428D251AD1A0
S31508001330206840798DF8090020684088ADF80A00D1
S31508001340ADF80C80ADF81490ADF816A09DF8040021
S315080013508DF80E000020ADF81000069502A800F0E2
S31508001360C7F905009AD0284607F030FC9DF8060014
S3150800137007F02CFC404607F034FC0127852D8DD15B
S3150800138010E000F013F803469DF804204146204675
S3150800139000F03AFAB61CE4E78525E4E717B9002019
S315080013A007F014FCD9E0000000000000A289A0683C
S315080013B0B1B207F048BC2DE9F04F044687B0257D49
S315080013C0607DBEA10028009107BF08204FF04009A4
S315080013D000204FF080092168228A4988092305F0F0
S315080013E03CFA14E02068218A00914B4641884079EE
S315080013F0524607F070FD5FEA000820D1862007F004
S31508001400E5FB002007F0E2FB504607F0EAFBA2895D
S31508001410ADB2E81C8242C0F2A080A068465D6D1C91
S31508001420A9B2002707F00FFCAD1C002E8246D9D0C2
S31508001430012E04D0852007F0C9FB3046E2E7BB46FB
S3150800144001A95846FFF72FFE9DF80400B04201BFD8
S3150800145020689DF805104279914220D1BDF8061002
S315080014604288914204BFBDF80810514517D19DF82E
S315080014700A10494502BFBDF80C10228A91420ED1C6
S315080014809DF8041049B1BDF81010E288914202BFD8
S315080014909DF812100079814201D1012706E00BF16F
S315080014A001005FFA80FBBBF1050FC9DB002007F0DE
S315080014B08DFB304607F08AFB504607F092FB16B1C3
S315080014C0012E43D0A3E798F8020007F07FFB002F10
S315080014D014BFBDF810004FF6FF7007F082FB002F0F
S315080014E014BFBDF812004FF6FF7007F07AFB98F8A4
S315080014F0020006F095FA002889D107B101AE98F8DE
S315080015000280404608F0E4F8074686B1D6F810800F
S31508001510F8B20028D6D05FFA88F007F057FB4FEAF2
S3150800152018287F1EF4E7304607F050FB7F1EF8B2F6
S315080015300028C7D0404606F07FFAFF260028F2D0DA
S31508001540FFB2012F0CBF80260026ECE7002F0CBF48
S315080015504FF6FF70BDF8140057E706F05DF9012055
S3150800156007B0BDE8F08F10B50024204600F0A8F8B3
S31508001570641C052CF9DBA3490020087010BD014640
S31508001580B120052900DB704780B5084600F0AAF8A7
S31508001590002002BD2DE9F04385B005460C9C89461E
S315080015A016469846002700F048F89DF800000028DF
S315080015B004BF9DF80100A84238D1BDF8020048458D
S315080015C004BFBDF80400B04230D19DF8060040457E
S315080015D004BFBDF80800A04228D10D9C204608F09B
S315080015E077F80C2285490E9D7A438F18024679684A
S315080015F0284605F0A9FE804640F20270814508BFDC
S31508001600002E05D179680422284605F09DFE8046FD
S31508001610204606F005FA012803D058B904988045F3
S3150800162008D30120387200F00BF803E07F1CFFB2E4
S31508001630052FB8DB05B0BDE8F0836946384632E5C4
S315080016402DE9F04186B007F036FA4FF0FF384446E8
S3150800165005460026694F69463046FFF724FD9DF882
S315080016600100D8B19DF80000C0B90C217143BDF83E
S315080016700C007A5839448002097AAA1A434621B1DD
S3150800168090422CBF831A002305E0BDF80E00010026
S3150800169018BFC2EB8023A34298BF1C46761C052EB2
S315080016A0D9DB584814F1010F03D0214608F096F803
S315080016B001E00021017006B0BDE8F08100000000DD
S315080016C010B586B004466946FFF7EDFC00208DF894
S315080016D0010069462046FFF7F0FC6846FEF7ECFD78
S315080016E006B010BD80B5FFF7EBFFBDE80140A7E7E0
S315080016F0F0B5044687B020890090A379A28861884E
S31508001700607807F0E8FBFF25012608B9862073E014
S31508001710E089010004D0A189884238BF87206BD3AD
S31508001720002701A9FFF78AFF9DF804109DF8050018
S31508001730002904BF6278904216D1BDF80610628867
S31508001740914202BFBDF80810A28891420CD19DF8BB
S315080017500A10A279914202BFBDF80C102289914263
S3150800176002D100263D4607E0002804BFFF2D3D466E
S315080017707F1CFFB2052FD4DBE0894FF6FF71884244
S3150800178005D116B92846FFF7ADFF002034E0FF2D36
S3150800179008BF892030D0DEB100218DF80410174F1C
S315080017A061788DF805106188ADF80610A188ADF846
S315080017B00810A1798DF80A102189ADF80C100C21B2
S315080017C001FB05F607F077F9B851B919002048600A
S315080017D0A089ADF81000E089ADF8120020690590DF
S315080017E001A8FEF769FD040005D101A92846FFF7FF
S315080017F064FCFFF725FF204607B0F0BDF42900205A
S3150800180095100008EC2900202DE9F04786B004461B
S31508001810884691469A46FF2501260027FFF70DFFC1
S315080018209DF80000012801BF20689DF80110427943
S3150800183091421ED1BDF802104288914204BFBDF8FC
S315080018400410414515D19DF80610494502BFBDF85B
S315080018500810228A91420CD1BDF80C10E2889142F8
S3150800186002BF9DF80E100079814202D100263D463E
S3150800187009E09DF80100002804BFFF2D3D467F1CA6
S31508001880FFB2052FCADBFF2D08BF892025D0C6B1B8
S3150800189001208DF80000206840798DF80100206845
S315080018A04088ADF80200ADF804808DF80690208ACD
S315080018B0ADF80800E088ADF80C00206800798DF8CE
S315080018C00E00ADF810A06846FEF7F6FC040003D13A
S315080018D069462846FFF7F1FB204606B0BDE8F087C3
S315080018E038B54478456806F0D5FF0C2161438B4A24
S315080018F08B585B1BB3F1004F98BF8D50BDE8324043
S3150800190006F0CEBF10B5044607F0D5F8606004208F
S3150800191020702046BDE81040E2E738B500F011F81F
S3150800192028186060012007E038B500F00AF805EBD2
S31508001930102000026060022020702046BDE8324078
S31508001940CEE704460D4607F0B6B838B5FFF7F9FFF7
S3150800195005EB1040000460600320EDE710B504466F
S31508001960207860B1042806D007F0A5F86168421A05
S31508001970B2F1004F01D8002010BD081A10BD4FF073
S31508001980FF3010BD70B5044607F095F8054606F019
S3150800199081FF06466FF00041606800F02CF8401998
S315080019A020603046BDE8704006F07ABF70B5044640
S315080019B00D46164607F07FF8002156B1FF22327011
S315080019C007E0121AAA4202D2154606B13170491C1E
S315080019D0083422680AB9284670BD1378002BF6D059
S315080019E0042B04D05268831AB3F1004FE9D806B124
S315080019F03170002070BD0022D8E738B5044607F0DC
S31508001A005AF805460BE0017841B1042904D041682B
S31508001A10691AB1F1004F01D861688847083420680F
S31508001A200028F0D131BD10B50C213C4A01FB002439
S31508001A3007F041F82168401AB0F1004F06D86068EF
S31508001A40FFF7DBFF2046BDE810409BE710BD70B5E9
S31508001A500446334D687833490978884205D34FF4EC
S31508001A6084710FF2C40004F0BDF86E78701C6870BB
S31508001A700C202A4900FB061044600121017200E08F
S31508001A804E7054F8081B0029FAD1FFF77BFF304641
S31508001A9070BDF8B505464FF0FF300090204C207811
S31508001AA040B307F019FF28B940F239110FF2780050
S31508001AB004F098F806F0FFFF0C21184A01FB0523ED
S31508001AC000251D72002305E0009EB54288BF3546F5
S31508001AD000955B1C6578DBB2AB420FD201FB03268F
S31508001AE03568471BB7F1004F04D92D1A367A0EB957
S31508001AF0002DE9D107F0F8FE0020F2BD00A806F097
S31508001B00F9FF0120F2BD0C21044A01FB0020012146
S31508001B10017270470249087070470000E4280020E7
S31508001B20D52F0020D81B02086576656E742D636F65
S31508001B306E74726F6C2E63002DE9F04786B00F9FA6
S31508001B40109D0E9C0295019706468A469046994630
S31508001B50009407F0CDFE18B1022803D002D310E096
S31508001B6001200EE00CBF0120002000210491039003
S31508001B700295019700944B4642465146304600F07E
S31508001B80F2F906B0BDE8F08710B586B000240494D3
S31508001B9001240394099C0294089C0194002400944F
S31508001BA00FE010B586B000F002F8402309E00024E3
S31508001BB004940193012403940023089C009302943F
S31508001BC0704700F0D0F906B010BD10B586B00124F4
S31508001BD00494002403940A9C0294099C0194089C8A
S31508001BE00094EEE71FB5089C0394079C0294069C94
S31508001BF00194002400940CE01FB500F002F840237D
S31508001C0007E00024019303940023069C00930294A2
S31508001C10704700F075FA04B010BD2DE9FE4F9246E4
S31508001C201D46074688462A4607F0BCFA00240026C1
S31508001C305FEA000B0C988DF80070B146ADF802808B
S31508001C408DF80450ADF806A0ADF8080053D06946E3
S31508001C50584607F084F900284DD0002505E006F01F
S31508001C60B5FF641C09F101096D1CBBF80810A8B280
S31508001C70884239D2DBF80400ADB20C216943471813
S31508001C80BBF80000B0F57C4F09DA3888ADF80600D5
S31508001C906A463946584607F078F90028E4D0388865
S31508001CA0504538BF761CDDD39DF83420A1B2914249
S31508001CB0D8D206F096FFB87806F088FF9DF8380067
S31508001CC00028CED03888002808BFB8F1030F05D100
S31508001CD03879C00754BF01200320C0E73879C00708
S31508001CE04CBF07200520BAE7A4B2B6B230191FFACE
S31508001CF089F1884201D1012000E00020BDE8FE8F6D
S31508001D002DE9F04F85B04FF00009DFF8448201E075
S31508001D1009F1010906F0FBFF5FFA89F1814280F0BB
S31508001D20A6805FFA89F94FEA091A0FF22C4118F8CA
S31508001D300A2000F0D5F90FF22C4100F0CEF9002761
S31508001D4000E07F1C08EB0A00F9B28068027991422C
S31508001D50DED20068FFB2142179434418002516E044
S31508001D60F278012392B204A9042006F0F7FC208831
S31508001D7005F078FB4FF6FF71884207D0754901EBED
S31508001D80C0000FF2CC31426800F0AAF96D1C218917
S31508001D90A8B28842D5D26068ADB20C21694346180C
S31508001DA00FF2004130794006308800904CBF0FF2A0
S31508001DB008430FF20C432288042004F049FF3146F9
S31508001DC0204607F0B0F8834628B90FF2FC31042004
S31508001DD004F03EFF04E05A465AA1042004F038FFF6
S31508001DE03079810748BF0FF2004105D4C1064CBFC0
S31508001DF00FF2FC310FF20041C00754BF52A053A0A6
S31508001E0001910090F378B2780FF2C431042004F0FF
S31508001E101FFF3079CDF800B040064CBF8023402321
S31508001E20002003900220029004A80190328821889D
S31508001E3018F80A0000F064F9862804D10FF2C031B8
S31508001E4000F04BF9A2E7B07806F079FF20B104A8B4
S31508001E5006F01AFF421C84E7B07806F078FF0028DF
S31508001E603FF47EAF04A806F014FF821C79E705B09C
S31508001E70BDE8F08F2DE9F04387B081460F9C052C0D
S31508001E80884617461E464DDB0E9D0FF28031029599
S31508001E900196009743464A4600F062F804A8039064
S31508001EA000950220029033460DF1120001903A4641
S31508001EB04146484600F024F9050036D19DF8100041
S31508001EC006F031FF28B10DF1120006F0DDFE451CC3
S31508001ED004E09DF8100007F0FBFB0546EDB2281D4F
S31508001EE084421FDB384606F07CFE002006F06EFEB4
S31508001EF09DF81000184C06F069FE2088291852290A
S31508001F0009DA164B2A460DF11201184406F058F95B
S31508001F1020882818208000953B4642460FF2443117
S31508001F2000F01EF807B0BDE8F083384606F059FE03
S31508001F30284606F04BFE00953B4642460FF2003116
S31508001F40EEE7000025327800524F00005257000095
S31508001F5034280020B47C00086A290020782900204B
S31508001F60042004F06FBE2DE9F04F89B081460020A9
S31508001F70049000900E46129C174698468DF81490C9
S31508001F80ADF816608DF81880ADF81A70ADF81C40DB
S31508001F900023002204A905A807F00AF804980FF2FE
S31508001FA0183240B9019700964B460FF2E421FFF725
S31508001FB0D7FF86208EE01598A8B904999DF8500099
S31508001FC08978884205D00FF2FC2100F089F88D2027
S31508001FD080E004980079C00705D40FF2FC2100F0D0
S31508001FE07FF8882076E004980079139D400726D567
S31508001FF00498806840680290049880688068019018
S315080020000498807805F018FD82460498C0788DF803
S315080020100000032853460246294628DA02A805F096
S31508002020AFFC83469DF800205346294601A805F0D3
S31508002030A7FCBBF1010F18BF10F1010F26D01698A7
S31508002040002842D100F04FF807F07CFC00F04BF86E
S3150800205006F0ECFE01003DD10120009000232A463F
S31508002060002105A806F0A4FF010011D032E002986D
S3150800207005F086FC012809D09DF8002001985346F2
S31508002080294605F07DFC10F1010FD8D1872021E003
S31508002090049B32464946284607F0F8F9029500940B
S315080020A043469DF8500001903A4631464846FFF7A8
S315080020B071FA00F018F807F044FC009443463A46D3
S315080020C03146484606F08EFE03E00FF2202100F066
S315080020D004F8002009B0BDE8F08F042004F0B2BD72
S315080020E0042004F0AFBD039543460498C0780290D7
S315080020F000943A469DF8500001903146484670478C
S3150800210010B586B000248DF808008DF80C30ADF8AF
S315080021100E20ADF80A100194009401A908980A9BAC
S31508002120099AADF8100002A806F042FF040005D18E
S315080021300B9848B101998978017005E0892C03D17B
S315080021400FF2C811FFF7C9FF204606B010BD000000
S315080021502825702900000000454E44504F494E542A
S3150800216020257800636C7573202F207369646520B9
S315080021702F2061747472202F206D666720202F74BB
S31508002180797065286C656E292F207277202F207349
S31508002190746F72616765202F2064617461202872EC
S315080021A061772900253278202F202570202F2025B9
S315080021B03278202F20000000636C6E740000000047
S315080021C073727672000000002D2D2D2D0000000080
S315080021D0202F2025782028257829202F20257020B3
S315080021E02F202570202F200020746F6B656E20002D
S315080021F065787465726E2000202052414D202000BB
S31508002200556E737570706F72746564004F54412013
S31508002210524541443A2065703A2578206369643A04
S315080022202532782061747469643A253278206D7392
S315080022306B3A2578206D66636F64653A25327800B7
S31508002240524541443A20636C7573202532782C2018
S315080022506174747220253278206661696C65642021
S3150800226025780000524541443A20636C7573202551
S3150800227032782C2061747472202532782C2064619F
S3150800228074614C656E3A2025782C204F4B0000006F
S315080022902570657020257820636C75732025327843
S315080022A0206174747220253278206E6F74207375DD
S315080022B070706F72746564005752495445204552D0
S315080022C0523A20002570696E76616C6964206461F3
S315080022D07461207479706500257061747472206E5B
S315080022E06F74207772697461626C6500575249543D
S315080022F0453A206E6F2077726974652C206A75736B
S3150800230074206120746573740000000052454144CE
S315080023103A206174747269627574652073697A65A6
S3150800232020746F6F206C6172676520666F72206318
S31508002330616C6C657200000010B50446062C02D16B
S3150800234007F036FC40B9E008032805DA00F016F86D
S315080023500D4A02EB8121086010BD10B50446062C13
S3150800236002D107F025FC40B9E008032805DA00F099
S3150800237005F8064A02EB8121086010BD012004F029
S3150800238007018840E108704714B0004010B00040CB
S3150800239000281CBF0620FFF7CFBF0620DDE7000098
S315080023A00020DFF8981701EBC003FF221A710022FC
S315080023B041F83020401C0328F5DB70472DE9FB4D1A
S315080023C01F46032F83B0144605DB0E9E3178490756
S315080023D005D5052F01DA012074E0307900E0B078E0
S315080023E08DF804000025DFF8548708EBC50000794E
S315080023F0FF2804D06D1CEDB2032DF6DBFF25DDF8B2
S3150800240040B05FEA0B0003D0FF2D08BFB42059D0B7
S31508002410207906F053FF8246BAF1FF0F08BFA320C2
S3150800242050D0207907F02CFC00284BD1DFF8100794
S3150800243000EB0A1000214388238060880F9A0090D9
S315080024409DF8040005F037FA18B1E08840F020003E
S31508002450E080BDF810109DF80C00224605F036FA0B
S31508002460B8421CD3FF208DF8080002A801900096F8
S31508002470BDF810109DF80C00FBB2224604F024FEAD
S3150800248007465FEA0B000CD05FB99DF80800FF28E5
S3150800249012D008EBC50148F835B008710CE074276E
S315080024A00DE0BA2F07D1A079C00604D5012007F0A0
S315080024B012FC002700E017B9112007F023FC07F0EB
S315080024C0E8FB384606B0BDE8F08D10B584B0088143
S315080024D000931346069C02940A4601240146019479
S315080024E0032011E010B582B000240094FFF7EDFF39
S315080024F016BD10B584B0069C0093029413460A468E
S315080025000124014601940420FFF758FF04B010BDCA
S3150800251010B582B000240094FFF7EBFF16BDF0B5A6
S315080025200446022C85B00D4616461F460BD1694651
S31508002530E8B205F0C4FC010011D19DF80100307124
S315080025409DF8040070713B460B98029032460020B5
S31508002550019029460A9800902046FFF72FFF05B0FC
S31508002560F0BD1CB500240194049C0094FFF7D7FF26
S3150800257016BD2DE9F04188B00446884616461F4622
S31508002580002503A9284605F09AFC010020D19DF8EC
S315080025900C10012902BF9DF80D102279914202BF45
S315080025A0BDF80E10628891420ED19DF81000607138
S315080025B002970020019000964346224629460220AB
S315080025C0FFF7FCFE010003D16D1CEDB2062DD8DB2A
S315080025D008B0BDE8F08180B50346DFF868050088D5
S315080025E00A0007D1BDE800500FF274520FF2685185
S315080025F004F02EBB00910FF280520FF26C5104F0DA
S3150800260027FB01BD7CB504460D4601F031FA0646A6
S31508002610334622460FF26851022004F013FB3000BD
S315080026200FD175B101A800210160032000908DF833
S31508002630054001AB002236214FF6FC7007F031FD4C
S315080026400646304676BD2DE9F0430D4687B004466A
S3150800265028881646994608B1002059E0688848F245
S31508002660040188421FBF48F20601884248F2200149
S31508002670884248F2010833D01328DFF8CC7427D1F2
S31508002680B07A0690707A0590307A0490F0790390C3
S31508002690B07902907079019030790090B1787078AD
S315080026A0F37800EB01220FF2F041022004F0CAFA97
S315080026B07178B278787801EB022107EB4002401C6A
S315080026C091807870C0B240280ADB0020787007E055
S315080026D0404505D048F20501884204BF3079387074
S315080026E04B4632462946204607F031F9002802BFF4
S315080026F0688848F22101884203D17178204607F09C
S3150800270019F968884045A4BF082007F014FB012082
S3150800271007B0BDE8F0832DE9F04788B081460E463C
S315080027209246984607F04FFD8DF8089003960546A1
S31508002730119F0497ADF816508DF818A08DF81980DA
S31508002740109CADF8144004F075FB8DF81A0004F0DF
S3150800275073FB8DF81B0000F0EAFD8DF81C0002A83B
S3150800276007F0F3F8A8B923463A463146284604F056
S315080027708BF970B923463A4631462846FFF763FF78
S3150800278038B90190009523463A464946304604F042
S3150800279013FF08B0BDE8F0872DE9FC471D000A9C29
S315080027A00B9E80468946174632D00FF28C420FF2AE
S315080027B07C41022004F04CFA3B88180008BFB5A2F9
S315080027C00AD040F209118B4208BFB3A204D0B3F570
S315080027D0827F0CBFB1A2B2A2019478880FF2F831B9
S315080027E00090022004F034FA388870B1032C0CDB10
S315080027F03078B3780FF21041C0074CBF0FF21C4275
S315080028000FF22042022004F023FAC9A100F048F88A
S315080028100C98CA49002201EBC2031B79834210D0E7
S31508002820521CD2B2032AF6DB4FF0000A002201EB53
S31508002830C20393F804C0844506D0521C032AF6DB6B
S3150800284007E051F832A0F1E7FF201871002041F89F
S3150800285032002946404607F054F8002D04BF388850
S31508002860002806D17888B0F5004FBCBF082007F0CD
S3150800287049FA012007F05FFA36B13078C00703D568
S3150800288000F011F806F081FABAF1000F02D000F054
S315080028900AF8D04700F007F807F048F8BDE8F387CC
S315080028A0022004F0CFB90195009623463A464946D8
S315080028B0404670472DE9FC42044690380FF29035A1
S315080028C00FF294390CD0401E48D0C01E46D0801E48
S315080028D044D0801E42D0133804283FD911384ED12F
S315080028E007F098FC074604F09FFA461EB641F60F15
S315080028F02FB1002E14BFB8883889ADF804000DF141
S31508002900060007F03EFDBDF80600800605D5BDF8B1
S31508002910040040F02000ADF80400324601A900206A
S3150800292007F024F8BDF8040007F018FD04F07CFA57
S3150800293000904B462A460FF20831022004F082F92D
S31508002940BC2C06D10FF21C31FFF7AAFF07F005F8D9
S3150800295001E008F06CFB07F001F810E0912C04D1B7
S315080029604B462A460FF21C3104E00FF230330FF2C1
S3150800297020312A46022004F065F904F064FD204659
S3150800298008F0F2FB2046FEF71DFA2046FDF734FC58
S3150800299018B10FF21031FFF783FFBDE8F38230B5A7
S315080029A06A4C657883B0002007F065F9207878B915
S315080029B0012D08BF08F00EFC684604F0C7FB70B985
S315080029C09DF80000A84203D0012D08BF022806D1B1
S315080029D00FF200300068019001A801F039F907F0FC
S315080029E058F937BD30B583B00C460123082269462D
S315080029F008F072FE0546082269462046FDF7A5FD41
S31508002A0028463EBD38B504460D4607F037F929462F
S31508002A102046FEF706F9BDE8314007F03AB970B529
S31508002A2004460D46164607F029F932462946204639
S31508002A30FEF71FF9BDE8704007F02BB910B504463C
S31508002A4007F01CF92046FEF76BF9BDE8104007F0C1
S31508002A5020B97020704738B53D4909680A78044698
S31508002A607020AAB94D78012D08BF022508F0A2FFEB
S31508002A7020890FF280220FF2602100900120E37A6C
S31508002A8004F0E0F821462846BDE8344001F00DB8C8
S31508002A9032BD00005A444F0053450000484100002B
S31508002AA03F3F000010B5044604F0B7F90020215C4A
S31508002AB0FF2904BF00212154401C1028F7DB002001
S31508002AC0207410BD33B581B0002000240FF25421C4
S31508002AD008E011F830309DF80A50AB4208BF546838
S31508002AE0401CC0B201EBC0025368002BF1D19DF81F
S31508002AF008009DF807309DF806200FF20021009087
S31508002B00022004F0A5F89DF80920100003D009A1B9
S31508002B10022004F09DF804B907A4BDF80430224643
S31508002B2003B0BDE830400FF2EC11022004F08AB879
S31508002B30000000002E2564003F3F3F000C280020BF
S31508002B4034280020A42F0020D81F00203CD30108D9
S31508002B50CC290020FDF782BB25703A20257000009D
S31508002B60537563636573730025703A2025703A20A0
S31508002B7030782578000000004572726F72000000F8
S31508002B80704A6F696E20666F7220256420736563CC
S31508002B903A203078257800004465766963652041D7
S31508002BA06E6E6F756E63653A2030782532782C30F4
S31508002BB07825782C307825782C307825782C30783C
S31508002BC025782C307825782C307825782C3078257F
S31508002BD0782C307825782C0050726F66696C653AC7
S31508002BE020257020283078253258292C20436C75EA
S31508002BF0737465723A2030782532582C2025642063
S31508002C0062797465732C0000205A434C2025702085
S31508002C10436D642049443A2025640000436C75736B
S31508002C2074657200476C6F62616C00002570747879
S31508002C302025782C200000004552524F523A200099
S31508002C402570257055502030782532580000000030
S31508002C50454D4245525F00004E4554574F524B5F13
S31508002C600000000054727573742043656E746572B3
S31508002C702045554920686173206368616E676564FD
S31508002C802E00000025702570444F574E00000000A6
S31508002C9025704A4F494E2570000000005F4641499D
S31508002CA04C45440054686520617070206672616DF9
S31508002CB065776F726B2069732068616E646C696EE4
S31508002CC0672074686520737461636B20737461741C
S31508002CD075732E00000000002570696E67206F6E00
S31508002CE02063682025642C2070616E496420307842
S31508002CF0253258004A6F696E0000000073746163DC
S31508002D006B207665722E205B25642E25642E25643D
S31508002D1000000000202570206275696C6420256417
S31508002D205D000000000000006CD2010811000000E0
S31508002D3078D201081200000080D2010813000000B2
S31508002D4088D201082100000090D201082200000064
S31508002D5098D2010823000000A0D20108AA000000AA
S31508002D60A8D20108FF0000000000000000207047FC
S31508002D7000207047B5207047B520704770477047E8
S31508002D8000207047704770477047704770470020AB
S31508002D90704780B543210FF2100002F023FFFF2091
S31508002DA002BD00207047000072663463652D737497
S31508002DB061636B2D73747562732E6300F8B50446F0
S31508002DC00D46DFF8CC030078002802BFDFF8C4639D
S31508002DD03069002827D1DFF8C00300780A2818BF11
S31508002DE0022D20D105F056FD0746F278082A18D29A
S31508002DF0012D02D19019047206E006F1080106F1C8
S31508002E00090005F0DDF93472F078401CF070384698
S31508002E1005F046FD204608F073FE09F065F9012025
S31508002E20F2BD05F03DFD0020F2BD80B500F0CCFAFC
S31508002E30DFF86003017929B901210171BDE8014074
S31508002E4009F052B901BDDFF84C0300210171704742
S31508002E5038B5DFF83C030078002839D105F01AFDAB
S31508002E600546DFF83043E07870B1217A6170421E7A
S31508002E70E270D2B204F1090104F1080005F0A0F9E4
S31508002E80284605F00DFD21E0284605F009FD2069D4
S31508002E90F0B92079022802D009F090FB60706078BA
S31508002EA0FF2810D1207998B100F08FFA00F04EFA79
S31508002EB009F05DFD6070FF2803D000F088FA00B9BC
S31508002EC0207100F044FA6078FF2801D0012032BD55
S31508002ED0002032BD2DE9F04104460D4609F034FEC6
S31508002EE0AC4E0020307105F0D5FC8046306920B123
S31508002EF0404605F0D5FC002013E0A84800780528D0
S31508002F0008BF09F0F6F900F00EF8070008BF3461AB
S31508002F10404605F0C5FC1FB105B1A047012000E0F9
S31508002F200220BDE8F08110B505F0B4FC9949CA78CD
S31508002F309A4B1B781A430979114305D198490978A0
S31508002F404C1EA441E40F00E0002405F0A9FC20462D
S31508002F5010BD10B59148002101708E4CFF2060709D
S31508002F60216105F0ACF920708D48002101708D486B
S31508002F70017014218C48FEF7D7FCBDE8104009F013
S31508002F80D7BD2DE9F0410446DFF81482834E874FFA
S31508002F90804D6878FF2808D13878FE2817D04FF476
S31508002FA0B3710FF2142002F01DFE3878811F012933
S31508002FB00DD805213170214605F077FB08B900F0D8
S31508002FC013F8687808F0AAFDFF20687002E0AC7074
S31508002FD000F00AF83878042804D02879012804BFB4
S31508002FE002202871BDE8F081032030704046FEF7C4
S31508002FF089BC10B5674C617881420DD1084608F046
S315080030008DFD05F047FCFF2161706849FE220A70B4
S31508003010BDE8104005F044BC10BD38B504465D4D0A
S31508003020A97809F08EFD28B9A9782046BDE834406C
S315080030300AF054BC31BD2DE9F8430446FF2C05D1EE
S3150800304040F2B7110FF2701002F0CCFD584D204631
S315080030500BF025F800F00C002870FF206870204659
S315080030600BF01DF800F00C0008285FD028780C2813
S315080030705CD120460BF004F8074608F08AFF804624
S3150800308008F44C4638460BF042F8C05D68704FF6B7
S31508003090FF794FF4406018EA000F06D0F81C08F0D4
S315080030A078FF484508BF46F0400608F44060B0F58A
S315080030B0006F06D1781D08F06CFF484508BF46F03A
S315080030C010064CF650006978012918D0022919D043
S315080030D0042908D0062927D0072927D008291AD075
S315080030E07C2912D051E0B0B2B0F5484F18BFB6F5FA
S315080030F0084F4AD1204609F020FD002812E0B6F50F
S31508003100484F0FE0B6F54C4F0CE0B1B2B1F54C4F55
S315080031100CD0864206E04CF64040864235D11E4821
S315080031200078052831D101E086422ED120460AF0E2
S31508003130B1FF064620460AF0B2FF00F00C00082848
S3150800314016D0B00614D54FF6DF7000EA0601204601
S315080031500AF0A2FF20460AF088FF064620460AF033
S315080031608FFF0AF0D4FF8119C9B2204608F025FE60
S315080031702146281D08F06DFF204608F0C1FC0D48C1
S315080031800078BDE8F243FEF7BEBCBDE8F183000057
S3150800319085260020A02600203C260020142E00208C
S315080031A0182E002044260020802F00208F2600207D
S315080031B0B4260020DC2F00206D61632D61726269E0
S315080031C07465722E630000007047B5207047401C76
S315080031D0C0B2704701207047002070477047002032
S315080031E070470020704700207047704700207047DE
S315080031F001207047012070477047000010B56A48E3
S3150800320000686A4C206060604822002105F01BF8BF
S3150800321020686749097801702068002101732068D1
S31508003220417320680B21817320680321C1732068CC
S315080032304FF6FE7101824FF6FF71418205F03FF8A5
S315080032402168087605F03BF82168487605F037F8D6
S3150800325021688876206857490978C17620685649D2
S31508003260096881625549097880F82C102068544904
S315080032700968016310BD10B502F0CAFB4B4C6168C2
S31508003280897B884203D0084602F0BAFB50B902F09F
S31508003290C2FB0146606890F90F00814204D002F033
S315080032A0BEFB08B1012010BD6068008A0BF098FBD0
S315080032B06068408A0BF09CFB6068007B012818BF99
S315080032C000200BF077FB002010BD10B53D4C002008
S315080032D0207009F010F920B92046BDE81040FEF725
S315080032E011BBFDF75FF908B1FFF74FFD51E080B557
S315080032F0002000F015F828B1002000F005F808B104
S31508003300002002BDFF2002BD28480068407B022835
S315080033101CBF1128432801D101207047002070479F
S3150800332022480068017B04298041C00F70470020AD
S31508003330704700207047704770470020704701208B
S3150800334070477047002070470020704770477047E5
S31508003350002070470020704780B50020FFF7D4FF93
S3150800336030B112480068007B032801D2002002BD54
S31508003370FF2002BD10B5040004D0D9210FF2680061
S3150800338002F030FC48200849096800FB0410074988
S315080033904860BDE810406EE704484068008A7047F8
S315080033A002484068408A7047842400209C2C0020EC
S315080033B03A2700203B2700208824002034270020B5
S315080033C08C2400208C2C0020704700207047002099
S315080033D07047FFF72ABD704770470BF09BBB03F099
S315080033E0E7BD0BF0A4BB0000656D6265722D6D75B7
S315080033F06C74692D6E6574776F726B2D7374756254
S315080034002E63000010B50BF083FB0BF0DBFBDFF837
S315080034102C432078002839D110200BF017FD000620
S315080034200BD400200BF012FD000606D5E078012823
S3150800343012D105F0ABFAA8B310BD10200BF006FDAB
S315080034400006F6D500200BF001FD0006F1D5E07860
S31508003450012818BF0F28ECD0E078022818BF0628E4
S31508003460E7D0072818BF0828E3D0092818BF0A2874
S31508003470DFD0032818BF1028DBD0112818BF122860
S31508003480D7D013281CBF14281528D2D00FF2E02451
S31508003490214600200BF00CFF214601200BF008FF07
S315080034A0B02010BD06F048FB0BF04AFFDFF890028B
S315080034B0007808B104F041FE0BF04CFF0CF070F9EF
S315080034C0DFF880420FF2D420FEF7C1FA2070DFF849
S315080034D07802FEF7BCFA6070FFF790FEFFF739FD39
S315080034E009F034FB0CF090FA0CF091FAFFF784FE21
S315080034F001200BF0EAF8F021DFF85002FEF714FA83
S31508003500002010BD2DE9F0470CF0C4FA0CF038FB8A
S315080035100CF0DAFC08B90CF0AAFCDFF83482404655
S3150800352008F0D2FD08B909F00CFEDFF828924846E3
S3150800353008F0CAFD08B90CF09EFE0DF0A3F909F0D3
S3150800354004FBDFF800522878FEF76DFA6878FEF774
S315080035506AFA0DF0D1F900270024DFF8FC61DFF8DC
S31508003560FCA10AE02046FFF7F1FE3068007B04283C
S3150800357028BF0127FFF7EBFE641C9AF80000E4B2A7
S315080035808442EFD3002F1EBF75480078002805D067
S3150800359000F03EF8102808BF0DF056FC714808F0F8
S315080035A093FD08B90CF0D6F80DF0D2FF05F072F9C4
S315080035B007460CF089FC68B1404608F085FD48B11D
S315080035C0484608F081FD28B10DF0C0FF10B12878F3
S315080035D0FEF75FFA384605F063F905F05BF904462D
S315080035E00CF072FC30B1404608F06EFD10B16878F8
S315080035F0FEF74FFA204605F053F9FFF7A0FE18B973
S3150800360040F26B1100F035F80EF04AF8BDE8F08785
S3150800361038B5FFF788FC28B10EF045F9441EA441D9
S31508003620E40F00E001240BF04EF900280CBF042536
S3150800363000250CF049FC48B1454808F045FD28B17D
S31508003640444808F041FD08B1002000E00220464940
S31508003650097801B12021424A127802B11022434B5F
S315080036601B7803B140232C432043084310431843D7
S3150800367032BD0FF2181002F0B5BA38B5044636480E
S315080036800068007B03280BD220460EF0ADF94FF6F2
S31508003690FF75A84204BF20460EF0FEF9A84204D1E1
S315080036A02046BDE832400BF03EBF32BD70B5044639
S315080036B00D464FF6F870844201D3012070BD264EA0
S315080036C03CB93068007D800703D428460EF0BDFD5E
S315080036D0A8B9306841888C4205D10822011D2846C0
S315080036E004F06EFD0BE0007B03280AD220460EF09C
S315080036F02DFFFF2805D029460EF04BFF08B1002004
S3150800370070BD294620460BF04FFF401E8041C00F72
S3150800371070BD11480068008A70470F490968088219
S3150800372070470D480068408A70470B490968488207
S315080037307047094800680078704700009607040833
S3150800374049270020DC2F0020D0210208782F0020EE
S31508003750B8260020702600209C2C00203327002045
S3150800376030260020E026002008260020CC2C002049
S31508003770537461636B2F4861726477617265204D7B
S3150800378069736D617463680D0A0000007A6967627F
S3150800379065652D737461636B2E630000042F00202A
S315080037A047CB0008182E00201DC10008442600201B
S315080037B0E9840008B82E0020D1190108E82600205F
S315080037C08FC5000808260020154400081826002082
S315080037D0D144000830260020450E0108B42C0020EC
S315080037E09F3A000864260020752D010878260020D7
S315080037F0E94E00080C2F002031940108042E002001
S315080038001B1F01080C2E002033FC0008A42E0020E4
S31508003810C37B0108AC2E002041270108F42D0020A7
S3150800382021250108D8260020FD0B0108CC2C0020F4
S31508003830C93100088C2C0020CB320008802F0020CC
S31508003840573F0108782F00203DD10108942C00200D
S31508003850D73300080000000000000000DFF8542CF1
S315080038601268127882420AD019B1012A03D10228B5
S3150800387005D000207047022A08BF0128F9D1012087
S315080038807047DFF8481C0875704710B5DFF8244CF8
S315080038902068407B112804D0B6210FF2100002F0F0
S315080038A0A1F920684121417310BD00006173736F4F
S315080038B063696174696F6E2E6300000080B502202B
S315080038C0FFF73BFDFFF742FDDFF8000CDFF8E41BCE
S315080038D00968097B042903D3C17C491DC17404E026
S315080038E04FF47A711830FEF718F800F005BE10B5D7
S315080038F0DFF8D84B002060742078FF2803D008F042
S315080039000DF9FF20207010BD38B504460D4608F0A5
S3150800391091F8007C00F00701400800F0380000EB41
S31508003920410000F11102DFF8F80B0068205CD2B202
S3150800393082420ADA831ADBB20F2B88BF0F230020D4
S3150800394000902146284608F086F931BDDFF8640B59
S315080039500068407B33281CBF4328532801D1012027
S315080039607047002070471FB509F039F9F8B1DFF83C
S315080039705C4B00A92078FFF7C7FF00202076617905
S315080039800DF1030001F05AF8FFF7B1FF00F010F847
S3150800399000F076FB007DC00702D50EF0D3FE08B90D
S315080039A00FF006F90EF0CDFE012001F071F91FBDEA
S315080039B010B500F065FB017B032906D340884FF656
S315080039C0FF71884208BF032008D0FCF729FD04468A
S315080039D0FCF72AFD214604F0EAF90220FCF72CFD43
S315080039E001F0B4F9BDE8104000F08ABD10B5DFF863
S315080039F0DC4A2075FFF77BFF00214FF6FF7001F0C8
S31508003A0014F9DFF8B00A0068417B032918BF0029BA
S31508003A1019D0332918BF43290FD1017B032906D3AF
S31508003A2003214173207DBDE81040FFF7D8BC207DF7
S31508003A30FFF7D5FCBDE81040BAE721214173BDE880
S31508003A4010400FF0FFB910BD80B500F019FB00213A
S31508003A5041734FF6FE70FFF760FE4FF6FF70FFF7F3
S31508003A6064FEDFF8680A007DBDE80240FFF7B7BCD0
S31508003A7080B5DFF8B82A0021117110B1FF2802D1EC
S31508003A800120107007E0012111708000411C89B2E5
S31508003A90101DFDF749FF00F033FD002002BDDFF8D9
S31508003AA08C0A002101710020E2E738B504460D466C
S31508003AB0287B00280CBF4FF6FE70FFF72AFE2B4620
S31508003AC022460146012001B0BDE830402DE9F0410B
S31508003AD080460F4616461C46DFF8D8592868407BAC
S31508003AE000284BD1701EC0B2052847D2DFF8340A29
S31508003AF000780A2842D1FFF72BFC00283ED1FFF7B1
S31508003B0029FC08B1042E39D3207B032816D14FF699
S31508003B10FE70874214D1012E08BF002710D0022E4E
S31508003B202CD1FFF7F6FD4FF6FC71884202D2FFF75B
S31508003B30F0FD01E00FF016FB074601E0012E1DD04F
S31508003B40B8F1000F0CD0207B03280CBF01210021FF
S31508003B50012E0CBF0120002006F03CFC002850D1A5
S31508003B602146384600F026FF00284AD1FFF7EAFB2F
S31508003B70FFF7D6FB20B1FFF7EDFB08B1702040E058
S31508003B802868407BDFF8447933281EBF5328002075
S31508003B907875304600F0F2FEDFF88C69307820B18F
S31508003BA0FFF7D8FB08B90DF030FF207B032803D1B7
S31508003BB02046BDE8F04126E00822214607F1080024
S31508003BC004F0FEFA207B032828BF00203874FFF78C
S31508003BD08EFE94203875387C00280CBF01203120D1
S31508003BE0296848730020B874727801202968897B8F
S31508003BF000FA01F1032004F0A7FB10B1296800229E
S31508003C004A73BDE8F08110B5044600220821FCF786
S31508003C1084FC08B1012010BDFFF77BFD00224FF69A
S31508003C20FF7100F0F0FE217C204600F007FF626974
S31508003C30E189207C01F0BBF8DFF878080068007B92
S31508003C40012808BF07F003F9FFF7B2FE002010BDF0
S31508003C5070B582B00546DFF85C482068407B0028CE
S31508003C6002BFDFF8C00800780A2801D0702076BDA8
S31508003C70FFF797F800283AD1DFF850682DB10222ED
S31508003C80294606F1200004F09BFA00A800F099FFE7
S31508003C9008B1932076BD00F019FF48BB9DF80000D7
S31508003CA000F06CFE2068007B012818BF022805D0AA
S31508003CB003280ED3002000F0C4FF50B100F01DFF0A
S31508003CC02068007B032828BF0CF0EDFDFFF770FE87
S31508003CD00DE02068132141730020B07405220120ED
S31508003CE02168897B00FA01F1052004F02DFB0020EC
S31508003CF076BDFF22F8B505460E461446DFF8B4072A
S31508003D000068017B012926D0407B022818BF0328BA
S31508003D1021D1FCF750FCDFF8100842783146032021
S31508003D2004F012FB060017D13320FCF785FBFFF7DA
S31508003D30DEFDDFF89877FFF7F4FCF880002D14BF56
S31508003D4002200120387407F1080000F058FF00200F
S31508003D50B8747C7500E070263046F2BD38B5044666
S31508003D6007F068FE054620460AF07FF94419204602
S31508003D7008F00FF94FF6FF5101402046BDE83440E0
S31508003D8008F00DB970B584B0FFF7C3FC0646DFF836
S31508003D903C470B2120780AF047F9002100F045FF3F
S31508003DA0DFF81057FCF7DEFB58B11EB14FF6F87076
S31508003DB0864206D30FF0D6F906462868408886421A
S31508003DC0F8D03046FFF7A9FC092120780AF02CF92B
S31508003DD0FFF7ABFC2E68307B052813D100F01AFFDD
S31508003DE08DF80800207C00280CBF4FF4804244F26E
S31508003DF001020120009002AB4FF4806170880CF03C
S31508003E00A4F90BE006208DF8080000F003FF8DF8F2
S31508003E10090000F0F8FA70880FF0F7FB0646FF2E47
S31508003E2008BF002015D02868418830460AF05BF99B
S31508003E30207C02281CBF3046FFF790FF0023002293
S31508003E40114630460DF0E6FC0446304607F066FE9D
S31508003E50204604B070BD2DE9F04186B08846164666
S31508003E601F460C9C0D9D38B940460FF07DFD02AAF1
S31508003E7003A90DF0BEFD03A807218DF808108DF8DB
S31508003E800960310A8DF80A108DF80B40019001205F
S31508003E900090042302AA012140460FF0B6FB04460F
S31508003EA0FF2C1BD041460AF01EF917B92046FFF72A
S31508003EB055FF0DB9204611E040460DF09CFD18B19E
S31508003EC0204608F036FE05E000230022114620466B
S31508003ED00DF0A0FC204607F021FEFF2006B0BDE845
S31508003EE0F0812DE9F64F83B004461E460E9D002745
S31508003EF04FF6FF7856B14FF0010B30460FF0C3FB73
S31508003F0081467078400800F0010A05E0BB46104675
S31508003F100AF050F98146BA46DFF898050068007B32
S31508003F20032880F0A580691CC9B29DF8100007F027
S31508003F3088FF054605F0020002909DF80C0018B9A6
S31508003F40280658BF45F0800500F09AF8407B0228FD
S31508003F5004D1DFF8D8050078204301D1022721E0F3
S31508003F609DF80C0030B1B4F1010868EB08084FEA77
S31508003F70D87800E0B846BBF1000F03D0301D08F032
S31508003F8008F801E04FF6FF700121009143462A46E2
S31508003F90014648460DF026FD80464FF6FF708045DF
S31508003FA008BF0127DEB11CB94FF6FF70804504D162
S31508003FB0301D07F0EEFF014600E041460120019062
S31508003FC00097534642464846FFF745FF0298C0B257
S31508003FD050B94FF6FF7148460DF0B8FE04E03A4670
S31508003FE04146484608F032FD002F41D10298C0B23A
S31508003FF0F0B1494640460DF0CAFE0E2101FB00F716
S31508004000DFF8B0140968896A79184A7942F04002DB
S315080040104A710DF0EFFEDFF89C040068806A3818D4
S3150800402041796A064CBF41F0800101F07F01417178
S31508004030F6B1DFF8586C9DF810003070FFF769FB91
S315080040400FF2340C690648BF0CF1010CBAF1000FE7
S3150800405018BF0CF1020C02D10CB90CF1040C4B463A
S31508004060424601469CF800000FF09EFCFF20307087
S3150800407005B0BDE8F08F0000030700040105000045
S31508004080DFF83004006870472DE9FE4F044688467D
S315080040901646404609F0F4FF8146DFF83054297C7D
S315080040A001B101218DF80510DFF808743868007B26
S315080040B005280CBF012000208DF8040044B14846AD
S315080040C00FF0E1FA824648460FF0D0FA834605E03B
S315080040D040460AF06FF88246DFF818BC00200090C8
S315080040E004233246414602A807F0B5FD0DF1090042
S315080040F007F04FFF80469DF80B60B4B10822DFF841
S31508004100F41B584604F0A6F800285FD13868407BAF
S31508004110022808BF002E08D14046FFF7FEFA0EF027
S3150800412047FD9920FFF75BF950E0FCF71BFA0028DA
S315080041304CD09DF805009DF80410084301D014B929
S3150800414044E0002C42D11EB19420FFF74FFC3DE01D
S315080041505146386840880DF01AFE0DF04BFE52465F
S3150800416038684188404600F04EFC3868417B012992
S3150800417016BF31291121432141730220FFF7DCF8CC
S3150800418040F6B83105F11800FDF7C7FB0CF08BFBBC
S315080041900020E8743868C17E21B905F11800FDF7DA
S315080041A0B1FB11E034B199F80110890702D5FFF780
S315080041B0DAFB09E0007B042806D3052105F118007F
S315080041C0FDF7ABFB0620E874AD202875FFF77DF8F0
S315080041D0BDE8F78F2DE9FE4F044609F051FF054665
S315080041E009F095FF064606EB0509204609F03DFF4E
S315080041F03518EDB2204609F0DDFF804699F80070C3
S31508004200FCF7D0F9002818BF072F14D105F1030AC7
S315080042104FF6FF7BA74E012F0ED0022F14D0042F86
S3150800422000F0C180062F15D0072F66D0082F22D0A0
S315080042307C2F00F08180E0E00095002322460021D3
S315080042400846FFF74EFED8E02A4621460020FFF72B
S315080042501BFFD2E040460DF0C7FB584503D0014688
S31508004260404608F0A4FB3068407B022802D140464D
S315080042700AF05CFCC1E0691C00F0C1F807465FFA69
S315080042808AF100F0BDF88246A91D00F0B8F8054687
S315080042905D45EFD00CF007FB3068407B132808D14A
S315080042A000F02BFC204609F085FF014650460DF02C
S315080042B06EFD3068407B022818BF13281CD128469B
S315080042C0FFF72BFA3846FFF730FA0021002000F0F6
S315080042D0B5FB4146504600F0A8FC7C48C078DFF89C
S315080042E0181A087000F00CF93068417B132903D1BD
S315080042F02321417304F0A3F87FE03068407B02284D
S3150800430002BF894C2079002877D103F0D8FF0546EB
S31508004310012021568840C0EB00181FFA88F60020B5
S31508004320FFF70AF895FBF6F006FB1050411C89B218
S31508004330201DFDF7F2FA60E099F80100652804BF30
S3150800434099F802006D2858D175480068205C5FFA14
S315080043508AF5854251D20822414601A803F030FF6A
S3150800436000AB0022294620460FF03EF8002844D12B
S315080043709DF80000FF2840D0DFF8805901202870FA
S31508004380DFF808693470FEF7DCFF9DF8001001A815
S315080043900AF0C1FBFEF7DBFFFF2030700020287013
S315080043A09DF8000027E0204609F023FF0546DFF8C0
S315080043B050090078FE2809D3204609F06BFE000B49
S315080043C000F0010128460AF0ABFB16E00FF678105C
S315080043D00088ADF8080000F016F828460FF015F921
S315080043E00446FF2C09D0294609F07DFE0021204607
S315080043F0FEF7E4FC204607F091FBBDE8F78FC9B24B
S31508004400204607F0D0BD002001900090022302AAA2
S315080044100121704738B50220FEF78FFFFEF796FF99
S315080044202A4C00202076234D08F0D9FB28B12868AD
S31508004430C07E10B9FFF797FA3AE008F0D0FB10B93A
S31508004440FCF790F848B1E07C38B100F035F8E07C2C
S31508004450401EE074FEF7E9FC2AE02868407B132832
S3150800446009D0FCF77FF830B92868407B11281CBFB3
S315080044704328412803D1207DFFF7B8FA18E002281F
S3150800448018BF032803D0002818BF212810D10024FC
S31508004490DFF8705808E02046FEF758FF002000F0C5
S315080044A0F7FBFEF754FF641C2878E4B28442F2D383
S315080044B05FE300009C2C0020C82104F11800FDF7DA
S315080044C02CBADFF844080021C1747047F025002093
S315080044D080B50020FEF731FFFEF738FF12480021AD
S315080044E00171DFF894040068417B022904D1007B3E
S315080044F0032838BF08F0C9FABDE80140FEF727BF10
S3150800450080B5FEF729FFFF2804D00848007810B1C7
S31508004510012000E00020DFF8F417087001BD000054
S31508004520602400203C26002014260020B02C002001
S315080045302DE9F04F8BB00446DFF8D4070068255CF8
S31508004540204607F077FA0746B81D07F022FD06460B
S3150800455007F1090007F01DFD834607F10B0007F078
S3150800456018FDADF8020007F10D0007F012FD8046B0
S315080045704FEAD039FCF716F818B12046FEF704FCC6
S31508004580E4E001A92046FFF7BFF99DF80600C0F34D
S31508004590C30A9DF8050000F00F008DF80000202DD5
S315080045A0ACBF9DF812700027DFF8CC030068407B8B
S315080045B0022811D1FFF7B5F883450DD109A800F0F7
S315080045C01EFB1C2D06DB08220DF1070109A803F0C6
S315080045D041FE08B100F017FDB6F5004F02BF28F4FA
S315080045E0404040F6FF718842CAD11C2DC8DB002224
S315080045F008210DF10700FBF790FF00282FD1DFF8FF
S3150800460014070078012826D1DFF80C0700788DF802
S315080046101600ADF814B08DF817909DF800008DF8C7
S3150800462020008DF8217008220DF1070106A803F075
S31508004630C7FDFFF725FD407BDFF8505601281CBF54
S3150800464033282C70FEF77DFE05A802F0B1FDFF2089
S315080046502870FEF77CFEDFF8B056A87C002875D1D6
S31508004660FBF780FF002871D001206874002208211A
S3150800467005F10800FBF751FF10B1E888834508D01B
S3150800468008220DF1070105F1080003F0E3FD0028F3
S315080046905CD1B9F1000F06D1B7480068407B3128D4
S315080046A018BF332852D101219DF80000FFF7D6F82C
S315080046B000284BD09DF80400002802BF9DF805008D
S315080046C00009022842D1AC480068017B9DF8062003
S315080046D0022902D1500709D438E0120606D4052962
S315080046E01EBF4088BDF8021088422FD1DFF82C661D
S315080046F0DFF82CB62878FF2812D0687987420BD1C4
S3150800470095F902009BF90010884209DB1ED16878EA
S315080047103178884204D319E0381AC0B2812815D2F4
S31508004720FFF7E5F82C70204607F0EAF9307868704C
S315080047309BF80000A87050460F2834BF0AF1010004
S315080047400F20E8709DF8000028716F710BB0BDE866
S31508004750F08F2DE9FF41064688461746DFF8A8453B
S315080047600120A074FEF738FD00280BD1012E18BFD2
S31508004770002E08D1FEF7E5FD3946404602F02DFD2C
S31508004780FEF7E5FD9CE0FBF70DFF28B13A464146EA
S315080047903046FEF7F8FA93E0774D2868407B2328E1
S315080047A00BD1FBF73DFE0446FBF73EFE214603F020
S315080047B0FEFA0220FBF740FE82E0002FFCD12128FA
S315080047C01CBF0428532802D10EF03CFB78E0FBF707
S315080047D0C9FE002856D02678FF2E05D1607C002811
S315080047E00CBFAB20942060E02868007B0328894131
S315080047F0C943C90F2079FFF731F808B9982054E062
S315080048000AF032F80521304609F029FC2968887330
S31508004810FEF75BFD207C40BB2868007B052824D07A
S3150800482000F0F8F980460921304609F0FDFB0746F5
S315080048300B21304609F0F8FB4246394608F0EBF8FA
S31508004840B8B9942020750220FEF776FD2868417BCA
S31508004850012906D0312918BF33290CD1007B042839
S3150800486009D3FFF729FE03200AE0FFF78BFA002891
S31508004870E7D1942019E04FF41671FFF71EFE0020C9
S31508004880E0741DE02868407B132814D100F016F95F
S31508004890BDF80000FEF749FF00F02FF92868017BF4
S315080048A0032905D3332141739620FFF79FF807E0C4
S315080048B0FFF77EF804E0022E04BF40460CF00AF922
S315080048C04FF400600DF08AF810B90CF0F4FF08B147
S315080048D007F00AFCBDE8FF811FB5044600208DF8E5
S315080048E00000FFF7CDFB007840F020008DF80100AE
S315080048F0FBF758FE18B12046FEF749FA3AE00DF1E3
S31508004900030000F07CF90322FF210DF10B0003F0F0
S315080049109AFC00F036FA8DF80E00DFF8E40300780A
S31508004920FE2828BF0020DFF8FC130978091ADFF8EB
S31508004930F8231278DFF8F4331B789B1A9042B4BF39
S31508004940101A0020DFF8B0231278D20042F00402D1
S31508004950DBB2C0B2C018C9B28842B8BF42F0800202
S315080049608DF802200F2200A9204607F0E4F9401E20
S315080049708041C00F04B010BD9C2C002038B50446F9
S31508004980DFF8AC532868017BA14203D004732046A4
S31508004990FEF722FD1CB12868007B042805D3FEF724
S315080049A0A6FCFF2808BF012000D00020BDE8324041
S315080049B009F09EBF38B504460D46E87A0B38C0B2F2
S315080049C0102801D38A2032BD95F90A00FBF7D6FDD7
S315080049D008B18B2032BDD6480168EA7A8A73006826
S315080049E0A97AC1732046FEF798FE4FF6FE708442F8
S315080049F00CBF4FF6FF702889FEF797FEC248298933
S31508004A00C180002032BD38B50C461546FEF785FE36
S31508004A100EF07CFB2946204600F007F9BA480178D3
S31508004A20FF2918BFC07806D1C1480068007B012855
S31508004A300CBF00200120B049087031BD7FB504467F
S31508004A400D4600F03BF8BA4E94B1BA4A0021284602
S31508004A5000F0ADF9306801788DF80410007B8DF808
S31508004A6005000822214602A803F0AAFB0DF09FFBC9
S31508004A703068817B8DF80310C07B8DF80200FEF745
S31508004A8050FEADF80000FEF744FEADF8060000F053
S31508004A9017F87FBD1FB5044600F010F81CB10020BA
S31508004AA08DF8050007E0FEF734FEADF80600FEF7C0
S31508004AB038FEADF8000000F003F81FBD00A833E08B
S31508004AC01023072200A9002006F034BA00B58BB0DF
S31508004AD0FFF7F4FFBDF80000ADF818009DF80300D5
S31508004AE08DF81B009DF802008DF81A0004A9BDF880
S31508004AF00600FFF75FFF0BB000BD1FB5012000F0F1
S31508004B00A0F804460DF05EFBFFF7D8FF1CB900229B
S31508004B104FF6FF7103E0FFF7B3FA021D4188BDF8AF
S31508004B200600FFF770FF1FBD10230722014601206C
S31508004B3006F000BA38B50620FEF7FFFB0446FEF776
S31508004B4005FC7B4D28687C4909788173FEF7FCFBD8
S31508004B50A04208BFFEF78FFB00210020FFF76EFF7B
S31508004B609B20FEF73CFC28680021A0F84410A0F81A
S31508004B704610BDE83140FEF7EABB80B5A0F10B014F
S31508004B80C9B2102901D38A2002BD69490968497B3F
S31508004B90022918BF032901D0702002BD6649087092
S31508004BA00620FEF7C9FB00216448FEF793F920B1F9
S31508004BB0012808BFFFF7BEFF01E0A12002BD0020C3
S31508004BC002BD1FB50446FBF7EDFC18B12046FEF7FB
S31508004BD0D3F812E000A8FFF7A7FF9DF8050040B13B
S31508004BE0062806D25249096809789DF80420914298
S31508004BF001D0932001E02070002004B010BD1FB53D
S31508004C00044600A8FFF790FF082202A9204603F0F1
S31508004C10D7FA1FBD4A48007800B1402044490968C0
S31508004C20097B484A895C08437047414A136858809B
S31508004C3019B90822181D03F006BB0822181D03F02F
S31508004C40BFBA10B584B004462F4890F82000C007B4
S31508004C5011D50A230A2200A9012006F06BF9BDF82E
S31508004C6008004FF6FF71884205D00822FF2100A8E8
S31508004C70FBF753FC08B1002006E024B100A9BDF8F3
S31508004C800800FFF7D2FF012004B010BD4827002016
S31508004C9070B584B004461C4D95F82000C0070CD5A5
S31508004CA0234E306841884FF6FF72914207D10022A1
S31508004CB00821001DFBF731FC08B1002017E044B1BC
S31508004CC00220FEF739FB782105F11800FCF72CFEC7
S31508004CD00CE030684188ADF808100822011D00A8CC
S31508004CE003F06EFA0A230A22FFF7ECFE012004B04D
S31508004CF070BD0000BC2C0020ED2F0020A42C002045
S31508004D00C12F002033270020F0250020EE2F002099
S31508004D10602400203C260020E52F0020E32F0020F9
S31508004D20E42F00203C270020DA2F0020D92F00206E
S31508004D309C2C002000F8FF07D82F0020354B0008D0
S31508004D40FC210208C821020804600000C8480021A6
S31508004D5001714FF6FF718181704730B583B0044603
S31508004D600D460823092200A9012006F0E3F814B12C
S31508004D709DF8060020700DB100982860BDF8040063
S31508004D803EBD80B5002100A8FFF7E7FF9DF80000AB
S31508004D9002BD10B582B0044600A90020FFF7DDFF6A
S31508004DA0009A0146204600F002F8204616BD00B5D6
S31508004DB083B08DF80600ADF8041000920823092286
S31508004DC000A9002006F0B6F807BD2DE9F04385B026
S31508004DD081460EF039FC0646A648006819F80050C8
S31508004DE0002000900A233246494602A806F033FFFF
S31508004DF00A369DF8080009280CBF012700279DF8E8
S31508004E000900E021084266D100A8FFF7F8FE08224B
S31508004E100DF10A0100A803F01DFA00285BD1002F46
S31508004E204CD000F011F9002855D0914FB8894FF6AB
S31508004E30FF7840451CBF4FF6FE7188424BD1387843
S31508004E40001D38708C490978491E8900C0B2814214
S31508004E5041DA0020387003F032FAB881344607E0A8
S31508004E602146484607F09FF8B9898842F3D0A41C22
S31508004E70E4B2681E8442F3DBB889002818BF4045AF
S31508004E80E9D0FEF74EFCB9898142E4D0FFF779FFF5
S31508004E90401CC0B2FFF77DFF0146BA890A2000F020
S31508004EA04BF840B14FF47A71381DFCF736FD0A20ED
S31508004EB0FEF742FA0FE0A7F80C800CE0F1B248467C
S31508004EC006F0BFFFFFF765FF711CC9B2484607F039
S31508004ED06AF800F07AF805B0BDE8F083644801780E
S31508004EE009B1491E0170704738B5614C0020207120
S31508004EF00A20FEF722FAFEF729FA60480068407B86
S31508004F00022818BF032813D1A0894FF6FF754FF65C
S31508004F10FE7188420CBFA581A84209D0FEF705FCA0
S31508004F20A58100210020FFF789FD9A20FEF757FA90
S31508004F30BDE83140FEF70BBA2DE9F04786B00546C5
S31508004F400C4691460026092D0CBF01270027002193
S31508004F500846FFF702FF80468DF8085002AD01208B
S31508004F6068700DF10A00FFF74AFE0DF1120A17B92B
S31508004F70AC720DF1130A4946504607F010F80AF1CB
S31508004F8002000FB94FF6FF780196009602A9431A58
S31508004F90DBB202AA642140460EF037FB0446FF2C1A
S31508004FA00FD03FB100F050F820B12046FFF70DFFB3
S31508004FB0012603E0204607F01FFE0646204606F0B7
S31508004FC0ADFD304606B0BDE8F08738B504464FF665
S31508004FD0FF75AC4216D0FEF7A4FB844212D02448D3
S31508004FE08189A9421CBF4FF6FE7291420AD184817B
S31508004FF04FF47A71001DFCF790FC0A20BDE8324098
S31508005000FEF79AB931BD1D480068007B042800D315
S31508005010704738B5164CA0894FF6FF71884212D1F1
S31508005020FEF77FFB0546F021201DFCF77DFC0A20D4
S31508005030FEF782F94FF6FE70A0812A460021092064
S31508005040BDE8384078E731BD10B50C480068007BEC
S3150800505004280AD2FEF75DFB044600210020FFF76C
S315080050607CFE844201D1012010BD002010BD000045
S315080050707426002060240020412700209C2C002054
S3150800508010B5DFF844451020206303F003FCDFF871
S315080050903C150A6842F001020A6003F001FCDFF8D9
S315080050A03005606020606168893161600121216393
S315080050B08A30E060A060E0688930E0600220206302
S315080050C0DFF810054FF6FF71016010BDDFF808051F
S315080050D045F26401C1601E21416250210162C82166
S315080050E0C1618165F021C16545F690014166882157
S315080050F081660621C16644F2066101604FF6FF71BA
S315080051004160DFF8D804007838B1DFF8D40448F2F3
S31508005110607101604FF4C1514160DFF8C80401684D
S3150800512041F004010160DFF8C004002141707047B6
S315080051302DE9F84F0446DFF8B4148A2202FB001260
S31508005140121D0092521C5378127802EB03221FFAA2
S3150800515082FB0BF440424FF000094FF0010A0BF4B2
S3150800516040630425B3F5006F08BF082503D0B3F5DF
S31508005170406F08BF0E25130004D05FEA4B635CBF7F
S31508005180AB1CDDB2DFF868341B784B705FEA8B63C3
S3150800519074D5DFF86064736E1B066FD547180098E0
S315080051A028184FF40068B2F5404F07D107F0C3FC42
S315080051B05FEA000927D005F108000EE0B2F5004FB6
S315080051C021D140780099695C01EB002080B20EF08D
S315080051D0CBFBFF280CD1CA46A81CC0B241080BF06D
S315080051E00702032A0FD1002C14BF7268326815E033
S315080051F0DFF80414096831F810004FF4FE6108421C
S3150800520018BFD146E8D10020B870F06DC00635D574
S31508005210B06C002C08BF4FF4806828E08A42F2D3AD
S31508005220002C14BF726832684B1C9A42F8D3009956
S31508005230405C0428E7D1BAF1000F02D10020B8700B
S3150800524004E00020B870B9F1000FDED0F06DC0069A
S315080052500AD4B06C0CB94FF4806810EA080F03D072
S31508005260706C40F0010070640120B87006E010EA26
S31508005270080F03D0706C400840007064BDE8F18FD9
S315080052802DE9FC4E0446DFF864B38A2000FB04B01F
S31508005290071DDFF86053002C0CBF286868684600B5
S315080052A0C0B2052805D24FF4F6710FF2783000F037
S315080052B099FC5FFA86F909EB0700A0F10806307831
S315080052C0717801EB00201FFA80FA9BF80100307014
S315080052D0FEF73AF87070C94EF06B20F48050F06310
S315080052E0686ED4B9306840051CD41AF4E45F0FD14F
S315080052F009F083FB10B15FEA4A4009D5387880285F
S3150800530006D204EB0B008278494638460AF092FC2E
S31508005310002C0CBF0120022020E0012CE5D13068CA
S315080053200005E2D5B648017881B100210170B5487B
S3150800533001681AF4E45F02D00022402004E078787D
S31508005340000900F001028F200EF089FD002C0CBF29
S315080053504FF480604FF400603060D9E72861BDE8FB
S31508005360F38E2DE9F84F9B4C2068216C01EA000565
S31508005370A04EDFF894A2DFF88882DFF87092A34F78
S315080053801AE040B14878C00605D400229D48016855
S315080053908F200EF064FD280605D50EF0ABFD25F02E
S315080053A0800580202060E80506D50EF0A3FD25F4CB
S315080053B080754FF480702060002D68D0280706D5C8
S315080053C00020FFF7B5FE25F0080508202060E8064E
S315080053D006D50120FFF7ACFE25F010051020206049
S315080053E005F06000602803D1B06CC0050AD401E05E
S315080053F0A80605D525F0200520202060002006E017
S31508005400680606D525F04005402020600120FFF7F4
S3150800541037FFE80410D525F480554FF480502060F6
S31508005420D7F800B0082038607868000548BF08F04B
S315080054302FFF1FFA8BF03860E807ACD56D086D00B2
S315080054400120206099F800000028A4D009F04DFA40
S315080054500128A0D198F8000000289CD09AF80000EE
S31508005460042898D1F068400800F001008A2101FB61
S315080054700091091D002814BF7268326812B92268A3
S31508005480D204F7D5002814BF7068306879E7002081
S315080054902060BDE8F18F5E4800687047F0B589B0B6
S315080054A004460D46002103200EF098FD04AE1BE0CD
S315080054B000270EF0AEFD26F817000EF0AAFD00A98B
S315080054C021F817007F1C082FF3DB04A80EF05AFEFC
S315080054D000202080218836F8102051402180401C69
S315080054E00828F7DB6D1EA41CEDB2002DE0D10EF0E6
S315080054F0CCFD012009B0F0BD032102200EF06EBDDF
S31508005500F8B529244FF6FF750EF083FD281A90FB8F
