S01E00006170702D626F6F746C6F616465722D737069666C6173682E733337B6
S31508000000000400206D180008AD130008AD130008A1
S31508000010A70B0A0100000000010254610040000815
S31508000020040A0000D70F0008671300087C030008BD
S3150800003029080008B9080008F7080008B7090008E1
S31508000040FD060008FD090008C90A000800000000AE
S315080000500000000010B50446002000F059F824BB43
S31508000060002000F029F950B9012000F025F930B92F
S31508000070052000F04DF840F2012000F083F9042035
S3150800008000F046F8012000F043F8BDE8104040F2C1
S31508000090032000F077B90FF2340000F0BEF900F043
S315080000A0B1F940F2022000F06DF900F09AF8040068
S315080000B0F1D00FF2200000F0B0F9204600F0B8F9B0
S315080000C001A000F0AAF9F0E70D0A00000D0A4F6B2F
S315080000D00D0A00000D0A4552522000000020704704
S315080000E080B500F0DBF90121062000F0E4F90620CE
S315080000F000F00BFA0121072000F0DDF9072000F0D7
S31508000100F7F91748016821F01001016001BD0000E8
S31508000110052800D9704710B5DFE800F01721030F4E
S315080001201C17104C2088411E2180C0B9072000F0FA
S31508000130F9F942F21070208010BD072000F0E5F9A9
S31508000140BDE81040062000F0EDB9BDE810400620D5
S3150800015000F0CEB9BDE81040062000F0D6B910BDB3
S3150800016000BC0040B40C00200078704700210160F4
S315080001708180C18001817047F8B504460D46164650
S31508000180002711E02068803020600020E080802071
S315080001902081A088401CA080BFB2E088411C204472
S315080001A0E180807AE8557F1CB8B2B0420CD2E0886C
S315080001B021898842F0D32068802204F10A0100F0E0
S315080001C07BFB0100DED0F2BD0020F2BD1720704790
S315080001D010B5044600F06BF92046BDE8104000F063
S315080001E016B92DE9F041A4B000F0FAF800F05FF96D
S315080001F000F04CF90121684600F080FD3F4C04F1FF
S31508000200800500206860A86000F078FA00280FBF13
S31508000210E8608168E96040882880684600F03DFE0D
S315080002200028074644D1BDF80610BDF804600DEB5A
S31508000230010000F10A0828788007F6B20ED5E968A9
S3150800024061B1686832184B1E22EA030710B1A86824
S31508000250B84203D2384600F0D1FBAF603246686830
S31508000260414600F048FB074680B968683246214691
S3150800027000F022FB002000E0401CB04206DA215CB8
S3150800028018F800209142F7D0832706E068683018EE
S31508000290002F6860C1D01B2FBFD00420FFF738FF9E
S315080002A00121384600F081FD384624B0BDE8F081CA
S315080002B0172FF0D10020F8E770B5DAB0044636A853
S315080002C0FFF754FF012000904FF402630C4A36A949
S315080002D001A800F080FE0FF2A4050FF2940600F0C4
S315080002E0E6F8200014BF3246002201A9284601F08C
S315080002F03AF85028F3D05AB070BD0000240C0020FC
S315080003000404002038B501F055F8044601F0F2F867
S31508000310B4F58A7F40F2111508D100F061F800F0B3
S315080003209BF80028FBD0284600F02CF8FFF7D8FEEB
S3150800033000F07AFA18B14FF4017000F023F800F0D3
S31508000340B6F840F20110844218BFAC4209D0B4F5A1
S315080003508A7F1FBF40F20520844240F20320844270
S3150800036001D1012000E00020FFF774FE002032BD15
S315080003709B180008D71800086901000879010008C9
S31508000380CD0100080E4A302111600E4A11600E4A4E
S31508000390116010210D4A1160010A00290C4908BF95
S315080003A0000208804FF20F004880BFF35F8F0948AC
S315080003B0002101604160084808490860704700004C
S315080003C03020004030C8004030C0004010E00040F7
S315080003D0000000201C4000400400FA050CED00E077
S315080003E080B52748682141610221816001210160A9
S315080003F00920092100F05FF8BDE8044004210A201D
S3150800040000F059B81F4800684006FBD570471E49DA
S31508000410CA685207FCD50860704710B5044603E061
S3150800042014F8010BFFF7F3FF20780028F8D110BD68
S3150800043010B5044600090A28ACBF37303030C0B2C0
S31508000440FFF7E5FF04F00F000A28BDE81040ACBF2F
S3150800045037303030C0B2DAE70A48006810F00200D8
S3150800046018BF0120704710B50446FFF7F5FF20B105
S31508000470054800682070002010BD012010BD00004E
S3150800048054C8004048C800403CC8004080B568468B
S31508000490FFF7E9FF0028FAD001BD00001148012145
S315080004A081604EF6BE2141600121016070470E4908
S315080004B0012008607047F0B5C20852020B4CA51817
S315080004C0830010F0040014BF6E68A65803F00C03EE
S315080004D00F279F40BE439940314308B16960F0BD7C
S315080004E0A150F0BD006000400860004000B0004028
S315080004F0C108032908DA012100F007029140C00863
S31508000500104A02EB402001607047C108032908DA47
S31508000510012100F007029140C0080B4A02EB402077
S3150800052001607047C10803290ADA084A02EB41212B
S3150800053001230A6800F0070003FA00F0504008603B
S315080005407047000014B0004010B000400CB00040E6
S3150800055010B5044602E0FF2000F0CEFF2046441EF8
S31508000560C0B20028F7D110BD10B5044601E000F06E
S31508000570C9FF2046441EC0B20028F8D110BD10B5E8
S3150800058004462002000E00F0B7FF2004000E00F01B
S31508000590B3FFE0B2BDE8104000F0AEBF10B500F002
S315080005A0B1FF044600F0AEFF40EA042010BD80B556
S315080005B001E080B5FF2000F09FFFBDE8014000F094
S315080005C0A1BF38B500F0A5FF9F20FFF7F0FFFFF7A2
S315080005D0F0FF04460220FFF7BBFFFFF7DFFF0546E3
S315080005E000F099FF012C0AD01F2C3ED0202C4FD0AA
S315080005F09D2C60D0C22C15D0EF2C06D072E044F2A8
S31508000600140085426ED1012032BD43F212008542A4
S3150800061004D044F21400854202D063E0022032BDC1
S31508000620032032BD42F212002D1A10D06D1E10D0D2
S315080006306D1E10D06D1E12D04FF4A4602D1A10D066
S3150800064040F2DF202D1A08D0ED1E0CD04AE0042017
S3150800065032BD052032BD062032BD072032BD082036
S3150800066032BD092032BD0A2032BD44F2014085421E
S3150800067008D044F20150854208D048F2014085422C
S3150800068002D02FE00B2032BD0C2032BD0D2032BD2A
S3150800069042F212002D1A06D06D1E06D06D1E06D027
S315080006A06D1E06D01EE00E2032BD0F2032BD102072
S315080006B032BD112032BD44F209002D1A08D0ED1FB3
S315080006C008D06D1E08D06D1E08D06D1E08D009E032
S315080006D0122032BD132032BD142032BD152032BD82
S315080006E0162032BD002032BD80B500F012FF06206C
S315080006F0FFF75DFFBDE8014000F00DBF80B500F0D3
S31508000700E3F90028FBD1FFF75CFF401E15284ED8F9
S31508000710DFE800F00B0E1114171A1D202326292CCA
S315080007202F3235383B3E4144474A0FF2C03002BDAE
S315080007300FF2D03002BD0FF2E43002BD0FF2F430F2
S3150800074002BD0FF2084002BD0FF2184002BD0FF2BB
S315080007502C4002BD0FF23C4002BD0FF2504002BDD4
S315080007600FF2604002BD0FF2744002BD0FF28440E2
S3150800077002BD0FF2984002BD0FF2A84002BD0FF26B
S31508000780BC4002BD0FF2CC4002BD0FF2E04002BDF4
S315080007900FF2F04002BD0FF2045002BD0FF21450E2
S315080007A002BD0FF2285002BD0FF2385002BD0020DC
S315080007B002BD000010B5044600F086F90028FBD1FA
S315080007C014B9FFF7FEFE05E02078010002D1FFF715
S315080007D0F8FE2070401E152824D8DFE800F01A1409
S315080007E01A14171A1A1D1D2017171A14171A1D0B73
S315080007F00E1114174FF4004010BD4FF4803010BD91
S315080008004FF4003010BD4FF4802010BD4FF4002087
S3150800081010BD4FF4801010BD4FF4001010BD4FF4FA
S31508000820000010BD002010BD10B500F08BFE00F0D2
S3150800083076FE00F09CFE00F09BFE42F21074204605
S3150800084000F092FE00F065FEAB20FFF7B0FE00F068
S3150800085062FE204600F088FEFFF7B3FE08B9862040
S3150800086010BD0B3803280BD2FFF73EFF00F051FEF0
S315080008700120FFF79CFE0020FFF799FE00F04BFED3
S31508000880002010BD10B50C18B4F5802F01D8012032
S3150800089010BD1046FFF78EFFA0428041C043C00F2F
S315080008A010BD10B50C46FFF782FE2046FFF767FE1F
S315080008B0BDE81040032057E670B50D4600F076F8FF
S315080008C008B9852070BD00F0FFF80028FBD100F0BC
S315080008D020FE21460320FFF7E4FF03E0FFF769FE49
S315080008E005F8010B3046461E80B20028F6D100F006
S315080008F012FE002070BD2DE9F84F894600F056F823
S3150800090008B9852050E0374600F0DEF80028FBD10C
S3150800091000F0FFFD21460320FFF7C3FF3846471EB8
S3150800092080B228B1FFF745FEFF28F7D087203BE0C5
S3150800093000F0F1FD200640F201174FF4807808D048
S31508000940200A000200F580703119814203D3051B85
S3150800095004E0BE4201DA354600E04546300022D0C2
S31508000960AB46CA4600F0B0F80028FBD1FFF7BCFE3C
S3150800097000F0CFFD21460220FFF793FF03E01AF8A7
S31508000980010BFFF714FE5846A0F1010B80B20028B0
S31508000990F5D1761B00F0BFFDADB22C19B6B2BE423A
S315080009A0A944DADAD7E70020BDE8F28F16460446EE
S315080009B00022314666E780B500F086F80028FBD1AC
S315080009C000F0A7FDB920FFF7F2FD00F0A4FDBDE891
S315080009D0014000F0CEBD38B504460D4600F074F867
S315080009E00028FBD1FFF780FE00F093FD294620463C
S315080009F0FFF757FFBDE8314000F08DBD2DE9F843FC
S31508000A00044600208DF800000D466846FFF7D2FE22
S31508000A109DF800108046A1F10E0240F6FF764FF6CB
S31508000A20FF70042A4FF48037814638BF064607D33D
S31508000A30A1F1120002283CBF4FF4004747F6FF79A0
S31508000A40354218BF82203DD1344218BF812039D1A2
S31508000A506A46A9B22046FFF715FF08B9852031E096
S31508000A60BCB9454515D100F02FF80028FBD1FFF792
S31508000A703BFE00F04EFDC720FFF799FD00F04BFD49
S31508000A801FE021462020FFF7A6FF04F58054A5F5B0
S31508000A908055002D18BF14EA090FF2D1BD420ED3B6
S31508000AA02146D820FFF797FF3C19ED1BF6E72146AC
S31508000AB02020FFF790FF04F58054A5F58055002DFA
S31508000AC0F5D10020BDE8F28310B500F022FD05201F
S31508000AD0FFF76DFDFFF76DFD044600F01CFD14F0F1
S31508000AE0010018BF012010BD00000000020103002C
S31508000AF09A01003C001000000000100024190008AC
S31508000B0001000000020103009A010008001000001D
S31508000B10000004003019000801000000020103006B
S31508000B209A01001800100000000010003C19000887
S31508000B3001000000020103009A01340F00100000B2
S31508000B400000040048190008010000000201030023
S31508000B509A01001E00100000000008005419000841
S31508000B6001000000020103009A01003C0010000089
S31508000B7000001000601900080100000002010300CF
S31508000B809A01007800100000000010006C19000897
S31508000B9001000000020103009A010078001000001D
S31508000BA00000200078190008010000000201030077
S31508000BB09A01005000100000000020008419000867
S31508000BC001000000020103009A0100C000100000A5
S31508000BD000008000901900080100000002010300CF
S31508000BE09A01001C00100000000008009C1900086B
S31508000BF001000000020103009A0100300010000005
S31508000C0000000800A81900080100000002010300FE
S31508000C109A0100700010000000001000B4190008C6
S31508000C200100000002010300000C0018000001008A
S31508000C3000000400C01900080100000002010300BA
S31508000C40000C00280000010000000800C819000870
S31508000C500100000002010300000C00500000010022
S31508000C6000001000D019000801000000020103006E
S31508000C70000C00A00000010000002000D8190008A0
S31508000C8001000000020103009A01000200100000A2
S31508000C9000800000E01900080100000002010300BE
S31508000CA09A0100040010000000000100EC19000879
S31508000CB001000000020103009A010006001000006E
S31508000CC000000200F81900080100000002010300F4
S31508000CD09A0100080010000000000400041A000829
S31508000CE001000000020103009A01000C0010000038
S31508000CF000000800101A0008010000000170012217
S31508000D0001290CBF80214021818042700021827018
S31508000D10C1800181204801600E218162016821F0AD
S31508000D2010010160002141634162426170472DE96B
S31508000D30F041194F194E044600F032F890464FF02C
S31508000D40FF303060C7F82C80002078620D4638687E
S31508000D5040F001003860FFF7AAFB012C0FD135B926
S31508000D60FFF77AFB00F0010080F0010002E0284658
S31508000D70FFF779FB28B900F013F800200AE00120F4
S31508000D8008E03068C007E6D55FEA0800E3D000F05F
S31508000D9007F81620BDE8F08100F0004000A80040E2
S31508000DA03868400840003860704738B504460D4634
S31508000DB000F009F800F007F82A462146BDE8384051
S31508000DC01820FFF705BA2A4621461820FFF700BA69
S31508000DD070B5044682B0002020814AF6B4322078E5
S31508000DE06946FFF7A4FF08B11C2076BD9DF80000F0
S31508000DF0032818BF182801D1182076BD042801D168
S31508000E00172076BD012801D0212076BD002500E0F7
S31508000E106D1CA188EDB2091D8D420BDA601900F12F
S31508000E200A01207840F2DD22FFF781FF0028EFD083
S31508000E30262076BD0025002006E00146EDB26019A1
S31508000E406D1C007B00F096FBA288E9B29142F4D3B0
S31508000E50A37AE17AC918FF2901D0222076BDA51800
S31508000E602E7BB6EB102F01D0232076BD697BC0B24E
S31508000E70814201D0242076BDA078834207D0401E47
S31508000E80C0B2834201D1272076BD252076BD901CAD
S31508000E9020810220E080002076BD38B504466078BF
S31508000EA0012804D040D303283CD033D33CE0207833
S31508000EB0012816D13B256846FFF7D5FA0028FAD04F
S31508000EC04320FFF7A4FA207840F2DD220021FFF73D
S31508000ED02EFF30B12846451EC0B20028F0D11B208F
S31508000EE032BD022060702046FFF772FF050018BF6A
S31508000EF0FFF7CCFA272D19D1A0782278411EC9B25E
S31508000F000620FFF765F9002DEDD10320FFF700F95C
S31508000F10002032BDFFF7BAFA00F023F8A078401C8B
S31508000F20A070E0E7172032BD182032BDA80603D509
S31508000F302278A1781520E4E7680603D4182D18BF8F
S31508000F401C2D07D121782846FFF72FFF0420607053
S31508000F50284632BD172DD6D100F003F8032060705D
S31508000F60E0E72278A1780620FFF732B9F8B50446FB
S31508000F700D4616461F4607E03046A047294600F0AC
S31508000F800CFB05467F1E761CB8B20028F4D128460D
S31508000F90F2BD38B50C46154605E0014614F8010BB6
S31508000FA000F0FBFA6D1EA9B20029F6D132BDF8B5DC
S31508000FB004460D4616461F46286823683A463146B3
S31508000FC09847040005D1E8683A463146FFF7E1FF3D
S31508000FD0E8602046F2BD70B58AB004460E98A07245
S31508000FE0238162600D46022228686946FFF764FC81
S31508000FF0BDF8000048B32868202201A9FFF75CFC69
S3150800100000200FF29C3101AA0B5C125C9A421CD19B
S31508001010401C0828F7DBBDF80C0040BAA8B90798A9
S3150800102001BA202911D306BAFFF768FBC0688642C1
S315080010300BD2202201A94FF0FF30FFF7AAFFC349C0
S31508001040884202D1079800BA286025604FF0FF3021
S31508001050E060002020740AB070BD2DE9F84F8B4679
S3150800106004469BF81B70D068B849802FA8BF802714
S3150800107088421E4653D1002E4FD0B06800904FF0DC
S31508001080FF384FF000090BEB490000F1480A9AF8BF
S3150800109000500DE0FFF70BFAE80240F000620098F6
S315080010A04FF400634146FFF761FF6D1C8046ADB201
S315080010B09AF80100A84205DA09F10109B9F1060F03
S315080010C002DAE0E7FF2DE5D1DBF844006FEA080114
S315080010D0884224D1A068736800BA7A0859469847A6
S315080010E0C8B9E06805BAA06802BAB0683B464FF0CE
S315080010F0FF31FFF73BFFC04385420CD140F6A720DE
S31508001100ABF810000122A068736800BA0BF1100151
S315080011101030984708B1422002E0172000E043202B
S31508001120BDE8F28F2DE9F04F894609F1040583B031
S315080011308046D5F800A0A888ADF800001446042318
S31508001140524600F00AF9010010D1BAF8000040BA78
S3150800115080B20190BAF8020047BABFB2F80706D5BE
S3150800116001984FF20861884218BF46207CD1B7F52E
S31508001170026FC8BF4E2077DC002F74D00198DFF8C5
S31508001180D0B109F13C0668B14FF20861401A6FD038
S3150800119040F2FC51401A00F0BF80FF387BD0FE3881
S315080011A079D0D1E0287B08B151205DE08D2F28BF8A
S315080011B04F2059D23B4609F1180200F0CDF801003C
S315080011C052D1F278802AA8BF802202F10C00874209
S315080011D001BFA88A40BA00F47F40B0F5007F45D128
S315080011E0E88A40BA4EF25031884202BF288E40F64D
S315080011F0A72188423AD1688E00F47F41B1F5807FF5
S3150800120001BFA96909BADBF81C3099422ED1BBF88F
S31508001210181040F2032399420DD1B0F5847F25DBDF
S31508001220706C410522D14B49081AB0F5683F1DD8A4
S31508001230B0F5005F1AD34FF6FF70288609F124012E
S315080012404FF0FF30FFF7A5FEE96909BAC94388429E
S3150800125004BF3078042809D170780A2818BF0628F0
S3150800126004D1012028730020BDE8FE8F4520FBE746
S31508001270287B002852D0BDF800008742B4BF3C4600
S315080012800446234600F06BF80100EDD13F1BBFB2C0
S31508001290002FF0D1E7E7287B00283FD0042300F091
S315080012A05EF80100E0D1DAF8000005BADBF81C00A8
S315080012B03F1F8542BFB238BF4820D5D3F16B781996
S315080012C0884228BF4920CFD201984FF60351884259
S315080012D00AD14CB1226829460220904720B14A20FB
S315080012E0C2E7BF1BBFB27519002FBCD0BDF80000FE
S315080012F08742B4BF3E460646334600F030F8010042
S31508001300B2D1002CEDD0636872085146284698473A
S315080013100028E6D04B20A7E7287B08B94120A3E799
S31508001320042F18BF4C209FD12A68042300F014F814
S31508001330010099D123464A4609F1240109F114000E
S3150800134003B0BDE8F04F88E644208DE7E320BBDE16
S3150800135000000008000004084946404627E65246B1
S315080013604946404623E670B50D4604462889802836
S31508001370164603DA4F2070BDA87A78B93246294650
S315080013802046FFF7CFFE0028F6D0172807D1286891
S3150800139061688847172802D1002070BD502070BDAB
S315080013A0534C4142494252200000000005E000002B
S315080013B0854670474248008870474FF40170FEF72B
S315080013C0E1BF38B5FEF78AFE4FF20F043D4D28B14E
S315080013D040F2052028806C80012032BD3A4800681A
S315080013E0C00615D56888A0421ED1288840F2022179
S315080013F088421CBF40F20621884215D040F20111EE
S3150800140088421EBFB0F58A7F40F2111188420BD080
S315080014102E4C208A40F6A721884205D12068FFF77E
S31508001420C7FF6068804700BF002032BD38B504009A
S31508001430274872B6016849084900016000F0BEF8FD
S3150800144021480068000910F001000CBF2149224913
S3150800145002E0CD2201F8012B204A9142F9D3204916
S31508001460204A214B03E011F8015B02F8015B9A421E
S31508001470F9D31E491E4A002301E001F8013B9142B7
S31508001480FBD3104A53884FF20F05AB4240F20521B1
S315080014900AD113888B4205D030B1180A012818BF23
S315080014A0022801D1194601E004B900210448018047
S315080014B04CF23C305080FEF725FFBDE832407CE711
S315080014C0B60C0020000000202C0000400040000858
S315080014D0FCED00E000000020980000200004002039
S315080014E0201A000800040020040400200404002038
S315080014F0BD0C002000F00EB917494A685207FCD502
S3150800150008607047144841688907FCD50068C0B26E
S315080015107047124900E0124908200860704780B5F4
S3150800152009210020FEF7C7FF04210120FEF7C3FFAB
S3150800153009210220FEF7BFFFBDE804400121032070
S31508001540FEF7B9BF07480021C1600161416010215B
S3150800155041600221016070473CC0004014B0004061
S3150800156010B0004054C0004080B200F0FBB870478D
S31508001570704770470A46090241EA12214840C0F3FB
S315080015800311484080EA003041010206C9B2D20E72
S3150800159041EA0221484080B270470A0A484000F0F2
S315080015A0FF0008214308C00746BF034858401846AD
S315080015B0491EF7D1504070472083B8ED6049512045
S315080015C00860704738B55F49C9780429B4BF302424
S315080015D060244FF4F071B1FBF4F1451A1E2DBCBF1F
S315080015E04FF40170FEF7CEFE5748584A07210160AE
S315080015F00021416081604FF00071116005FB04F124
S31508001600C91C8908491E416031BD4E4A01215170E5
S31508001610D8E72DE9F0414F4F4D4D7888494E4FF6A2
S31508001620FF78404540F2DC541CD14B480188022320
S315080016307F22B81C00F0A8F87888404504BF02202D
S315080016407880A869800703D4A86940F00200A861D9
S315080016500120B070788828602046FFF7D6FF20461C
S31508001660BDE8F081A8698007EED537480068C00351
S3150800167048BF00F051F8B0780028F0D1A868A968EA
S315080016807A8810F0010003D10F2A08D2521C06E00E
S31508001690890704D5397811B1032AA8BF424492B202
S315080016A0022A3870B8BF02227A8028687988884268
S315080016B0CED1A86900F00300032808D0A8692049FC
S315080016C040F00100A8610120E8615120086000206F
S315080016D0C6E710B504462148017869B9C0780728D5
S315080016E018BF092810D0032818BF11280CD01328B2
S315080016F01CBF15280B2807D01948016841F48071CA
S31508001700016001E000F02EF82046FFF782FF010095
S31508001710F8D110BD0220DCE70B480C4A00214160D5
S315080017208160016821F002010160002105484170CD
S315080017304FF000711160817809B1002181707047FE
S3150800174000800040B80C002010E000E004ED00E046
S3150800175004400040000400201C1A000896070808E8
S315080017603840004007490A68032809D34B6D43F0FF
S3150800177001034B650B689B1AC3F313038342F9D322
S31508001780704700003820004030B5044610467F28D0
S3150800179008BF00204BF23462914283B01AD1082365
S315080017A07F2240F612016846FFF7EEFF08220FF285
S315080017B03C01684600F037F830B908237F2240F22A
S315080017C0A2716846FFF7E0FF08226946204600F046
S315080017D011F837BD044D294300FB03111A4620466C
S315080017E000F008F837BD000000000808FFFFFFFFFB
S315080017F0FFFFFFFF814212D210441144401E491ECA
S3150800180093B2002B1EBF11F8013900F80139521E98
S31508001810F6D1704711F8013B00F8013B521E93B20E
S31508001820002BF7D1704710B500E0521E93B223B1D2
S3150800183000F005F8F9D0181B10BD002010BD10F8EF
S31508001840013B11F8014BA3427047000005480068A8
S31508001850202100EA010020B10348016842688D464C
S31508001860104770472C00004000400008FFF7EEFFC5
S31508001870FFF7A7FDFFF7DAFD2748018A40F6A772AA
S31508001880914202BF408A4FF47F41084203D10228A1
S3150800189001DB0120704700207047F8B504461D4E4D
S315080018A0012030700D46FFF7E7FF18B94FF40170B5
S315080018B0FEF768FD1848876A294644F48070B847D9
S315080018C0002131700FF2540618B9294644F4007005
S315080018D0B847305CF2BD2DE9F0410446884656000B
S315080018E0FFF7CAFF18B94FF40170FEF74BFD0A4817
S315080018F00FF22805476A0023324641462046B84774
S3150800190020B93346002241462046B847285CBDE840
S31508001910F0810000BC0C002000000808000202024A
S315080019204B4B4647533235464C3230384B00000055
S31508001930573235583230425600000000573235517A
S3150800194038304256000000004D5832354C3230309F
S31508001950364500004D5832354C3430303645000097
S315080019604D5832354C383030364500004D583235F2
S3150800197052383033354600004D5832354C31363002
S31508001980364500004D583235553136333545000059
S315080019904D583235523634333546000041543235C7
S315080019A044463034314100004154323553463034D0
S315080019B03100000041543235444630383141000088
S315080019C04D323550323000004D323550343000003B
S315080019D04D323550383000004D3235503136000022
S315080019E0495332354C51303235420000495332356D
S315080019F04C51353132420000495332354C51303161
S31508001A0030420000495332354C51303230420000E2
S31508001A10495332354C51303430420000EE0800004C
S30908001A200100FFFFB5
S7050800186D6D
