S01500006D66672D73616D706C652D6170702E73333788
S31508004000C8750020A5980108D1950108D39501081F
S31508004010A70A080100410008040A03AC00537A0104
S315080040200000000000000000000000000000000082
S315080040300000000000000000000000000000000072
S315080040400000000000000000FFFFFFFFFFFFFFFF6A
S31508004050FFFFFFFF00E0030800000000000000006B
S31508004060FFFFFFFFFFFFFFFFFFFFFFFFFFFFFFFF52
S31508004070FFFFFFFFFFFFFFFFFFFFFFFFFFFFFFFF42
S31508004080F07F002000000000F07F0020F07F002075
S31508004090C875002044A201085C9B0108686C0020D2
S311080040A0800600200000040800800020B4
S31508004100C8750020A5980108D1950108D39501081E
S31508004110D7950108D5950108D99501085096010843
S3150800412050960108509601085096010850960108C5
S31508004130DB950108509601080D9B01081F630008CE
S3150800414039950108509601084975000850960108E6
S315080041502BAA0008599A000850960108509601089B
S315080041605D900008755900088954000891410008B7
S31508004170509601085F9B0008A79B00085096010807
S31508004180EDA40008509601085096010851960108BA
S3150800419070B5A048A04942780B685B0724D5032A66
S315080041A022DA00EB420384889C810123847803FA8F
S315080041B002F222438270994C027892B1002522FAC3
S315080041C005F6F60708D54570AB405A40027000EB75
S315080041D04500808A206007E06D1CEDB2032DEEDBFA
S315080041E002E02260032242704FF6FF700860BFF3B8
S315080041F05F8F70BD38B500F01DF986490A78FAB1A7
S31508004200864B1C68E4071BD4002422FA04F5ED0744
S3150800421011D50125A5404C706A400A7001EB44018E
S315080042204FF6FF72898A19607B490A604FF400626B
S315080042307B490A6005E0641CE4B2032CE5DB00E078
S31508004240032400F0FDF8204632BD724800210170B3
S315080042500022032141700021C1700521018100213E
S315080042608170001D6D490A604A604FF400428A60F9
S315080042701022CA604861012088610320C8600421B1
S31508004280654801644FF6FF7101604FF400616448A8
S31508004290016000F014B970B504462A2901D001203E
S315080042A070BD5C4D2989D00040EA4330084305EBD0
S315080042B044018882012000FA04F6287830420FD19A
S315080042C000F0B8F8297831432970A978B143A97064
S315080042D000F0B6F8FFF78EFFA04201D1812070BD2D
S315080042E0822070BD2DE9F843044688464D4F4C4D53
S315080042F000F0A2FB48B92868000506D5386880088A
S3150800430000F0010080F0010600E0012600F092F8B6
S3150800431081463EB12868000504D53868400748BF7D
S31508004320FFF736FF3B498A780120A04022FA04F3BA
S31508004330DB0708D501EB440350409B89A8F80030F9
S315080043408870802409E00A78024218BF822404D1C2
S315080043504878A0420CBF81248424484600F070F8AF
S315080043602046BDE8F28338B504460D462946204660
S31508004370FFF7B8FF842818BF8028F7D132BD38B5B3
S315080043800446072389222A21FFF785FF214D05F1D7
S315080043901C012046FFF7E7FF802809D10723B92229
S315080043A02A212046FFF777FFA91D2046FFF7DBFFE6
S315080043B0802805D1E988AA8B891AE980012101E0BC
S315080043C000210120E97032BD38B5124D0446E8785F
S315080043D008B9FFF7D4FFE878D0B1B5F9060020B9D7
S315080043E00FF24800FF2100F031FBB5F90600B5F9D8
S315080043F01C1000EBD072611A521002EB014191FBBE
S31508004400F0F400F070FC604300EB8000001432BD4D
S31508004410054832BDE078002010A8004004E00040BE
S3150800442000E100E050A800400080FFFF6164632EB1
S3150800443063000000EFF31180602181F31188704753
S3150800444080F3118870470000DFF80C3533F8100048
S315080044501040C840704730B5DFF800350FF2B05449
S3150800446034F810409C60DFF8F04434F81050954357
S3150800447011402943D96002221A6000221A6024F8E2
S31508004480101058680028FCD130BDDFF8D404DFF8D6
S31508004490D4148A780AB149780FE089566FF0080271
S315080044A09142B8BF302108DBC16D39B140F24A31BB
S315080044B0C26DB1FBF2F189B2C91E01607047E0B561
S315080044C00A237F22DFF8A00400F062F84FF6FF7295
S315080044D0BDF806100D20FFF7BEFF07BDF8B5054667
S315080044E0DFF88044B5F5004F19D102237F22DFF8A3
S315080044F07C0400F04DF8BDF80000000AFF2814BF40
S31508004500002818206070BDF800000006C00E1028AC
S315080045101CBF001D00F0ADF9BDF80000C543E078EA
S3150800452008B1002005E0A089ADB26840C00701D5F2
S315080045300120E070A58105F00106C5F34007DFF804
S315080045403004016841F4004101604FF440520FF213
S31508004550E44000EB46004078010389B20220FFF7E9
S315080045607AFF304600F0A6FC4022B90100F01AFA9C
S315080045702D06A80E00F001003843A070FFF785FF4E
S31508004580E07818B1FFF79BFF0020E0700020F2BD2D
S31508004590018800A800F004BDA0F10B0189B2A0F1C2
S315080045A00B02D2B2102A01D38A207047012202FADE
S315080045B001F1DFF8C02393880B439380012393709E
S315080045C0D3881943D180DFF8B01300220A7041E17D
S315080045D02DE9F04F87B0DFF89C53287804900B3804
S315080045E0C0B203900423039A0B2100A800F096FD9D
S315080045F09DF800008DF80A009DF801008DF8090065
S315080046009DF802008DF808009DF803008DF8050056
S31508004610DA4E3078012804D16878471EBF41FF0F6B
S3150800462000E0012700F0F2FF80469DF90200A8F19C
S315080046300A0408F10A0A5045B6BF84424FF0010B36
S315080046404FF0000B012003998840ADF806009DF84D
S315080046500100000604D4A888BDF80610084201D057
S315080046604FF0010B01F04EF89DF8030000060AD43E
S31508004670E888BDF80610084205D19DF900005045A6
S31508004680B8BF844202DB4FF0010901E04FF0000990
S315080046904BEA070059EA000000F09B80B84800681A
S315080046A000F002008DF80400DFF8D8A2DAF800005E
S315080046B000F4E0600590B4484FF4E0610160002022
S315080046C001F023FC01F06AFEB04CA7B1687850B13E
S315080046D0AB48006840084000A949086001203070CE
S315080046E000F043FB07E0206840F400502060206893
S315080046F020F480502060307801280CD101F061FF49
S315080047009F48006840F001009D490860002030700D
S31508004710642000F02AFB2FB1687818B90498C0B253
S3150800472001F0F1FF687838B1206820F480502060E5
S31508004730206840F400502060BDF80600C643BBF16F
S31508004740000F08D002F0CCF88DF801008DF8028031
S31508004750A8883040A880B9F1000F08D002F067F9A0
S315080047608DF803008DF80080E8883040E8809DF9D0
S3150800477000009DF90A10884202BF9DF801009DF8C5
S31508004780091088420BD19DF902009DF9081088424C
S3150800479002BF9DF803009DF80510884206D0042341
S315080047A000AA0399C9B20B2000F0C9FC0598CAF8FB
S315080047B0000000F0F9FC9DF8040001F0A6FB02F0E9
S315080047C05AFA687828B148F260702060642000F0D0
S315080047D0CCFA9DF8010001F0EDFF9DF8030002F008
S315080047E021F907B0BDE8F08F80B500F00BFFBDE8F2
S315080047F00140EDE600F006BF70B50646A6F10B04CB
S3150800480001F09DFA0546A6F10B00C0B2102801D3A7
S315080048108A2070BD5E488168090702D40068C0070F
S3150800482001D58C2070BD534806705A490A680C2A6F
S315080048300ED0A4B20FF2701232F8242090F90800B4
S315080048408018C861FFF7C4FE012D08BF01F01BFAE6
S31508004850002070BD10B5044600F0D4FE2046BDE821
S315080048601040C9E74348007870473E4890F9000071
S3150800487070472DE9F04186B006466FF02A00864259
S3150800488046DB14237F224448FFF782FEBDF810005A
S315080048904FF6FF71884203D0400448BF012506D46D
S315080048A03F2200211020FFF7CFFD044600252D48A2
S315080048B03A4906F12B02D2B22F2A1AD213220FF244
S315080048C0281300E0521ED2B213F91270BE42F9DB69
S315080048D003EB420676780E6013F81210017000207A
S315080048E0002680460327ADB14FF6BF72BDF81010FB
S315080048F029E0092E0CDA325C0A60067014237F223E
S315080049002748FFF745FE03200126B0462827EAE791
S315080049108B201DE04FF46052C10200F043F84FF4BB
S31508004920E062310200F03EF880224FEAC81100F03A
S3150800493039F884F020003C18A4B2402C28BF3F2444
S315080049403F2284F0200100F02DF8FFF79EFD00209D
S3150800495006B0BDE8F0810000687C0020E810004041
S315080049606410004064770020189F0108249F0108FE
S315080049701C10004058770020DF7F0020E9770020D0
S315080049808020004000E100E080E100E0D010004017
S3150800499060200040AC100040149F0108C010004081
S315080049A0169F01080B2056E5AA2129005523290040
S315080049B000252800AA26270055282700002A2600B1
S315080049C0AA2B2600552D2500002F2400AA302400E6
S315080049D05532230000342200AA352200553721001B
S315080049E000392000AA3A2000D500E601EC02EF03C0
S315080049F0F204F405F506F707F808F909FA0AFB0BB5
S31508004A00FC0DFD0FFE11FF1300160119021C031FF2
S31508004A1010001100200030004000410050006000E6
S31508004A20700080009000A000B000C000D000E00038
S31508004A30F000000000000103EFF3118060288041B8
S31508004A40C043C00F7047000042DE704738B50446C1
S31508004A500D4602F067F9FFF7EDFC2946204602F0FD
S31508004A60EDF92B4622460FF2FC11012002F007FD54
S31508004A7029462046BDE83440E6E72DE9F843DFF845
S31508004A80C401DFF8C4610168371D4FF420657965F4
S31508004A90016AB965DFF8B4110968F965416A3966CA
S31508004AA0816A7966C16AB966016BF966806B38678F
S31508004AB097F8340040074CBFFC6BBC6BA04602F06D
S31508004AC0B5FDA64638658645DFF88411DFF88421EA
S31508004AD0DFF8843124BFA3F12009F14520D354F827
S31508004AE018EFC7F840E054F804EF7C6DC7F844E0C7
S31508004AF0E405E40D062C17D13C6CA646964513D35F
S31508004B008E4511D224884DF6426E74450CD106F1B5
S31508004B108C04756865607D68A56040F2017503E0E0
S31508004B2000243C647C648046DFF83041A04202D20F
S31508004B30204600E0001D984204D2D0F800E0BEF1FD
S31508004B40CD3FF7D0181AB8640020F864844606EBFF
S31508004B508004401CC4F878C00628F8DB002004E06E
S31508004B60C0B206EB800CCCF8784098452DD253F8A5
S31508004B70044D9442F9D38C42F7D25FEAC47CF4D54B
S31508004B804FF0000C06EB8C0EDEF878E0A64506D052
S31508004B900CF1010C5FFA8CFCBCF1060FF2DBBCF1E0
S31508004BA0060FE2D1002814BF401E0520D8E77C6F07
S31508004BB04FF0000C06EB8C010CF1010CCA6F8A67EA
S31508004BC0BCF1050FF6DBC6F88C400146481EC9B293
S31508004BD00029ECD1786DC005C00D02280AD003283B
S31508004BE016D0042817D0052818D0062819D00C285E
S31508004BF01DD01FE0DFF868000168890748BF40F646
S31508004C0002151CD40068C00719D540F2025516E0F3
S31508004C1040F6012513E040F6022510E040F603258C
S31508004C200DE0B5F5206F0AD140F6042507E040F6F9
S31508004C30052504E018B1242838BF40F6072528467C
S31508004C40BDE8F28304ED00E00000002000E300E088
S31508004C505C9B010890410008C87500209800002058
S31508004C601CA000400D0A5B4153534552543A257027
S31508004C703A25645D0D0A000010B57B4C002002F051
S31508004C8000F840F68C218842206834BF40F00800BE
S31508004C9020F00800206010BD10B582B0044600F070
S31508004CA05FF800A800F07CF99DF801009DF8001057
S31508004CB0FF2902BFFF280420002104B1801CC0B2CE
S31508004CC0082828BF0720082928BF0721674A13682C
S31508004CD023F4607343EAC01010601068C00851EAF4
S31508004CE0C000106013BD00B583B002237F22604860
S31508004CF0018800A800F054F9BDF800004FF6FF71CE
S31508004D0088420EBF4FF4E1600A2190FBF1F0ADF83E
S31508004D10000000F022FFC0071FD500F021F801A807
S31508004D2000F03EF99DF80500FF2808BF0420811C05
S31508004D30C9B20829A8BF0721C1F12F02BDF8003062
S31508004D40C0F12F0002EBD272521000FB0320C1F112
S31508004D502F01B0FBF1F0ADF80000BDF800000EBD64
S31508004D6002237F2243480188704770B50646424CA5
S31508004D70256801F0C9FFFA2190FBF1F070432F3046
S31508004D803021B0FBF1F0032809D3616D41F0010130
S31508004D9061652168491B0903090B8142F9D370BD76
S31508004DA010B5040004D110BD4FF47A70FFF7DDFF8B
S31508004DB02046441E80B20028F6D110BD2F4801783F
S31508004DC069B9C078072818BF092814D0032818BF5E
S31508004DD0112810D013281CBF15280B280BD02848DB
S31508004DE0016841F480720260C80504D438210FF2C4
S31508004DF0A000FFF72BBE704738B50C4620B1012836
S31508004E0019D003282CD02DE01E4D94B11E4884429B
S31508004E1004D0CA210FF28400FFF718FE01F074FFD0
S31508004E204FF47A714843B0FBF4F0401EB0F5005FCA
S31508004E300ED2286014E05CB101F066FF4FF4FA6107
S31508004E40620801FB0020B0FBF4F0B0F5003F01D387
S31508004E50202032BD0D4900F001024A604008086072
S31508004E60002032BD212032BD00BC004018000040A1
S31508004E701C9F01081A9F0108382000409607080859
S31508004E8038400040100004E020A1070068C8004030
S31508004E907573625F6572726F722E63006D696372F5
S31508004EA06F2D636F6D6D6F6E2D696E7465726E61B1
S31508004EB06C2E6300F0B589B004460020FFF7ECFEBF
S31508004EC00A237F222548018800A800F069F84FF6D2
S31508004ED0FF75BDF80200A84204D1DC210FF2940048
S31508004EE0FFF7B4FD00260FF2A40701E02A4616B91B
S31508004EF04FF47C4203E0022E08BF4EF23F0200A8A0
S31508004F0000F032F8761C052EF0D3012C03D11423B9
S31508004F107F22134802E014237F221248018803A83F
S31508004F2000F03EF800260FF26C072A4608E02A46EB
S31508004F30012E08BF4FF6C07202D0082E08BF002205
S31508004F4003A800F011F8761C0A2EF0D3012C04BF32
S31508004F500120FFF7A1FE09B0F0BD0000189F010867
S31508004F60169F0108149F010830F81610F05DFFF728
S31508004F7072BA0000616E616C6F6775652D63656C4A
S31508004F806C2D626961732E630000000000100C0D21
S31508004F900E000000010203040708090A0B0F0000AF
S31508004FA030B50446104683B07F2808BF0020B1F507
S31508004FB0004F1AD108237F2240F6120100A8FFF7F6
S31508004FC0EFFF08220FF2C40100A802F0A3FB30B9D4
S31508004FD008237F2240F2A27100A8FFF7E1FF08220A
S31508004FE000A9204602F04CFB37BD204D294300FBA3
S31508004FF003111A46204602F043FB37BD2DE9FC444F
S315080050000C461A490FF2780A41EA00061546C00707
S3150800501002D5622100F030F8E80702D5632100F0D6
S315080050202BF81348864204D3A819401E1149884212
S3150800503002D3642100F020F8002706E0B85DFF28B7
S3150800504002D06B2100F018F87F1CAF42F6D36A082D
S315080050502146304602F0C9FB28B15046BDE8FC445B
S315080050607121FFF7F3BCBDE8F384000000000808CF
S3150800507000080808001008085046FFF7E7BC0000BB
S315080050806D66672D746F6B656E2E6300FFFFFFFFFD
S31508005090FFFFFFFF30B50FF20411DFF8F8500A687A
S315080050A083B001A80024026001202870002002F0C5
S315080050B0E1FB30B1002002F0DDFB10B12C70492075
S315080050C03EBDDFF8D400018802237F220DF10200DD
S315080050D000F024F802237F22002100A800F01EF821
S315080050E0204601A9BDF8022031F81010914208BFE8
S315080050F00124401C0228F4D3BDF8000024B1B0F501
S315080051007F7F07D100203EBDB0F57F7F0CBF06200C
S31508005110042000E00720002129703EBD10B5FF29B4
S3150800512008DCDFF87040247844B1BDE81040C9B205
S3150800513002F07CBEBDE81040FFF732BF10BD2DE976
S31508005140F04105460E46174698460FF25400FF2DC5
S3150800515012DC104C2178A1B1617811B1C221FFF798
S3150800516075FC01206070434632463946E8B202F0C3
S31508005170BAFF0020607004E0CD21BDE8F041FFF7DA
S3150800518065BCBDE8F08103490978002918BF03F01A
S31508005190B9B87047D47F0020209F0108FE01FD02A0
S315080051A0746F6B656E2E630010B5DFF8FC44102033
S315080051B02063FFF73FF9DFF8F4140A6842F00102AA
S315080051C00A60FFF73DF9DFF8E8046060206061686F
S315080051D089316160012121638A30E060A060E0685E
S315080051E08930E06002202063DFF8C8044FF6FF71BB
S315080051F0016010BDDFF8C00445F26401C1601E21DC
S31508005200416250210162C821C1618165F021C165F1
S3150800521045F690014166882181660621C16644F2F9
S31508005220066101604FF6FF714160DFF8900400786F
S3150800523038B1DFF88C0448F2607101604FF4C1514F
S315080052404160DFF88004016841F004010160DFF87D
S3150800525078040021417070472DE9F84F0446DFF8BD
S315080052606C148A2202FB0012121D0092521C5378FB
S31508005270127802EB03221FFA82FB0BF440424FF02E
S3150800528000094FF0010A0BF440630425B3F5006FDB
S3150800529008BF082503D0B3F5406F08BF0E251300D5
S315080052A004D05FEA4B635CBFAB1CDDB2DFF8203489
S315080052B01B784B705FEA8B6374D5DFF81864736EDE
S315080052C01B066FD54718009828184FF40068B2F5E2
S315080052D0404F07D103F01CF95FEA000927D005F112
S315080052E008000EE0B2F5004F21D140780099695CBC
S315080052F001EB002080B203F08BFBFF280CD1CA46D5
S31508005300A81CC0B241080BF00702032A0FD1002CD3
S3150800531014BF7268326815E0DFF8BC13096831F803
S3150800532010004FF4FE61084218BFD146E8D10020AC
S31508005330B870F06DC00635D5B06C002C08BF4FF4B8
S31508005340806828E08A42F2D3002C14BF726832685B
S315080053504B1C9A42F8D30099405C0428E7D1BAF16D
S31508005360000F02D10020B87004E00020B870B9F12F
S31508005370000FDED0F06DC0060AD4B06C0CB94FF43D
S31508005380806810EA080F03D0706C40F00100706462
S315080053900120B87006E010EA080F03D0706C4008C8
S315080053A040007064BDE8F18F2DE9FC4E0446DFF835
S315080053B01CB38A2000FB04B0071DC64D002C0CBF89
S315080053C0286868684600C0B2052805D24FF4F67109
S315080053D00FF22830FFF73AFB5FFA86F909EB070068
S315080053E0A0F108063078717801EB00201FFA80FAE0
S315080053F09BF80100307003F0CDFB7070B74EF06B70
S3150800540020F48050F063686ED4B9306840051CD427
S315080054101AF4E45F0FD100F02CFD10B15FEA4A40A0
S3150800542009D53878802806D204EB0B0082784946DD
S31508005430384603F00DFC002C0CBF0120022020E0AA
S31508005440012CE5D130680005E2D5A548017881B17F
S3150800545000210170A34801681AF4E45F02D0002213
S31508005460402004E07878000900F001028F2003F05C
S315080054706AFD002C0CBF4FF480604FF4006030606A
S31508005480D9E72861BDE8F38E2DE9F047894C2068F5
S31508005490216C01EA0005934E8E4FDFF84C82DFF847
S315080054A04092DFF828A219E038B14878C00604D43B
S315080054B0002231688F2003F046FD280605D503F043
S315080054C08DFD25F0800580202060E80506D503F0CF
S315080054D085FD25F480754FF480702060002D5CD022
S315080054E0280706D50020FFF7B7FE25F0080508208F
S315080054F02060E80606D50120FFF7AEFE25F0100568
S315080055001020206005F06000602803D1B86CC00543
S315080055100AD401E0A80605D525F02005202020603C
S31508005520002006E0680606D525F0400540202060E4
S315080055300120FFF739FFE80404D525F480554FF418
S3150800554080502060E807B8D56D086D0001202060FE
S315080055509AF800000028B0D000F003FC0128ACD16E
S3150800556099F800000028A8D098F800000428A4D1CB
S31508005570F868400800F001008A2101FB00A1091D16
S31508005580002814BF7A683A6812B92268D204F7D597
S31508005590002814BF7868386886E700202060BDE8D0
S315080055A0F087524800687047F0B589B004460D4642
S315080055B00021032001F008FB04AE1BE0002701F0E0
S315080055C01EFB26F8170001F01AFB00A921F81700A0
S315080055D07F1C082FF3DB04A803F0BAFD0020208007
S315080055E0218836F8102051402180401C0828F7DB16
S315080055F06D1EA41CEDB2002DE0D101F03CFB01208C
S3150800560009B0F0BD0321022001F0DEBAF8B529245D
S315080056104FF6FF7501F0F3FA281A90FBF4F000F143
S315080056203A06334F3878B8B90321032001F0CCFA8B
S3150800563002237F222F48018800A8FFF7B1FC01F05A
S31508005640DEFABDF80010401880B2281A90FBF4F074
S31508005650253078700120387001F00DFB7878301A03
S3150800566040B2F2BD80B50321022001F0ADFABDE8D3
S315080056700140CBE770B500241F48007890B9FFF7C2
S31508005680F1FF0546104E707848B13078401B40B29D
S3150800569003F06FFD0B2805DB3570012402E0357039
S315080056A001207070204670BD002000408420004014
S315080056B0C07C002000A000404C1000405977002014
S315080056C0D010004080200040DD7F0020BC7C0020F8
S315080056D058770020202000400076002004A00040D3
S315080056E0DC770020F4770020E77700203820004098
S315080056F0DB7F00201E9F0108E97700207068792E5D
S315080057006300000010B584B00A237F220B48018885
S3150800571000A8FFF745FC4FF6FF74BDF80000A0424D
S3150800572004D14E210FF21800FFF790F92246BDF872
S3150800573000100020FEF78FFE1FBD0000189F01080D
S31508005740616E616C6F6775652D66696C7465722E1E
S3150800575063000000DFF81808417A39B1017A012997
S3150800576004BFC07A042801D1012070470020704781
S315080057700FF69C01405C7047010603D54FF67F7112
S315080057800840C00070478001B0FBF1F080B2FF28E6
S3150800579088BFFF20C0F1FF00C0B2704738B5DFF8F8
S315080057A0D007817A012901D1002032BDDFF8CC4724
S315080057B0617871B1E178807B4518ADB22079854270
S315080057C028BF054603F0EEFC0121A940491E084002
S315080057D000E0002061790818C0B232BD2DE9F04713
S315080057E00446C00703D540F26D1100F048FADFF809
S315080057F09057286DC00748BF8C2000F19180DFF8CC
S315080058007067002030733070DFF870773878A0B191
S315080058102078122818BF0C280BD1617801F00701EF
S31508005820032902BF001910F8020C042804BF01203E
S315080058303073A86F40F0010002E0A86F40084000EE
S31508005840A867707BDFF83C87DFF83C97797899B1D1
S315080058500021B173296D41F004012965012807D19A
S315080058604FF6FF70C9F800004FF40070C8F8000042
S31508005870FFF794FF82460CE0296D21F004012965A3
S315080058804FF0000A012804D100F02AFA6420FFF735
S315080058906CFAA86F20F00800A8671420E864C5F819
S315080058A048A0787830B1707B002801BFA86C002822
S315080058B00120A864B8790028286D14BF40F00800B4
S315080058C020F008002865FFF745FF28B1D9F8400001
S315080058D040F00800C9F84000202028626C602C605F
S315080058E068687F306860042028624FF4E064DFF857
S315080058F09C06046006E0FFF79FF818B103F062FC07
S31508005900FEF798FDDFF88806006800F00300032814
S31508005910F1D0C8F80040286D40F001002865002045
S31508005920BDE8F08710B50446FFF73BFE201A0003D2
S31508005930000B3338DFF85C1688421AD2DFF85806AF
S3150800594002210160DFF85416A2B24A60220C02F066
S315080059500F020A60016C41F002010164DFF840465B
S315080059600020207002E0012003F030FC2078002897
S31508005970F9D010BD2DE9F84FDFF80C86D8F80000ED
S31508005980D8F8401001EA0004A4B2C8F80040DFF8CD
S31508005990F075DFF8DC556878002840F0C880DFF835
S315080059A00466DFF8D895E00744D5D7F800A0386C28
S315080059B0796C41EA0041A96199F80000B0B39AF8F8
S315080059C00100800632D501202870FFF7C3FE88B390
S315080059D01920FFF7CAF9DFF8D0B54FF44040CBF8E5
S315080059E02800DBF800000090F06E40F40050F066E6
S315080059F0F06E40F48050F066A8699AF800104901E4
S31508005A00B8310818FFF78EFFF06E80098001F0663E
S31508005A10F06E00A909880843F0660020CBF8280034
S31508005A2048F26070F066A88A306003E00022002021
S31508005A3003F089FA20060ED5287830B100202870A0
S31508005A400022A969402003F07EFAD8F83C0020F429
S31508005A508050C8F83C00600608D5687830B9FFF76A
S31508005A60A0FD00220146892003F06DFAE0064FD515
S31508005A70287ADFF810A5012804BF697B01291ED101
S31508005A8000F09FFD386F40F001003867002068730A
S31508005A90FFF78AFB0A20FFF768F900244FF6FF7024
S31508005AA0C8F800004FF4E060CAF800000920B8669C
S31508005AB00120B864B86F40F00800B86718E0A97B01
S31508005AC0491CA97399F80220C9B2914215D2012836
S31508005AD008BF00F0D8F8B86F20F00800B86714209F
S31508005AE0B866FFF75BFEB8644FF40070CAF80000AA
S31508005AF0386D40F0010038650AE0012808BF00F05B
S31508005B00C2F8FFF74EFD002201468D2003F01BFA6E
S31508005B1020070CD5FFF71EFE48B13068A882012081
S31508005B203060D8F8400020F00800C8F84000A00609
S31508005B300AD520203862687830B9FFF732FD00228E
S31508005B400146882003F0FFF9687820B114F4407FF5
S31508005B5004BF0120A870BDE8F18FDFF8540400885F
S31508005B60704770B582B00446FEF744FEDFF8440479
S31508005B7000210160DFF8FC531521E9600921016560
S31508005B801F21416001210166DFF824040088FEF721
S31508005B90A5FCFFF72FFB03F02BFE00F030F9DFF82A
S31508005BA0D063308A00F058F9708A00F05DF9FEF784
S31508005BB041FC696841F040016960FEF741FC707973
S31508005BC000F0F2F8B07900F0FFF8307900F02EF91D
S31508005BD0DFF8E40390F90000FEF74BFEF07800F0DA
S31508005BE094F996F9070000F09CF902237F22DFF862
S31508005BF0CC03018800A8FFF7D3F9BDF80000C0055B
S31508005C004CBF0020BDF80000DFF8B4130870DFF8B9
S31508005C10B4030078FEF7F0FD18B140F2963100F0B3
S31508005C202EF8012C05D12868C00711D500F02BF8ED
S31508005C300EE06CB92868C0070AD400F0C2FC2868D0
S31508005C4040F001002860C820FFF78FF80020707325
S31508005C50DFF83443F120206440F2F910E063FFF7DF
S31508005C60A3FA2868C00707D54FF6FF702060DFF84B
S31508005C7014034FF4E061016000F090FB73BD0FF26E
S31508005C808030FEF7E3BE70B5DFF83C532E68DFF8C8
S31508005C90E042607B012822D0FEF7CCFBB6B22E602C
S31508005CA0DFF8E8124FF4E0620A60DFF800130A6AC8
S31508005CB0520852000A620A68520852000A600A68C4
S31508005CC042F002020A604A6A42F001024A6201216F
S31508005CD06173FEF7B5FBBDE8704000F043BC70BDCC
S31508005CE070B5A34C607B48B300F06BFCFEF7A2FBD3
S31508005CF00546DFF8D802012101609F4E306D40F05D
S31508005D000100306500206073FFF74EFA20203060EE
S31508005D10306B40F002003063F06D40F00800F0652B
S31508005D202846FEF78DFB0A20FFF71FF896484FF620
S31508005D30FF71016093484FF4E061016070BD8C48C3
S31508005D40407B704710B58A4C607B18B140F287419A
S31508005D50FFF795FF207A18B1FFF795FF207A607351
S31508005D6010BD8348007A704780B5022801D3012008
S31508005D7002BD7F490872487B012804D1087A20B9F8
S31508005D80FFF7AEFF01E0FFF7DDFF002002BD9048F8
S31508005D900068800200149A386FF07F0201B29142BF
S31508005DA0B8BF104640B2704710B50446FEF742FB2E
S31508005DB08849002C0A6814BF42F0120222F0120227
S31508005DC00A606B494C7140E038B50446FEF732FB71
S31508005DD0054600F06EFC40B97E48002C016814BFE9
S31508005DE041F0800121F080010160614884712846F4
S31508005DF0BDE83240FEF724BB5D4880797047764897
S31508005E0076494A780B7813EB02220260CA788B78B7
S31508005E1013EB022242604A790B7913EB0222826065
S31508005E20CA79897911EB0221C160704710B5044619
S31508005E30FEF700FB6749002C0A6814BF42F02002EF
S31508005E4022F020020A604A490C71BDE81040FEF7AC
S31508005E50F7BA4748008A704745490882604908608A
S31508005E6070474348408A7047414948825D490860FF
S31508005E7070475D48007870474C48816A41F00201D6
S31508005E808162012101607047484800210160816AEA
S31508005E9021F0020181625020FEF767BF38B5534CE6
S31508005EA0534821690180E1694180524DE96C81803E
S31508005EB000202061FFF7E0FF0120E061002060621A
S31508005EC020624CF25D00E864286840F400402860CF
S31508005ED04FF40040206048F20200206031BD80B5D2
S31508005EE0FFF7D2FF41484FF40041016000210160ED
S31508005EF040490A6822F400420A603D4A9388CB6406
S31508005F00118801615188C16101BD1A4900280A68D2
S31508005F1014BF42F0020222F002020A601449C87055
S31508005F20704738B504467F2C0ED102237F223248AB
S31508005F30018800A8FFF734F8BDF80000C00554BF73
S31508005F40BDF800406FF04A04FEF774FA054600F003
S31508005F50B0FB30B964B204F19A008005000C2749F9
S31508005F6008600348C4712846FEF76AFA31BD000086
S31508005F70DC7700208020004030200040AC770020ED
S31508005F801020004000E100E004A0004080E100E0AD
S31508005F90A8200040CDFF070008A000404020004090
S31508005FA0E27F002064100040E410004060200040BA
S31508005FB0707700205C10004064770020289F010855
S31508005FC060770020587700201C10004028100040F9
S31508005FD00C1000408420004098200040947C00204B
S31508005FE09420004090200040F877002018100040C8
S31508005FF0BC7F0020C01000402A9F010854100040B2
S315080060007068792D636F6D6D6F6E2E6300000000EA
S31508006010FEFEF7F7C8C80100DFF8F8035121016052
S3150800602070472DE9F041054600F066FEFA2190FB1F
S31508006030F1F64FF4F070B0FBF6F73FB21E2D01DB18
S31508006040E81B04D5A8B2BDE8F041FEF78EBEFEF700
S31508006050F1F9804603F0D8FBDFF8BC03072101609D
S31508006060002141608160DFF8B4134FF000720A60C6
S31508006070E91B09B27143C91C8908491E416000F031
S31508006080AEF8DFF890733C68386820F04000386056
S3150800609003F0BCFB3C602E6003F0BCFB03F0C2FBC4
S315080060A04046BDE8F041FEF7CBB938B5054600F0E5
S315080060B023FEFA2190FBF1F44FF4F070B0FBF4F0F4
S315080060C02D1A2DB21E2D04DA8A210FF29430FEF70E
S315080060D0BDFCDFF8440307210160002141608160AF
S315080060E0DFF838134FF000720A6005FB04F1C91C8B
S315080060F08908491E416031BDDFF82403B0F9000064
S3150800610000B970472DE9F0410024DFF818532C60D8
S31508006110DFF8146334604FF4A040706041F29A08C7
S315080061204046FFF77EFF6F6800F0EEFD00010A218A
S31508006130B0FBF1F000F5C870C01B00B24FF448710F
S3150800614090FBF1F000F3030030604046FFF769FF6B
S3150800615008274046FFF765FF686804197F1EF8D1CF
S3150800616000F0D2FD4FF4FA414843211DC908B0FB9F
S31508006170F1F080B27060BDE8F081DFF8A402B0F9F2
S31508006180000000B9704738B56FF00F04DFF89C526D
S315080061900120A8602C608020FFF743FFE868FF28ED
S315080061A002D8641C102CF5DB31BD70B5DFF880020F
S315080061B0016841F00101016001214160FEF73AF9E9
S315080061C0044600F00CF8DFF84C02512101602E60FD
S315080061D003F020FB2046BDE87040FEF731B9DFF832
S315080061E054522E68286840084000286003F012BB05
S315080061F000207047F8B5014640F2DC500446884A4C
S31508006200B2F900708D4D8C4E012F15DA02203081BF
S315080062102860A86900F00300032857D0002F03D58B
S31508006220A86940F00200A8610846FFF7E1FF0400EC
S315080062301BD1002F4AD547E031894FF6FF77B9427F
S315080062401CD102237F227E48018806F10800FEF74A
S31508006250A7FE3089B84204BF02203081A8698007AA
S3150800626003D4A86940F00200A86101207070308943
S31508006270286020B2FFF719FF2046F2BDAA699207E7
S31508006280EFD57278002AF8D1A86810F00100AA683C
S3150800629003D10F2909D2491C06E0920705D53279A0
S315080062A01AB1032901D3491E318130713089022878
S315080062B03CBF02203081286831898842D5D1A86937
S315080062C000F00300032801D0FFF76FFF0020F2BD9E
S315080062D02DE9F047804600244E4D564EFEF7AAF8A3
S315080062E0814603F091FA4046FFF784FF08B9012476
S315080062F00AE000F04CF8D5F800A000F0ABF8C5F8B5
S3150800630000A0376003F086FA03F08CFA4846FEF7D9
S3150800631097F8002CE2D0BDE8F0870220D8E710B540
S315080063203D48002141608160016821F00201016059
S315080063303A484FF0007101603F4C607848B1002040
S3150800634060700620FFF754FF3548B0F900000128B1
S315080063501CDBA078012814D13A48012101603A498A
S315080063600968C90748BF03200FD40221A170016C30
S3150800637041F0010101643548042101603448016097
S3150800638010BDA078042801D10520A07010BD37687B
S31508006390306840084000306003F03CBA2DE9F84305
S315080063A0254C2078002830D0E07800282DD11C48CC
S315080063B0B0F90000012820DA40F2CD310FF2A00032
S315080063C0FEF744FB19E0FEF735F8804603F01CFAA1
S315080063D0A07805280CD0174EFFF7D9FF0D4DD5F834
S315080063E0009000F037F8C5F80090376003F012FA0D
S315080063F003F018FA4046FEF723F8A0780528E2D1FC
S31508006400002060700520FFF763FF00202070BDE8BC
S31508006410F18300000080004010E000E004ED00E099
S315080064202E9F0108104000400C0000400840004024
S315080064301C40004094ED00E0C67700200440004070
S31508006440269F010818A000400C40004080E200E0AA
S3150800645000E100E0286820F04000286003F0D6B983
S31508006460636C6F636B732E630000000038B5012000
S31508006470FFF7C0FE0020FEF70FFC6C4C206840F0CA
S315080064800800206000F047FCFEF7F6FB00F01FF856
S315080064908D78674BDD600D8905604D89456000F094
S315080064A01EF8206820F010002060FDF7CEFE03F0ED
S315080064B0D2FA03F00FFBFFF730FF00F02AFCBDE825
S315080064C0314000F056BC40F2016001F01DB8594950
S315080064D059480A78C2604B78584AD3607047888909
S315080064E01060C8895060088A1860488A586039E080
S315080064F0F0B50B684F4C0F25246A960005FA06F688
S31508006500344212D0002606EB820724FA07F7FF0763
S3150800651008D5B70005FA07F730F812C0BB4307EAF3
S315080065200C073B43761C042EEDDB0B60F0BDF0B583
S315080065300B68404CFF25246AD600B5402C420FD084
S31508006540002505EBC20624FA06F6F60705D5012648
S31508006550AE40175CB3433E4033436D1C082DF0DB59
S315080065600B60F0BD10B5334C206A002825D00022F8
S315080065703449201DFFF7DBFF01223349201DFFF7B1
S31508006580D6FF02223149201DFFF7D1FF00222A49F2
S3150800659000F014F801222A4900F010F802222749CF
S315080065A000F00CF803222A4900F008F804222049D2
S315080065B000F004F804F1140032E010BD04F11400F0
S315080065C096E710B51B4C206A002825D000221D49E5
S315080065D02046FFF7ACFF01221B492046FFF7A7FF1D
S315080065E002221A492046FFF7A2FF0022124900F0AC
S315080065F014F80122124900F010F802220F4900F09F
S315080066000CF80322124900F008F80422084900F0A1
S3150800661004F804F1080003E010BD04F1080067E778
S31508006620BDE8104005220B4962E7000000BC0040A7
S3150800663000B40040C476002000B0004000B200401C
S3150800664004B000400CB000400CB200400CB400404E
S3150800665004B2004004B400400320FEF794BD80B5A0
S3150800666003F008FB0FF2500101EB800002BD0000A9
S3150800667010B503F0FFFA044603F000FBC0B208B9F0
S31508006680012C07D1072C11D8DFE804F004100608FE
S31508006690080A0C0E002010BD092010BD022010BDEE
S315080066A0032010BD0B2010BD062010BD44F080004D
S315080066B010BD002070470000554E4B004649420069
S315080066C042544C004558540050575200574447000E
S315080066D02053570043525300465348004241440052
S315080066E0464C54002A490A68920992010A600A68C7
S315080066F01043086027484FF40041016000210160FB
S315080067006420FEF732BB2DE9F0478046224DD5F8C6
S315080067100090286840F4004028601D4F386820F42F
S31508006720805038601D4C207868B11D48A178627881
S3150800673000EB820212F82A2C891A00EB880010F85E
S315080067402A0C461802E0202601202070B0B2FFF776
S31508006750C9FF0FF2500A02E0B0B2FFF7C3FF386B69
S31508006760042805D0386B400754BF761E761CF3E71D
S31508006770F86A38B184F80180A6701FFA89F0286093
S31508006780BDE8F08740F221115046FEF75FF9E6E7CB
S31508006790D0100040181000401C100040DF7F002079
S315080067A0A8490008616E616C6F6775652D76636F21
S315080067B02E6300004FF4FE52810189B20C20FDF7CA
S315080067C04ABE2DE9F84F8A4CA568ADB200264FF0AF
S315080067D00A080127B94620681FFA80FA00F04BFA22
S315080067E0B0202063DFF80CB2DBF800000120FEF7CA
S315080067F0BCFAB9F1000F11D0AAF10300874202DAF8
S31508006800F81C87B213E057460AF5004020600621B7
S31508006810092000F0D9F94FF000090BE0DBF8000079
S31508006820000707D5042FA6BFF81E87B2002707F56D
S31508006830004020601A2EA8BF6FF0090804DA16F186
S31508006840190FB8BF4FF00A08464436B27019A0604F
S31508006850DBF800000007C9D5012FC7DAB9F1000F28
S31508006860C4D1A560C4F800A00820CBF8000062488F
S31508006870006880B2BDE8F28F10B560494FF0FF326C
S315080068805A4B1C7864B1002819BF4A605C484860B6
S3150800689041F211100860D9889888BDE8104090E741
S315080068A0002819BF4A600A604860086000F0E3F9EA
S315080068B006210920BDE8104000F0D7B938B50120F7
S315080068C0FFF7DAFF04460020FFF7D6FF054601204A
S315080068D0FFF7D2FF4042001B00EB450000B232BD75
S315080068E02DE9F04F83B0474CA06AADF80400206844
S315080068F0ADF80200444D2868ADF800003B4E3078EC
S3150800690058B14FF6FF7200210820FDF79DFD80461D
S31508006910C022C0210820FDF79EFD3C4F3C48007868
S3150800692010B148F260703860708840F4404040F01A
S315080069304C00F8630220A0620120206040F24C401F
S31508006940FEF713FA0120E86028600020B080402096
S31508006950F080307800B12020FFF72CFFFFF7AEFF5C
S3150800696083464020B0807F20F080FFF723FFFFF7A3
S31508006970A5FF00F04FF8FE2101FB00FAABEB090B6F
S31508006980307850B1484602F0F4FB00F043F880B284
S315080069900AEB8911B1FBF0F004E000F03CF880B294
S315080069A0BAFBF0F080B2401C4FEAC039BDF80000CF
S315080069B028600020E86002202060BDF80200206000
S315080069C0BDF80400A0620020F863307830B14FF6B5
S315080069D0FF721FFA88F10820FDF73DFD40F24C4092
S315080069E0FEF7C3F94FEA1940BDE8FE8FD2770020BB
S315080069F0C010004018A00040007000403810004049
S31508006A00EEEEFFFF6020004028100040D010004046
S31508006A10597700208146584602F0ABBB3F22410019
S31508006A2089B201E03F2201460220FDF714BD2DE997
S31508006A30F04F93B0564CE06CADF808002068ADF8FE
S31508006A400600544DE86AADF804004FF6FF720021BF
S31508006A500120FDF7F9FCADF802004FF6FF720021A0
S31508006A600B20FDF7F1FCADF800004FF40040206064
S31508006A7000202861686148F2020000F08DF84CF6A3
S31508006A808C30E06448F2F000E8624FF48052114618
S31508006A900120FDF7E0FC4FF6FF7200210B20FDF701
S31508006AA0DAFC0621062000F0E0F8804600F087F8B8
S31508006AB083464CF69C30E0640020FFF7AFFF0621C2
S31508006AC0084600F081F80026B0B2FFF7A7FF0621B6
S31508006AD0062000F079F800F092F803A921F81600CC
S31508006AE0761C202EF0DB00F08AF81020FFF796FFC0
S31508006AF000F065F8A0EB0B00BDF82C10A1EB08011F
S31508006B00404301FB01094FF0100A112700F050F825
S31508006B1000F055F800F045F805DB81461FFA87FABC
S31508006B207F1C202FF2DB504610280ED10F2700F0CD
S31508006B303FF800F044F800F034F806DB81461FFA07
S31508006B4087FA781E07B2002FF1D5BDF80800E06471
S31508006B50BDF806002060BDF80400E8624FF6FF7233
S31508006B60BDF802100120FDF776FC4FF6FF72BDF85E
S31508006B7000100B20FDF76FFC01202861002000F0B3
S31508006B800BF84FEA4A00C0B213B0BDE8F08F000018
S31508006B90C010004018100040286040F24C40FEF734
S31508006BA0E4B8A0EB0B00404306FB060048457047D7
S31508006BB003A830F81700A0EB0806B8B22EE706219E
S31508006BC0072000F052B8000070B505460E4602F0E0
S31508006BD01BFE3D4C206C20F00800206402F022FECB
S31508006BE0FDF728FC310341EAC51141F00101374A96
S31508006BF0116008212160BDE87040FDF721BC2DE930
S31508006C00F041334C334D304E25E002F0FDFD32485D
S31508006C1004210160306C40F0080030642F68286851
S31508006C2040084000286002F0F5FDD4F8008020688E
S31508006C3020F04000206002F0E9FDC4F800802F60D3
S31508006C4002F0E8FD306C20F0080030642348042187
S31508006C50016002F0E7FD30680007D6D508203060ED
S31508006C601F48006880B2BDE8F08180B5FFF7ACFF29
S31508006C70BDE80140C3E715480168490849000160B5
S31508006C807047F8B50746FEF72EF80446394603203E
S31508006C90FFF7EBFF054639460120FFF7E6FF0646F4
S31508006CA039460020FFF7E1FF08490A6852085200F2
S31508006CB00A60401B0004711BB0FBF1F06043400002
S31508006CC0000CF2BD0000000018A00040047000404F
S31508006CD00080004094ED00E000E100E080E200E082
S31508006CE00070004036480068C00702D442F6E060EB
S31508006CF0704745F6C050704780B5FFF7F3FF314936
S31508006D00096801B9400802BD80B5FFF7EBFF4008E6
S31508006D1002BDFFF732BA2C48012181604EF6BE212A
S31508006D20416000E02948012101607047A52805D186
S31508006D3025484DF6AD614160022101607047224841
S31508006D400068C00701D5012070470020704710B5BC
S31508006D500FF29403820853F82220136800F0030008
S31508006D6080000F248440A34301FA00F01843106002
S31508006D7010BD80B51648174A1021016016481749F4
S31508006D80007858B103280CBF00200120106040F697
S31508006D90510008600020FEF703F806E002201060A4
S31508006DA04FF400600860FFF7A7F907210C48016057
S31508006DB00021016410210B480160002002BD00007B
S31508006DC01C40004020400040006000400860004031
S31508006DD080E100E008000040D37F00200C600040FE
S31508006DE014A0004000E100E000B0004004B00040FC
S31508006DF000B2004004B2004000B4004004B40040B1
S31508006E0070B5A04803F05FFA0446FF2C15D09E48DB
S31508006E100068205C851EE9B2204603F0FAF90646AA
S31508006E20E9B2204603F0FFF82146304600F0DFF8C5
S31508006E302046BDE8704002F0A7BF70BD03460A466B
S31508006E408FA10420FFE70CB480B502AA00F02AF847
S31508006E5001BC5DF80CFB00B587B0FFF709FC002103
S31508006E6005910491532103910021029101918749CB
S31508006E700091002302460FF224210120FFF7E3FFC9
S31508006E8083488179039101880291417901910179B9
S31508006E900091C37882780FF210214220FFF7D3FFC2
S31508006EA007B000BD2DE9F04F85B005460C46904663
S31508006EB0002603F093FAC0B1012002F0FCFE8246D8
S31508006EC0BAF1FF0F11D0002102F0F0FE294601A801
S31508006ED003F08AFA05467CB900F084F810B95046E2
S31508006EE003F0FBFA504602F04FFF05B0BDE8F08FFD
S31508006EF08DF804200125641C20780028ECD0A0F128
S31508006F003001C9B20A2905D20A2101FB0600A0F1FF
S31508006F103006F0E700F066F80028E3D1002522786D
S31508006F2001A8422A0ED0442A1AD0462A25D0572A22
S31508006F300DD0622A3AD0662A2AD06C2A25D0702A21
S31508006F4026D0D5E758F8040B8DF80400D2E758F890
S31508006F50041B8DF804100904090E41700225CAE7BE
S31508006F6058F8041B8DF804100A0A42700A0C82703D
S31508006F70080E8DF807000425BDE758F8041B50468F
S31508006F8003F011F80028B6D0ACE758F8046BB2E75E
S31508006F90012358F8041B662A08BF0223F2B250469A
S31508006FA002F0E1FF002808BF0026ECE73648006833
S31508006FB01AF8009058F8041BCFB2FF2F9BD017F889
S31508006FC000B00BEB0901C9B2504603F02CF80028B3
S31508006FD088D1CDF800B000233A464946504603F01A
S31508006FE02BF988E72A4601A9504602F0DABFF0B520
S31508006FF085B00C46122806D03A281AD04FF6FE71EC
S31508007000884235D03AE020480068255C214E08E0E1
S31508007010204602F045FE394602F095FC203D3068D0
S31508007020245CFF2C2AD0EDB2212D2CBF20272F4619
S31508007030EEE703F028FB0446FEF713FF0546FDF7C7
S3150800704014FC0646FDF70EFC0746FEF702FF02464D
S3150800705004940E48039010480068408802900195F1
S3150800706000963B460FF248013B20FFF7ECFE05E091
S31508007070204605B0BDE8F04003F0B2BB05B0F0BD50
S315080070805746000078770020E4750020947C00209D
S31508007090049F0108EC750020E47D00204242387008
S315080070A0424242425742420042424242574200004E
S315080070B057424257573870420000000070B51346D1
S315080070C0101802E0A4192C705B1EDBB24BB101F05C
S315080070D00F060909451E28460A2EB4BF3024372450
S315080070E0F0E7101870BD2DE9F04F87B0804601A86B
S315080070F0894614469B4601AD00278DF800001BE023
S315080071005BF804AB04224FEA1A412846FFF7D6FF7C
S3150800711004221FFA8AF1FFF7D1FF054605A8854222
S3150800712009D39DF800002E1A00F096F8002831D1F0
S31508007130F719FFB201AD641C9DF800002E1A2078DD
S31508007140002807D0252802D005F8010BE6E714F831
S31508007150010F002876D02528F6D0322818BF342803
S315080071605FD0582857D063280CD0642818BF6C28DD
S3150800717025D0702818BF732807D075281FD07828FF
S3150800718049D0CBE75BF8040BDEE75BF804AB00F00D
S3150800719063F800285CD1F719FFB201AD002600E0BC
S315080071A0761CF6B216F80A000028F9D1324651467E
S315080071B04846C04700284BD1F719FFB2AEE75BF83F
S315080071C0040B0021002803D52D21297040420121F6
S315080071D0002300224FF0000C02E0801B0CF1010C8A
S315080071E00FF2003656F82260B042F6D243EA0C0691
S315080071F0F6B2002E05D0C9B20CF130034B55491C26
S315080072000123521C092AE5DBC9B230304855481C0F
S31508007210C0B2451982E75BF8041B0222C9B22846A8
S3150800722079E714F8010F78281CBF5828641EF1D195
S3150800723014F8010C32287FF463AF5BF8041B0422B0
S3150800724089B2ECE700F008F810B9F019C0B200E00E
S31508007250002007B0BDE8F08FF2B201A948464047C2
S315080072602DE9FC4E0400894692469B4618BF022C1F
S315080072702CD0032C18BF042C28D0042C26DA0FF2A5
S315080072805020205C012821D1DFF8345205EB840612
S31508007290F768FDF7CFF80021B98039807980FDF7C6
S315080072A0CFF8F669FDF7C6F80021B1803180718004
S315080072B06155FDF7C5F802F0CEFB5B4652464946D6
S315080072C0204602B0BDE8F04E02F0BCBA2120BDE867
S315080072D0F68E2DE9F04188460446DFF8E45105EBC1
S315080072E08401CE690FF2E811615C09B9012034E026
S315080072F0615D05EB440761B1B9887288914208D18E
S31508007300FDF798F8665D00216155FDF799F8304656
S3150800731023E002F082FBB088F0B1FDF78BF87188A4
S315080073200FF2B8128919897988F800104FF6FF7894
S31508007330718832F8142000F01EF87180B188414433
S31508007340B180FDF77DF8605D20B1B888404504BF7F
S315080073503088B880002000E02620BDE8F0818088CB
S315080073600FF2641333F81110891A884201DA0120E2
S31508007370704700207047491C91FBF2F302FB13117A
S3150800738070474EA111E010B50FF24413C35C0024F8
S31508007390012B08D113460A4601460FF23D00FFF7B6
S315080073A0A2FE00B90124204610BD0CB480B502AA7D
S315080073B0FFF7E9FF02BC5DF80CFB0CB438B50446D0
S315080073C004AAFFF7E0FF05462046FFF7DAFF28463E
S315080073D032BC5DF80CFB00002DE9F04780464746B5
S315080073E00FF2EC00385C8A461646012830D134483C
S315080073F00FF2E00900EB87000025C46814E0FDF7EA
S3150800740019F8A18801B9012521881AF8012B09194B
S315080074108A71218839F81720FFF7ADFF2180A188E6
S31508007420491CA180FDF70CF83046461EC0B258B17B
S31508007430002241462046FFF792FF0028DFD10DB112
S3150800744000F009F8222004E000F005F8002000E02A
S315080074500120BDE8F087404602F031BA80B50FF248
S315080074607002825C012A06D1154A02EB8001C968BE
S315080074708A88002AFCD102F05BFA002002BD0CB40F
S3150800748038B504460D4602F033FA04AB2A462146BF
S315080074900C48FFF728FE0FF23801615C012908D174
S315080074A0074901EB8400C068808810B1204602F0C5
S315080074B006FA32BC00205DF80CFB00000D0A00003D
S315080074C02C770020019900080000800000000000C9
S315080074D000010000000080000000000000004000DD
S315080074E00000000000CA9A3B00E1F5058096980066
S315080074F040420F00A086010010270000E8030000A4
S31508007500640000000A00000010B50446FCF792FF6C
S3150800751048483021016048480160484801604848A9
S3150800752010210160200A08BF2402464804804FF251
S315080075300F014180BFF35F8F43480021016041601E
S3150800754042484349016010BD42480168C90708D549
S31508007550414903220A70016C490849000164012166
S3150800756001600168090703D5016C21F0080101646F
S31508007570704780B5002000F009F830B9F5210FF200
S31508007580EC00BDE80440FDF761BA01BD2DE9FC44F5
S31508007590324C414222688D1815F01F0108D0002888
S315080075A002D44842451903E04842401900F1200533
S315080075B0A5F120062A48A84224BF2A48864203D3B2
S315080075C0EFF30880854201D300202DE0FCF732FF57
S315080075D082462548006810F0010718BF03F0ACF989
S315080075E0206801468D4206D2A84224BFCD2100F864
S315080075F00119F9D206E02038002201E000F8012B33
S315080076008842FBD32560304603F09BF9E22001E06F
S3150800761006F8010BAE42FBD30FB103F075F95046DD
S31508007620FCF70EFF20682038BDE8F6840B48006892
S31508007630704700003020004030C8004030C000408D
S3150800764010E00040000000201C4000400CED00E067
S315080076500400FA0518A00040C877002074770020B7
S31508007660686C00208006002094ED00E06D69637266
S315080076706F2D696E7465726E616C2E630000000072
S31508007680814233D210185118401E491E10E011F8D5
S31508007690013900F80139121F11F8013900F80139CA
S315080076A011F8013900F8013911F8013900F80139E2
S315080076B092B2042AEBDA92B2002A1EBF11F80139F7
S315080076C000F80139521EF6D1704711F8013B00F84F
S315080076D0013B121F11F8013B00F8013B11F8013B71
S315080076E000F8013B11F8013B00F8013B92B2042A6D
S315080076F0EBDA92B2002A1EBF11F8013B00F8013BF3
S31508007700521EF6D17047130003D00A46194603F0F5
S3150800771035B9704710B500E0521E92B232B110F872
S31508007720013B11F8014BA342F6D00FE0002010BD33
S3150800773010B500E0521E92B232B110F8013B11F8B2
S31508007740014BA342F6D001E0002010BD181B40B241
S3150800775010BD00004148018A40F6A772914202BF57
S31508007760418A4FF47F40014204D102298041C04337
S31508007770C00F7047002070472DE9F84F82468846AB
S31508007780FCF758FE0446364D2F6828684008400026
S31508007790286002F03FF8DFF8C0B001208BF800003F
S315080077A0FFF7D8FF20B9FF210FF2B800FDF74EF911
S315080077B02A48D0F8289041464AF48070C8470646B9
S315080077C02F6002F027F82046FCF73AFE00208BF8D7
S315080077D000000FF298040EB1305D04E041464AF409
S315080077E00070C847005DBDE8F28F2DE9F84F804666
S315080077F089464FEA420AFCF71DFE0546184E3768C9
S31508007800306840084000306002F004F8FFF7A2FF35
S3150800781028B94FF4A1710FF24C00FDF717F90F487C
S31508007820D0F824B00023524649464046D847044675
S31508007830376001F0EFFF2846FCF702FE0FF22C0531
S315080078400CB1605D05E05346002249464046D847DC
S31508007850405DBDE8F28F0000DA7F002000000808CE
S3150800786094ED00E0666C6173682E63000002020204
S315080078704B4B46472DE9F94788B01B22FF2100A844
S31508007880FFF741FFDFF894906222FF214846FFF791
S315080078903AFF36254FF01B0A00270FF290082048BA
S315080078A0385C411C01EBD1714C101E497E5CFF28E7
S315080078B003D16F214046FDF7C9F87F2E03DB7021FF
S315080078C04046FDF7C3F81848385C00B11934601C07
S315080078D000FB0655012E1CBF29F817A0B2447F1CD1
S315080078E01B2FDCDB40F21C44A5420ED3FFF71AFA25
S315080078F0FCF7A0FD23462A460FF240010120FFF7B8
S31508007900BEFD9B214046FDF7A1F89DF8200000A981
S3150800791000F0F1F80AB0BDE8F0870000F87B002017
S31508007920589C0108749C01083C9C010873696D2DDC
S31508007930656570726F6D2E63000000000D0A455272
S31508007940524F523A2053696D45452064617461204F
S31508007950746F6F206C617267652E2020436F6D709F
S31508007960696C696E67207769746820256420776F6B
S3150800797072647320636F6E73756D65642E20204D77
S31508007980617820616C6C6F77656420697320256463
S315080079902E0D0A0010B5DFF8643ADFF8644A248829
S315080079A0001B03EB4000002304E030F8134021F8E5
S315080079B013405B1C9342F8DB002010BD2DE9F04113
S315080079C082B004460D4616460027DFF8308A01E0E5
S315080079D0B81CC7B2B7421ADA78194078795D01EB54
S315080079E00020ADF80000012200A907EBD77004EBD0
S315080079F06000DFF80C3A1B88C01A08EB4000FFF756
S31508007A00F4FE0028E4D002F036FF002000E0012052
S31508007A10BDE8F681F8B504460E46154600270DE082
S31508007A2000F019F8761C04EB4700BDF80010090AA7
S31508007A304170BDF8000004F817007F1CB7EB550F1E
S31508007A40EEDBE80706D500F006F82819BDF80010A1
S31508007A5000F8011CF1BD012200A9B0B29AE7DFF8CF
S31508007A609C19DFF89C291288801A01EB4001022034
S31508007A70FFF782BEDFF88C19415CDFF88C29825C3F
S31508007A80DFF88839C05C10B102F5997292B241EA02
S31508007A90C21080B2704710B5DFF8743903EB4002A4
S31508007AA0DFF86049005D012801D1104610BD108835
S31508007AB0081803EB400010BD38B50C46DFF854191A
S31508007AC00D782A462146FFF765FF208800281CBF47
S31508007AD04FF6FF7188420AD0012000E0401CC0B270
S31508007AE0A84206D234F8101022889142F6D0002017
S31508007AF032BD012032BD2DE9F04F9DB089460446BE
S31508007B00DFF81479002038707880DFF810090088CB
S31508007B10ADF8000008A9FFF7CFFF8246012078706C
S31508007B20DFF8FC080588DFF8FC08B0F80080BDF827
S31508007B300060DFF8CC080088ADF8040083460AA97F
S31508007B40FFF7BAFFD0B1BAF1000F43D04FF6FE7077
S31508007B50BDF82010814204D1BDF82800012806D1BD
S31508007B600FE0012904BFBDF82810814232D0BDF8C4
S31508007B702000BDF8281088422CD202E0BAF1000F86
S31508007B8027D0002078703046CDF808B00795CDF894
S31508007B901480DFF8801809788DF806100818ADF8F3
S31508007BA0100000F05DFABDF81000FFF7F3FEDFF8ED
S31508007BB0780800880690BDF80200000B4FF6FF789B
S31508007BC09DF80610884218BF0F2800D114B3002567
S31508007BD015E0012478780128D5D158460296CDF8C3
S31508007BE01C800595D5E7069805FB00F4BDF804004A
S31508007BF000F028FCBDF8000000F024FC6D1C9DF880
S31508007C0006008542EFDB012038704D2002F033FE76
S31508007C100025FBE0BDF8105000F022FA2846FFF7D1
S31508007C20B9FE6E1CBDF80200C043C0B2ADF8020032
S31508007C30DFF8F8070588BDF80200A84218BF012436
S31508007C404FF0000A1FE0401CC1B2A94217D2C0B2C9
S31508007C508346DFF8DC1731F81B10BDF80E20914279
S31508007C60F1D1FFF707FF4FF680710840BDF80C10F9
S31508007C704FF680721140884208BF0BF809A00AF136
S31508007C8001001FFA80FABDF80200824507DA0222CF
S31508007C9003A9B0B2FFF77EFEB61C0020D4E7002188
S31508007CA000E0491CA94219DA11F809008842F8D0FF
S31508007CB0012413E02AF81160012201A9BDF8103049
S31508007CC003EB4000401C00F0D0FABDF80400C0F3F6
S31508007CD0C710401C00EBD07006EB6006DFF830A733
S31508007CE0B6B20598864213DA012200A93046FFF794
S31508007CF051FEBDF8000040450AD0761C000ABDF8C2
S31508007D00001001F07F02BDF80210884202DB012450
S31508007D1000252BE0002100E0491CA942CCDA11F825
S31508007D2009308342F8D1C9B2FF29C5D07F2A0CBFD2
S31508007D304FF0000C9446DFF8CC36CB5C9C4509DA4C
S31508007D40BDF800C0CCF3C01CDFF8C0E611F80EE0A1
S31508007D50F44501D00124AFE7012BABD07F2A08BF39
S31508007D6000223AF811105118A4E76D1CDFF8C40672
S31508007D700088854204DA3AF815004045F5D1012411
S31508007D807E80B5B2059885420ADA012200A92846FE
S31508007D90FFF700FE6E1CBDF800004045F1D034E741
S31508007DA0002CFCD101220CA9029800F05EFABDF85D
S31508007DB0300040450DD105E0401C80B2202813D381
S31508007DC02034A4B20799029A891A8C4205DB01204D
S31508007DD0387000201DB0BDE8F08FA51820220CA928
S31508007DE0A8B2FFF7D7FD00200CA931F810104145BD
S31508007DF0E2D0A8B2FFF733FE203CA4B2E0E702982F
S31508007E00069905FB010000F01EFB6D1C9DF8060097
S31508007E108542F4DB01203870414600F043F818B17A
S31508007E2000F022F90028D4D10120D3E72DE9F8453E
S31508007E3004460D4616469A4631462846FFF72BFE57
S31508007E40B0F80080DFF8C075DFF8E01509888D42C4
S31508007E500AD27F2E08BF0026DFF8A805285C8642CE
S31508007E6002DAE85D824503D040F2864100F0F9F96E
S31508007E70DFF89805285C68B14146284600F028FADC
S31508007E80E95D012908BF20700AD0022914BF2060C5
S31508007E90208005E0524641462046BDE8F845B9E54A
S31508007EA0BDE8F1852DE9F34F83B0DFF85405048862
S31508007EB0DFF86405407800281ABFDFF860050088F7
S31508007EC02046DFF8501509780D18ADB2DFF85C05C5
S31508007ED00088ADF80800C043C0B200EB013000F5D9
S31508007EE05060ADF8020000F0CAF92B1B00F0C3F988
S31508007EF06E1CB6B2002832D10025DFF8347510E0C2
S31508007F00E8B2FFF7B7FDADF8040037F81500ADF88D
S31508007F100600022200F0ACF9002820D1B61CB6B241
S31508007F206D1CBDF808008542EADB002500E06D1CE3
S31508007F30BDF80800854280F28E804FF0000A1AE0EC
S31508007F4000F08EF81FFA89F0FFF724FD09F1010900
S31508007F5000F095F9BB191B1B00F08DF9002874D1A8
S31508007F607F1CFFB25F45EBDBDFF8CC04285C861983
S31508007F70B6B20AF1010ADFF88C0415F800B05FFA08
S31508007F808AFADA45D3D25146E8B2FFF784FD80462D
S31508007F90B8F80090DFF874042F5CF80140EA052071
S31508007FA0ADF80000BBF1010FBDF800000CBF40F0B2
S31508007FB07F004AEA0000ADF80000DFF84004311BF4
S31508007FC000EB4100711C89B201914FF6FF7189459A
S31508007FD01EBFBDF80010BDF81020914218D19DF8BB
S31508007FE00C100029C5D0012200A9FFF7FEFB019E4F
S31508007FF058BBA8F80060DFF810042A5CDFF83C04D8
S3150800800050F82510B0B2FFF7D9FC0028ACD11FE014
S31508008010DFF8F413695C491C01EBD171C9054FEA15
S31508008020116B012200A9FFF7E0FB019E68B9A8F8C9
S315080080300060002F95D04946E8B200F049F9019052
S315080080405A4600F015F900288ED002F014FC0020DC
S3150800805005B0BDE8F08FDFF8C00346800120F7E7DA
S3150800806001220DF1020170472DE9F04182B0DFF8D7
S31508008070AC030688DFF888030488DFF89C53687821
S31508008080002812BF204630462646012200A9FFF7DF
S3150800809081FCBDF8000001280CBF4FF6FE70401E9B
S315080080A0ADF80000DFF86C030778DFF85083384630
S315080080B0471E70B1012200A9BFB2B819001B08EB10
S315080080C04000FFF792FB0028F1D002F0D4FB002015
S315080080D007E06978481E8041C00F68700020287044
S315080080E00120BDE8F6812DE9FE4F83460C4617466A
S315080080F09A4600208DF80400012539465846FFF7B0
S31508008100CAFC81465E46C94909888B450AD27F2F33
S3150800811008BF0027BB48305C874203DABA48305CA0
S31508008120824503D040F2A95100F09BF8BA4F7878FF
S3150800813020B1BB48B0F80080B14803E0B948B0F8B0
S315080081400080B6480088397849B97988081ABC4940
S3150800815009888842B4BF4320442002F08CFBB9F852
S315080081600010AA48305C78B1584600F0B1F8BAF168
S31508008170010F08BF217804D0BAF1020F0CBF21887D
S31508008180216881426BD02BE002914FF0000B23E06F
S31508008190012200A902980BEBDB7300EB630000F0E9
S315080081A064F80BEB040040781BF8041001EB002080
S315080081B080B2AAF101018B4505D1C0B2BDF8001005
S315080081C0C9B2ADF80010BDF80010884218BF0025E6
S315080081D00BF102005FFA80FBD345D9DB002D3ED1B7
S315080081E0FFF73EFFB9F80000401E00F03EF892483F
S315080081F0355C7888A8F10101491B814200DB60B92A
S31508008200387808B945201CE0BDF802100020FFF7B1
S3150800821049FE20B301208DF804007888401C788038
S315080082207949725C214680B2FFF7C8FBB8B100F005
S3150800823026F87B885B1E724C24881B1B00F01BF8F3
S3150800824010B102F018FB0AE09DF8040010B1FFF720
S315080082500BFF20B17888A9F8000028187880BDE8B7
S31508008260F78F0FF2E810FCF7F1BB80B2FFF792BB6D
S3150800827001A96248331B00EB4300FFF7B6BA012297
S315080082800DF102015D48704770B582B004460025BD
S315080082901926012200A9A0B2FFF77CFB641CBDF8D1
S315080082A0000048B14FF47F41401A02D0FF3806D08B
S315080082B007E0681C40B276BDAD1C761EE9D168B2EF
S315080082C076BDBDF80000C0B200B96D1CE843F1E701
S315080082D038B50C46002100914B49455C2A46214693
S315080082E000A8FFF797FB681C00EBD07004EB600052
S315080082F080B2FFF7C9FF002848BFC043009940B2C3
S31508008300401832BDF0B583B004462546404830F8DB
S315080083101560464909888C4202D23C48285C18B93F
S3150800832040F2A961FFF79DFF37482D5C681C00EBFA
S31508008330D07006EB6007B8B2FFF7A6FF322814D252
S31508008340C1074CBF00214FF47F41ADF8041001224C
S3150800835001A92A4BBFB207EB6000294F3F88C01B13
S3150800836003EB4000FFF741FA60B131462046FFF7BC
S31508008370AFFF0090401C00902B467F2200A92046A4
S31508008380FFF7B1FEF7BDF8B5234C2078002832D1A7
S315080083901B480588607800281ABF204806882E469C
S315080083A01C4807783846471E02281DD3012200A913
S315080083B0FFB2B819FFF759FFBDF800000028F1D041
S315080083C01948008807FB006000F03DF80020ADF86A
S315080083D00000012200A90948BB195B1BFFF74BFFE8
S315080083E048B102F048FAF1BD3046FFF738FBFFB254
S315080083F00FB901202070F1BD0000000000E003085D
S31508008400D89B0108749C0108589C01083C9C0108EB
S31508008410F87B0020D49B0108AE7F0020DC9B010876
S31508008420DA9B0108DE9B0108D69B0108E29B01083E
S31508008430049C0108E49B0108E89B0108989E010832
S31508008440E09B0108201880B2FFF709BB73696D2D00
S31508008450656570726F6D2D696E7465726E616C2ECE
S3150800846063000000DFF8880500210170FF21017212
S3150800847001737047F8B5044602F0B4FA0546DFF80A
S3150800848074050688DFF86875204602F0B9FBB0F572
S31508008490006F1CD1204602F0D5FB00F0B9FAFF2880
S315080084A013D0DFF85415096831F8102042F020027D
S315080084B021F81020214607F10C0001F0EFFE38786C
S315080084C090B1A819398A461A13E09320F2BDFF2104
S315080084D007F1080001F00DFF052803D2214607F130
S315080084E00800EAE73920F2BD3D823146384602F0F7
S315080084F03CFCB2B20321204602F0FDFA0322052114
S31508008500204602F003FB204601F030FC0020F2BDB5
S31508008510F8B50446DFF8D804007AFF2813D0DFF848
S31508008520DC542968465C3746384602F07BFB08224D
S3150800853001462046FFF7EEF808B90120F2BD286883
S315080085403F5CB742F0D10020F2BDF8B5044602F010
S31508008550FFFA050B204602F08BFB0646204602F082
S3150800856075FBB0F5404F15D1E8073BD531460020DD
S3150800857000F081F90446FF2C34D0002102F000FDFA
S3150800858080B300F0A1F940F080020521204602F0F0
S31508008590BDFA27E0304601F032FE00F039FA04460B
S315080085A0FF2C01D10020F2BD01200021224602F055
S315080085B0EDFEDFF84C24D2E9006706430F43C2E913
S315080085C00067EB070ED5DFF830341B6833F8143034
S315080085D04FF4FE64234205D0D2E9024520432943DD
S315080085E0C2E902010120F2BD38B5044602F008FBD3
S315080085F0B0F5006F0CBF01250025204602F012FBDE
S3150800860004462146284600F036F9FF2810D18DB1D8
S31508008610204601F0F4FD00F0FBF9FF280AD0DFF848
S31508008620D813096831F810004FF4FA61084201D0EE
S31508008630012032BD002032BD2DE9FC4107460C461B
S31508008640DFF8AC5302F0DCFAB0F5006F0CBF05F1A9
S315080086500C0005F108000078FF2848D0DFF89C13C5
S315080086600968405C0646B7423ED1FBF7E3FE804602
S315080086700521304602F051FA00F07F00471EFAB293
S315080086800521304602F042FA002C18BF312C01D0E1
S31508008690F8B210BBFBF7CEFE0746F0B202F0B0FA0E
S315080086A0B0F5006FF1B206D105F10C0001F021FE1C
S315080086B000F00EF903E005F1080001F01AFE38464D
S315080086C0FBF7BEFE4046FBF7BBFE2146304603F0ED
S315080086D013FD304601F058FB04E000F0F9F8404677
S315080086E0FBF7AEFE012003E0765C8642BBD1002094
S315080086F0BDE8F68138B502F075F9BD4C218A421AF3
S315080087004FF6FF75ADF80050208200A990B200F030
S3150800871000F9BDF80000A84202D10020207031BD42
S315080087200146204602F021FB31BD00214FF6FF70BD
S31508008730EFE02DE9F84FDFF8C892D9E900010029E2
S3150800874008BF002800F0908000260124B2460027C2
S31508008750B846FBF76FFE8446D9E9000104EA000231
S315080087601AEA010308BF002A18D00127E5436FEA71
S315080087700A0B284001EA0B01C9E90001D9E90223DD
S3150800878004EA02001AEA030108BF002806D0B84620
S3150800879002EA050003EA0B01C9E902016046FBF794
S315080087A04FFE002F51D09448006830F81600810714
S315080087B04BD59449096831F81670B8F1000F05D001
S315080087C000F49871102908BF012500D000258E49AC
S315080087D0096800227254B8F1000F25D0800623D507
S315080087E08DF80070380A8DF8010000A9012000F004
S315080087F042F88046B8F1FF0F07D100F037F84FF678
S31508008800DF72114020F816101BE0002102F0B8FBB9
S31508008810B8B10521404602F080F940F080020521F2
S31508008820404602F073F90CE085F00100414601422A
S3150800883007D000F01BF841F4006120F8161004F088
S3150800884001F82946384601F0CCFF761C4FEA4A0063
S3150800885040EAD47A6400402E06DAD9E900010029F4
S3150800886008BF00287FF473AFBDE8F18F624800683F
S3150800887030F8161070472DE9F04188465C49002803
S3150800888019BF01F10C00022501F10800082500783E
S31508008890FF2816D0594E3168475C3C4600F014F85C
S315080088A000060AD4204602F0BDF901462A4640468B
S315080088B0FEF730FF08B9204604E03068245CBC4265
S315080088C0ECD1FF20BDE8F0810521204602F025B94C
S315080088D070B50021202004F032FA4548007BFF28B5
S315080088E016D0464C2168455C2E46304602F0AAF959
S315080088F000F08EF8FF2807D03F49096831F81020A4
S3150800890042F0200221F810202068365CAE42ECD1F5
S3150800891070BD2DE9F84F80460D460FF2F00000684D
S315080089200090DFF8CCB00BF10804344F01E00BF1EE
S315080089300C04FBF77FFD064606E0204601F0C3FC63
S31508008940514600A801F0AAFC204601F007FD48B9E7
S315080089502078396810F801A00321504602F0C2F8C1
S315080089608045EAD20BF10C00844208BFFFF7B0FF3E
S315080089703046FBF765FD2078FF2819D0396810F8CE
S315080089800190CA460321504602F0ACF8A0EB08064F
S31508008990B2B20321504602F0AEF82888B6B2864233
S315080089A088BF06462E8038681AF800A0CA45E9D15D
S315080089B00BF10C008442BAD100A801F0CFFCA8B98B
S315080089C000A801F080FC044602F0CCF800F0E4F8B8
S315080089D0FFF77AFF000603D44221204603F08CFBFA
S315080089E0204601F0D1F900F0D8F8E5E7BDE8F18FA7
S315080089F0687800206476002000760020F075002054
S31508008A00D0780020F875002004760020FF000000CA
S31508008A10F8B506000C4C276814D0FBF70BFD0B4D78
S31508008A202978226822F8116037F8021BB142FBD177
S31508008A30FBF706FDB81E2168401AC0052978000E06
S31508008A40884200D1FF20F2BDF8750020FC75002091
S31508008A5010B568480068684C2060606048220021AC
S31508008A60FEF751FE206865490978017020680021E3
S31508008A7001732068417320680B21817320680321E4
S31508008A80C17320684FF6FE7101824FF6FF7141826D
S31508008A9000F088FB2168087600F084FB2168487698
S31508008AA000F080FB21688876206855490978C176E8
S31508008AB020685449096881625349097880F82C105E
S31508008AC0206852490968016310BD10B5FBF7CAFE54
S31508008AD0494C6168897B884203D00846FBF7BAFE91
S31508008AE050B9FBF7C2FE0146606890F90F00814253
S31508008AF004D0FBF7BEFE08B1012010BD6068008AED
S31508008B00FDF7AAF96068408AFDF7AEF96068007B50
S31508008B10012818BF0020FDF789F9002010BD10B5FF
S31508008B203B4C0020207004F094F820B92046BDE89C
S31508008B30104002F00FB901F01DFE08B104F049FC1F
S31508008B404DE080B5002000F015F828B1002000F0AF
S31508008B5005F808B1002002BDFF2002BD26480068BE
S31508008B60407B02281CBF1128432801D101207047E9
S31508008B700020704720480068017B04298041C00F07
S31508008B80704770477047002070470120704770474C
S31508008B9000207047002070477047704700207047D4
S31508008BA00020704780B50020FFF7D8FF30B1124883
S31508008BB00068007B032801D2002002BDFF2002BD09
S31508008BC010B5040004D0D9210FF26800FBF73EFF68
S31508008BD048200849096800FB041007494860BDE8B1
S31508008BE0104072E704484068008A704702484068A7
S31508008BF0408A70472C760020E47D0020CD7F002037
S31508008C00CE7F002034760020387600203C7600207F
S31508008C10D47D00207047002070470020704702F07E
S31508008C20E6B97047704701F0D3BD04F0AEBC01F059
S31508008C301BBE0000656D6265722D6D756C74692DBD
S31508008C406E6574776F726B2D737475622E63000090
S31508008C5070B504460D461646FDF7CEF838B160786D
S31508008C60002E14BF40F0200000F0DF006070294697
S31508008C70204601F00CF9FF2822D09C4C014604F14D
S31508008C800C0001F00BFB2088401C2080618880B214
S31508008C9081420BD2A088401CA08004F10C0001F090
S31508008CA012FB01F071F82088401E20806088218818
S31508008CB08842F2D38E480078BDE8704002F04BB97E
S31508008CC070BD2DE9F04E86B0044600208DF80500EB
S31508008CD0FBF7B0FB854D2988491E2980FBF7B0FBB9
S31508008CE0204600F0DDFF90F8009090F801A00020E3
S31508008CF0009008237F480068205CA0F10802D2B2E1
S31508008D00214602A801F0DDF802AE7078FFF744FFAD
S31508008D107948007898B1A86800280FD0F078FCF751
S31508008D202BFD4946FCF72FFD024696F9020000F195
S31508008D3066035BB24946204600F0BCF894E00AF0A8
S31508008D40070002282DD0FF208DF80400204600F0E9
S31508008D50A7FF00F1010B584601F037FF0546A9EBBE
S31508008D600500801E47B2002F06D5204601F00CF8F4
S31508008D70FFF713FF002081E001A9584605F088FF98
S31508008D80002874D10AF0070001280BD105EB0B0166
S31508008D909DF8040003F0D5FC20B99DF8040000F006
S31508008DA0F3FF64E09DF804005249096810F801A031
S31508008DB05249096844544F480068205C00F1200174
S31508008DC0C9B29DF8040000F071FF9DF8040001F097
S31508008DD0C4FE00F00C0004281CBFEF19002578B269
S31508008DE080B200906B1C9BB2224651469DF8040047
S31508008DF001F022FA07EB0A01C9B29DF8040001F056
S31508008E0012F970783E490978884204D3BD210FF2D9
S31508008E10F800FBF71BFE9DF8040001F099FE80049C
S31508008E20800C717840EA813189B29DF8040001F01E
S31508008E3091FEF078FCF7A0FC4946FCF7A4FC024634
S31508008E40032100F01EF8B07800F16602D2B20421C0
S31508008E5000F017F89DF80820052100F012F89DF893
S31508008E600440204602F0C9F901208DF80500204685
S31508008E7000F08AFFFFF791FE9DF8050006B0BDE8F1
S31508008E80F08E9DF8040001F041BE10B5174CA1887C
S31508008E9029B1C9B21D20FFF7CAFE0020A08004F13F
S31508008EA00C0001F010FAFF2803D0FFF70AFF00288C
S31508008EB0F5D010BD30B5A1B014461D46002200926B
S31508008EC04B1CDBB2014601A800F0FBFFFFF75FFE73
S31508008ED02A46214601A8054B9B689847FFF75DFE81
S31508008EE021B030BD074801F039BA00009878002053
S31508008EF0D77F0020E4750020DD770020EC75002080
S31508008F0030760020A47800206D61632D7265636554
S31508008F106976652E6300000038B504460D460120C3
S31508008F2005F0A0FF5A48002D12BF00210178491C00
S31508008F300170584844705848FCF750FC0020BDE8BA
S31508008F40324005F08FBF10B51446A8B3402820D08C
S31508008F50882818BF892833D08D2828D08F2836D15D
S31508008F604E48007804280DD144B14D4802210170BD
S31508008F7040F60620BDE8104005F07CBFFCF7E2FE8F
S31508008F80312020E0FCF7DEFE002C0CBF312000204B
S31508008F9019E03F4801784078814204D20021012037
S31508008FA0BDE81040B8E7FCF7CDFE40200BE00121F4
S31508008FB02020FFF73CFE05E0FCF7C4FE002002E097
S31508008FC0FCF7C0FE8D20BDE8104002F0BCB8D021E9
S31508008FD00FF2E400BDE81040FBF738BD30480078D2
S31508008FE0022800D0704780B52E480078042807D09C
S31508008FF00C280ED12C480078022818BF7C2808D1E6
S3150800900005F053FFFCF79EFE0020BDE8024002F083
S315080090109AB801BD38B50024FBF70CFA0546204876
S31508009020007810B9FCF726FB04462846FBF708FA31
S31508009030002C1CBFBDE8314001F01BBC31BD80B51A
S31508009040FFF7E8FF14211948BDE8044001F094BE73
S3150800905040F20D110FF26000FBF7F8BC38B5144C5E
S315080090602068216C01EA0005ADB2A80706D5206C78
S3150800907020F0020020640F4801210170680705D519
S31508009080206C20F00400206403F0BEFC256031BD8E
S31508009090A8780020AC770020607E0020E7770020C3
S315080090A0547E00203C7800203D7800206C7F00200C
S315080090B008A00040E27F00206D61632D656D3235A2
S315080090C0302E630038B504461B4D214600F03DF8A6
S315080090D0E860211D00F039F8A86004F1080100F0E5
S315080090E034F8686004F10C0100F02FF8286031BDEF
S315080090F07047F8B50446114D80202860104E0620AA
S3150800910030600720286030688007FCD5002704EB0C
S31508009110870100F01AF8A8627F1C042FF7D330687D
S315080091204007FCD500262A6B04EB860100F00AF8F6
S31508009130761C042EF7D3F1BD3830004000300040CD
S3150800914010A00040002005F0C3BE002005F0CEBEEA
S3150800915070B504460D46FBF76DF906462846FFF737
S31508009160B1FF2046FFF7C5FF3046BDE87040FBF764
S3150800917067B9002848BF40427047000081B209B964
S315080091804BF6EF610E4A1180000C08BF4FF6CE2051
S31508009190508070470288130448BF4A405100018036
S315080091A01046704738B5064C62212046FFF7F2FF95
S315080091B0054641F20B01A01CFFF7ECFF684032BDE3
S315080091C028770020002181F3118870472DE9F04F98
S315080091D0DFF8BC4591B0804660680F90B8F1070F7C
S315080091E008BF4FF0030804D0B8F1080F08BF4FF0C6
S315080091F00208DFF8A0653068716840EA0120B168A6
S3150800920040EA014000907068400703D5E06940F0E5
S315080092100200E0613068400703D5E06940F00400C9
S31508009220E0610098F169C840C00703D5E06940F0DD
S315080092300800E0610020DFF85475DFF85C557860B7
S31508009240B8F1010F00F04A82C0F07382B8F1030F3B
S315080092501BD005D3B8F1040F40F06B82606014E0B0
S31508009260286CC00703D5E06940F04000E061286C2F
S31508009270400703D5E06940F02000E061286C8007CC
S3150800928003D5E06940F01000E061FBF7D3F8FDF77D
S3150800929056FD8DF838004FF00009DFF80015DFF8A5
S315080092A000A5C1F500410120090B00FA01F1491E8C
S315080092B0CAF83810090A07D1DFF8E814097819B18D
S315080092C0616C41F020016164296CDFF8DCB4DFF8D9
S315080092D0DC24DFF8DC340D91696C0C91DBF84C105A
S315080092E00B91DBF850100A91DBF854100991DBF862
S315080092F058100891DAF800100791DAF80410069168
S31508009300DAF814100591DAF824100491DFF8A41499
S3150800931009685268039202222260DFF89C241268C8
S315080093201B6842EA0322DFF894341B6842EA0342C8
S3150800933002924FF0FF326262DFF8842413687A687B
S31508009340DB0408D57368DB0705D5E369DB0744BF8B
S31508009350814642F48072DFF868341B689B0408D59E
S3150800936073685B0605D5E369DB0744BF814642F4AB
S315080093708042DFF84C341B685B040ED5009BD6F898
S3150800938018C023FA0CF3DB0707D5E369DB0704D516
S31508009390B36900FA03F381461A43DFF824341B68DD
S315080093A01B0410D5009BD6F81CC023FA0CF3DB0768
S315080093B009D5E369DB0702D4E3691B0703D5F3691B
S315080093C0814698400243DFF8F8030068C00306D5D3
S315080093D0E069000644BF4FF0010942F000627A6076
S315080093E000207268D20748BF4FF480507268520650
S315080093F048BF40F40050009AB369DA40D20748BF24
S3150800940040F48040009AF369DA40D20748BF40F436
S315080094100040E269D20605D4E269920602D4E269FE
S31508009420520601D540F01000E269120648BF40F422
S31508009430803008400190A520FDF778FC0120E06304
S31508009440E069A16B11B1616A0142FAD0616A014211
S3150800945000F0DB800020E0634FF00109786840F0F7
S315080094608040786000F0D0F9072028600F20CBF8FC
S31508009470000001F049FA0F9860600D9828640C986E
S3150800948068640B98CBF84C000A98CBF850000998FA
S31508009490CBF854000898CBF858000798CAF800008B
S315080094A00698CAF804000598CAF814000498CAF879
S315080094B024000199BF480160BC48039941604FF0F8
S315080094C0FF31C0480160BC48BC490268B84800681A
S315080094D00968636AD4F81CC00CEA0303D6F81CC0F2
S315080094E0D7F804A0DDF808E042EA002040EA014087
S315080094F0009980EA0E000840590801F0010140EA87
S315080095008120990801F0010140EA8100D90801F09B
S31508009510010101FA0CF1084303F47C7140EA015099
S3150800952040EA0A007860FAF785FF00F07BF9002028
S3150800953020609DF8380008B1FDF7EDFB78689D4975
S315080095400968C90303D5010144BF20212162296C9A
