S01B00003730375F746573745F62616973635F61735F5A432E7333378C
S31508000000F81D002025E80108E5C50108E7C501082F
S31508000010A70B0000000000000000FFFF54000008C6
S3150800002004030300000000000000000000000000B8
S3150800003000000000000000000000000000000000B2
S315080000400000000000000000000000007A01000027
S3150800005000000000F81D002025E80108E5C5010894
S31508000060E7C50108A70A080100010008040303AC54
S3150800007000537A01000000000000000000000000A4
S315080000800000000000000000000000000000000062
S31508000090000000000000000000000000FFFFFFFF56
S315080000A0FFFFFFFFFFFFFFFF00E002080000000060
S315080000B000000000FFFFFFFFFFFFFFFFFFFFFFFF3E
S315080000C0FFFFFFFFFFFFFFFFFFFFFFFFFFFFFFFF32
S315080000D0FFFFFFFFF02F002000000000ED2F00209B
S315080000E0ED2F0020F81D00204C4D0208E4EB010816
S315080000F098140020440D002000000308003000205A
S31508000100F81D002025E80108E5C50108E7C501082E
S31508000110EBC50108E9C50108EDC5010860C7010876
S3150800012060C7010860C7010860C7010860C7010801
S31508000130EFC5010860C7010845EA0108739501087B
S315080001404D19000860C70108E90C010860C70108D5
S31508000150630701081161010860C7010860C7010843
S31508000160FD5B0108F1C40008437F000871B7010868
S3150800017060C701088F1A0008D71A00081F5401081B
S315080001804B50010860C7010860C7010861C701082C
S3150800019080B53C2000F0D0F9BDE80440002807BF30
S315080001A001210FF2AC0001210FF2AC0001F090BB67
S315080001B080B52149002008700E2001F04BFC01286B
S315080001C015D101F002FD78B901F0FCFE10B901F075
S315080001D0E6FF10B90FF2880001E00FF27C00BDE8D7
S315080001E00440012101F074BBBDE80140D0E71620A8
S315080001F001F030FC012805D110480078BDE802401E
S3150800020002F00EBA01BD80B5902802D1FFF7C0FFF3
S3150800021006E0912804D101210FF23C0001F058FBB9
S31508000220002002BD0E2818BF162804D1012904BFD4
S31508000230014802F051BA704700270020D82700204D
S3150800024070477047704701207047002070470000CC
S315080002501F0100010F0100000F0100011F0500002A
S315080002601F010000DFF8D42C1268127882420AD0E7
S3150800027019B1012A03D1022805D000207047022AA5
S3150800028008BF0128F9D101207047DFF8B41C0875AA
S31508000290704710B5DFF8A44C2068407B112804D0BD
S315080002A0B6210FF2100002F033FB2068412141739A
S315080002B010BD00006173736F63696174696F6E2E98
S315080002C06300000080B5022003F065F903F06CF9BD
S315080002D0DFF86C0CDFF8641C0968097B042903D372
S315080002E0C17C491DC17404E04FF47A71183002F0DC
S315080002F0FEF900F0A3BE10B5DFF8444C0020607488
S315080003002078FF2803D003F022FAFF20207010BDC2
S3150800031038B504460D4603F0A3F9007C00F0070142
S31508000320400800F0380000EB410000F11102DFF848
S31508000330E00C0068205CD2B282420ADA831ADBB289
S315080003400F2B88BF0F23002000902146284603F074
S315080003509BFA31BDDFF8E40B0068407B33281CBFED
S315080003604328532801D101207047002070471FB544
S3150800037003F03FFDF8B1DFF8C84B00A92078FFF776
S31508000380C7FF0020207661790DF1030001F008F916
S31508000390FFF7B1FF00F010F800F010FC007DC00771
S315080003A002D504F059FF08B905F08CF904F053FF9B
S315080003B0012001F029FA1FBD10B500F0FFFB017BF3
S315080003C0032906D340884FF6FF71884208BF0320E9
S315080003D008D001F0B3FB044601F0B4FB214605F052
S315080003E0A2FA022001F0B6FB05F0A6FCBDE8104013
S315080003F000F028BE38B5DFF8484B2075FFF77BFFBD
S3150800040000214FF6FF7001F0CBF9DFF8305B286862
S31508000410417B032918BF00291CD0332918BF43295B
S3150800042012D101F05FF92868017B032906D303215D
S315080004304173207DBDE8324003F0FFB8207D03F00C
S31508000440FCF8BDE83140B7E721214173BDE83140EA
S3150800045005F081BE31BD10B500F0B0FB0021417337
S315080004604FF6FE7006F06AF94FF6FF7006F06EF961
S31508000470DFF8CC4A01F036F9207DBDE8104003F0DC
S31508000480DCB83EB50446E07A029094F90A00019079
S3150800049020890090234615220FF2940100F0FAF9FC
S315080004A0DFF8980A0068407B78B920894FF6FF7113
S315080004B088420AD0DFF8AC0B00780A2805D103F089
S315080004C075F810B903F074F808B170203EBD2146DE
S315080004D001F020F8050008D1012000F0FFFF0021F7
S315080004E0012006F083FA050001D028463EBDDFF854
S315080004F0780B007808B107F093FA00220821204605
S3150800050001F09FFB30B10421204607F0B7FD08B97A
S31508000510A5203EBD00202074E081DFF8500B606105
S31508000520204600F0F7F8054602F0FDFFDDE700007B
S3150800053042387057424200001CB50446234618222A
S3150800054001F0D2F8DFF8280B0021017114B1FF2C55
S3150800055002D10121017007E0012100F8041BA10066
S31508000560491C89B202F0CAF800F06CFD002016BDDD
S31508000570DFF8FC0A002101710020DDE730B589B0FB
S3150800058004460D4668690790287C0690E889059018
S31508000590287B0490E87A039095F90A000290288946
S315080005A001900095234616220FF25C1100F072F9AD
S315080005B0287B00280CBF4FF6FE7006F0BBF82B46CA
S315080005C022460146012009B0BDE830402DE9F04138
S315080005D080460F4616461C46DFF860592868407B59
S315080005E000284BD1701EC0B2052847D2DFF8740A1E
S315080005F000780A2842D102F0D9FF00283ED102F03D
S31508000600D7FF08B1042E39D3207B032816D14FF61D
S31508000610FE70874214D1012E08BF002710D0022E83
S315080006202CD106F087F84FF6FC71884202D206F004
S3150800063081F801E007F016FE074601E0012E1DD0FD
S31508000640B8F1000F0CD0207B03280CBF0121002134
S31508000650012E0CBF0120002006F0C8F9002850D151
S315080006602146384600F056FF00284AD102F098FF86
S3150800067002F084FF20B102F09BFF08B1702040E031
S315080006802868407BDFF8B87833281EBF5328002037
S315080006907875304600F022FFDFF8CC69307820B153
S315080006A002F086FF08B907F0BBF9207B032803D1BF
S315080006B02046BDE8F0412DE00822214607F1080052
S315080006C007F01AFF207B032828BF00203874FFF79D
S315080006D012FE94203875387C00280CBF0120312082
S315080006E0296848730020B874727801202968897BC4
S315080006F000FA01F1032007F069FF10B1296800220A
S315080007004A73BDE8F08100004242387057424242BF
S315080007105742440010B504460022082101F091FA18
S3150800072008B1012010BD06F005F800224FF6FF714A
S3150800073000F019FF217C204600F032FF6269E1894A
S31508000740207C05F02AFBDFF8F4070068007B012807
S3150800075008BF06F088FEFFF72FFE002010BD70B513
S3150800076082B00546DFF8D4472068407B002802BFE0
S31508000770DFF8F00800780A2801D0702076BD08F066
S3150800078040F900283FD1DFF8B8672DB10222294683
S3150800079006F1200007F0B0FE00A800F0CDFF08B172
S315080007A0932076BD9DF80030142200F09DFF00F0DE
S315080007B03FFF48BB9DF8000000F090FE2068007BD4
S315080007C0012818BF022805D003280ED3002000F000
S315080007D0F3FF50B100F043FF2068007B032828BFD1
S315080007E008F0B1F9FFF7E8FD0DE020681321417321
S315080007F00020B074052201202168897B00FA01F1E6
S31508000800052007F0E3FE002076BDFF222DE9FC4116
S3150800081004460D46904600F0D1F9017B012927D000
S31508000820407B022818BF032822D101F05AFADFF8C4
S31508000830380842782946032007F0C8FE070018D171
S31508000840332001F087F9FFF756FDDFF8F46605F067
S3150800085079FFF080002C14BF02200120307406F1C5
S31508000860080000F087FF0020B07486F8158000E0C5
S3150800087070270197009523462C220FF2100100F0ED
S3150800088009F83846BDE8F6810000000042424442B5
S3150800089000000000032008F0A4B938B5044602F0A9
S315080008A0DFFE0546204608F092FB4419204603F071
S315080008B089F94FF6FF5101402046BDE8344003F060
S315080008C087B970B584B005F035FF0646DFF870467F
S315080008D00B21207808F05AFB002100F061FFDFF8B1
S315080008E05C5601F0D3F958B11EB14FF6F87086423E
S315080008F006D307F0B7FC0646286840888642F8D033
S31508000900304605F01BFF0921207808F03FFB05F06B
S315080009101DFF2E68307B052813D100F036FF8DF8B1
S315080009200800207C00280CBF4FF4804244F20102E4
S315080009300120009002AB4FF48061708808F073FDC7
S315080009400BE006208DF8080000F01FFF8DF809005F
S3150800095000F0FCFA708809F0E4F90646FF2E08BF95
S31508000960002015D028684188304608F06EFB207CA8
S3150800097002281CBF3046FFF790FF002300221146CD
S31508000980304609F0E1FB0446304602F0E0FE204618
S3150800099004B070BD2DE9F04186B0884616461F465C
S315080009A00C9C0D9D38B9404609F0B0FC02AA03A973
S315080009B006F060FF03A807218DF808108DF8096076
S315080009C0310A8DF80A108DF80B400190012000902D
S315080009D0042302AA0121404609F0A3F90446FF2C84
S315080009E01BD0414608F031FB17B92046FFF755FFE3
S315080009F00DB9204611E0404606F068FF18B12046BA
S31508000A0009F0ACFC05E0002300221146204609F057
S31508000A109BFB204602F09BFEFF2006B0BDE8F08156
S31508000A202DE9F64F83B004461E460E9D00274FF665
S31508000A30FF7856B14FF0010B304609F0B0F9814600
S31508000A407078400800F0010A05E0BB46104608F039
S31508000A5063FB8146BA46DFF8E4040068007B032896
S31508000A6080F0A580691CC9B29DF8100003F002F851
S31508000A70054605F0020002909DF80C0018B92806F4
S31508000A8058BF45F0800500F099F8407B022804D14C
S31508000A90DFF8DC050078204301D1022721E09DF824
S31508000AA00C0030B1B4F1010868EB08084FEAD878B1
S31508000AB000E0B846BBF1000F03D0301D03F082F802
S31508000AC001E04FF6FF700121009143462A46014690
S31508000AD0484606F02CFE80464FF6FF70804508BF54
S31508000AE00127DEB11CB94FF6FF70804504D1301DD1
S31508000AF003F068F8014600E041460120019000979E
S31508000B00534642464846FFF745FF0298C0B250B9D9
S31508000B104FF6FF7148460AF099F804E03A4641460E
S31508000B2048460AF059FB002F41D10298C0B2F0B1ED
S31508000B30494640460AF0ABF80E2101FB00F7DFF8FC
S31508000B40FC130968896A79184A7942F040024A71A1
S31508000B500AF0D0F8DFF8E4030068806A38184179AB
S31508000B606A064CBF41F0800101F07F014171F6B180
S31508000B70DFF8906C9DF81000307005F0DBFD0FF281
S31508000B80340C690648BF0CF1010CBAF1000F18BF06
S31508000B900CF1020C02D10CB90CF1040C4B4642467E
S31508000BA001469CF800000AF089FBFF20307005B06A
S31508000BB0BDE8F08F0307000401050000DFF87C0399
S31508000BC0006870472DE9FE4F04468846164640469B
S31508000BD008F008FA8146DA4D297C01B101218DF821
S31508000BE00510D64F3868007B05280CBF0120002069
S31508000BF08DF8040044B1484609F0D1F882464846C3
S31508000C0009F0C0F8834605E0404608F085FA8246B2
S31508000C10DFF858BC0020009004233246414602A85B
S31508000C2002F032FE0DF1090002F0CCFF80469DF875
S31508000C300B60CCB10822DFF8341C584607F0A6FC36
S31508000C40002862D13868407B022808BF002E0BD1E5
S31508000C50404605F073FD04F035FD992300F043FD89
S31508000C60992002F0EAFC50E001F010F800284CD078
S31508000C709DF805009DF80410084301D014B944E016
S31508000C80002C42D11EB19420FFF7B4FB3DE051463B
S31508000C903868408809F0FBFF0AF02CF85246386895
S31508000CA04188404600F05FFC3868417B012916BF41
S31508000CB03129112143214173022002F06BFC40F6D1
S31508000CC0B83105F1180001F012FD07F03CFF0020CD
S31508000CD0E8743868C17E21B905F1180001F0FCFCFA
S31508000CE011E034B199F80110890702D5FFF73FFBE7
S31508000CF009E0007B042806D3052105F1180001F058
S31508000D00F6FC0620E874AD20287502F00CFCBDE858
S31508000D10F78F2DE9FE4F044608F064F9054608F0FA
S31508000D20A8F9064606EB0509204608F050F93518D5
S31508000D30EDB2204608F0F0F9804699F8007000F008
S31508000D40C7FF002818BF072F14D105F1030A4FF66D
S31508000D50FF7B7A4E012F0ED0022F14D0042F00F0FD
S31508000D60C180062F15D0072F66D0082F22D07C2FDA
S31508000D7000F08180E0E00095002322460021084625
S31508000D80FFF74EFED8E02A4621460020FFF71AFF55
S31508000D90D2E0404606F050FD584503D0014640468D
S31508000DA00AF0CBF93068407B022802D140460AF0A7
S31508000DB0D8FCC1E0691C00F0C5F807465FFA8AF15D
S31508000DC000F0C1F88246A91D00F0BCF805465D454D
S31508000DD0EFD007F0B8FE3068407B132808D100F042
S31508000DE03EFC204608F098F90146504609F04FFFA8
S31508000DF03068407B022818BF13281CD1284605F006
S31508000E009DFC384605F0A2FC0021002000F0C8FB36
S31508000E104146504600F0C4FC4948C078DFF8541AE9
S31508000E20087000F00FF93068417B132903D123219C
S31508000E30417307F050FC7FE03068407B022802BF10
S31508000E40894C2079002877D10AF0EDFC0546012067
S31508000E5021568840C0EB00181FFA88F6002002F0D9
S31508000E6099FB95FBF6F006FB1050411C89B2201D34
S31508000E7001F03DFC60E099F80100652804BF99F887
S31508000E8002006D2858D162480068205C5FFA8AF52E
S31508000E90854251D20822414601A807F02DFB00AB36
S31508000EA000222946204608F02BFE002844D19DF84A
S31508000EB00000FF2840D0DFF8C05901202870DFF86D
S31508000EC04469347002F06BFB9DF8001001A80AF023
S31508000ED03EFC02F06AFBFF203070002028709DF867
S31508000EE0000027E0204608F036F90546DFF88C09A9
S31508000EF00078FE2809D3204608F07EF8000B00F09B
S31508000F00010128460AF02BFC16E00FF6B8100088F7
S31508000F10ADF8080000F01AF8284608F002FF044663
S31508000F20FF2C09D0294608F090F8002120460AF03F
S31508000F308BFC204602F00BFCBDE8F78F2C2D002019
S31508000F4058250020C9B2204602F046BE002001906E
S31508000F500090022302AA0121704738B5022002F048
S31508000F601AFB02F021FBDFF8184900202076DFF88B
S31508000F70145902F03EFF28B12868C07E10B9FFF761
S31508000F80F6F93AE002F035FF10B900F07FFE48B1F5
S31508000F90E07C38B100F032F8E07C401EE0740AF0DC
S31508000FA08AFC2AE02868407B132809D000F06EFEE8
S31508000FB030B92868407B11281CBF4328412803D133
S31508000FC0207DFFF717FA18E0022818BF032803D078
S31508000FD0002818BF212810D10024DFF8AC5808E0F3
S31508000FE0204602F0E1FA002000F00EFC02F0DDFADD
S31508000FF0641C2878E4B28442F2D36FE3C82104F172
S31508001000180001F074BBDFF878080021C174704736
S31508001010CC23002080B5002002F0BDFA02F0C4FA05
S31508001020114800210171DFF85C080068417B02293C
S3150800103004D1007B032838BF0AF0EDF8BDE801406B
S3150800104002F0B3BA80B502F0B5FAFF2804D0084812
S31508001050007810B1012000E00020DFF83018087091
S3150800106001BD0000AC2500207C25002000F8FF0704
S31508001070602C00202DE9F04F8BB00446DFF81008ED
S315080010800068255C204602F0EBFA0646B01D02F021
S3150800109099FD814606F1090002F094FD834606F1A2
S315080010A00B0002F08FFDADF80A0006F10D0002F004
S315080010B089FD8046C60B00F00BFE18B1204607F0E6
S315080010C093FCEEE003A92046FFF722F99DF80E00EF
S315080010D0C0F3C30A9DF80D0000F00F008DF8080054
S315080010E0202DACBF9DF81A700027DFF89807006816
S315080010F0407B022811D105F025FB83450DD100A8B8
S3150800110000F038FB1C2D06DB08220DF10F0100A8A4
S3150800111007F03CFA08B104F072FFB9F5004F02BFB8
S3150800112028F4404040F6FF718842CAD11C2DC8DB1E
S31508001130002208210DF10F0000F083FD002839D1A7
S31508001140DFF850070078012830D19DF80800019093
S3150800115000965B4627220FF27071FFF79BFBDFF8BC
S31508001160380700788DF81E00ADF81CB08DF81F60A2
S315080011709DF808008DF828008DF8297008220DF1D1
S315080011800F0108A807F0B8F9FFF718FD407BDFF84C
S31508001190745601281CBF33282C7002F000FA07A8E1
S315080011A00AF0B8FFFF20287002F0FFF9DFF8D056E2
S315080011B0A87C002875D100F069FD002871D00120AF
S315080011C068740022082105F1080000F03AFD10B104
S315080011D0E888834508D008220DF10F0105F10800BB
S315080011E007F0D4F900285CD13EB9DFF89806006804
S315080011F0407B312818BF332853D101219DF80800B8
S31508001200FFF730F800284CD09DF80C00002802BFE4
S315080012109DF80D000009022843D1DFF8680600682A
S31508001220017B9DF80E20022902D1500709D438E027
S31508001230120606D405291EBF4088BDF80A10884242
S315080012402FD1DFF85866DFF858B62878FF2812D06D
S31508001250687987420BD195F902009BF900108842FC
S3150800126009DB1ED168783178884204D319E0381A28
S31508001270C0B2812815D2FFF73EF82C70204602F03E
S3150800128058FA307868709BF80000A87050460F2806
S3150800129034BF0AF101000F20E8709DF80800287194
S315080012A06F710BB0BDE8F08F2DE9FF410646884601
S315080012B01746DFF8CC450120A0740AF0DFFF0028A6
S315080012C011D1012E18BF002E0ED1009743462622B3
S315080012D0B2A1FFF7DFFA02F062F9394640460AF092
S315080012E02EFF02F062F99DE000F0F2FC28B13A46C2
S315080012F04146304607F077FB94E0DFF888552868C2
S31508001300407B23280BD100F019FC044600F01AFC98
S31508001310214604F008FB022000F01CFC82E0002FA6
S31508001320FCD121281CBF0428532802D104F013FF3E
S3150800133078E000F0ABFC002856D02678FF2E05D1C1
S31508001340607C00280CBFAB20942060E02868007BF6
S3150800135003288941C943C90F2079FEF783FF08B9D5
S31508001360982054E00BF092FA0521304607F029FE42
S315080013702968887302F0D7F8207C40BB2868007B70
S31508001380052824D000F001FA80460921304607F0E6
S31508001390FDFD07460B21304607F0F8FD4246394663
S315080013A009F0FFFEB8B994202075022002F0F2F881
S315080013B02868417B012906D0312918BF33290CD169
S315080013C0007B042809D3FFF719FE03200AE0FFF77C
S315080013D078FA0028E7D1942019E04FF41671FFF740
S315080013E00EFE0020E0741DE02868407B132814D107
S315080013F000F016F9BDF8000005F0A8F900F02FF97D
S315080014002868017B032905D3332141739620FEF70B
S31508001410F1FF07E0FEF7D0FF04E0022E04BF4046C6
S315080014200BF076FC4FF4006006F0EEF810B908F001
S31508001430DCFE08B10BF036FDBDE8FF811FB504469A
S3150800144000208DF80000FFF7B9FB007840F0200077
S315080014508DF8010000F03CFC18B1204607F0C7FAE9
S315080014603AE00DF1030000F085F90322FF210DF1A2
S315080014700B0007F084F804F07AFC8DF80E00DFF80C
S31508001480FC030078FE2828BF0020DFF81814097826
S31508001490091ADFF814241278DFF810341B789B1A1F
S315080014A09042B4BF101A0020DFF8C8231278D20081
S315080014B042F00402DBB2C0B2C018C9B28842B8BF53
S315080014C042F080028DF802200F2200A9204602F081
S315080014D04BFA401E8041C00F04B010BD38B5044613
S315080014E0DFF8A0532868017BA14203D00473204685
S315080014F002F0A0F81CB12868007B042805D302F086
S3150800150024F8FF2808BF012000D00020BDE832409B
S315080015100BF000BA38B504460D46E87A0B38C0B267
S31508001520102801D38A2032BD95F90A0000F0BAFBCB
S3150800153008B18B2032BDD3480168EA7A8A730068FD
S31508001540A97AC173204605F0F9F84FF6FE70844271
S315080015500CBF4FF6FF70288905F0F8F8C8482989A6
S31508001560C180002032BD38B50C46154605F0E6F8B0
S3150800157006F04CFE2946204600F012F9C0480178CC
S31508001580FF2918BFC07806D1BE480068007B01282D
S315080015900CBF00200120B749087031BD4242420005
S315080015A07FB504460D4600F03BF8B64E94B1C04AE6
S315080015B00021284604F0F1FB306801788DF8041004
S315080015C0007B8DF805000822214602A806F094FF44
S315080015D00BF041FF3068817B8DF80310C07B8DF8D6
S315080015E0020005F0AFF8ADF8000005F0A3F8ADF875
S315080015F0060000F017F87FBD1FB5044600F010F886
S315080016001CB100208DF8050007E005F093F8ADF849
S31508001610060005F097F8ADF8000000F003F81FBDC6
S3150800162000A833E01023072200A900200CF0F4B824
S3150800163000B58BB0FFF7F4FFBDF80000ADF8180051
S315080016409DF803008DF81B009DF802008DF81A001E
S3150800165004A9BDF80600FFF75DFF0BB000BD1FB576
S31508001660012000F0A9F804460BF000FFFFF7D8FFA9
S315080016701CB900224FF6FF7103E0FFF79FFA021D1F
S315080016804188BDF80600FFF76EFF1FBD102307222D
S31508001690014601200CF0C0B838B5062001F07BFFE2
S315080016A0044601F081FF774D2868824909788173DD
S315080016B001F078FFA04208BF01F00BFF00210020CF
S315080016C0FFF76EFF9B2300F00EF89B2001F0B5FF95
S315080016D028680021A0F84410A0F84610BDE831405B
S315080016E001F063BF237D132261A1032007F079BAB5
S315080016F080B5A0F10B01C9B2102901D38A2002BD19
S3150800170060490968497B022918BF032901D070205E
S3150800171002BD68490870062001F03CFF00216648B2
S315080017200AF01EF920B1012808BFFFF7B5FF01E04E
S31508001730A12002BD002002BD1FB5044600F0C8FA6C
S3150800174018B1204607F048F912E000A8FFF79EFFF7
S315080017509DF8050040B1062806D24A490968097865
S315080017609DF80420914201D0932001E020700020CA
S3150800177004B010BD1FB5044600A8FFF787FF08226E
S3150800178002A9204606F0B8FE1FBD4C48007800B1F5
S3150800179040203C490968097B494A895C08437047E7
S315080017A0384A1368588019B90822181D06F0E7BE8A
S315080017B00822181D06F0A0BE10B584B004463048AD
S315080017C090F82000C00711D50A230A2200A9012093
S315080017D00CF022F8BDF808004FF6FF71884205D0D4
S315080017E00822FF2100A800F02CFA08B1002006E024
S315080017F024B100A9BDF80800FFF7D2FF012004B004
S3150800180010BD0000DE26002070B584B004461C4DCD
S3150800181095F82000C0070CD51A4E306841884FF657
S31508001820FF72914207D100220821001D00F009FA33
S3150800183008B1002017E044B1022001F0ABFE782180
S3150800184005F1180000F05AFF0CE030684188ADF841
S3150800185008100822011D00A806F04EFE0A230A22D7
S31508001860FFF7E2FE012004B070BD0000402D002005
S3150800187042420000E62F0020342D0020C12F002010
S31508001880582500202C2D0020C6260020E72F0020F2
S31508001890CC230020AC250020DC2F0020DA2F0020E6
S315080018A0DB2F0020CF2600209E2600209C26002025
S315080018B000F8FF07D52F0020991600084B440208A8
S315080018C0587C0008046000004257424200000000AD
S315080018D070B50C46404D414E002129650D22052163
S315080018E0A962012169610021A961A96941F44051F0
S315080018F0A961706001785143E9620F22002169628B
S315080019000178407891FBF2F1C822504390FBF1F040
S31508001910708002203070002070700CF02BF8304A6E
S31508001920012111602F490A6842F001020A6010215C
S315080019302962296841F0010129600CF021F801E0CB
S315080019400CF044F870782043FAD070BDF0B52348FF
S315080019504288511E4180002A234938D102784568B9
S315080019601D4BAE18777827B3AC5CC827002C11D06E
S315080019704FF00D0E0EFB04F4DC6200245C621024AA
S315080019801C620F24AB5C93FBF4F374787C4394FBE2
S31508001990F3F30AE040F29314DC6200245C621C62F2
S315080019A073787B4303EBD3735B10921C43800270FE
S315080019B00DE00A6C520852000A640A4A1468640860
S315080019C06400146000221A621A60012242704FF005
S315080019D0FF300860F0BD000000E00040981E0020BF
S315080019E040A8004000E100E000A800402DE9F041D1
S315080019F04B4C4C4EDFF83081002020654FF40055E3
S31508001A00356002202060E560002020654FF480479D
S31508001A10206D40F0600020650E2000F027F888F859
S31508001A20000000206065376004202060E76016200B
S31508001A303E49086000206065606D40F060006065A2
S31508001A40162000F013F888F8010039480560076089
S31508001A50BDE8F0810E28344902D0162802D003E0EA
S31508001A600878704748787047002070470E2802D0DB
S31508001A70162802D009E02F4800E02F4800688009A0
S31508001A8000F0010080F0010070470020704710B593
S31508001A902348254C4FF40051C160022101600E20F5
S31508001AA0FFF7E4FF227801468A4218BF21700DD15C
S31508001AB0501E8041C00F20700E2021780CF0F0FBDC
S31508001AC02178481E8041C00F20702178BDE810405B
S31508001AD00E200CF0E5BB10B51148134C4FF48041AD
S31508001AE0C160042101601620FFF7C0FF6278014635
S31508001AF08A4218BF61700DD1501E8041C00F6070B8
S31508001B00162061780CF0CCFB6178481E8041C00F26
S31508001B1060706178BDE8104016200CF0C1BB00006B
S31508001B2014A8004080E100E0B82F002014BC004053
S31508001B3000E100E008B4004008B8004061480068C9
S31508001B40408870475F480068001D70475D48006818
S31508001B50C07E704770B55B4D296848735A4C5B4E1A
S31508001B60022817D100F0B4F868B92868007B042861
S31508001B703CBF304600F0B0FD2868007B03283CBF18
S31508001B80204600F0A9FD28684069C00054BF90248B
S31508001B90BC240AE000F09CF810B106F027FF03E029
S31508001BA03070207009F095FE912420460AF06BFBF0
S31508001BB050B92346132242A1032007F012F8204603
S31508001BC0BDE8704001F039BD70BD3E480068407BF5
S31508001BD000F00F0070473B480068407B00F00F009C
S31508001BE0022801D1012070470020704738B5044605
S31508001BF000F06EF820B12046BDE8324006F0EABE95
S31508001C00304DFFF7E8FF28B92868407B032801D044
S31508001C10932032BD04F096FD20812868C07BA0720F
S31508001C202868807BE0722046FFF7A4FD0020207319
S31508001C3004F1140104F1100004F085F8E081002095
S31508001C4032BD10B5002300E05B1CDBB28B4205D227
S31508001C5010F8014B9442F7D0002010BD012010BDAA
S31508001C6080B5082106F00AFA08B1002002BDA520B1
S31508001C7002BD30B5531E002404E0DBB25D5C25547A
S31508001C805B1E641CE4B29442F7D330BD0D4800686D
S31508001C90407B01281CBF3128332801D10120704719
S31508001CA00020704710B504460CF029FE10B9054906
S31508001CB00968CC7310BD03480068807B7047000034
S31508001CC0424200002C2D0020942E00208C2E00204D
S31508001CD080B504F03FFD032801D1012002BD002094
S31508001CE002BD80B5FFF7F4FF38B140F22B110FF2B1
S31508001CF00C00BDE8044000F00BBE01BD656D6265D1
S31508001D00722D737461636B2D636F6D6D6F6E2E63C9
S31508001D100000000070B504460D46022000F05AF98E
S31508001D20012658B1C14840681022FF2106F027FC59
S31508001D302A462146002000F07BF90646304670BD4B
S31508001D4070B5BA4D6968FF24002600200A5CA4F124
S31508001D5019039A42BCBF02F11904E4B2401C1028C8
S31508001D60F4DB00200A5CA242BCBF761CF6B2401C1B
S31508001D701028F7DB300003D1BDE87040012046E1AA
S31508001D8009F051FD90FBF6F106FB1101C9B20020DE
S31508001D906A68125CA24206DA0A0002D10B30687041
S31508001DA004E0491EC9B2401C1028F1DBBDE87040AA
S31508001DB010B5002409F037FD4FF6FF7290429B4993
S31508001DC003D04A6822F81400641C102CF2DB0320A6
S31508001DD008704978BDE810400120032200FA01F195
S31508001DE026E138B504460D46012000F0F3F808B997
S31508001DF0702032BD8D480A21417084603DB10021B2
S31508001E00C9B26A5C42B9491CCAB2082AF8D3012188
S31508001E108170BDE8314007E000218170082229461B
S31508001E200C3006F069FBF4E710B5804C20780128E1
S31508001E3007D070200CF08FF9702010BDE0780CF0F8
S31508001E4059FEE078010014D0401EE070C0B20CF0D4
S31508001E5039FE4FF6FF7201889142EFD090F90F20B4
S31508001E60817B0CF069F9E0780CF044FE0CF030FE4A
S31508001E7014E06078401C607060781B280BDA01213A
S31508001E80A26881401142F5D0042020700322BDE8E3
S31508001E9010400120CCE0AB2000F0B9F8002010BDBE
S31508001EA010B50C4600F08EF828B16049087802286B
S31508001EB018BF002C01D0002010BD801E032820D892
S31508001EC0DFE800F002051B1BFFF73AFF19E00022C6
S31508001ED04FF6FF73486830F81200984206D1521C34
S31508001EE0D2B2102AF6DBFFF763FF0AE049780CF056
S31508001EF016F9002000F08BF803E001200870FFF7C0
S31508001F0093FF012010BD2DE9F041484D044628787D
S31508001F1003280E46904602D004280FD042E069688E
S31508001F20002031F8102023889A4204BF4FF6FF722A
S31508001F3021F81020401C1028F3DB33E0E07888B342
S31508001F400CF0BEFD217B81422CD1A87830B908223D
S31508001F50211D05F10C0006F019FB18BB002709E046
S31508001F60F8B20CF0AFFD0822211D001D06F00EFB8D
S31508001F70C0B17F1CE878F9B28142F1D3401CC0B2E7
S31508001F800CF0B8FD70B9E8780CF09CFD0746E878C7
S31508001F90401CE8700E222146384606F0ADFABE739C
S31508001FA087F80F80BDE8F0410CE038B504460D46C9
S31508001FB000F008F828B11D484068204400F80B5C7A
S31508001FC0012032BD19480078022801DB012070473C
S31508001FD00020704738B50446FFF7F4FF18B13D20D6
S31508001FE00CF0B9F80FE00CF073FD002000F00FF8C4
S31508001FF00E4D0020E8702C700CF06EFD686020B95C
S31508002000182000F004F8002032BD012032BD10B5BA
S3150800201004460649002008700CF076FD200003D01F
S31508002020BDE810400CF097B810BD0000302900201C
S3150800203010B506F0CBFA040018BFFFF7E8FF2046F4
S3150800204010BD704700B583B00021CDE90011082204
S3150800205069468B4806F050FA07BD30B587B0044686
S315080020600D461822002101A806F089FA01A800F0F9
S31508002070EAF803208DF80E00ADF80C408DF80F50E5
S3150800208001A80CF073F804000DD00FF220200FF20F
S3150800209014220FF2FC110090234604200CF08AFD4E
S315080020A0204600F059F807B030BD30B587B0044671
S315080020B0FEF7C9F80125F0B118220021684606F096
S315080020C05EFA0822211D684606F016FA20880FF2E5
S315080020D0E811ADF80800A0788DF80B0003208DF8FC
S315080020E00A002388A27804200CF064FD68460CF0E8
S315080020F056F805000DD00FF2B4100FF2F8120FF2D1
S31508002100E01100902B4604200CF054FD5D4800F0C9
S31508002110E3FA07B030BD80B55B480021017101784C
S3150800212002290AD10FF2E8120FF2D01104200CF09E
S3150800213041FDBDE80140FFF777BE0021017004208C
S315080021400FF2E0110CF036FD0020FFF760FFBDE846
S3150800215002400020FEF776B810B504462346AB2B9E
S3150800216007D10FF240120FF2D41101200CF022FD14
S3150800217006E00FF2F0120FF2DC1101200CF01AFD46
S3150800218041490FF2A0120020087004200FF2DC115A
S315080021900CF010FD2046BDE81040FEF753B810B508
S315080021A0394C207818B100F033F8702010BD05219D
S315080021B03648FFF7AFFD010004BF0121217010BDAD
S315080021C030B5314C207883B018B100F021F8702072
S315080021D03EBD0FF23C120FF2C8112C4D04200CF034
S315080021E0EFFC04200CF0A0FC10B128460CF0BAFD58
S315080021F022A104200CF0DEFC684600F024F86946AB
S315080022002846FFF7EEFD010004BF022121703EBDFE
S315080022100FF284120FF2681104200CF0CBBC1A4A94
S315080022201178902809D101290BD002290AD1032057
S3150800223010700121101D00F072BA022902DB02207B
S31508002240107068E7704710B5044601F09EF90C490E
S3150800225001EBC0012046BDE81040082206F04CB943
S3150800226010B5044601F091F92146BDE81040044B2B
S31508002270082203EBC00006F03FB90000000000008A
S31508002280C8290020C0290020BC29002000C818033E
S315080022902570206572726F72203078257820257037
S315080022A000000000466F726D0000000061626F72E8
S315080022B074696E67000000004E776B20666F756E56
S315080022C0642C2063682025642C2070616E49642084
S315080022D030782532582C206A6F696E696E6700005F
S315080022E02570206572726F7220307825782C20252B
S315080022F0700000004A6F696E00000000436F6E743C
S31508002300696E7565202570207365617263680000C3
S315080023106A6F696E61626C65206E6574776F726B41
S31508002320000000004E6574776F726B2066696E64F4
S3150800233020636F6D706C6574650000002570206100
S315080023406E64206A6F696E207363616E20646F6EB7
S31508002350650000002570206572726F72203078253E
S31508002360780000005363616E000000002570202885
S315080023707363616E206572726F72292E0000000009
S315080023802570466F726D20616E64206A6F696E20D3
S315080023906F6E676F696E67004572726F723A2000DA
S315080023A053656172636820666F722025700A4368F8
S315080023B0616E6E656C733A200000000010B5954C8E
S315080023C02079FDF73EFF0020607110BD82B00398AA
S315080023D040B990480321417108304FF4205102B0AA
S315080023E000F085B902B0E9E7002030B5894C0FF254
S315080023F0AD15207283B06079401E052853D8DFE8F2
S3150800240000F003142C2F394C0FF2382100F04CF849
S315080024100121B4200BF05CFC022060714FF480614E
S3150800242004F1080000F063F937BD0FF2282100F027
S315080024303BF80121B4200BF04BFC75A301220321C4
S3150800244011200CF093FD6078FF210CF0C0FD724955
S315080024504FF6FF700CF0AAFD1DE00FF20C211EE0EE
S315080024600FF2202100F020F82178208A2A460CF065
S315080024701AFE10E00FF21C2100F016F8208A6946B1
S3150800248004F025F918B9684600F02AF837BD208AFD
S3150800249029460CF029FE30B103E00FF2082100F0BE
S315080024A003F8FFF78BFF37BD01200CF083BB10B58F
S315080024B0044609F06BFC59490968CA8890420DD050
S315080024C04CB15448028209680979017004214171A6
S315080024D0083000F001F900200DF035FA012010BD92
S315080024E07FB5044600254B4E6946284603F0A3FAF5
S315080024F0002804BF9DF80000012815D19DF80100A9
S315080025007178884202BFBDF80200718A884202BF0C
S315080025109DF804003178884206D1082221460DF13B
S31508002520050006F033F848B36D1CEDB2062DDBDB6B
S3150800253000256946284603F07EFA002804BF9DF860
S315080025400000002822D101208DF8000008227078AA
S315080025508DF80100214630788DF80400708AADF8B0
S3150800256002000DF1050005F0C7FF6946284603F08D
S315080025706DFA58B9318A284603F046FA0620707172
S31508002580357106F1080000F0A7F87FBD6D1CEDB2A5
S31508002590062DCEDBFFF712FF7FBD00000278002173
S315080025A0D20758BFFFF70ABFF8B54288042A26D1D2
S315080025B0184A93788068012B19BF037AC068037894
S315080025C0406800E0491CC9B20C469C421DDA30F846
S315080025D01440002500E06D1CD778EEB2BE42F1D259
S315080025E05669EDB236F81560B442F4D15482052026
S315080025F0507102F10800BDE8F24000F06DB8012AFA
S3150800260003D18068BDE8F2406AE7BDE8F140D5E647
S315080026100000000018290020CD23000854250020BA
S31508002620B42102B582B059B1FF2909DA21210191F5
S31508002630402302A90091002203210DF0B9FC00B144
S3150800264002200EBD3C657A6D6F64652062706A6F04
S31508002650696E3E003C657A6D6F6465206964656ED7
S31508002660746966793E0000003C657A6D6F64652082
S315080026706964656E746966792074696D656F7574C9
S315080026803E0000003C657A6D6F6465206D61746379
S31508002690683E00003C657A6D6F64652062696E6409
S315080026A03E0000003C657A6D6F646520626F756E4A
S315080026B0643E000038B5447845680BF05BF90C2198
S315080026C061438B4A8B585B1BB3F1004F98BF8D5003
S315080026D0BDE832400BF054B910B504460EF029F89F
S315080026E06060042020702046BDE81040E2E738B557
S315080026F000F011F828186060012007E038B500F0EE
S315080027000AF805EB102000026060022020702046BF
S31508002710BDE83240CEE704460D460EF00AB838B595
S31508002720FFF7F9FF05EB1040000460600320EDE7B2
S3150800273010B50446207860B1042806D00DF0F9FFDC
S315080027406168421AB2F1004F01D8002010BD081A7C
S3150800275010BD4FF0FF3010BD70B504460DF0E9FF0F
S3150800276005460BF007F906466FF00041606800F071
S315080027702CF8401920603046BDE870400BF000B9CF
S3150800278070B504460D4616460DF0D3FF002156B126
S31508002790FF22327007E0121AAA4202D2154606B183
S315080027A03170491C083422680AB9284670BD137866
S315080027B0002BF6D0042B04D05268831AB3F1004FCD
S315080027C0E9D806B13170002070BD0022D8E738B5C7
S315080027D004460DF0AEFF05460BE0017841B1042929
S315080027E004D04168691AB1F1004F01D86168884779
S315080027F0083420680028F0D131BD10B50C213C4AB8
S3150800280001FB00240DF095FF2168401AB0F1004F36
S3150800281006D86068FFF7DBFF2046BDE810409BE757
S3150800282010BD70B50446334D687833490978884237
S3150800283005D34FF484710FF2C40000F069F86E787E
S31508002840701C68700C202A4900FB061044600121A0
S31508002850017200E04E7054F8081B0029FAD1FFF700
S315080028607BFF304670BDF8B505464FF0FF30009047
S31508002870204C207840B30DF0D1FF28B940F2391129
S315080028800FF2780000F044F80DF053FF0C21184AB7
S3150800289001FB052300251D72002305E0009EB542B5
S315080028A088BF354600955B1C6578DBB2AB420FD214
S315080028B001FB03263568471BB7F1004F04D92D1ACB
S315080028C0367A0EB9002DE9D10DF0B0FF0020F2BD21
S315080028D000A80DF04DFF0120F2BD0C21044A01FBB2
S315080028E000200121017270470249087070470000F4
S315080028F0E8280020D32F0020603E02086576656E22
S31508002900742D636F6E74726F6C2E630042DE7047AF
S3150800291038B504460D460BF059F80BF02BF8294646
S31508002920204606F059F92B4622460FF28851012017
S315080029300EF072F929462046BDE83440E6E7DFF88E
S315080029403C052DE9F843DFF838650168371D4FF473
S3150800295020697965016AB965DFF828150968F96596
S31508002960416A3966816A7966C16AB966016BF96630
S31508002970806B386797F8340040074CBFFC6BBC6B1C
S315080029800EF034FA844224BFDFF8FC54A542A04670
S31508002990386506F18C01DFF8F424DFF8F43418D32F
S315080029A0A5693D64E4697C647C6DC4F30804062C5F
S315080029B013D19D4211D395420FD22C884DF642650C
S315080029C0AC420AD13C684C6040F201797C688C6064
S315080029D003E000243C647C648046DFF8B844A042E7
S315080029E038BF2046DFF8B04400E0001D0546A54282
S315080029F004D2D0F800E0BEF1CD3FF6D0DFF89C0453
S31508002A00401BB86400240020F86406EB8005401CCF
S31508002A100628AC67F9DB0020DFF884C403E0C0B2FF
S31508002A2006EB8005AC67E04528D25CF8044D9C426D
S31508002A30F9D39442F7D2E507F5D54FF0000E06EB29
S31508002A408E05AD6FA54204D00EF1010EBEF1060F3C
S31508002A50F5DBBEF1060FE6D1002814BF401E05209F
S31508002A60DDE77C6F4FF0000E06EB8E020EF1010ECD
S31508002A70D36F9367BEF1050FF6DB0C600246501E56
S31508002A80D2B2002AEDD1786DC0F3080002280AD028
S31508002A90032816D0042817D0052818D0062819D0D8
S31508002AA00C281DD01FE0DFF8FC030168890748BF22
S31508002AB040F602191CD40068C00719D540F202591D
S31508002AC016E040F6012913E040F6022910E040F628
S31508002AD003290DE0B9F5206F0AD140F6042907E06D
S31508002AE040F6052904E018B1242838BF40F607291E
S31508002AF04846BDE8F2832DE9F04FDFF88453804657
S31508002B00A86B410785B007D5296C2F6D0FF2B8362B
S31508002B1003910024A14607E0E96BEF6C0FF2B0368B
S31508002B20DFF8849303916C6D00074CBF0FF2A8324F
S31508002B300FF2AC32B9EB040A07D064204FEA5A0107
S31508002B4000FB0710B0FBFAFB01E04FF0000B0398FF
S31508002B500290CDF80490009433460FF28C3140462B
S31508002B600DF0F0FF1FFA8AF0019000961FFA8BF31A
S31508002B70BAB20FF2A43140460DF0E4FF95F83800DA
S31508002B8040070CD4AAF19800874208D1686DC1495C
S31508002B90884204D20FF2BC3140460DF0D3FF0398A9
S31508002BA0814528BFA04205D232460FF2D4314046AD
S31508002BB00DF0C8FF40460EF01DF8286EE8B10FF27A
S31508002BC0E0310FF2907440460DF0B4FF0026A6A738
S31508002BD0286EF040C00707D554F82620107818B19B
S31508002BE0394640460DF0A6FF761C112EF0DB40460E
S31508002BF005B0BDE8F04F0DF089BF404605B0BDE809
S31508002C00F04F0FF2CC310DF09DBF2DE9F843044685
S31508002C100EF050F940F20151401AA44D0FF2B45784
S31508002C200FF2CC560FF2B4680FF22C4916D0401E9C
S31508002C3017D040F2FF11401A35D04FF44071401AB0
S31508002C4039D0401E53D0401E73D0401E00F0B080CD
S31508002C50401E00F0C880401E06D0C2E00FF2883140
S31508002C6042E00FF2C431C0E0E86C012806D0032820
S31508002C7007D0042807D0052808D00AE00FF2F43652
S31508002C8008E07AA606E00FF2F43603E00FF2F4360F
S31508002C9000E077A60FF2F43100F0B5F82B6D0FF2CD
S31508002CA01441324603E02B6DEA6C0FF220412046B0
S31508002CB00DF048FF90E00FF2304100F0A4F8686A82
S31508002CC0C0F3400018B10FF2384100F09CF8686A6A
S31508002CD0C0F3807018B10FF2644100F094F8686A86
S31508002CE0C00F79D00FF2884100F08DF874E00FF22A
S31508002CF0BC4100F088F895F8200010F0030F01D0C9
S31508002D0000F07CF8286AC0F3C01018B1EA6A3946A0
S31508002D1000F076F80027286AF840C00705D500F0C5
S31508002D2069F810B1314600F06BF87F1C082FF2DB0A
S31508002D3052E00FF2C44100F066F800F05FF8286A26
S31508002D40C0F3802018B10FF2C84100F05CF8286A79
S31508002D50C0F3C03018B1EA6A394600F051F80827BE
S31508002D60286AF840C00705D500F044F810B1314686
S31508002D7000F046F87F1C102FF2DB95F820000006BD
S31508002D8003D10FF2D44100F03EF801270FF2F846BE
S31508002D900FF2B058286BF840C00705D500F02AF89E
S31508002DA010B1314600F02CF87F1C042FF2DB13E03B
S31508002DB00FF2DC4100F027F800F020F81027286A07
S31508002DC0F840C00705D500F015F810B1314600F0F7
S31508002DD017F87F1C1A2FF2DB2046BDE8F2430DF0E8
S31508002DE009BFBDE8F1830FF2C44100F00CF800F00A
S31508002DF005F8F1E758F82720107870472A684946F9
S31508002E0020460DF09FBE20460DF09CBE2DE9F047EA
S31508002E108046DFF89CA00FF280560FF2B4490025D1
S31508002E2014A715A406E040460DF084FE40460DF0B2
S31508002E30E1FE6D1C3078A8B15AF8043B3246494683
S31508002E4040460DF077FE16F8010B0028FBD13078C6
S31508002E5000281EBFEDB205F00300032814BF214663
S31508002E603946E0E7BDE8F087202570004144430075
S31508002E703F3F00000D0A00002C20000004ED00E092
S31508002E800000002000E300E0D81D0020E4EB010864
S31508002E909001000898000020F81D0020F81D002069
S31508002EA0F81D00201CA00040F81D0020440000204A
S31508002EB0040000200D0A5B4153534552543A2570CD
S31508002EC03A25645D0D0A000070726F6365737300BE
S31508002ED06D61696E000000005468726561640000E7
S31508002EE048616E646C6572002570206D6F6465209C
S31508002EF07573696E6720257020737461636B20286B
S31508002F0025347820746F20253478292C20535020B6
S31508002F103D20253478000000257520627974657394
S31508002F2020757365642028257525252920696E2056
S31508002F30257020737461636B20286F7574206F6623
S31508002F4020257520627974657320746F74616C2905
S31508002F5000000000537461636B205F6D61795F2028
S31508002F6068617665207573656420757020746F20B6
S31508002F703130302525206F6620746F74616C2E0001
S31508002F805350206973206F757473696465202570C2
S31508002F9020737461636B2072616E6765210000009F
S31508002FA0496E74657272757074732061637469769C
S31508002FB06520286F72207072652D656D7074656462
S31508002FC020616E6420737461636B6564293A00003E
S31508002FD04E6F20696E7465727275707473206163C2
S31508002FE07469766500000000526573657420636134
S31508002FF07573653A205761746368646F67206578EE
S3150800300070697265642C206E6F2072656C696162E6
S315080030106C6520657874726120696E666F726D6181
S3150800302074696F6E000000005265736574206361F1
S315080030307573653A205761746368646F67206361C6
S3150800304075676874207769746820656E68616E6351
S31508003050656420696E666F00496E73747275637471
S31508003060696F6E20616464726573733A20253478DB
S315080030700000000053433120527800004D414320A0
S315080030805278000053433220527800005265736527
S31508003090742063617573653A20444D412070726FE0
S315080030A074656374696F6E2076696F6C6174696F95
S315080030B06E000000444D413A2025702C206164645E
S315080030C0726573733A20253478000000526573657B
S315080030D0742063617573653A204173736572742051
S315080030E025703A2564000000526573657420636193
S315080030F07573653A2048617264204661756C740080
S31508003100484653522E5645435454424C3A2065720B
S31508003110726F722072656164696E67207665637482
S315080031206F72207461626C6520666F7220616E2012
S31508003130657863657074696F6E000000484653527F
S315080031402E464F524345443A20636F6E666967754B
S315080031507261626C65206661756C7420636F756C4C
S3150800316064206E6F7420616374697661746500000B
S31508003170484653522E44454255474556543A2066CA
S3150800318061756C742072656C6174656420746F2057
S315080031906465627567202D20652E672E2C2065785C
S315080031A065637574656420424B50540052657365B7
S315080031B0742063617573653A204D656D6F72792069
S315080031C04D616E6167656D656E74204661756C74D8
S315080031D000000000496C6C6567616C20616363657B
S315080031E0737320616464726573733A2025347800BA
S315080031F0434653522E2570005265736574206361E9
S315080032007573653A20427573204661756C740000C3
S3150800321041646472657373206973206F6620616EFA
S3150800322020696E737472756374696F6E2061667453
S31508003230657220627573206661756C74206F6363AE
S3150800324075727265642C206E6F74207468652063CD
S31508003250617573652E000000434653522E286E6F23
S315080032606E6529206C6F6164206F722073746F72AB
S315080032706520617420616E20696C6C6567616C20DD
S315080032806164647265737300414653522E2570005B
S3150800329052657365742063617573653A2055736169
S315080032A06765204661756C74000000005265736599
S315080032B0742063617573653A204465627567204DAD
S315080032C06F6E69746F72204661756C740000000039
S315080032D02570203D2025347800000000703902084A
S315080032E0B0390208E8390208EC390208303A02080F
S315080032F0E8390208E83902086C3A02089C3A0208DA
S31508003300CC3A0208F03A0208183B0208583B020871
S31508003310E8390208E8390208943B0208C43B020867
S31508003320FC3B0208383C0208683C0208E8390208F7
S31508003330E8390208E8390208E8390208A03C020818
S31508003340D03C0208E8390208103D0208543D02083C
S31508003350943D0208D03D0208D83D0208E03D020827
S31508003360EC3D0208F83D0208043E0208083E020841
S315080033700C3E0208183E0208243E02082C3E0208AB
S31508003380343E0208383E0208403E0208483E02081B
S31508003390503E0208583E020852300052310052325E
S315080033A0005233005234005235005236005237006C
S315080033B05238005239005231300052313100523100
S315080033C03200523133284C5229004D535000505385
S315080033D0500050430078505352004D535020757397
S315080033E06564005053502075736564004353544117
S315080033F0434B20626F74746F6D00494353520053F8
S315080034004843535200494E545F4143544956450078
S315080034104346535200484653520044465352004DC1
S315080034204D41522F42464152004146535200526581
S3150800343074300052657431005265743200526574F6
S315080034403300526574340052657435004461743033
S31508003450004461743100000010B56A4800686A4C7F
S31508003460206060604822002105F089F820686749D5
S31508003470097801702068002101732068417320686B
S315080034800B21817320680321C17320684FF6FE71F2
S3150800349001824FF6FF71418208F0C5F92168087666
S315080034A008F0C1F92168487608F0BDF921688876E0
S315080034B0206857490978C1762068564909688162A3
S315080034C05549097880F82C10206854490968016321
S315080034D010BD10B50BF00CFA4B4C6168897B88421D
S315080034E003D008460BF0FCF950B90BF004FA014674
S315080034F0606890F90F00814204D00BF000FA08B119
S31508003500012010BD6068008A09F07CFA6068408A6C
S3150800351009F080FA6068007B012818BF002009F0CE
S315080035205BFA002010BD10B53D4C0020207009F054
S31508003530C0FE20B92046BDE81040FFF7CDB8FEF71B
S31508003540C7FB08B105F051FA51E080B5002000F03C
S3150800355015F828B1002000F005F808B1002002BDD2
S31508003560FF2002BD28480068407B02281CBF11289E
S31508003570432801D10120704700207047224800687F
S31508003580017B04298041C00F704700207047002046
S315080035907047704770470020704701207047704792
S315080035A0002070470020704770477047002070471A
S315080035B00020704780B50020FFF7D4FF30B11248CD
S315080035C00068007B032801D2002002BDFF2002BD4F
S315080035D010B5040004D0D9210FF26800FFF798F956
S315080035E048200849096800FB041007494860BDE8F7
S315080035F010406EE704484068008A704702484068F1
S31508003600408A7047F82300202C2D0020CD26002064
S31508003610CE260020FC230020C726002000240020F8
S315080036201C2D00207047002070470020704708F0C6
S3150800363042B97047704708F087B808F06BBC08F0C5
S3150800364091B80000656D6265722D6D756C74692D93
S315080036506E6574776F726B2D737475622E630000D6
S31508003660DFF8BC16096801EB40107047DFF8B4268E
S315080036701268815470472DE9F041040035D00AF0EC
S3150800368079F9DFF8A416DFF8A456DFF8A426FF2395
S315080036901678FE2E1DD100261670DFF89866377844
S315080036A02F700027DFF890C609E007F1010E07F82A
S315080036B008E0DCF8008007F808305FFA8EF796F81D
S315080036C000E0D1F800807745EFDB0EEB080606F838
S315080036D0013C2E78A6420AD20AF052F9052005F0D6
S315080036E001FB00211B20FFF7AAFFFF201FE0361B66
S315080036F02E701578DFF844761678D7F800C04FF0A4
S31508003700010E06F80CE0D1F800C016F80CE082F8B5
S3150800371000E0641EE4B2002CEED106F80C30DFF8A7
S315080037200416096800226A540AF02AF92846BDE8F0
S31508003730F08110B504460AF01DF9DFF8001609688D
S31508003740625C521C6254BDE810400AF019B92DE9B2
S31508003750F041044600F032F805460AF00BF9DFF8A6
S31508003760D025DFF8C835DFF8C065DFF8D08511E069
S315080037703168615C002704F80E701F787F1C1F7083
S31508003780D6F800E0177804F80E701470FF2904D1F3
S315080037902C46FF25FF2C01D10CE00C46D8F800106A
S315080037A0675C7F1E6754D8F800E014F80E107F2770
S315080037B03942DDD0BDE8F0410AF0E2B880B5DFF85D
S315080037C07C150968415C090603D5FFF749FF0078AF
S315080037D002BDFF2002BDBCB504460D46FFF7EEFF4D
S315080037E0FF2818BFFFF7B3FFDFF85075FF2D04D188
S315080037F03868215C01F07F0106E02846FFF799FF4B
S315080038003868215C41F0800121542046FFF728FFE3
S315080038100570B3BD0EB430B504460120FFF72BFF83
S315080038200546FFF71DFFFF2D08BFFF200FD0DFF865
S31508003830F41409686C5403A9002204E051F8043B07
S3150800384000F8013B521CD3B2A342F7D3284630BC3A
S315080038505DF810FB70B582B004460D4605F11F00F1
S3150800386000F032F90646FF2E0DD0DFF8B8040068DE
S3150800387035543CB1012000902B46002231462046A3
S3150800388000F002F8304676BDF2B582B00546164617
S315080038901F46089C0846DFF88C140968405CB9196D
S315080038A0884203DA4FF4B07100F0D4F85FB13146BC
S315080038B002A800F0D3F800943B4602469DF808108B
S315080038C0284600F001F8F7BD2DE9F8430546894674
S315080038D016461F46DFF85084089C0BE04A5D0A54DA
S315080038E0491CB142FADBBF1B7519D8F8000019F854
S315080038F000900026FFB2BFB14846FFF7B1FE301868
S31508003900F1192029B2BF3E46C6F12006F6B2324664
S3150800391024B90146284604F0EFFDE4E7012C08BF68
S315080039202946F8D00021DCE7BDE8F1832DE9F0410E
S3150800393082B00446884616001F46DFF8E80300688A
S31508003940255C0ED07119C9B2204600F04FF808B1AF
S31508003950182007E0009733462A4621464046FFF7D7
S3150800396093FF0020BDE8F6810123DFE70A4600E061
S31508003970521C1378002BFBD10223521AD2B2D5E778
S31508003980F8B5044601F11F00C5042D0E02F11F000B
S31508003990C004000E05B9012500B90120854223D0CF
S315080039A0DFF88463854210DA401BC0B2FFF763FE76
S315080039B00746FF2F01D10020F2BD691EC9B2204675
S315080039C000F026F8316847540EE08A420CD2411EB0
S315080039D0C9B2204600F01CF804463068205CFFF7A0
S315080039E0B6FE3068FF2121540120F2BD70B50446A9
S315080039F00D46DFF830632A463068215C2046FFF71B
S31508003A00BFFF18B130682554002070BD182070BD5E
S31508003A1004E0491EDFF810231268805CC9B2002949
S31508003A20F7D1704711B581B00C46DFF8F81209686E
S31508003A30405C844203D34FF4F47100F00BF821463E
S31508003A4001A800F00BF804469DF80400FFF708FEED
S31508003A50201816BD0FF2F820FEF75ABF38B50446EF
S31508003A600D46E904090E2078FFF7D2FF207005F00D
S31508003A701F0032BD80B5FFF7D5FF007802BD10B52F
S31508003A801446FFF7CFFF047010BDF0B583B00446A7
S31508003A90DFF890522868265CFF2C03D14FF4027198
S31508003AA0FFF7D8FF06F11F0000F00EF80746FF2FB4
S31508003AB009D028683E54009600232246002138463D
S31508003AC000F0AEF83846FEBD0004400DC0B2D2E59F
S31508003AD0F8B504460D4616460120FFF7CCFD074605
S31508003AE0FFF7BEFDFF2F01D1FF20F2BD33462A4660
S31508003AF02021201800F00EF88A4909682018785401
S31508003B003846F2BD0CB480B502AAFFF7E1FF02BC45
S31508003B105DF80CFB2DE9F047804616469946C246E5
S31508003B2000250C460AE03A46504604F0E5FCBA443D
S31508003B30E819401EC5B2681CC5B2761CA5423CDA17
S31508003B403078002839D0312818BF32280ED159F8D4
S31508003B50041B0AF8011B3228EDD1681CC5B2AC4219
S31508003B60A4BF08120AF8010BE5DA26E0342811D1B9
S31508003B7059F8040B291D8C421FDB0AF8010B010AB0
S31508003B800AF8011B010C0AF8011B000E0AF8010BC2
S31508003B90E81CCFE759F8041BA0F13302072A38BFFF
S31508003BA0303806D3A0F14102072A34BF373859F80E
S31508003BB0040BC7B27819A042B5DBAAEB0800C0B25D
S31508003BC0BDE8F0874178007800EB012080B27047A5
S31508003BD00170090A4170704770B500F016F800F0D8
S31508003BE005F8007800EB062080B270BD06782946F5
S31508003BF0204617E700B583B08DF80420120A8DF821
S31508003C00052001220092022304E004460D46691CA1
S31508003C10C9B207E70A46014601A8FFF735FE07BD00
S31508003C202DE9F5411F46089CA4B24CB3254689B236
S31508003C3000A8FFF713FF0646B9B201A8FFF70EFF63
S31508003C4007463046B84238BF3846C0F12000C0B2F1
S31508003C50A842B8BF05469DF80400FFF701FD804657
S31508003C609DF80000FFF7FCFC2A4607EB0801301810
S31508003C7004F042FC641BA919EF19A4B2002CD5D193
S31508003C80BDE8F38170B504460D4609F073FE2A4A6D
S31508003C9012682378FF2B08BFAD5403D09B181E78F3
S31508003CA0AE541D702570BDE8704009F069BE38B580
S31508003CB0044609F05FFE2178FF22FF2908BFFF2589
S31508003CC007D01D4B1B68CD5C8D420EBF2270EA5C87
S31508003CD0CA5409F055FE284632BDF8B504460E46C4
S31508003CE0002509F047FE2178FF2915D00A46012547
S31508003CF0114B1B6802E03A466D1CEDB2D75CB74221
S31508003D0008D1FF5CD754B14206D18A4208BFFF22C8
S31508003D10227001E08F42EED109F032FE2846F2BD4C
S31508003D20C8230020CC230020D4230020C02600204E
S31508003D30DD260020BF260020D8230020D02300201F
S31508003D400078FF2801D10120704700207047000045
S31508003D507061636B65742D6275666665722E6300A5
S31508003D6038B5DFF8A40C002101700DF0DBF80DF072
S31508003D70B8FB06F052FA03F0D7FB0DF0ECFB04F0A3
S31508003D8025FE0024DFF8845C09E02046FFF70CFCDA
S31508003D9006F0D7FD0DF0EAFBFFF707FC641C287850
S31508003DA0E4B28442F1D320E038B5FFF7CEFB0446EF
S31508003DB00025FF2C08D0FFF7F7FBFDF789FF00B9B0
S31508003DC00125FFF7F2FB4DB90DF0ACF80DF089FBB4
S31508003DD003F0AAFB0DF0BFFBFF2C00D00DB104F0D9
S31508003DE0F5FD06F0AEFD0DF0C1FBBDE831400DF066
S31508003DF089BEDFF81C0C0068407B11281CBF4328CD
S31508003E00412801D1012070470020704710B50446AB
S31508003E1005F0E8F8801CFFF7D5FE4FF6F8718842E2
S31508003E20204624BFBDE8104000F006B800F060F850
S31508003E30401E8041C00F10BD2DE9F04104460DF02B
S31508003E401CFB00283AD1DFF8C80B00684FF6FF754F
S31508003E50017B032905D34188A9422FD0204605F0C6
S31508003E60F4F8002300220221204606F06DF928B353
S31508003E70204605F0B7F80646F77902F05BFC80465F
S31508003E8002F058FC424639460DF005FB20B9BE2122
S31508003E900FF24820FEF73CFDB01CFFF793FEA84240
S31508003EA004BF20460DF0B8FF30780321084203D13D
S31508003EB00121204601F092F9012000E00020BDE82A
S31508003EC0F08138B50446DFF82C0C0068205C851AAA
S31508003ED0EDB2681A80B2009053189BB2224620466B
S31508003EE0FFF79EFE29462046BDE83440FFF77EBD13
S31508003EF02DE9FE4F82460025019505F073F8064622
S31508003F00301DFFF75FFE0746B01CFFF75BFE8046D5
S31508003F10307800F0C0000290384606F0F7F98DF8C0
S31508003F200200FF2814BF4FF00109A9463078032183
S31508003F30084208D102F0FEFB874202D05FEA090474
S31508003F4002D0012400E00024B079002875D002F0E0
S31508003F50F1FB80450BD102F0EDFB83460022594662
S31508003F60504600F0E4F8002867D00020B4E000F0DE
S31508003F70C1FC017B032928BFB0F802B0EED2404647
S31508003F8003F0B3FC20B9504605F036F8400514D5C1
S31508003F90C34670784007E1D5504605F018FE01F093
S31508003FA082F8401C4200D2B229465046FFF789FFE4
S31508003FB0707800F0FB007070D0E7707840071CD569
S31508003FC0504605F004FE01F06EF806466F1CF9B27D
S31508003FD001F06BF8002E18BFFF2806D10022F9B2AF
S31508003FE05046FFF74CFDC346B8E705EB4000811C79
S31508003FF0C9B25046FFF7F0FDAFE701AA00A940464F
S315080040000DF048F98346DCB10298802804D0402890
S3150800401016D19DF8000098B1307800F03F00307056
S31508004020384603F062FC10B902F084FB07463A46AC
S31508004030002140460EF03EF800284CD001204BE007
S31508004040019800283AD00DF078F88DF8010001980B
S31508004050007900F0300002909DF80100FF2805D194
S3150800406040F223110FF27400FEF752FC34B30298A3
S31508004070C0B2102813D00298C0B220281ED1B9F1B8
S31508004080000F07D09DF802109DF801000DF06AF99F
S31508004090A0B904E0019800790C2108420ED0F37902
S315080040A05A46414638460EF069FB0198007900F0F9
S315080040B0F30040F004000199087101259DF80000FD
S315080040C028B10121404606F063FE20B1C346002D03
S315080040D08AD0302243E70220BDE8FE8F6E657477EA
S315080040E06F726B2E6300000038B504460D46FDF767
S315080040F0F8FDDFF81C090068007B032801D30120BE
S3150800410032BD4FF6F97084421CBF4FF6F8708442F0
S3150800411001D0702032BD02F00DFB0246294620462A
S315080041200DF0C8FF401E8041C00F32BD0022F8B511
S3150800413004460D46164604F055FF007800F02FF9A0
S315080041400CBF012700272946204604F07EFF02F00F
S31508004150F1FA854217D0284603F0B8FB50B9002378
S315080041603246DFF89C0C0178204601B0BDE8F040E5
S3150800417005F0EABF6FB902F0DDFA002322462946A8
S3150800418005F006FC28B10121204601F027F8012098
S31508004190F2BD204604F030FF400505D50021204633
S315080041A0BDE8F44007F050BB204606F0D7F8401E9D
S315080041B08041C00FF2BD2DE9F041044688461646F7
S315080041C0304605F0CDFD0746304604F000FF3E1A9E
S315080041D0F6B23719A8EB060292B2394607F10E0075
S315080041E004F08AF928203870DFF82458286890F8EF
S315080041F0200078730DF0C8F90246791C01200EF0EC
S315080042000FFB0822DFF8FC1B781D04F075F92868F7
S3150800421090F8200003F0EFF83346002208F10E016B
S31508004220C9B220460DF0E1FB1220BDE8F0812DE968
S31508004230F04F85B081460D4605F092FD0646484684
S3150800424004F0F1FE8246484604F0C1FE074606F130
S315080042500E0189B2484605F0D2FC002852D000204B
S3150800426000900E233246494601A8FFF70DFB0DF1D3
S31508004270050101200EF0E2FA83469DF811809DF8AB
S31508004280040028283ED10822DFF8781B0DF1090022
S3150800429004F07CF9B0B3DFF8704B404603F0ABF896
S315080042A060B9206890F82000A8EB0000C0B280280A
S315080042B00DDA00210020FCF7A8FA08E0012000909A
S315080042C000233246394648460DF0C7FBD0B148466A
S315080042D005F061FC51460DF109000EF023FB064678
S315080042E0FE2E0FD0FF2E3AD1504606F082FB064628
S315080042F0DFF8187BFF2E0BD00DF1090106F06CFDD7
S31508004300387860B300211920FFF799F90020EAE20E
S3150800431000F044F80AD1484605F022FD0146484611
S31508004320FFF7A8FB082801D10120F0E73878002814
S31508004330E8D1206890F82D1090F82C00814205D31A
S3150800434000F0DDFA4FF6F8718842DBD20DF109016B
S31508004350504606F09CFC504606F04BFB0646206885
S3150800436090F82000804505D04146012002F04BFE1A
S315080043700028C7D0206890F82000804503D1304631
S315080043800EF03FFB28B9594630460EF0B4FA00281D
S31508004390BDD0594630460EF0BEFAC5E7287800F07B
S315080043A003000128704738B5DFF8680AFFF77FFC75
S315080043B00446FF2C1DD0DFF8605A032104F001FEE5
S315080043C028700421204604F0FCFD6870052120466B
S315080043D004F0F7FDA87001200EF088FB204600F0D7
S315080043E009F82046FFF7B3F90020BDE832400EF081
S315080043F07DBB31BD38B5044604F003FE00F00C055C
S31508004400204604F003FEFFF7CFF8204604F0F9FD36
S3150800441000F00C00082832D1FDF75AFC18B12046E6
S3150800442004F0DCFA76E0062200212046FFF749FD73
S315080044302046FFF715F90EF084FB8DF801008DF87C
S3150800444002409DF8010048B92046FFF709F90146E0
S315080044500DF101000EF0AAFB8DF800009DF8010091
S31508004460802804D100A807F00CFF002852D1FFF7D6
S3150800447096F800A807F06DF9FFF797F84AE0042DBB
S31508004480204617D104F0B8FD00051ED402200021ED
S31508004490FFF7D5F8FDF71CFC08B1042D3AD00C2D12
S315080044A015D1214601200EF028FE98B32046FCF7C8
S315080044B030FC2FE004F0F8FDB0F5006FE6D1204699
S315080044C004F014FE00F072FBE0D10020DFE72800BC
S315080044D003D12046FCF7CEFD1CE0042D1AD1DFF8E7
S315080044E028090568687B02280CD0FFF782FC48B9C2
S315080044F0687B332818BF312804D0012804BF287BDD
S31508004500052807D1214602200EF0F7FD10B12046F6
S3150800451000F004F8FFF749F831BD00002DE9F04F27
S3150800452085B0804604F05EFD00F0E0F9ADF80400C1
S31508004530281DFFF747FB00F0E1F98346284605F0FA
S315080045402EFC0390FFF72AFF0CBF0124002468788D
S3150800455000F0020100914FF6F8718B45B641F14320
S31508004560CE0F0490404605F0FBFB8246287800F003
S315080045703C01082968D1DFF87C15096818F801108C
S315080045808A4561D214B9032108425DD10098C0B2A8
S3150800459058B1DFF874080068C07E002854D0294650
S315080045A04046FFF744FE00284ED02CB14146032072
S315080045B00EF0A3FD002847D051464046FFF75AFAA9
S315080045C007460098C0B2C8B9DFF83C080068C07E44
S315080045D0A0B102F0AFF8834536D124B1062F0DD02D
S315080045E0072F31D10AE007F00300012806D052460A
S315080045F02946404600F087FD002825D0DFF8080840
S315080046000068417B022949D10099C9B211B9C07E17
S31508004610002843D1BDF8040003F036FF002813D163
S31508004620BDF80400009002F085F80099814210D187
S3150800463000F03EFD09D302F07DF80D22014600F098
S3150800464059F940880EF0BEFD4DE1012003F032FE17
S3150800465049E1BDF8040003F048F970B902F072F8B0
S315080046604FF6FF71884208D0DFF8A40B00780A28B5
S3150800467004BFBDF8040006F049F90122039948462B
S3150800468003F045FE0028E3D1284605F07BFB0146EA
S315080046900022584603F03BFE0028D9D14FF6FC709D
S315080046A0834506D1DFF860070068007B0328CFD270
S315080046B009E04FF6FD70834505D1DFF84C07006821
S315080046C0007B0428C4D2A87908B1401EA87168786E
S315080046D040072CD50020029002AA0DF10101484698
S315080046E00CF0D8FD029810B30CF027FD8DF80000E9
S315080046F0584605F00BFE0299097901F03003102B94
S315080047001CBF01F00C02082A03D0029A01F0F3013B
S3150800471011710299097901F03301202907D1FF287F
S3150800472005D0012201469DF800000CF004FEBDF8F4
S31508004730040005F0EBFDFF2804D0DFF8D81A096855
S3150800474000224254049800F00100304367D1E97909
S3150800475048460CF0EDFE07F09BFD08B1039820B122
S31508004760BDF80410484600F0B4F901F0E3FF5845D7
S3150800477055D0584603F0B9F820B124B1012F08BF27
S3150800478000225CD064B9584603F0A0F840B1002373
S3150800479042465946484605F0FBF8002840F09F80F7
S315080047A0DFF8740A007840B9484603F09EF820B945
S315080047B0584603F09AF8002830D0D4B1052F18D1FE
S315080047C001F0B8FF8DF8000001F0B4FF000A8DF87B
S315080047D00100022200A94046FFF7C6F800281DD1AD
S315080047E00AF10101C9B24046FFF71CF90178491CD4
S315080047F00170687840070AD5404605F0E8F9411C7B
S31508004800C9B24046FFF70EF90178491E01704046C5
S31508004810FFF76EFB00211C20FEF711FF63E0002C5A
S315080048204FD0781E09285ED8DFE800F005050E137C
S3150800483019333C424646022F0CBF0122002251463C
S3150800484040460DF013FE4EE0514640460EF0EEFC93
S3150800485049E052464146484601F0D7FC43E00AF192
S315080048600101C9B24046FFF705F90546DFF8AC492C
S3150800487003982060FEF793FE0AF10200C0B200908A
S3150800488043462A46216848460EF040FDFEF78DFE4F
S3150800489029E0CDF800A02B46424600210120FCF76E
S315080048A0BFF820E0524641460120FCF78BF91AE092
S315080048B040460EF02FFE16E0404601F07CFA96B10F
S315080048C009E00498C00705D5287A00F003000128F6
S315080048D009D100E01EB1404600F014F803E00021BB
S315080048E0404600F07BFC05B0BDE8F08F0546404623
S315080048F004F099BBDFF81005006870478146A81CCC
S31508004900FFF760B92DE9F84F804604F06BFBFFF717
S31508004910EDFF0446281DFFF755F9FFF7EFFF83461D
S3150800492095F807A0204602F0E0FF074629464046CC
S3150800493000F070F80646022E64D0224651464846D4
S315080049400CF067FD00285DD101F0F4FE814559D0D1
S31508004950DFF8CC08007860B9012E06D007F098FC7D
S3150800496018B1284605F01BFA18B12146484600F04A
S31508004970B0F82246514648460CF08DFD002841D035
S3150800498028780321084203D10021404600F026FC7E
S31508004990A879B8B3DFF870040068007B032831D221
S315080049A06878C00715D52C7A58460FF095F840B1A7
S315080049B004F0E000E11001F01C01084340F001009A
S315080049C006E004F01C001C2803D005281ADB201F6B
S315080049D028724FF6FF752946404604F036FB0FB19C
S315080049E0002203E006F01FFF00F03F020023022129
S315080049F0404605F0A9FBAB4504D14046BDE8F24F59
S31508004A000DF00ABABDE8F18F70250020C6260020F1
S31508004A102C2D0020F0B587B00446087803210842FB
S31508004A2054D1214604200EF068FB00284FD02046BA
S31508004A3005F096F9014600F063FB0321084245D1CB
S31508004A40204605F08DF90546294600F059FB05A9CB
S31508004A500FF2F07248CA48C10321084236D1002035
S31508004A60009005236A1CD2B2214603A8FEF70CFF64
S31508004A70052203A905A803F094FD38BB204605F0D6
S31508004A80F2F90546A91C00F03AFB0646691C00F037
S31508004A9036FB00EB062605F10B0100F030FB074656
S31508004AA0002000900823EA1CD2B2214601A8FEF78E
S31508004AB0EBFE204604F0B7FA3A46B1B207F0E5FB3A
S31508004AC0012201A9B0B203F022FC00E0002007B0E1
S31508004AD0F0BD38B504460D4602F007FF002818BF9A
S31508004AE0AC4206D0204605F011FCBDE8324002F083
S31508004AF083BF31BDCC2300202DE9F04180460D4609
S31508004B0000260DB9012602E0312D08BF002504F064
S31508004B1078FA00F00C00082813D1FDF7D9F880B907
S31508004B20DFF8006786F80080FEF739FD4046FEF795
S31508004B3045FE294606F011FEFEF737FDFF203070C8
S31508004B4032E0DFF8E476404604F05BFA0C210842CE
S31508004B5005D139780120BDE8F041FEF770BD032480
S31508004B60404604F0A1FAB0F5006F07D1404604F0BC
S31508004B70BDFA00F01BF808BF012401D005B10524D1
S31508004B8039782046FEF75BFD294640460DF0B4F914
S31508004B9050B92946404605F057FB28B932462946FA
S31508004BA04046BDE8F04105E0BDE8F0814FF6FF71EB
S31508004BB0884270472DE9FC4706460D46144604F020
S31508004BC020FA00F00C00082808D1FDF781F828B172
S31508004BD022462946304603F002FF09E18A4F30464D
S31508004BE004F00FFA00F00C000C2830465BD104F0F4
S31508004BF0F9F9824604F03DFA50444FF0FF09DFF810
S31508004C0024860178012906D0022912D0042924D045
S31508004C107C2939D0ECE04DB99AF804009AF80310CB
S31508004C2001EB002080B201F091FDE1E0FCF7EBF921
S31508004C30DEE0002D04BFC178002908D1314682780C
S31508004C40407800EB022080B202F0CCF892E00AF13C
S31508004C500501002002F01DFD92E03868407B02281D
S31508004C60E6D11DB903F06FFF04B931252B46222280
S31508004C7067A1032003F0B5FF88F80060FEF78FFCF4
S31508004C80284606F063FD09E088F80060FEF787FC11
S31508004C903046FEF793FD294606F05AFDFEF785FCD9
S31508004CA088F80090A4E004F09DF90446201DFEF75C
S31508004CB089FF8046A01CFEF785FF81464FF6F87AE5
S31508004CC0D1450AD23868B0F84410491CA0F84410F7
S31508004CD01DB144304188491C4180207800F0030109
S31508004CE0012950D1304605F03BF801463046FEF71B
S31508004CF0C1FE042802D0072804D079E0304601F026
S31508004D006FFB75E0204605F03DF8002870D0014697
S31508004D10002002F0BEFC8146304605F021F800214D
S31508004D2000910323421CD2B2314601A8FEF7ACFD1E
S31508004D30002D02BF3868407B022820D101A881785F
S31508004D40E9B940789DF8041001EB0025B9F1FF0F89
S31508004D500DD0DFF8D804006830F819104FF6FF3286
S31508004D60114020F81910A9B2484602F00DFEA8B263
S31508004D700CF0FBF900211020FEF761FC38E04846EC
S31508004D8002F03AFE34E00321084231D101F0D2FCA8
S31508004D90804504D0304604F02FF9C00606D5002D0C
S31508004DA00CBF0021662130460FF06BF905B3D145DB
S31508004DB01ED2607810F0040506D148460CF090FA29
S31508004DC0060002D0012600E00026484602F07EFDD5
S31508004DD008B1062207E00DB10B2204E016B902223B
S31508004DE0494608E00C222EB9494640460EF0EAF933
S31508004DF0BDE8F3874146002EF7D0C846F5E7000020
S31508004E00DF260020402D00202C2D0020E52F002035
S31508004E104242000024260020DA2F00202DE9F04F18
S31508004E2085B0044694F800A0504604F0EFF8FEF763
S31508004E30BBFBFCF74DFFB0B1A079012805D1DFF81F
S31508004E40F003017841F001010170207803F0C8FDF4
S31508004E50002840F0CF80607800F0F0006070FEF720
S31508004E60A4FB00203FE5504604F0BCF80646301D7A
S31508004E70FEF7A8FEADF80000B01CFEF7A3FE8146BB
S31508004E80504604F06DFF8346594600F00EF98DF83A
S31508004E9002003078FFF783FA0CBF9DF80250FF2511
S31508004EA00BF03CFCA188401A1FFA80F801F042FC7E
S31508004EB0BDF8001088420CBF01270027084603F0FA
S31508004EC0E3FA0028C7D1484603F0DEFA20B148467F
S31508004ED002F00BFD0028BED000F0EAF821D3062D1B
S31508004EE018BF042D61D05A463146504600F00BF9DA
S31508004EF0B8B9FEF77EFF20B19DF80200FFF74FFA1A
S31508004F000FD0FCF768FE00284CD001F013FC0146D0
S31508004F10301DFEF75DFEFFF7EDFC4188504604F0B4
S31508004F2094F8012D41D1504604F07DF8FFF73EFE76
S31508004F303BD1002300F0B2F805008CD06A799DF8C1
S31508004F400D00824207D20BF10501C9B25046FEF7A1
S31508004F5096FD00F09DF806F066FC7E2190FBF1F2C6
S31508004F6001FB120000F5807060809DF80E00182184
S31508004F70084212D060780F21084208BF002F0CD1D2
S31508004F80FEF70DFB304604F00AFF6A790146BDF8C4
S31508004F90000006F0E5FBFEF708FBFEF706FB9DF8AA
S31508004FA00F005FE72820608059E74FF6F8708145C3
S31508004FB002D27078C00721D500F07AF81ED240F6E2
S31508004FC0B93080455CDA06F02EFC00F03F00C0F5EB
S31508004FD0FA706080607800090CD05FB9F179BDF885
S31508004FE000000CF00CFA00281EBF80884FF6FF71EF
S31508004FF08842A2D0FEF7D9FA012033E7022D26D13E
S31508005000012300F04BF8054601F094FB0146BDF874
S315080050100A00814202D002F068FC58B3002D8CD0F9
S315080050206B880122594650460DF0C4F9FFF762FC19
S31508005030417E491C4176F171BDF8060069888842AF
S3150800504001D000F025F84FF4C8706080D2E7032D30
S3150800505010D17FB10BF10101C9B200F026F80C2876
S3150800506008D105F02BFFFFF7A1FD03D001465046F6
S3150800507003F0EBFF607800097FF4EDAEB8F1FB0FA3
S31508005080BFF6E9AE06F0CFFB00F01F001030DCE7F4
S31508005090607800F0F000801C6070704701AA5946DD
S315080050A050460DF0CDB8054629465046FEF7E2BCF7
S315080050B060480068007B0328704770B50446FCF713
S315080050C007FED0B9204603F08DFF0546204604F0BA
S315080050D047FE014600F014F80646204603F0A3FFF3
S315080050E04FF6F871884206D2287800F003000128A6
S315080050F008BF022E01D1012070BD002070BDC9B2C3
S315080051002046FEF7B7BCF8B5044615460846FEF72E
S3150800511059FD20F4007041F20801884217D146482B
S315080051200068205C401B072811DB00260FF21C17BD
S315080051307119FFF7E4FFF15D814203D0022E08BF23
S31508005140002804D1761C072EF2D30120F2BD0020D8
S31508005150F2BD2DE9F04180460C4603F052FF00F0FF
S315080051600C0008282FD0201DFEF72CFD0546E679F1
S31508005170FFF7BDFB0746404603F03EFF00060ED587
S315080051802C480068017B042909D3417B022906D1F2
S3150800519040884FF6FF71884218BFFEF748FAA01CF0
S315080051A0FEF710FD4FF6F871884202D26078C00704
S315080051B00BD520780321084205D13A4631462846C0
S315080051C00CF027F905E0012006E0314628460CF0E8
S315080051D09BF9401E8041C00FBDE8F08110B504461A
S315080051E041B1FF22032103F0E5FE002204212046F7
S315080051F003F0E0FE21461148FEF744FD2046FEF77F
S3150800520098FA0F480078BDE81040FDF766BB000025
S31508005210AC250020E4230020C12600203C2D0020D8
S315080052201A2F0020DE260020E6260020E023002094
S315080052306D2C00202C2D0020CC230020A02500203A
S31508005240D82F0020001300000000000000FF0140D6
S315080052500EC0FF0070477047002070472DE9F24FD7
S3150800526090B080461546994605A99DF8400000F07D
S315080052706AF907469DF81400DFF8D0150968405CFE
S31508005280C21BDFF8CC150968CE88B1F802A0BAF5BA
S31508005290004F01D2B84204DADFF8B80500210170E0
S315080052A08CE0B9F1000F18BF4FF4A076D4B2152CD4
S315080052B034BF2046152000210091431CDBB27A1E1C
S315080052C0D2B29DF8141006A8FEF7DEFA9DF818B0BB
S315080052D05B4632464AF400410CA800F027FA012D35
S315080052E014BF0120002001900DF1190000904B46D3
S315080052F042465146304600F065F808B101205EE0A6
S31508005300002D5BD1DFF8480500684088342841D174
S31508005310C8259DF8210041064CBF802100210006C2
S315080053204CBF2020002040EA0104002208210DF18C
S315080053301900FCF786FC38B90822DFF81C150DF1B0
S31508005340190003F023F990B9DFF810050068017B0E
S31508005350032903D34088804503D015E04069C0017E
S3150800536012D403224146204600F0ABFE0AE00DF1B6
S31508005370190002F061FA4FF6FF71884204D02146FF
S3150800538000F0CCFF00B900252A46ADA1404600F042
S31508005390D8F913E0DFF8C804007878B1CDF810B072
S315080053A0039602940DF11900019000979DF81430A8
S315080053B04A469DF8401040460FF054F8002011B0B8
S315080053C0BDE8F08F2DE9F54F85B01D46119C0DF10E
S315080053D00C090026DFF880B4109FF9B9B94607F121
S315080053E0080808225946384603F0D0F838B901F0BB
S315080053F0A1F98246ACBB95B386F001002CE038468D
S3150800540002F01AFA82464FF6FF70824504D05046DB
S3150800541002F05CFA0028EDD10126E8E701291AD145
S315080054207878397801EB002A07F1020801F082F949
S315080054301FFA8AFA824508BFD946DBD0504602F0E1
S3150800544045FA28B103A9504602F062FA0028D1D1DC
S31508005450D9460126CEE7002007B0BDE8F08F012027
S31508005460FAE7002D18BF002EF9D198F8005098F8E1
S3150800547001700EB1812203E0022DB4BF0022802202
S31508005480029700200190CDF800A04B460FF2E031BC
S315080054900120FEF737FB0446FF2CE0D0002E08BF9C
S315080054A0012D0DD00C212046FEF7A0FA2246002138
S315080054B0BDF8180000F045F92046FEF748F9CEE792
S315080054C001F038F9824536D14FF0000BDFF87CA39E
S315080054D0DFF89093DFF8905303E0781EC7B20BF11C
S315080054E0010B28785FFA8BFB834522D2D9F8000096
S315080054F010F81B008007F2D53800EED1584602F0A6
