S0180000486153616D706C65456E644465766963652E7333376A
S31508002000C81D0020550E02084DEC01084FEC0108CA
S31508002010A70A080100210008040303AC00537A014B
S3150800202000000000000000000000000000000000A2
S315080020300000000000000000000000000000000092
S315080020400000000000000000FFFFFFFFFFFFFFFF8A
S31508002050FFFFFFFF00E0020800010000000000008B
S31508002060FFFFFFFFFFFFFFFFFFFFFFFFFFFFFFFF72
S31508002070FFFFFFFFFFFFFFFFFFFFFFFFFFFFFFFF62
S31508002080F02F002000000000EC2F0020EC2F00208D
S31508002090C81D0020486D0208261102086814002091
S311080020A0380D0020000003080030002066
S31508002100C81D0020550E02084DEC01084FEC0108C9
S3150800211053EC010851EC010855EC010810EE0108D2
S3150800212010EE010810EE010810EE010810EE010885
S3150800213057EC010810EE01083910020873730108FC
S31508002140A92F000810EE0108E579010810EE01082C
S31508002150DB9A0008A99D010810EE010810EE010897
S31508002160016C01084911010827730008B99A01088A
S3150800217010EE010873230008BB230008AFB6000859
S31508002180B119010810EE010810EE010811EE010858
S3150800219038B5374C374D002020700E2000F0CCF8AB
S315080021A001281ED100F07DF9022809D1287804F10A
S315080021B0080201B0BDE830400123002100F08DBAC5
S315080021C0C8B900F0CAFC10B900F0B6FD10B90FF294
S315080021D0FC0001E00FF2EC00BDE83440012100F0FC
S315080021E0A5BE162000F0A8F8012804D12878BDE875
S315080021F0324000F025BB31BD80B5902803D10121BE
S315080022000FF2B80004E0912804D10FF2B8000121BA
S3150800221000F08CFE002002BD00B585B000208DF8C8
S315080022200000144800788DF801000620ADF8020079
S315080022300020ADF8040040208DF806000020ADF817
S3150800224008000220ADF80C000820ADF80E000020AA
S31508002250049000A801F01AFA05B000BD0E2818BFB0
S31508002260162804D1012904BF014801F019BB70479B
S31508002270C81D0020C0250020002101B1704700B507
S3150800228083B00121009101AB0022062101F08AFCEE
S3150800229048B99DF8040018B1072002F03DF807BDBB
S315080022A0072002F04BF807BD7047704770470020BB
S315080022B07047704701207047002070471F010001D2
S315080022C00F0100000F0100011F0500001F0100009B
S315080022D02DE9F0414B4C4C4EDFF83081002020654B
S315080022E04FF40055356002202060E5600020206527
S315080022F0206D40F0600020650E2000F029F888F86F
S3150800230000004FF480470020606537600420206095
S31508002310E76016213E48016000206065606D40F068
S3150800232060006065162000F013F888F80100394847
S3150800233005600760BDE8F08134490E2802D01628EA
S3150800234002D003E008787047487870470020704745
S315080023500E2802D0162802D009E02F4800E02F48A0
S315080023600068800900F0010080F001007047002035
S31508002370704710B523484FF40051C160022101602F
S315080023800E20FFF7E5FF214C227801468A4218BF46
S3150800239021700DD1501E8041C00F20700E2021786B
S315080023A002F0BAFB2178481E8041C00F20702178C0
S315080023B0BDE810400E2002F0AFBB10B511484FF42F
S315080023C08041C160042101601620FFF7C1FF0F4C50
S315080023D0627801468A4218BF61700DD1501E80414D
S315080023E0C00F60701620617802F096FB6178481E6F
S315080023F08041C00F60706178BDE81040162002F079
S315080024008BBB000014A8004080E100E0B42F002038
S3150800241014BC004000E100E008B4004008B80040E1
S315080024205D480068408870475B480068001D704733
S3150800243059480068C07E704770B5574D296848737B
S31508002440564C574E022817D100F0ACF868B92868E0
S31508002450007B04283CBF304601F022FA2868007B3E
S3150800246003283CBF204601F01BFA28684069C000D3
S3150800247054BF9024BC240AE000F094F810B102F08E
S3150800248067FC03E03070207002F0BFFC9124204600
S3150800249002F08BFE20B92046BDE8704002F081BFED
S315080024A070BD3D480068407B00F00F0070473A4811
S315080024B00068407B00F00F00022801D10120704718
S315080024C00020704738B5044600F06CF820B1204665
S315080024D0BDE8324002F030BC2F4DFFF7E8FF28B9BF
S315080024E02868407B032801D0932032BD03F0FBF80F
S315080024F020812868C07BA0722868807BE07220460D
S3150800250004F05FFB0020207304F1140104F11000AD
S3150800251004F005FCE081002032BD10B5002300E080
S315080025205B1CDBB28B4205D210F8014B9442F7D004
S31508002530002010BD012010BD80B5082104F090FFD1
S3150800254008B1002002BDA52002BD30B5531E0024E7
S3150800255004E0DBB25D5C25545B1E641CE4B2944265
S31508002560F7D330BD0C480068407B01281CBF3128D2
S31508002570332801D1012070470020704710B5044662
S3150800258005F02FFA10B904490968CC7310BD024842
S315080025900068807B70470000A02C0020102E0020C9
S315080025A0082E002080B503F0A6F8032801D10120E3
S315080025B002BD002002BD80B5FFF7F4FF38B140F236
S315080025C02B110FF20C00BDE8044005F0EDBA01BD71
S315080025D0656D6265722D737461636B2D636F6D6DC6
S315080025E06F6E2E630000000010B5934C2079FFF73C
S315080025F05BFE0020607110BD82B0039840B98E481A
S315080026000321417108304FF4205102B001F053B94B
S3150800261002B0E9E730B5884C0FF2A5150020207204
S3150800262083B06079401E052853D8DFE800F003140C
S315080026302C2F394C0FF22C2100F04CF80121B42034
S3150800264001F0CDFF022060714FF4806104F10800AB
S3150800265001F031F937BD0FF21C2100F03BF80121DA
S31508002660B42001F0BCFF73A301220321012006F068
S31508002670F2F86078FF2106F02CF970494FF6FF70E2
S3150800268006F016F91DE00FF200211EE00FF21421E4
S3150800269000F020F82178208A2A4606F04CF910E046
S315080026A00FF2102100F016F8208A00A902F0E0FFC8
S315080026B018B900A800F026F837BD208A294606F082
S315080026C05AF930B103E00FF2FC1100F003F8FFF7F6
S315080026D08BFF37BD012006F0B3BA38B50AB9022018
S315080026E032BD554CFF252571A170E37003B9002250
S315080026F0607062610120607104F1080001F0D0F891
S31508002700002032BD7FB5044600254B4E00A9284659
S3150800271006F0CBFB002804BF9DF80000012815D160
S315080027209DF801007178884202BFBDF80200718ADF
S31508002730884202BF9DF804003178884206D10822F3
S3150800274021460DF1050006F07BFD48B36D1CEDB280
S31508002750022DDBDB002500A9284606F0A6FB00288B
S3150800276004BF9DF80000002822D101208DF8000042
S31508002770082270788DF80100214630788DF804001B
S31508002780708AADF802000DF1050006F00FFD00A9EC
S31508002790284606F095FB58B9318A284606F06EFB9E
S315080027A006207071357106F1080001F079F87FBDD1
S315080027B06D1CEDB2022DCEDBFFF716FF7FBD0000C4
S315080027C002780021D20758BFFFF70EBF70B54288BE
S315080027D0042A25D1184A80689378012B19BF037AF1
S315080027E0C0680378406800E0491CC9B20C469C42A0
S315080027F01CDA30F81440002500E06D1CD678EDB2DE
S31508002800B542F1D2566936F81560B442F5D154820C
S315080028100520507102F10800BDE8704001F040B88B
S31508002820012A03D1BDE8704080686BE7BDE87040B7
S31508002830DAE60000000000001C290020F92500083F
S31508002840B42102B582B059B1FF2909DA21210191D3
S31508002850402302A900910022032101F064F900B186
S3150800286002200EBD3C657A6D6F64652062706A6FE2
S31508002870696E3E003C657A6D6F6465206964656EB5
S31508002880746966793E0000003C657A6D6F64652060
S315080028906964656E746966792074696D656F7574A7
S315080028A03E0000003C657A6D6F6465206D61746357
S315080028B0683E00003C657A6D6F64652062696E64E7
S315080028C03E0000003C657A6D6F646520626F756E28
S315080028D0643E000070B5BA4D6968FF2400260020E2
S315080028E0425CA4F119039A42BCBF02F11904E4B28E
S315080028F0401C1028F4DB0020425CA242BCBF761CB8
S31508002900F6B2401C1028F7DB300003D1BDE8704052
S31508002910012047E106F0C8FC90FBF6F106FB110121
S31508002920C9B200206A68825CA24206DA0A0002D1AD
S315080029300B30687005E0491EC9B2401CC0B21028A9
S31508002940F0DBBDE8704010B5002406F0ADFC4FF68C
S31508002950FF729B49904203D04A6822F81400641C0F
S31508002960102CF2DB032008704978BDE810400120DE
S31508002970032200FA01F125E138B504460D46012087
S3150800298000F0F3F808B9702032BD8D480A2141706D
S31508002990846035B100214A5D42B9491CC9B208298B
S315080029A0F9D301218170BDE8314007E0002181702B
S315080029B0082229460C3006F0F9FBF4E710B5804CDE
S315080029C02078012807D0702002F01AF8702010BD70
S315080029D0E07806F093FCE078A0B1401EE070C0B243
S315080029E006F074FC01884FF6FF729142F0D090F918
S315080029F00F20817B01F0F5FFE07806F07FFC06F0FA
S31508002A006BFC14E06078401C607060781B280BDA59
S31508002A100121A26881401142F5D0042020700322CA
S31508002A20BDE810400120CDE0AB2000F0BBF8002047
S31508002A3010BD10B50C4600F090F828B1604908782A
S31508002A40022818BF002C01D0002010BD022806D08D
S31508002A5022D304281CD005D3052819D01CE0FFF77B
S31508002A6039FF19E000224FF6FF73486830F8120064
S31508002A70984206D1521CD2B2102AF6DBFFF763FF42
S31508002A800AE0497801F0A0FF002000F08BF803E087
S31508002A9001200870FFF792FF012010BD2DE9FC41C7
S31508002AA0474D044628780E469046032802D0042847
S31508002AB00FD042E000206968238831F810209A4236
S31508002AC004BF4FF6FF7221F81020401C1028F2DBD5
S31508002AD033E0E07888B3277B06F0F6FB87422CD1F3
S31508002AE0A87830B90822211D05F10C0006F0A8FBCC
S31508002AF018BB002709E0384606F0E8FB0822211D26
S31508002B00001D06F09DFBC0B17F1CE878FFB2874226
S31508002B10F1D3401CC0B206F0F1FB70B9E87806F0B4
S31508002B20D5FB0746E878401CE8700E222146384651
S31508002B3006F03CFBBE7387F80F80BDE8F3410CE056
S31508002B4038B504460D4600F008F828B11C48406818
S31508002B50201800F80B5C012032BD194800780228BD
S31508002B6001DB012070470020704738B50446FFF79F
S31508002B70F4FF18B13D2001F043FF0FE006F0ACFB6F
S31508002B80002000F00FF80E4D0020E8702C7006F0BB
S31508002B90A7FB686020B9182000F004F8002032BDB1
S31508002BA0012032BD10B5044605480021017006F023
S31508002BB0AFFB24B12046BDE8104001F021BF10BD8F
S31508002BC03429002010B506F0B3FB040018BFFFF740
S31508002BD0E9FF204610BD000000B583B000A800211B
S31508002BE0002206C0082200A9814806F0DFFA07BDC0
S31508002BF030B587B004460D461822002101A806F014
S31508002C0018FB01A800F0D8F803208DF80E00ADF8DF
S31508002C100C408DF80F5001A801F0FDFE04000DD000
S31508002C200FF2F8100FF2EC120FF2D41100902346AF
S31508002C30022006F005F8204600F059F807B030BD26
S31508002C4030B587B004460125FFF734FBF0B11822EA
S31508002C50002100A806F0EDFA0822211D00A806F0BA
S31508002C60A5FA20880FF2C011ADF80800A0788DF8F3
S31508002C700B0003208DF80A002388A278022005F0AD
S31508002C80DFFF00A801F0C9FE05000DD00FF28C1079
S31508002C900FF2D0120FF2B81100902B46022005F061
S31508002CA0CFFF544800F0FCFD07B030BD80B5524850
S31508002CB000210171017802290AD10FF2C4120FF21C
S31508002CC0AC11022005F0BCFFBDE80140FFF776BE57
S31508002CD00021017002200FF2BC1105F0B1FF00209F
S31508002CE0FFF760FFBDE802400020FFF7E2BA10B523
S31508002CF004462346AB2B07D10FF218120FF2AC117C
S31508002D00012005F09DFF06E00FF2C8120FF2B4117C
S31508002D10012005F095FF38480FF27812002101705E
S31508002D2002200FF2B81105F08BFF2046BDE81040CF
S31508002D30FFF7BFBA7020704730B52F4C207883B0A4
S31508002D4040B10FF2C4120FF2A811022005F078FF65
S31508002D5070203EBD0FF228120FF2B411022005F0C2
S31508002D6075FF264D022005F029FF10B1284606F00A
S31508002D7048FD1EA1022005F063FF00A800F01CF81C
S31508002D8000A92846FFF7F8FD08B9022121703EBDC3
S31508002D90194A1178902809D101290BD002290AD19C
S31508002DA0032010700121101D00F09DBD022902DBD1
S31508002DB0022010707AE7704710B5044602F099FAB7
S31508002DC00B4901EBC0012046BDE81040082206F079
S31508002DD0EDB910B5044602F08CFA2146BDE810405C
S31508002DE0034B082203EBC00006F0E0B90000000020
S31508002DF0BC290020B4290020B029002000C81803E7
S31508002E002570206572726F722030782578202570BB
S31508002E1000000000466F726D0000000061626F726C
S31508002E2074696E67000000004E776B20666F756EDA
S31508002E30642C2063682025642C2070616E49642008
S31508002E4030782532582C206A6F696E696E670000E3
S31508002E502570206572726F7220307825782C2025AF
S31508002E60700000004A6F696E00000000436F6E74C0
S31508002E70696E756520257020736561726368000048
S31508002E806A6F696E61626C65206E6574776F726BC6
S31508002E90000000004E6574776F726B2066696E6479
S31508002EA020636F6D706C6574650000002570206185
S31508002EB06E64206A6F696E207363616E20646F6E3C
S31508002EC0650000002570206572726F7220307825C3
S31508002ED0780000005363616E00000000257020280A
S31508002EE07363616E206572726F72292E000000008E
S31508002EF02570466F726D20616E64206A6F696E2058
S31508002F006F6E676F696E67004572726F723A20005E
S31508002F1053656172636820666F722025700A43687C
S31508002F20616E6E656C733A200000000070B50C4641
S31508002F303F4D404E002129650D220521A962012138
S31508002F4069610021A961A96941F44051A9617060CC
S31508002F5001785143E9620F220021696201784078BD
S31508002F6091FBF2F1C822504390FBF1F070800220E9
S31508002F7030700020707006F089FC01222E490A6024
S31508002F802E490A6842F001020A601021296229685E
S31508002F9041F00101296006F07FFC01E006F0A0FC83
S31508002FA070782043FAD070BDF0B522484288511E89
S31508002FB04180002A224937D1027847681C4BD41928
S31508002FC065781DB3D65DC8258EB14FF00D0E0EFB84
S31508002FD006F6DE6200265E6210261E62D35D6478FF
S31508002FE00F2693FBF6F36C4394FBF3F30AE040F2E7
S31508002FF09316DE6200265E621E6263786B4303EBFD
S31508003000D3735B10921C438002700DE00A6C520861
S3150800301052000A64094A14686408640014600022AD
S315080030201A621A60012242704FF0FF300860F0BD44
S3150800303000E00040E81D002040A8004000E100E054
S3150800304000A8004038B5049D059C14B1009501F010
S3150800305079FA31BD10B50C4602462046BDE8104047
S3150800306014231D2106F0D0BC0A46014614231D2050
S3150800307006F0DBBCB2E22DE9F04794B0002606F074
S3150800308014FD80460025DFF8109705A9E8B2FFF77A
S31508003090E1FF0C2000FB05FA5AF80900A8EB00012D
S315080030A09DF81500002800F098809DF81420002A45
S315080030B020D1BDF82020B1EB822F07D30AEB0904F3
S315080030C0227A2AB9BDF82220B1EB822FC0F085807A
S315080030D004A90391212102910AA90191BDF81C10A6
S315080030E09DF81A30BDF818200091BDF8161000F0AA
S315080030F0F2FF002871D1C6B130799DF81520718884
S31508003100824204BFBDF816208A420CD19DF81A20C7
S315080031109DF81130D2099A4202BFBDF81C20BDF8AD
S3150800312012309A421FD000F066F805F0CFFB06462B
S315080031309DF81A00C0098DF8110014BF0020082058
S3150800314080A100910A23BDF81C20BDF8161005F0D1
S315080031506AFB9DF8150030714FF48A50F080BDF86F
S315080031601C00ADF81200BDF8180006F034FD9DF8F5
S31508003170100006F025FD9DF8100006F0DAFD20B1D6
S315080031800AA806F087FD471C04E09DF8100007F022
S31508003190FDFA0746FFB2BDF8160040F202718842F2
S315080031A001BFBDF8180000288DF82C008DF82D00F9
S315080031B039460AA806F027FD002020724AF8098039
S315080031C0052F02D260603A4603E0062F05D16060FB
S315080031D004220AA9201D05F0E9FF6D1C052DFFF63E
S315080031E054AF1EB17188307900F005F800F0F6F991
S315080031F014B0BDE8F08710B50C4607F0FDFA08B91B
S31508003200032C05D1BDE81040DFF8900505F038BB62
S3150800321010BD2DE9F04F044687B0257D00208DF8B6
S315080032200600607D002807BF082040210020802175
S315080032308DF80410072343A1009100F05BF9A289D9
S31508003240ABB2D81C904276DAA068195C8DF80510E6
S315080032505E1CB1B206F0FEFC80469DF80500B51C62
S3150800326010B101285AD064E0A068A289A9B24D1C01
S315080032700F5C0026A9B206F0EDFC8246AD1C00F0F4
S3150800328063F88146AD1C384607F033FE58B9384610
S3150800329007F07CFA8346A289A0685B46A9B206F0C5
S315080032A0C3FC06465D442068218A9DF804300091D7
S315080032B042464188407906F018FE00281EBF8078ED
S315080032C0B8428D261AD1206840798DF80900206801
S315080032D04088ADF80A00ADF80C80ADF814A0ADF83A
S315080032E0169006969DF804008DF80E000020ADF89D
S315080032F0100002A800F0CAF90600A0D0304606F071
S315080033005FFC9DF8050006F05BFC404606F063FC92
S3150800331001208DF80600852E91D111E000F014F8F1
S3150800332003469DF80420AD1C4146204600F03AFAB3
S31508003330E2E78526E2E79DF8060008B906F040FCB4
S31508003340D2E0000000000000A289A068A9B206F039
S3150800335081BC2DE9F04F044687B0607D257D0028A5
S3150800336007BF08204FF0400900204FF08009BAA196
S315080033700091092300F0BEF814E02068218A009124
S315080033804B4641884079524606F0AFFD5FEA000891
S3150800339020D1862006F014FC002006F011FC5046C9
S315080033A006F019FCA289ADB2E81C8242C0F29C80E4
S315080033B0A0682E5C6D1C0027A9B206F04BFCAD1C5C
S315080033C08246002ED9D0012E04D0852006F0F8FBBF
S315080033D03046E2E7BB4601A95846FFF73BFE9DF893
S315080033E00400B04201BF20689DF805104279914259
S315080033F020D1BDF806104288914204BFBDF80810D6
S31508003400514517D19DF80A10494502BFBDF80C1061
S31508003410228A91420ED19DF8041049B1BDF81010C8
S31508003420E288914202BF9DF812100079814201D1CB
S31508003430012706E00BF101005FFA80FBBBF1050FDF
S31508003440C9DB002006F0BCFB304606F0B9FB504647
S3150800345006F0C1FB16B1012E3FD0A3E798F802008B
S3150800346006F0AEFB002F14BFBDF810004FF6FF7034
S3150800347006F0B1FB002F14BFBDF812004FF6FF701F
S3150800348006F0A9FB98F8020007F033FD002889D159
S3150800349007B101AF98F80280404607F077F906466B
S315080034A06FB13F69F6B2002ED7D0F8B206F088FBA6
S315080034B03F0A761EF6E7384606F082FB761EF6B217
S315080034C0002ECAD0FF27404607F01FFD0028F2D07D
S315080034D0012E0CBF80270027EDE7002F0CBF4FF603
S315080034E0FF70BDF814005BE707F0FCFB012007B08E
S315080034F0BDE8F08F2168228A498805F094B910B58D
S315080035000024204600F0AAF8641C052CF9DBA44820
S3150800351000210170002010BD0146B120052900DBFD
S31508003520704780B5084600F0ABF8002002BD2DE9CB
S31508003530F04385B080460C9C894616461D460027F2
S31508003540A4B200F048F89DF80000002804BF9DF8D2
S315080035500100404538D1BDF80200484504BFBDF812
S315080035600400B04230D19DF80600A84204BFBDF859
S315080035700800A04228D10D9C204607F007F90C2127
S31508003580854A0E9D01FB072702467968284607F0FB
S3150800359041F9804640F20270814508BF002E05D1E8
S315080035A079680422284607F035F98046204607F050
S315080035B0A0FC012803D058B90498804508D30120F7
S315080035C0387200F00BF803E07F1CFFB2052FB8DB5A
S315080035D005B0BDE8F08300A938463BE52DE9F04182
S315080035E04FF0FF3886B0444606F05FFA05460026D7
S315080035F0694F00A93046FFF72DFD9DF80100D0B1AF
S315080036009DF80000B8B90C217143CA59BDF80C00E1
S31508003610C9198002097AAA1A434621B190422CBFD9
S31508003620831A002304E0BDF80E0008B1C2EB80231C
S31508003630A34298BF1C46761C052EDADB584814F1BF
S31508003640010F03D0214607F035FE01E00021017085
S3150800365006B0BDE8F08100000000000010B586B095
S31508003660044600A9FFF7F6FC00208DF8010000A922
S315080036702046FFF7F9FC00A8FEF71EFE06B010BDAF
S3150800368080B5FFF7EBFFBDE80140A7E7F0B50446B4
S3150800369087B020890090A379A28861886078FF2581
S315080036A0012606F022FC08B9862072E0E08920B1DE
S315080036B0A189884238BF87206BD3002701A9FFF765
S315080036C08BFF9DF804109DF80500002904BF61785A
S315080036D0884216D1BDF806106288914202BFBDF82D
S315080036E00810A28891420CD19DF80A10A27991423D
S315080036F002BFBDF80C102289914202D100263D4630
S3150800370007E0002804BFFF2D3D467F1CFFB2052FAA
S31508003710D4DBE0894FF6FF71884205D116B92846F1
S31508003720FFF7AEFF002034E0FF2D08BF892030D018
S31508003730DEB100218DF80410174F61788DF8051059
S315080037406188ADF80610A188ADF80810A1798DF842
S315080037500A102189ADF80C100C2101FB05F606F0BC
S31508003760A4F9F0510021F0194160A089ADF81000C4
S31508003770E089ADF812002069059001A8FEF79CFDC6
S31508003780040005D101A92846FFF76EFCFFF726FFBE
S31508003790204607B0F0BD0000002A0020453000088A
S315080037A0F82900202DE9F04786B004468846914658
S315080037B09A46FF2501260027FFF70DFF9DF8000012
S315080037C0012801BF20689DF80110427991421ED157
S315080037D0BDF802104288914204BFBDF80410414565
S315080037E015D19DF80610494502BFBDF80810228A72
S315080037F091420CD1BDF80C10E288914202BF9DF8A7
S315080038000E100079814202D100263D4609E09DF856
S315080038100100002804BFFF2D3D46781CC7B2052FBE
S31508003820CADBFF2D08BF892025D0C6B101208DF837
S315080038300000206840798DF8010020684088ADF8BE
S315080038400200ADF804808DF80690208AADF80800CD
S31508003850E088ADF80C00206800798DF80E00ADF808
S3150800386010A000A8FEF728FD040003D100A92846E9
S31508003870FFF7FAFB204606B0BDE8F08738B544786E
S31508003880456806F003F80C2161438B4A8B585B1B8D
S31508003890B3F1004F98BF8D50BDE8324005F0FCBF2C
S315080038A010B5044606F001F9606004202070204631
S315080038B0BDE81040E2E738B500F011F82818606056
S315080038C0012007E038B500F00AF805EB10200002E1
S315080038D06060022020702046BDE83240CEE70446EC
S315080038E00D4606F0E2B838B5FFF7F9FF05EB1040CC
S315080038F0000460600320EDE710B50446207860B147
S31508003900042806D006F0D1F86168421AB2F1004FD1
S3150800391001D8002010BD081A10BD4FF0FF3010BDA9
S3150800392070B5044606F0C1F8054605F0AFFF064631
S315080039306FF00041606800F02CF8401920603046AE
S31508003940BDE8704005F0A8BF70B504460D4616469A
S3150800395006F0ABF8002156B1FF22327007E0121AC2
S31508003960AA4202D2154606B13170491C08342268AB
S315080039700AB9284670BD1378002BF6D0042B04D05C
S315080039805268831AB3F1004FE9D806B131700020A6
S3150800399070BD0022D8E738B5044606F086F8054615
S315080039A00BE0017841B1042904D04168691AB1F1E4
S315080039B0004F01D861688847083420680028F0D18C
S315080039C031BD10B50C213C4A01FB002406F06DF808
S315080039D02168401AB0F1004F06D86068FFF7DBFF90
S315080039E02046BDE810409BE710BD70B50446334D30
S315080039F0687833490978884205D34FF484710FF201
S31508003A00C40004F0D1F86E78701C68700C202A493E
S31508003A1000FB061044600121017200E04E7054F864
S31508003A20081B0029FAD1FFF77BFF304670BDF8B5B1
S31508003A3005464FF0FF300090204C207840B307F041
S31508003A40B3FC28B940F239110FF2780004F0ACF84B
S31508003A5006F02BF80C21184A01FB052300251D72D8
S31508003A60002305E0009EB54288BF354600955B1CDD
S31508003A706578DBB2AB420FD201FB03263568471BDC
S31508003A80B7F1004F04D92D1A367A0EB9002DE9D1AF
S31508003A9007F092FC0020F2BD00A806F025F80120E8
S31508003AA0F2BD0C21044A01FB002001210172704776
S31508003AB00249087070470000D4280020D12F002042
S31508003AC0105F02086576656E742D636F6E74726F8B
S31508003AD06C2E63002DE9F04786B00F9F109D0E9C53
S31508003AE002950197A4B206468A46904699460094DE
S31508003AF007F066FC18B1022803D002D310E00120B3
S31508003B000EE00CBF012000200021049103900295CD
S31508003B10019700944B4642465146304600F009FA52
S31508003B2006B0BDE8F08770B586B000260B9C0496F3
S31508003B30029401260A9D039600240195009412E03A
S31508003B4030B585B000F005F8402300F0F2F905B06D
S31508003B5030BD0025019304950023089C0093012598
S31508003B6003950294704700F0E4F906B070BDF0B50D
S31508003B7085B001270A9D0B9E0C9C0497ADB20027C1
S31508003B80039702940196009500F0D3F905B0F0BDAD
S31508003B907FB5099C089D0A9E029403960024019508
S31508003BA0009415E030B585B000F00BF8402304E02A
S31508003BB030B585B000F005F8802300F08CFA05B022
S31508003BC030BD089C01930025039502940095704723
S31508003BD000F081FA04B070BD2DE9F44F84B09A461E
S31508003BE00E9C0026074688460025B146524606F032
S31508003BF0D8FA5FEA000BBDF810008DF80070ADF832
S31508003C0002808DF804A0ADF80600ADF8084058D03B
S31508003C1000A9584606F0ADF9002852D00F98109C16
S31508003C208DF83C00B24606E005F0CAFF6D1C09F1A6
S31508003C3001090AF1010ABBF808001FFA8AFA824547
S31508003C4038D2DBF804100C2000FB0A17BBF800007A
S31508003C50B0F57C4F09DA3888ADF8060000AA39466F
S31508003C60584606F09CF90028E3D03888BDF81010AD
S31508003C70884238BF761CDAD39DF83C10ADB28D4227
S31508003C80D5D205F0A8FFB87805F09AFF002CCDD05C
S31508003C903888002808BFB8F1030F05D13879C0075E
S31508003CA054BF01200320BFE73879C0074CBF07205F
S31508003CB00520B9E7A9B2B6B270181FFA89F1884289
S31508003CC001D1012000E0002005B0BDE8F08F2DE904
S31508003CD0F04F8DB000250FF2C04800E06D1C06F0CD
S31508003CE01CF8EDB2854280F0A9808C480FF2484155
S31508003CF000EB05160420327804F0A2FF0FF24441C7
S31508003D00042004F09DFF4FF0000A01E00AF1010AC1
S31508003D10B06801795FFA8AFA8A45DFD20068142109
S31508003D2001FB0A044FF0000918E0FA78012392B261
S31508003D3004A9042005F006FD208806F0F8FD4FF6D4
S31508003D40FF71884208D0764901EBC0000FF2E031D6
S31508003D504268042004F074FF09F1010920891FFA5A
S31508003D6089F98145D2D261680C2000FB0917387998
S31508003D7040064CBF43460FF2284338880FF20441E9
S31508003D8000900420228804F061FF3946204606F098
S31508003D90D4F85FEA000B05D10FF20C41042004F0B9
S31508003DA055FF04E05A465AA1042004F04FFF38791B
S31508003DB0810748BF0FF2104105D4C1064CBF0FF268
S31508003DC010410FF21441C00754BF52A052A00191EE
S31508003DD00090FB78BA780FF2D831042004F036FF49
S31508003DE0387940064CBF8023402300200390CDF845
S31508003DF000B02120029004A801903A8821883078E2
S31508003E0000F069F9862805D10FF2D431042004F0B0
S31508003E1017FFA1E7B87805F098FF20B104A805F0C8
S31508003E2039FF421C82E7B87805F097FF00283FF46F
S31508003E307CAF04A805F033FF821C77E70DB0BDE818
S31508003E40F08F2DE9F0438FB08146179884B28846E3
S31508003E5017461E46052C4BDB169D0FF29031ADB268
S31508003E6002950196009743464A4600F05FF804A873
S31508003E700390009521200290334605A801903A4602
S31508003E804146484600F027F9050034D19DF8100050
S31508003E9005F04FFF20B105A805F0FCFE451C04E01F
S31508003EA09DF8100006F072FC0546EDB2281D844206
S31508003EB01EDB384605F08FFE002005F081FE9DF8D2
S31508003EC0100005F07DFE174C20882918522908DABB
S31508003ED0154B2A4605A9C01805F068F92088281840
S31508003EE0208000953B4642460FF2583100F01EF8F6
S31508003EF00FB0BDE8F083384605F06DFE284605F09C
S31508003F005FFE0FF21C3100953B464246EEE7000085
S31508003F1025327800524F000052570000C025002075
S31508003F207CB100084A29002058290020042004F002
S31508003F3087BE2DE9F84F88B0804600200490914648
S31508003F409DF82000159E129C8DF818000F4600203B
S31508003F50009002468DF81480ADF81670ADF81A90E8
S31508003F60ADF81C40002304A905A806F02BF8049810
S31508003F700FF2243248B90FF2F821CDF804900097D1
S31508003F804346FFF7D3FF862090E0149DA6B98078B4
S31508003F90854206D00FF20C31042004F051FE8D2024
S31508003FA084E004980079C00706D40FF20C31042087
S31508003FB004F046FE882079E00498139E00794007AD
S31508003FC026D50498806840680290049880688068BE
S31508003FD001900498807806F098FF82460498C07885
S31508003FE08DF8000003285346024631462FDA02A808
S31508003FF006F02CFF83469DF800205346314601A85B
S3150800400006F024FFBBF1010F18BF10F1010F2DD0E8
S315080040109DF85800002843D104989DF8203003964F
S31508004020A4B2C078029000F044F807F0FBF900F05B
S3150800403046F805F0FFFE002838D10120009000233D
S315080040403246002105A805F0BDFF88B12EE002988A
S3150800405006F0FCFE012809D09DF800200198534679
S31508004060314606F0F3FE10F1010FD1D187201DE08D
S31508004070049B3A464146304606F0D6F99DF820306C
S31508004080029600F016F8FFF752FA00F018F807F053
S31508004090C8F99DF8203000F00DF805F0A7FE04E0F9
S315080040A00FF22821042004F0CBFD002009B0BDE85A
S315080040B0F08F019500944A46394640467047049861
S315080040C09DF8203003964A46C078029001950094E0
S315080040D0394640467047F0B585B014461A460A9EDA
S315080040E00B9D0C9B8DF80800ADF80A108DF80C2076
S315080040F000270197ADF80E40ADF8106000979BB207
S315080041002A4601A902A805F05DFF040005D10D980D
S3150800411050B101998978017006E0892C04D10420F0
S315080041200FF2C81104F08CFD204605B0F0BD000062
S315080041302825702900000000454E44504F494E542A
S3150800414020257800636C7573202F207369646520B9
S315080041502F2061747472202F206D666720202F74BB
S31508004160797065286C656E292F207277202F207349
S31508004170746F72616765202F2064617461202872EC
S3150800418061772900253278202F202570202F2025B9
S315080041903278202F20000000636C6E740000000047
S315080041A073727672000000002D2D2D2D0000000080
S315080041B0202F2025782028257829202F20257020B3
S315080041C02F202570202F200020746F6B656E20002D
S315080041D065787465726E2000202052414D202000BB
S315080041E0556E737570706F72746564004F54412014
S315080041F0524541443A2065703A2578206369643A05
S315080042002532782061747469643A253278206D7392
S315080042106B3A2578206D66636F64653A25327800B7
S31508004220524541443A20636C7573202532782C2018
S315080042306174747220253278206661696C65642021
S3150800424025780000524541443A20636C7573202551
S3150800425032782C2061747472202532782C2064619F
S3150800426074614C656E3A2025782C204F4B0000006F
S315080042702570657020257820636C75732025327843
S31508004280206174747220253278206E6F74207375DD
S3150800429070706F72746564005752495445204552D0
S315080042A0523A20002570696E76616C6964206461F3
S315080042B07461207479706500257061747472206E5B
S315080042C06F74207772697461626C6500575249543D
S315080042D0453A206E6F2077726974652C206A75736B
S315080042E074206120746573740000000052454144CF
S315080042F03A206174747269627574652073697A65A7
S3150800430020746F6F206C6172676520666F72206318
S31508004310616C6C65720000001CB50446062C02D15F
S3150800432007F0C2F948B9E008032806DA80020C4902
S31508004330012204F007039A400A5013BD1CB504462F
S31508004340062C02D107F0B0F948B9E008032806DAC6
S3150800435080020449012204F007039A400A5013BD5B
S3150800436014B0004010B0004000281CBF0620FFF71C
S31508004370D3BF0620E2E700000020DFF88417FF23FA
S3150800438001EBC0021371002241F83020401C0328BB
S31508004390F6DB70472DE9F84B0BB484B01446032BB3
S315080043A005DB109D2978490706D5052B01DA01207A
S315080043B079E095F8049001E095F802900026DFF878
S315080043C040B70BEBC6000079FF2804D0701CC6B2B4
S315080043D0032EF6DBFF26DDF848805FEA080003D0E7
S315080043E0FF2E08BFB4205ED0207905F03EFF0746B1
S315080043F0FF2F08BFA32056D0207907F0BDF9002863
S3150800440051D1DFF8000700EB07100021438823800D
S3150800441060889DF844200090484606F0B1FC18B123
S31508004420E08840F02000E080BDF814109DF81000E8
S31508004430224606F0B1FCBDF81810884220D3FF20AA
S315080044408DF8080002A8019000952246BDF818309C
S31508004450BDF814109DF81000DBB207F078FB07468C
S315080044605FEA08000ED06FB99DF80800FF2814D03F
S315080044700BEBC6009DF8081001714BF836800CE06E
S3150800448074270DE0BA2F07D1A079C00608D50027F2
S31508004490012007F04CFC00E017B9112007F05EFC7C
S315080044A007F073F9384608B0BDE8F08B10B584B04C
S315080044B0069C088100F013F803200CE010B582B0C2
S315080044C000240094FFF7F2FF16BD10B584B0069CD1
S315080044D000F005F80420FFF75DFF04B010BD009357
S315080044E0029413460A46012401460194704710B502
S315080044F082B000240094FFF7E8FF16BD2DE9F043CB
S3150800450085B004460C9D0D9F884616469946022C92
S315080045100BD100A95FFA88F004F0C7FC78B99DF8BA
S31508004520010030719DF80400707102970020019017
S3150800453000954B46324641462046FFF72BFF05B00D
S31508004540BDE8F08330B583B00025069C019500943C
S31508004550FFF7D4FF3EBD2DE9F04188B004468846F2
S3150800456016461F46002503A9284604F09EFCF8B9FE
S315080045709DF80C10012902BF9DF80D102279914271
S3150800458002BFBDF80E10628891420DD19DF8100049
S3150800459060710297002001900096434622462946FC
S315080045A00220FFF7F7FE18B9691CCDB2022DDADB37
S315080045B08BE080B50346DFF85005008839B90FF25D
S315080045C064520FF25851BDE8005004F03FBB009109
S315080045D00FF268520FF2545104F038FB01BD7CB556
S315080045E004460D4601F026FA0646334622460FF2E1
S315080045F05451022004F024FB7EB975B101A80021AC
S315080046000160032000908DF8054001AB0022362199
S315080046104FF6FC7007F072FD0646304676BD2DE96A
S31508004620F0410D4688B00446288816461F4608B14C
S3150800463000204AE0688848F2040148F201088842E6
S315080046401FBF48F20601884248F22001884224D05A
S31508004650132818D1B07A0690707A0590307A0490AB
S31508004660F0790390B07902907079019030790090D2
S31508004670B1787078F37800EB01220FF2E04102205E
S3150800468004F0DEFA09E0404507D048F20501884201
S3150800469003D13079DFF8741408703B463246294650
S315080046A0204606F0C4FE002802BF688848F22101A9
S315080046B0884203D17178204606F0ACFE68884045EA
S315080046C0A4BF082007F063FB012008B0BDE8F0810D
S315080046D02DE9F04788B081460E469246984607F07F
S315080046E0A2FD8DF8089003960546119F0497ADF82C
S315080046F016508DF818A08DF81980109CADF8144046
S3150800470007F0FCF88DF81A0007F0FAF88DF81B0088
S3150800471000F0EFFD8DF81C0002A806F086FEA8B989
S31508004720A3B23A463146284604F0AFF970B9A3B2A7
S315080047303A4631462846FFF772FF38B90190009588
S31508004740A3B23A464946304606F09BF908B0BDE89A
S31508004750F0872DE9FC470A9C0B9E8046894617463A
S315080047601D0032D00FF294420FF28441022004F069
S315080047706DFA3B880BB9B8A20AE040F209118B42E0
S3150800478008BFB6A204D0B3F5827F0CBFB4A2B5A207
S31508004790A4B2019478880FF204410090022004F034
S315080047A055FA388870B1032C0CDB3078C0074CBF3B
S315080047B00FF22C420FF23042B3780FF2104102206A
S315080047C004F044FACBA100F049F80C98CC49002231
S315080047D001EBC2031B79834211D0521CD2B2032AC1
S315080047E0F6DB4FF0000A002201EBC20393F804C07F
S315080047F0844507D0521CD2B2032AF5DB07E051F8EC
S3150800480032A0F0E7FF201871002041F8320029464F
S31508004810404606F0DEFD002D04BF3888002806D184
S315080048207888B0F5004FBCBF082007F097FA01203A
S3150800483007F0ADFA36B13078C00703D500F011F8A5
S3150800484005F0A9FA5FEA0A0002D000F00AF8D04794
S3150800485000F007F806F0D2FDBDE8F387022004F061
S31508004860EFB901950096A3B23A46494640467047C5
S315080048702DE9F041044684B00FF298360FF29C38C1
S3150800488090380CD0401E48D0C01E46D0801E44D05A
S31508004890801E42D0133804283FD911384ED107F06C
S315080048A0E9FC054607F024F8471EBF41FF0F2DB166
S315080048B0002F14BFA8882889ADF804000DF106005A
S315080048C007F08FFDBDF80600800605D5BDF8040083
S315080048D040F02000ADF804003A4601A9002006F091
S315080048E0B5FDBDF8040007F069FD07F001F8009072
S315080048F0434632460FF20C31022004F0A1F9BC2CD3
S3150800490006D10FF22431FFF7A9FF06F096FD01E064
S3150800491008F0BDFB06F092FD10E0912C04D1434649
S3150800492032460FF2243104E00FF234330FF2243109
S315080049303246022004F084F905F0EAFF204608F022
S315080049403DFC2046FEF724FA204608F0BEFC204629
S31508004950FDF752FC18B10FF21031FFF77FFFBDE8E3
S31508004960FF8110B584B06A4C002006F000FF20785D
S3150800497080B96478012C08BF09F056FA00A807F038
S315080049802CF970B99DF80000A04203D0012C08BF8D
S31508004990022806D10FF200300068019001A801F044
S315080049A039F906F0F2FE1FBD30B583B00C46012377
S315080049B0082200A909F0CEFC0546082200A92046CF
S315080049C0FDF7C3FD28463EBD38B504460D4606F03C
S315080049D0D1FE29462046FEF70BF9BDE8314006F020
S315080049E0D4BE70B504460D46164606F0C3FE3246DA
S315080049F029462046FEF724F9BDE8704006F0C5BEF4
S31508004A0010B5044606F0B6FE2046FEF770F9BDE876
S31508004A10104006F0BABE7020704738B53D4909689F
S31508004A200A7804467020AAB94D78012D08BF0225D8
S31508004A3009F000FE20890FF280220FF26021009013
S31508004A400120E37A04F0FCF821462846BDE8344004
S31508004A5001F00DB832BD00005A444F00534500001E
S31508004A60484100003F3F000010B5044606F03AFFF3
S31508004A700020015DFF2904BF00210155401C1028B4
S31508004A80F7DB0020207410BD33B581B00020002468
S31508004A900FF2542108E011F830309DF80A50AB4265
S31508004AA008BF5468401CC0B201EBC0025368002B13
S31508004AB0F1D19DF808009DF807309DF806200FF201
S31508004AC000210090022004F0C1F89DF809201AB1CF
S31508004AD009A1022004F0BAF804B908A4BDF8043004
S31508004AE0224603B0BDE830400FF2EC11022004F074
S31508004AF0A7B80000000000002E2564003F3F3F00D5
S31508004B00A8250020C0250020A82F0020E51D00208C
S31508004B1050120208AC290020FDF7A0BB25703A20E8
S31508004B2025700000537563636573730025703A201A
S31508004B3025703A2030782578000000004572726F9B
S31508004B4072000000704A6F696E20666F72202564D5
S31508004B50207365633A2030782578000044657669C5
S31508004B60636520416E6E6F756E63653A20307825F1
S31508004B7032782C307825782C307825782C307825A2
S31508004B80782C307825782C307825782C307825784C
S31508004B902C307825782C307825782C0050726F6662
S31508004BA0696C653A20257020283078253258292CDA
S31508004BB020436C75737465723A2030782532582C08
S31508004BC02025642062797465732C0000205A434CB2
S31508004BD020257020436D642049443A20256400004E
S31508004BE0436C757374657200476C6F62616C000084
S31508004BF0257074782025782C200000004552524FE5
S31508004C00523A2000257025705550203078253258A4
S31508004C1000000000454D4245525F00004E4554577E
S31508004C204F524B5F00000000547275737420436541
S31508004C306E74657220455549206861732063686102
S31508004C406E6765642E00000025702570444F574E28
S31508004C500000000025704A4F494E257000000000EC
S31508004C605F4641494C454400546865206170702090
S31508004C706672616D65776F726B2069732068616E05
S31508004C80646C696E672074686520737461636B2051
S31508004C907374617475732E00000000002570696EC8
S31508004CA067206F6E2063682025642C2070616E492A
S31508004CB064203078253258004A6F696E000000007B
S31508004CC0737461636B207665722E205B25642E25CE
S31508004CD0642E256400000000202570206275696C2A
S31508004CE0642025645D000000000000002811020809
S31508004CF01100000034110208120000003C110208DD
S31508004D001300000044110208210000004C1102089B
S31508004D102200000054110208230000005C1102085A
S31508004D20AA00000064110208FF000000000000004D
S31508004D300020704700207047B5207047B52070479F
S31508004D407047704700207047704770477047704734
S31508004D5070470020704780B543210FF2100002F01B
S31508004D6023FFFF2002BD00207047000072663463EF
S31508004D70652D737461636B2D73747562732E63008E
S31508004D80F8B504460D46DFF8CC030078002802BFC4
S31508004D90DFF8C4633069002827D1DFF8C00300783C
S31508004DA00A2818BF022D20D104F070FD0746F278B4
S31508004DB0082A18D2012D02D19019047206E006F1CC
S31508004DC0080106F1090004F0F1F93472F078401C84
S31508004DD0F070384604F060FD204609F0CFFC09F073
S31508004DE0C1FF0120F2BD04F057FD0020F2BD80B5D9
S31508004DF000F0CCFADFF86003017929B901210171C5
S31508004E00BDE8014009F0AEBF01BDDFF84C03002143
S31508004E100171704738B5DFF83C030078002839D1AE
S31508004E2004F034FD0546DFF83043E07870B1217AA6
S31508004E306170421EE270D2B204F1090104F1080061
S31508004E4004F0B4F9284604F027FD21E0284604F0CA
S31508004E5023FD2069F0B92079022802D00AF0ECF97E
S31508004E6060706078FF2810D1207998B100F08FFA29
S31508004E7000F04EFA0AF0B9FB6070FF2803D000F084
S31508004E8088FA00B9207100F044FA6078FF2801D04A
S31508004E90012032BD002032BD2DE9F04104460D4601
S31508004EA00AF090FCAC4E0020307104F0EFFC80460E
S31508004EB0306920B1404604F0EFFC002013E0A84812
S31508004EC00078052808BF0AF052F800F00EF8070027
S31508004ED008BF3461404604F0DFFC1FB105B1A047A6
S31508004EE0012000E00220BDE8F08110B504F0CEFCF8
S31508004EF09949CA789A4B1B781A430979114305D1FF
S31508004F00984909784C1EA441E40F00E0002404F0F7
S31508004F10C3FC204610BD10B59148002101708E4C87
S31508004F20FF206070216104F0BFF920708D480021D0
S31508004F3001708D48017014218C48FEF7C3FCBDE84A
S31508004F4010400AF033BC2DE9F0410446DFF814821C
S31508004F50834E874F804D6878FF2808D13878FE2819
S31508004F6017D04FF4B3710FF2142002F01DFE3878F3
S31508004F70811F01290DD805213170214604F089FBCE
S31508004F8008B900F013F8687809F006FCFF20687085
S31508004F9002E0AC7000F00AF83878042804D02879C2
S31508004FA0012804BF02202871BDE8F0810320307073
S31508004FB04046FEF775BC10B5674C617881420DD145
S31508004FC0084609F0E9FB04F061FCFF2161706849B5
S31508004FD0FE220A70BDE8104004F05EBC10BD38B56C
S31508004FE004465D4DA9780AF0EAFB28B9A978204657
S31508004FF0BDE834400BF0B0BA31BD2DE9F84304469C
S31508005000FF2C05D140F2B7110FF2701002F0CCFD5B
S31508005010584D20460BF081FE00F00C002870FF204A
S31508005020687020460BF079FE00F00C0008285FD067
S3150800503028780C285CD120460BF060FE074609F05C
S31508005040E6FD804608F44C4638460BF09EFEC05DE9
S3150800505068704FF6FF794FF4406018EA000F06D0E3
S31508005060F81C09F0D4FD484508BF46F0400608F488
S315080050704060B0F5006F06D1781D09F0C8FD4845B7
S3150800508008BF46F010064CF650006978012918D07A
S31508005090022919D0042908D0062927D0072927D09C
S315080050A008291AD07C2912D051E0B0B2B0F5484F81
S315080050B018BFB6F5084F4AD120460AF07CFB0028EF
S315080050C012E0B6F5484F0FE0B6F54C4F0CE0B1B21A
S315080050D0B1F54C4F0CD0864206E04CF6404086426D
S315080050E035D11E480078052831D101E086422ED1F7
S315080050F020460BF00DFE064620460BF00EFE00F08D
S315080051000C00082816D0B00614D54FF6DF7000EA52
S31508005110060120460BF0FEFD20460BF0E4FD064690
S3150800512020460BF0EBFD0BF030FE8119C9B2204684
S3150800513009F081FC2146281D09F0C9FD204609F021
S315080051401DFB0D480078BDE8F243FEF7AABCBDE892
S31508005150F1830000ED2400200C2500209424002073
S31508005160182E00201C2E00209C240020842F0020AE
S31508005170F724002020250020D82F00206D61632DFC
S31508005180617262697465722E630000007047B5200B
S315080051907047401CC0B27047012070470020704716
S315080051A070470020704700207047002070477047FE
S315080051B000207047012070470120704770470000A3
S315080051C010B56A4800686A4C206060604822002171
S315080051D004F02FF8206867490978017020680021D3
S315080051E001732068417320680B21817320680321AD
S315080051F0C17320684FF6FE7101824FF6FF71418236
S3150800520004F052F82168087604F04EF821684876CA
S3150800521004F04AF821688876206857490978C176E3
S3150800522020685649096881625549097880F82C1022
S31508005230206854490968016310BD10B502F0CAFB1D
S315080052404B4C6168897B884203D0084602F0BAFB5A
S3150800525050B902F0C2FB0146606890F90F0081421E
S3150800526004D002F0BEFB08B1012010BD6068008AB8
S315080052700CF0F4F96068408A0CF0F8F96068007B75
S31508005280012818BF00200CF0D3F9002010BD10B576
S315080052903D4C0020207009F06CFF20B92046BDE87F
S315080052A01040FEF7FDBAFDF77DF908B1FFF74FFD8F
S315080052B051E080B5002000F015F828B1002000F074
S315080052C005F808B1002002BDFF2002BD2848006885
S315080052D0407B02281CBF1128432801D101207047B2
S315080052E00020704722480068017B04298041C00FCE
S315080052F070470020704700207047704770470020AD
S31508005300704701207047704700207047002070479B
S3150800531070477047002070470020704780B500200E
S31508005320FFF7D4FF30B112480068007B032801D28A
S31508005330002002BDFF2002BD10B5040004D0D9210B
S315080053400FF2680002F030FC48200849096800FBA3
S31508005350041007494860BDE810406EE704484068F5
S31508005360008A704702484068408A704744220020F5
S31508005370A02C00207D2200207E2200204C22002026
S315080053805022002054220020902C00207047002034
S31508005390704700207047FFF72ABD704770470CF02A
S315080053A0F7B906F068BB0CF000BA0000656D6265D7
S315080053B0722D6D756C74692D6E6574776F726B2DB1
S315080053C0737475622E63000010B50CF0DFF90CF0EB
S315080053D037FADFF82C432078002839D110200CF052
S315080053E073FB00060BD400200CF06EFB000606D5F6
S315080053F0E078012812D104F0C3FAA8B310BD102032
S315080054000CF062FB0006F6D500200CF05DFB0006EA
S31508005410F1D5E078012818BF0F28ECD0E0780228EB
S3150800542018BF0628E7D0072818BF0828E3D0092898
S3150800543018BF0A28DFD0032818BF1028DBD0112888
S3150800544018BF1228D7D013281CBF14281528D2D065
S315080054500FF2E024214600200CF069FD21460120C8
S315080054600CF065FDB02010BD06F0E1F80CF0A8FDC3
S31508005470DFF89002007808B103F055FE0CF0AAFD9B
S315080054800CF0D3FFDFF880420FF2D420FEF7ADFA16
S315080054902070DFF87802FEF7A8FA6070FFF790FE32
S315080054A0FFF739FD0AF090F90DF0F4F80DF0F5F86C
S315080054B0FFF784FE01200BF046FFF021DFF85002CB
S315080054C0FEF700FA002010BD2DE9F0470DF028F987
S315080054D00DF09CF90DF03EFB08B90DF00EFBDFF858
S315080054E03482404609F02EFC08B90AF068FCDFF859
S315080054F02892484609F026FC08B90DF002FD0EF080
S3150800550007F80AF060F9DFF800522878FEF759FA2A
S315080055106878FEF756FA0EF035F800270024DFF80B
S31508005520FC61DFF8FCA10AE02046FFF7F1FE3068CF
S31508005530007B042828BF0127FFF7EBFE641C9AF8B6
S315080055400000E4B28442EFD3002F1EBF75480078EE
S31508005550002805D000F03EF8102808BF0EF0BAFA69
S31508005560714809F0EFFB08B90CF034FF0EF036FE6F
S3150800557004F08CF907460DF0EDFA68B1404609F0DB
S31508005580E1FB48B1484609F0DDFB28B10EF024FEE0
S3150800559010B12878FEF74BFA384604F07DF904F086
S315080055A075F904460DF0D6FA30B1404609F0CAFB43
S315080055B010B16878FEF73BFA204604F06DF9FFF75C
S315080055C0A0FE18B940F26B1100F035F80EF0AEFEE9
S315080055D0BDE8F08738B5FFF788FC28B10EF0A9FFBB
S315080055E0441EA441E40F00E001240BF0AAFF0028A2
S315080055F00CBF042500250DF0ADFA48B1454809F061
S31508005600A1FB28B1444809F09DFB08B1002000E041
S3150800561002204649097801B12021424A127802B18E
S315080056201022434B1B7803B140232C4320430843E5
S315080056301043184332BD0FF2181002F0B5BA38B548
S31508005640044636480068007B03280BD220460FF034
S3150800565011F84FF6FF75A84204BF20460FF062F80E
S31508005660A84204D12046BDE832400CF09CBD32BDAC
S3150800567070B504460D464FF6F870844201D30120F2
S3150800568070BD264E3CB93068007D800703D4284695
S315080056900FF021FCA8B9306841888C4205D1082250
S315080056A0011D284603F082FD0BE0007B03280AD281
S315080056B020460FF091FDFF2805D029460FF0AFFDD3
S315080056C008B1002070BD294620460CF0ADFD401EED
S315080056D08041C00F70BD11480068008A70470F49A5
S315080056E00968088270470D480068408A70470B4968
S315080056F009684882704709480068007870470000C2
S3150800570096070408C2240020D82F00206C650208DA
S315080057107C2F002024250020D4240020A02C002043
S3150800572048220020882400208024002044240020C9
S31508005730D02C0020537461636B2F486172647761C3
S315080057407265204D69736D617463680D0A00000007
S315080057507A69676265652D737461636B2E630000F1
S31508005760082F0020C3F700081C2E002099ED00081A
S315080057709C240020D1940008BC2E00205D46010818
S31508005780602500200BF2000844240020D963000895
S31508005790542400209564000888240020D13A010882
S315080057A0B82C0020635A0008C8240020015A0108B2
S315080057B0E0240020AD6E0008102F0020D5CA01088D
S315080057C0082E0020A74B0108102E0020BF2801082C
S315080057D0A82E00205FA70108B02E0020CD5301088F
S315080057E0F82D0020AD510108502500208938010800
S315080057F0D02C00208D510008902C00208F520008D4
S31508005800842F0020E36B01087C2F0020711002080A
S31508005810982C00209B5300080000000000000000A0
S31508005820DFF8542C1268127882420AD019B1012A7C
S3150800583003D1022805D000207047022A08BF012894
S31508005840F9D101207047DFF8481C0875704710B574
S31508005850DFF8244C2068407B112804D0B6210FF2CB
S31508005860100002F0A1F920684121417310BD000023
S315080058706173736F63696174696F6E2E63000000EC
S3150800588080B50220FFF73BFDFFF742FDDFF8000C6D
S31508005890DFF8E41B0968097B042903D3C17C491D89
S315080058A0C17404E04FF47A711830FEF704F800F07A
S315080058B005BE10B5DFF8D84B002060742078FF28A5
S315080058C003D008F069FFFF20207010BD38B50446E4
S315080058D00D4608F0EDFE007C00F00701400800F0D8
S315080058E0380000EB410000F11102DFF8F80B006800
S315080058F0205CD2B282420ADA831ADBB20F2B88BF47
S315080059000F23002000902146284608F0E2FF31BD0B
S31508005910DFF8640B0068407B33281CBF43285328F4
S3150800592001D101207047002070471FB509F095FF87
S31508005930F8B1DFF85C4B00A92078FFF7C7FF002015
S31508005940207661790DF1030001F05AF8FFF7B1FFEF
S3150800595000F010F800F076FB007DC00702D50FF0C6
S3150800596037FD08B90FF06AFF0FF031FD012001F08D
S3150800597071F91FBD10B500F065FB017B032906D33D
S3150800598040884FF6FF71884208BF032008D0FCF70D
S3150800599047FD0446FCF748FD214603F0FEF90220C0
S315080059A0FCF74AFD01F0B4F9BDE8104000F08ABDE5
S315080059B010B5DFF8DC4A2075FFF77BFF00214FF6AC
S315080059C0FF7001F014F9DFF8B00A0068417B03297B
S315080059D018BF002919D0332918BF43290FD1017BD5
S315080059E0032906D303214173207DBDE81040FFF744
S315080059F0D8BC207DFFF7D5FCBDE81040BAE72121C9
S31508005A004173BDE8104010F063B810BD80B500F0D2
S31508005A1019FB002141734FF6FE70FFF760FE4FF643
S31508005A20FF70FFF764FEDFF8680A007DBDE80240F4
S31508005A30FFF7B7BC80B5DFF8B82A0021117110B19D
S31508005A40FF2802D10120107007E0012111708000A3
S31508005A50411C89B2101DFDF735FF00F033FD00200B
S31508005A6002BDDFF88C0A002101710020E2E738B593
S31508005A7004460D46287B00280CBF4FF6FE70FFF73C
S31508005A802AFE2B4622460146012001B0BDE83040D9
S31508005A902DE9F04180460F4616461C46DFF8D859D0
S31508005AA02868407B00284BD1701EC0B2052847D213
S31508005AB0DFF8340A00780A2842D1FFF72BFC0028C1
S31508005AC03ED1FFF729FC08B1042E39D3207B0328E1
S31508005AD016D14FF6FE70874214D1012E08BF002753
S31508005AE010D0022E2CD1FFF7F6FD4FF6FC71884236
S31508005AF002D2FFF7F0FD01E010F07AF9074601E05F
S31508005B00012E1DD0B8F1000F0CD0207B03280CBF46
S31508005B1001210021012E0CBF0120002006F08AFC7D
S31508005B20002850D12146384600F026FF00284AD1E1
S31508005B30FFF7EAFBFFF7D6FB20B1FFF7EDFB08B14D
S31508005B40702040E02868407BDFF8447933281EBF80
S31508005B50532800207875304600F0F2FEDFF88C698D
S31508005B60307820B1FFF7D8FB08B90EF094FD207BFA
S31508005B70032803D12046BDE8F04126E00822214645
S31508005B8007F1080003F012FB207B032828BF00203A
S31508005B903874FFF78EFE94203875387C00280CBFC1
S31508005BA001203120296848730020B87472780120D2
S31508005BB02968897B00FA01F1032003F0B9FB10B1CB
S31508005BC0296800224A73BDE8F08110B50446002210
S31508005BD00821FCF7A2FC08B1012010BDFFF77BFDE8
S31508005BE000224FF6FF7100F0F0FE217C204600F0FF
S31508005BF007FF6269E189207C01F0BBF8DFF87808C5
S31508005C000068007B012808BF07F051F9FFF7B2FECC
S31508005C10002010BD70B582B00546DFF85C482068E4
S31508005C20407B002802BFDFF8C00800780A2801D0A8
S31508005C30702076BDFFF797F800283AD1DFF850684C
S31508005C402DB10222294606F1200003F0AFFA00A87A
S31508005C5000F099FF08B1932076BD00F019FF48BB04
S31508005C609DF8000000F06CFE2068007B012818BF34
S31508005C70022805D003280ED3002000F0C4FF50B137
S31508005C8000F01DFF2068007B032828BF0DF051FC9B
S31508005C90FFF770FE0DE02068132141730020B074F1
S31508005CA0052201202168897B00FA01F1052003F00D
S31508005CB03FFB002076BDFF22F8B505460E46144682
S31508005CC0DFF8B4070068017B012926D0407B02284B
S31508005CD018BF032821D1FCF76EFCDFF810084278BC
S31508005CE03146032003F024FB060017D13320FCF7C6
S31508005CF0A3FBFFF7DEFDDFF89877FFF7F4FCF880E3
S31508005D00002D14BF02200120387407F1080000F0A6
S31508005D1058FF0020B8747C7500E070263046F2BD46
S31508005D2038B5044608F0C4FC054620460AF0DBFFF1
S31508005D304419204608F06BFF4FF6FF5101402046F4
S31508005D40BDE8344008F069BF70B584B0FFF7C3FCFE
S31508005D500646DFF83C470B2120780AF0A3FF00210E
S31508005D6000F045FFDFF81057FCF7FCFB58B11EB1F1
S31508005D704FF6F870864206D310F03AF806462868B9
S31508005D8040888642F8D03046FFF7A9FC09212078DA
S31508005D900AF088FFFFF7ABFC2E68307B052813D185
S31508005DA000F01AFF8DF80800207C00280CBF4FF47D
S31508005DB0804244F201020120009002AB4FF4806158
S31508005DC070880DF008F80BE006208DF8080000F042
S31508005DD003FF8DF8090000F0F8FA708810F05BFAF6
S31508005DE00646FF2E08BF002015D028684188304691
S31508005DF00AF0B7FF207C02281CBF3046FFF790FF49
S31508005E0000230022114630460EF04AFB044630466F
S31508005E1008F0C2FC204604B070BD2DE9F04186B0FA
S31508005E20884616461F460C9C0D9D38B9404610F00C
S31508005E30E1FB02AA03A90EF022FC03A807218DF8AC
S31508005E4008108DF80960310A8DF80A108DF80B4094
S31508005E50019001200090042302AA0121404610F077
S31508005E601AFA0446FF2C1BD041460AF07AFF17B9E6
S31508005E702046FFF755FF0DB9204611E040460EF0C3
S31508005E8000FC18B1204609F092FC05E00023002228
S31508005E90114620460EF004FB204608F07DFCFF2044
S31508005EA006B0BDE8F0812DE9F64F83B004461E46DC
S31508005EB00E9D00274FF6FF7856B14FF0010B30467E
S31508005EC010F027FA81467078400800F0010A05E0CC
S31508005ED0BB4610460AF0ACFF8146BA46DFF898057D
S31508005EE00068007B032880F0A580691CC9B29DF86C
S31508005EF0100008F0E4FD054605F0020002909DF842
S31508005F000C0018B9280658BF45F0800500F09AF825
S31508005F10407B022804D1DFF8D8050078204301D158
S31508005F20022721E09DF80C0030B1B4F1010868EBB6
S31508005F3008084FEAD87800E0B846BBF1000F03D04E
S31508005F40301D08F064FE01E04FF6FF700121009154
S31508005F5043462A46014648460EF08AFB80464FF6D7
S31508005F60FF70804508BF0127DEB11CB94FF6FF70E8
S31508005F70804504D1301D08F04AFE014600E041463E
S31508005F80012001900097534642464846FFF745FFD1
S31508005F900298C0B250B94FF6FF7148460EF01CFD84
S31508005FA004E03A464146484609F08EFB002F41D1A7
S31508005FB00298C0B2F0B1494640460EF02EFD0E21B9
S31508005FC001FB00F7DFF8B0140968896A79184A797D
S31508005FD042F040024A710EF053FDDFF89C04006857
S31508005FE0806A381841796A064CBF41F0800101F091
S31508005FF07F014171F6B1DFF8586C9DF810003070DA
S31508006000FFF769FB0FF2340C690648BF0CF1010C67
S31508006010BAF1000F18BF0CF1020C02D10CB90CF141
S31508006020040C4B46424601469CF8000010F002FB61
S31508006030FF20307005B0BDE8F08F000003070004AC
S3150800604001050000DFF83004006870472DE9FE4FAF
S3150800605004468846164640460AF050FE8146DFF852
S315080060603054297C01B101218DF80510DFF8087438
S315080060703868007B05280CBF012000208DF8040035
S3150800608044B1484610F045F98246484610F034F9BE
S31508006090834605E040460AF0CBFE8246DFF818BC88
S315080060A00020009004233246414602A808F011FC5D
S315080060B00DF1090008F0ABFD80469DF80B60B4B100
S315080060C00822DFF8F41B584603F0BAF800285FD117
S315080060D03868407B022808BF002E08D14046FFF7E3
S315080060E0FEFA0FF0ABFB9920FFF75BF950E0FCF7DF
S315080060F039FA00284CD09DF805009DF8041008438D
S3150800610001D014B944E0002C42D11EB19420FFF707
S315080061104FFC3DE05146386840880EF07EFC0EF094
S31508006120AFFC524638684188404600F04EFC386855
S31508006130417B012916BF31291121432141730220D0
S31508006140FFF7DCF840F6B83105F11800FDF7B3FBA8
S315080061500DF0EFF90020E8743868C17E21B905F121
S315080061601800FDF79DFB11E034B199F80110890775
S3150800617002D5FFF7DAFB09E0007B042806D30521E0
S3150800618005F11800FDF797FB0620E874AD20287581
S31508006190FFF77DF8BDE8F78F2DE9FE4F04460AF0B4
S315080061A0ADFD05460AF0F1FD064606EB0509204653
S315080061B00AF099FD3518EDB220460AF039FE8046F8
S315080061C099F80070FCF7EEF9002818BF072F14D1CC
S315080061D005F1030A4FF6FF7BA74E012F0ED0022FBB
S315080061E014D0042F00F0C180062F15D0072F66D0D3
S315080061F0082F22D07C2F00F08180E0E00095002354
S31508006200224600210846FFF74EFED8E02A462146D8
S315080062100020FFF71BFFD2E040460EF02BFA584548
S3150800622003D00146404609F000FA3068407B022850
S3150800623002D140460BF0B8FAC1E0691C00F0C1F87B
S3150800624007465FFA8AF100F0BDF88246A91D00F0FC
S31508006250B8F805465D45EFD00DF06BF93068407B20
S31508006260132808D100F02BFC20460AF0E1FD014670
S3150800627050460EF0D2FB3068407B022818BF132820
S315080062801CD12846FFF72BFA3846FFF730FA0021CB
S31508006290002000F0B5FB4146504600F0A8FC7C48BB
S315080062A0C078DFF8181A087000F00CF93068417BDE
S315080062B0132903D12321417303F0B5F87FE0306831
S315080062C0407B022802BF894C2079002877D102F04A
S315080062D0EBFF0546012021568840C0EB00181FFA3F
S315080062E088F60020FFF70AF895FBF6F006FB105033
S315080062F0411C89B2201DFDF7DEFA60E099F801001D
S31508006300652804BF99F802006D2858D175480068B9
S31508006310205C5FFA8AF5854251D20822414601A8D7
S3150800632002F044FF00AB0022294620460FF0A2FEE9
S31508006330002844D19DF80000FF2840D0DFF8805996
S3150800634001202870DFF808693470FEF7DCFF9DF835
S31508006350001001A80BF01DFAFEF7DBFFFF203070D6
S31508006360002028709DF8000027E020460AF07FFDEF
S315080063700546DFF850090078FE2809D320460AF0BA
S31508006380C7FC000B00F0010128460BF007FA16E0DF
S315080063900FF678100088ADF8080000F016F82846C1
S315080063A00FF079FF0446FF2C09D029460AF0D9FCDC
S315080063B000212046FEF7E4FC204608F0EDF9BDE88A
S315080063C0F78FC9B2204608F02CBC00200190009037
S315080063D0022302AA0121704738B50220FEF78FFF73
S315080063E0FEF796FF2A4C00202076234D09F035FA51
S315080063F028B12868C07E10B9FFF797FA3AE009F085
S315080064002CFA10B9FCF7AEF848B1E07C38B100F0C8
S3150800641035F8E07C401EE074FEF7E9FC2AE02868BF
S31508006420407B132809D0FCF79DF830B92868407BD3
S3150800643011281CBF4328412803D1207DFFF7B8FA4D
S3150800644018E0022818BF032803D0002818BF2128FF
S3150800645010D10024DFF8705808E02046FEF758FFF0
S31508006460002000F0F7FBFEF754FF641C2878E4B21E
S315080064708442F2D35FE30000A02C0020C82104F177
S315080064801800FDF718BADFF844080021C1747047F0
S315080064902C24002080B50020FEF731FFFEF738FFD8
S315080064A0124800210171DFF894040068417B022933
S315080064B004D1007B032838BF09F025F9BDE801405F
S315080064C0FEF727BF80B5FEF729FFFF2804D0084846
S315080064D0007810B1012000E00020DFF8F4170870FA
S315080064E001BD000010220020942400205024002022
S315080064F0B42C00202DE9F04F8BB00446DFF8D40702
S315080065000068255C204608F0D3F80746B81D08F051
S315080065107EFB064607F1090008F079FB834607F17A
S315080065200B0008F074FBADF8020007F10D0008F047
S315080065306EFB80464FEAD039FCF734F818B120468E
S31508006540FEF704FCE4E001A92046FFF7BFF99DF831
S315080065500600C0F3C30A9DF8050000F00F008DF889
S315080065600000202DACBF9DF812700027DFF8CC0381
S315080065700068407B022811D1FFF7B5F883450DD195
S3150800658009A800F01EFB1C2D06DB08220DF10701E9
S3150800659009A802F055FE08B100F017FDB6F5004F40
S315080065A002BF28F4404040F6FF718842CAD11C2D2C
S315080065B0C8DB002208210DF10700FBF7AEFF002813
S315080065C02FD1DFF814070078012826D1DFF80C0749
S315080065D000788DF81600ADF814B08DF817909DF870
S315080065E000008DF820008DF8217008220DF10701B2
S315080065F006A802F0DBFDFFF725FD407BDFF85056C5
S3150800660001281CBF33282C70FEF77DFE05A805F06F
S3150800661015FBFF202870FEF77CFEDFF8B056A87C35
S31508006620002875D1FBF79EFF002871D001206874F9
S315080066300022082105F10800FBF76FFF10B1E88872
S31508006640834508D008220DF1070105F1080002F07C
S31508006650F7FD00285CD1B9F1000F06D1B7480068EC
S31508006660407B312818BF332852D101219DF80000FC
S31508006670FFF7D6F800284BD09DF80400002802BF83
S315080066809DF805000009022842D1AC480068017B44
S315080066909DF80620022902D1500709D438E01206CF
S315080066A006D405291EBF4088BDF8021088422FD19E
S315080066B0DFF82C66DFF82CB62878FF2812D0687920
S315080066C087420BD195F902009BF90010884209DB35
S315080066D01ED168783178884204D319E0381AC0B2D6
S315080066E0812815D2FFF7E5F82C70204608F046F801
S315080066F0307868709BF80000A87050460F2834BFA1
S315080067000AF101000F20E8709DF8000028716F71EA
S315080067100BB0BDE8F08F2DE9FF41064688461746BF
S31508006720DFF8A8450120A074FEF738FD00280BD134
S31508006730012E18BF002E08D1FEF7E5FD3946404662
S3150800674005F091FAFEF7E5FD9CE0FBF72BFF28B173
S315080067503A4641463046FEF7F8FA93E0774D286800
S31508006760407B23280BD1FBF75BFE0446FBF75CFE58
S31508006770214602F012FB0220FBF75EFE82E0002FA4
S31508006780FCD121281CBF0428532802D10FF0A0F9F8
S3150800679078E0FBF7E7FE002856D02678FF2E05D1CD
S315080067A0607C00280CBFAB20942060E02868007B42
S315080067B003288941C943C90F2079FFF731F808B979
S315080067C0982054E00AF08EFE052130460AF085FA34
S315080067D029688873FEF75BFD207C40BB2868007B30
S315080067E0052824D000F0F8F98046092130460AF039
S315080067F059FA07460B2130460AF054FA42463946FA
S3150800680008F047FFB8B9942020750220FEF776FDF8
S315080068102868417B012906D0312918BF33290CD1B4
S31508006820007B042809D3FFF729FE03200AE0FFF7B7
S315080068308BFA0028E7D1942019E04FF41671FFF778
S315080068401EFE0020E0741DE02868407B132814D142
S3150800685000F016F9BDF80000FEF749FF00F02FF921
S315080068602868017B032905D3332141739620FFF756
S315080068709FF807E0FFF77EF804E0022E04BF4046C3
S315080068800CF06EFF4FF400600DF0EEFE10B90DF03F
S3150800689058FE08B108F066FABDE8FF811FB5044640
S315080068A000208DF80000FFF7CDFB007840F02000AF
S315080068B08DF80100FBF776FE18B12046FEF749FA77
S315080068C03AE00DF1030000F07CF90322FF210DF1F7
S315080068D00B0002F0AEFC00F036FA8DF80E00DFF879
S315080068E0E4030078FE2828BF0020DFF8FC130978A7
S315080068F0091ADFF8F8231278DFF8F4331B789B1AA5
S315080069009042B4BF101A0020DFF8B0231278D200E4
S3150800691042F00402DBB2C0B2C018C9B28842B8BF9E
S3150800692042F080028DF802200F2200A9204608F0C6
S3150800693040F8401E8041C00F04B010BDA02C0020B6
S3150800694038B50446DFF8AC532868017BA14203D06A
S3150800695004732046FEF722FD1CB12868007B042834
S3150800696005D3FEF7A6FCFF2808BF012000D00020AB
S31508006970BDE832400AF0FABD38B504460D46E87A55
S315080069800B38C0B2102801D38A2032BD95F90A0007
S31508006990FBF7F4FD08B18B2032BDD6480168EA7AC8
S315080069A08A730068A97AC1732046FEF798FE4FF6E7
S315080069B0FE7084420CBF4FF6FF702889FEF797FEDB
S315080069C0C2482989C180002032BD38B50C46154613
S315080069D0FEF785FE0FF0E0F92946204600F007F994
S315080069E0BA480178FF2918BFC07806D1C14800689F
S315080069F0007B01280CBF00200120B049087031BD7A
S31508006A007FB504460D4600F03BF8BA4E94B1BA4A33
S31508006A100021284600F0ADF9306801788DF8041099
S31508006A20007B8DF805000822214602A802F0BEFB6D
S31508006A300EF003FA3068817B8DF80310C07B8DF861
S31508006A400200FEF750FEADF80000FEF744FEADF872
S31508006A50060000F017F87FBD1FB5044600F010F8D1
S31508006A601CB100208DF8050007E0FEF734FEADF8EE
S31508006A700600FEF738FEADF8000000F003F81FBD6B
S31508006A8000A833E01023072200A9002006F082BAE6
S31508006A9000B58BB0FFF7F4FFBDF80000ADF818009D
S31508006AA09DF803008DF81B009DF802008DF81A006A
S31508006AB004A9BDF80600FFF75FFF0BB000BD1FB5C0
S31508006AC0012000F0A0F804460EF0C2F9FFF7D8FF3F
S31508006AD01CB900224FF6FF7103E0FFF7B3FA021D57
S31508006AE04188BDF80600FFF770FF1FBD1023072277
S31508006AF00146012006F04EBA38B50620FEF7FFFB20
S31508006B000446FEF705FC7B4D28687C4909788173A5
S31508006B10FEF7FCFBA04208BFFEF78FFB0021002012
S31508006B20FFF76EFF9B20FEF73CFC28680021A0F8C3
S31508006B304410A0F84610BDE83140FEF7EABB80B520
S31508006B40A0F10B01C9B2102901D38A2002BD6949F7
S31508006B500968497B022918BF032901D0702002BDA4
S31508006B60664908700620FEF7C9FB00216448FEF74F
S31508006B7093F920B1012808BFFFF7BEFF01E0A12065
S31508006B8002BD002002BD1FB50446FBF70BFD18B178
S31508006B902046FEF7D3F812E000A8FFF7A7FF9DF8F6
S31508006BA0050040B1062806D25249096809789DF8B9
S31508006BB00420914201D0932001E02070002004B007
S31508006BC010BD1FB5044600A8FFF790FF082202A9CA
S31508006BD0204602F0EBFA1FBD4A48007800B1402073
S31508006BE044490968097B484A895C08437047414A11
S31508006BF01368588019B90822181D02F01ABB082212
S31508006C00181D02F0D3BA10B584B004462F4890F880
S31508006C102000C00711D50A230A2200A9012006F080
S31508006C20B9F9BDF808004FF6FF71884205D0082269
S31508006C30FF2100A8FBF771FC08B1002006E024B18B
S31508006C4000A9BDF80800FFF7D2FF012004B010BD67
S31508006C507824002070B584B004461C4D95F82000B1
S31508006C60C0070CD5234E306841884FF6FF72914213
S31508006C7007D100220821001DFBF74FFC08B10020B0
S31508006C8017E044B10220FEF739FB782105F1180018
S31508006C90FCF718FE0CE030684188ADF808100822A9
S31508006CA0011D00A802F082FA0A230A22FFF7ECFE69
S31508006CB0012004B070BD0000C02C0020E92F002080
S31508006CC0A82C0020BD2F0020482200202C240020BC
S31508006CD0EA2F00201022002094240020E12F002013
S31508006CE0DF2F0020E02F00207F220020D62F002053
S31508006CF0D52F0020A02C002000F8FF07D42F002055
S31508006D00F96A0008986502086465020804600000CC
S31508006D10C848002101714FF6FF718181704730B56F
S31508006D2083B004460D460823092200A9012006F06F
S31508006D3031F914B19DF8060020700DB1009828604D
S31508006D40BDF804003EBD80B5002100A8FFF7E7FFA7
S31508006D509DF8000002BD10B582B0044600A90020C7
S31508006D60FFF7DDFF009A0146204600F002F82046AC
S31508006D7016BD00B583B08DF80600ADF80410009274
S31508006D800823092200A9002006F004F907BD2DE909
S31508006D90F04385B081460FF09DFA0646A64800687E
S31508006DA019F80050002000900A233246494602A8E6
S31508006DB007F08FFD0A369DF8080009280CBF012741
S31508006DC000279DF80900E021084266D100A8FFF7D0
S31508006DD0F8FE08220DF10A0100A802F031FA00288F
S31508006DE05BD1002F4CD000F011F9002855D0914FF7
S31508006DF0B8894FF6FF7840451CBF4FF6FE718842AA
S31508006E004BD13878001D38708C490978491E89009D
S31508006E10C0B2814241DA0020387002F045FAB881E2
S31508006E20344607E02146484607F0FBFEB989884202
S31508006E30F3D0A41CE4B2681E8442F3DBB8890028A8
S31508006E4018BF4045E9D0FEF74EFCB9898142E4D027
S31508006E50FFF779FF401CC0B2FFF77DFF0146BA89EC
S31508006E600A2000F04BF840B14FF47A71381DFCF750
S31508006E7022FD0A20FEF742FA0FE0A7F80C800CE084
S31508006E80F1B2484607F01BFEFFF765FF711CC9B251
S31508006E90484607F0C6FE00F07AF805B0BDE8F0836C
S31508006EA06448017809B1491E0170704738B5614CCC
S31508006EB0002020710A20FEF722FAFEF729FA604818
S31508006EC00068407B022818BF032813D1A0894FF613
S31508006ED0FF754FF6FE7188420CBFA581A84209D0FE
S31508006EE0FEF705FCA58100210020FFF789FD9A2001
S31508006EF0FEF757FABDE83140FEF70BBA2DE9F04721
S31508006F0086B005460C4691460026092D0CBF01277A
S31508006F10002700210846FFF702FF80468DF8085033
S31508006F2002AD012068700DF10A00FFF74AFE0DF167
S31508006F30120A17B9AC720DF1130A4946504607F002
S31508006F406CFE0AF102000FB94FF6FF78019600961B
S31508006F5002A9431ADBB202AA642140460FF09BF944
S31508006F600446FF2C0FD03FB100F050F820B1204660
S31508006F70FFF70DFF012603E0204608F07BFC0646D6
S31508006F80204607F009FC304606B0BDE8F08738B55C
S31508006F9004464FF6FF75AC4216D0FEF7A4FB8442B2
S31508006FA012D024488189A9421CBF4FF6FE7291422D
S31508006FB00AD184814FF47A71001DFCF77CFC0A2003
S31508006FC0BDE83240FEF79AB931BD1D480068007B1E
S31508006FD0042800D3704738B5164CA0894FF6FF71C0
S31508006FE0884212D1FEF77FFB0546F021201DFCF7EB
S31508006FF069FC0A20FEF782F94FF6FE70A0812A4640
S3150800700000210920BDE8384078E731BD10B50C48A5
S315080070100068007B04280AD2FEF75DFB04460021BF
S315080070200020FFF77CFE844201D1012010BD00201C
S3150800703010BD0000DC24002010220020872200203A
S31508007040A02C002010B5DFF844451020206302F07C
S315080070501DFCDFF83C150A6842F001020A6002F0DE
S315080070601BFCDFF83005606020606168893161606B
S31508007070012121638A30E060A060E0688930E06021
S3150800708002202063DFF810054FF6FF71016010BD7E
S31508007090DFF8080545F26401C1601E2141625021EE
S315080070A00162C821C1618165F021C16545F690017B
S315080070B04166882181660621C16644F2066101603F
S315080070C04FF6FF714160DFF8D804007838B1DFF871
S315080070D0D40448F2607101604FF4C1514160DFF891
S315080070E0C804016841F004010160DFF8C00400210A
S315080070F0417070472DE9F84F0446DFF8B4148A2228
S3150800710002FB0012121D0092521C5378127802EBF1
S3150800711003221FFA82FB0BF440424FF000094FF09E
S31508007120010A0BF440630425B3F5006F08BF082570
S3150800713003D0B3F5406F08BF0E25130004D05FEAED
S315080071404B635CBFAB1CDDB2DFF868341B784B7051
S315080071505FEA8B6374D5DFF86064736E1B066FD5C0
S315080071604718009828184FF40068B2F5404F07D121
S3150800717008F01FFB5FEA000927D005F108000EE0BA
S31508007180B2F5004F21D140780099695C01EB0020E7
S3150800719080B20FF02FFAFF280CD1CA46A81CC0B23D
S315080071A041080BF00702032A0FD1002C14BF72689E
S315080071B0326815E0DFF80414096831F810004FF456
S315080071C0FE61084218BFD146E8D10020B870F06DBC
S315080071D0C00635D5B06C002C08BF4FF4806828E08F
S315080071E08A42F2D3002C14BF726832684B1C9A424A
S315080071F0F8D30099405C0428E7D1BAF1000F02D110
S315080072000020B87004E00020B870B9F1000FDED095
S31508007210F06DC0060AD4B06C0CB94FF4806810EA59
S31508007220080F03D0706C40F0010070640120B8703C
S3150800723006E010EA080F03D0706C4008400070643E
S31508007240BDE8F18F2DE9FC4E0446DFF864B38A20C9
S3150800725000FB04B0071DDFF86053002C0CBF28683C
S3150800726068684600C0B2052805D24FF4F6710FF2D9
S31508007270783000F099FC5FFA86F909EB0700A0F16F
S3150800728008063078717801EB00201FFA80FA9BF81F
S3150800729001003070FEF73AF87070C94EF06B20F4B2
S315080072A08050F063686ED4B9306840051CD41AF46F
S315080072B0E45F0FD10AF0DFF910B15FEA4A4009D559
S315080072C03878802806D204EB0B008278494638467F
S315080072D00BF0F6FA002C0CBF0120022020E0012C4E
S315080072E0E5D130680005E2D5B648017881B10021BC
S315080072F00170B54801681AF4E45F02D00022402004
S3150800730004E07878000900F001028F200FF0EDFB09
S31508007310002C0CBF4FF480604FF400603060D9E752
S315080073202861BDE8F38E2DE9F84F9B4C2068216C47
S3150800733001EA0005A04EDFF894A2DFF88882DFF89C
S315080073407092A34F1AE040B14878C00605D40022CF
S315080073509D4801688F200FF0C8FB280605D50FF059
S315080073600FFC25F0800580202060E80506D50FF083
S3150800737007FC25F480754FF480702060002D68D0D6
S31508007380280706D50020FFF7B5FE25F008050820D2
S315080073902060E80606D50120FFF7ACFE25F01005AB
S315080073A01020206005F06000602803D1B06CC0058D
S315080073B00AD401E0A80605D525F02005202020607E
S315080073C0002006E0680606D525F040054020206026
S315080073D00120FFF737FFE80410D525F480554FF450
S315080073E080502060D7F800B008203860786800051B
S315080073F048BF09F08BFD1FFA8BF03860E807ACD55B
S315080074006D086D000120206099F800000028A4D0BE
S315080074100AF0A9F80128A0D198F8000000289CD005
S315080074209AF80000042898D1F068400800F0010096
S315080074308A2101FB0091091D002814BF7268326871
S3150800744012B92268D204F7D5002814BF70683068CC
S3150800745079E700202060BDE8F18F5E480068704734
S31508007460F0B589B004460D46002103200FF0FCFB59
S3150800747004AE1BE000270FF012FC26F817000FF0E9
S315080074800EFC00A921F817007F1C082FF3DB04A8BF
S315080074900FF0BEFC00202080218836F810205140CD
S315080074A02180401C0828F7DB6D1EA41CEDB2002DB8
S315080074B0E0D10FF030FC012009B0F0BD0321022015
S315080074C00FF0D2BBF8B529244FF6FF750FF0E7FB8E
S315080074D0281A90FBF4F000F13A063F4F3878B8B90D
S315080074E0032103200FF0C0FB02237F223B480188BB
S315080074F000A80FF09FFC0FF0D2FBBDF80010401853
S3150800750080B2281A90FBF4F0253078700120387084
S315080075100FF001FC7878301A40B2F2BD80B503212D
S3150800752002200FF0A1FBBDE80140CBE770B50024AF
S315080075302B48007890B9FFF7F1FF05461B4E707887
S3150800754048B13078401B40B20FF0EEFC0B2805DB43
