S01700005A30325F476174657761795F333538372E733337BA
S31508004000F0F000205DF00108D9EF0108DBEF0108A8
S31508004010A70A080100410008040E03AC00537A0100
S315080040200000000000000000000000000000000082
S315080040300000000000000000000000000000000072
S315080040400000000000000000FFFFFFFFFFFFFFFF6A
S31508004050FFFFFFFF00E00708000000000000000067
S31508004060FFFFFFFFFFFFFFFFFFFFFFFFFFFFFFFF52
S31508004070FFFFFFFFFFFFFFFFFFFFFFFFFFFFFFFF42
S31508004080F0FF002000000000ECFF0020ECFF0020FD
S31508004090F0F00020E8FF010814F3010890E700207B
S311080040A060140020000008080000012041
S31508004100F0F000205DF00108D9EF0108DBEF0108A7
S31508004110DFEF0108DDEF0108E1EF010858F00108BB
S3150800412058F0010858F0010858F0010858F001083D
S31508004130E3EF010858F00108C5F20108FB8A0108F7
S3150800414041EF010858F0010831B7010858F0010895
S31508004150137A0108315E000858F0010858F0010882
S3150800416061B00108310F0108E5D6000815C8010835
S3150800417058F001085FC90108A7C9010858F00108E5
S315080041807DEC000858F0010858F0010859F00108BC
S315080041904048704710B54049A52281F888205A231F
S315080041A001F1880253709070002281F8092106E017
S315080041B05418521C94F88B40E31881F80931D2B28E
S315080041C091F809318242F3D34218883182F88B304C
S315080041D0021DBDE81040D2B2012000F0F9B92E49FF
S315080041E081F88B000120D5E770B52B4D82B00C46BF
S315080041F005F1800605E00320FFF7F1FF4FF4FA709A
S31508004200706000A9204600F05FF9002840D195F8B3
S3150800421080009DF8001010B9A529EFD103E0012808
S315080042200FD15A290AD195F880009DF800104155FA
S3150800423095F88000401C85F88000DFE7A529DDD1C8
S31508004240F9E7022803D171700020B070EBE77178A6
S31508004250B278CB1C834215D19DF80000824209D161
S3150800426001290AD00020FFF7BAFF7178E81C01F08F
S31508004270ECFB02E00220FFF7B2FF002085F8800081
S315080042807060BBE78028B6DA9DF800008018DCE786
S31508004290002076BDCBF5002040F5002070B513460A
S315080042A0101802E0A4192C705B1EDBB24BB101F0AA
S315080042B00F060909451E28460A2EB4BF302437249E
S315080042C0F0E7101870BD2DE9F04F87B0804601A8B9
S315080042D0894614469B4601AD00278DF800001BE071
S315080042E05BF804AB04224FEA1A412846FFF7D6FFCB
S315080042F004221FFA8AF1FFF7D1FF054605A8854271
S3150800430009D39DF800002E1A00F096F8002831D13E
S31508004310F719FFB201AD641C9DF800002E1A20782B
S31508004320002807D0252802D005F8010BE6E714F87F
S31508004330010F002876D02528F6D0322818BF342851
S315080043405FD0582857D063280CD0642818BF6C282B
S3150800435025D0702818BF732807D075281FD078284D
S3150800436049D0CBE75BF8040BDEE75BF804AB00F05B
S3150800437063F800285CD1F719FFB201AD002600E00A
S31508004380761CF6B216F80A000028F9D132465146CC
S315080043904846C04700284BD1F719FFB2AEE75BF88D
S315080043A0040B0021002803D52D2129704042012144
S315080043B0002300224FF0000C02E0801B0CF1010CD8
S315080043C00FF22C3656F82260B042F6D243EA0C06B3
S315080043D0F6B2002E05D0C9B20CF130034B55491C74
S315080043E00123521C092AE5DBC9B230304855481C5E
S315080043F0C0B2451982E75BF8041B0222C9B22846F7
S3150800440079E714F8010F78281CBF5828641EF1D1E3
S3150800441014F8010C32287FF463AF5BF8041B0422FE
S3150800442089B2ECE700F008F810B9F019C0B200E05C
S31508004430002007B0BDE8F08FF2B201A94846404710
S315080044402DE9FC4E0400894692469B4618BF022C6D
S315080044502CD0032C18BF042C28D0042C26DA0FF2F3
S315080044607820205C012821D1DFF8585205EB840614
S31508004470F76801F0BBFB0021B9803980798001F02B
S31508004480BBFBF66901F0B2FB0021B1803180718077
S31508004490615501F0B1FB01F0CAFC5B46524649463C
S315080044A0204602B0BDE8F04E01F0B8BB2120BDE8B9
S315080044B0F68E10B5044601F09CFCDFF8080200EB06
S315080044C08400C069808810BD2DE9F04188460446FD
S315080044D0DFF8F05105EB8401CE690FF2FC11615C3F
S315080044E009B9012034E0615D05EB440761B1B9887B
S315080044F07288914208D101F079FB665D0021615509
S3150800450001F07AFB304623E001F073FCB088F0B185
S3150800451001F06CFB71880FF2CC128919897988F839
S3150800452000104FF6FF78718832F8142000F01EF854
S315080045307180B1884144B18001F05EFB605D20B1B5
S31508004540B888404504BF3088B880002000E026209F
S31508004550BDE8F08180880FF2781333F81110891AB4
S31508004560884201DA0120704700207047491C91FBF8
S31508004570F2F302FB1311704751A111E010B50FF2C7
S315080045805813C35C0024012B08D113460A4601467A
S315080045900FF23D00FFF797FE00B90124204610BD33
S315080045A00CB480B502AAFFF7E9FF02BC5DF80CFB64
S315080045B00CB438B5044604AAFFF7E0FF05462046C2
S315080045C0FFF7DAFF284632BC5DF80CFB0000000056
S315080045D02DE9F84F804647460FF2FC00385C8B46BB
S315080045E01646012839D137480FF200190FF2EC0A9E
S315080045F000EB87000025C46814E001F0F7FAA188EB
S3150800460001B9012521881BF8012B09198A7121880E
S315080046103AF81720FFF7AAFF2180A188491CA18034
S3150800462001F0EAFA3046461EC0B288B10022414679
S315080046302046FFF78FFF0028DFD11DB1404601F065
S315080046402AFB002517F809000028EFD1222005E0EB
S31508004650404601F020FB002000E00120BDE8F28F73
S3150800466080B50FF27402825C012A06D1154A02EB64
S315080046708001C9688A88002AFCD101F045FB002020
S3150800468002BD0CB438B504460D4601F01DFB04AB5B
S315080046902A4621460C48FFF716FE0FF23C01615CDC
S315080046A0012908D1074901EB8400C068808810B148
S315080046B0204601F0F0FA32BC00205DF80CFB000041
S315080046C00D0A000040F30020D95C0008704700007E
S315080046D000008000000000000001000000008000CB
S315080046E0000000000000800000000000000100003B
S315080046F000CA9A3B00E1F5058096980040420F00F3
S31508004700A086010010270000E803000064000000EE
S315080047100A000000A0F130030A2B38BF30210AD363
S31508004720A0F16103062B38BF572104D3A0F141023B
S31508004730062A38BF3721401AC0B27047F8B5044672
S315080047400D46002614F81600FFF7E4FF074604EBAB
S3150800475046004078FFF7DEFF40EA0710761C05F8AA
S31508004760010B082EEEDBF1BD01290CBF000900F094
S315080047700F000A28B8BF303004DBA0F10A01062969
S3150800478001D25730C0B2704770B504460D4616467A
S315080047900CE028780121FFF7E7FF04F8010B002158
S315080047A015F8010BFFF7E0FF04F8010B3046461E2B
S315080047B0C0B20028EDD1207004F8010F70BD38B5DD
S315080047C004460D4614F8010B01F0A5FB2846451EC4
S315080047D0C0B20028F6D131BD0021DFF8482C0B5CA9
S315080047E08B54491C1029FADB00201082704738B513
S315080047F004460121012001F059FBDFF82C0CDFF8F3
S315080048002C1C028820464FF6FC75DFF8243CA8428B
S315080048101FBF4FF6FD75A8424FF6FF75A84204D193
S3150800482001B0BDE8304001F039BC009300201346C2
S315080048300A46214601F05DFC32BD2DE9F04100F043
S3150800484070F815461E4600F043FC6061078000F0CC
S315080048500FF821F80080891C21702A0018BF012250
S3150800486000F0D8F8491C2170C9B20E52881C52E0D3
S315080048702178891C2170C9B270472DE9F843814611
S31508004880DFF8B45C089C0020884616461F46287048
S31508004890FFF77EFC6861A0F8009000F048F818BFA2
S315080048A0012200F04EF80F52891C2970C9B20C5229
S315080048B0881C2870C0B2BDE8F243FFF76BBC2DE92F
S315080048C0F04100F02EF816461D4600F001FC606126
S315080048D007802178891CC9B221F80080891C32001A
S315080048E018BF0122C9B200230A54491CC9B24A1C7E
S315080048F00E540699D2B25E5C16545B1C561C3246A0
S31508004900122BF7DB2270F6B2B11C35522170012248
S31508004910C9B20A54481C2070C0B2BDE8F041FFF77E
S3150800492039BC0746DFF8104C0020884670472978BE
S31508004930891C2970C9B221F80080891C29703200A7
S315080049407047C9B20A54491C2970C9B20E54491C89
S315080049502970C9B2704738B500F07FFF606103213E
S315080049600180822200F05DF818BF012200F00EF8DF
S3150800497001F011FE217862698854481C207001F004
S31508004980C6FF217862698852881C3DE0C9B20A547C
S31508004990491C2170C9B20D54481C2070704710B5C7
S315080049A0046802F0C3F8022803D1BDE8104070205D
S315080049B0D1E72046BDE81040052102F051BA38B5C6
S315080049C002F0DBFB00F049FF6061042100F044FEC1
S315080049D021702A0018BF012213E038B5007801219A
S315080049E081400023FE224FF6FF7002F053FF00F0CD
S315080049F034FF606104210180022200F012F818BF1A
S31508004A00012200F007F8481C2070C0B2BDE8324009
S31508004A10FFF7C0BBC9B20A54491C2170C9B20D546C
S31508004A2070472178891C2170C9B20A52891C2170E5
S31508004A302A00704770B505460121287801F062FB07
S31508004A40DFF8F44A064600F00AFF6061042100F028
S31508004A5047FE320018BF012200F040FC0E54491CE4
S31508004A602170C9B22A780A54481C00F09DBE70B558
S31508004A7000F040FE6061042100F0F9FD002200F01C
S31508004A800EF80822C9B28B1C0E5223702946DBB2D7
S31508004A901818FFF779FE2078123000F085BEC9B2E3
S31508004AA00A54491C2170C9B20A54491C217070471E
S31508004AB010B5044682B00022002100F07DFD00F00A
S31508004AC00AFB38B14FF6FF710091024623460521CD
S31508004AD000F097FC13BD3EB500F0F9FC01A920468D
S31508004AE0FFF72CFE658A0023402201A9284603F019
S31508004AF025F828B100F0E7FC83210320FFF7DFFE45
S31508004B0037BD10B5DFF81C49607D86B0012817D17E
S31508004B100020607500F078FC04F12402032001905F
S31508004B20207D31F8100000902121208C02F0CCFF66
S31508004B30020005D0238C4FF6FF70009000F060FC51
S31508004B4006B010BD10B5DFF8DC4830F8021B21842A
S31508004B5004F12401FFF7F2FD012060754FF4FA71A4
S31508004B600020207504F11800BDE8104003F01BB8BA
S31508004B7030B528B90620088000201080102036E0BD
S31508004B80012803D10820088000201CE04FF4407457
S31508004B90022802D10C80072027E040F2027503287C
S31508004BA005D10D804FF4806010802A201FE004286C
S31508004BB004D10D8000201080252018E0092805D191
S31508004BC00120088021201080202010E00C2802D126
S31508004BD00C80032009E00D2802D10C80042004E093
S31508004BE00E2805D103200880002010802120187087
S31508004BF030BD062802D161BB00207047082802D1C3
S31508004C0039BB01207047B0F5407F03D1072913D17E
S31508004C100220704740F20273984204D1B1F5806FC2
S31508004C2007D10320704701280AD1212911D109206B
S31508004C30704771B904207047032907D10C207047C3
S31508004C40032808BF002904D10E207047042908BF8D
S31508004C500D20704770B50446084682B0067815469A
S31508004C60022103F00FF90146042DB8BF002620469D
S31508004C70FFF7BFFF00903246DFF8EC0B0068C388E9
S31508004C8000F005F8002003F0EBFA012076BD0721B5
S31508004C900420F2E53EB5044601AB65880DF106022F
S31508004CA002A92846FFF764FFBDF80810062210205F
S31508004CB001F00DF9002001F02EF9BDF8060001F00B
S31508004CC033F99DF8040001F026F9A08801F02CF9C3
S31508004CD0E08801F029F99DF8040003F0BCFB40B90F
S31508004CE09DF8040003F0ECFB014604F10800FFF709
S31508004CF066FD00F0F0F9020003D000952346FFF7A1
S31508004D00C6FF37BD10B570B9042908BF4FF4004275
S31508004D1061D0052908BF48F201025CD003295AD19F
S31508004D2048F2030257E0192804D1022953D148F260
S31508004D30020250E0062803D100294CD100224AE09D
S31508004D40082803D1002946D1012244E0B0F5407F66
S31508004D500BD1072908BF02223DD0032908BF0C2220
S31508004D6039D0042937D10D2235E040F20274A04229
S31508004D7007D1B1F5806F08BF03222CD059BB042296
S31508004D8029E040F60534A04210D140F21D108142B8
S31508004D9008BF05221FD0B1F58E7F08BF06221AD09C
S31508004DA040F21B10814216D1072214E0012803D1D4
S31508004DB0212910D109220EE0B0F5A06F07D10129EB
S31508004DC008BF0A2207D0022905D10B2203E00328CF
S31508004DD004BF00290E2290B210BD2DE9F047814686
S31508004DE0DFF8546700200C4690463070FFF7D0F97C
S31508004DF070610421018008223178891C3170C9B29A
S31508004E000A52881C307042460021204603F03AF8C0
S31508004E1001463078A578421C32702B0018BF012352
S31508004E207769C355D2B2501CD5553070C0B2DFF879
S31508004E30382A1268D288C25300F1020A86F800A0FE
S31508004E404846FFF75FFF5FFA8AF1C853881C30703F
S31508004E50EDB9E578284603F098FB20B1201D03F04C
S31508004E601DF8401C02E0284603F02AFBC0B2011DCB
S31508004E7088450CDB002107E00B19327875691B7928
S31508004E805355521C3270491CC9B28142F4DB00F0FA
S31508004E900FF804F07FF800F00BF804F07DF830788E
S31508004EA0FFF778F9002003F0DBF90120BDE8F08769
S31508004EB03078411C317071694018704710B5034647
S31508004EC0B3F5004F01D100205BE048F20104A3428C
S31508004ED003D10020088005205BE048F20204A342C3
S31508004EE002D1192008803DE048F20304A34201D10B
S31508004EF0002041E008B9062049E0012B08BF082038
S31508004F0045D04FF44070022B02D10880072040E0BC
S31508004F1040F20274032B03D10C804FF4806038E012
S31508004F20042B08BF0C8033D040F60534052B05D07A
S31508004F30062B07D10C804FF48E702AE00C8040F2C5
S31508004F401D1026E0072B03D10C8040F21B1020E031
S31508004F504FF4A0640A2B02D10C80012019E00B2B18
S31508004F6002D10C80022014E0092B03D1012008800D
S31508004F7021200EE00C2B02D10880032009E00D2B1E
S31508004F8002D10880042004E00E2B03D103200880F8
S31508004F900020108010BD2DE9FC4104462088678852
S31508004FA000285ED1DFF8904500F092F80546656165
S31508004FB00420288008212078801C00F083F800212E
S31508004FC0C0B2415500F07CF94155401C00F07AF812
S31508004FD0C0B24753801C2070461CC0B2804667B9D1
S31508004FE00FF6DC37384603F0EBFF00F065F8C9B278
S31508004FF0814232DA00F059F8F9E7012F0CD10FF6A1
S31508005000C837384603F0DCFF00F056F8C9B28142CB
S3150800501023DA00F04AF8F9E7022F04D1222148F8EA
S315080050200510001D18E0032F09D100F05FFDDFF819
S31508005030780B0068800754BF0120022008E0042F7F
S3150800504002D101F073FD03E0052F06D101F0A3FAA2
S31508005050217862698854481C20702078FFF79AF8EE
S3150800506021E00DF1060201A93846FFF727FF48F2AD
S315080050700200874204D1BDF804100022182003E07C
S31508005080BDF804100022102000F021FFBDF806002C
S3150800509000F04AFF00F01FF8020004D000972346EC
S315080050A00821FFF7F5FDBDE8F3812378CA5D5A5557
S315080050B0491C5A1C22707047C0B208F805002670B1
S315080050C0002170472070C0B24153801C2070704781
S315080050D02070FFF75DB824882046FFF788BB2DE9C6
S315080050E0F041044682B06588A0880A2290FBF2F84F
S315080050F0082D03D108211126202704E00E2D02D100
S315080051000321002621270222102000F0E0FEB0B27B
S3150800511000F00AFFF8B200F0FEFE082D03D1207950
S3150800512000F0F9FE05E00E2D04BF1FFA88F000F026
S31508005130FBFEFFF7D0FF28B10246009523460A2159
S31508005140FFF7A6FDBDE8F3812DE9F04100F027FD44
S315080051509046FFF7BDFF606104210180092221788E
S31508005160DFF80477FFF785FB0A52891C21700022B5
S3150800517000F0B4F80A54491C3A682170C9B2D288BA
S315080051800A52881C207042460021304602F07AFEF8
S31508005190217862698B1C062D04D100286ED100F097
S315080051A093F860E0032D01D10E204EE0012D05D1C4
S315080051B0212863D1092000F087F854E0082D05D18D
S315080051C000285BD1012000F07FF84CE0B5F5407F60
S315080051D009D1072801D1022037E0032818BF04287F
S315080051E04CD1093031E040F2027C654523D168B9DB
S315080051F00420885223700020DBB200F05AF80628F3
S31508005200FBDB981800218171C17110E0B0F5806F41
S3150800521034D10320885223700020DBB200F049F80D
S315080052200328FBDB98180521C01C03F0E5FE20784F
S315080052300830207022E0B5F5A06F17D1012801D1FA
S315080052400A2002E0022819D10B2088522370DBB20B
S31508005250F0789854581C2070C0B231798154401C9B
S3150800526020700023062000F03FF807E04FF6FF7095
S31508005270885223700820FF2300F036F820786169E9
S31508005280401803F087FE207800F019F8401803F05C
S3150800529083FE20783A6800F012F8927C425400F0B7
S315080052A00FF8FEF777FF002002F0DAFF0120BDE8CD
S315080052B0F0818519C118ED788D54401C70476169D5
S315080052C0401C2070C0B2704788522370DBB2F07859
S315080052D09854581C2070002307207047C9B20A54F6
S315080052E0491C2170C9B2704721788B54491C21701A
S315080052F0401EF9D170472DE9F04780468E4E089C2E
S31508005300099D00200F4691469A463070FEF740FFE9
S315080053107061042231780A52891CC9B2092200F048
S3150800532034FCC9B221F80090891CB8F5A06F08BFF3
S31508005330022F14D1C9B20B220A52891CC9B2032200
S3150800534021F800A0891CC9B200230C52491CC9B215
S315080053500D52891CC9B20B54491C521EFAD1317020
S315080053603178081803F016FE30787169401C3070E1
S31508005370C0B2401803F010FE3078DFF8EC247169EB
S315080053801268401C3070C0B2927C4254401C307087
S31508005390C0B2BDE8F047FEF7FDBE80B5498848F2C1
S315080053A02103994207D14FF6FF71009103465278BF
S315080053B00D2100F026F8002002BD30B50446194834
S315080053C0042189B0017506A92588A01CFFF7B6F93E
S315080053D000F01AF806AA03200190A08A31F81000F6
S315080053E000902121284602F06FFB38B14FF6FF7175
S315080053F0009102462B460D2100F003F809B030BD96
S3150800540006210420FFF719BA4FF4825005900120AF
S315080054100490002003900123DFF890070FF2B8717B
S31508005420029070474CF600207AFC00206CFC0020A5
S3150800543018FC002038B500F04AF8A07C70B90022A4
S31508005440062100F0B9F8B4F8135000F0AFF820B10F
S3150800545000F039F8802100F071F831BD0128FCD13F
S315080054600122EDE738B500F032F80422082100F0F1
S31508005470A3F8A07C00F04FFDB4F8130000F054FD2B
S3150800548000F092F820B100F01EF87F2100F056F8DF
S3150800549031BD38B500F01BF80622082100F08CF85B
S315080054A0A07C00F038FDE07C00F035FDA08A00F015
S315080054B03BFDE58A00F07AF820B100F004F8822175
S315080054C000F03CF831BD024600942B46704704466E
S315080054D0FFF782B910B94FF4B9707047642801DB39
S315080054E099207047D9214843642190FBF1F0C0F513
S315080054F0B97080B2704738B50446A07C65281ADAB8
S31508005500DFF8AC06002181752046FFF765F900F043
S3150800551050F8A07CFFF7DEFF00F006FDB4F8130094
S3150800552000F002FD00F040F8020004D000942B467B
S315080055307E2100F003F831BDF0F000200120FFF7CE
S31508005540BEB938B50446DFF86806012181752046DC
S31508005550FFF742F900F02DF8608A00F0E5FCA08A12
S3150800556000F0E2FCE58A00F021F820B1FFF7ABFF76
S315080055709121FFF7E3FF31BD38B5FFF7A8FF0022F9
S31508005580032100F019F8608A0A2190FBF1F080B235
S3150800559000F0CAFCA58A00F009F820B1FFF793FFCE
S315080055A07D21FFF7CBFF31BDB4F815502846FFF72C
S315080055B01EB90A224FF44071112000F088BC38B594
S315080055C0FFF785FF0722FFF7F5FF608A00F0ACFCBE
S315080055D0A08A00F0A9FCE08A00F0A6FC258BFFF75C
S315080055E0E5FF20B1FFF76FFF8121FFF7A7FF31BD68
S315080055F010B5DFF81C4500202072607828B9012014
S31508005600E070BDE8104003F0FBBC012813D100F0A0
S3150800561026F96061052100F01FF8A2782170012A99
S3150800562018BF0022C9B20A54491C21700022C9B207
S315080056300A54481C0EE002280DD10020E070FFF73E
S3150800564047FD00F012F80122FFF729FA0022C9B235
S315080056500A50081D26E110BD018001222178891C07
S315080056602170C9B20A52891C704760610521018000
S3150800567004222178891C2170C9B20A52891C21701A
S315080056807047DFF88C04C078704710B5DFF880449F
S3150800569003F0E5FDA0700020A061012060700020E5
S315080056A0E07003F0ADFC04F10800BDE810404FF4CB
S315080056B0FA5102F078BA70B500F01CF8606105215D
S315080056C000F00EF8C9B20E52FFF7D3F82A880A522C
S315080056D0FFF7CFF86A880A52FFF7CBF86A6861E0E5
S315080056E0018003222178891C2170C9B20A52891CBB
S315080056F0217070470646DFF8184400200D462070D2
S31508005700FEF746BD70B50646DFF80444D6F8011024
S31508005710A069884239D12079401C207106F1090018
S31508005720D6F8052003F080FE0546012D1AD1002083
S315080057302071D6F80510A0690818A06130780128EC
S3150800574007D1002060704FF4FA6104F1080002F0F6
S315080057502AFA00F084F8FFF788FF012D0CBF002213
S31508005760012214E020793228F3DB00202071A061A1
S3150800577003F075FDA0704FF4FA510220607004F131
S315080057800800BDE8704002F00EBA0025E1E7C9B28C
S315080057900A54491C2170012D0CBF00220122FFF773
S315080057A09DFDA2690A50081D2070C0B2BDE8704070
S315080057B0FEF7F0BC38B500F050F800F04AF80522BC
S315080057C000F035F82A680A50091D2170C9B26A68BE
S315080057D00A50091D2170C9B20A186968286803F0B9
S315080057E01AFE207869680818FFF70EB938B5054615
S315080057F0287803F0CFFE00F031F800F02AF80822E6
S3150800580000F015F82A780A54FFF7FDB838B50546AA
S31508005810288803F0C7FE00F021F800F01AF80922DC
S3150800582000F005F82A880A52881CFFF7EDB8217897
S31508005830891C2170C9B20A52891C21700022C9B27A
S315080058400A54491C2170C9B20A54491C2170C9B2AC
S31508005850704760610521018070470546AC4C002001
S315080058602070FEF795BC000090F3002010B50446A2
S3150800587000221921192000F02AFB002000F04BFB1A
S31508005880642000F048FB2088A14C2082FEF7AFFF79
S31508005890FFF7E5FFFFF7DDFF0A22FFF7C8FF228AB9
S315080058A00A52881C2070C0B2BDE81040FEF772BCD0
S315080058B02DE9F04182B08846B2F800E0DDF820C054
S315080058C0099C4FF6FF710E460F46BEF5827F36D10C
S315080058D09CF800E05FEA4E754CBF022500255FEA9A
S315080058E0CE7E2CD405EB0C018B78062B08D1002C28
S315080058F024D08988508804260727FFF77AF916E006
S315080059004BB9002C1AD0B1F8031050880426082782
S31508005910FFF7F8F90BE0022B01BF04260A27528885
S31508005920082A04D1B1F80310112908BF08200090ED
S315080059304346224639463046FEF79FFF7EE05088AA
S315080059409B4E68B1032810D0062812D0082814D018
S31508005950212843D034286BD0B0F5407F23D06DE0A2
S3150800596000914346224605215EE000F06AF87D2153
S3150800597032E000F066F880212EE0032B5EDB9CF80F
S31508005980000040074CBF9CF804009CF8020004285D
S3150800599003D100F056F87F211EE006284ED100F00C
S315080059A050F8822118E0032B48DB9CF800004007DA
S315080059B04CBF9CF804009CF802000A2807D1B07D69
S315080059C001280CBF91217E2100F03BF804E007284E
S315080059D034D100F036F8812101202DE0307D0428ED
S315080059E005D15CB30091434622460D211DE0BCB9A2
S315080059F0401C30750122C0B27275042809DB0020EC
S31508005A00307500910022338CFFF7FAFC00203076BF
S31508005A1014E04FF4FA7106F1180002F0C4F80DE02C
S31508005A2000914346224606210420FEF706FF05E0BC
S31508005A3000F007F883210320FEF741FF0020BDE8A8
S31508005A40F681009643462246704738B530F8022B51
S31508005A5030F8023B574C5D1EADB204EB8505012AB2
S31508005A6006D0032A0FD0042A16D0052A18D031BD2D
S31508005A70912B08BF8323A3F17D0292B254F822200A
S31508005A80BDE838401047A3F1820292B204EB8202C5
S31508005A90BDE83840D26910476A6ABDE83840104701
S31508005AA0AA6DBDE83840104710B5044600F01EF848
S31508005AB03D48006880070CD51A2C02D16FF02A00E1
S31508005AC010BD192C02D16FF00B0010BD6FF0050048
S31508005AD010BD1A2C02D16FF0190010BD192C02D175
S31508005AE06FF0080010BD6FF0040010BD08211120EA
S31508005AF003F0A1BD80B5FFF7F9FF2B4800688007C2
S31508005B0005D5BDE804400921162003F094BD01BD62
S31508005B10F0F0002070477047F8B500F040F81746D7
S31508005B20FFF7D6FA606104210180A0222178891C3A
S31508005B30C9B200F02AF8204A1268D288C9B20A52B5
S31508005B40891CC9B204220D52891CC9B20E52891C7D
S31508005B50C9B20F52891CC9B200230B544B1C1946F3
S31508005B60521EF8D12170DBB2FF2119545A1C22703B
S31508005B70D2B21154521C2270D2B21154501C207049
S31508005B80C0B2FEF707FB0120F2BD0A52891CC9B252
S31508005B9000220A54491CC9B20A54491C70470546D2
S31508005BA0064C00200E46704708B4004080FC0020D2
S31508005BB04CF600200CF1002090F30020F0F00020B5
S31508005BC073656E676C6564005A30312D4131392D25
S31508005BD047617465776179000600080000030207CB
S31508005BE0000000000000000000000100EFF3118033
S31508005BF0602181F31188704780F31188704700008F
S31508005C009848016C41F4C04141F0090101644FF61E
S31508005C10FF710160202194480160704770B51546F0
S31508005C201E46012835D113293CBF0FF26C20095CAA
S31508005C3008096422504301F00F010B2903DA884052
S31508005C4006E00A2250430A46511ED2B20B2AF8DA57
S31508005C500146012003F008FEE0B9300907280CBF09
S31508005C6000200220012D08BF40F0180003D0022DA5
S31508005C7008BF40F0080006F00F010229A8BF40F04F
S31508005C8004007A49886001200860FFF7B9FF002000
S31508005C9062BD212062BD012800D0704738B573481F
S31508005CA0006801280FD1FFF7A1FF05467048016873
S31508005CB041F006010160012000F09CF82846BDE885
S31508005CC02640FFF799BF23BD012804D1684801681B
S31508005CD021F0060101607047012802BF6548836903
S31508005CE0012B07D021207047C3685B07FCD511F844
S31508005CF0013B036013465A1EDBB2002BF4D1C16880
S31508005D004906FCD50020704710B5044603F07EFC12
S31508005D10012C03D1584800684006FBD510BD7047D2
S31508005D202DE9F0435549564B51F82020554C564D10
S31508005D30564EDFF8408119E0B2F804E036F81070E4
S31508005D407F1EBE4526DAB2F800E096448EF806C0F5
S31508005D50178835F810E007F1010C9CFBFEF70EFBDF
S31508005D6017CCA2F800C097887F1C9780D8F80C70CB
S31508005D70BF073CD5D8F80C70D8F800C017F038071C
S31508005D80DAD05FEA077C08D45FEAC76C08D54FF01B
S31508005D90240E0BE04FF0230E08E04FF0270E05E027
S31508005DA0BF064CBF4FF0250E4FF0010E51F820C02C
S31508005DB0075D37B9BCF8007023F8107000F804E0E6
S31508005DC0D4E733F81070ACF8007000F804E0BCF8BB
S31508005DD00070BCF802E077452FBFA7EB0E0E36F829
S31508005DE01090A9EB0E0EBE44ACF804E0BEE7BDE881
S31508005DF0F083704770B52649264A51F820101D4B86
S31508005E000FE04C886418A4791C604C8832F810504E
S31508005E10641C94FBF5F605FB16444C808C88641EBE
S31508005E208C808C8814B1DC686407EAD470BD70472E
S31508005E3038B50C4C0FE046F229702560054203D0B0
S31508005E40A9B20120FFF76CFF41F6D60005421CBF38
S31508005E500120FFF7CFFF2068216C11EA0005EAD17F
S31508005E6031BD000008A8004000E100E054C8004029
S31508005E7048A800403CC8004048C800405CF30020E1
S31508005E8044F3002040F30020E446000838F80108EF
S31508005E904CF30020DC460008306090C0C1C2C394B1
S31508005EA0C495C55C96C6AC9798990D0010B50C4676
S31508005EB008B903F04DFDDFF8841008714C7110BD68
S31508005EC0DFF878104FF48252CA80488070472DE96F
S31508005ED0F041804608461446FFF7F2FFDFF85C50AB
S31508005EE0288A0127002814BF04210021DFF8506002
S31508005EF041EA0801317018B170700327000AB070C2
S31508005F0002F059F9B855781CC0B28455401CC0B285
S31508005F10E881BDE8F081DFF82410DFF82430CA896B
S31508005F20D054501CC881704710B50446C0B2FFF75C
S31508005F30F2FF200ABDE81040EDE700006CFC0020E7
S31508005F4018FC00200020DFF83415FF2301EBC002FF
S31508005F501371002241F83020401C0328F6DB7047F5
S31508005F602DE9F84B0BB484B01446032B05DB109DC2
S31508005F702978490706D5052B01DA012079E095F835
S31508005F80049001E095F802900026DFF8F0B40BEBD8
S31508005F90C6000079FF2804D0701CC6B2032EF6DBB3
S31508005FA0FF26DDF848805FEA080003D0FF2E08BF09
S31508005FB0B4205ED0207902F064FD0746FF2F08BFA3
S31508005FC0A32056D0207903F0B7FC002851D1DFF87A
S31508005FD0B00400EB071000214388238060889DF8F1
S31508005FE044200090484602F07DF918B1E08840F058
S31508005FF02000E080BDF814109DF81000224602F03B
S315080060007DF9BDF81810884220D3FF208DF80800C6
S3150800601002A8019000952246BDF81830BDF8141064
S315080060209DF81000DBB200F093FE07465FEA080011
S315080060300ED06FB99DF80800FF2814D00BEBC600E8
S315080060409DF8081001714BF836800CE074270DE0B6
S31508006050BA2F07D1A079C00608D50027012003F07A
S3150800606090FC00E017B9112003F090FC03F06DFCDA
S31508006070384608B0BDE8F08B10B584B0069C00F031
S3150800608005F80420FFF76CFF04B010BD00930294D6
S3150800609013460A46012401460194704710B582B09A
S315080060A000240094FFF7E8FF16BD2DE9F04385B0FC
S315080060B004460C9D0D9F884616469946022C0BD120
S315080060C000A95FFA88F003F06BFD78B99DF8010026
S315080060D030719DF8040070710297002001900095B8
S315080060E04B46324641462046FFF73AFF05B0BDE823
S315080060F0F08330B583B00025069C01950094FFF720
S31508006100D4FF3EBD30B583B004460D4604F005F80D
S3150800611070B96DB101A800210160032000908DF8C7
S31508006120054001AB002236214FF6FC7005F0EEF96A
S315080061303EBD2DE9F0410D460446288816461F4601
S3150800614008B1002034E0688848F2040148F20108E2
S3150800615088421CBF48F2060188420DD048F2200149
S3150800616088421CBF1328404506D048F205018842DC
S3150800617002D13079C34908702946204605F022FB2A
S315080061803B46324629462046FFF707F9002802BF54
S31508006190688848F22101884203D17178204603F0C5
S315080061A014FC68884045A4BF082003F02DFC012094
S315080061B0BDE8F0812DE9F04788B081460E46924643
S315080061C0984602F0EEFE8DF8089003960546119F54
S315080061D00497ADF816508DF818A08DF81980109C04
S315080061E0ADF8144000F0A4FC8DF81A0000F0A2FCEB
S315080061F08DF81B0005F057FC8DF81C0002A803F06B
S31508006200F6FBA8B9A3B23A463146284605F031FD51
S3150800621070B9A3B23A4631462846FFF78AFF38B91D
S3150800622001900095A3B23A464946304601F00DFF63
S3150800623008B0BDE8F0872DE9FC4780468A46174630
S315080062400C988E491D46002201EBC2031B79834236
S3150800625010D0521CD2B2032AF6DB4FF000090022F6
S3150800626001EBC2031C79844207D0521CD2B2032A1E
S31508006270F6DB07E051F83290F1E7FF2018710020AD
S3150800628041F832002946404603F08CFB002D04BF36
S315080062903888002806D17888B0F5004FBCBF08209A
S315080062A003F074FB012003F0AFFB0A9C0B9E36B18A
S315080062B03078C00703D500F01BF802F098F95FEABA
S315080062C0090002D000F014F8C8470196A4B2009459
S315080062D02B463A465146404605F08EFD01950096F6
S315080062E023463A4651464046FFF7E2FABDE8F387A9
S315080062F001950096A3B23A4651464046704770B596
S31508006300044682B090380CD0401E3AD0C01E38D011
S31508006310801E36D0801E34D01338042831D911385F
S3150800632031D105F0C1FD064600F0FEFB451EAD4124
S31508006330ED0F2EB1002D14BFB0883089ADF80000DE
S315080063400DF1020005F069FEBDF80200800605D5CC
S31508006350BDF8000040F02000ADF800002A4600A96C
S31508006360002003F054FBBDF8000005F043FEBC2CEA
S3150800637002D103F042FB01E006F091FC03F03EFB7C
S3150800638001E001F01FFE204605F067FD204606F0F5
S315080063901DFD204603F03DFB73BD10B584B03A4C95
S315080063A0002003F0C4FA207880B96478012C08BF6D
S315080063B006F034FD00A800F005FD70B99DF8000050
S315080063C0A04203D0012C08BF022806D10FF2C40050
S315080063D00068019001A803F090FF03F0B6FA1FBD0C
S315080063E038B504460D4603F0A5FA2946204606F0B8
S315080063F093FCBDE8314003F0A8BA70B504460D46D3
S31508006400164603F097FA32462946204606F09EFCC1
S31508006410BDE8704003F099BA10B5044603F08AFA4D
S31508006420204606F0CEFCBDE8104003F08EBA10B543
S31508006430164909680A7804467020002A04BF497874
S31508006440012906D106F0FFFC2046BDE8104003F0FE
S315080064501BBE10BD38B50D4909680A780446702078
S315080064605AB94D78012D08BF022506F04BFD214685
S315080064702846BDE8344003F06DBE32BDA8F60020BC
S31508006480C0F60020A8F1002034F3010890F9002096
S3150800649070470000000000004148006840887047C7
S315080064A03F480068001D70473D480068C07E704739
S315080064B070B53B4D296848733A4C3B4E022817D1B4
S315080064C000F074F868B92868007B04283CBF304699
S315080064D001F05EFB2868007B03283CBF204601F0DC
S315080064E057FB28684069C00054BF9024BC240AE0C2
S315080064F000F05CF810B106F051FD03E03070207032
S3150800650006F0A9FD9124204606F073FF20B920461F
S31508006510BDE8704005F01FBB70BD21480068407B90
S3150800652000F00F0070471E480068407B00F00F001F
S31508006530022801D1012070470020704710B50023BA
S3150800654000E05B1CDBB28B4205D210F8014B94428B
S31508006550F7D0002010BD012010BD80B5082107F036
S3150800656051F908B1002002BDA52002BD0C480068FB
S31508006570407B01281CBF3128332801D101207047F0
S315080065800020704710B5044607F0E3FB10B904492C
S315080065900968CC7310BD02480068807B704700000C
S315080065A0DCFC002014FE002078FD002080B500F0F9
S315080065B0B6F9032801D1012002BD002002BD80B52D
S315080065C0FFF7F4FF38B140F22B110FF20C00BDE8CB
S315080065D0044007F0A1BC01BD656D6265722D737438
S315080065E061636B2D636F6D6D6F6E2E630000000027
S315080065F010B508F035FA08F089FADFF82C43207848
S31508006600002839D1102008F0C5FB00060BD400205D
S3150800661008F0C0FB000606D5E078012812D108F07C
S31508006620F9FBA8B310BD102008F0B4FB0006F6D598
S31508006630002008F0AFFB0006F1D5E078012818BF66
S315080066400F28ECD0E078022818BF0628E7D00728DC
S3150800665018BF0828E3D0092818BF0A28DFD003285E
S3150800666018BF1028DBD0112818BF1228D7D0132836
S315080066701CBF14281528D2D00FF2E024214600208A
S31508006680FDF7FFFF21460120FDF7FBFFB02010BDF7
S3150800669008F03CFD08F062FDDFF89002007808B1CA
S315080066A003F0BCFB08F064FD08F08DFFDFF88042BC
S315080066B00FF2D42001F011FB2070DFF8780201F008
S315080066C00CFB607005F056F906F04BFD09F0AEF8C4
S315080066D00AF01AFB0AF01BFB06F092FE01200AF0EC
S315080066E01EFDF021DFF8500201F064FA002010BD0B
S315080066F02DE9F0470AF060FF0BF064F80BF07CFB1D
S3150800670008B90BF04CFBDFF8348240460BF0FCFE70
S3150800671008B909F0A8FBDFF8289248460BF0F4FE02
S3150800672008B90CF0BEF80CF0C3FB0CF062FDDFF8FC
S315080067300052287801F0BDFA687801F0BAFA0CF030
S31508006740C7FE00270024DFF8FC61DFF8FCA10AE099
S31508006750204605F0B7F93068007B042828BF0127D2
S3150800676005F0B1F9641C9AF80000E4B28442EFD34C
S31508006770002F1EBF75480078002805D000F03EF8A7
S31508006780102808BF0DF04CF971480BF0BDFE08B98A
S3150800679008F0EEFE0DF0AEFCFFF728FA07460BF000
S315080067A02BFB68B140460BF0AFFE48B148460BF0EC
S315080067B0ABFE28B10DF09CFC10B1287801F0AFFAB9
S315080067C03846FFF719FAFFF711FA04460BF014FBDF
S315080067D030B140460BF098FE10B1687801F09FFA88
S315080067E02046FFF709FA05F066F918B940F26B1169
S315080067F000F035F803F01AF8BDE8F08738B506F06A
S315080068009AFC28B10DF029FD441EA441E40F00E0CE
S3150800681001240AF072FD00280CBF042500250BF0A0
S31508006820EBFA48B145480BF06FFE28B144480BF027
S315080068306BFE08B1002000E002204649097801B144
S315080068402021424A127802B11022434B1B7803B129
S3150800685040232C43204308431043184332BD0FF20C
S31508006860181007F059BB38B5044636480068007B4F
S3150800687003280BD220460DF011FF4FF6FF75A842EC
S3150800688004BF20460EF058F9A84204D12046BDE8B8
S31508006890324008F056BD32BD70B504460D464FF677
S315080068A0F870844201D3012070BD264E3CB9306889
S315080068B0007D800703D428460EF07FFCA8B930680F
S315080068C041888C4205D10822011D28460EF0F4FDA8
S315080068D00BE0007B03280AD220460EF057FEFF285D
S315080068E005D029460EF075FE08B1002070BD294670
S315080068F0204608F067FD401E8041C00F70BD114854
S315080069000068008A70470F490968088270470D4871
S315080069100068408A70470B490968488270470948E9
S3150800692000680078704700009607080896F300206C
S31508006930D6FF002078FB010860FD0020D8F400206F
S3150800694018F40020DCFC002010F20020E0F40020FF
S3150800695020F40020E4F300206CFE002053746163E9
S315080069606B2F4861726477617265204D69736D613A
S315080069707463680D0A0000007A69676265652D739D
S315080069807461636B2E630000ACF40020B531010816
S3150800699084FD0020019601082CF40020555D0108AD
S315080069A020FE00208543010810F50020EBAC010805
S315080069B0E4F30020C1AA0008F4F300207DAB000828
S315080069C0E0F400201D3A0108C4FC002049A1000893
S315080069D0A8F300204D71000858F400203578010806
S315080069E078F400205173010878FD0020BB4F010898
S315080069F014FE00209FD301080CFE00203BA40108CA
S31508006A0070FD0020CD8D0108ECFC00208D54010896
S31508006A1090F40020D53701086CFE0020D9D3000871
S31508006A20CCFC002043BA000868FD002043B00108EA
S31508006A3060FD0020FDF20108D4FC00204FBB0008D1
S31508006A40000000000000000038B50EF0CDFE0EF084
S31508006A50CFFE08F069FA0EF0DDFE0022002100A83C
S31508006A6002F0AFFF00B131BDFFF7C2FD04460123B6
S31508006A7000220F210120FDF7E3FC40F2A1750EF07C
S31508006A80B3FE25FA00F0C0070AD5DFF83C5328788C
S31508006A9007F03EFB287807F0C4FB287807F0C4FC0B
S31508006AA024B10FF29830AB2107F036FA02F03AFF1C
S31508006AB0FFF748FA01F02AFDFFF71CF801F049FA3A
S31508006AC0022164200EF0AAFEFFF767FC0EF0FAFE1C
S31508006AD0DFF8F8024FF48B5101805221DFF8F002FB
S31508006AE00180DFF8F0020180022006F083FFB4A4DB
S31508006AF00FF2583501E002F02AFF02F087FDFFF792
S31508006B00F7FD01F04EFAFDF7E1FD0EF013FF012146
S31508006B100020FDF769FB0028EDD02A4621464FF6EE
S31508006B20FF700EF0DEFFE6E7FFF7E9BEFFF7F5BCFC
S31508006B300CF078B838B502F034FA04460025284631
S31508006B4008F09DFBA04201D1284632BD6D1CEDB26E
S31508006B50642DF4DBFF2032BD7FB500F0A0F8FFF707
S31508006B60CEFE38B16088B0F5006F03D1601D02F023
S31508006B702AFF13E0204602F045FF050014D100263F
S31508006B8000A9304603F00CF8002804BF9DF8000061
S31508006B90002805D12146304603F00DF8054603E0E6
S31508006BA0761CF6B2102EEBDB02F0CFFE284604B0B8
S31508006BB070BD38B500F073F8204602F021FF0500D5
S31508006BC003D1204603F03DF8054602F0BEFE2846EE
S31508006BD032BD10B5044604F068FF7F4901EB041185
S31508006BE0097B814208D1204601F0C7FC20B1204626
S31508006BF0BDE8104001F047BFFF2010BD70B5044640
S31508006C000D4601F03EFF0646FF2E07D004F04DFF65
S31508006C10714901EB06110A7B824201D0002070BD42
S31508006C2048882880888868808879287101212046C4
S31508006C3001F02DFF68710021204601F028FFA87198
S31508006C40012070BD2DE9F04105460E46904601F03B
S31508006C5018FF07464FF6FF74FF2F13D004F025FFE1
S31508006C605D4901EB0711097B81420BD10EB901225F
S31508006C7002E0012E06D100224146284601F02BFFEC
S31508006C8000B104882046BDE8F08110B500F007F889
S31508006C902046FFF734FBBDE8104002F056BE044616
S31508006CA002F048BE38B50C464C490968455CAA420C
S31508006CB001D2002032BD002100912B460146002258
S31508006CC020460BF0C4F9284632BD70B598B0044684
S31508006CD00D46164602F02EFE522203A93046FFF74D
S31508006CE0E1FF060011D00DF1090002F053F902A8E0
S31508006CF002F052F903A801909DF908309DF8092081
S31508006D00009629462046FFF755FA02F01EFE18B0EF
S31508006D1070BD2DE9F04198B005461E9C0E4690467A
S31508006D201F4602F007FE522203A93846FFF7BAFFAC
S31508006D3048B1029703A9019100902346424631467D
S31508006D402846FFF778FA02F000FE18B0BDE8F08191
S31508006D502DE9F04104460D460698079F90461946C8
S31508006D600BF05BF90646FF2E08BF182022D02046F6
S31508006D703E70022804D9C01E08D0401E0DD014E06B
S31508006D803346424629460BF026FD0CE033460C22D4
S31508006D900C2140460BF071FD05E033460C224146B6
S31508006DA028460BF061FD044600E0022430460BF04D
S31508006DB0B1F82046BDE8F081082209490EF07CBBEF
S31508006DC025703E0004F055BAA9F1002000F4002011
S31508006DD004F4002006F40020C0F60020CCF10020C0
S31508006DE080FC002010B582B0FFF759FF0DF10100B5
S31508006DF002F0D0F800A802F0CFF89DF900209DF81F
S31508006E000110204600F004F902F09FFD13BD38B5C5
S31508006E1004460D4602F08EFD2946204600F0C3F8CA
S31508006E2008E038B504460D4602F084FD294620469A
S31508006E3000F040F9BDE8314002F087BD61662D6D6E
S31508006E4061696E2D736F632E630000005A30325FDE
S31508006E50476174657761795F33353837000000001C
S31508006E6070B504460D460126022000F038F958B1DF
S31508006E70B04840681022FF210EF061FB2A462146E1
S31508006E80002000F059F90646304670BD70B5A94D88
S31508006E906968FF2400260020425CA4F119039A427F
S31508006EA0BCBF02F11904E4B2401C1028F4DB002030
S31508006EB0425CA242BCBF761CF6B2401C1028F7DB27
S31508006EC0300003D1BDE87040012025E10EF02EFE0A
S31508006ED090FBF6F106FB1101C9B200206A68825CD4
S31508006EE0A24206DA0A0002D10B30687005E0491E94
S31508006EF0C9B2401CC0B21028F0DBBDE8704010B51E
S31508006F0000240EF013FE4FF6FF728A49904203D012
S31508006F104A6822F81400641C102CF2DB032008705F
S31508006F204978BDE810400120032200FA01F103E187
S31508006F3010B5804C2078012807D07020FFF76CFA2E
S31508006F40702010BDE0780EF01BFEE078A0B1401E60
S31508006F50E070C0B20EF0FCFD01884FF6FF72914258
S31508006F60F0D090F90F20817BFFF747FAE0780EF012
S31508006F7007FE0EF0F3FD14E06078401C6070607840
S31508006F801B280BDA0121A26881401142F5D00420A2
S31508006F9020700322BDE810400120CDE0AB2000F0B0
S31508006FA0BBF8002010BD10B50C4600F090F828B1CB
S31508006FB060490878022818BF002C01D0002010BDAF
S31508006FC0022806D022D304281CD005D3052819D0B8
S31508006FD01CE0FFF75BFF19E000224FF6FF734868D5
S31508006FE030F81200984206D1521CD2B2102AF6DBAB
S31508006FF0FFF785FF0AE04978FFF7F2F9002000F06D
S315080070008BF803E001200870FFF792FF012010BDFE
S315080070102DE9FC41474D044628780E46904603283C
S3150800702002D004280FD042E000206968238831F88E
S3150800703010209A4204BF4FF6FF7221F81020401C18
S315080070401028F2DB33E0E07888B3277B0EF07EFD6C
S3150800705087422CD1A87830B90822211D05F10C00E9
S315080070600EF074FA18BB002709E038460EF070FDDA
S315080070700822211D001D0EF069FAC0B17F1CE878B0
S31508007080FFB28742F1D3401CC0B20EF079FD70B949
S31508007090E8780EF05DFD0746E878401CE8700E2299
S315080070A0214638460EF008FABE7387F80F80BDE809
S315080070B0F3410CE038B504460D4600F008F828B14F
S315080070C01C484068201800F80B5C012032BD19489E
S315080070D00078022801DB012070470020704738B588
S315080070E00446FFF7F4FF18B13D20FFF795F90FE0C6
S315080070F00EF034FD002000F00FF80E4D0020E87069
S315080071002C700EF02FFD686020B9182000F004F8E6
S31508007110002032BD012032BD10B5044605480021C5
S3150800712001700EF037FD24B12046BDE81040FFF788
S3150800713073B910BD60F8002010B50EF03BFD0400D1
S3150800714018BFFFF7E9FF204610BD000080B5DFF83D
S315080071503C0300210171042004F0ABFC04F0B2FCEE
S31508007160DFF82C030068407B042814BF532800F07E
S3150800717055F8BDE8014004F0A6BC80B5FFF71FFA34
S315080071800020BDE8024045E0F8B5C14C23685D7BA8
S3150800719005F00F06002D18BF212D07D01D7B012DE8
S315080071A001D1850602D4B94D2F790FB17020F2BDF1
S315080071B02A70A981012E04D12120587300F02EF8D7
S315080071C026E081064CBF53210421597321680A7BA6
S315080071D0032A27BF4A8800F020004FF6FD7200F008
S315080071E0A0000146104600F016F92068407B0428E6
S315080071F004BF012003F0A6FF042004F059FC206810
S31508007200007B03282CBF02210821281D00F0D2FC90
S315080072100020F2BDFF224FF6FF71B5E780B50CF0EE
S3150800722033FB0DF027F80BF0E0FF9A4800780A28A0
S315080072301CBFBDE801400EF038BD042004F038FC40
S3150800724001210FF20D00BDE8044005F04BBF000018
S3150800725010B5042004F02DFC04F034FC8C4C206896
S31508007260417B532906D1032141730021012003F0F4
S3150800727095F826E0042918BF212922D1012003F018
S3150800728061FF4FF6FE70FFF73EFB4FF6FF70FFF704
S3150800729042FB002003F0CAFE03F088FC08F0EAFA75
S315080072A006F0A4F82068407B212802D102F0D8FE17
S315080072B007E00020FFF7FCF800214FF400400DF02E
S315080072C04BFF04F000FCBDE8104004F0BABB2DE902
S315080072D0F84380460E46511CC9B230460AF0ADFF47
S315080072E0054630460EF07CFE0646B01C0BF04DF8FF
S315080072F0814605F04004664F3868017B032903D3AD
S315080073004088804503D023E04069C00120D420008E
S3150800731010D07078000708D530460FF09DF808227F
S315080073205D490EF013F9002802E0FFF7E8FA8145F7
S315080073303DD107E003290CD34FF6F870814508DBE9
S31508007340280606D50122414605F0A000FFF71CFFD6
S315080073506CBB3868007B032829D27078C00626D50E
S3150800736030460FF086F80546294600200DF0C3F88A
S315080073700646FF2E04D000F01CF830460DF065FADC
S3150800738040460DF006FCFF2818BF0DF0A1FCFFF7DC
S31508007390B6FA60B904F091FB4FF6FF73022229464C
S315080073A0404605F08CFDBDE8F14304F08CBBBDE812
S315080073B0F1831CB50DF080F9044600A90DF0DAF941
S315080073C050B1FFF79CFA38B1FFF76EF820B10222E8
S315080073D000A9204605F09EF813BD38B504460D46AB
S315080073E00FF0B8F9FF2801D1012032BD28490968F4
S315080073F0C97E49B12949096831F81010490403D5ED
S315080074000DF023FA002032BDFFF7D3FF45F0400107
S315080074102046BDE8344030B585B0044601F0400545
S3150800742004208DF808008DF8091045B103A92046F7
S315080074300DF0A0F908B9012025E003A800E0002016
S3150800744001900095022302AA012120460EF0D3FFDF
S315080074500546FF2D08BF182015D04FF6F870844250
S3150800746006D300230022022128460CF0ADFE03E0D5
S315080074702146284608F0BAFB441EA441E40F2846D4
S315080074800AF048FD204605B030BD0000A4F30020F0
S31508007490DCFC002024F4002080FC0020E8F1002019
S315080074A038B504460EF09CFD054620460EF0C2FF90
S315080074B0411CC9B220460AF0C0FE697809070AD5F8
S315080074C028460EF0C9FF014600200DF014F8BDE865
S315080074D032400DF0BAB940065CBFBDE83140FFF74F
S315080074E035BE31BD2DE9F24F90B080461546994616
S315080074F005A99DF8400000F06AF907469DF81400B2
S31508007500DFF874150968405CC21BDFF87015096856
S31508007510CE88B1F802A0BAF5004F01D2B84204DA13
S31508007520DFF85C05002101708CE0B9F1000F18BF87
S315080075304FF4A076D4B2152C34BF2046152000216E
S315080075400091431CDBB27A1ED2B29DF8141006A82D
S315080075500AF07DFD9DF818B05B4632464AF40041B4
S315080075600CA800F0FBF9012D14BF012000200190A2
S315080075700DF1190000904B4642465146304600F040
S3150800758065F808B101205EE0002D5BD1DFF8EC0458
S3150800759000684088342841D1C8259DF82100410655
S315080075A04CBF8021002100064CBF2020002040EA65
S315080075B00104002208210DF11900FEF7BFFF38B9B2
S315080075C00822DFF8C0140DF119000DF0BFFF90B9BD
S315080075D0DFF8B4040068017B032903D3408880459B
S315080075E003D015E04069C00112D403224146204663
S315080075F0FFF7CAFD0AE00DF119000DF04FF84FF636
S31508007600FF71884204D02146FFF7E7FE00B900253E
S315080076102A469FA1404600F0ACF913E0DFF86C0457
S31508007620007878B1CDF810B0039602940DF11900E0
S31508007630019000979DF814304A469DF84010404640
S315080076400FF0A8F8002011B0BDE8F08F2DE9F54F2E
S3150800765085B01D46119C0DF10C090026DFF824B4EF
S31508007660109FF9B9B94607F108080822594638465D
S315080076700DF06CFF38B9FFF742F98246ACBB95B3FB
S3150800768086F001002CE038460DF008F882464FF6E1
S31508007690FF70824504D050460DF04AF80028EDD117
S315080076A00126E8E701291AD17878397801EB002A0A
S315080076B007F10208FFF723F91FFA8AFA824508BF7D
S315080076C0D946DBD050460DF033F828B103A9504609
S315080076D00DF050F80028D1D1D9460126CEE7002072
S315080076E007B0BDE8F08F0120FAE7002D18BF002E7D
S315080076F0F9D198F8005098F801700EB1812203E08C
S31508007700022DB4BF00228022029700200190CDF8F6
S3150800771000A04B460FF2843101200AF0D6FD04463C
S31508007720FF2CE0D0002E08BF012D0DD00C212046DD
S315080077300AF03FFD22460021BDF8180000F019F9AD
S3150800774020460AF0E7FBCEE7FFF7D9F8824536D19F
S315080077504FF0000BDFF820A3DFF83493DFF834533B
S3150800776003E0781EC7B20BF1010B28785FFA8BFB92
S31508007770834522D2D9F8000010F81B008007F2D5FD
S315080077803800EED158460CF097FF8DF8000000122D
S315080077908DF80100022200A920460AF0C8FC00283C
S315080077A0CED1761CF6B2BDF814000BF001FADAF861
S315080077B00010615C891C8842D5DA300001D10D21A0
S315080077C0B5E732460C2120460AF03CFDB2E738B54B
S315080077D004460D460AF0D5FBFF2805D020460AF0D8
S315080077E0D0FB2870012004E02C7020460EF0A5FE80
S315080077F0401CC0B232BD30B587B0044608461546AF
S3150800780001A9FFF7E4FF02469DF804009A490968B2
S31508007810405C831ADBB20B2B88BF0B230020009039
S315080078209DF8041004A80AF012FC4FF40041681AE7
S31508007830012803D9213801281CD926E09DF8100013
S3150800784018BB9DF81A009DF8191001EB00250822AF
S315080078500DF1110102A80DF02FFE012202A9A8B20E
S315080078600FF039FCADB2A5420FD0012102A807F0EE
S315080078702BFE0AE048F2210085420CBF01200020B9
S315080078809DF8102021460FF05CFE07B030BD0000C1
S3150800789031000000F0B587B000F05AF80022382110
S315080078A003A800F05BF800208DF81000BDF8120060
S315080078B040F04000ADF81200FF2E04D10FF007FF8C
S315080078C00FF2E0110BE0FE2E18BF384605D10FF077
S315080078D0FEFE401CC0B20FF002FF0FF2D011029755
S315080078E0C0B2019000962B0CAAB2204600F041F8CF
S315080078F007B0F0BD1FB500234FF48062132101A81D
S3150800790000F02CF803F0DEFC0446FEF7F8FF02460A
S3150800791000945C4B54A14FF6FD7000F02AF81FBD89
S31508007920F0B585B000F014F84FF48062002101A884
S3150800793000F014F88DF808702B0018BF0123009684
S3150800794022464AA14FF6FD7000F013F805B0F0BDC7
S3150800795004460D4616461F460023704710B50024F8
S315080079600471447141800480C28003814A49486099
S3150800797010BD0CB42DE9FC4780460D000AAA08BFC5
S31508007980166803D001200AF086FC0646FEF717FEA5
S31508007990F6B2FF2E08BF182062D04FF6F879C84510
S315080079A08041C043C00F3C4C61680A7922B900285F
S315080079B00CBF0627072705E000220A71002814BF16
S315080079C0042700274888B0F5004F05D22078401CC8
S315080079D0207040F0800A01E0B1F808A05FFA8AF248
S315080079E0002130460AF02EFC002001900096FF2365
S315080079F06268414638460AF097FD074615B1304693
S31508007A000AF088FA742F2AD1C84528D260684088B7
S31508007A10B0F5004F23D3FEF772FF6168498848F234
S31508007A20040291420CBF12A112A100220092034641
S31508007A308A2201200AF049FC0546FF2D0FD05FFA7D
S31508007A408AF200210AF0FEFB002001900095FF2330
S31508007A50626841460AF068FD28460AF05BFA38462D
S31508007A60BDE8F6075DF80CFB3238310038313100D5
S31508007A703132310031320000CCF1002094FC002074
S31508007A80D9FF002080FC0020DCFC002096F30020B3
S31508007A90E8F10020E4F1002088FC0020313832317A
S31508007AA031000000323231313200000032323131D9
S31508007AB00000000003480178491C017001F07F00AE
S31508007AC070470000D2FF00202DE9F04387B08846B2
S31508007AD006461146109F129C139D994600F040F8E1
S31508007AE00E988DF80E008DF80D900004000E8DF896
S31508007AF00F000F988DF81000012814D003281BD109
S31508007B00082239460DF111000DF0D6FC8DF8194002
S31508007B101620009001ABAAB24146304603F0F6FCA7
S31508007B2007B0BDE8F08311988DF811000004000E27
S31508007B308DF812000F20ECE70120F1E77FB5044627
S31508007B4015461E4600F00CF80A2000908DF80D50D8
S31508007B5001AB32463421204603F0D8FC04B070BD90
S31508007B6008220DF105000DF0A7BC000038B54478D1
S31508007B704568FEF73BF80C2161438B4A8B585B1B23
S31508007B80B3F1004F98BF8D50BDE83240FEF734B8C8
S31508007B9010B504460FF025FF6060042020702046CB
S31508007BA0BDE81040E2E738B500F011F82818606023
S31508007BB0012007E038B500F00AF805EB10200002AE
S31508007BC06060022020702046BDE83240CEE70446B9
S31508007BD00D460FF006BF38B5FFF7F9FF05EB104065
S31508007BE0000460600320EDE710B50446207860B114
S31508007BF0042806D00FF0F5FE6168421AB2F1004F6C
S31508007C0001D8002010BD081A10BD4FF0FF3010BD76
S31508007C1070B504460FF0E5FE0546FDF7E7FF064694
S31508007C206FF00041606800F02CF84019206030467B
S31508007C30BDE87040FDF7E0BF70B504460D46164630
S31508007C400FF0CFFE002156B1FF22327007E0121A5C
S31508007C50AA4202D2154606B13170491C0834226878
S31508007C600AB9284670BD1378002BF6D0042B04D029
S31508007C705268831AB3F1004FE9D806B13170002073
S31508007C8070BD0022D8E738B504460FF0AAFE0546AF
S31508007C900BE0017841B1042904D04168691AB1F1B1
S31508007CA0004F01D861688847083420680028F0D159
S31508007CB031BD10B50C213C4A01FB00240FF091FEA2
S31508007CC02168401AB0F1004F06D86068FFF7DBFF5D
S31508007CD02046BDE810409BE710BD70B50446334DFD
S31508007CE0687833490978884205D34FF484710FF2CE
S31508007CF0C40006F011F96E78701C68700C202A49C9
S31508007D0000FB061044600121017200E04E7054F831
S31508007D10081B0029FAD1FFF77BFF304670BDF8B57E
S31508007D2005464FF0FF300090204C207840B30FF006
S31508007D30CDFE28B940F239110FF2780006F0ECF8BA
S31508007D400FF04FFE0C21184A01FB052300251D7272
S31508007D50002305E0009EB54288BF354600955B1CAA
S31508007D606578DBB2AB420FD201FB03263568471BA9
S31508007D70B7F1004F04D92D1A367A0EB9002DE9D17C
S31508007D800DF048FD0020F2BD00A80FF049FE0120C5
S31508007D90F2BD0C21044A01FB002001210172704743
S31508007DA0024908707047000030F80020D3FF002011
S31508007DB028F801086576656E742D636F6E74726FA8
S31508007DC06C2E630010B53248324C00210170FEF764
S31508007DD0ABFE2080522200212F480DF0B0FB002078
S31508007DE060800C22201DBDE8104000210DF0A7BBC5
S31508007DF028494A88522A00DB704710B5264C105588
S31508007E00501C488010BD10B50446C0B2FFF7F0FFFD
S31508007E10200A0DE010B50446C0B2FFF7E9FF2004BA
S31508007E20000EFFF7E5FF2002000EFFF7E1FF200E28
S31508007E30BDE81040DCE738B5164D6B880C46E118EE
S31508007E40522908DA01461448224618180DF034FB60
S31508007E5068882018688031BD30B51D4600245B1837
S31508007E609A4208DA002030BD6A1812186D1E12F8F8
S31508007E70012C02EB0424EDB2002DF5D1204630BDCD
S31508007E800423E9E780B50223FFF7E6FF80B202BDC7
S31508007E9076F300202CF900203CF900200078FF2812
S31508007EA008BF0020704780B502220021FFF7EAFFCD
S31508007EB04FF6FF71884208BF002002BD80B501F069
S31508007EC0A5FD0FF00BFE0FF081FDDFF8B0150A884F
S31508007ED0821A92B2C92AA8BF088001BD80B500F0EF
S31508007EE0D0FDFF2804D018B9DFF89405007802BD44
S31508007EF0002002BD10B50168DFF888250B881380BD
S31508007F004B885380497911710168097951714FF489
S31508007F108251D18001688979890644BF4FF483511B
S31508007F20D180DFF864458269A1783AB9C088DFF85C
S31508007F305C25108001F0FD00A07010BD41F0020123
S31508007F40A17016228169201D0DF0B6FA0020207155
S31508007F5010BD80B5002001F0EAFCFF2000F0E0FD2E
S31508007F6001F0F3FC00F005FB02460121DFF81005DD
S31508007F700DF0E5FADFF80C35DFF81425DFF81405FF
S31508007F8052210FF063FE0DF0CAFC0FF091FE03F0CC
S31508007F9020FF0FF08FFE04F0B3FEBDE8014000F0AD
S31508007FA0BDBB70B500240FF20C5501E0B047641C48
S31508007FB0E4B255F82460300003D001F0DFFC012854
S31508007FC0F4D170BD80B501F0CDFF20B9FEF7A5FA52
S31508007FD008B901F0DEFC01F010FDBDE8014001F032
S31508007FE01ABD10B504462068407900F04AFDFF28FE
S31508007FF01DD0DFF8A414227F01EB0010017B91420B
S3150800800015D1226840881188884206D04FF6FF733A
S3150800801099420CD1B0F5004F09DA2079022818BF29
S31508008020032806D11189507901F0C3FC08B900204C
S3150800803010BDA07B002820461CBFBDE810400FF0ED
S31508008040E3BEBDE810400FF00BBFF0B589B00F4690
S3150800805014460E99DFF8306400251A46032B73DBA5
S3150800806094F800C05FEA4C7C01D5052B6CDB0190C7
S315080080708DF80870ADF80A100394ADF81020207832
S3150800808000F001008DF81200207800F004008DF849
S3150800809013002078C00800F001008DF819000120AF
S315080080A08DF818009DF8130058B101212046FFF7F6
S315080080B0E9FEADF814009DF81800801C8DF818002C
S315080080C001E0ADF814009DF81800015D8DF8161052
S315080080D0401C8DF81800C0B2015D0F9C8DF8171072
S315080080E0401C8DF81800079403F0DDFC8DF820007D
S315080080F001A8F0619DF81600307001A8FFF7FAFE96
S3150800810001A801F072FCF0B9FCB9042F18BF052FBD
S3150800811003D0022F18BF032F01D1012200E000224D
S315080081200198408800900121019803889DF817005E
S3150800813000F0D8F860B101988079800608D401214A
S3150800814001A800F0CDF8012529E0207D800726D575
S3150800815001984079FF281ED10024DFF8287300F023
S3150800816008FAE4B284421AD2204600F006FA80B130
S3150800817001A8FFF7BFFE204600F085FC019948716B
S31508008180204600F080FC387101A8FFF72AFF00B1ED
S315080081900125641CE3E701A8FFF723FF0546FFF75F
S315080081A011FE16220021301D0DF0C9F90020F061DC
S315080081B009B02846F0BDDFF8E4020178491C0170D1
S315080081C001F07F0070477CB5DFF8BC42A378D90779
S315080081D001D5002076BD6278DFF8A812012A03D1FE
S315080081E0CA8842F0400205E0022A04D1CA884FF63E
S315080081F0BF752A40CA80DFF89C222578167876074C
S315080082004CBFD5705570DFF888522D889B0708D566
S315080082102946201D01F0D3FBA17801F0FD01A170CC
S3150800822076BDDFF868321C884FF6FC739C4208DA84
S31508008230009201900A462B4621460020FDF735FF9D
S3150800824076BD009013462A462046FDF715FF76BDF3
S315080082500020B8E70A460146DFF82C02C06901E0AB
S315080082600021F7E770B504460D4620791646002822
S3150800827018BF01280AD1A0680078C00600D52DB11C
S31508008280A07B002804BFE07C0B2801D1002070BD2C
S31508008290DFF8FC0100210180607D00280CBF082062
S315080082A00020E17B11B9FFF7A3FD06E040F00400CA
S315080082B0FFF79EFD208AFFF7A6FDA07CFFF798FD35
S315080082C00B20FFF795FDE07CFFF792FD2846FFF7A8
S315080082D08FFD2046FFF70EFE3046BDE8704072E778
S315080082E00022BFE738B51D46049C03460A46A1B2DC
S315080082F0284601F051FB00B1012032BD38B5D288BD
S3150800830052244FF6FD73950648BF4924550544BFC8
S31508008310083CE4B2150544BF083CE4B2120444BF65
S31508008320A41EE4B238B102280BD006D3032804BF32
S31508008330641EE4B209E00B4607E0C8B206F09FFFE8
S3150800834002E0C8B201F027FC0346184603F06CFDAC
S31508008350201AC0B232BD70B504460D00164602D1C9
S315080083600020207070BD2846FFF798FD864288BF1A
S3150800837006463246691C601C0DF09EF8267070BDD4
S3150800838070B504460D00164603D1002060702070B3
S3150800839070BD2846FFF787FD864288BF06463246E7
S315080083A0A91CA01C0DF088F82670300A607070BDF4
S315080083B02DE97841541E002B38D0052A48DA0025C5
S315080083C000262B460EE0A2EB03084FEAC8080CFA73
S315080083D008FC4CEA06061EF801C00CFA08FC4CEA32
S315080083E005055B1CDBB2934208D2A4EB030E0028FA
S315080083F00CBF4FF0000C1EF800C0E4E7042A0FDAA1
S31508008400D0000121D200401E9140494246FA00F2AE
S31508008410D20748BF0E4345FA00F0C00748BF0D43D0
S31508008420B5420EDBAE4213DA0FE05B1CDBB29342B9
S315080084300ED2E51A00280CBF00262E5C6D5CB542EC
S3150800844001DA012005E0AE42EFDA4FF0FF3000E036
S315080084500020BDE8728100210FF2440201E0891C68
S31508008460C9B28B5C8342FAD388184078704728389B
S3150800847008288041C00F704701F0CABAACFF002037
S31508008480D1FF002030F9002074F300202CF90020D9
S315080084902EF900203CF90020C0F6002094F30020B5
S315080084A007021F012F0037013F005701DF02E700CF
S315080084B0FF020000155B0008BD7E000800000000F2
S315080084C000210FF21C028B5C834202D18818407887
S315080084D07047891CC9B22C29F5D3002070470000C3
S315080084E019021B041D06180110010801310230018A
S315080084F0F008290221022A0322032B042304250655
S31508008500260728012001F110E004E2040FF2F870B2
S315080085100FF6E812007882B001218DF803000FF2F9
S31508008520EC700088ADF806000FF2E4700088ADF82C
S31508008530040000208DF80200ADF80000DFF8F4060C
S3150800854001749DF803100170BDF806104180BDF84E
S31508008550041081809DF8021081719DF8011002EBCC
S31508008560C10181609DF80010017302B001214173B9
S315080085707047DFF8C006007C7047DFF8B81601EBD5
S315080085800010407B00F001007047412818BF4228C0
S3150800859003D0432818BF442801D101207047002082
S315080085A07047412818BF422801D101207047002092
S315080085B07047432818BF442801D10120704700207E
S315080085C07047F8B51546069A04461E4600F0FFF9A8
S315080085D060B1042100F035FB070007D0204601F002
S315080085E0ABF9324629462046B84793E0F1BD2DE956
S315080085F0FC470B9C8046894617001D461CBF0A9EF1
S31508008600002E1DD0E5B1307800074CBF40228022ED
S315080086107988387900F0DBF990B1082100F011FB70
S31508008620824668B1387901F087F9019400962B469D
S315080086303A4649464046D047BDE8F34701F085B972
S31508008640BDE8F387F8B5164605461A4600F0BFF9A1
S31508008650D8B1069CA4B25CB9022100F0F2FA040073
S3150800866013D0284601F068F931462846A0470BE0A2
S31508008670102100F0E6FA070007D0284601F05CF959
S31508008680224631462846B84744E0F1BD2DE9F04771
S3150800869082B090460A9E0B9C0C9D0D9F81461A46F9
S315080086A000F095F908B9862015E04FF0000AB6B231
S315080086B086B9202100F0C5FA06000BD0484601F01D
S315080086C03BF900972B46224641464846B047824624
S315080086D001F03BF95046BDE8F687F8B50446A568AB
S315080086E0207801F029F9002610E02968142000FBFB
S315080086F006172078398801F04EF90121384600F02E
S31508008700A0FA01001CBF20788847761C2879F6B2A3
S315080087108642EAD3BDE8F14001F017B938B500241E
S31508008720DFF8105508E02046FFF727FF18B105EBDC
S315080087300410FFF7D2FF641C287CE4B28442F2D30B
S3150800874031BD10B5002301E05B1C001D9BB28B42B6
S3150800875004D204889442F7D1408810BD002010BD89
S315080087600288B2F57C4FA8BF00F00BB80FF2506034
S31508008770081A0C2190FBF1F292B200210FF28870D0
S31508008780DFE70FF26061401A142190FBF1F292B212
S3150800879001210FF27070D4E710B50C460188628883
S315080087A091420DD1027B23791A4209D0B1F57C4F4B
S315080087B004DBFFF7E6FF2189884201D1012010BDBD
S315080087C0002010BD10B514460A88E3889A420AD1DB
S315080087D00288B2F57C4F04DAFFF7C2FF2189884286
S315080087E001D1012010BD002010BD2DE9FE4F002546
S315080087F082B00446AA46DFF83CB404E0C0884519AE
S31508008800ADB20AF1010A9BF810005FFA8AFA8245AE
S3150800881080F0B1804FEA0A1101EB0B0011F80B103A
S31508008820227880689142E9D100905046FFF7A5FE6C
S315080088300028E6D0002704E0B8F80A004519ADB2CA
S315080088407F1C00980079FFB28742DAD2009909683E
S31508008850142000FB071821464046FFF79DFF002815
S31508008860EAD04FF0000908E030793021084202D1F9
S31508008870F0784519ADB209F10109B8F808001FFAF0
S3150800888089F98145DCD2D8F804100C2000FB0916BA
S31508008890224631464046FFF795FF0028E4D0029865
S315080088A000B106603079810611D50FF21451002205
S315080088B006E00B799B0602D5CB789A1892B20C3152
S315080088C0B142F6D302EB0B0101F1140A03E005EB02
S315080088D00B0101F2120A0E9D1DB1039FDFF8589392
S315080088E006E00399002944D057468A46DFF84C9398
S315080088F0C0060BD531464046FFF732FF03460398BC
S315080089000090324661882078C84735E0BDF81000E7
S3150800891096F8028000280CBFF47804464046FFF714
S3150800892040FE30B1621ED2B239465046FFF713FDFB
S315080089301FE04046FFF73DFE30B1A21E92B239460F
S315080089405046FFF71DFD14E03DB9BDF8100020B1F3
S31508008950F178884238BF89200ED3002F224604D1E9
S31508008960002150460CF0EBFD03E0394650460CF06A
S31508008970A3FD002000E0862005B0BDE8F08F58B5BD
S315080089800346002403E0067B360615D4641C1879D2
S31508008990E4B284420FD21E68142000FB04600688E5
S315080089A08E42F3D142B1802AEDD0402AEED1067B21
S315080089B07606EBD552BD002052BD80B5402200F0A8
S315080089C006F800B1012002BD80B58022F7E738B568
S315080089D00C46154600F055F8FF2801D1002032BD97
S315080089E0944B2A46214603EB0010BDE838408068C0
S315080089F0C5E74022FFE72DE9F84304468846914635
S31508008A000025FFF7E4FF08B9FF2016E00026894F86
S31508008A1002E04019C5B2761C387CF6B286420BD203
S31508008A203001C05DA04207D04A464146FFF7CFFF56
S31508008A300028EED00120ECE72846BDE8F28330B5E1
S31508008A4000227C4B00E0521C1C7CD2B2A2420AD205
S31508008A501401E55C8542F6D119B1E418647BE40794
S31508008A60F1D5104630BDFF2030BD80B50021FFF797
S31508008A70E6FFFF281CBFBDE80240FFF77EBD0020C9
S31508008A8002BD0121DBE700016A49405C704738B541
S31508008A900C46FFF7F6FF01460020FF291FBF654A6F
S31508008AA002EB01118968002914D0002203E01B0695
S31508008AB048BF2846521C0B79D2B29A4209D20D6891
S31508008AC0142303FB0253451C1B7B002CEFD05B06CB
S31508008AD0EEE7C0B232BD70B50C461546FFF7D1FFBA
S31508008AE00021FF281AD0534A02EB0012002301E0A6
S31508008AF0491C5B1C90680679DBB2B3420ED200684B
S31508008B00142606FB0300067B15B1760602D4F0E7A9
S31508008B103606EED5C9B2A142EAD170BD002070BDB5
S31508008B200021FFE72DE9F14F86B08A4602F0BBFF28
S31508008B30059000259DF81800019000E06D1C3D4841
S31508008B40007CEDB2854270D20198FF2806D09DF8C8
S31508008B501800FFF796FF0546FF2D66D0354800EB4F
S31508008B6005160198FF2803D1307B05998842E5D17F
S31508008B70002700E07F1CB0680179FFB28F4251D20E
S31508008B800068142101FB07084FF0000913E00120D3
S31508008B90009000235A46002102A8FFF726FEBAF1E4
S31508008BA0000F06D0BDF80A2031782346584600F053
S31508008BB047F809F10109B8F808001FFA89F981454B
S31508008BC0D8D2D8F804100C2000FB09142079C00666
S31508008BD0EFD430788DF80800B8F80000ADF80A0030
S31508008BE0207940064CBF802040208DF80C00214695
S31508008BF02088ADF80E004046FFF7B2FDADF810002C
S31508008C002179E078490706D5D4F808B00328BEDBF1
S31508008C10DBF800B0BBE70328B4BF04F1080BD4F8AF
S31508008C2008B0B4E70198FF2888D007B0BDE8F08FF0
S31508008C3000000000C0F60020BB990008B79900089C
S31508008C40704718B5047B012200230C4205D1002089
S31508008C5012BD144218BF5B1C5200D2B28A42F8D326
S31508008C600069DBB250F8230012BD2DE9FC470A461D
S31508008C70002701210028507D07D010B94FF0020CBB
S31508008C8009E0012805D18C4605E010B94FF0080C1B
S31508008C9001E04FF0040C0A980B9CDDF83090DDF8E3
S31508008CA034A00FF27008BE4680B238F82E60BDF8C0
S31508008CB00050AE421CD108EB8E05EE7816EA0C0F72
S31508008CC016D0AE784E4513D3EE78F606D67B01D588
S31508008CD00EB90DE066B9BA4501D0874201DB00211D
S31508008CE00DE0AE78FE547F1C2688761C2680BFB21F
S31508008CF00EF101061FFA86FEBEF12B0FD5DB0846DC
S31508008D00BDE8F6870000000001000000040100002D
S31508008D100700000003000009030000020300010920
S31508008D20040000010400010104000201040003011B
S31508008D300400040104000501050000010500010105
S31508008D4005000201050003010500040105000501EF
S31508008D5005000601060000010600010106000201E1
S31508008D6008000001080001010800020108000301CB
S31508008D7008000401080005010800060108000701AB
S31508008D80190000021900020219000502190007025B
S31508008D90190009020003070100030801000309017D
S31508008DA0000500010005000400050104020700048F
S31508008DB002070104020702040207030402FC001862
S31508008DC0000020012000000001000000070030011B
S31508008DD02000000000000000000021020100000041
S31508008DE00000000000000000C08D0008020000001E
S31508008DF0400000000000000001000000D88D0008B7
S31508008E0000000000800000000000000003000000D1
S31508008E10D88D000800000000800000000000000057
S31508008E2003000000D88D000801000200430000007E
S31508008E3024F3010804000000E48D00080000000087
S31508008E40800000000000000005000000E48D000816
S31508008E50000000008000000000000000060000007E
S31508008E60E48D0008000000008000000000000000FB
S31508008E7008000000E48D00080000000080000000E3
S31508008E800000000019000000E48D00080000000042
S31508008E90410000002CF3010800030000E48D0008DF
S31508008EA0000000008000000000000000000500002F
S31508008EB0E48D0008000000008100000030F301087E
S31508008EC002070000E48D0008000000008000000092
S31508008ED000000000050B0000E48D000800000000FB
S31508008EE0800000000000000002FC0000E48D00087D
S31508008EF0000000004000000000000000E48D0008AB
S31508008F000E0002000D00601100000000FEB50646C6
S31508008F100D461746274CA16829B1082201A80CF06E
S31508008F20CBFA01A8A06037B9FDF7E9FC6188814250
S31508008F3018BF012700D1002730460DF0FEFA00AB16
S31508008F403A46014630460DF045F910BB012020701F
S31508008F5002F0B3FD9DF8002061682846FDF7B5FECE
S31508008F6002F0B1FD9DF80000FF2818BF08F0D2FFF7
S31508008F706DB96068C18848F240021140402906D19F
S31508008F802178490703D4FF21408809F026FE0020EE
S31508008F902070F7BD084900E00849097801700020EB
S31508008FA070470448017811B94FF6FF70704740883A
S31508008FB07047000090FC0020DAFF0020DBFF00204D
S31508008FC000F10103810704D010F8011B89B181075C
S31508008FD0FAD10268B2F10131914311F0803F04BF22
S31508008FE050F8042FF6E710F8011B11B110F8011B11
S31508008FF0FBE7C01A7047000000220FF05FB90000B7
S3150800900010B592B09B4CFCF73CFB40B920744FF668
S31508009010FF70208060804FF0FF30606002E000F053
S3150800902070F908B9012008E0002100A800F059F8F5
S31508009030401E8041C00F2074002012B010BD70B5CC
S315080090408C4D0446288889B292B01E46814202BFDA
S31508009050688892B2824212D1A6B1002100A800F017
S3150800906040F860B99DF8040040070BD53088BDF874
S315080090704210884224BFBDF84410814202D22046DD
S315080090807D4901E02046294610220FF057F912B013
S3150800909070BD38B50446774D0846297C09B90120C4
S315080090A032BD002100F01DF828B9102221462846B5
S315080090B00CF04CFA00B10120C0B232BD10B56D4CAF
S315080090C0217C39B10146102220460CF03FFA08B936
S315080090D0606910BD002010BD1022002165480CF003
S315080090E02EBA2DE9F04192B00446002500AA462181
S315080090F0002000F090F9002800F08980482200211D
S3150800910020460CF01CFA04220FF2941100A80CF069
S315080091102BFA00287BD101A800F0B0F82080B0F522
S31508009120807F74D10DF1060000F0A8F8608002A8CF
S3150800913000F0A4F8A0800DF10A0000F09FF8E08086
S3150800914003A800F09BF820810DF10E0000F09CF8B2
S31508009150E0600DF1120000F091F820822122002132
S3150800916004F112000CF0EBF9202205A904F1120013
S315080091700CF0A2F90DA800F087F83E4E6063706106
S31508009180FFF7AAFFE088308020897080E068706069
S31508009190A088002842D00027A088C10706D51FB19D
S315080091A000A9695C84F838106D1CEDB2800711D5EA
S315080091B077B100A805EB00080822414604F13900FA
S315080091C00CF07AF90822414606F108000CF074F909
S315080091D00835EDB22079400710D56FB100A805EB28
S315080091E00008404600F04AF8A4F8420008F10200D8
S315080091F000F044F8A4F844002D1DEDB257B9472DE8
S3150800920005DA00AA2946382000F005F908B9012030
S3150800921005E038257F1CFFB2022FBDDB002012B007
S31508009220BDE8F0812DE9F0410C461546069F114E22
S315080092309846102231460CF089F950B97069001B1E
S31508009240A84238BF054642462946204600F0E3F8BC
S3150800925008B9012001E03D600020BDE8F08110B5A5
S315080092600FF097F90446034800210174FFF734FF0D
S31508009270204610BDBCF9002014F301080178407897
S3150800928001EB002080B2704738B50446FFF7F6FFB9
S315080092900546A01CFFF7F2FF05EB004032BD0000B3
S315080092A01EF1EE0B80B5042200A90FF053FA9DF8C3
S315080092B000009DF8011000EB01209DF8021000EB5C
S315080092C001409DF8031000EB016002BD38B5054664
S315080092D00C462046FFF7E6FFA8420FD0280A8DF86D
S315080092E001008DF80050280C8DF802000422280E83
S315080092F08DF8030000A920460FF0BEF931BD5B4882
S31508009300D0E780B50FF0AAF950B10FF0A7F9C068F9
S31508009310B0F5483F04D28B210FF2581004F0FCFD3B
S315080093200FF09BF8012002BDF8B504460D462068EB
S315080093304F490F1800264D48FFF7B4FF21688142B0
S3150800934007D22A685218904204D2401A0126286089
S3150800935000E00F1A27603046F2BD2DE9F04383B0CE
S31508009360044688461E4601270096019200A901A8D0
S31508009370FFF7DAFF00B10227B6F5803F17D2DDF80E
S315080093802890002502E0301A00906D1CEDB2BD420F
S3150800939018D2009A002C92B204D0019849460FF0D0
S315080093A0D9F903E0019841460FF066F908B10020A3
S315080093B009E0022FE9DB0190002C009814BF8144D4
S315080093C08044E0E70120BDE8FE8310B586B00FF2C1
S315080093D0BC011CC903A800F018F80FF0BBF90A2253
S315080093E000A903A80CF0B2F8002814BF0020012039
S315080093F006B010BD10B584B00FF29C011CC900A8B8
S3150800940000F003F80FF038F91FBD00A91CC00A22A6
S315080094104FF44730704780B500920B46024600214C
S315080094200120FFF79AFF02BD70B582B004460D0011
S3150800943016460CD1082E01D2002076BDA079E27915
S315080094400A4900EB0220801D80B2FFF73FFF00208B
S31508009450009033462A462146FFF77FFF20B10021B8
S3150800946070190FF065F8012076BD00000A1C03008C
S315080094700E1E03006F74612D73746F726167652D1C
S31508009480656570726F6D2E630000000001090501A5
S3150800949000020000000200000109050100020000A8
S315080094A000020000F0B5064697B00F4615467288CA
S315080094B0318898243B4600A8FFF7C1FD284600A935
S315080094C010220EF03BFF28460FF088F918B387B133
S315080094D004A92846FFF7DDFD9DF81400400708D5C6
S315080094E03888BDF85210884224BFBDF8541081420E
S315080094F011D32E4A7068696812784AB1022A01D0D7
S3150800950003D308E0814206D104E0814203D201E098
S31508009510884200D20024204617B0F0BD10B584B0AA
S3150800952004460020ADF8060002F0D2FC28B1BDF8CA
S31508009530060040F02000ADF8060000AA21460020EB
S31508009540FEF7DCFE1138C0B204B010BD817C01F014
