S01900005A30315F41313945554532375F526F62696E2E73333775
S31508002000B81F002029010208A5000208A700020837
S31508002010A70A080100210008040303AC00537A014B
S3150800202000000000000000000000000000000000A2
S315080020300000000000000000000000000000000092
S315080020400000000000000000FFFFFFFFFFFFFFFF8A
S31508002050FFFFFFFF00E002081A0000000000000072
S31508002060FFFFFFFFFFFFFFFFFFFFFFFFFFFFFFFF72
S31508002070FFFFFFFFFFFFFFFFFFFFFFFFFFFFFFFF62
S31508002080F02F002000000000EF2F0020EF2F002087
S31508002090B81F0020F41002085C0302085816002036
S311080020A0680D0020000003080030002036
S31508002100B81F002029010208A5000208A700020836
S31508002110AB000208A9000208AD0002082401020863
S3150800212024010208240102082401020824010208E5
S31508002130AF000208240102080D030208974B0008A5
S315080021400D00020824010208215F00082401020884
S3150800215097940008F584000824010208240102085F
S31508002160BD7A00084D420008DB3C000891210008B2
S31508002170FD8500082401020845860008FB4E000874
S31508002180238F0008240102082401020825010208F9
S3150800219070B5A048A04942780B685B0724D5032A86
S315080021A022DA00EB420384889C810123847803FAAF
S315080021B002F222438270994C027892B1002522FAE3
S315080021C005F6F60708D54570AB405A40027000EB95
S315080021D04500808A206007E06D1CEDB2032DEEDB1A
S315080021E002E02260032242704FF6FF700860BFF3D8
S315080021F05F8F70BD38B500F01DF986490A78FAB1C7
S31508002200864B1C68E4071BD4002422FA04F5ED0764
S3150800221011D50125A5404C706A400A7001EB4401AE
S315080022204FF6FF72898A19607B490A604FF400628B
S315080022307B490A6005E0641CE4B2032CE5DB00E098
S31508002240032400F0FDF8204632BD724800210170D3
S315080022500022032141700021C1700521018100215E
S315080022608170001D6D490A604A604FF400428A6019
S315080022701022CA604861012088610320C8600421D1
S31508002280654801644FF6FF7101604FF400616448C8
S31508002290016000F014B970B504462A2901D001205E
S315080022A070BD5C4D2989D00040EA4330084305EBF0
S315080022B044018882012000FA04F6287830420FD1BA
S315080022C000F0B8F8297831432970A978B143A97084
S315080022D000F0B6F8FFF78EFFA04201D1812070BD4D
S315080022E0822070BD2DE9F843044688464D4F4C4D73
S315080022F000F084FB48B92868000506D538688008C8
S3150800230000F0010080F0010600E0012600F092F8D6
S3150800231081463EB12868000504D53868400748BF9D
S31508002320FFF736FF3B498A780120A04022FA04F3DA
S31508002330DB0708D501EB440350409B89A8F8003019
S315080023408870802409E00A78024218BF822404D1E2
S315080023504878A0420CBF81248424484600F070F8CF
S315080023602046BDE8F28338B504460D462946204680
S31508002370FFF7B8FF842818BF8028F7D132BD38B5D3
S315080023800446072389222A21FFF785FF214D05F1F7
S315080023901C012046FFF7E7FF802809D10723B92249
S315080023A02A212046FFF777FFA91D2046FFF7DBFF06
S315080023B0802805D1E988AA8B891AE980012101E0DC
S315080023C000210120E97032BD38B5124D0446E8787F
S315080023D008B9FFF7D4FFE878D0B1B5F9060020B9F7
S315080023E00FF24800FF2100F013FBB5F90600B5F916
S315080023F01C1000EBD072611A521002EB014191FBDE
S31508002400F0F401F0E0F8604300EB8000001432BD00
S31508002410054832BD8823002010A8004004D000409B
S3150800242000E100E050A800400080FFFF6164632ED1
S3150800243063000000EFF31180602181F31188704773
S3150800244080F3118870470000DFF8D43433F81000A1
S315080024501040C840704730B5DFF8C8340FF27454DE
S3150800246034F810409C60DFF8B84434F810509543AF
S3150800247011402943D96002221A6000221A6024F802
S31508002480101058680028FCD130BDDFF89C04DFF82E
S315080024909C148A780AB149780FE089566FF00802C9
S315080024A09142B8BF302108DBC16D39B140F24A31DB
S315080024B0C26DB1FBF2F189B2C91E01607047E0B581
S315080024C00A237F22DFF8680400F062F84FF6FF72ED
S315080024D0BDF806100D20FFF7BEFF07BDF8B5054687
S315080024E0DFF84844B5F5004F19D102237F22DFF8FB
S315080024F0440400F04DF8BDF80000000AFF2814BF98
S31508002500002818206070BDF800000006C00E1028CC
S315080025101CBF001D00F091F9BDF80000C543E07826
S3150800252008B1002005E0A089ADB26840C00701D512
S315080025300120E070A58105F00106C5F34007DFF824
S31508002540F803016841F4004101604FF440520FF26C
S31508002550A84000EB46004078010389B20220FFF745
S315080025607AFF304601F0F0F84022B90100F0FCF994
S315080025702D06A80E00F001003843A070FFF785FF6E
S31508002580E07818B1FFF79BFF0020E0700020F2BD4D
S31508002590018800A801F04EB92DE9F04F87B0DFF8A1
S315080025A09C53287804900B38C0B203900423039AEE
S315080025B00B2100A801F0C0F99DF800008DF80A006B
S315080025C09DF801008DF809009DF802008DF80800B5
S315080025D09DF803008DF80500D94E3078012804D1FE
S315080025E06878471EBF41FF0F00E0012701F044FC51
S315080025F080469DF90200A8F10A0408F10A0A504526
S31508002600B6BF84424FF0010B4FF0000B012003992F
S315080026108840ADF806009DF80100000604D4A88895
S31508002620BDF80610084201D04FF0010B01F0BAFCC4
S315080026309DF8030000060AD4E888BDF8061008428B
S3150800264005D19DF900005045B8BF844202DB4FF022
S31508002650010901E04FF000094BEA070059EA0000BA
S3150800266000F09B80B748006800F002008DF804006F
S31508002670DFF8D4A2DAF8000000F4E0600590B34869
S315080026804FF4E0610160002002F07AF802F0C2FA25
S31508002690AF4CA7B1687850B1AA4800684008400016
S315080026A0A84908600120307000F0CFFF07E02068D5
S315080026B040F400502060206820F480502060307874
S315080026C001280CD102F0BBFB9E48006840F00100CF
S315080026D09C49086000203070642000F0B6FF2FB1D6
S315080026E0687818B90498C0B202F047FC687838B11F
S315080026F0206820F480502060206840F40050206054
S31508002700BDF80600C643BBF1000F08D002F022FD53
S315080027108DF801008DF80280A8883040A880B9F1AC
S31508002720000F08D002F0BDFD8DF803008DF800807B
S31508002730E8883040E8809DF900009DF90A10884233
S3150800274002BF9DF801009DF8091088420BD19DF93A
S3150800275002009DF90810884202BF9DF803009DF803
S315080027600510884206D0042300AA0399C9B20B2093
S3150800277001F009F90598CAF8000001F03DF99DF83D
S31508002780040001F0FDFF02F0B0FE687828B148F2B7
S3150800279060702060642000F058FF9DF8010002F088
S315080027A043FC9DF8030002F077FD07B0BDE8F08F03
S315080027B080B501F05DFBBDE80140EDE601F058BBD0
S315080027C070B50646A6F10B0401F03DFF0546A6F1D5
S315080027D00B00C0B2102801D38A2070BD5D488168FD
S315080027E0090702D40068C00701D58C2070BD53487C
S315080027F0067059490A680C2A0ED0A4B20FF26C1258
S3150800280032F8242090F908008018C861FFF7C4FE42
S31508002810012D08BF01F0ABFE002070BD10B50446BF
S3150800282001F026FB2046BDE81040C9E7434800787A
S3150800283070473E4890F9000070472DE9F04186B090
S3150800284006466FF02A00864246DB14237F22434859
S31508002850FFF79EFEBDF810004FF6FF71884203D0C1
S31508002860400448BF012506D43F2200211020FFF767
S31508002870EBFD044600252D48394906F12B02D2B254
S315080028802F2A1AD213220FF2241300E0521ED2B2B4
S3150800289013F91270BE42F9DB03EB420676780E6036
S315080028A013F8121001700020002680460327ADB1E8
S315080028B04FF6BF72BDF8101029E0092E0CDA325C0B
S315080028C00A60067014237F222648FFF761FE03205C
S315080028D00126B0462827EAE78B201DE04FF4605210
S315080028E0C10200F041F84FF4E062310200F03CF812
S315080028F080224FEAC81100F037F884F020003C180F
S31508002900A4B2402C28BF3F243F2284F0200100F0C7
S315080029102BF8FFF7BAFD002006B0BDE8F0810000ED
S31508002920682C0020E81000406410004010220020A7
S315080029300C0D0208160D02081C1000400622002085
S31508002940D12200208020004000E100E080E100E084
S31508002950D010004060200040AC100040080D02086E
S31508002960C01000400A0D02080B2074E5AA212900B0
S315080029705523290000252800AA26270055282700C0
S31508002980002A2600AA2B2600552D2500002F2400F4
S31508002990AA3024005532230000342200AA3522002A
S315080029A05537210000392000AA3A2000D500E60153
S315080029B0EC02EF03F204F405F506F707F808F9093F
S315080029C0FA0AFB0BFC0DFD0FFE11FF130016011989
S315080029D0021C031F100011002000300040004100B7
S315080029E050006000700080009000A000B000C00099
S315080029F0D000E000F000000000000103EFF31180B2
S31508002A0060288041C043C00F7047000042DE70470F
S31508002A1038B504460D4602F0BFFDFFF70BFD294603
S31508002A20204602F047FE2B4622460FF28851012027
S31508002A3003F00DFA29462046BDE83440E6E72DE9BD
S31508002A40F843DFF84C05DFF84C650168371D4FF48D
S31508002A5020657965016AB965DFF83C150968F96585
S31508002A60416A3966816A7966C16AB966016BF9662F
S31508002A70806B386797F8340040074CBFFC6BBC6B1B
S31508002A80A04603F0CFFAA64638658645DFF80C154A
S31508002A90DFF80C25DFF80C3524BFA3F12009F14532
S31508002AA020D354F818EFC7F840E054F804EF7C6DCB
S31508002AB0C7F844E0E405E40D062C17D13C6CA6469D
S31508002AC0964513D38E4511D224884DF6426E744529
S31508002AD00CD106F18C04756865607D68A56040F2C6
S31508002AE0017503E000243C647C648046DFF8B84442
S31508002AF0A04202D2204600E0001D984204D2D0F837
S31508002B0000E0BEF1CD3FF7D0181AB8640020F8648B
S31508002B10844606EB8004401CC4F878C00628F8DB17
S31508002B20002004E0C0B206EB800CCCF8784098454B
S31508002B302DD253F8044D9442F9D38C42F7D25FEA6A
S31508002B40C47CF4D54FF0000C06EB8C0EDEF878E06A
S31508002B50A64506D00CF1010C5FFA8CFCBCF1060FF9
S31508002B60F2DBBCF1060FE2D1002814BF401E052097
S31508002B70D8E77C6F4FF0000C06EB8C010CF1010CCA
S31508002B80CA6F8A67BCF1050FF6DBC6F88C400146AA
S31508002B90481EC9B20029ECD1786DC005C00D0228BF
S31508002BA00AD0032816D0042817D0052818D00628D6
S31508002BB019D00C281DD01FE0DFF8F003016889073B
S31508002BC048BF40F602151CD40068C00719D540F264
S31508002BD0025516E040F6012513E040F6022510E0FE
S31508002BE040F603250DE0B5F5206F0AD140F6042519
S31508002BF007E040F6052504E018B1242838BF40F65A
S31508002C0007252846BDE8F2832DE9F04FDFF88453FF
S31508002C108046A86B85B0410707D50FF2AC312E6CFC
S31508002C202F6D03910024A14607E00FF2A431EE6B45
S31508002C30EF6CDFF8709303916C6D00074CBF0FF2D1
S31508002C4098320FF29C32B9EB040A07D064204FEA97
S31508002C505A0100FB0710B0FBFAFB01E04FF0000B2E
S31508002C600296CDF8049000944046039B0FF2783103
S31508002C7003F084F80FF2A0311FFA8AF001901FFAC8
S31508002C808BF303980090BAB2404603F077F895F8AC
S31508002C90380040070CD4AAF19800874208D1686D1D
S31508002CA0C149884204D20FF2AC31404603F066F8B7
S31508002CB0B14528BFA64205D2039A0FF2C431404651
S31508002CC003F05CF8404603F0B1F8286EE8B10FF25D
S31508002CD0D031404603F04AF80026A8A70FF27474CC
S31508002CE0286EF040C00707D554F82620107818B18A
S31508002CF03946404603F03AF8761C112EF0DB40467A
S31508002D0005B0BDE8F04F03F01DB8404605B0BDE874
S31508002D10F04F0FF2BC3103F031B82DE9F0479D4F63
S31508002D200FF2B0590FF2C8560FF2B0680FF2284AE0
S31508002D30044607F1440503F0D9F940F20151401A57
S31508002D4016D0401E17D040F2FF11401A35D04FF466
S31508002D504071401A39D0401E53D0401E73D0401ED1
S31508002D6000F0B080401E00F0C880401E06D0C2E0C9
S31508002D700FF2743142E00FF2B031C0E0E86C01287E
S31508002D8006D0032807D0042807D0052808D00AE06B
S31508002D900FF2E03608E07AA606E00FF2E03603E026
S31508002DA00FF2E03600E077A60FF2E03100F0B5F852
S31508002DB02B6D0FF20041324603E02B6DEA6C0FF2E1
S31508002DC00C41204602F0DAFF90E00FF21C4100F0B9
S31508002DD0A4F8686AC0F3400018B10FF2244100F065
S31508002DE09CF8686AC0F3807018B10FF2504100F081
S31508002DF094F8686AC00F79D00FF2744100F08DF824
S31508002E0074E00FF2A84100F088F895F8200010F059
S31508002E10030F01D000F07CF8286AC0F3C01018B17F
S31508002E20EA6A494600F076F80027286AF840C0079B
S31508002E3005D500F069F810B1314600F06BF87F1C33
S31508002E40082FF2DB52E00FF2B04100F066F800F00E
S31508002E505FF8286AC0F3802018B10FF2B44100F079
S31508002E605CF8286AC0F3C03018B1EA6A494600F02F
S31508002E7051F80827286AF840C00705D500F044F835
S31508002E8010B1314600F046F87F1C102FF2DB95F89A
S31508002E902000000603D10FF2C04100F03EF80127DA
S31508002EA00FF2E4460FF29C58286BF840C00705D588
S31508002EB000F02AF810B1314600F02CF87F1C042FD8
S31508002EC0F2DB13E00FF2C84100F027F800F020F813
S31508002ED01027286AF840C00705D500F015F810B184
S31508002EE0314600F017F87F1C1A2FF2DB2046BDE8A2
S31508002EF0F04702F09BBFBDE8F0870FF2B04100F043
S31508002F000CF800F005F8F1E758F827201078704714
S31508002F107A6C5146204602F031BF204602F02EBF99
S31508002F202DE9F0478046DFF888A00FF26C560FF2BD
S31508002F30A049002514A715A406E0404602F016FF8E
S31508002F40404602F073FF6D1C3078A8B15AF8043B6E
S31508002F5032464946404602F009FF16F8010B00289A
S31508002F60FBD1307800281EBFEDB205F00300032818
S31508002F7014BF21463946E0E7BDE8F08720257000F2
S31508002F80414443003F3F00000D0A00002C2000008A
S31508002F9004ED00E00000002000E300E05C03020806
S31508002FA090210008B81F0020980000201CA00040AF
S31508002FB0040000200D0A5B4153534552543A2570CC
S31508002FC03A25645D0D0A000070726F6365737300BD
S31508002FD06D61696E000000005468726561640000E6
S31508002FE048616E646C6572002570206D6F6465209B
S31508002FF07573696E6720257020737461636B20286A
S3150800300025347820746F20253478292C20535020B5
S315080030103D20253478000000257520627974657393
S3150800302020757365642028257525252920696E2055
S31508003030257020737461636B20286F7574206F6622
S3150800304020257520627974657320746F74616C2904
S3150800305000000000537461636B205F6D61795F2027
S3150800306068617665207573656420757020746F20B5
S315080030703130302525206F6620746F74616C2E0000
S315080030805350206973206F757473696465202570C1
S3150800309020737461636B2072616E6765210000009E
S315080030A0496E74657272757074732061637469769B
S315080030B06520286F72207072652D656D7074656461
S315080030C020616E6420737461636B6564293A00003D
S315080030D04E6F20696E7465727275707473206163C1
S315080030E07469766500000000526573657420636133
S315080030F07573653A205761746368646F67206578ED
S3150800310070697265642C206E6F2072656C696162E5
S315080031106C6520657874726120696E666F726D6180
S3150800312074696F6E000000005265736574206361F0
S315080031307573653A205761746368646F67206361C5
S3150800314075676874207769746820656E68616E6350
S31508003150656420696E666F00496E73747275637470
S31508003160696F6E20616464726573733A20253478DA
S315080031700000000053433120527800004D4143209F
S315080031805278000053433220527800005265736526
S31508003190742063617573653A20444D412070726FDF
S315080031A074656374696F6E2076696F6C6174696F94
S315080031B06E000000444D413A2025702C206164645D
S315080031C0726573733A20253478000000526573657A
S315080031D0742063617573653A204173736572742050
S315080031E025703A2564000000526573657420636192
S315080031F07573653A2048617264204661756C74007F
S31508003200484653522E5645435454424C3A2065720A
S31508003210726F722072656164696E67207665637481
S315080032206F72207461626C6520666F7220616E2011
S31508003230657863657074696F6E000000484653527E
S315080032402E464F524345443A20636F6E666967754A
S315080032507261626C65206661756C7420636F756C4B
S3150800326064206E6F7420616374697661746500000A
S31508003270484653522E44454255474556543A2066C9
S3150800328061756C742072656C6174656420746F2056
S315080032906465627567202D20652E672E2C2065785B
S315080032A065637574656420424B50540052657365B6
S315080032B0742063617573653A204D656D6F72792068
S315080032C04D616E6167656D656E74204661756C74D7
S315080032D000000000496C6C6567616C20616363657A
S315080032E0737320616464726573733A2025347800B9
S315080032F0434653522E2570005265736574206361E8
S315080033007573653A20427573204661756C740000C2
S3150800331041646472657373206973206F6620616EF9
S3150800332020696E737472756374696F6E2061667452
S31508003330657220627573206661756C74206F6363AD
S3150800334075727265642C206E6F74207468652063CC
S31508003350617573652E000000434653522E286E6F22
S315080033606E6529206C6F6164206F722073746F72AA
S315080033706520617420616E20696C6C6567616C20DC
S315080033806164647265737300414653522E2570005A
S3150800339052657365742063617573653A2055736168
S315080033A06765204661756C74000000005265736598
S315080033B0742063617573653A204465627567204DAC
S315080033C06F6E69746F72204661756C740000000038
S315080033D02570203D202534780000000004040208EA
S315080033E0440402087C04020880040208C404020893
S315080033F07C0402087C04020800050208300502085D
S315080034006005020884050208AC050208EC050208F6
S315080034107C0402087C0402082806020858060208EA
S3150800342090060208CC060208FC0602087C0402087C
S315080034307C0402087C0402087C040208340702089B
S31508003440640702087C040208A4070208E8070208C1
S3150800345028080208640802086C08020874080208AA
S31508003460800802088C080208980802089C080208C6
S31508003470A0080208AC080208B8080208C008020832
S31508003480C8080208CC080208D4080208DC080208A2
S31508003490E4080208EC0802085230005231005232A1
S315080034A0005233005234005235005236005237006B
S315080034B052380052390052313000523131005231FF
S315080034C03200523133284C5229004D535000505384
S315080034D0500050430078505352004D535020757396
S315080034E06564005053502075736564004353544116
S315080034F0434B20626F74746F6D00494353520053F7
S315080035004843535200494E545F4143544956450077
S315080035104346535200484653520044465352004DC0
S315080035204D41522F42464152004146535200526580
S3150800353074300052657431005265743200526574F5
S315080035403300526574340052657435004461743032
S31508003550004461743100000010B56D4C002001F084
S31508003560CAFF40F68C218842206834BF40F0080024
S3150800357020F00800206010BD10B582B0044600F0A7
S315080035805FF800A800F056F99DF801009DF80010B4
S31508003590FF2902BFFF280420002104B1801CC0B205
S315080035A0082828BF0720082928BF0721594A136871
S315080035B023F4607343EAC01010601068C00851EA2B
S315080035C0C000106013BD00B583B002237F225248A5
S315080035D0018800A800F02EF9BDF800004FF6FF712B
S315080035E088420EBF4FF4E1600A2190FBF1F0ADF876
S315080035F0000000F026FFC0071FD500F021F801A83B
S3150800360000F018F99DF80500FF2808BF0420811C62
S31508003610C9B20829A8BF0721C1F12F02BDF8003099
S31508003620C0F12F0002EBD272521000FB0320C1F149
S315080036302F01B0FBF1F0ADF80000BDF800000EBD9B
S3150800364002237F2235480188704770B50646344CF8
S31508003650256801F093FFFA2190FBF1F070432F30B3
S315080036603021B0FBF1F0032809D3616D41F0010167
S3150800367061652168491B0903090B8142F9D370BDAD
S3150800368010B5040004D110BD4FF47A70FFF7DDFFC2
S315080036902046441E80B20028F6D110BD704738B5C2
S315080036A00C4620B1012819D003282CD02DE01D4D39
S315080036B094B11D48844204D0CA210FF27400FFF762
S315080036C0A7F901F05BFF4FF47A714843B0FBF4F0B9
S315080036D0401EB0F5005F0ED2286014E05CB101F020
S315080036E04DFF4FF4FA61620801FB0020B0FBF4F0CD
S315080036F0B0F5003F01D3202032BD0C4900F001028D
S315080037004A6040080860002032BD212032BD000012
S3150800371000BC004018000040100D02080E0D0208FB
S3150800372038200040100004E020A1070068C80040C7
S315080037306D6963726F2D636F6D6D6F6E2D696E7433
S3150800374065726E616C2E6300F0B589B00446002080
S31508003750FFF712FF0A237F222548018800A800F0F8
S3150800376069F84FF6FF75BDF80200A84204D1DC21BE
S315080037700FF29400FFF74CF900260FF2A40701E0B8
S315080037802A4616B94FF47C4203E0022E08BF4EF2D1
S315080037903F0200A800F032F8761C052EF0D3012C63
S315080037A003D114237F22134802E014237F221248F0
S315080037B0018803A800F03EF800260FF26C072A4697
S315080037C008E02A46012E08BF4FF6C07202D0082E1E
S315080037D008BF002203A800F011F8761C0A2EF0D3C1
S315080037E0012C04BF0120FFF7C7FE09B0F0BD000099
S315080037F00C0D02080A0D0208080D020830F816100A
S31508003800F05DFEF728BE0000616E616C6F67756536
S315080038102D63656C6C2D626961732E630000000070
S3150800382000100C0D0E000000010203040708090A27
S315080038300B0F000030B50446104683B07F2808BF3A
S315080038400020B1F5004F1AD108237F2240F6120155
S3150800385000A8FFF7EFFF08220FF2380100A802F0D0
S31508003860A1FC30B908237F2240F2A27100A8FFF715
S31508003870E1FF082200A9204602F04AFC37BD044DA4
S31508003880294300FB03111A46204602F041FC37BDC6
S3150800389000000408FFFFFFFFFFFFFFFF30B50FF230
S315080038A04C11DFF83C510A6883B001A80024026075
S315080038B001202870002002F095FC30B1002002F0AB
S315080038C091FC10B12C7049203EBDDFF81801018823
S315080038D002237F220DF1020000F02EF802237F2238
S315080038E0002100A800F028F8204601A9BDF802200A
S315080038F031F81010914208BF0124401C0228F4D365
S31508003900BDF8000024B1B0F57F7F09D100203EBD87
S31508003910B0F57F7F14BF04200620002129703EBD24
S31508003920012002F05FFC002002F05CFC0028EDD0CC
S31508003930002028704A203EBD10B5FF2908DCDFF8B4
S31508003940A040247844B1BDE81040C9B202F070BF67
S31508003950BDE81040FFF76EBF10BD10B5FF2908DCA3
S31508003960DFF87C4024786CB1BDE81040C9B202F09B
S315080039709BBF7F2A08BF0022DFF86C40214302FB69
S315080039800311016010BD2DE9F04105460E461746A4
S3150800399098460FF25C00FF2D13DCDFF844402178CF
S315080039A0A1B1617811B1C221FFF732F80120607028
S315080039B0434632463946E8B203F0A8F8002060705C
S315080039C004E0CD21BDE8F041FFF722B8BDE8F0815B
S315080039D003490978002918BF03F0A7B97047000002
S315080039E0D12F0020140D020800000408FE01FD0274
S315080039F0746F6B656E2E630010B5DFF844451020B2
S31508003A002063FEF717FDDFF83C150A6842F001024D
S31508003A100A60FEF715FDDFF8300560602060616812
S31508003A2089316160012121638A30E060A060E06825
S31508003A308930E06002202063DFF810054FF6FF7139
S31508003A40016010BDDFF8080545F26401C1601E215A
S31508003A50416250210162C821C1618165F021C165B9
S31508003A6045F690014166882181660621C16644F2C1
S31508003A70066101604FF6FF714160DFF8D8040078EF
S31508003A8038B1DFF8D40448F2607101604FF4C151CF
S31508003A904160DFF8C804016841F004010160DFF8FD
S31508003AA0C0040021417070472DE9F84F0446DFF83D
S31508003AB0B4148A2202FB0012121D0092521C53787B
S31508003AC0127802EB03221FFA82FB0BF440424FF0F6
S31508003AD000094FF0010A0BF440630425B3F5006FA3
S31508003AE008BF082503D0B3F5406F08BF0E2513009D
S31508003AF004D05FEA4B635CBFAB1CDDB2DFF8683409
S31508003B001B784B705FEA8B6374D5DFF86064736E5D
S31508003B101B066FD54718009828184FF40068B2F5A9
S31508003B20404F07D103F006FA5FEA000927D005F1EE
S31508003B3008000EE0B2F5004F21D140780099695C83
S31508003B4001EB002080B203F07FFCFF280CD1CA46A7
S31508003B50A81CC0B241080BF00702032A0FD1002C9B
S31508003B6014BF7268326815E0DFF80414096831F882
S31508003B7010004FF4FE61084218BFD146E8D1002074
S31508003B80B870F06DC00635D5B06C002C08BF4FF480
S31508003B90806828E08A42F2D3002C14BF7268326823
S31508003BA04B1C9A42F8D30099405C0428E7D1BAF135
S31508003BB0000F02D10020B87004E00020B870B9F1F7
S31508003BC0000FDED0F06DC0060AD4B06C0CB94FF405
S31508003BD0806810EA080F03D0706C40F0010070642A
S31508003BE00120B87006E010EA080F03D0706C400890
S31508003BF040007064BDE8F18F2DE9FC4E0446DFF8FD
S31508003C0064B38A2000FB04B0071DDFF86053002C5C
S31508003C100CBF286868684600C0B2052805D24FF46C
S31508003C20F6710FF27830FEF7F3FE5FFA86F909EBC4
S31508003C300700A0F108063078717801EB00201FFA1A
S31508003C4080FA9BF80100307003F0C4FC7070C94E0E
S31508003C50F06B20F48050F063686ED4B93068400584
S31508003C601CD41AF4E45F0FD100F087FD10B15FEAA7
S31508003C704A4009D53878802806D204EB0B008278AA
S31508003C804946384603F004FD002C0CBF01200220EB
S31508003C9020E0012CE5D130680005E2D5B648017868
S31508003CA081B100210170B54801681AF4E45F02D0B9
S31508003CB00022402004E07878000900F001028F20F5
S31508003CC003F061FE002C0CBF4FF480604FF40060D7
S31508003CD03060D9E72861BDE8F38E2DE9F84F9B4C93
S31508003CE02068216C01EA0005A04EDFF894A2DFF8EF
S31508003CF08882DFF87092A34F1AE040B14878C00670
S31508003D0005D400229D4801688F2003F03CFE280652
S31508003D1005D503F093FE25F0800580202060E80590
S31508003D2006D503F08BFE25F480754FF4807020606D
S31508003D30002D68D0280706D50020FFF7B5FE25F028
S31508003D40080508202060E80606D50120FFF7ACFE26
S31508003D5025F010051020206005F06000602803D1CA
S31508003D60B06CC0050AD401E0A80605D525F02005E3
S31508003D7020202060002006E0680606D525F04005CC
S31508003D80402020600120FFF737FFE80410D525F40E
S31508003D9080554FF480502060D7F800B0082038606E
S31508003DA07868000548BF00F033F91FFA8BF03860D1
S31508003DB0E807ACD56D086D000120206099F8000071
S31508003DC00028A4D000F051FC0128A0D198F80000E2
S31508003DD000289CD09AF80000042898D1F06840087A
S31508003DE000F001008A2101FB0091091D002814BF7B
S31508003DF07268326812B92268D204F7D5002814BF4F
S31508003E007068306879E700202060BDE8F18F5E4869
S31508003E1000687047F0B589B004460D4600210320B6
S31508003E2001F00CFB04AE1BE0002701F022FB26F88C
S31508003E30170001F01EFB00A921F817007F1C082FA8
S31508003E40F3DB04A803F0B4FE00202080218836F8AE
S31508003E50102051402180401C0828F7DB6D1EA41C49
S31508003E60EDB2002DE0D101F040FB012009B0F0BD14
S31508003E700321022001F0E2BAF8B529244FF6FF75AE
S31508003E8001F0F7FA281A90FBF4F000F13A063F4FD2
S31508003E903878B8B90321032001F0D0FA02237F222B
S31508003EA03B48018800A8FFF7C5FC01F0E2FABDF817
S31508003EB00010401880B2281A90FBF4F0253078706C
S31508003EC00120387001F011FB7878301A40B2F2BD43
S31508003ED080B50321022001F0B1FABDE80140CBE725
S31508003EE070B500242B48007890B9FFF7F1FF054616
S31508003EF01B4E707848B13078401B40B203F069FE1B
S31508003F000B2805DB3570012402E03570012070703E
S31508003F10204670BD80B540B11F48002101600948A0
S31508003F20016821F08001016001BD00F05BFC00F032
S31508003F3033FC00F0E5FBBDE8024000F0C9BB000019
S31508003F400020004084200040E42C002000A000400F
S31508003F504C10004007220020D0100040802000406E
S31508003F60E02F0020E02C0020062200202020004020
S31508003F703C20002004A00040C4220020DC220020AF
S31508003F80CF220020B820004038200040DE2F002035
S31508003F90120D0208D1220020541000407068792EB4
S31508003FA06300000010B584B00A237F220B480188FD
S31508003FB000A8FFF73FFC4FF6FF74BDF80000A042CB
S31508003FC004D14E210FF21800FEF722FD2246BDF855
S31508003FD000100020FEF73FFA1FBD00000C0D020876
S31508003FE0616E616C6F6775652D66696C7465722E96
S31508003FF063000000DFF8F407417A39B1017A012934
S3150800400004BFC07A042801D10120704700207047F8
S31508004010DFF8DC07016821F480510160DFF8CC077E
S31508004020017881B100210170DFF8C8170A685208C3
S3150800403052000A600A6842F001020A600022816999
S31508004040402003F0A0BC70470FF63C01405C704767
S31508004050010603D54FF67F710840C00070478001FE
S31508004060B0FBF1F080B2FF2888BFFF20C0F1FF0047
S31508004070C0B2704738B5DFF87407817A012901D1D3
S31508004080002032BDDFF87447617871B1E178807B32
S315080040904518ADB22079854228BF054603F0B2FD22
S315080040A00121A940491E084000E00020617908184E
S315080040B0C0B232BD2DE9F0470446C00703D540F229
S315080040C06D1100F050FADFF83857286DC00748BF61
S315080040D08C2000F19180DFF814670020307330706F
S315080040E0DFF818773878A0B12078122818BF0C287E
S315080040F00BD1617801F00701032902BF001910F8F6
S31508004100020C042804BF01203073A86F40F0010098
S3150800411002E0A86F40084000A867707BDFF8E486D5
S31508004120DFF8E496797899B10021B173296D41F0E9
S3150800413004012965012807D14FF6FF70C9F8000068
S315080041404FF40070C8F80000FFF794FF82460CE0B1
S31508004150296D21F0040129654FF0000A012804D1D0
S3150800416000F042FA6420FFF770FAA86F20F0080002
S31508004170A8671420E864C5F848A0787830B1707B41
S31508004180002801BFA86C00280120A864B879002877
S31508004190286D14BF40F0080020F008002865FFF7D6
S315080041A029FF28B1D9F8400040F00800C9F84000B6
S315080041B0202028626C602C6068687F306860042064
S315080041C028624FF4E064DFF84406046006E0FEF770
S315080041D015FC18B103F026FDFEF72CF9DFF83006BA
S315080041E0006800F003000328F1D0C8F80040286DE5
S315080041F040F0010028650020BDE8F08710B50446A8
S31508004200FFF705FE201A0003000B3338DFF8041603
S3150800421088421AD2DFF8000602210160DFF8FC1591
S31508004220A2B24A60220C02F00F020A60016C41F049
S3150800423002010164DFF8E8450020207002E0012051
S3150800424003F0F4FC20780028F9D010BD2DE9F84FCA
S31508004250DFF8D0657068716C08401FFA80F8C6F8F8
S315080042600480DFF89C75DFF884556878002840F0EC
S31508004270D180DFF8B445DFF884955FEAC8704CD57D
S31508004280D7F800A0386C796C41EA0041A96199F821
S31508004290000000283DD09AF80100800639D5012093
S315080042A028704FF480503060306C40F48050306491
S315080042B0FFF7A0FE88B31920FFF7C7F9DFF86CB53A
S315080042C04FF44040CBF82800DBF800000090E06E81
S315080042D040F40050E066E06E40F48050E066A8695D
S315080042E09AF800104901B8310818FFF787FFE06E01
S315080042F080098001E066E06E00A909880843E06647
S315080043000020CBF8280048F26070E066A88A206092
S3150800431003E00022002003F036FB5FEA08600CD5B4
S31508004320287830B1002028700022A969402003F0BF
S315080043302AFB306C20F4805030645FEA486008D568
S31508004340687830B9FFF763FD00220146892003F03B
S315080043501AFB5FEAC8604FD5287ADFF8A8A40128B7
S3150800436004BF697B01291ED100F069FD386F40F052
S315080043700100386700206873FFF73EFB0A20FFF745
S3150800438064F94FF000084FF6FF7070604FF4E06074
S31508004390CAF800000920B8660120B864B86F40F072
S315080043A00800B86718E0A97B491CA97399F8022088
S315080043B0C9B2914215D2012808BF00F0D8F8B86FE3
S315080043C020F00800B8671420B866FFF753FEB864F3
S315080043D04FF40070CAF80000386D40F001003865E7
S315080043E00AE0012808BF00F0C2F8FFF710FD002216
S315080043F001468D2003F0C7FA5FEA08700AD5FFF771
S31508004400F9FD38B12068A88201202060706C20F080
S31508004410080070645FEA88600AD5202038626878E8
S3150800442030B9FFF7F4FC00220146882003F0ABFA06
S31508004430687820B118F4407F04BF0120A870BDE851
S31508004440F18FDFF8F0030088704770B582B0044634
S31508004450FEF7B4F9DFF8E00300210160DFF89453B2
S315080044601521E960092101651F21416001210166C5
S31508004470DFF8C0030088FEF731F8FFF7E3FA03F028
S3150800448005FF00F040F9DFF86463308A00F068F948
S31508004490708A00F06DF9FDF7CDFF696841F04001BB
S315080044A06960FDF7CDFF707900F002F9B07900F088
S315080044B00FF9307900F03EF9DFF8800390F9000033
S315080044C0FEF7BBF9F07800F05BF996F9070000F003
S315080044D063F902237F22DFF86803018800A8FFF743
S315080044E0A9F9BDF80000C0054CBF0020BDF80000C2
S315080044F0DFF850130870DFF850030078FEF760F90C
S3150800450018B140F2963100F02EF8012C05D1286832
S31508004510C00711D500F02BF80EE06CB92868C00763
S315080045200AD400F08CFC286840F001002860C820F6
S31508004530FFF78BF800207073DFF8CC42F120206477
S3150800454040F2F910E063FFF757FA2868C00707D565
S315080045504FF6FF702060DFF8AC024FF4E0610160AF
S3150800456000F058FB73BD0FF21030FEF751BA70B564
S31508004570DFF8D8522E68DFF87442607B012832D003
S31508004580FDF758FF48F2D00129606A68520509D537
S3150800459048F222022A606A68D205F5D529606A6857
S315080045A05207F1D4B6B22E60DFF860124FF4E0621B
S315080045B00A60DFF87C120A6A520852000A620A6820
S315080045C0520852000A600A6842F002020A604A6A01
S315080045D042F001024A6201216173FDF731FFBDE82D
S315080045E0704000F0FDBB70BD70B5804C607B48B371
S315080045F000F025FCFDF71EFF0546DFF854020121F1
S3150800460001607D4E306D40F001003065002060731A
S31508004610FFF7F2F920203060306B40F0020030637B
S31508004620F06D40F00800F0652846FDF709FF0A20FE
S31508004630FFF70BF874484FF6FF71016071484FF4A5
S31508004640E061016070BD6948407B704710B5674CF2
S31508004650607B18B140F28741FFF785FF207A18B1D1
S31508004660FFF785FF207A607310BD6048007A7047AF
S3150800467080B5022801D3012002BD5C490872487B37
S31508004680012804D1087A20B9FFF7AEFF01E0FFF749
S31508004690DDFF002002BD6F480068800200149A38CA
S315080046A06FF07F0201B29142B8BF104640B2704720
S315080046B010B50446FDF7BEFE6749002C0A6814BF0C
S315080046C042F0120222F012020A6048494C7140E098
S315080046D038B50446FDF7AEFE054600F008FC40B9BD
S315080046E05D48002C016814BF41F0800121F080016B
S315080046F001603E4884712846BDE83240FDF7A0BEF9
S315080047003A4880797047554855494A780B7813EBEB
S3150800471002220260CA788B7813EB022242604A7939
S315080047200B7913EB02228260CA79897911EB02218F
S31508004730C160704710B50446FDF77CFE4649002C5B
S315080047400A6814BF42F0200222F020020A602749B4
S315080047500C71BDE81040FDF773BE2448008A704707
S31508004760224908823F49086070472048408A7047B6
S315080047701E4948823C49086070473C4800787047A3
S315080047801C4900280A6814BF42F0020222F00202FD
S315080047900A601649C870704738B504467F2C0ED192
S315080047A002237F223248018800A8FFF743F8BDF8A4
S315080047B00000C00554BFBDF800406FF04A04FDF77D
S315080047C039FE054600F093FB30B964B204F19A004D
S315080047D08005000C274908600448C4712846FDF77F
S315080047E02FFE31BD014890F907007047C42200200A
S315080047F040A0004080200040302000406822002071
S315080048001020004000E100E004A0004080E100E044
S31508004810A8200040CDFF070008A000404020004027
S31508004820E52F002000A0004064100040E41000407E
S31508004830602000401C2200205C100040102200204E
S315080048401A0D02080E220020062200201C10004025
S31508004850281000400C10004084200040982000409A
S31508004860BC2C00209420004090200040E02200202C
S315080048701C0D0208541000407068792D636F6D6D29
S315080048806F6E2E6300000000FEFEF7F7C8C8010031
S31508004890DFF8F8035121016070472DE9F04105461C
S315080048A000F064FEFA2190FBF1F64FF4F070B0FBCD
S315080048B0F6F73FB21E2D01DBE81B04D5A8B2BDE80A
S315080048C0F041FEF7C2BEFDF7B5FD804603F0EAFCEF
S315080048D0DFF8BC0307210160002141608160DFF831
S315080048E0B4134FF000720A60E91B09B27143C91C80
S315080048F08908491E416000F0AEF8DFF890733C68FD
S31508004900386820F04000386003F0CEFC3C602E602A
S3150800491003F0CEFC03F0D4FC4046BDE8F041FDF7B9
S315080049208FBD38B5054600F021FEFA2190FBF1F45B
S315080049304FF4F070B0FBF4F02D1A2DB21E2D04DAE8
S315080049408A210FF29430FEF763F8DFF84403072153
S315080049500160002141608160DFF838134FF0007272
S315080049600A6005FB04F1C91C8908491E416031BD6E
S31508004970DFF82403B0F9000000B970472DE9F041CB
S315080049800024DFF818532C60DFF8146334604FF402
S31508004990A040706041F29A084046FFF77EFF6F68B4
S315080049A000F0ECFD00010A21B0FBF1F000F5C8703B
S315080049B0C01B00B24FF4487190FBF1F000F30300FE
S315080049C030604046FFF769FF08274046FFF765FF56
S315080049D0686804197F1EF8D100F0D0FD4FF4FA413B
S315080049E04843211DC908B0FBF1F080B27060BDE8EC
S315080049F0F081DFF8A402B0F9000000B9704738B5B5
S31508004A006FF00F04DFF89C520120A8602C6080200C
S31508004A10FFF743FFE868FF2802D8641C102CF5DB73
S31508004A2031BD70B5DFF88002016841F0010101600F
S31508004A3001214160FDF7FEFC044600F00CF8DFF8A2
S31508004A404C02512101602E6003F032FC2046BDE87D
S31508004A507040FDF7F5BCDFF854522E682868400808
S31508004A604000286003F024BC00207047F8B50146D2
S31508004A7040F2DC500446884AB2F900708D4D8C4EDF
S31508004A80012F15DA022030812860A86900F003009A
S31508004A90032857D0002F03D5A86940F00200A86163
S31508004AA00846FFF7E1FF04001BD1002F4AD547E06F
S31508004AB031894FF6FF77B9421CD102237F227E48FF
S31508004AC0018806F10800FEF7B5FE3089B84204BF32
S31508004AD002203081A869800703D4A86940F0020043
S31508004AE0A861012070703089286020B2FFF719FF8D
S31508004AF02046F2BDAA699207EFD57278002AF8D146
S31508004B00A86810F00100AA6803D10F2909D2491C28
S31508004B1006E0920705D532791AB1032901D3491E51
S31508004B2031813071308902283CBF022030812868E3
S31508004B3031898842D5D1A86900F00300032801D03D
S31508004B40FFF76FFF0020F2BD2DE9F04780460024ED
S31508004B504E4D564EFDF76EFC814603F0A3FB4046CC
S31508004B60FFF784FF08B901240AE000F04CF8D5F8ED
S31508004B7000A000F0ABF8C5F800A0376003F098FB7A
S31508004B8003F09EFB4846FDF75BFC002CE2D0BDE82F
S31508004B90F0870220D8E710B53D48002141608160C2
S31508004BA0016821F0020101603A484FF00071016086
S31508004BB03F4C607848B1002060700620FFF754FF2C
S31508004BC03548B0F9000001281CDBA078012814D16B
S31508004BD03A48012101603A490968C90748BF0320D4
S31508004BE00FD40221A170016C41F00101016435481E
S31508004BF0042101603448016010BDA078042801D161
S31508004C000520A07010BD3768306840084000306045
S31508004C1003F04EBB2DE9F843254C2078002830D008
S31508004C20E07800282DD11C48B0F90000012820DAC8
S31508004C3040F2CD310FF2A000FDF7EAFE19E0FDF7CC
S31508004C40F9FB804603F02EFBA07805280CD0174EFA
S31508004C50FFF7D9FF0D4DD5F8009000F037F8C5F8E5
S31508004C600090376003F024FB03F02AFB4046FDF76B
S31508004C70E7FBA0780528E2D1002060700520FFF741
S31508004C8063FF00202070BDE8F1830000008000402B
S31508004C9010E000E004ED00E0200D0208104000409E
S31508004CA00C000040084000401C40004094ED00E025
S31508004CB0A022002004400040180D020818A0004059
S31508004CC00C40004080E200E000E100E0286820F0A7
S31508004CD04000286003F0E8BA636C6F636B732E6359
S31508004CE00000000038B50120FFF7C0FE0020FEF7DF
S31508004CF043FCDFF83042206840F00800206000F0EE
S31508004D0044FCFEF729FC00F020F88D78DFF818320D
S31508004D10DD608D890560CD89456000F01EF8206844
S31508004D2020F010002060FDF790FA03F0E2FB03F094
S31508004D301FFCFFF72EFF00F026FCBDE8314000F00F
S31508004D4052BC40F2016001F0CBB8784978480A783D
S31508004D50C2604B78774AD3607047088A1060488AE1
S31508004D605060888A1860C88A586039E0F0B50B68C0
S31508004D706E4C0F25646A960005FA06F6344212D080
S31508004D80002606EB820724FA07F7FF0708D5B700BF
S31508004D9005FA07F730F812C0BB4307EA0C073B438E
S31508004DA0761C042EEDDB0B60F0BDF0B50B685F4C8E
S31508004DB0FF25646AD600B5402C420FD0002505EBC6
S31508004DC0C20624FA06F6F60705D50126AE40175C94
S31508004DD0B3433E4033436D1C082DF0DB0B60F0BD3A
S31508004DE010B5524C606A002825D000225249201D71
S31508004DF0FFF7DBFF01225149201DFFF7D6FF0222EC
S31508004E004F49201DFFF7D1FF0022494900F014F849
S31508004E1001224C4900F010F80222464900F00CF82D
S31508004E200322494900F008F804223F4900F004F833
S31508004E3004F1180032E010BD04F1180096E710B529
S31508004E403A4C606A002825D000223B492046FFF7E5
S31508004E50ACFF012239492046FFF7A7FF022238494D
S31508004E602046FFF7A2FF0022314900F014F801227C
S31508004E70344900F010F802222E4900F00CF80322FB
S31508004E80314900F008F80422274900F004F804F133
S31508004E900C0003E010BD04F10C0067E7BDE8104004
S31508004EA005222A4962E70320FEF792BD10B501F0F4
S31508004EB019F9044601F01AF9C0B208B9012C07D14C
S31508004EC0072C11D8DFE804F004100608080A0C0EAF
S31508004ED0002010BD092010BD022010BD032010BD02
S31508004EE00B2010BD062010BD44F0800010BD0F48F1
S31508004EF0007A70470D48807A704716484FF400418B
S31508004F00C160082101600949887A50B110480068D3
S31508004F100B7A400900F0010083421CBF0872FEF7B5
S31508004F20F9BF704700BC004000B80040B020002020
S31508004F3000B0004000B400400CB000400CB4004083
S31508004F400CB8004004B0004004B4004004B8004067
S31508004F5008B8004014A800402A490A689209920134
S31508004F600A600A681043086027484FF40041016048
S31508004F70002101606420FEF768BB2DE9F0478046F2
S31508004F80224DD5F80090286840F4004028601D4F4F
S31508004F90386820F4805038601D4C207868B11D4868
S31508004FA0A178627800EB820212F82A2C891A00EBA3
S31508004FB0880010F82A0C461802E0202601202070E6
S31508004FC0B0B2FFF7C9FF0FF2500A02E0B0B2FFF71E
S31508004FD0C3FF386B042805D0386B400754BF761ECC
S31508004FE0761CF3E7F86A38B184F80180A6701FFAD0
S31508004FF089F02860BDE8F08740F221115046FDF798
S3150800500007FDE6E7D0100040181000401C100040CD
S31508005010E22F00206C290008616E616C6F67756568
S315080050202D76636F2E6300004FF4FE52810189B21C
S315080050300C20FDF710BA2DE9F84F8A4CA568ADB2D9
S3150800504000264FF00A080127B94620681FFA80FA99
S3150800505000F04BFAB0202063DFF80CB2DBF8000052
S315080050600120FEF7F2FAB9F1000F11D0AAF10300F8
S31508005070874202DAF81C87B213E057460AF5004061
S3150800508020600621092000F0D9F94FF000090BE04D
S31508005090DBF80000000707D5042FA6BFF81E87B265
S315080050A0002707F5004020601A2EA8BF6FF00908F0
S315080050B004DA16F1190FB8BF4FF00A08464436B29B
S315080050C07019A060DBF800000007C9D5012FC7DA00
S315080050D0B9F1000FC4D1A560C4F800A00820CBF828
S315080050E000006248006880B2BDE8F28F10B56049DA
S315080050F04FF0FF325A4B1C7864B1002819BF4A603A
S315080051005C48486041F211100860D9889888BDE863
S31508005110104090E7002819BF4A600A604860086096
S3150800512000F0E3F906210920BDE8104000F0D7B9E0
S3150800513038B50120FFF7DAFF04460020FFF7D6FF4F
S3150800514005460120FFF7D2FF4042001B00EB450051
S3150800515000B232BD2DE9F04F83B0474CA06AADF8D6
S3150800516004002068ADF80200444D2868ADF8000038
S315080051703B4E307858B14FF6FF7200210820FDF7F4
S3150800518063F98046C022C0210820FDF764F93C4F28
S315080051903C48007810B148F260703860708840F476
S315080051A0404040F04C00F8630220A06201202060D5
S315080051B040F24C40FEF749FA0120E86028600020DA
S315080051C0B0804020F080307800B12020FFF72CFF17
S315080051D0FFF7AEFF83464020B0807F20F080FFF7C0
S315080051E023FFFFF7A5FF00F04FF8FE2101FB00FAA9
S315080051F0ABEB090B307850B1484602F0EAFC00F0F8
S3150800520043F880B20AEB8911B1FBF0F004E000F034
S315080052103CF880B2BAFBF0F080B2401C4FEAC039C5
S31508005220BDF8000028600020E86002202060BDF874
S3150800523002002060BDF80400A0620020F863307800
S3150800524030B14FF6FF721FFA88F10820FDF703F90F
S3150800525040F24C40FEF7F9F94FEA1940BDE8FE8FD7
S31508005260BC220020C010004018A00040007000407A
S3150800527038100040EEEEFFFF602000402810004086
S31508005280D0100040072200208146584602F0A1BCF3
S315080052903F22410089B201E03F2201460220FDF784
S315080052A0DAB82DE9F04F93B0564CE06CADF808002B
S315080052B02068ADF80600544DE86AADF804004FF6CC
S315080052C0FF7200210120FDF7BFF8ADF802004FF686
S315080052D0FF7200210B20FDF7B7F8ADF800004FF478
S315080052E00040206000202861686148F2020000F052
S315080052F08DF84CF68C30E06448F2F000E8624FF422
S31508005300805211460120FDF7A6F84FF6FF720021DC
S315080053100B20FDF7A0F80621062000F0E0F88046ED
S3150800532000F087F883464CF69C30E0640020FFF7CF
S31508005330AFFF0621084600F081F80026B0B2FFF755
S31508005340A7FF0621062000F079F800F092F803A9D5
S3150800535021F81600761C202EF0DB00F08AF81020C3
S31508005360FFF796FF00F065F8A0EB0B00BDF82C10D0
S31508005370A1EB0801404301FB01094FF0100A112770
S3150800538000F050F800F055F800F045F805DB8146C6
S315080053901FFA87FA7F1C202FF2DB504610280ED101
S315080053A00F2700F03FF800F044F800F034F806DB69
S315080053B081461FFA87FA781E07B2002FF1D5BDF885
S315080053C00800E064BDF806002060BDF80400E86245
S315080053D04FF6FF72BDF802100120FDF73CF84FF6B4
S315080053E0FF72BDF800100B20FDF735F80120286183
S315080053F0002000F00BF84FEA4A00C0B213B0BDE82F
S31508005400F08F0000C010004018100040286040F2DD
S315080054104C40FEF71AB9A0EB0B00404306FB06000A
S315080054204845704703A830F81700A0EB0806B8B23D
S315080054302EE70621072000F052B8000070B5054691
S315080054400E4602F02FFF3D4C206C20F00800206429
S3150800545002F036FFFCF7EEFF310341EAC51141F0D1
S315080054600101374A116008212160BDE87040FCF748
S31508005470E7BF2DE9F041334C334D304E25E002F0BD
S3150800548011FF324804210160306C40F00800306496
S315080054902F68286840084000286002F009FFD4F801
S315080054A00080206820F04000206002F0FDFEC4F86D
S315080054B000802F6002F0FCFE306C20F0080030649B
S315080054C023480421016002F0FBFE30680007D6D5A8
S315080054D0082030601F48006880B2BDE8F08180B5BA
S315080054E0FFF7ACFFBDE80140C3E715480168490866
S315080054F0490001607047F8B50746FEF764F80446A8
S3150800550039460320FFF7EBFF054639460120FFF72A
S31508005510E6FF064639460020FFF7E1FF08490A6814
S31508005520520852000A60401B0004711BB0FBF1F0E0
S3150800553060434000000CF2BD0000000018A00040C7
S31508005540047000400080004094ED00E000E100E0B7
S3150800555080E200E00070004036480068C00702D4C8
S3150800556042F6E060704745F6C050704780B5FFF7D1
S31508005570F3FF3149096801B9400802BD80B5FFF754
S31508005580EBFF400802BDFFF734BA2C4801218160C1
S315080055904EF6BE21416000E02948012101607047AE
S315080055A0A52805D125484DF6AD6141600221016067
S315080055B0704722480068C00701D5012070470020BF
S315080055C0704710B50FF29403820853F82220136827
S315080055D000F0030080000F248440A34301FA00F082
S315080055E01843106010BD80B51648174A102101608F
S315080055F016481749007858B103280CBF0020012027
S31508005600106040F6510008600020FEF739F806E001
S31508005610022010604FF400600860FFF7A9F907211F
S315080056200C4801600021016410210B48016000202C
S3150800563002BD00001C4000402040004000600040C1
S315080056400860004080E100E008000040C92F002003
S315080056500C60004014A0004000E100E000B00040EB
S3150800566004B0004000B4004004B4004000B8004054
S3150800567004B8004070B5DFF89C0303F03CFB044611
S31508005680FF2C16D0DFF890030068205C851EE9B26F
S31508005690204603F0C5FA0646E9B2204603F0CAF9E1
S315080056A02146304600F055F92046BDE8704003F023
S315080056B072B870BD03460A46A2A10420FFE70CB4DF
S315080056C080B502AA00F083F801BC5DF80CFB00B5B2
S315080056D087B0FFF7EBFB0021059104915321039155
S315080056E0002102910191DFF834130091002302464C
S315080056F00FF244310120FFF7E2FFC948817903918F
S31508005700018802914179019101790091C3788278E3
S315080057100FF230314220FFF7D2FF07B000BD2DE966
S31508005720F041044615468E09B6010FF228370FF2E6
S315080057301C3802E0FFF7C3FF4036B54208D3312CC8
S315080057403346324607BF4146312039462046F1E7FF
S31508005750BDE8F081B349087070470EB430B5044609
S31508005760B048007820B303F054FB08B300F094FB6C
S31508005770012002F0A4FF0546FF2D19D002F094FF80
S31508005780022103F04CFB0146284602F093FF03ABC7
S3150800579022462946A44800F07CF930B1284603F091
S315080057A0B7FB10B1042000F00BF8284602F0F3FF0F
S315080057B030BC5DF810FB0C2200219C4800F0EBBCC5
S315080057C09A4931F81020521C21F8102070472DE90B
S315080057D0F04F85B005460C4690460026914800785D
S315080057E090B9002D18BF012D0ED0042D18BF052D18
S315080057F00AD0312D18BF332D06D0372D1EBF3B2DAD
S315080058004FF6FF7085421FD103F003FBE0B101207C
S3150800581002F055FF8246BAF1FF0F15D0002102F0BB
S3150800582049FF294601A803F0FAFA05469CB900F093
S315080058308BF830B9504603F06BFB10B10420FFF724
S31508005840BFFF504602F0A7FF05B0BDE8F08F8DF800
S3150800585004200125641C20780028E8D0A0F1300136
S31508005860C9B20A2905D20A2101FB0600A0F13006B1
S31508005870F0E700F069F80028E3D10025227801A8AE
S31508005880422A0ED0442A1AD0462A25D0572A0DD0A5
S31508005890622A3AD0662A2AD06C2A25D0702A26D0BF
S315080058A0D5E758F8040B8DF80400D2E758F8041B1E
S315080058B08DF804100904090E41700225CAE758F844
S315080058C0041B8DF804100A0A42700A0C8270080E2E
S315080058D08DF807000425BDE758F8041B504603F069
S315080058E069F80028B6D0ACE758F8046BB2E701238C
S315080058F058F8041B662A08BF0223F2B2504603F082
S3150800590039F8002808BF0026ECE7434800681AF86B
S31508005910009058F8041BCFB2FF2F9BD017F800B0A1
S315080059200BEB0901C9B2504603F084F8002888D168
S31508005930CDF800B000233A464946504603F094F99C
S3150800594088E70000574600002A4601A9504603F09A
S315080059502FB8F0B585B005460C4612280AD030286F
S3150800596018BF362841D03A281AD04FF6FE71884219
S3150800597035D04DE028480068255C2D4E08E02046C5
S3150800598002F092FE394602F02CFD203D3068245C78
S31508005990FF2C3DD0EDB2212D2CBF20272F46EEE758
S315080059A003F091FB0446FEF7E0FE0546FCF741FFCF
S315080059B00646FCF73BFF0746FEF7CFFE0246049471
S315080059C0164803901B480068408802900195009687
S315080059D03B460FF288013B20FFF771FE18E0204690
S315080059E005B0BDE8F04003F0E4BB0221204603F011
S315080059F017F906460021204603F012F90146302D14
S31508005A000CBF31203720324605B0BDE8F04086E6A7
S31508005A1005B0F0BD7822002020200020BC2C0020F4
S31508005A20F80C0208DC2F0020B1890008CC2C0020D5
S31508005A30282000209C2C00204242387042424242D4
S31508005A4057424200424242425742000057363466A5
S31508005A5000000000573634700000000057424257D5
S31508005A60573870420000000070B51346101802E05F
S31508005A70A4192C705B1EDBB24BB101F00F060909A5
S31508005A80451E28460A2EB4BF30243724F0E71018DE
S31508005A9070BD2DE9F04F87B0804601A889461446A7
S31508005AA09B4601AD00278DF800001BE05BF804ABB0
S31508005AB004224FEA1A412846FFF7D6FF04221FFAA6
S31508005AC08AF1FFF7D1FF054605A8854209D39DF857
S31508005AD000002E1A00F096F8002831D1F719FFB207
S31508005AE001AD641C9DF800002E1A2078002807D006
S31508005AF0252802D005F8010BE6E714F8010F00285F
S31508005B0076D02528F6D0322818BF34285FD05828F2
S31508005B1057D063280CD0642818BF6C2825D0702865
S31508005B2018BF732807D075281FD0782849D0CBE727
S31508005B305BF8040BDEE75BF804AB00F063F80028BB
S31508005B405CD1F719FFB201AD002600E0761CF6B26B
S31508005B5016F80A000028F9D1324651464846C04789
S31508005B6000284BD1F719FFB2AEE75BF8040B00210A
S31508005B70002803D52D212970404201210023002247
S31508005B804FF0000C02E0801B0CF1010C0FF22C36D2
S31508005B9056F82260B042F6D243EA0C06F6B2002E58
S31508005BA005D0C9B20CF130034B55491C0123521CD0
S31508005BB0092AE5DBC9B230304855481CC0B2451938
S31508005BC082E75BF8041B0222C9B2284679E714F873
S31508005BD0010F78281CBF5828641EF1D114F8010C4F
S31508005BE032287FF463AF5BF8041B042289B2ECE722
S31508005BF000F008F810B9F019C0B200E0002007B0AC
S31508005C00BDE8F08FF2B201A9484640472DE9FC4E9F
S31508005C100400894692469B4618BF022C2CD0032CBA
S31508005C2018BF042C28D0042C26DA0FF27820205C22
S31508005C30012821D1DFF8585205EB8406F768FCF7EE
S31508005C40F9FB0021B98039807980FCF7F9FBF66900
S31508005C50FCF7F0FB0021B180318071806155FCF7BB
S31508005C60EFFB02F046FC5B4652464946204602B028
S31508005C70BDE8F04E02F034BB2120BDE8F68E10B523
S31508005C80044602F018FCDFF8080200EB8400C0693D
S31508005C90808810BD2DE9F04188460446DFF8F051AA
S31508005CA005EB8401CE690FF2FC11615C09B901208C
S31508005CB034E0615D05EB440761B1B98872889142A9
S31508005CC008D1FCF7B7FB665D00216155FCF7B8FB08
S31508005CD0304623E002F0EFFBB088F0B1FCF7AAFBF0
S31508005CE071880FF2CC128919897988F800104FF655
S31508005CF0FF78718832F8142000F01EF87180B18898
S31508005D004144B180FCF79CFB605D20B1B8884045F2
S31508005D1004BF3088B880002000E02620BDE8F08166
S31508005D2080880FF2781333F81110891A884201DA3D
S31508005D300120704700207047491C91FBF2F302FBD3
S31508005D401311704751A111E010B50FF25813C35C37
S31508005D500024012B08D113460A4601460FF23D00DE
S31508005D60FFF797FE00B90124204610BD0CB480B594
S31508005D7002AAFFF7E9FF02BC5DF80CFB0CB438B5C4
S31508005D80044604AAFFF7E0FF05462046FFF7DAFFB8
S31508005D90284632BC5DF80CFB000000002DE9F84FE0
S31508005DA0804647460FF2FC00385C8B4616460128AB
S31508005DB039D137480FF200190FF2EC0A00EB8700C9
S31508005DC00025C46814E0FCF735FBA18801B9012554
S31508005DD021881BF8012B09198A7121883AF817209E
S31508005DE0FFF7AAFF2180A188491CA180FCF728FBA0
S31508005DF03046461EC0B288B1002241462046FFF70B
S31508005E008FFF0028DFD11DB1404602F0A6FA002513
S31508005E1017F809000028EFD1222005E0404602F0D5
S31508005E209CFA002000E00120BDE8F28F80B50FF251
S31508005E307402825C012A06D1154A02EB8001C96800
S31508005E408A88002AFCD102F0C1FA002002BD0CB4EF
S31508005E5038B504460D4602F099FA04AB2A4621469F
S31508005E600C48FFF716FE0FF23C01615C012908D1C8
S31508005E70074901EB8400C068808810B1204602F00B
S31508005E806CFA32BC00205DF80CFB00000D0A00001D
S31508005E90B82100209D83000870470000000080009C
S31508005EA00000000000010000000080000000000063
S31508005EB000008000000000000001000000CA9A3BB4
S31508005EC000E1F5058096980040420F00A086010083
S31508005ED010270000E8030000640000000A00000024
S31508005EE010B50446FCF7A6FA504830210160504820
S31508005EF0016050480160504810210160200A08BF1F
S31508005F0024024E4804804FF20F014180BFF35F8F91
S31508005F104B480021016041604A484B49016010BD69
S31508005F2010B54A4C2068C0060BD5444848490A684B
S31508005F30C0F894204968C0F8901040F60620FFF78C
S31508005F40CFFF2068C00708D5424803210170206C9E
S31508005F50400840002064012020602068000703D51F
S31508005F60206C20F00800206410BD80B5002000F0E9
S31508005F7009F830B9F5210FF2F000BDE80440FCF746
S31508005F8047BD01BD2DE9FC44334C414222688D18BA
S31508005F9015F01F0108D0002802D44842451903E02D
S31508005FA04842401900F12005A5F120062B48A842D1
S31508005FB024BF2B48864203D3EFF30880854201D3DA
S31508005FC000202DE0FCF736FA82462648006810F0D5
S31508005FD0010718BF03F056F9206801468D4206D21C
S31508005FE0A84224BFCD2100F80119F9D206E02038CD
S31508005FF0002201E000F8012B8842FBD325603046D9
S3150800600003F045F9E22001E006F8010BAE42FBD3A6
S315080060100FB103F01FF95046FCF712FA2068203832
S31508006020BDE8F6840C480068704700003020004040
S3150800603030C8004030C0004010D0004000000020AA
S315080060401C4000400CED00E00400FA0518A00040D2
S3150800605030500040A222002074220020581600204A
S31508006060680D002094ED00E06D6963726F2D696E0E
S315080060707465726E616C2E630000000030B51D48B1
S3150800608001680020002201249440CBB2234213D099
S315080060900FF26C00184C30F812004CF23C324FF2FA
S315080060A00F03062812D1608898420BD12188080A66
S315080060B00B2807DA084607E0521C082AE3D30F49DB
S315080060C0088030BD4FF4C0606280F8E740F20725CB
S315080060D0A84201BF618899422188A942EFD162800E
S315080060E00846ECE705480088000A70470348008818
S315080060F0704700002C00004000000020A623002066
S315080061000104020401030105060007020309010947
S31508006110814233D210185118401E491E10E011F85A
S31508006120013900F80139121F11F8013900F801394F
S3150800613011F8013900F8013911F8013900F8013967
S3150800614092B2042AEBDA92B2002A1EBF11F801397C
S3150800615000F80139521EF6D1704711F8013B00F8D4
S31508006160013B121F11F8013B00F8013B11F8013BF6
S3150800617000F8013B11F8013B00F8013B92B2042AF2
S31508006180EBDA92B2002A1EBF11F8013B00F8013B78
S31508006190521EF6D17047130003D00A46194603F07B
S315080061A093B8704710B500E0521E92B232B110F89B
S315080061B0013B11F8014BA342F6D00FE0002010BDB9
S315080061C010B500E0521E92B232B110F8013B11F838
S315080061D0014BA342F6D001E0002010BD181B40B2C7
S315080061E010BD00002DE9F9478CB02622FF2101A831
S315080061F0FFF7D1FFDFF8C490C822FF214846FFF712
S31508006200CAFF4C254FF0260A00270FF2C4082C486F
S31508006210385C411C01EBD1714C102A497E5CFF2881
S3150800622003D16F214046FCF7F3FB7F2E03DB702179
S315080062304046FCF7EDFB2448385C00B11934601C75
S3150800624000FB06F4214830F817100FF29400A2B2AA
S31508006250FFF783FA6519012E1CBF29F817A0B24467
S315080062607F1C262FD3DB40F21C44A54234BF12A361
S315080062700FF2C003262000902246A9B20FF27C0036
S31508006280FFF76BFAA5420ED3FFF786F9FCF7D2F8AB
S315080062900FF2AC0123462A460120FFF7D8FD9B21C1
S315080062A04046FCF7B5FB9DF8300001A900F025F93A
S315080062B00EB0BDE8F08700006F6B0000282B0020A9
S315080062C0BC090208E40902089409020848090208F8
S315080062D073696D2D656570726F6D2E630000000021
S315080062E043726561746F723A2030782532582C20D3
S315080062F0576F7264733A2025640A000053696D4526
S315080063004520646174613A20256420776F7264734E
S31508006310206F66202564206D617820282570292C39
S3150800632020746F6B656E436F756E743A2025640A28
S3150800633000000000544F4F204C41524745000000D2
S315080063400D0A4552524F523A2053696D454520640D
S3150800635061746120746F6F206C617267652E2020EE
S31508006360436F6D70696C696E67207769746820255C
S315080063706420776F72647320636F6E73756D6564DE
S315080063802E20204D617820616C6C6F7765642069DA
S31508006390732025642E0D0A0010B5DFF8843ADFF85D
S315080063A0844A2488001B03EB4000002304E030F8ED
S315080063B0134021F813405B1C9342F8DB002010BD04
S315080063C02DE9F04182B004460D4616460027DFF84F
S315080063D0508A01E0B81CC7B2B7421ADA7819407871
S315080063E0795D01EB0020ADF80000012200A907EB5A
S315080063F0D77004EB6000DFF82C3A1B88C01A08EB4C
S31508006400400002F0E0FF0028E4D002F0E0FE0020A1
S3150800641000E00120BDE8F681F8B504460E461546AB
S3150800642000270DE000F019F8761C04EB4700BDF8CC
S315080064300010090A4170BDF8000004F817007F1C17
S31508006440B7EB550FEEDBE80706D500F006F8281976
S31508006450BDF8001000F8011CF1BD012200A9B0B278
S315080064609AE7DFF8BC19DFF8BC291288801A01EB15
S315080064704001022002F06EBFDFF8AC19415CDFF87C
S31508006480AC29825CDFF8A839C05C10B102F59972B4
S3150800649092B241EAC21080B2704710B5DFF894395B
S315080064A003EB4002DFF88049005D012801D1104660
S315080064B010BD1088081803EB400010BD38B50C460F
S315080064C0DFF874190D782A462146FFF765FF2088FC
S315080064D000281CBF4FF6FF7188420AD0012000E051
S315080064E0401CC0B2A84206D234F810102288914245
S315080064F0F6D0002032BD012032BD2DE9F04F9DB007
S3150800650089460446DFF83479002038707880DFF849
S3150800651030090088ADF8000008A9FFF7CFFF8246CA
S3150800652001207870DFF81C090588DFF81C09B0F827
S315080065300080BDF80060DFF8EC080088ADF80400BC
S3150800654083460AA9FFF7BAFFD0B1BAF1000F43D0C4
S315080065504FF6FE70BDF82010814204D1BDF8280020
S31508006560012806D10FE0012904BFBDF82810814291
S3150800657032D0BDF82000BDF8281088422CD202E09F
S31508006580BAF1000F27D0002078703046CDF808B051
S315080065900795CDF81480DFF8A01809788DF806104D
S315080065A00818ADF8100000F06EFABDF81000FFF7F5
S315080065B0F3FEDFF8980800880690BDF80200000B85
S315080065C04FF6FF789DF80610884218BF0F2800D1AD
S315080065D014B3002515E0012478780128D5D158464A
S315080065E00296CDF81C800595D5E7069805FB00F4BC
S315080065F0BDF8040000F038FCBDF8000000F034FCDB
S315080066006D1C9DF806008542EFDB012038704D2091
S3150800661002F0DDFD0025FBE0BDF8105000F033FA6E
S315080066202846FFF7B9FE6E1CBDF80200C043C0B28B
S31508006630ADF80200DFF818080588BDF80200A84280
S3150800664018BF01244FF0000A1FE0401CC1B2A9423E
S3150800665017D2C0B28346DFF8FC1731F81B10BDF815
S315080066600E209142F1D1FFF707FF4FF680710840DF
S31508006670BDF80C104FF680721140884208BF0BF81F
S3150800668009A00AF101001FFA80FABDF80200824546
S3150800669007DA022203A9B0B2FFF77EFEB61C002075
S315080066A0D4E7002100E0491CA94219DA11F80900CB
S315080066B08842F8D0012413E02AF81160012201A9C2
S315080066C0BDF8103003EB4000401C00F0E1FABDF8BD
S315080066D00400C0F3C710401C00EBD07006EB600640
S315080066E0DFF850A7B6B20598864213DA012200A948
S315080066F03046FFF751FEBDF8000040450AD0761C2B
S31508006700000ABDF8001001F07F02BDF802108842A9
S3150800671002DB012400252BE0002100E0491CA942E8
S31508006720CCDA11F809308342F8D1C9B2FF29C5D0AD
S315080067307F2A0CBF4FF0000C9446DFF8EC36CB5C92
S315080067409C4509DABDF800C0CCF3C01CDFF8E0E6CA
S3150800675011F80EE0F44501D00124AFE7012BABD0C8
S315080067607F2A08BF00223AF811105118A4E76D1CB9
S31508006770DFF8E4060088854204DA3AF81500404551
S31508006780F5D101247E80B5B2059885420ADA012240
S3150800679000A92846FFF700FE6E1CBDF8000040451C
S315080067A0F1D034E7002CFCD101220CA9029800F0A4
S315080067B06FFABDF8300040450DD105E0401C80B2A7
S315080067C0202813D32034A4B20799029A891A8C4236
S315080067D005DB0120387000201DB0BDE8F08FA51834
S315080067E020220CA9A8B2FFF7D7FD00200CA931F882
S315080067F010104145E2D0A8B2FFF733FE203CA4B200
S31508006800E0E70298069905FB010000F02EFB6D1CD7
S315080068109DF806008542F4DB01203870414600F0F9
S3150800682054F818B100F033F90028D4D10120D3E781
S315080068302DE9F84504460D4616469A463146284639
S31508006840FFF72BFEB0F80080DFF8E075DFF80016DA
S3150800685009888D420AD27F2E08BF0026DFF8C805B0
S31508006860285C864202DAE85D824503D040F286411A
S3150800687000F00AFADFF8B805285C68B141462846F0
S3150800688000F039FAE95D012908BF20700AD002290B
S3150800689014BF2060208005E0524641462046BDE8E8
S315080068A0F845B9E5BDE8F18510B504460846114630
S315080068B0FFF7F3FDDFF868150088DFF8682512880A
S315080068C0801A01EB4000206010BD2DE9F34F83B01C
S315080068D0DFF850050488DFF86405407800281ABFF9
S315080068E0DFF85C0500882046DFF84C1509780D1896
S315080068F0ADB2DFF85C050088ADF80800C043C0B249
S3150800690000EB013000F55060ADF8020000F0CAF95E
S315080069102B1B00F0C3F96E1CB6B2002832D1002535
S31508006920DFF8307510E0E8B2FFF7A6FDADF8040011
S3150800693037F81500ADF80600022200F0ACF9002879
S3150800694020D1B61CB6B26D1CBDF808008542EADB3C
S31508006950002500E06D1CBDF80800854280F28E8097
S315080069604FF0000A1AE000F08EF81FFA89F0FFF7D8
S3150800697013FD09F1010900F095F9BB191B1B00F07D
S315080069808DF9002874D17F1CFFB25F45EBDBDFF879
S31508006990CC04285C8619B6B20AF1010ADFF8880425
S315080069A015F800B05FFA8AFADA45D3D25146E8B24A
S315080069B0FFF773FD8046B8F80090DFF874042F5C83
S315080069C0F80140EA0520ADF80000BBF1010FBDF85B
S315080069D000000CBF40F07F004AEA0000ADF8000056
S315080069E0DFF83C04311B00EB4100711C89B20191B0
S315080069F04FF6FF7189451EBFBDF80010BDF810207F
S31508006A00914218D19DF80C100029C5D0012200A981
S31508006A1002F0D9FC019E58BBA8F80060DFF80C0408
S31508006A202A5CDFF83C0450F82510B0B2FFF7C8FC22
S31508006A300028ACD11FE0DFF8F413695C491C01EBB0
S31508006A40D171C9054FEA116B012200A902F0BBFCFE
S31508006A50019E68B9A8F80060002F95D04946E8B2AB
S31508006A6000F049F901905A4600F015F900288ED031
S31508006A7002F0ADFB002005B0BDE8F08FDFF8BC03DF
S31508006A8046800120F7E701220DF1020170472DE942
S31508006A90F04182B0DFF8A8030688DFF88803048887
S31508006AA0DFF898536878002812BF204630462646F5
S31508006AB0012200A9FFF770FCBDF8000001280CBFF1
S31508006AC04FF6FE70401EADF80000DFF86C0307783D
S31508006AD0DFF84C833846471E70B1012200A9BFB2C1
S31508006AE0B819001B08EB400002F06DFC0028F1D035
S31508006AF002F06DFB002007E06978481E8041C00F50
S31508006B006870002028700120BDE8F6812DE9FE4F47
S31508006B1083460C4617469A4600208DF80400012540
S31508006B2039465846FFF7B9FC81465E46C849098882
S31508006B308B450AD27F2F08BF0027BB48305C8742A7
S31508006B4003DABA48305C824503D040F2A95100F016
S31508006B509BF8BA4F787820B1BA48B0F80080B148A7
S31508006B6003E0B948B0F80080B5480088397849B9D3
S31508006B707988081ABB4909888842B4BF432044204B
S31508006B8002F025FBB9F80010A948305C78B15846E0
S31508006B9000F0B1F8BAF1010F08BF217804D0BAF1B4
S31508006BA0020F0CBF2188216881426BD02BE002912D
S31508006BB04FF0000B23E0012200A902980BEBDB73D0
S31508006BC000EB630000F064F80BEB040040781BF858
S31508006BD0041001EB002080B2AAF101018B4505D112
S31508006BE0C0B2BDF80010C9B2ADF80010BDF800106B
S31508006BF0884218BF00250BF102005FFA80FBD345D7
S31508006C00D9DB002D3ED1FFF73EFFB9F80000401E44
S31508006C1000F03EF89148355C7888A8F10101491BD7
S31508006C20814200DB60B9387808B945201CE0BDF818
S31508006C3002100020FFF749FE20B301208DF804005A
S31508006C407888401C78807949725C214680B2FFF7C3
S31508006C50B7FBB8B100F026F87B885B1E714C248818
S31508006C601B1B00F01BF810B102F0B1FA0AE09DF800
S31508006C70040010B1FFF70BFF20B17888A9F80000CF
S31508006C8028187880BDE8F78F0FF2E410FBF7C0BE2E
S31508006C9080B2FFF781BB01A96148331B00EB4300B3
S31508006CA002F091BB01220DF102015D48704770B5F3
S31508006CB082B0044600251926012200A9A0B2FFF7D2
S31508006CC06BFB641CBDF8000048B14FF47F41401AC5
S31508006CD002D0FF3806D007E0681C40B276BDAD1C6E
S31508006CE0761EE9D168B276BDBDF80000C0B200B91B
S31508006CF06D1CE843F1E738B50C46002100914B4975
S31508006D00455C2A46214600A8FFF786FB681C00EB6F
S31508006D10D07004EB600080B2FFF7C9FF002848BFB7
S31508006D20C043009940B2401832BDF0B583B004465E
S31508006D302546404830F81560454909888C4202D2F4
S31508006D403B48285C18B940F2A961FFF79DFF374810
S31508006D502D5C681C00EBD07006EB6007B8B2FFF735
S31508006D60A6FF322814D2C1074CBF00214FF47F4139
S31508006D70ADF80410012201A9294BBFB207EB600048
S31508006D80284F3F88C01B03EB400002F01CFB60B194
S31508006D9031462046FFF7AFFF0090401C00902B4677
S31508006DA07F2200A92046FFF7B1FEF7BDF8B5234CB0
S31508006DB02078002832D11B480588607800281ABF39
S31508006DC01F4806882E461C4807783846471E02285C
S31508006DD01DD3012200A9FFB2B819FFF759FFBDF864
S31508006DE000000028F1D01948008807FB006000F071
S31508006DF03CF80020ADF80000012200A90848BB199C
S31508006E005B1BFFF74BFF48B102F0E1F9F1BD3046D5
S31508006E10FFF727FBFFB20FB901202070F1BD000074
S31508006E2000E0020810090208E4090208BC09020881
S31508006E3094090208282B00200C090208B22F00200A
S31508006E401409020812090208160902080E0902089E
S31508006E501A090208480902081C090208200902083A
S31508006E60600C020818090208201880B2FFF7F9BA60
S31508006E7073696D2D656570726F6D2D696E746572B7
S31508006E806E616C2E63000000DFF89C05002101701E
S31508006E90FF21017201737047F8B5044602F0D8FA6B
S31508006EA00546DFF888050688DFF87C75204602F077
S31508006EB0DDFBB0F5006F1CD1204602F0F9FB00F0AF
S31508006EC0C3FAFF2813D0DFF86815096831F81020CF
S31508006ED042F0200221F81020214607F10C0001F0AB
S31508006EE0F5FE387890B1A819398A461A13E0932026
S31508006EF0F2BDFF2107F1080001F013FF052803D2B0
S31508006F00214607F10800EAE73920F2BD3D823146FD
S31508006F10384602F060FCB2B20321204602F021FB9B
S31508006F2003220521204602F027FB204601F025FC16
S31508006F300020F2BDF8B50446DFF8EC04007AFF2815
S31508006F4013D0DFF8F0542968465C3746384602F015
S31508006F509FFB082201462046FFF724F908B90120BD
S31508006F60F2BD28683F5CB742F0D10020F2BDF8B503
S31508006F70044602F023FB050B204602F0AFFB06464B
S31508006F80204602F099FBB0F5404F15D1E8073BD5EE
S31508006F903146002000F088F90446FF2C34D0002141
S31508006FA002F028FD80B300F0A8F940F08002052120
S31508006FB0204602F0E1FA27E0304601F027FE00F00D
S31508006FC043FA0446FF2C01D10020F2BD012000211E
S31508006FD0224602F017FFDFF86024D2E9006706436D
S31508006FE00F43C2E90067EB070ED5DFF844341B6888
S31508006FF033F814304FF4FE64234205D0D2E9024533
S3150800700020432943C2E902010120F2BD38B50446EE
S3150800701002F02CFBB0F5006F0CBF012500252046B9
S3150800702002F036FB04462146284600F03DF9FF28C3
S3150800703010D18DB1204601F0E9FD00F005FAFF28D0
S315080070400AD0DFF8EC13096831F810004FF4FA613A
S31508007050084201D0012032BD002032BD2DE9FC4195
S3150800706007460C46DFF8C05302F000FBB0F5006F88
S315080070700CBF05F10C0005F108000078FF2848D080
S31508007080DFF8B0130968405C0646B7423ED1FBF705
S31508007090D1F980460521304602F075FA00F07F00E6
S315080070A0471EFAB20521304602F066FA002C18BFD0
S315080070B0312C01D0F8B210BBFBF7BCF90746F0B289
S315080070C002F0D4FAB0F5006FF1B206D105F10C0062
S315080070D001F027FE00F015F903E005F1080001F0BC
S315080070E020FE3846FBF7ACF94046FBF7A9F92146DE
S315080070F0304603F043FD304601F04DFB04E000F056
S3150800710000F94046FBF79CF9012003E0765C8642CD
S31508007110BBD10020BDE8F68138B502F099F9C24C1A
S31508007120218A421A4FF6FF75ADF80050208200A951
S3150800713090B200F007F9BDF80000A84202D100207D
S31508007140207031BD0146204602F045FB31BD0021C5
S315080071504FF6FF70F6E02DE9F84FDFF8DC92D9E933
S315080071600001002908BF002800F0978000260124A6
S31508007170B2460027B846FBF75DF98446D9E900010F
S3150800718004EA00021AEA010308BF002A18D00127F8
S31508007190E5436FEA0A0B284001EA0B01C9E9000139
S315080071A0D9E9022304EA02001AEA030108BF002803
S315080071B006D0B84602EA050003EA0B01C9E902014E
S315080071C06046FBF73DF9002F58D09948006830F81B
S315080071D01600810752D59949096831F81670B8F131
S315080071E0000F05D000F49871102908BF012500D0BA
S315080071F000259349096800227254B8F1000F25D07A
S31508007200800623D58DF8007038128DF8010000A984
S31508007210012000F049F88046B8F1FF0F07D100F0C9
S315080072203EF84FF6DF72114020F816101BE00021D9
S3150800723002F0E0FBB8B10521404602F0A4F940F09F
S3150800724080020521404602F097F90CE085F001001E
S315080072504146014207D000F022F841F4006120F8C7
S31508007260161004F039F800953B461A226DA1032042
S31508007270FEF725FA2946384601F09CFF761C4FEAA8
S315080072804A0040EAD47A6400402E06DAD9E90001B9
S31508007290002908BF00287FF46CAFBDE8F18F644869
S315080072A0006830F8161070472DE9F04188465E49A7
S315080072B0002819BF01F10C00022501F10800082574
S315080072C00078FF2816D05B4E3168475C3C4600F0D4
S315080072D014F800060AD4204602F0DAF901462A46CE
S315080072E04046FEF75FFF08B9204604E03068245C94
S315080072F0BC42ECD1FF20BDE8F0810521204602F012
S3150800730042B970B50021202004F063FA4648007B94
S31508007310FF2816D0474C2168455C2E46304602F0B9
S31508007320C7F900F091F8FF2807D04149096831F8F4
S31508007330102042F0200221F810202068365CAE4268
S31508007340ECD170BD2DE9F84F80460D460FF2F400DA
S3150800735000680090DFF8D0B00BF10804354F01E063
S315080073600BF10C04FBF766F8064606E0204601F02A
S31508007370C2FC514600A801F0A9FC204601F004FD14
S3150800738048B92078396810F801A00321504602F060
S31508007390DFF88045EAD20BF10C00844208BFFFF7FC
S315080073A0B0FF3046FBF74CF82078FF2819D039682B
S315080073B010F80190CA460321504602F0C9F8A0EB1E
S315080073C00806B2B20321504602F0CBF82888B6B2B6
S315080073D0864288BF06462E8038681AF800A0CA4535
S315080073E0E9D10BF10C008442BAD100A801F0CCFC1B
S315080073F0A8B900A801F07FFC044602F0E9F800F0FD
S31508007400EBF8FFF77AFF000603D44221204603F083
S31508007410B5FB204601F0BFF900F0DFF8E5E7BDE867
S31508007420F18F000042574200282300209E200020AA
S315080074303C2000202C200020782300203420002027
S3150800744040200020FF000000F8B506000C4C276815
S3150800745014D0FAF7EFFF0B4D2978226822F811604D
S3150800746037F8021BB142FBD1FAF7EAFFB81E2168CA
S31508007470401AC0052978000E884200D1FF20F2BDC7
S31508007480342000203820002010B56A4800686A4C6D
S315080074902060606048220021FEF77DFE206867496B
S315080074A009780170206800210173206841732068FB
S315080074B00B21817320680321C17320684FF6FE7182
S315080074C001824FF6FF71418200F09CFB2168087625
S315080074D000F098FB2168487600F094FB21688876CE
S315080074E0206857490978C176206856490968816233
S315080074F05549097880F82C102068544909680163B1
S3150800750010BD10B5FBF792F94B4C6168897B884230
S3150800751003D00846FBF782F950B9FBF78AF901460A
S31508007520606890F90F00814204D0FBF786F908B12C
S31508007530012010BD6068008AFDF712F96068408A6C
S31508007540FDF716F96068007B012818BF0020FDF7D3
