S01700005A30335F476174657761795F333538312E733337BF
S31508004000186D002085F9010801F9010803F901086E
S31508004010A70A080100410008040A03AC00537A0104
S315080040200000000000000000000000000000000082
S315080040300000000000000000000000000000000072
S315080040400000000000000000FFFFFFFFFFFFFFFF6A
S31508004050FFFFFFFF00E0030800000000000000006B
S31508004060FFFFFFFFFFFFFFFFFFFFFFFFFFFFFFFF52
S31508004070FFFFFFFFFFFFFFFFFFFFFFFFFFFFFFFF42
S31508004080F07F002000000000F07F0020F07F002075
S31508004090186D0020A40902083CFC0108B86300203A
S311080040A0601400200000040800800020C6
S31508004100186D002085F9010801F9010803F901086D
S3150800411007F9010805F9010809F9010880F90108F4
S3150800412080F9010880F9010880F9010880F9010879
S315080041300BF9010880F90108EDFB0108475B000847
S3150800414065F8010880F90108459D000880F901080D
S31508004150F7A000084996000880F9010880F90108C7
S31508004160218B00083D520008514D00089141000876
S3150800417080F901084F9700089797000880F9010809
S315080041801DC1010880F9010880F9010881F90108B3
S3150800419070B52C482C4942780B685B0725D5032A4D
S315080041A023DA838800EB4204A3810123847803FA87
S315080041B002F222438270254C0278002A12D000258A
S315080041C022FA05F6F60708D5AB4045705A40027044
S315080041D000EB4500808A206007E06D1CEDB2032DD8
S315080041E0EEDB02E02260032242704FF6FF700860A1
S315080041F0BFF35F8F70BD13480021017000220321B1
S3150800420041700021C1700521018100218170001DC6
S315080042100E490A604A604FF400428A601022CA605A
S315080042204861012088610320C860042106480164AA
S315080042304FF6FF7101604FF400600549086000F011
S3150800424044B800007871002010A8004004E000403F
S3150800425000E100E0DFF8D43433F810001040C8401D
S31508004260704730B5DFF8C8340FF2745434F810408C
S315080042709C60DFF8B84434F8105095431140294340
S31508004280D96002221A6000221A6024F810105868B1
S315080042900028FCD130BDDFF89C04DFF89C148A782E
S315080042A00AB149780FE089566FF008029142B8BF03
S315080042B0302108DBC16D39B140F24A31C26DB1FB1C
S315080042C0F2F189B2C91E01607047E0B50A237F2260
S315080042D0DFF8680400F062F84FF6FF72BDF80610C2
S315080042E00D20FFF7BEFF07BDF8B50546DFF84844C1
S315080042F0B5F5004F19D102237F22DFF8440400F0F8
S315080043004DF8BDF80000000AFF2814BF0028182041
S315080043106070BDF800000006C00E10281CBF001D06
S3150800432000F091F9BDF80000C543E07808B1002017
S3150800433005E0A089ADB26840C00701D50120E0704C
S31508004340A58105F00106C5F34007DFF8F803016803
S3150800435041F4004101604FF440520FF2A84000EBCF
S3150800436046004078010389B20220FFF77AFF3046FB
S3150800437000F04AFA4022B90100F0FCF92D06A80E11
S3150800438000F001003843A070FFF785FFE07818B108
S31508004390FFF79BFF0020E0700020F2BD018800A80F
S315080043A000F0A8BA2DE9F04F87B0DFF89C532878BB
S315080043B004900B38C0B203900423039A0B2100A87B
S315080043C000F010FB9DF800008DF80A009DF801002A
S315080043D08DF809009DF802008DF808009DF8030085
S315080043E08DF80500D94E3078012804D16878471E23
S315080043F0BF41FF0F00E0012700F06CFD80469DF9E4
S315080044000200A8F10A0408F10A0A5045B6BF844218
S315080044104FF0010B4FF0000B012003998840ADF8CF
S3150800442006009DF80100000604D4A888BDF8061009
S31508004430084201D04FF0010B00F0C8FD9DF80300BB
S3150800444000060AD4E888BDF80610084205D19DF989
S3150800445000005045B8BF844202DB4FF0010901E075
S315080044604FF000094BEA070059EA000000F09B806C
S31508004470B748006800F002008DF80400DFF8D4A2FF
S31508004480DAF8000000F4E0600590B3484FF4E06104
S315080044900160002001F054F901F094FBAF4CA7B17C
S315080044A0687850B1AA48006840084000A8490860E2
S315080044B00120307001F067FC07E0206840F40050E6
S315080044C02060206820F480502060307801280CD1C4
S315080044D001F0A5FD9E48006840F001009C4908606F
S315080044E000203070642001F04EFC2FB1687818B9AE
S315080044F00498C0B201F017FE687838B1206820F435
S3150800450080502060206840F400502060BDF8060006
S31508004510C643BBF1000F08D001F0F2FE8DF801008A
S315080045208DF80280A8883040A880B9F1000F08D01D
S3150800453001F08DFF8DF803008DF80080E888304083
S31508004540E8809DF900009DF90A10884202BF9DF88F
S3150800455001009DF8091088420BD19DF902009DF9CA
S315080045600810884202BF9DF803009DF8051088428E
S3150800457006D0042300AA0399C9B20B2000F043FA17
S315080045800598CAF8000000F073FA9DF8040001F0D7
S31508004590D7F802F080F8687828B148F26070206091
S315080045A0642001F0F0FB9DF8010001F013FE9DF870
S315080045B0030001F047FF07B0BDE8F08F80B500F0B3
S315080045C085FCBDE80140EDE600F080BC70B5064606
S315080045D0A6F10B0401F017F80546A6F10B00C0B2C8
S315080045E0102801D38A2070BD5D488168090702D466
S315080045F00068C00701D58C2070BD5348067059491C
S315080046000A680C2A0ED0A4B20FF26C1232F82420D3
S3150800461090F908008018C861FFF7C4FE012D08BF8D
S3150800462000F095FF002070BD10B5044600F04EFC62
S315080046302046BDE81040C9E74348007870473E4821
S3150800464090F9000070472DE9F04186B006466FF0F4
S315080046502A00864246DB14237F224348FFF79EFE44
S31508004660BDF810004FF6FF71884203D0400448BFDA
S31508004670012506D43F2200211020FFF7EBFD044652
S3150800468000252D48394906F12B02D2B22F2A1AD213
S3150800469013220FF2241300E0521ED2B213F912703D
S315080046A0BE42F9DB03EB420676780E6013F8121069
S315080046B001700020002680460327ADB14FF6BF7271
S315080046C0BDF8101029E0092E0CDA325C0A60067073
S315080046D014237F222648FFF761FE03200126B046F1
S315080046E02827EAE78B201DE04FF46052C10200F04C
S315080046F041F84FF4E062310200F03CF880224FEABC
S31508004700C81100F037F884F020003C18A4B2402CF9
S3150800471028BF3F243F2284F0200100F02BF8FFF742
S31508004720BAFD002006B0BDE8F0810000847C0020B8
S31508004730E810004064100040B06F00203005020801
S315080047403A0502081C100040FE7000204170002047
S315080047508020004000E100E080E100E0D010004049
S3150800476060200040AC1000402C050208C010004034
S315080047702E0502080B2074E5AA21290055232900D5
S3150800478000252800AA26270055282700002A2600E3
S31508004790AA2B2600552D2500002F2400AA30240018
S315080047A05532230000342200AA352200553721004D
S315080047B000392000AA3A2000D500E601EC02EF03F2
S315080047C0F204F405F506F707F808F909FA0AFB0BE7
S315080047D0FC0DFD0FFE11FF1300160119021C031F25
S315080047E01000110020003000400041005000600019
S315080047F0700080009000A000B000C000D000E0006B
S31508004800F000000000000103F0B589B0044600205E
S3150800481001F050FA0A237F222548018800A800F0F3
S3150800482069F84FF6FF75BDF80200A84204D1DC21ED
S315080048300FF2940001F068FF00260FF2A40701E0CA
S315080048402A4616B94FF47C4203E0022E08BF4EF200
S315080048503F0200A800F032F8761C052EF0D3012C92
S3150800486003D114237F22134802E014237F2212481F
S31508004870018803A800F03EF800260FF26C072A46C6
S3150800488008E02A46012E08BF4FF6C07202D0082E4D
S3150800489008BF002203A800F011F8761C0A2EF0D3F0
S315080048A0012C04BF012001F005FA09B0F0BD000093
S315080048B0300502082E0502082C05020830F81610E5
S315080048C0F05DFFF7CEBC0000616E616C6F677565C1
S315080048D02D63656C6C2D626961732E6300000000A0
S315080048E000100C0D0E000000010203040708090A57
S315080048F00B0F000030B5044610467F2808BF00207D
S31508004900B1F5004F83B01AD108237F2240F6120171
S315080049106846FFF7EFFF08220FF23801684602F0F3
S31508004920DDFC30B908237F2240F2A2716846FFF702
S31508004930E1FF08226946204602F086FC37BD044D91
S31508004940294300FB03111A46204602F07DFC37BDB9
S3150800495000000808FFFFFFFFFFFFFFFF30B50FF25B
S315080049600411DFF8F8500A6883B001A80024026031
S3150800497001202870002002F0D1FC30B1002002F09E
S31508004980CDFC10B12C7049203EBDDFF8D40001885B
S3150800499002237F220DF1020000F024F802237F2271
S315080049A00021684600F01EF8002001A9BDF8022083
S315080049B031F81010914208BF0124401C0228F4D394
S315080049C0BDF8000024B1B0F57F7F07D100203EBDB9
S315080049D0B0F57F7F14BF0420062000E007200021E1
S315080049E029703EBD10B5FF2908DCDFF87040247831
S315080049F044B1BDE81040C9B202F06CBFBDE8104032
S31508004A00FFF778BF10BD2DE9F0410546FF2D0E468C
S31508004A10174698460FF2500012DC104C2178A1B1C7
S31508004A20617811B1C22101F06FFE01206070434622
S31508004A3032463946E8B203F0AAF80020607004E06E
S31508004A40BDE8F041CD2101F05FBEBDE8F081034924
S31508004A500978002918BF03F0A9B97047D37F002049
S31508004A6038050208FE01FD02746F6B656E2E630041
S31508004A7010B5DFF8FC441020206303F047FADFF88E
S31508004A80F4140A6842F001020A6003F045FADFF8F6
S31508004A90E8046060206061688931616001212163F2
S31508004AA08A30E060A060E0688930E0600220206318
S31508004AB0DFF8C8044FF6FF71016010BDDFF8C004C7
S31508004AC045F26401C1601E21416250210162C8217C
S31508004AD0C1618165F021C16545F69001416688216D
S31508004AE081660621C16644F2066101604FF6FF71D0
S31508004AF04160DFF89004007838B1DFF88C0448F29A
S31508004B00607101604FF4C1514160DFF880040168AB
S31508004B1041F004010160DFF8780400214170704714
S31508004B202DE9F84F0446DFF86C148A2202FB0012BE
S31508004B30121D0092521C5378127802EB03221FFAB8
S31508004B4082FB0BF440424FF000094FF0010A0BF4C8
S31508004B5040630425B3F5006F08BF082503D0B3F5F5
S31508004B60406F08BF0E25130004D05FEA4B635CBF95
S31508004B70AB1CDDB2DFF820341B784B705FEA8B6321
S31508004B8074D5DFF81864736E1B066FD5471800983E
S31508004B9028184FF40068B2F5404F07D103F016FA0B
S31508004BA05FEA000927D005F108000EE0B2F5004FCC
S31508004BB021D140780099695C01EB002080B203F0AE
S31508004BC085FCFF280CD1CA46A81CC0B241080BF0C8
S31508004BD00702032A0FD1002C14BF7268326815E049
S31508004BE0DFF8BC13096831F810004FF4FE6108427B
S31508004BF018BFD146E8D10020B870F06DC00635D58B
S31508004C00B06C002C08BF4FF4806828E08A42F2D3C3
S31508004C10002C14BF726832684B1C9A42F8D300996C
S31508004C20405C0428E7D1BAF1000F02D10020B87021
S31508004C3004E00020B870B9F1000FDED0F06DC006B0
S31508004C400AD4B06C0CB94FF4806810EA080F03D088
S31508004C50706C40F0010070640120B87006E010EA3C
S31508004C60080F03D0706C400840007064BDE8F18FEF
S31508004C702DE9FC4E0446DFF81CB38A2000FB04B07D
S31508004C80071DC64D002C0CBF286868684600C0B2D0
S31508004C90052805D24FF4F6710FF2283001F034FDDD
S31508004CA05FFA86F909EB0700A0F1080630787178F3
S31508004CB001EB00201FFA80FA9BF80100307003F020
S31508004CC0CBFC7070B74EF06B20F48050F063686EC2
S31508004CD0D4B9306840051CD41AF4E45F0FD100F04B
S31508004CE02CFD10B15FEA4A4009D53878802806D2EB
S31508004CF004EB0B0082784946384603F00BFD002C7E
S31508004D000CBF0120022020E0012CE5D13068000507
S31508004D10E2D5A548017881B100210170A348016850
S31508004D201AF4E45F02D00022402004E078780009F3
S31508004D3000F001028F2003F068FE002C0CBF4FF430
S31508004D4080604FF400603060D9E72861BDE8F38ED3
S31508004D502DE9F047894C2068216C01EA0005934E3D
S31508004D608E4FDFF84C82DFF84092DFF828A219E070
S31508004D7038B14878C00604D4002231688F2003F081
S31508004D8044FE280605D503F08BFE25F08005802015
S31508004D902060E80506D503F083FE25F480754FF4F8
S31508004DA080702060002D5CD0280706D50020FFF70C
S31508004DB0B7FE25F0080508202060E80606D501207C
S31508004DC0FFF7AEFE25F010051020206005F0600004
S31508004DD0602803D1B86CC0050AD401E0A80605D539
S31508004DE025F0200520202060002006E0680606D56C
S31508004DF025F04005402020600120FFF739FFE80430
S31508004E0004D525F480554FF480502060E807B8D5BE
S31508004E106D086D00012020609AF800000028B0D0C7
S31508004E2000F003FC0128ACD199F800000028A8D0AE
S31508004E3098F800000428A4D1F868400800F001009A
S31508004E408A2101FB00A1091D002814BF7A683A6867
S31508004E5012B92268D204F7D5002814BF78683868D2
S31508004E6086E700202060BDE8F08752480068704752
S31508004E70F0B589B004460D460021032001F0B4FBC5
S31508004E8004AE1BE0002701F0CAFB26F8170001F064
S31508004E90C6FB00A921F817007F1C082FF3DB04A81E
S31508004EA003F0B8FE00202080218836F810205140F3
S31508004EB02180401C0828F7DB6D1EA41CEDB2002DCE
S31508004EC0E0D101F0E8FB012009B0F0BD0321022082
S31508004ED001F08ABBF8B529244FF6FF7501F09FFB50
S31508004EE0281A90FBF4F000F13A06334F3878B8B92F
S31508004EF00321032001F078FB02237F222F48018833
S31508004F0000A8FFF7F7FC01F08AFBBDF8001040186F
S31508004F1080B2281A90FBF4F025307870012038709A
S31508004F2001F0B9FB7878301A40B2F2BD80B503219A
S31508004F30022001F059FBBDE80140CBE770B500241B
S31508004F401F48007890B9FFF7F1FF0546104E7078B4
S31508004F5048B13078401B40B203F06DFE0B2805DBE4
S31508004F603570012402E0357001207070204670BD4E
S31508004F700020004084200040047D002000A000405E
S31508004F804C100040FF700020D010004080200040E8
S31508004F90E47F0020007D0020FE70002020200040D5
S31508004FA0906D002004A00040347000204C70002052
S31508004FB03F70002038200040E27F002036050208B6
S31508004FC0417000207068792E6300000010B584B027
S31508004FD00A237F220B48018800A8FFF78BFC4FF6AF
S31508004FE0FF74BDF80000A04204D14E210FF218004C
S31508004FF001F08AFB2246BDF800100020FFF731F9C0
S315080050001FBD000030050208616E616C6F6775652B
S315080050102D66696C7465722E63000000DFF88407DC
S31508005020417A39B1017A012904BFC07A042801D12D
S3150800503001207047002070470FF2FC71405C7047F2
S31508005040010603D54FF67F710840C00070478001FE
S31508005050B0FBF1F080B2FF2888BFFF20C0F1FF0047
S31508005060C0B2704738B5DFF83C07817A012901D10B
S31508005070002032BDDFF83847617871B1E178807B6E
S315080050804518ADB22079854228BF054603F0EDFDE7
S315080050900121A940491E084000E00020617908184E
S315080050A0C0B232BD2DE9F0470446C00703D540F229
S315080050B06D1100F048FADFF8FC56286DC00748BFA6
S315080050C08C2000F19180DFF8DC66002030733070A8
S315080050D0DFF8DC763878A0B12078122818BF0C28BB
S315080050E00BD1617801F00701032902BF001910F8F6
S315080050F0020C042804BF01203073A86F40F0010099
S3150800510002E0A86F40084000A867707BDFF8A88611
S31508005110DFF8A896797899B10021B173296D41F025
S3150800512004012965012807D14FF6FF70C9F8000068
S315080051304FF40070C8F80000FFF794FF82460CE0B1
S31508005140296D21F0040129654FF0000A012804D1D0
S3150800515000F02AFA642000F016FEA86F20F0080076
S31508005160A8671420E864C5F848A0787830B1707B41
S31508005170002801BFA86C00280120A864B879002877
S31508005180286D14BF40F0080020F008002865FFF7D6
S3150800519045FF28B1D9F8400040F00800C9F840009A
S315080051A0202028626C602C6068687F306860042064
S315080051B028624FF4E064DFF80806046006E003F0AE
S315080051C065FD18B103F06AFD02F0A0FEDFF8F405EC
S315080051D0006800F003000328F1D0C8F80040286DE5
S315080051E040F0010028650020BDE8F08710B50446A8
S315080051F0FFF73BFE201A0003000B3338DFF8C8150B
S3150800520088421AD2DFF8C40502210160DFF8C0150A
S31508005210A2B24A60220C02F00F020A60016C41F049
S3150800522002010164DFF8AC450020207002E001208D
S3150800523003F038FD20780028F9D010BD2DE9F84F85
S31508005240DFF87885D8F80000D8F8401001EA00049D
S31508005250A4B2C8F80040DFF85C75DFF848556878EE
S31508005260002840F0C880DFF87065DFF84495E0074D
S3150800527044D5D7F800A0386C796C41EA0041A96199
S3150800528099F80000B0B39AF80100800632D50120DB
S315080052902870FFF7C3FE88B3192000F074FDDFF805
S315080052A03CB54FF44040CBF82800DBF800000090EE
S315080052B0F06E40F40050F066F06E40F48050F066F0
S315080052C0A8699AF800104901B8310818FFF78EFF47
S315080052D0F06E80098001F066F06E00A9098808431F
S315080052E0F0660020CBF8280048F26070F066A88ABD
S315080052F0306003E00022002003F087FB20060ED56D
S31508005300287830B1002028700022A969402003F0CF
S315080053107CFBD8F83C0020F48050C8F83C006006B6
S3150800532008D5687830B9FFF7A0FD00220146892024
S3150800533003F06BFBE0064FD5287ADFF87CA401283A
S3150800534004BF697B01291ED100F069FE386F40F061
S315080053500100386700206873FFF78AFB0A2000F00F
S3150800536012FD00244FF6FF70C8F800004FF4E06005
S31508005370CAF800000920B8660120B864B86F40F082
S315080053800800B86718E0A97B491CA97399F8022098
S31508005390C9B2914215D2012808BF00F0D8F8B86FF3
S315080053A020F00800B8671420B866FFF75BFEB864FB
S315080053B04FF40070CAF80000386D40F001003865F7
S315080053C00AE0012808BF00F0C2F8FFF74EFD0022E8
S315080053D001468D2003F019FB20070CD5FFF71EFEAA
S315080053E048B13068A88201203060D8F8400020F023
S315080053F00800C8F84000A0060AD520203862687858
S3150800540030B9FFF732FD00220146882003F0FDFA85
S31508005410687820B114F4407F04BF0120A870BDE865
S31508005420F18FDFF8C0030088704770B582B0044674
S31508005430FFF7CAF8DFF8B00300210160DFF8685308
S315080054401521E960092101651F21416001210166D5
S31508005450DFF890030088FEF747FFFFF72FFB03F0FE
S3150800546031FF00F030F9DFF83C63308A00F058F974
S31508005470708A00F05DF902F049FD696841F0400163
S31508005480696002F049FD707900F0F2F8B07900F031
S31508005490FFF8307900F02EF9DFF8500390F9000094
S315080054A0FFF7D1F8F07800F04BF996F9070000F00D
S315080054B053F902237F22DFF83803018800A8FFF793
S315080054C019FABDF80000C0054CBF0020BDF8000061
S315080054D0DFF820130870DFF820030078FFF776F866
S315080054E018B140F2963100F02EF8012C05D1286843
S315080054F0C00711D500F02BF80EE06CB92868C00774
S315080055000AD400F08CFD286840F001002860C82005
S3150800551000F039FC00207073DFF8A042F120206407
S3150800552040F2F910E063FFF7A3FA2868C00707D529
S315080055304FF6FF702060DFF880024FF4E0610160EB
S3150800554000F040FB73BD0FF2E02001F0DDB870B546
S31508005550DFF8A8522E68DFF84C42607B012822D07B
S3150800556002F0D4FCB6B22E60DFF854124FF4E062B3
S315080055700A60DFF86C120A6A520852000A620A6860
S31508005580520852000A600A6842F002020A604A6A31
S3150800559042F001024A620121617302F0BDFCBDE8D6
S315080055A0704000F00DBD70BD70B57E4C607B48B391
S315080055B000F035FD02F0AAFC0546DFF84402012199
S315080055C001607A4E306D40F001003065002060734E
S315080055D0FFF74EFA20203060306B40F0020030634F
S315080055E0F06D40F00800F065284602F095FC0A20A8
S315080055F000F0C9FB71484FF6FF7101606E484FF421
S31508005600E061016070BD6748407B704710B5654C26
S31508005610607B18B140F28741FFF795FF207A18B1F1
S31508005620FFF795FF207A607310BD5E48007A7047D1
S3150800563080B5022801D3012002BD5A490872487B69
S31508005640012804D1087A20B9FFF7AEFF01E0FFF779
S31508005650DDFF002002BD6B480068800200149A38FE
S315080056606FF07F0201B29142B8BF104640B2704750
S3150800567010B5044602F04AFC6349002C0A6814BFB8
S3150800568042F0120222F012020A6046494C7140E0CA
S3150800569038B5044602F03AFC054600F030FD40B93C
S315080056A05948002C016814BF41F0800121F080019F
S315080056B001603C4884712846BDE8324002F02CBCA3
S315080056C0384880797047514851494A780B7813EB26
S315080056D002220260CA788B7813EB022242604A796A
S315080056E00B7913EB02228260CA79897911EB0221C0
S315080056F0C160704710B5044602F008FC4249002C08
S315080057000A6814BF42F0200222F020020A602549E6
S315080057100C71BDE8104002F0FFBB2248008A7047B2
S31508005720204908823B49086070471E48408A7047EE
S315080057301C494882384908607047384800787047DD
S31508005740194900280A6814BF42F0020222F0020230
S315080057500A601449C870704738B504467F2C0ED1C4
S3150800576002237F222E48018800A8FFF7C3F8BDF858
S315080057700000C00554BFBDF800406FF04A0402F0AF
S31508005780C5FB054600F0BBFC30B964B204F19A00CB
S315080057908005000C234908600248C471284602F0B7
S315080057A0BBFB31BD34700020802000403020004013
S315080057B0F06F00201020004000E100E004A0004047
S315080057C080E100E0A8200040CDFF070008A00040C7
S315080057D040200040E97F002064100040E4100040AB
S315080057E060200040BC6F00205C100040B06F0020B5
S315080057F03E05020806710020FE7000201C100040BD
S31508005800281000400C1000408420004098200040DA
S31508005810D87C002094200040902000405D71002034
S3150800582040050208541000407068792D636F6D6D4D
S315080058306F6E2E6300000000FEFEF7F7C8C8010071
S31508005840DFF8F8035121016070472DE9F04105465C
S3150800585003F04EFDFA2190FBF1F64FF4F070B0FB21
S31508005860F6F73FB21E2D01DBE81B04D5A8B2BDE84A
S31508005870F04100F088BA02F049FB804603F0BEFD0D
S31508005880DFF8BC0307210160002141608160DFF871
S31508005890B4134FF000720A60E91B09B27143C91CC0
S315080058A08908491E416000F0AEF8DFF890733C683D
S315080058B0386820F04000386003F0A2FD3C602E6096
S315080058C003F0A2FD03F0A8FD4046BDE8F04102F052
S315080058D023BB38B5054603F00BFDFA2190FBF1F41E
S315080058E04FF4F070B0FBF4F02D1A2DB21E2D04DA29
S315080058F08A210FF2943000F007FFDFF844030721EE
S315080059000160002141608160DFF838134FF00072B2
S315080059100A6005FB04F1C91C8908491E416031BDAE
S31508005920DFF82403B0F9000000B970472DE9F0410B
S315080059300024DFF818532C60DFF8146334604FF442
S31508005940A040706041F29A084046FFF77EFF6F68F4
S3150800595003F0D6FC00010A21B0FBF1F000F5C8708F
S31508005960C01B00B24FF4487190FBF1F000F303003E
S3150800597030604046FFF769FF08274046FFF765FF96
S31508005980686804197F1EF8D103F0BAFC4FF4FA418F
S315080059904843211DC908B0FBF1F080B27060BDE82C
S315080059A0F081DFF8A402B0F9000000B9704738B5F5
S315080059B06FF00F04DFF89C520120A8602C6080204D
S315080059C0FFF743FFE868FF2802D8641C102CF5DBB4
S315080059D031BD70B5DFF88002016841F00101016050
S315080059E00121416002F092FA044600F00CF8DFF853
S315080059F04C02512101602E6003F006FD2046BDE8E9
S31508005A00704002F089BADFF854522E6828684008B8
S31508005A104000286003F0F8BC00207047F8B501463E
S31508005A2040F2DC500446884AB2F900708D4D8C4E1F
S31508005A30012F15DA022030812860A86900F00300DA
S31508005A40032857D0002F03D5A86940F00200A861A3
S31508005A500846FFF7E1FF04001BD1002F4AD547E0AF
S31508005A6031894FF6FF77B9421CD102237F227E483F
S31508005A70018806F10800FEF73DFF3089B84204BFE9
S31508005A8002203081A869800703D4A86940F0020083
S31508005A90A861012070703089286020B2FFF719FFCD
S31508005AA02046F2BDAA699207EFD57278002AF8D186
S31508005AB0A86810F00100AA6803D10F2909D2491C69
S31508005AC006E0920705D532791AB1032901D3491E92
S31508005AD031813071308902283CBF02203081286824
S31508005AE031898842D5D1A86900F00300032801D07E
S31508005AF0FFF76FFF0020F2BD2DE9F047804600242E
S31508005B004E4D564E02F002FA814603F077FC4046A7
S31508005B10FFF784FF08B901240AE000F04CF8D5F82D
S31508005B2000A000F0ABF8C5F800A0376003F06CFCE5
S31508005B3003F072FC484602F0EFF9002CE2D0BDE80B
S31508005B40F0870220D8E710B53D4800214160816002
S31508005B50016821F0020101603A484FF000710160C6
S31508005B603F4C607848B1002060700620FFF754FF6C
S31508005B703548B0F9000001281CDBA078012814D1AB
S31508005B803A48012101603A490968C90748BF032014
S31508005B900FD40221A170016C41F00101016435485E
S31508005BA0042101603448016010BDA078042801D1A1
S31508005BB00520A07010BD3768306840084000306086
S31508005BC003F022BC2DE9F843254C2078002830D074
S31508005BD0E07800282DD11C48B0F90000012820DA09
S31508005BE040F2CD310FF2A00000F08EFD19E002F070
S31508005BF08DF9804603F002FCA07805280CD0174ED4
S31508005C00FFF7D9FF0D4DD5F8009000F037F8C5F825
S31508005C100090376003F0F8FB03F0FEFB404602F005
S31508005C207BF9A0780528E2D1002060700520FFF7EF
S31508005C3063FF00202070BDE8F1830000008000406B
S31508005C4010E000E004ED00E04405020810400040C2
S31508005C500C000040084000401C40004094ED00E065
S31508005C601C710020044000403C05020818A00040B2
S31508005C700C40004080E200E000E100E0286820F0E7
S31508005C804000286003F0BCBB636C6F636B732E63C4
S31508005C900000000010B57B4C002000F002FD40F625
S31508005CA08C218842206834BF40F0080020F00800A4
S31508005CB0206010BD10B582B0044600F05FF800A859
S31508005CC0FEF718FE9DF801009DF80010FF2902BF97
S31508005CD0FF280420002104B1801CC0B2082828BF70
S31508005CE00720082928BF0721674A136823F4607329
S31508005CF043EAC01010601068C00851EAC00010607E
S31508005D0013BD00B583B002237F226048018800A82E
S31508005D10FEF7F0FDBDF800004FF6FF7188420EBF92
S31508005D204FF4E1600A2190FBF1F0ADF80000FFF7AF
S31508005D3078FBC0071FD500F021F801A8FEF7DAFDA9
S31508005D409DF80500FF2808BF0420811CC9B2082950
S31508005D50A8BF0721C1F12F02BDF80030C0F12F00FE
S31508005D6002EBD272521000FB0320C1F12F01B0FBE7
S31508005D70F1F0ADF80000BDF800000EBD02237F2249
S31508005D8043480188704770B50646424C256803F0BB
S31508005D90B7FAFA2190FBF1F070432F303021B0FBAF
S31508005DA0F1F0032809D3616D41F0010161652168AD
S31508005DB0491B0903090B8142F9D370BD10B50400CC
S31508005DC004D110BD4FF47A70FFF7DDFF2046441E5C
S31508005DD080B20028F6D110BD2F48017869B9C0787D
S31508005DE0072818BF092814D0032818BF112810D06F
S31508005DF013281CBF15280B280BD02848016841F426
S31508005E0080720260C80504D438210FF2A00000F0A1
S31508005E107BBC704738B50C4620B1012819D0032839
S31508005E202CD02DE01E4D94B11E48844204D0CA21C0
S31508005E300FF2840000F068FC03F062FA4FF47A71FE
S31508005E404843B0FBF4F0401EB0F5005F0ED2286060
S31508005E5014E05CB103F054FA4FF4FA61620801FBEE
S31508005E600020B0FBF4F0B0F5003F01D3202032BD8E
S31508005E700D4900F001024A6040080860002032BD62
S31508005E80212032BD00BC004018000040340502083D
S31508005E9032050208382000409607080838400040B6
S31508005EA0100004E020A1070068C800407573625F0F
S31508005EB06572726F722E63006D6963726F2D636F00
S31508005EC06D6D6F6E2D696E7465726E616C2E6300F2
S31508005ED038B50120FFF7A2FD0020FFF7EBFE6A4C5C
S31508005EE0206840F00800206003F011FAFFF7D2FEA0
S31508005EF000F023F88D78DD600D8905604D894560D1
S31508005F0000F012F8206820F010002060FEF773F900
S31508005F1003F099FB03F0D6FBFFF713FE03F0F5F940
S31508005F20BDE8314003F022BA88891060C8895060FC
S31508005F30088A1860488A586042E0544954480A78E2
S31508005F40C2604B78534AD360534B7047F0B50B6821
S31508005F504E4C0F25246A960005FA06F6344212D0EE
S31508005F60002606EB820724FA07F7FF0708D5B700CD
S31508005F7005FA07F730F812C0BB4307EA0C073B439C
S31508005F80761C042EEDDB0B60F0BDF0B50B683F4CBC
S31508005F90FF25246AD600B5402C420FD0002505EB14
S31508005FA0C20624FA06F7FE0705D50126AE40875C29
S31508005FB0B3433E4033436D1C082DF0DB0B60F0BD48
S31508005FC010B5324C206A002825D000223449201DFD
S31508005FD0FFF7DBFF01223349201DFFF7D6FF022218
S31508005FE03149201DFFF7D1FF0022294900F014F896
S31508005FF001222A4900F010F80222264900F00CF87E
S3150800600003222A4900F008F80422234900F004F87C
S3150800601004F1140032E010BD04F1140096E710B53F
S315080060201A4C206A002825D000221D492046FFF771
S31508006030ACFF01221B492046FFF7A7FF02221A4997
S315080060402046FFF7A2FF0022114900F014F80122AA
S31508006050124900F010F802220E4900F00CF803224B
S31508006060124900F008F804220B4900F004F804F17C
S31508006070080003E010BD04F1080067E7BDE810401A
S3150800608005220B4962E7000000BC0040D46D0020E1
S3150800609000B0004000B2004000B4004004B0004028
S315080060A00CB000400CB200400CB4004004B20040F2
S315080060B004B400400320FEF7CABC000010B503F084
S315080060C0D1FB044603F0D2FBC0B208B9012C07D1B4
S315080060D0072C11D8DFE804F004100608080A0C0E8D
S315080060E0002010BD092010BD022010BD032010BDE0
S315080060F00B2010BD062010BD44F0800010BD002006
S31508006100704700002A490A68920992010A600A68DB
S315080061101043086027484FF40041016000210160E0
S315080061206420FFF730BE2DE9F0478046224DD5F8AA
S315080061300090286840F4004028601D4F386820F415
S31508006140805038601D4C207868B11D48A178627867
S3150800615000EB820212F82A2C891A00EB880010F844
S315080061602A0C461802E0202601202070B0B2FFF75C
S31508006170C9FF0FF2500A02E0B0B2FFF7C3FF386B4F
S31508006180042805D0386B400754BF761E761CF3E703
S31508006190F86A38B184F80180A6701FFA89F0286079
S315080061A0BDE8F08740F22111504600F0ADFAE6E767
S315080061B0D0100040181000401C100040E67F002058
S315080061C078470008616E616C6F6775652D76636F39
S315080061D02E6300004FF4FE52810189B20C20FEF7AF
S315080061E040B82DE9F84F8A4CA568ADB200264FF0A5
S315080061F00A080127B94620681FFA80FA00F04BFA08
S31508006200B0202063DFF80CB2DBF800000120FFF7AE
S31508006210BAFDB9F1000F11D0AAF10300874202DADC
S31508006220F81C87B213E057460AF50040206006219D
S31508006230092000F0D9F94FF000090BE0DBF800005F
S31508006240000707D5042FA6BFF81E87B2002707F553
S31508006250004020601A2EA8BF6FF0090804DA16F16C
S31508006260190FB8BF4FF00A08464436B27019A06035
S31508006270DBF800000007C9D5012FC7DAB9F1000F0E
S31508006280C4D1A560C4F800A00820CBF80000624875
S31508006290006880B2BDE8F28F10B560494FF0FF3252
S315080062A05A4B1C7864B1002819BF4A605C4848609C
S315080062B041F211100860D9889888BDE8104090E727
S315080062C0002819BF4A600A604860086000F0E3F9D0
S315080062D006210920BDE8104000F0D7B938B50120DD
S315080062E0FFF7DAFF04460020FFF7D6FF0546012030
S315080062F0FFF7D2FF4042001B00EB450000B232BD5B
S315080063002DE9F04F83B0474CA06AADF80400206829
S31508006310ADF80200444D2868ADF800003B4E3078D1
S3150800632058B14FF6FF7200210820FDF793FF80460B
S31508006330C022C0210820FDF794FF3C4F3C48007856
S3150800634010B148F260703860708840F4404040F000
S315080063504C00F8630220A0620120206040F24C4005
S31508006360FFF711FD0120E86028600020B08040207A
S31508006370F080307800B12020FFF72CFFFFF7AEFF42
S3150800638083464020B0807F20F080FFF723FFFFF789
S31508006390A5FF00F04FF8FE2101FB00FAABEB090B55
S315080063A0307850B1484602F046FC00F043F880B217
S315080063B00AEB8911B1FBF0F004E000F03CF880B27A
S315080063C0BAFBF0F080B2401C4FEAC039BDF80000B5
S315080063D028600020E86002202060BDF802002060E6
S315080063E0BDF80400A0620020F863307830B14FF69B
S315080063F0FF721FFA88F10820FDF733FF40F24C4080
S31508006400FFF7C1FC4FEA1940BDE8FE8F2671002050
S31508006410C010004018A0004000700040381000402E
S31508006420EEEEFFFF6020004028100040D01000402C
S31508006430FF7000208146584602F0FDBB3F2241000E
S3150800644089B201E03F2201460220FDF70ABF2DE985
S31508006450F04F93B0564CE06CADF808002068ADF8E4
S315080064600600544DE86AADF804004FF6FF720021A5
S315080064700120FDF7EFFEADF802004FF6FF7200218E
S315080064800B20FDF7E7FEADF800004FF40040206052
S3150800649000202861686148F2020000F08DF84CF689
S315080064A08C30E06448F2F000E8624FF480521146FE
S315080064B00120FDF7D6FE4FF6FF7200210B20FDF7EF
S315080064C0D0FE0621062000F0E0F8804600F087F8A6
S315080064D083464CF69C30E0640020FFF7AFFF0621A8
S315080064E0084600F081F80026B0B2FFF7A7FF06219C
S315080064F0062000F079F800F092F803A921F81600B2
S31508006500761C202EF0DB00F08AF81020FFF796FFA5
S3150800651000F065F8A0EB0B00BDF82C10A1EB080104
S31508006520404301FB01094FF0100A112700F050F80B
S3150800653000F055F800F045F805DB81461FFA87FAA2
S315080065407F1C202FF2DB504610280ED10F2700F0B3
S315080065503FF800F044F800F034F806DB81461FFAED
S3150800656087FA781E07B2002FF1D5BDF80800E06457
S31508006570BDF806002060BDF80400E8624FF6FF7219
S31508006580BDF802100120FDF76CFE4FF6FF72BDF84C
S3150800659000100B20FDF765FE01202861002000F0A1
S315080065A00BF84FEA4A00C0B213B0BDE8F08F0000FE
S315080065B0C010004018100040286040F24C40FFF719
S315080065C0E2BBA0EB0B00404306FB060048457047BC
S315080065D003A830F81700A0EB0806B8B22EE7062184
S315080065E0072000F052B8000070B505460E4602F0C6
S315080065F005FF3D4C206C20F00800206402F00CFFDB
S3150800660001F084FC310341EAC51141F00101374A22
S31508006610116008212160BDE8704001F07DBC2DE9BC
S31508006620F041334C334D304E25E002F0E7FE324858
S3150800663004210160306C40F0080030642F68286837
S3150800664040084000286002F0DFFED4F80080206889
S3150800665020F04000206002F0D3FEC4F800802F60CE
S3150800666002F0D2FE306C20F0080030642348042182
S31508006670016002F0D1FE30680007D6D508203060E8
S315080066801F48006880B2BDE8F08180B5FFF7ACFF0F
S31508006690BDE80140C3E7154801684908490001609B
S315080066A07047F8B50746FFF72CFB04463946032022
S315080066B0FFF7EBFF054639460120FFF7E6FF0646DA
S315080066C039460020FFF7E1FF08490A6852085200D8
S315080066D00A60401B0004711BB0FBF1F060434000E8
S315080066E0000CF2BD0000000018A000400470004035
S315080066F00080004094ED00E000E100E080E200E068
S315080067000070004042DE704738B504460D4602F078
S3150800671007FE01F0FBFB2B4622460FF288510120AB
S3150800672003F0A8FA29462046BDE83440EAE7DFF830
S315080067303C052DE9F843DFF838650168371D4FF445
S3150800674020697965016AB965DFF828150968F96568
S31508006750416A3966816A7966C16AB966016BF96602
S31508006760806B386797F8340040074CBFFC6BBC6BEE
S3150800677003F05AFB844224BFDFF8FC54A542A04626
S31508006780386506F18C01DFF8F424DFF8F43418D301
S31508006790A5693D64E4697C647C6DC4F30804062C31
S315080067A013D19D4211D395420FD22C884DF64265DE
S315080067B0AC420AD13C684C6040F201797C688C6036
S315080067C003E000243C647C648046DFF8B844A042B9
S315080067D038BF2046DFF8B04400E0001D0546A54254
S315080067E004D2D0F800E0BEF1CD3FF6D0DFF89C0425
S315080067F0401BB86400240020F86406EB8005401CA2
S315080068000628AC67F9DB0020DFF884C403E0C0B2D1
S3150800681006EB8005AC67E04528D25CF8044D9C423F
S31508006820F9D39442F7D2E507F5D54FF0000E06EBFB
S315080068308E05AD6FA54204D00EF1010EBEF1060F0E
S31508006840F5DBBEF1060FE6D1002814BF401E052071
S31508006850DDE77C6F4FF0000E06EB8E020EF1010E9F
S31508006860D36F9367BEF1050FF6DB0C600246501E28
S31508006870D2B2002AEDD1786DC0F3080002280AD0FA
S31508006880032816D0042817D0052818D0062819D0AA
S315080068900C281DD01FE0DFF8FC030168890748BFF4
S315080068A040F602191CD40068C00719D540F20259EF
S315080068B016E040F6012913E040F6022910E040F6FA
S315080068C003290DE0B9F5206F0AD140F6042907E03F
S315080068D040F6052904E018B1242838BF40F60729F0
S315080068E04846BDE8F2832DE9F04FDFF88453804629
S315080068F0A86B410785B007D5296C2F6D0FF2B836FE
S3150800690003910024A14607E0E96BEF6C0FF2B0365D
S31508006910DFF8849303916C6D00074CBF0FF2A83221
S315080069200FF2AC32B9EB040A07D064204FEA5A01D9
S3150800693000FB0710B0FBFAFB01E04FF0000B0398D1
S315080069400290CDF80490009433460FF28C314046FD
S3150800695003F026F91FFA8AF0019000961FFA8BF3C6
S31508006960BAB20FF2A431404603F01AF995F8380086
S3150800697040070CD4AAF19800874208D1686DC1492E
S31508006980884204D20FF2BC31404603F009F9039855
S31508006990814528BFA04205D232460FF2D43140467F
S315080069A003F0FEF8404603F053F9286EE8B10FF2FB
S315080069B0E0310FF29074404603F0EAF80026A6A7E5
S315080069C0286EF040C00707D554F82620107818B16D
S315080069D03946404603F0DCF8761C112EF0DB4046BB
S315080069E005B0BDE8F04F03F0BFB8404605B0BDE8B6
S315080069F0F04F0FF2CC3103F0D3B82DE9F843044633
S31508006A0002F034FF40F20151401AA44D0FF2B45778
S31508006A100FF2CC560FF2B4680FF22C4916D0401E6E
S31508006A2017D040F2FF11401A35D04FF44071401A82
S31508006A3039D0401E53D0401E73D0401E00F0B0809F
S31508006A40401E00F0C880401E06D0C2E00FF2883112
S31508006A5042E00FF2C431C0E0E86C012806D00328F2
S31508006A6007D0042807D0052808D00AE00FF2F43624
S31508006A7008E07AA606E00FF2F43603E00FF2F436E1
S31508006A8000E077A60FF2F43100F0B5F82B6D0FF29F
S31508006A901441324603E02B6DEA6C0FF22041204682
S31508006AA003F07EF890E00FF2304100F0A4F8686A2F
S31508006AB0C0F3400018B10FF2384100F09CF8686A3C
S31508006AC0C0F3807018B10FF2644100F094F8686A58
S31508006AD0C00F79D00FF2884100F08DF874E00FF2FC
S31508006AE0BC4100F088F895F8200010F0030F01D09B
S31508006AF000F07CF8286AC0F3C01018B1EA6A394673
S31508006B0000F076F80027286AF840C00705D500F097
S31508006B1069F810B1314600F06BF87F1C082FF2DBDC
S31508006B2052E00FF2C44100F066F800F05FF8286AF8
S31508006B30C0F3802018B10FF2C84100F05CF8286A4B
S31508006B40C0F3C03018B1EA6A394600F051F8082790
S31508006B50286AF840C00705D500F044F810B1314658
S31508006B6000F046F87F1C102FF2DB95F8200000068F
S31508006B7003D10FF2D44100F03EF801270FF2F84690
S31508006B800FF2B058286BF840C00705D500F02AF870
S31508006B9010B1314600F02CF87F1C042FF2DB13E00D
S31508006BA00FF2DC4100F027F800F020F81027286AD9
S31508006BB0F840C00705D500F015F810B1314600F0C9
S31508006BC017F87F1C1A2FF2DB2046BDE8F24303F0C4
S31508006BD03FB8BDE8F1830FF2C44100F00CF800F0AD
S31508006BE005F8F1E758F82720107870472A684946CB
S31508006BF0204602F0D5BF204602F0D2BF2DE9F04765
S31508006C008046DFF89CA00FF280560FF2B4490025A3
S31508006C1014A715A406E0404602F0BAFF404603F062
S31508006C2017F86D1C3078A8B15AF8043B3246494625
S31508006C30404602F0ADFF16F8010B0028FBD130786C
S31508006C4000281EBFEDB205F00300032814BF214635
S31508006C503946E0E7BDE8F087202570004144430047
S31508006C603F3F00000D0A00002C20000004ED00E064
S31508006C700000002000E300E0F86C00203CFC01085E
S31508006C809041000898000020186D0020186D00201B
S31508006C90186D00201CA00040186D0020440000203C
S31508006CA0040000200D0A5B4153534552543A25709F
S31508006CB03A25645D0D0A000070726F636573730090
S31508006CC06D61696E000000005468726561640000B9
S31508006CD048616E646C6572002570206D6F6465206E
S31508006CE07573696E6720257020737461636B20283D
S31508006CF025347820746F20253478292C2053502089
S31508006D003D20253478000000257520627974657366
S31508006D1020757365642028257525252920696E2028
S31508006D20257020737461636B20286F7574206F66F5
S31508006D3020257520627974657320746F74616C29D7
S31508006D4000000000537461636B205F6D61795F20FA
S31508006D5068617665207573656420757020746F2088
S31508006D603130302525206F6620746F74616C2E00D3
S31508006D705350206973206F75747369646520257094
S31508006D8020737461636B2072616E67652100000071
S31508006D90496E74657272757074732061637469766E
S31508006DA06520286F72207072652D656D7074656434
S31508006DB020616E6420737461636B6564293A000010
S31508006DC04E6F20696E746572727570747320616394
S31508006DD07469766500000000526573657420636106
S31508006DE07573653A205761746368646F67206578C0
S31508006DF070697265642C206E6F2072656C696162B9
S31508006E006C6520657874726120696E666F726D6153
S31508006E1074696F6E000000005265736574206361C3
S31508006E207573653A205761746368646F6720636198
S31508006E3075676874207769746820656E68616E6323
S31508006E40656420696E666F00496E73747275637443
S31508006E50696F6E20616464726573733A20253478AD
S31508006E600000000053433120527800004D41432072
S31508006E7052780000534332205278000052657365F9
S31508006E80742063617573653A20444D412070726FB2
S31508006E9074656374696F6E2076696F6C6174696F67
S31508006EA06E000000444D413A2025702C2061646430
S31508006EB0726573733A20253478000000526573654D
S31508006EC0742063617573653A204173736572742023
S31508006ED025703A2564000000526573657420636165
S31508006EE07573653A2048617264204661756C740052
S31508006EF0484653522E5645435454424C3A206572DE
S31508006F00726F722072656164696E67207665637454
S31508006F106F72207461626C6520666F7220616E20E4
S31508006F20657863657074696F6E0000004846535251
S31508006F302E464F524345443A20636F6E666967751D
S31508006F407261626C65206661756C7420636F756C1E
S31508006F5064206E6F742061637469766174650000DD
S31508006F60484653522E44454255474556543A20669C
S31508006F7061756C742072656C6174656420746F2029
S31508006F806465627567202D20652E672E2C2065782E
S31508006F9065637574656420424B5054005265736589
S31508006FA0742063617573653A204D656D6F7279203B
S31508006FB04D616E6167656D656E74204661756C74AA
S31508006FC000000000496C6C6567616C20616363654D
S31508006FD0737320616464726573733A20253478008C
S31508006FE0434653522E2570005265736574206361BB
S31508006FF07573653A20427573204661756C74000096
S3150800700041646472657373206973206F6620616ECC
S3150800701020696E737472756374696F6E2061667425
S31508007020657220627573206661756C74206F636380
S3150800703075727265642C206E6F742074686520639F
S31508007040617573652E000000434653522E286E6FF5
S315080070506E6529206C6F6164206F722073746F727D
S315080070606520617420616E20696C6C6567616C20AF
S315080070706164647265737300414653522E2570002D
S3150800708052657365742063617573653A205573613B
S315080070906765204661756C7400000000526573656B
S315080070A0742063617573653A204465627567204D7F
S315080070B06F6E69746F72204661756C74000000000B
S315080070C02570203D2025347800000000E4FC0108E6
S315080070D024FD01085CFD010860FD0108A4FD010806
S315080070E05CFD01085CFD0108E0FD010810FE0108D1
S315080070F040FE010864FE01088CFE0108CCFE01086A
S315080071005CFD01085CFD010808FF010838FF01085D
S3150800711070FF0108ACFF0108DCFF01085CFD0108EF
S315080071205CFD01085CFD01085CFD0108140002080D
S31508007130440002085CFD010884000208C800020831
S3150800714008010208440102084C0102085401020819
S31508007150600102086C010208780102087C01020835
S31508007160800102088C01020898010208A0010208A1
S31508007170A8010208AC010208B4010208BC01020811
S31508007180C4010208CC0102085230005231005232C2
S31508007190005233005234005235005236005237003E
S315080071A052380052390052313000523131005231D2
S315080071B03200523133284C5229004D535000505357
S315080071C0500050430078505352004D535020757369
S315080071D065640050535020757365640043535441E9
S315080071E0434B20626F74746F6D00494353520053CA
S315080071F04843535200494E545F414354495645004B
S315080072004346535200484653520044465352004D93
S315080072104D41522F42464152004146535200526553
S3150800722074300052657431005265743200526574C8
S315080072303300526574340052657435004461743005
S315080072400044617431000000814233D21044114475
S31508007250401E491E10E011F8013900F80139121FC5
S3150800726011F8013900F8013911F8013900F8013926
S3150800727011F8013900F8013992B2042AEBDA93B20F
S31508007280002B1EBF11F8013900F80139521EF6D13C
S31508007290704711F8013B00F8013B121F11F8013B3A
S315080072A000F8013B11F8013B00F8013B11F8013BDE
S315080072B000F8013B92B2042AEBDA93B2002B1EBF08
S315080072C011F8013B00F8013B521EF6D17047130036
S315080072D003D00A46194602F0D1BD704710B500E042
S315080072E0521E93B21BB100F00FF8F9D012E000203D
S315080072F010BD10B500E0521E93B21BB100F004F8A1
S31508007300F9D007E0002010BD10F8013B11F8014B39
S31508007310A3427047181B40B210BD00002DE9F9477B
S3150800732088B01B22FF216846FFF7D1FFDFF894904B
S31508007330F622FF214846FFF7CAFF36254FF01B0AFB
S3150800734000270FF290082048C05D411C01EBD1715F
S315080073504C101E49CE5DFF2803D16F214046FFF72A
S31508007360D3F97F2E03DB70214046FFF7CDF9184885
S31508007370C05D00B11934601C012E1CBF29F817A086
S31508007380B2447F1C1B2F00FB0655DCDB40F21C4475
S31508007390A5420ED301F0C4FF00F0B8FD23462A46E5
S315080073A00FF24001012002F065FC9B214046FFF7E1
S315080073B0ABF99DF82000694600F0F1F80AB0BDE87F
S315080073C0F08700001C770020700202088C02020871
S315080073D05402020873696D2D656570726F6D2E63B0
S315080073E0000000000D0A4552524F523A2053696D6B
S315080073F04545206461746120746F6F206C61726703
S31508007400652E2020436F6D70696C696E67207769F9
S31508007410746820256420776F72647320636F6E73B7
S31508007420756D65642E20204D617820616C6C6F77D0
S3150800743065642069732025642E0D0A0010B5DFF8EF
S31508007440643ADFF8644A2488001B03EB40000023F3
S3150800745004E030F8134021F813405B1C9342F8DB34
S31508007460002010BD2DE9F04182B004460D461646AF
S315080074700027DFF8308A01E0B81CC7B2B7421ADA2B
S3150800748078194078795D01EB0020ADF800000122FB
S3150800749000A907EBD77004EB6000DFF80C3A1B88ED
S315080074A0C01A08EB400002F068FD0028E4D002F09C
S315080074B0BBFD002000E00120BDE8F681F8B50446D2
S315080074C00E46154600270DE000F019F8761C04EB69
S315080074D04700BDF80010090A4170BDF8000004F81D
S315080074E017007F1CB7EB550FEEDBE80706D500F053
S315080074F006F82819BDF8001000F8011CF1BD012294
S3150800750000A9B0B29AE7DFF89C19DFF89C2912881F
S31508007510801A01EB4001022002F0F6BCDFF88C1954
S31508007520415CDFF88C29825CDFF88839C05C10B1D1
S3150800753002F5997292B241EAC21080B2704710B54C
S31508007540DFF8743903EB4002DFF86049005D012873
S3150800755001D1104610BD1088081803EB400010BD75
S3150800756038B50C46DFF854190D782A462146FFF738
S3150800757065FF208800281CBF4FF6FF7188420AD095
S31508007580012000E0401CC0B2A84206D234F8101010
S3150800759022889142F6D0002032BD012032BD2DE965
S315080075A0F04F9DB089460446DFF8147900203870FC
S315080075B07880DFF810090088ADF8000008A9FFF701
S315080075C0CFFF824601207870DFF8FC080588DFF8CF
S315080075D0FC08B0F80080BDF80060DFF8CC08008829
S315080075E0ADF8040083460AA9FFF7BAFFD0B1BAF18D
S315080075F0000F43D04FF6FE70BDF82010814204D12B
S31508007600BDF82800012806D10FE0012904BFBDF8FE
S315080076102810814232D0BDF82000BDF828108842D3
S315080076202CD202E0BAF1000F27D00020787030463D
S31508007630CDF808B00795CDF81480DFF880180978DA
S315080076408DF806100818ADF8100000F05DFABDF8C0
S315080076501000FFF7F3FEDFF8780800880690BDF8FB
S315080076600200000B4FF6FF789DF80610884218BFF7
S315080076700F2800D114B3002515E0012478780128D5
S31508007680D5D158460296CDF81C800595D5E70698BB
S3150800769005FB00F4BDF8040000F028FCBDF8000066
S315080076A000F024FC6D1C9DF806008542EFDB0120E6
S315080076B038704D2002F0B8FC0025FBE0BDF81050EC
S315080076C000F022FA2846FFF7B9FE6E1CBDF8020044
S315080076D0C043C0B2ADF80200DFF8F8070588BDF868
S315080076E00200A84218BF01244FF0000A1FE0401C00
S315080076F0C1B2A94217D2C0B28346DFF8DC1731F807
S315080077001B10BDF80E209142F1D1FFF707FF4FF687
S3150800771080710840BDF80C104FF6807211408842FF
S3150800772008BF0BF809A00AF101001FFA80FABDF894
S315080077300200824507DA022203A9B0B2FFF77EFEED
S31508007740B61C0020D4E7002100E0491CA94219DA3A
S3150800775011F809008842F8D0012413E02AF81160CC
S31508007760012201A9BDF8103003EB4000401C00F0CF
S31508007770D0FABDF80400C0F3C710401C00EBD07067
S3150800778006EB6006DFF830A7B6B20598864213DA2C
S31508007790012200A93046FFF751FEBDF8000040451A
S315080077A00AD0761C000ABDF8001001F07F02BDF869
S315080077B00210884202DB012400252BE0002100E0AC
S315080077C0491CA942CCDA11F809308342F8D1C9B26A
S315080077D0FF29C5D07F2A0CBF4FF0000C9446DFF86E
S315080077E0CC36CB5C9C4509DABDF800C0CCF3C01C8E
S315080077F0DFF8C0E611F80EE0F44501D00124AFE742
S31508007800012BABD07F2A08BF00223AF81110511875
S31508007810A4E76D1CDFF8C4060088854204DA3AF846
S3150800782015004045F5D101247E80B5B205988542FC
S315080078300ADA012200A92846FFF700FE6E1CBDF8E9
S3150800784000004045F1D034E7002CFCD101220CA9F8
S31508007850029800F05EFABDF8300040450DD105E00B
S31508007860401C80B2202813D32034A4B20799029A68
S31508007870891A8C4205DB0120387000201DB0BDE84E
S31508007880F08FA51820220CA9A8B2FFF7D7FD002073
S315080078900CA931F810104145E2D0A8B2FFF733FE23
S315080078A0203CA4B2E0E70298069905FB010000F027
S315080078B01EFB6D1C9DF806008542F4DB012038701E
S315080078C0414600F043F818B100F022F90028D4D157
S315080078D00120D3E72DE9F84504460D4616469A4693
S315080078E031462846FFF72BFEB0F80080DFF8C07552
S315080078F0DFF8E01509888D420AD27F2E08BF0026D8
S31508007900DFF8A805285C864202DAE85D824503D0DE
S3150800791040F2864100F0F9F9DFF89805285C68B16D
S315080079204146284600F028FAE95D012908BF20707B
S315080079300AD0022914BF2060208005E0524641463D
S315080079402046BDE8F845B9E5BDE8F1852DE9F34FD0
S3150800795083B0DFF854050488DFF86405407800280A
S315080079601ABFDFF8600500882046DFF85015097849
S315080079700D18ADB2DFF85C050088ADF80800C04305
S31508007980C0B200EB013000F55060ADF8020000F01F
S31508007990CAF92B1B00F0C3F96E1CB6B2002832D107
S315080079A00025DFF8347510E0E8B2FFF7B7FDADF84B
S315080079B0040037F81500ADF80600022200F0ACF90D
S315080079C0002820D1B61CB6B26D1CBDF80800854249
S315080079D0EADB002500E06D1CBDF80800854280F250
S315080079E08E804FF0000A1AE000F08EF81FFA89F030
S315080079F0FFF724FD09F1010900F095F9BB191B1BD6
S31508007A0000F08DF9002874D17F1CFFB25F45EBDBCF
S31508007A10DFF8CC04285C8619B6B20AF1010ADFF849
S31508007A208C0415F800B05FFA8AFADA45D3D25146C3
S31508007A30E8B2FFF784FD8046B8F80090DFF87404D2
S31508007A402F5CF80140EA0520ADF80000BBF1010FF4
S31508007A50BDF800000CBF40F07F004AEA0000ADF810
S31508007A600000DFF84004311B00EB4100711C89B2AD
S31508007A7001914FF6FF7189451EBFBDF80010BDF88C
S31508007A801020914218D19DF80C100029C5D001226A
S31508007A9000A902F072FA019E58BBA8F80060DFF848
S31508007AA010042A5CDFF83C0450F82510B0B2FFF742
S31508007AB0D9FC0028ACD11FE0DFF8F413695C491C37
S31508007AC001EBD171C9054FEA116B012200A902F039
S31508007AD054FA019E68B9A8F80060002F95D0494667
S31508007AE0E8B200F049F901905A4600F015F9002865
S31508007AF08ED002F099FA002005B0BDE8F08FDFF8C5
S31508007B00C00346800120F7E701220DF10201704704
S31508007B102DE9F04182B0DFF8AC030688DFF8880368
S31508007B200488DFF89C536878002812BF2046304640
S31508007B302646012200A9FFF781FCBDF800000128AE
S31508007B400CBF4FF6FE70401EADF80000DFF86C0360
S31508007B500778DFF850833846471E70B1012200A91E
S31508007B60BFB2B819001B08EB400002F006FA00285D
S31508007B70F1D002F059FA002007E06978481E8041E2
S31508007B80C00F6870002028700120BDE8F6812DE935
S31508007B90FE4F83460C4617469A4600208DF8040089
S31508007BA0012539465846FFF7CAFC81465E46C9494B
S31508007BB009888B450AD27F2F08BF0027BB48305C4F
S31508007BC0874203DABA48305C824503D040F2A951AD
S31508007BD000F09BF8BA4F787820B1BB48B0F800801F
S31508007BE0B14803E0B948B0F80080B648008839784B
S31508007BF049B97988081ABC4909888842B4BF43201C
S31508007C00442002F011FAB9F80010AA48305C78B19D
S31508007C10584600F0B1F8BAF1010F08BF217804D030
S31508007C20BAF1020F0CBF2188216881426BD02BE084
S31508007C3002914FF0000B23E0012200A902980BEBFA
S31508007C40DB7300EB630000F064F80BEB040040788C
S31508007C501BF8041001EB002080B2AAF101018B4544
S31508007C6005D1C0B2BDF80010C9B2ADF80010BDF814
S31508007C700010884218BF00250BF102005FFA80FB4E
S31508007C80D345D9DB002D3ED1FFF73EFFB9F80000FA
S31508007C90401E00F03EF89248355C7888A8F101014C
S31508007CA0491B814200DB60B9387808B945201CE0D9
S31508007CB0BDF802100020FFF749FE20B301208DF819
S31508007CC004007888401C78807949725C214680B225
S31508007CD0FFF7C8FBB8B100F026F87B885B1E724C2C
S31508007CE024881B1B00F01BF810B102F09DF90AE06E
S31508007CF09DF8040010B1FFF70BFF20B17888A9F8AA
S31508007D00000028187880BDE8F78F0FF2E810FEF714
S31508007D10FBBC80B2FFF792BB01A96248331B00EB9C
S31508007D20430002F02AB901220DF102015D487047AD
S31508007D3070B582B0044600251926012200A9A0B212
S31508007D40FFF77CFB641CBDF8000048B14FF47F4187
S31508007D50401A02D0FF3806D007E0681C40B276BD4C
S31508007D60AD1C761EE9D168B276BDBDF80000C0B27A
S31508007D7000B96D1CE843F1E738B50C4600210091BF
S31508007D804B49455C2A46214600A8FFF797FB681C25
S31508007D9000EBD07004EB600080B2FFF7C9FF002843
S31508007DA048BFC043009940B2401832BDF0B583B011
S31508007DB004462546404830F81560464909888C42ED
S31508007DC002D23C48285C18B940F2A961FFF79DFF2A
S31508007DD037482D5C681C00EBD07006EB6007B8B21C
S31508007DE0FFF7A6FF322814D2C1074CBF00214FF473
S31508007DF07F41ADF80410012201A92A4BBFB207EB57
S31508007E006000294F3F88C01B03EB400002F0B5F81D
S31508007E1060B131462046FFF7AFFF0090401C009046
S31508007E202B467F2200A92046FFF7B1FEF7BDF8B51D
S31508007E30234C2078002832D11B4805886078002812
S31508007E401ABF204806882E461C4807783846471E1B
S31508007E5002281DD3012200A9FFB2B819FFF759FF5E
S31508007E60BDF800000028F1D01948008807FB00601B
S31508007E7000F03DF80020ADF80000012200A90948ED
S31508007E80BB195B1BFFF74BFF48B102F0CDF8F1BDFC
S31508007E903046FFF738FBFFB20FB901202070F1BD5D
S31508007EA00000000000E00308F00102088C02020846
S31508007EB070020208540202081C770020EC0102082E
S31508007EC0B27F0020F4010208F2010208F601020856
S31508007ED0EE010208FA0102081C020208FC01020867
S31508007EE000020208B0040208F8010208201880B24D
S31508007EF0FFF709BB73696D2D656570726F6D2D6926
S31508007F006E7465726E616C2E63000000EFF311806B
S31508007F10602181F31188704780F31188704700004B
S31508007F20DFF8880500210170FF210172017370478F
S31508007F30F8B5044602F0BCF80546DFF8740506886D
S31508007F40DFF86875204602F0C1F9B0F5006F1CD15C
S31508007F50204602F0DDF900F0B9FAFF2813D0DFF861
S31508007F605415096831F8102042F0200221F8102033
S31508007F70214607F10C0002F050FD387890B1A81997
S31508007F80398A461A13E09320F2BDFF2107F108004B
S31508007F9002F06EFD052803D2214607F10800EAE73C
S31508007FA03920F2BD3D823146384602F0C2FDB2B2F2
S31508007FB00321204602F005F903220521204602F096
S31508007FC00BF9204602F080FA0020F2BDF8B5044607
S31508007FD0DFF8D804007AFF2813D0DFF8DC542968C4
S31508007FE0465C3746384602F083F9082201462046A1
S31508007FF0FFF774F908B90120F2BD28683F5CB7425B
S31508008000F0D10020F2BDF8B5044602F007F9050BD9
S31508008010204602F093F90646204602F07DF9B0F5AF
S31508008020404F15D1E8073BD53146002000F081F9CD
S315080080300446FF2C34D0002102F08AFE80B300F0FB
S31508008040A1F940F080020521204602F0C5F827E094
S31508008050304602F082FC00F039FA0446FF2C01D1C2
S315080080600020F2BD01200021224603F077F8DFF850
S315080080704C24D2E9006706430F43C2E90067EB07C1
S315080080800ED5DFF830341B6833F814304FF4FE642D
S31508008090234205D0D2E9024520432943C2E9020119
S315080080A00120F2BD38B5044602F010F9B0F5006FAC
S315080080B00CBF01250025204602F01AF90446214680
S315080080C0284600F036F9FF2810D18DB1204602F077
S315080080D044FC00F0FBF9FF280AD0DFF8D81309683A
S315080080E031F810004FF4FA61084201D0012032BD80
S315080080F0002032BD2DE9FC4107460C46DFF8AC539B
S3150800810002F0E4F8B0F5006F0CBF05F10C0005F1BC
S3150800811008000078FF2848D0DFF89C130968405CFF
S315080081200646B7423ED1FFF7F1FE804605213046A6
S3150800813002F059F800F07F00471EFAB205213046D2
S3150800814002F04AF8002C18BF312C01D0F8B210BB47
S31508008150FFF7DCFE0746F0B202F0B8F8B0F5006F9C
S31508008160F1B206D105F10C0002F082FC00F00EF91E
S3150800817003E005F1080002F07BFC3846FFF7CCFE69
S315080081804046FFF7C9FE2146304603F0BFFE30469B
S3150800819002F0A8F904E000F0F9F84046FFF7BCFE43
S315080081A0012003E0765C8642BBD10020BDE8F6815B
S315080081B038B501F07DFFBD4C218A421A4FF6FF758E
S315080081C0ADF80050208200A990B200F000F9BDF881
S315080081D00000A84202D10020207031BD0146204689
S315080081E002F0A7FC31BD00214FF6FF70EFE02DE944
S315080081F0F84FDFF8C892D9E90001002908BF00281E
S3150800820000F0908000260124B2460027B846FFF702
S315080082107DFE8446D9E9000104EA00021AEA010350
S3150800822008BF002A18D00127E5436FEA0A0B284041
S3150800823001EA0B01C9E90001D9E9022304EA0200AF
S315080082401AEA030108BF002806D0B84602EA050064
S3150800825003EA0B01C9E902016046FFF75DFE002F3C
S3150800826051D09448006830F8160081074BD59449D8
S31508008270096831F81670B8F1000F05D000F4987146
S31508008280102908BF012500D000258E49096800225B
S315080082907254B8F1000F25D0800623D58DF80070EA
S315080082A0380A8DF8010000A9012000F042F880463E
S315080082B0B8F1FF0F07D100F037F84FF6DF7211401B
S315080082C020F816101BE0002102F042FDB8B1052186
S315080082D0404601F088FF40F080020521404601F043
S315080082E07BFF0CE085F001004146014207D000F013
S315080082F01BF841F4006120F8161004F0ADF9294680
S31508008300384606F063F9761C4FEA4A0040EAD47A02
S315080083106400402E06DAD9E90001002908BF0028C2
S315080083207FF473AFBDE8F18F6248006830F8161025
S3150800833070472DE9F04188465C49002819BF01F1CC
S315080083400C00022501F1080008250078FF2816D040
S31508008350594E3168475C3C4600F014F800060AD4CA
S31508008360204601F0C5FF01462A464046FEF7B6FFFD
S3150800837008B9204604E03068245CBC42ECD1FF20F2
S31508008380BDE8F0810521204601F02DBF70B500211A
S31508008390202006F038FA4548007BFF2816D0464CC0
S315080083A02168455C2E46304601F0B2FF00F08EF893
S315080083B0FF2807D03F49096831F8102042F020020B
S315080083C021F810202068365CAE42ECD170BD2DE94C
S315080083D0F84F80460D460FF2F00000680090DFF86F
S315080083E0CCB00BF10804344F01E00BF10C04FFF795
S315080083F08DFD064606E0204602F024FB514600A8FD
S3150800840002F00BFB204602F067FB48B92078396872
S3150800841010F801A00321504601F0CAFE8045EAD2B1
S315080084200BF10C00844208BFFFF7B0FF3046FFF798
S3150800843073FD2078FF2819D0396810F80190CA46CC
S315080084400321504601F0B4FEA0EB0806B2B20321A0
S31508008450504601F0B6FE2888B6B2864288BF064660
S315080084602E8038681AF800A0CA45E9D10BF10C002D
S315080084708442BAD100A802F02FFBA8B900A802F0DE
S31508008480E1FA044601F0D4FE00F0E8F8FFF77AFFB7
S31508008490000603D44221204603F038FD204602F0A8
S315080084A021F800F0DCF8E5E7BDE8F18F8C700020D4
S315080084B0F8700020906D0020886D002068710020FB
S315080084C08C6D0020946D0020FF000000F8B50600B2
S315080084D00C4C276814D0FFF719FD0B4D2978226834
S315080084E022F8116037F8021BB142FBD1FFF714FDE1
S315080084F0B81E2168401AC0052978000E884200D1A6
S31508008500FF20F2BD8C6D00203771002010B56A4837
S3150800851000686A4C2060606048220021FEF7D7FE9A
S31508008520206867490978017020680021017320686E
S31508008530417320680B21817320680321C173206869
S315080085404FF6FE7101824FF6FF71418200F08DFBF6
S315080085502168087600F089FB2168487600F085FBDB
S3150800856021688876206857490978C176206856496F
S31508008570096881625549097880F82C1020685449A1
S315080085800968016310BD10B5FCF756F84B4C6168D5
S31508008590897B884203D00846FCF746F850B9FCF7B1
S315080085A04EF80146606890F90F00814204D0FCF746
S315080085B04AF808B1012010BD6068008AFDF7B0F8D6
S315080085C06068408AFDF7B4F86068007B012818BF28
S315080085D00020FDF78FF8002010BD10B53D4C002097
S315080085E0207004F040FA20B92046BDE8104002F099
S315080085F095BA06F0CDFC08B106F0F9FC51E080B555
S31508008600002000F015F828B1002000F005F808B1A0
S31508008610002002BDFF2002BD28480068407B0228D2
S315080086201CBF1128432801D101207047002070473C
S3150800863022480068017B04298041C00F704700204A
S315080086407047002070477047704700207047012028
S315080086507047704700207047002070477047704782
S31508008660002070470020704780B50020FFF7D4FF30
S3150800867030B112480068007B032801D2002002BDF1
S31508008680FF2002BD10B5040004D0D9210FF26800FE
S31508008690FEF73AF848200849096800FB041007491C
S315080086A04860BDE810406EE704484068008A704795
S315080086B002484068408A7047A86D0020C47C0020A4
S315080086C04271002043710020AC6D00203C710020EF
S315080086D0B06D0020B47C0020704700207047002051
S315080086E0704702F06CBB7047704701F08DBC06F00E
S315080086F0C0BD06F0ABBE0000656D6265722D6D7576
S315080087006C74692D6E6574776F726B2D73747562F0
S315080087102E63000070B504460D461646FCF7D0FFDA
S3150800872038B16078002E14BF40F0200000F0DF005A
S3150800873060702946204601F058FFFF2822D09C4C3D
S31508008740014604F10C0002F068F92088401C2080DC
S31508008750618880B281420BD2A088401CA08004F1B7
S315080087600C0002F06FF901F0BDFE2088401E208043
S31508008770608821888842F2D38E480078BDE8704028
S3150800878002F0CDBA70BD2DE9F04E86B00446002041
S315080087908DF80500FFF7BAFB854D2988491E298003
S315080087A0FFF7BAFB204601F029FE90F8009090F8F2
S315080087B001A00020009008237F480068205CA0F1F3
S315080087C00802D2B2214602A801F029FF02AE70784B
S315080087D0FFF744FF7948007898B1A86800280FD0B9
S315080087E0F078FCF72DFC4946FCF731FC024696F971
S315080087F0020000F166035BB24946204600F0BCF869
S3150800880094E00AF0070002282DD0FF208DF8040016
S31508008810204601F0F3FD00F1010B584601F03BFD3F
S315080088200546A9EB0500801E47B2002F06D520464F
S3150800883001F058FEFFF713FF002081E001A9584612
S3150800884006F08EFF002874D10AF0070001280BD124
S3150800885005EB0B019DF8040003F07DFE20B99DF899
S31508008860040001F03FFE64E09DF8040052490968DF
S3150800887010F801A05249096844544F480068205C22
S3150800888000F12001C9B29DF8040001F0BDFD9DF874
S31508008890040001F0C8FC00F00C0004281CBFEF1906
S315080088A0002578B280B200906B1C9BB222465146D6
S315080088B09DF8040002F07FF807EB0A01C9B29DF89B
S315080088C0040001F05EFF70783E490978884204D3B7
S315080088D0BD210FF2F800FDF717FF9DF8040001F01F
S315080088E09DFC8004800C717840EA813189B29DF83C
S315080088F0040001F095FCF078FCF7A2FB4946FCF76A
S31508008900A6FB0246032100F01EF8B07800F16602C5
S31508008910D2B2042100F017F89DF80820052100F0CE
S3150800892012F89DF80440204602F04FFB01208DF80E
S315080089300500204601F0D6FDFFF791FE9DF80500DB
S3150800894006B0BDE8F08E9DF8040001F045BC10B5F0
S31508008950174CA18829B1C9B21D20FFF7CAFE00200D
S31508008960A08004F10C0002F06DF8FF2803D0FFF791
S315080089700AFF0028F5D010BD30B5A1B014461D4633
S31508008980002200924B1CDBB2014601A801F047FE0B
S31508008990FFF75FFE2A46214601A8054B9B689847C4
S315080089A0FFF75DFE21B030BD074802F095B800001C
S315080089B0B4700020DC7F00207C6D0020357000201C
S315080089C0846D00203B710020C07000206D61632D0E
S315080089D0726563656976652E6300000038B50446DE
S315080089E00D46012006F0A8FF5A48002D12BF0021A7
S315080089F00178491C0170584844705848FCF752FBE6
S31508008A000020BDE8324006F097BF10B51446A8B35B
S31508008A10402820D0882818BF892833D08D2828D008
S31508008A208F2836D14E48007804280DD144B14D48D8
S31508008A300221017040F60620BDE8104006F084BF0A
S31508008A40FCF7E4FD312020E0FCF7E0FD002C0CBF2C
S31508008A503120002019E03F4801784078814204D24D
S31508008A6000210120BDE81040B8E7FCF7CFFD402003
S31508008A700BE001212020FFF73CFE05E0FCF7C6FDD0
S31508008A80002002E0FCF7C2FD8D20BDE8104002F090
S31508008A9042BAD0210FF2E400BDE81040FDF734BE1B
S31508008AA030480078022800D0704780B52E480078F4
S31508008AB0042807D00C280ED12C480078022818BFA5
S31508008AC07C2808D106F05BFFFCF7A0FD0020BDE876
S31508008AD0024002F020BA01BD38B50024FFF716FAA5
S31508008AE005462048007810B9FCF728FA04462846B7
S31508008AF0FFF712FA002C1CBFBDE8314001F092BA0C
S31508008B0031BD80B5FFF7E8FF14211948BDE80440D8
S31508008B1002F016B840F20D110FF26000FDF7F4BD31
S31508008B2038B5144C2068216C01EA0005ADB2A807D7
S31508008B3006D5206C20F0020020640F480121017040
S31508008B40680705D5206C20F00400206403F066FE53
S31508008B50256031BD61710020F06F00208C7E0020F9
S31508008B603F700020807E00208470002085700020E1
S31508008B708C7F002008A00040E97F00206D61632DEE
S31508008B80656D3235302E630038B504461B4D2146D7
S31508008B9000F03DF8E860211D00F039F8A86004F1FE
S31508008BA0080100F034F8686004F10C0100F02FF8B1
S31508008BB0286031BD7047F8B50446114D80202860FD
S31508008BC0104E062030600720286030688007FCD5E4
S31508008BD0002704EB870100F01AF8A8627F1C042F0F
S31508008BE0F7D330684007FCD500262A6B04EB8601CC
S31508008BF000F00AF8761C042EF7D3F1BD3830004091
S31508008C000030004010A00040002006F0CBBE002037
S31508008C1006F0D6BE70B504460D46FFF777F9064648
S31508008C202846FFF7B1FF2046FFF7C5FF3046BDE8E7
S31508008C307040FFF771B9002848BF404270470000EE
S31508008C4001468AB20AB94BF6EF610F4A000C08BF13
S31508008C504FF6CE201180508070470288130448BF13
S31508008C604A40510001801046704738B5064C6221CB
S31508008C702046FFF7F2FF054641F20B01A01CFFF75D
S31508008C80ECFF684032BD0000FA700020EFF3118057
S31508008C9060288041C043C00F70470000002181F35F
S31508008CA0118870472DE9F04FDFF8B84591B0804636
S31508008CB060680F90B8F1070F08BF4FF0030804D09B
S31508008CC0B8F1080F08BF4FF00208DFF89C65306856
S31508008CD0716840EA0120B16840EA01400090706876
S31508008CE0400703D5E06940F00200E06130684007BC
S31508008CF003D5E06940F00400E0610098F169C840D6
S31508008D00C00703D5E06940F00800E0610020DFF8FD
S31508008D105075DFF858557860A8F10100032800F26D
S31508008D207282DFE810F0450207001C0004000020EC
S31508008D30606014E0286CC00703D5E06940F0400085
S31508008D40E061286C400703D5E06940F02000E06147
S31508008D50286C800703D5E06940F01000E061FFF752
S31508008D60D5F800F0EAFA8DF838000120DFF800158A
S31508008D70DFF800A5C1F50041090B00FA01F1491E0B
S31508008D80CAF838104FF00009090A07D1DFF8E814C5
S31508008D90097819B1616C41F020016164296CDFF82A
S31508008DA0DCB4DFF8DC24DFF8DC340D91696C0C9157
S31508008DB0DBF84C100B91DBF850100A91DBF85410D5
S31508008DC00991DBF858100891DAF800100791DAF8DB
S31508008DD004100691DAF814100591DAF824100491B3
S31508008DE0DFF8A41409685268039202222260DFF8A9
S31508008DF09C2412681B6842EA0322DFF894341B6835
S31508008E0042EA034202924FF0FF326262DFF884249C
S31508008E1013687A68DB0408D57368DB0705D5E36948
S31508008E20DB0744BF814642F48072DFF868341B686A
S31508008E309B0408D573685B0605D5E369DB0744BF61
S31508008E40814642F48042DFF84C341B685B040ED539
S31508008E50009BD6F818C023FA0CF3DB0707D5E3699D
S31508008E60DB0704D5B36900FA03F381461A43DFF832
S31508008E7024341B681B0410D5009BD6F81CC023FAA3
S31508008E800CF3DB0709D5E369DB0702D4E3691B07A3
S31508008E9003D5F369814698400243DFF8F803006872
S31508008EA0C00306D5E069000644BF4FF0010942F049
S31508008EB000627A6000207268D207726848BF4FF471
S31508008EC080505206009AB36948BF40F40050DA4011
S31508008ED0D207009AF36948BF40F48040DA40D207C7
S31508008EE0E26948BF40F40040D20605D4E26992061A
S31508008EF002D4E269520601D540F01000E269120672
S31508008F0048BF40F4803008400190A52000F00CFAD4
S31508008F100120E063E069A16B11B1616A0142FAD0F0
S31508008F20616A014200F0DB800020E0634FF001092E
S31508008F30786840F08040786000F060FA0720286082
S31508008F400F20CBF8000006F04FFD0F98CE49606061
S31508008F500D9828640C9868640B98CBF84C000A980E
S31508008F60CBF850000998CBF854000898CBF858006D
S31508008F700798CAF800000698CAF804000598CAF8BF
S31508008F8014000498CAF8240001980860BC4903989C
S31508008F9048604FF0FF30C0490860BC48BC490268C9
S31508008FA0B84800680968636AD4F81CC042EA002019
S31508008FB040EA01400CEA0303D6F81CC0DDF808E0D5
S31508008FC00099D7F804A080EA0E000840590801F075
S31508008FD0010140EA8120990801F0010140EA810077
S31508008FE0D90801F0010101FA0CF10843190501F04D
S31508008FF07C51084340EA0A007860FEF787FF00F0D4
S315080090000BFA002020609DF8380008B100F07FF9BF
S3150800901078689D490968C90303D5010144BF202121
S315080090202162296C890703D5C10144BF0221E96081
S31508009030296C490703D5810144BF0421E960296CDD
S31508009040C90703D5410144BF0121E960DBF84C108B
S3150800905011F0E00F05D0C10503D58E4A4FF48051B3
S315080090601160DBF8501011F0E00F05D0410403D56C
S31508009070884A4FF400511160DBF8541011F0E00FE4
S3150800908008D0B16920FA01F2D10703D5814A4FF415
S3150800909080411160DBF8581011F0E00F07D0F16934
S315080090A0C840C00703D57B494FF400400860B9F1B2
S315080090B0000F74D179480068000570D5606880078C
S315080090C06DD5B8F1040F6AD06F480068C00643D55D
S315080090D070480068C0063FD5012038705FE0B9F1D6
S315080090E0000F7FF425AFDAF8180065496C4A400886
S315080090F04000CAF8180040F2072C6148C06840F0E2
S315080091000400C8600121674801704FF20F011388F7
S31508009110634504BF53888B4204D14CF23C335380D9
S315080091204FF00109564BDFF858C11B6843F08053CE
S31508009130CCF800300378002BFCD1B9F1000F574862
S315080091401CBF51804FF00009406854490004B860BC
S3150800915089680843B860F1E600F0D2F8FA2190FB76
S31508009160F1F04FF47A7148432F303021B0FBF1F01B
S31508009170002139704C494A6D42F001024A650A6875
S31508009180464B464C5B68A46844EA0343BC68A34262
S3150800919005D10B689B1AC3F313038342F0D378688F
S315080091A040F00040786011B0BDE8F04FFFF776BD9B
S315080091B000F0C3F80446A52000F0B6F800F01EF942
S315080091C0FFF76CFDDFF8E480394FD8F80060D8F86F
S315080091D0000040084000C8F8000000F015F93D6896
S315080091E0386820F04000386000F00AF93D60C8F899
S315080091F0006000F009F90CB100F089F811B0BDE87B
S31508009200F04F00F009B911B0BDE8F04F40F2324115
S315080092100FF2A800FDF778BA134A01F0FF031360AE
S31508009220C1F307235360C1F3074191600023214925
S315080092300B601368002B04BF5368002B01D192689A
S315080092401AB10A6842F001020A600A6842F400721A
S315080092500A600A6842F080020A6023E51649DBE7DD
S31508009260147800200400004008BC004014A0004008
S3150800927000000000044000409807080814A80040B1
S3150800928004ED00E008B2004000E100E008B000404C
S3150800929008B4004000E200E080E200E00C60004014
S315080092A000000020F87C00203820004094ED00E003
S315080092B0008000402000004000404000736C656557
S315080092C0702E630008237F22024801880248FBF7B4
S315080092D011BB00BF42050208D87C00203748006849
S315080092E0C00702D442F6E060704745F6C0507047A2
S315080092F080B5FFF7F3FF3249096801B9400802BD96
S3150800930080B5FFF7EBFF400802BDFCF74ABB2D48C6
S31508009310012181604EF6BE2141600121016070473E
S315080093202949012008607047A52805D125484DF62A
S31508009330AD6141600221016070472248006810F063
S31508009340010018BF0120704710B50FF29802830874
S3150800935052F823201368800000F00C000F24844084
S31508009360A34301FA00F01843106010BD80B51749F1
S31508009370174A1020086017491748007803000BD0D1
S3150800938003280CBF00200120106040F65100086039
S315080093900020FCF713FD06E0022010604FF4006081
S315080093A00860FCF7BDFA0D48072101600021016439
S315080093B010200B490860002002BD00001C40004038
S315080093C020400040006000400860004080E100E066
S315080093D0080000400C600040CC7F002014A000402C
S315080093E000E100E000B0004004B0004000B20040D8
S315080093F004B2004000B4004004B4004072B670479E
S3150800940000BF30BF00BF7047BFF35F8FBFF34F8FFA
S31508009410BFF36F8F7047000062B670479748016CBC
S3150800942041F4C04141F0090101644FF6FF71016042
S31508009430202093490860704770B5012815461E46D6
S3150800944036D113293CBF0FF26820415C0809642213
S31508009450504301F00F010B2903DA884006E00A227F
S3150800946050430A46511ED2B20B2AF8DA01460120A9
S31508009470FCF7D0FC01001CD1300907280CBF0020DE
S315080094800220012D08BF40F0180003D0022D08BFA6
S3150800949040F0080006F00F0102297A49A8BF40F0FB
S315080094A00400886001200860FFF7B8FF002062BD4D
S315080094B0212062BD012800D0704720B57148006898
S315080094C001280FD1FEF722FD05466F48016841F0D5
S315080094D006010160012000F099F82846BDE8204001
S315080094E0FEF71ABD20BD012804D16748016821F09E
S315080094F0060101607047012802BF64488369012B91
S3150800950007D021207047C3685B07FCD511F8013BDB
S31508009510036013465A1EDBB2002BF4D1C168490614
S31508009520FCD50020704710B50446FFF7F9FE012C5C
S3150800953003D1574800684006FBD510BD70472DE992
S31508009540F0435449544B51F82020544C544DDFF8FD
