S01300005A30315F41313945554532372E733337D4
S3150800200040200020E9FA010865FA010867FA010884
S31508002010A70A080100210008040303AC00537A014B
S3150800202000000000000000000000000000000000A2
S315080020300000000000000000000000000000000092
S315080020400000000000000000FFFFFFFFFFFFFFFF8A
S31508002050FFFFFFFF00E002080C0000000000000080
S31508002060FFFFFFFFFFFFFFFFFFFFFFFFFFFFFFFF72
S31508002070FFFFFFFFFFFFFFFFFFFFFFFFFFFFFFFF62
S31508002080F02F002000000000EA2F0020EA2F002091
S3150800209040200020B00A02081CFD0108E0160020B6
S311080020A0680D0020000003080030002036
S3150800210040200020E9FA010865FA010867FA010883
S315080021106BFA010869FA01086DFA0108E4FA010880
S31508002120E4FA0108E4FA0108E4FA0108E4FA010805
S315080021306FFA0108E4FA0108CDFC0108FFAA0008B5
S31508002140CDF90108E4FA010841B30008E4FA0108E8
S315080021502B8600084DB10008E4FA0108E4FA0108E4
S31508002160C1940108D166010813B800081D88000843
S3150800217055B20008E4FA01089DB20008A342000817
S315080021805B970108E4FA0108E4FA0108E5FA010890
S3150800219010B5DFF8E8496278208A012A06D10428B2
S315080021A0A8BFC01E08DA002020820FE07AB941F2E3
S315080021B06D72904206DAC01C20820A21201D00F0AA
S315080021C02EFD04E041F27070208200202071208AE2
S315080021D0BDE81040012100F053BE10B5DFF89C2978
S315080021E000211171DFF898190988884228BF002054
S315080021F005D2DFF890190988814207D3012050706B
S315080022000A21BDE81040101D00F009BDD1894FF420
S315080022101E734B430A2493FBF4F303F590537F3361
S31508002220DFF8644900FB0340DFF8603959430A23A5
S3150800223091FBF3F1401A42F2107190FBF1F041F272
S31508002240717341F27071984205DA002848BF002080
S3150800225002D4984200D3084610820121BDE81040F6
S3150800226080B200F00DBE10B5DFF814391B8841F2B4
S31508002270707299421FD2DFF80C391B888B421FD225
S3150800228041F272234B4342F2107493FBF4F34FF47A
S315080022901E74614342F2107491FBF4F103F5A053E6
S315080022A0C1F12901AD33484383420AD3181A41F2D2
S315080022B07171884200D31046DFF8C0180882CCE74F
S315080022C010BD0020F8E7FF2812D041F2707160B106
S315080022D01522504341F2FC42904209D241F2FB4298
S315080022E0101A41F27172904200D308460021B7E7EE
S315080022F00020FBE730B583B0044691B900F037F803
S315080023009DF80500DFF88C5848B100F028F89DF8CC
S31508002310040020B1FFF7D7FF0820686037BD082002
S31508002320286037BD1CB50446C1B900F020F89DF8F1
S31508002330050098B100F013F89DF80400FFF7C3FFF5
S315080023409DF80410DFF84C0831B1DFF83018097829
S3150800235021B90821416013BD0821016013BD012080
S31508002360009001AB00220821204600F003BE0120A0
S3150800237000900DF1050300220621204600F0FABD63
S31508002380072900D0704700B583B00221009101AB40
S3150800239000F00AF8DFF8E407BDF804108181BDF8FB
S315080023A00400FFF71AFF07BD07224FF4407100F03B
S315080023B0E1BD00B5DFF8E007418AC28A5118828A72
S315080023C083B05118ADF80410BDF8041081B1008926
S315080023D090FBF1F0ADF8040001AB2120009040F22B
S315080023E01B12DFF8AC07007840F6053100F090FDC7
S315080023F0F021DFF8A80700F019FC07BD70B582B018
S3150800240004462020DFF88857009040F605362878DD
S3150800241004F110034FF48E72314600F079FD28203E
S31508002420009004F11103287840F21D12314600F09D
S315080024306FFD002076BD10B5DFF86407DFF8644746
S3150800244008210160207818B100202070FF2001E0E3
S3150800245001202070FFF737FF201DBDE810404FF41C
S31508002460FA7100F0DCBB80B5032101F0D1F9FF2831
S3150800247007D0BDE804404FF4FA71DFF82C0700F0E6
S31508002480CEBB01BD80B5032101F0C2F9FF2805D0F6
S3150800249000F03CF8DFF80C070021017101BD10B50A
S315080024A0DFF808470FF2347220786178825C91422F
S315080024B01AD3012802D10020207111E0032808D17F
S315080024C000202071207803281FD1BDE8104001F0B4
S315080024D00CBE00F01BF80020207120780128F1D1ED
S315080024E0032020700A210EE0DFF8B40608220260F5
S315080024F0C8074CBFFF200120FFF7E5FE6078401CA7
S3150800250060704FF4FA71201D20E110BDDFF88006D7
S3150800251000780021EEE6DFF89416002208704A706B
S31508002520081D00F071BBDFF88806002101700172F2
S31508002530704730B5DFF87846A3780020207683B058
S315080025402079411C421E7BB9FF2811D1E078401C36
S31508002550E070C0B2022804DB00202070607020768C
S3150800256037BD0120A07005E0022803DA0020A0701C
S31508002570217100E022712020DFF8145600F07FF860
S3150800258000F0C6FC00F06EF928781122082100F048
S31508002590F1FC9DF80400FF2807D020200090231D99
S315080025A028781122082100F0B3FC1E2104F1180036
S315080025B000F035FB37BD7CB5DFF8F445DFF8D055BC
S315080025C020780A2815DB01F0B2FE287801F0B9F95F
S315080025D0287802F02EFA287802F0C5FD03F035FBBC
S315080025E003F0B1FD0020207020720120FFF793FF51
S315080025F042E007280FD103F0C7FF0646287804F003
S3150800260057FA002020702072022E35D10121B420FD
S3150800261004F069FB30E005280AD10020FFF77BFFAC
S31508002620A022DFF89015002004F07CFF002021E0AE
S31508002630012817D18DF80400607000F020F800F02A
S3150800264099FC1020009001AB28780022062100F0A2
S315080026505FFC0020E070A07004F1180000F0D4FAC6
S31508002660002008E0022804BF6078012804D1002071
S3150800267060702076207020720020207473BD009050
S31508002680231D2878002208217047DFF82405002139
S3150800269080F82010417921B98171012141712030DA
S315080026A0F9E0012909D18179292904DADFF8E41446
S315080026B040220A6003E0022102E0032901D1042135
S315080026C04171704710B5DFF8E8446279162807D1DA
S315080026D0002908BF012A38D1A079401CA07110BD75
S315080026E0082808BF042A30D100202072B9B92078FA
S315080026F058B305F077FF218D401A80B2322802DAE6
S315080027000020207010BD2078022805D04FF496616D
S3150800271004F1100000F083FA4FF4FA6112E005F0B4
S3150800272061FF2085002120782174401C2070C0B2EA
S31508002730022801BF6078012804F1100000F064FA4D
S315080027404FF47A7104F1080000E010BDBDE81040AE
S3150800275000F065BA704780B503F016FF022818BF67
S31508002760032805D0BDE80240DFF84C0400F04CBA57
S3150800277001BD10B5DFF84444A089562803DA401C89
S31508002780A08106F011F80020207110BDDFF82C0496
S3150800279000218181001D40F6B83100F040BA30B5FD
S315080027A083B00546DFF8144403F0EEFE022842D152
S315080027B0DFF8DC53A08998B101208DF80500FF20C9
S315080027C08DF80400DFF8B8030088ADF80600207815
S315080027D0012816D1002020700220FFF79CFE10E089
S315080027E0012000F043F800F0C5FB00F03BF828781C
S315080027F000F034F8022000900DF106032878FFF760
S31508002800D3FD0020A0810DF10603212000900722A8
S3150800281028784FF4407100F07BFB2020009001AB34
S31508002820287800F017F8102000F020F800F070FB68
S31508002830002020710CE0912D0AD10020A08140F6DD
S31508002840B83101202070201D00F0E9F903F0FDF9E8
S3150800285000203EBD0022082100F05ABB00220821B4
S3150800286000F088BB0120009001AB704700900DF185
S315080028700503287800220621704710B5BF4C0020B2
S31508002880A070032339222A21022006F04AF804F10F
S315080028902800BDE810404FF47A7100F0C0B9B74A75
S315080028A0B84B92891B8800FB00F19A4208D140F286
S315080028B0271249F6C43302FB003041F246520AE0B9
S315080028C04AF25C5250436422B0FBF2F000F5DA405B
S315080028D0573042F29722514342F21072B1FBF2F19D
S315080028E0401A08BF4FF0FF307047F0B5B44A8B5C0A
S315080028F018244C43A51805EB43060127B080B5F903
S3150800290004000546064602F1040CA4443CF917C027
S3150800291060446545B8BF654602DBB445B8BF664640
S315080029207F1C0C2FEFDB5B1C8B54DBB20C2BA4BF7C
S3150800293000238B54401B801B0A2190FBF1F000B248
S31508002940F0BD38B58D4C04F11201022006F010F8DE
S3150800295005462A460FF278214FF6FF7006F0D3F89F
S31508002960802D39D1608A06F075F8A5782946FFF7D3
S31508002970BCFF04EB45010883DDB90A21B4F9180048
S3150800298048431B2190FBF1F00A3002B2002AB8BF77
S315080029900022E0898242B4BF801A101A00B20A28BF
S315080029A007DB0A20A189E28192FBF0F0C0B2FFF7AB
S315080029B05AFCA078401CC0B2022828BF0020A0708C
S315080029C00323A0780FF21821425C01B0BDE830401D
S315080029D02A21022005F0A5BF31BD2DE9F041674E39
S315080029E06B4CF07886B040F20278E8B10020F070BF
S315080029F003AB0620009000222078414600F0BAFA80
S31508002A000020ADF8100003AB2520009000222078A6
S31508002A10414600F07DFA0620009006F12003207852
S31508002A200022414600F0A6FAB6F918000A214843E2
S31508002A301B2190FBF1F000F10A073FB2002F48BFB7
S31508002A400027B6F91A0040F65761484342F210715A
S31508002A5090FBF1F52DB2002D48BF0025FFF702FFC8
S31508002A602078FFF7FBFE012000900DF10503207882
S31508002A700022062100F07EFA9DF8050000281ABFFC
S31508002A809DF804000028002005D0FFF708FF05FB85
S31508002A9007F191FBF0F0029002AB2A2000904FF468
S31508002AA080622078414600F033FAB08A0299081805
S31508002AB0B08280B2B0F5616F12DBA0F56160B082BA
S31508002AC006F12003D6E90801401C41F10001C6E9D8
S31508002AD008010022252000904146207800F018FAC7
S31508002AE04FF47A7106F1280000F099F806B0BDE8AF
S31508002AF0F08170B582B00C46324D4FF416760CE074
S31508002B0041F27072002106FB102080B200F0B8F97D
S31508002B10012200A9012006F0A1F900A9204606F025
S31508002B2019F9A0B99DF8000008B10B28E8DBA0F157
S31508002B300B010A2903D20A3801217043E5E7632805
S31508002B40EBD114222946012006F088F9E5E7002092
S31508002B5076BD10B5FFF71AFEFFF78FFE144CF0216D
S31508002B6004F12C0000F062F80D484021016004F1E0
S31508002B702000BDE81040C82100F051B840200020D0
S31508002B80E2200020E0200020E8952903E24E060016
S31508002B900825002010B4004058280020542400209E
S31508002BA014B400405C24002060240020682400201F
S31508002BB02824002000F8FF07742000207020002039
S31508002BC0742400208020002000207047B9E6000009
S31508002BD0737461743A202578200000000408060002
S31508002BE03949000038B54478456806F0D9F90C210A
S31508002BF061438B4A8B585B1BB3F1004F98BF8D50CE
S31508002C00BDE8324006F0D2B910B5044605F0F5FC29
S31508002C106060042020702046BDE81040E2E738B521
S31508002C2000F011F828186060012007E038B500F0B8
S31508002C300AF805EB1020000260600220207020468A
S31508002C40BDE83240CEE704460D4605F0D6BC38B599
S31508002C50FFF7F9FF05EB1040000460600320EDE77D
S31508002C6010B50446207860B1042806D005F0C5FCE6
S31508002C706168421AB2F1004F01D8002010BD081A47
S31508002C8010BD4FF0FF3010BD70B5044605F0B5FC19
S31508002C90054606F085F906466FF00041606800F0C3
S31508002CA02CF8401920603046BDE8704006F07EB921
S31508002CB070B504460D46164605F09FFC002156B130
S31508002CC0FF22327007E0121AAA4202D2154606B14E
S31508002CD03170491C083422680AB9284670BD137831
S31508002CE0002BF6D0042B04D05268831AB3F1004F98
S31508002CF0E9D806B13170002070BD0022D8E738B592
S31508002D00044605F07AFC05460BE0017841B1042932
S31508002D1004D04168691AB1F1004F01D86168884743
S31508002D20083420680028F0D131BD10B50C213C4A82
S31508002D3001FB002405F061FC2168401AB0F1004F40
S31508002D4006D86068FFF7DBFF2046BDE810409BE722
S31508002D5010BD70B50446334D687833490978884202
S31508002D6005D34FF484710FF2C40006F025F96E7886
S31508002D70701C68700C202A4900FB0610446001216B
S31508002D80017200E04E7054F8081B0029FAD1FFF7CB
S31508002D907BFF304670BDF8B505464FF0FF30009012
S31508002DA0204C207840B306F0ABFE28B940F2391122
S31508002DB00FF2780006F000F905F01FFC0C21184AFE
S31508002DC001FB052300251D72002305E0009EB54280
S31508002DD088BF354600955B1C6578DBB2AB420FD2DF
S31508002DE001FB03263568471BB7F1004F04D92D1A96
S31508002DF0367A0EB9002DE9D106F08AFE0020F2BD1A
S31508002E0000A805F019FC0120F2BD0C21044A01FBBB
S31508002E1000200121017270470249087070470000BE
S31508002E2004290020D02F0020B40202086576656EBA
S31508002E30742D636F6E74726F6C2E630010B5044642
S31508002E4041F27170844204DB43210FF2400006F020
S31508002E50B3F80948046010BD10B5044641F2717014
S31508002E60844204DB49210FF2240006F0A5F8034842
S31508002E70046010BD0000000038E000403CE000405F
S31508002E8011B1012901D07047E6E7D7E75A30315F1B
S31508002E904131395F50776D436F6E74726F6C2E6374
S31508002EA0000000002DE9F04786B00F9F109D0E9C8C
S31508002EB002950197A4B206468A469046994600941A
S31508002EC006F02BFE18B1022803D002D310E0012029
S31508002ED00EE00CBF0120002000210491039002950A
S31508002EE0019700944B4642465146304600F026F973
S31508002EF006B0BDE8F08770B586B000260B9C049630
S31508002F00029401260A9D039600240195009412E076
S31508002F1030B585B000F005F8402300F00FF905B08C
S31508002F2030BD0025019304950023089C00930125D4
S31508002F3003950294704700F001F906B070BDF0B52C
S31508002F4085B001270A9D0B9E0C9C0497ADB20027FD
S31508002F50039702940196009500F0F0F805B0F0BDCD
S31508002F607FB5099C089D0A9E029403960024019544
S31508002F70009415E030B585B000F00BF8402304E066
S31508002F8030B585B000F005F8802300F091F905B05A
S31508002F9030BD089C0193002503950294009570475F
S31508002FA000F086F904B070BD2DE9F44F84B09A4656
S31508002FB00E9C0026074688460025B146524600F074
S31508002FC015FC5FEA000BBDF810008DF80070ADF82F
S31508002FD002808DF804A0ADF80600ADF8084058D078
S31508002FE000A9584600F0EAFA002852D00F98109C1B
S31508002FF08DF83C00B24606E006F0EEFD6D1C09F1C0
S3150800300001090AF1010ABBF808001FFA8AFA824583
S3150800301038D2DBF804100C2000FB0A17BBF80000B6
S31508003020B0F57C4F09DA3888ADF8060000AA3946AB
S31508003030584600F0D9FA0028E3D03888BDF81010B1
S31508003040884238BF761CDAD39DF83C10ADB28D4263
S31508003050D5D206F0CCFDB87806F0BEFD002CCDD052
S315080030603888002808BFB8F1030F05D13879C0079A
S3150800307054BF01200320BFE73879C0074CBF07209B
S315080030800520B9E7A9B2B6B270181FFA89F18842C5
S3150800309001D1012000E0002005B0BDE8F08F70B531
S315080030A08EB01546139C129AA4B2052C37DB04AED3
S315080030B0039692B221260296009205AE01962A46FA
S315080030C000F0F6F806002CD19DF8100000F056F92D
S315080030D020B105A806F0EAFD461C04E09DF810009C
S315080030E006F0F4FD0646F6B2301D844217DB284684
S315080030F006F07DFD002006F06FFD9DF8100006F035
S315080031006BFD0C4C20883118522908DA0A4B3246D6
S3150800311005A9C01806F000FE2088301820800EB0D9
S3150800312070BD284606F063FD304606F055FDF6E705
S31508003130000000007A290020882900202DE9FC4F8C
S3150800314089B083460020049088469DF82800179D7C
S31508003150149C8DF818008DF814B0ADF81680ADF8EB
S315080031601C400023BDF82400ADF81A0004A900206D
S315080031700090024605A800F04AFA049808B9862085
S3150800318081E0169E55B98078864218BF8D207AD17F
S3150800319004980079C00758BF882074D50498159DEF
S315080031A00079400723D50498806840680190049800
S315080031B08068806800900498807807F01AF982463B
S315080031C00498C778032F53463A46294630DA01A8A9
S315080031D007F0B0F8814653463A46294600A807F054
S315080031E0A9F8B9F1010F18BF10F1010F2ED09DF8FB
S315080031F06000002846D1049800F048F80395A4B268
S31508003200C0780290019600944146584606F0B2FCF2
S3150800321000F041F800F033F9002834D1012000907D
S3150800322000232A46002105A800F0F1F980B12AE01A
S31508003230019807F07FF8012808D0009853463A46C7
S31508003240294607F077F810F1010FD0D187201AE048
S31508003250049B42465946284600F05AFC00F016F8E8
S315080032600295019600944146584602F079FF00F00F
S3150800327012F806F07EFC00F009F80094414658461C
S3150800328000F0D9F800200BB0BDE8F08F9DF8283083
S31508003290BDF82420704704989DF82830BDF82420EE
S315080032A003954146C07802900196009458467047A7
S315080032B0F0B585B014461A460A9E0B9D0C9B8DF8F0
S315080032C00800ADF80A108DF80C2000270197ADF814
S315080032D00E40ADF8106000979BB22A4601A902A8D5
S315080032E000F095F920B90D9911B1019A92780A70F2
S315080032F005B0F0BD0FF688100FF26002007882B0B4
S3150800330001218DF803000FF67C100088ADF8060041
S315080033100FF674100088ADF8040000208DF802003E
S31508003320ADF80000DFF8380701749DF80310017046
S31508003330BDF806104180BDF8041081809DF8021082
S3150800334081719DF8011002EBC10181609DF80010A2
S31508003350017302B00121417370470000BC3F0008A9
S315080033600A005500DFF8F806007C7047DFF8F0160B
S3150800337001EB0010407B00F001007047412818BFA0
S31508003380422803D0432818BF442801D1012070479A
S3150800339000207047412818BF422801D101207047F4
S315080033A000207047432818BF442801D101207047E0
S315080033B000207047F8B51546069A04461E4600F0E2
S315080033C015FA60B1042100F0F9FB070007D0204682
S315080033D007F044F8324629462046B84793E0F1BD3F
S315080033E02DE9FC470B9C8046894617001D461CBFE5
S315080033F00A9E002E1DD0E5B1307800074CBF40224A
S3150800340080227988387900F0F1F990B1082100F026
S31508003410D5FB824668B1387907F020F80194009602
S315080034202B463A4649464046D047BDE8F34707F09B
S315080034301EB8BDE8F387F8B5164605461A4600F0E5
S31508003440D5F9D8B1069CA4B25CB9022100F0B6FB46
S31508003450040013D0284607F001F831462846A0474D
S315080034600BE0102100F0AAFB070007D0284606F05B
S31508003470F5FF224631462846B84744E0F1BD2DE916
S31508003480F04782B090460A9E0B9C0C9D0D9F814684
S315080034901A4600F0ABF908B9862015E04FF0000A85
S315080034A0B6B286B9202100F089FB06000BD0484643
S315080034B006F0D4FF00972B46224641464846B047B9
S315080034C0824606F0D4FF5046BDE8F687F8B50446AE
S315080034D0A568207806F0C2FF002610E029681420A7
S315080034E000FB06172078398806F019FB01213846B3
S315080034F000F064FB01001CBF20788847761C2879F9
S31508003500F6B28642EAD3BDE8F14006F0B0BF38B558
S315080035100024DFF84C5508E02046FFF727FF18B1CE
S3150800352005EB0410FFF7D2FF641C287CE4B2844242
S31508003530F2D331BD30B585B0089C8DF80800ADF8DA
S315080035400A108DF80C30ADF80E2000250195ADF85F
S315080035501040009500232A4601A902A800F057F852
S31508003560019805B030BD10B5002301E05B1C001DB5
S315080035709BB28B4204D204889442F7D1408810BD8E
S31508003580002010BD0288B2F57C4FA8BF00F00BB82A
S315080035900FF2D070081A0C2190FBF1F292B20021BA
S315080035A00FF6E420DFE70FF61421401A142190FBEA
S315080035B0F1F292B200210FF6CC20D4E710B50C46F2
S315080035C00188628891420DD1027B23791A4209D07B
S315080035D0B1F57C4F04DBFFF7E6FF2189884201D16C
S315080035E0012010BD002010BD10B514460A88E388D6
S315080035F09A420AD10288B2F57C4F04DAFFF7C2FF75
S315080036002189884201D1012010BD002010BD2DE975
S31508003610FE4F002582B00446AA46DFF844B404E00B
S31508003620C0884519ADB20AF1010A9BF810005FFA85
S315080036308AFA824580F0B1804FEA0A1101EB0B0045
S3150800364011F80B10227880689142E9D10090504613
S31508003650FFF78CFE0028E6D0002704E0B8F80A0039
S315080036604519ADB27F1C00980079FFB28742DAD2BD
S3150800367000990968142000FB071821464046FFF701
S315080036809DFF0028EAD04FF0000908E03079302184
S31508003690084202D1F0784519ADB209F10109B8F826
S315080036A008001FFA89F98145DCD2D8F804100C20E5
S315080036B000FB0916224631464046FFF795FF0028CB
S315080036C0E4D0029800B106603079810611D50FF270
S315080036D09461002206E00B799B0602D5CB789A18EE
S315080036E092B20C31B142F6D302EB0B0101F16C0A2E
S315080036F003E005EB0B0101F1140A0E9D1DB1039FB2
S31508003700DFF8609306E00399002944D057468A46B5
S31508003710DFF85493C0060BD531464046FFF732FF13
S31508003720034603980090324661882078C84735E0FA
S31508003730BDF8100096F8028000280CBFF4780446FD
S315080037404046FFF727FE30B1621ED2B239465046D0
S3150800375006F0C3FD1FE04046FFF724FE30B1A21E67
S3150800376092B23946504606F0CDFD14E03DB9BDF893
S31508003770100020B1F178884238BF89200ED3002F77
S31508003780224604D10021504606F009FB03E03946DB
S31508003790504606F0C1FA002000E0862005B0BDE8D4
S315080037A0F08F58B50346002403E0067B360615D489
S315080037B0641C1879E4B284420FD21E68142000FBF8
S315080037C0046006888E42F3D142B1802AEDD0402AA1
S315080037D0EED1067B7606EBD552BD002052BD80B5EC
S315080037E0402200F003F800B1012002BD38B50C46AE
S315080037F0154600F055F8FF2801D1002032BD984B38
S315080038002A46214603EB0010BDE838408068C8E721
S315080038104022FFE72DE9F8430446884691460025ED
S31508003820FFF7E4FF08B9FF2016E000268C4F02E0F8
S315080038304019C5B2761C387CF6B286420BD23001E6
S31508003840C05DA04207D04A464146FFF7CFFF002891
S31508003850EED00120ECE72846BDE8F28330B5002219
S315080038607F4B00E0521C1C7CD2B2A2420AD2140141
S31508003870E55C8542F6D119B1E418647BE407F1D515
S31508003880104630BDFF2030BD80B50021FFF7E6FFAA
S31508003890FF281CBFBDE80240FFF768BD002002BD37
S315080038A00121DBE700016E49405C704738B50C46DC
S315080038B0FFF7F6FF01460020FF291FBF684A02EB03
S315080038C001118968002914D0002203E01B0648BFAD
S315080038D02846521C0B79D2B29A4209D20D68142393
S315080038E003FB0253451C1B7B002CEFD05B06EEE75F
S315080038F0C0B232BD70B50C461546FFF7D1FF0021A0
S31508003900FF281AD0564A02EB0012002301E0491C90
S315080039105B1C90680679DBB2B3420ED200681426A7
S3150800392006FB0300067B15B1760602D4F0E73606D9
S31508003930EED5C9B2A142EAD170BD002070BD002102
S3150800394000E001212DE9F14F86B08A4606F03BFEDC
S31508003950059000259DF81800019000E06D1C404870
S31508003960007CEDB2854270D20198FF2806D09DF8FA
S315080039701800FFF795FF0546FF2D6DD0384800EB78
S3150800398005160198FF2803D1307B05998842E5D1B1
S31508003990002700E07F1CB0680179FFB28F4251D240
S315080039A00068142101FB07084FF0000913E0012005
S315080039B0009000235A46002102A8FFF728FEBAF114
S315080039C0000F06D0BDF80A2031782346584600F085
S315080039D09FF809F10109B8F808001FFA89F9814525
S315080039E0D8D2D8F804100C2000FB09142079C00698
S315080039F0EFD430788DF80800B8F80000ADF80A0062
S31508003A00207940064CBF802040208DF80C002146C6
S31508003A102088ADF80E004046FFF7B4FDADF810005B
S31508003A202179E078490706D5D4F808B00328BEDB23
S31508003A30DBF800B0BBE70328B4BF04F1080BD4F8E1
S31508003A4008B0B4E70198FF2888D0BAF1000F04BF80
S31508003A509DF8180000F00AF807B0BDE8F08F0000DE
S31508003A60082500203F9B00083B9B00083EB50446FE
S31508003A7006F0A9FD0546012006F000FD012C03D03D
S31508003A80FF2C08BFA8423BD101237F221C2100F04E
S31508003A9038F81020009001AB0022062100F035F816
S31508003AA001237F221D2100F02CF82020009001AB75
S31508003AB0002200F029F801237F221E2100F021F8B8
S31508003AC02020009001AB112200F01EF802237F226D
S31508003AD01F2100F016F82120009001AB07224FF4B1
S31508003AE0407100F012F806237F22202100F009F821
S31508003AF02520009001AB002240F2027100F005F883
S31508003B0037BD01A806F018BE08210120FFF700BA44
S31508003B10F0B51D4683B0044628790E461746800739
S31508003B204BD50622002100A806F039F904B900ACE5
S31508003B30012E42D1062F0AD1288800283DD128799E
S31508003B4040063AD4012322467F211C2033E0082F61
S31508003B5015D1288840B9287940062ED40123224653
S31508003B607F211D2006F00FFE2888112825D12879E7
S31508003B70400622D4012322467F211E201BE0B7F5EA
S31508003B80407F0AD12888072817D12879400614D4F7
S31508003B90022322467F211F200DE040F20270874251
S31508003BA004BF2888002808D12879400605D40623AA
S31508003BB022467F21202006F0E6FDF7BD18B5047BD6
S31508003BC0012200230C4205D1002012BD144218BF61
S31508003BD05B1C5200D2B28A42F8D30069DBB250F8B5
S31508003BE0230012BD2DE9FC470A46002701210028BB
S31508003BF0507D07D010B94FF0020C09E0012805D115
S31508003C008C4605E010B94FF0080C01E04FF0040CA3
S31508003C100A980B9CDDF83090DDF834A00FF26C089A
S31508003C20BE4680B238F82E60BDF80050AE421CD1B0
S31508003C3008EB8E05EE7816EA0C0F16D0AE784E45D0
S31508003C4013D3EE78F606D67B01D50EB90DE066B924
S31508003C50BA4501D0874201DB00210DE0AE78FE545B
S31508003C607F1C2688761C2680BFB20EF101061FFA35
S31508003C7086FEBEF1360FD5DB0846BDE8F68700009E
S31508003C800100000004010000010100000000000816
S31508003C9003000006030000080300010804000002F0
S31508003CA004000008040001020400010804000202DE
S31508003CB004000208040003020400030804000408C0
S31508003CC004000508050000020500000805000102B9
S31508003CD005000108050002020500020805000302A6
S31508003CE00500030805000402050004080500050888
S31508003CF00500060205000608060000080600010879
S31508003D000600020808000008080001080800020862
S31508003D100800030808000408080005080800060843
S31508003D200800070819000101190003011900060116
S31508003D300003000800030108000302080003030843
S31508003D4000030408000305080003060800030A0820
S31508003D500003470800034B0800034C080207000845
S31508003D6002070308000020012000000001000000EF
S31508003D7001002001200000000100000002002001CF
S31508003D8020000000000000000300200120000000C1
S31508003D900100000004004221200000002CFD01085B
S31508003DA005004221200000004DFD010807003001F2
S31508003DB02000000000000000080023042000000086
S31508003DC000000000000021020100000000000000C1
S31508003DD0000018010000000000000000000020019B
S31508003DE000000000000000000100200100000000A3
S31508003DF00000000002002102000000000000000090
S31508003E000300100100000000000000000400180173
S31508003E100000000000000000000010010200000081
S31508003E20010000000000200102000000FF00000061
S31508003E301100200103000000FF0000000000F00848
S31508003E40400000006EFD0108010023044000000048
S31508003E5076FD010802002304400000007AFD0108EF
S31508003E6004002304400000007EFD0108060030011E
S31508003E70400000000000000007002102400000008A
S31508003E8000000000080021024000000000000000B9
S31508003E900900210240000000000000000A00230477
S31508003EA0400000000000000002002102000000009F
S31508003EB00000000003002102000000006B61000002
S31508003EC004002102000000007D60000007002102B6
S31508003ED00200000072010000080030010000000026
S31508003EE00200000010002001000000000000000091
S31508003EF00140300100000000020000000A402102D3
S31508003F0000000000100000000B4021020000000025
S31508003F10990000000C402102000000007201000018
S31508003F20000025060200000082FD010800021801B3
S31508003F30000000000000000000033001000000003F
S31508003F4000000000010322030000000088FD0108AC
S31508003F5002032203000000008BFD01080303180179
S31508003F600000000021000000040318010000000002
S31508003F7021000000050318010000000021000000D0
S31508003F8006031801000000000000000000042A03D0
S31508003F9000000000000000001B01210200000000D4
S31508003FA0000000001C0120010000000000000000C5
S31508003FB01D012801000000000000000000000000AC
S31508003FC0643D0008080000004000000000000000F2
S31508003FD003000000C43D0008010002004300000081
S31508003FE090FD010804000000D03D00080100010012
S31508003FF04100000098FD010805000000DC3D0008AE
S3150800400005000600410000009CFD010806000000AE
S31508004010183E00080100010042000000A0FD01084A
S3150800402008000000243E00080200020043000000C9
S31508004030A4FD0108190000003C3E000809001F0005
S3150800404085000000ACFD010800030000A83E00083A
S315080040500A00110043000000B4FD01080207000031
S31508004060203F00080A00150041000000BCFD0108B9
S31508004070050B0000983F00080300040040000000FC
S3150800408000000000000000000000000038B5012014
S3150800409006F0A0FC002006F0E9FDDFF830422068B3
S315080040A040F00800206006F0E2FE06F0CFFD00F0C2
S315080040B020F88D78DFF81832DD608D890560CD89A6
S315080040C0456000F01EF8206820F01000206004F01B
S315080040D002FC07F03AF807F077F806F00EFD06F04E
S315080040E0C4FEBDE8314006F0DEBE40F2016007F0CE
S315080040F007B9784978480A78C2604B78774AD36016
S315080041007047088A1060488A5060888A1860C88A8A
S31508004110586039E0F0B50B686E4C0F25646A960056
S3150800412005FA06F6344212D0002606EB820724FA70
S3150800413007F7FF0708D5B70005FA07F730F812C0E2
S31508004140BB4307EA0C073B43761C042EEDDB0B60EA
S31508004150F0BDF0B50B685F4CFF25646AD600B54024
S315080041602C420FD0002505EBC20624FA06F6F60700
S3150800417005D50126AE40175CB3433E4033436D1C5C
S31508004180082DF0DB0B60F0BD10B5524C606A0028B4
S3150800419025D000225249201DFFF7DBFF0122514995
S315080041A0201DFFF7D6FF02224F49201DFFF7D1FF3A
S315080041B00022494900F014F801224C4900F010F891
S315080041C00222464900F00CF80322494900F008F893
S315080041D004223F4900F004F804F1180032E010BD4B
S315080041E004F1180096E710B53A4C606A002825D005
S315080041F000223B492046FFF7ACFF012239492046F9
S31508004200FFF7A7FF022238492046FFF7A2FF002240
S31508004210314900F014F80122344900F010F802225E
S315080042202E4900F00CF80322314900F008F8042260
S31508004230274900F004F804F10C0003E010BD04F16E
S315080042400C0067E7BDE8104005222A4962E703200B
S3150800425006F0BEBA10B507F055F9044607F056F948
S31508004260C0B208B9012C07D1072C11D8DFE804F031
S3150800427004100608080A0C0E002010BD092010BDFF
S31508004280022010BD032010BD0B2010BD062010BD56
S3150800429044F0800010BD0F48007A70470D48807AB8
S315080042A0704716484FF40041C1600821016009496A
S315080042B0887A50B1104800680B7A400900F001006E
S315080042C083421CBF087207F0C1BB704700BC0040A0
S315080042D000B800408C21002000B0004000B4004027
S315080042E00CB000400CB400400CB8004004B00040CC
S315080042F004B4004004B8004008B8004014A80040C0
S3150800430080B5DFF84C0300210171042006F061F93D
S3150800431006F068F9DFF83C030068407B042814BF00
S31508004320532800F05AF8BDE8014006F05CB980B59C
S31508004330172290A1032007F0F6FB07F064FE002081
S31508004340BDE8024045E0F8B5C24C23685D7B05F040
S315080043500F06002D18BF212D07D01D7B012D01D179
S31508004360850602D4BA4D2F790FB17020F2BD2A7096
S31508004370A981012E04D12120587300F02EF826E0D9
S3150800438081064CBF53210421597321680A7B032AED
S3150800439027BF4A8800F020004FF6FD7200F0A00003
S315080043A00146104600F01AF92068407B042804BF2D
S315080043B0012003F0ABFF042006F00AF92068007B11
S315080043C003282CBF02210821281DFEF72FFC0020F8
S315080043D0F2BDFF224FF6FF71B5E780B507F050FE34
S315080043E008F048FB08F035FD9B4800780A281CBFF2
S315080043F0BDE8014008F02FBF042006F0E9F80121C6
S315080044000FF20D00BDE8044009F02CB900000000C9
S3150800441010B5042006F0DDF806F0E4F88D4C2068A7
S31508004420417B532906D1032141730021012003F062
S3150800443078F826E0042918BF212922D1012003F0A3
S3150800444065FF4FF6FE7009F015FC4FF6FF7009F090
S3150800445019FC002003F0CCFE03F080FC09F0D0FC28
S315080044600AF00CFF2068407B212802D102F0D9FE11
S3150800447007E0002007F038FD00214FF400400AF05D
S3150800448041FF06F0B0F8BDE8104006F06AB82DE91D
S31508004490F84380460E46511CC9B230460BF0FEFA68
S315080044A0054630460BF09CFC0646B01C0BF09EFBFE
S315080044B0814605F04004674F3868017B032903D31A
S315080044C04088804503D023E04069C00120D42000FD
S315080044D010D07078000708D530460BF0BDFE0822CC
S315080044E05E4905F063FC002802E009F0BFFB814540
S315080044F03DD107E003290CD34FF6F870814508DB58
S31508004500280606D50122414605F0A000FFF71BFF45
S315080045106CBB3868007B032829D27078C00626D57C
S3150800452030460BF0A6FE0546294600200CF0C7F8D3
S315080045300646FF2E04D000F01FF830460CF072FA3B
S3150800454040460CF016FCFF2818BF0CF0B1FC09F029
S315080045508DFB60B906F041F84FF6FF730222294633
S3150800456040460CF0C8FEBDE8F14306F03CB8BDE88D
S31508004570F1830000420000001CB50CF081F90446E6
S3150800458000A90CF0DBF950B109F070FB38B107F05F
S31508004590A7FC20B1022200A920460DF0CDF913BDD3
S315080045A038B504460D460DF0FDFCFF2801D1012063
S315080045B032BD28490968C97E49B12949096831F8CF
S315080045C01010490403D50CF02DFA002032BDFFF770
S315080045D0D3FF45F040012046BDE8344030B585B0EC
S315080045E0044601F0400504208DF808008DF80910EE
S315080045F045B103A920460CF0A1F908B9012025E028
S3150800460003A800E0002001900095022302AA0121D8
S3150800461020460BF0F0FD0546FF2D08BF182015D0E3
S315080046204FF6F870844206D300230022022128465A
S3150800463008F0CAF903E02146284609F081FD441E20
S31508004640A441E40F28460BF096F8204605B030BD85
S31508004650D8220020B02C00202C230020C42C0020B7
S315080046601821002038B504460BF0BAFB054620464B
S315080046700BF0E0FD411CC9B220460BF00FFA697831
S3150800468009070AD528460BF0E7FD014600200CF07D
S3150800469016F8BDE832400CF0C5B940065CBFBDE867
S315080046A03140FFF72DBE31BD10B584B0044605F084
S315080046B056FA8DF80800402318200190002202A817
S315080046C0009004212046FEF716FC1FBDF0B585B004
S315080046D004460D46164600F0CFF908B18A2025E0B3
S315080046E0002700A9384601F04EF9002804BF9DF8B6
S315080046F00000002815D103208DF800008DF805501C
S31508004700280A8DF806008DF8014000A9384601F000
S3150800471045F930B932462946204605F022FA0020E6
S3150800472004E07F1CFFB2102FDBDB892005B0F0BD4B
S315080047307CB5BC4D04462868006840790A4621467F
S31508004740FFF7C4FF06460AF09FFD00281FBF28682A
S3150800475000790028012809D101940096AEA3002209
S31508004760042119200DF0F1FC05F034FD012076BD79
S3150800477070B588B004468B2503A814210DF02CFDCE
S31508004780A84E00F051F903AA214605F0E7F90AF008
S315080047907BFD00281FBF306800790028012812D148
S315080047A000F042F9214600F067F900B1002503A898
S315080047B002900194009599A30122042119200DF075
S315080047C0C4FC05F007FD012008B070BD2DE9F24FC5
S315080047D000258CB0814600262C4600E0441CE0B239
S315080047E04845FBD38F4F0AF04FFD00281FBF386896
S315080047F000790028012868D10DF11008B9F1000FD9
S315080048002C461AD100A9204601F0BDF89DF80000F3
S3150800481003280ED100F05DF80BD19DF8050006F8C7
S31508004820080004A830189DF806104170B61CF6B2A8
S315080048306D1C641C102CE5DB34E00C980222002168
S3150800484000EB440005F012FA82464FF0000B00A96F
S31508004850584601F098F89DF80000032817D100F093
S3150800486038F802BF9DF805005FFA8AF1884202BF50
S315080048709DF806104FEA0A42B1EB126F07D106F807
S3150800488008006D1C04A83018B61C4170F6B20BF16E
S31508004890010BBBF1100FDADB601CC4B24C45CCD35C
S315080048A0EDB27DB104A80290EDB2FF200090039608
S315080048B001955BA30222042119200DF046FC05F0A0
S315080048C089FC02E08B2005F08DFC01200DB0BDE8C7
S315080048D0F08F39689DF80100096849798842704760
S315080048E0F0B5504D0446286885B0006846792146DB
S315080048F0304600F0C1F800B3002700A9384601F099
S3150800490042F800AA2146304600F0CCF820B97F1CB0
S31508004910FFB2102FF1DBFF27384601F085F850B9B2
S3150800492000A814210DF058FC00AA2146304605F0CF
S3150800493018F9002602E0012600E08B260AF0A4FCFE
S3150800494000281FBF28680079002801280FD1286889
S3150800495000684079214600F08DFE019400962EA34A
S315080049600322042119200DF0F0FB05F033FC012089
S3150800497005B0F0BD2DE9F0412A4C0FF25018206819
S315080049808AB0006845790127002600F071F80028EA
S3150800499001BF9DF8000003289DF80100854215D146
S315080049A0304601F041F808B100270FE004A8414657
S315080049B014220DF025FC9DF806009DF8051001EB64
S315080049C0002104AA89B2284605F0CBF8761C102ED9
S315080049D0DBDB206800684079002100F04BFE87F099
S315080049E0010005F0FFFB01200AB0BDE8F08170B5B3
S315080049F00C4E044600F018F80D4605F013FA08B9EF
S31508004A00012005E000F010F82A462146FFF75EFE71
S31508004A1005F0E8FB012070BD757600007576730019
S31508004A2075756200A02200203068006840797047DA
S31508004A3022E07FB5044605F0C6FD0546002600F0CF
S31508004A4017F8002804BF9DF8000003280CD19DF82C
S31508004A500100844205D0FF2C04BF9DF80D00854255
S31508004A6002D1304600F0E0FF761C102EE7DB7FBD52
S31508004A7000A9304600F087BF7FB504460D460026DC
S31508004A80FFF7F6FF38B900AA2946204600F00AF8CB
S31508004A9008B1012004E0761CF6B2102EF0DB0020E7
S31508004AA004B070BD10B51378032B02BF5379CCB28E
S31508004AB0A34208D19379B3EB112F04BF51788142F1
S31508004AC001D1012010BD002010BD0000000000002B
S31508004AD000000000000000000000000000000000C8
S31508004AE02DE9F843089E099C054688469146002705
S31508004AF0FEF775FE40B1009433464A4641462846BD
S31508004B00FEF738FA00B901273846BDE8F28310B532
S31508004B1082B0059C049B0094FEF7FAF916BD38B5D9
S31508004B200446DFF8B45B00F0D0FC29782046BDE8DF
S31508004B30344002B582B02021019102A900910022D9
S31508004B400FF6C43332E016B584B0044601208DF85A
S31508004B5008002020019004A8009001220FF6B43323
S31508004B60052100F0FEFAA0B92120019005A80090C1
S31508004B7002220FF6B033052100F0F3FA48B91020E7
S31508004B80019002A8009003220FF6A833052100F031
S31508004B90E8FA06B010BDE0B500218DF8081010211E
S31508004BA0019102A9009103220FF688330521FFF728
S31508004BB0AEFF0EBD1CB5009313460A460146DFF844
S31508004BC01C0B049C0068019400F015FB16BD0A46F0
S31508004BD00146DFF8080B006800F07DBC2DE9F041BE
S31508004BE08AB0044688468B27DFF8F06A24B100F0BD
S31508004BF07EF808B9852722E0002500F077FD3168A0
S31508004C009DF8000009684979884201BFBDF802008D
S31508004C10A0429DF8040040450DD100F0E3FADFF804
S31508004C20B87A00F073F800F068F800F06FF800F052
S31508004C3017F8002703E0681CC5B2102DDDDB3068C5
S31508004C400079002818BF012809D1CDF808800194F9
S31508004C500097D1A3022200F07EF805F0BBFA42E0E5
S31508004C60306839780068407963E72DE9F0418AB001
S31508004C7004468525DFF8646A1CB100F038F8002878
S31508004C8023D00025A846DFF8507A2223424600F0B2
S31508004C902FFD316800F0D1F804BFBDF80200A0422C
S31508004CA00AD18DF80050222300AA414600F005FCDF
S31508004CB000F02CF800F021F808F10108B8F1100FFF
S31508004CC0E3DB00F023F8FFF7CBFF30680079002814
S31508004CD018BF012807D101940095B0A3032200F05C
S31508004CE03AF805F077FA01200AB0BDE8F081306895
S31508004CF0006840792146FFF79BBE3878401E387019
S31508004D0001233A467F21212005F03DBD01237F225C
S31508004D102121384605F010BD70B5DFF8C069044694
S31508004D20306884B0006840790D462A46214600F06E
S31508004D308AF831680979002918BF012908D1009035
S31508004D400295019494A3042200F005F805F042FAAE
S31508004D50012004B070BD052119200DF0F6B90A46E8
S31508004D6080B50146DFF8740900680068407900F0EC
S31508004D7022F905F037FA012002BD2DE9F0418EB07F
S31508004D80064600270025DFF854490AF07DFA002870
S31508004D901FBF20680079002801284AD13EB1206843
S31508004DA0006840793146FFF743FE00B98527DFF8EA
S31508004DB0288901237F222121404605F0BDFC98F869
S31508004DC000000296C0F110000190009774A3062215
S31508004DD0FFF7C1FF27BBA84609AF2223424600F0CA
S31508004DE087FC216800F029F804BFBDF80200B0422C
S31508004DF004D1EDB29DF80400E8556D1C08F10108D0
S31508004E00B8F1100FE9DBE8B204F0E6FE002603E08D
S31508004E10F05D04F0E1FE761CF6B2EDB2AE42F7D3D1
S31508004E2020680079002818BF012800D00DB105F0C8
S31508004E30D1F901200EB0BDE8F0819DF8000009689F
S31508004E404979884270472DE9F0418CB004460D46F1
S31508004E509046FF2725B1FFF7EBFD08B9852097E0B7
S31508004E60002622233246222102A805F065FC9DF879
S31508004E700800A04201BFBDF80A00A8429DF80C0030
S31508004E80404501D1374609E0FF2F02BF9DF80800CB
S31508004E9000283746701CC6B2102EE2DBFF2F08BF6B
S31508004EA0892075D000F009F9012000F04FF900F0CB
S31508004EB07BF88DF81100012000F025F900F074F850
S31508004EC08DF81300022000F016F900F06BF88DF843
S31508004ED01500022000F007F900F064F88DF81800B4
S31508004EE00AF0D2F9002822D0022000F026F900F0B4
S31508004EF059F88DF81C00012000F0EDF800F052F882
S31508004F008DF82000012000F00FF900F04BF88DF81D
S31508004F102200012000F0FFF800F044F88DF8240084
S31508004F20022000F0D0F800F03DF88DF82600BE42C9
S31508004F3023D000208DF80840ADF80A508DF80C8073
S31508004F40ADF80E000AF0A0F910B100208DF8100097
S31508004F500123DFF8846700F029F83078401C3070A8
S31508004F60012332467F21212005F00DFC012300F0A4
S31508004F701DF831782046FFF7DCFD222302AA3946C0
S31508004F8000F09BFA2A4641462046FFF7DCFD002042
S31508004F900CB0BDE8F08100007576750075760000E6
S31508004FA0757576004FF44071204699E57F222121D8
S31508004FB0304605F0C1BBF0B58BB004460D00164669
S31508004FC004D0FFF735FD08B9852074E0002700F006
S31508004FD074F89DF80800A04201BFBDF80A00A8426F
S31508004FE09DF80C00B04261D19DF8110020B1102047
S31508004FF000F0ACF800F0B5F89DF8130020B12020B9
S3150800500000F081F800F0ADF89DF8150020B12120D8
S3150800501000F071F800F0A3F89DF8180020B12120DF
S3150800502000F061F800F09BF80AF02EF900281FBF7F
S315080050309DF8150000289DF8180000282FD0BDF807
S315080050401600002804BFBDF81A00002827D19DF8CD
S315080050501C0020B1212000F070F800F080F89DF8BF
S31508005060200020B1202000F036F800F078F89DF8EE
S31508005070220020B1202000F057F800F070F89DF8C3
S31508005080240020B1202000F046F800F068F89DF8CA
S31508005090260020B1212000F016F800F060F82A4614
S315080050A031462046FFF74FFD002004E07F1CFFB283
S315080050B0102F8CDB8B200BB0F0BD22233A46222121
S315080050C002A805F039BB01900AA8009044F2040230
S315080050D00FF2F463704701900DF121000090012250
S315080050E00FF2A463704701900DF11A000090042294
S315080050F00FF27063704701900DF1160000900322BD
S315080051000FF254637047019005A8009000220FF231
S3150800511038630821704701900DF12500009044F28C
S3150800512003020FF28C63704701900DF12300009083
S3150800513044F202020FF26463704701900DF11E00FB
S3150800514000904FF480420FF22863704701900DF1EA
S315080051501200009000220FF2E853062170474FF420
S3150800516040712046D3E470B58AB0064605F02BFA9E
S315080051700446002500F0BAFA9DF8000048B18642B8
S3150800518005D0FF2E05D105F079F9844201D100F04A
S3150800519029F86D1C102DEDDBDFF83C25002010707A
S315080051A001237F21212005F0EEFAFF2E14D10025D8
S315080051B0DFF82C65FEF7D6F8EDB2854210D206EB7D
S315080051C00510007BA04205D12846FEF76BFB00219F
S315080051D0FFF7AFFC6D1CEDE700213046FFF7A9FC91
S315080051E00AB070BD00208DF80000222300AA2946C7
S315080051F0222005F0C8BA2DE9F64F07468DB0F97C8E
S3150800520018981E4640290CBF4FF001094FF00009B7
S3150800521004F04CFDB9893A7D891A081A851F386841
S3150800522040790090ADB200244FF0FF0A0AF02CF83E
S3150800523000281EBF38790028012840F02181BDF8D2
S31508005240340038B101460098C0B2FFF7F1FB08B93F
S3150800525085250AE1002722233A4600F007FA9DF839
S315080052600C000099884202BFBDF80E00BDF8341044
S31508005270884202BF9DF810009DF83810884201D177
S31508005280BA460AE0BAF1FF0F02BF9DF80C000028E3
S31508005290BA467F1CFFB2102FDDDBBAF1FF0F08BF3D
S315080052A08925D6D02223524600F0E0F909F0ECFF12
S315080052B0A0B1B9F1000F0CD00A2096FBF0F0ADF8BA
S315080052C012000A21BDF8120001FB10608DF81400C7
S315080052D006E0ADF812608DF8144001E0ADF81260F2
S315080052E0574514D08DF815408DF817408DF819409C
S315080052F08DF81C4009F0C8FF48B18DF820408DF89C
S3150800530024408DF826408DF828408DF82A40DDF88F
S31508005310648054E0022E51DB01208DF819002A46DC
S31508005320404604F0A3FCADF81A00A41CB01EC6B291
S31508005330022E43DB01208DF81C0000F0C1F8ADF801
S315080053401E0009F0A1FF002818BFB9F1000F35D0DB
S31508005350B01EA41CC6B2022E30DB01208DF8200038
S3150800536000F0AEF8ADF82200A41CB01EC6B22EB3EB
S3150800537001208DF8240000F09BF88DF82500701E9A
S31508005380C6B2DEB101208DF8260000F091F88DF83E
S315080053902700701EC6B28EB101208DF8280000F0D5
S315080053A087F88DF82900701EC6B2022E06DB01208A
S315080053B08DF82A0000F084F8ADF82C003419A4B250
S315080053C0AC422DD2E01C854210DB2A4621464046D7
S315080053D004F04CFCA11C89B24C1C11F80860002E84
S315080053E0EDD0A4B221467218954201DA80253CE038
S315080053F0062805D008280BD0B0F5407F8AD0DDE70F
S3150800540001208DF8150011F808008DF81600D5E76B
S3150800541001208DF8170011F808008DF81800CDE75F
S3150800542057451CD001230098AB4D8DF80C007F2200
S31508005430BDF83400ADF80E0021219DF838008DF82E
S315080054401000284605F078F92878401C00F054F931
S3150800545000F03BF800982978C0B2FFF76AFB2223D0
S3150800546003AA514600F029F8002509F00DFF002887
S315080054701FBF9A4800680079002805D0012803D084
S3150800548001200FB0BDE8F08FB9F1000F14BF40221C
S3150800549000229DF83800029000958EA3BDF83400CE
S315080054A00190052109200CF050FE04F093FEE7E771
S315080054B0A1B24C1C11F808007047222005F063B908
S315080054C02A46A1B2404604F0D1BB01237F222121FE
S315080054D0284605F031B92DE9F0438DB00D46C17C5B
S315080054E08B27914641290CBF0124002401680079C5
S315080054F091F80580002818BF012840F0AF8035B123
S3150800550029464046FFF794FA08B9852715E000268C
S315080055102223324600F0AAF89DF80C00404501BF48
S31508005520BDF80E00A8429DF81000484501D1002795
S3150800553003E0701CC6B2102EEADB002C14BF412211
S315080055400122CDF808900195009762A3FFF703FCA6
S31508005550002F40F0818009F097FE0028BDF8120060
S3150800556006D024B19DF814200A2101FB002080B240
S3150800557004F03DFB002004F02FFB9DF8150048B110
S31508005580062004F034FB012004F026FB9DF81600E3
S3150800559004F022FB9DF8170048B1082004F027FB09
S315080055A0012004F019FB9DF8180004F015FB9DF87E
S315080055B01900002850D04FF4407004F018FB4948F1
S315080055C0494900884518002004F006FBBDF81A0072
S315080055D004F00DFB00F046F89DF81C0000283BD0AF
S315080055E0BDF81E0004F003FB00F03CF809F04CFE81
S315080055F0002818BF002C2FD09DF8200060B3BDF8F6
S31508005600220004F0F4FA00F02DF89DF8240018B3EF
S315080056109DF8250004F0E0FA2878401C28709DF8CB
S315080056202600C8B19DF8270004F0D6FA2878401C51
S3150800563028709DF8280078B19DF8290004F0CCFA66
S315080056402878401C28709DF82A0028B1BDF82C003F
S3150800565004F0CDFA00F006F804F0BCFD01200DB008
S31508005660BDE8F0832878801C28707047222103A89B
S3150800567005F062B82DE9F0418AB00446884600264E
S31508005680164F154D2223324600F032F89DF80000D9
S31508005690A04204BFBDF80200404515D10020ADF870
S315080056A002008DF80000222300AA3146FFF705FF05
S315080056B0FFF70BFF2878401E00F01EF8FFF705FFDE
S315080056C038682978FFF7CEFA761C102EDADBFFF752
S315080056D00BBB000075767500C82F0020A02200209D
S315080056E0082500207A2900208829002022232A4616
S315080056F0222100A805F020B8287001232A467F2118
S31508005700212005F040B800007363656E6520636F5D
S31508005710756E740063757272656E74207363656E58
S315080057206500000063757272656E742067726F7526
S31508005730700000007363656E652076616C696400AD
S315080057406F6E2F6F6666000063757272656E7420E1
S315080057506C6576656C00000063757272656E742000
S315080057607800000063757272656E74207900000017
S31508005770656E68616E6365642063757272656E74C2
S31508005780206875650000000063757272656E742086
S3150800579073617475726174696F6E0000636F6C6F04
S315080057A072206C6F6F702061637469766500000003
S315080057B0636F6C6F72206C6F6F70206469726563BB
S315080057C074696F6E00000000636F6C6F72206C6FF7
S315080057D06F702074696D65001FB50C460D2302466F
S315080057E0132100A804F0A8FF0D2200A9204604F002
S315080057F093FA207840096073207800F01F00207023
S315080058001FBD30B585B004460D460D2200A804F02C
S3150800581083FA9DF80000697B40EA41108DF8000084
S315080058200D2300AA2146132004F0ADFF05B030BDB4
S315080058302DE9FF4104460025DFF83C64DFF83C7497
S3150800584013E0A846306830F81800A0420CD100A929
S31508005850284600F098F89DF80000022804D0306821
S315080058604FF6FD7120F818106D1C3878EDB2854298
S31508005870E7D3BDE8FF812DE9F04385B004468846A5
S315080058804FF6FF79C84505D100F0B7F910B908F009
S31508005890EDF932E00027DFF8E053DFF8E0630CE0CB
S315080058A0C84508D0286830F81710414504BF4FF698
S315080058B0FD7120F817107F1CFFB2307887421BDA7B
S315080058C0286830F817004FF6FE718842F3D200F0C8
S315080058D0F5F8082221460DF1050004F067FA0028BC
S315080058E0DED12868C84502D130F8170005E020F84F
S315080058F0178006F0DCFBDEE748467BE12DE9FF472B
S31508005900804689460026DFF87873DFF86C43DFF8AF
S315080059106C5316E0B246206830F81A004FF6FE714E
S3150800592088420DD200A93046FFF756FF08224146A5
S315080059300DF1050004F03AFA10B938680AF8009033
S31508005940761C2878F6B28642E4D3BDE8FF87CA49B2
S31508005950096831F8100070471FB50C46C749097821
S3150800596088420FD2C449096831F810104FF6FE7202
S31508005970914207D200A900F006F821460DF105006C
S31508005980FFF779FF1FBD80B5BC4A1278904201D354
S31508005990692002BDFFF720FF002002BD70B504464E
S315080059A00D46287818B92046BDE870403CE0B34853
S315080059B00078844201D3692070BD204606F078FF3E
S315080059C008B1752070BD04F009FE6873681D0CF0F7
S315080059D064FD060018BF01264FF6FF71681DFFF724
S315080059E04AFF334602462978204600F006F829463B
S315080059F02046FFF706FF002070BD10B54FF6FF746E
S31508005A0009B9224608E0032908BF4FF6FE7203D0FB
S31508005A10A24208BF4FF6FD729749096821F810207F
S31508005A2097490968435410BD1FB504469348007842
S31508005A30844228BF692015D2204606F039FF08B1EE
S31508005A4075200FE000A92046FFF7C6FE9DF8000066
S31508005A5008B100F0F4F8884800684FF6FF7120F89E
S31508005A601410002004B010BDF0B585B007460C46EA
S31508005A70814D824E00E07F1C3078FFB287421AD2F1
S31508005A80286830F817004FF6FE718842F3D100F007
S31508005A9015F89DF80500E1B2884204BF9DF8060096
S31508005AA0B0EB142FE7D104F099FD9DF80D10814253
S31508005AB0E1D1384600E0FF2005B0F0BD00A9384620
S31508005AC08AE62DE9F14F84B00D46904699460026A0
S31508005AD0694FDFF8A8A10E9C07E0386830F81B006C
S31508005AE0BDF8101088422CD0761C9AF80000F6B241
S31508005AF0864228D2B346386830F81B004FF6FE7146
S31508005B008842F1D200A93046FFF766FEB8F1000FC9
S31508005B1007D19DF80100484504BF9DF80400A0423E
S31508005B20E2D104F05BFD9DF80D108142DCD1002D19
S31508005B30D3D008220DF10501284604F037F90028CC
S31508005B40D2D1304600E0FF2005B0BDE8F08F10B591
S31508005B501446FFF741FE08224A492046BDE8104090
S31508005B6004F0DAB82DE9F04385B00546084616462E
S31508005B701C4600F042F808B100203BE00027DFF899
S31508005B80F880DFF8F89000E07F1C99F80000FFB273
S31508005B9087421ED2D8F8000030F817004FF6FF717A
S31508005BA08842F1D0FFF78AFF0C220DF10101681C2B
S31508005BB004F0FCF80028E7D1FF2F0CD10020207054
S31508005BC004F00BFD207846B178B9284600F0F2FCBF
S31508005BD007E0FF27F2E70120F1E738B1384600F081
S31508005BE016FD401E8041C00F00E00120207004F021
S31508005BF0FAFC012005B0BDE8F0830822214904F02B
S31508005C00D5B830B585B000241C4D12E000A9204651
S31508005C10FFF7E2FD9DF80000042801D300F00FF815
S31508005C2000234FF6FF729DF800102046FFF7E5FEA9
S31508005C30641C2878E4B28442E8D305B030BD00205D
S31508005C408DF8000000A92046DBE530B585B00020B8
S31508005C508DF800000024094D04E000A92046FFF74E
S31508005C60D0FD641C2878E4B28442F6D3FFF7C9FF56
S31508005C70002005B030BD000050210020542100202E
S31508005C8058210020C42C002038B5049D059C14B169
S31508005C90009500F0EFFF31BD10B50C4602462046D0
S31508005CA0BDE810401423232104F046BD0A460146E8
S31508005CB01423232004F067BDA1E22DE9F04F93B029
S31508005CC0002602F09AFC80460025DFF8F09605A922
S31508005CD0E8B2FFF7E1FF0C2000FB05FA5AF80900C5
S31508005CE0A8EB00019DF81500002800F09A809DF8A1
S31508005CF01420002A20D1BDF82020B1EB822F07D32B
S31508005D000AEB0904227A2AB9BDF82220B1EB822FC0
S31508005D10C0F0878004A90391212102910AA9019163
S31508005D20BDF81C109DF81A30BDF818200091BDF872
S31508005D301610FDF7BDFA002873D1C6B130799DF863
S31508005D4015207188824204BFBDF816208A420CD1FC
S31508005D509DF81A209DF81130D2099A4202BFBDF863
S31508005D601C20BDF812309A421FD000F068F80CF0DB
S31508005D7027FA06469DF81A00C0098DF8110014BFC7
S31508005D801020182081A100910A23BDF81C20BDF817
S31508005D9016100CF0C2F99DF8150030714FF48A50B0
S31508005DA0F080BDF81C00ADF81200BDF8180003F02D
S31508005DB01EFF9DF8100003F00FFF9DF81000FDF779
S31508005DC0DDFA20B10AA803F071FF471C04E09DF82C
S31508005DD0100003F07BFF0746BB46BDF8160040F2ED
S31508005DE00271884201BFBDF8180000288DF82C0002
S31508005DF08DF82D00FFB239460AA803F010FF0020DF
S31508005E0020724AF80980052FA8BF4FF0040B02DA62
S31508005E105FFA8BFB05D260605A460AA9201D03F07B
S31508005E207BFF6D1C062DFFF652AF1EB171883079C7
S31508005E3000F005F800F0E3F913B0BDE8F08F10B5EF
S31508005E400C4603F0E3FF08B9032C05D1BDE8104062
S31508005E50DFF86C050CF08EB910BD2DE9F04F04463D
S31508005E6087B0257D00208DF80600607D002807BFD5
S31508005E7018204021102080218DF80410072343A103
S31508005E80009100F05BF9A289ABB2D81C904276DA91
S31508005E90A068195C8DF805105E1CB1B203F0E6FE29
S31508005EA080469DF80500B51C10B101285AD064E05B
S31508005EB0A068A289A9B24D1C0F5C0026A9B203F0FE
S31508005EC0D5FE8246AD1C00F063F88146AD1C384607
S31508005ED004F083FA58B9384603F0F8FE8346A289D7
S31508005EE0A0685B46A9B203F0ABFE06465D4420688F
S31508005EF0218A9DF804300091424641884079FDF791
S31508005F0019FB00281EBF8078B8428D261AD1206852
S31508005F1040798DF8090020684088ADF80A00ADF888
S31508005F200C80ADF814A0ADF8169006969DF80400FE
S31508005F308DF80E000020ADF8100002A800F0B8F9A0
S31508005F400600A0D0304603F047FE9DF8050003F092
S31508005F5043FE404603F04BFE01208DF80600852ED1
S31508005F6091D111E000F014F803469DF80420AD1C09
S31508005F704146204600F028FAE2E78526E2E79DF842
S31508005F80060008B903F028FED2E000000000000071
S31508005F90A289A068A9B203F069BE2DE9F04F0446AC
S31508005FA087B0607D257D002807BF18204FF040097F
S31508005FB010204FF08009B1A10091092300F0BEF826
S31508005FC014E02068218A00914B4641884079524660
S31508005FD0FDF7B0FA5FEA000820D1862003F0FCFD41
S31508005FE0002003F0F9FD504603F001FEA289ADB288
S31508005FF0E81C8242C0F29C80A0682E5C6D1C0027BB
S31508006000A9B203F033FEAD1C8246002ED9D0012E6C
S3150800601004D0852003F0E0FD3046E2E7BB4601A93F
S315080060205846FFF739FE9DF80400B04201BF2068C4
S315080060309DF805104279914220D1BDF80610428894
S31508006040914204BFBDF80810514517D19DF80A10B2
S31508006050494502BFBDF80C10228A91420ED19DF81F
S31508006060041049B1BDF81010E288914202BF9DF8AC
S3150800607012100079814201D1012706E00BF10100D7
S315080060805FFA80FBBBF1060FC9DB002003F0A4FD15
S31508006090304603F0A1FD504603F0A9FD16B1012EC6
S315080060A03FD0A3E798F8020003F096FD002F14BF2F
S315080060B0BDF810004FF6FF7003F099FD002F14BFCE
S315080060C0BDF812004FF6FF7003F091FD98F8020034
S315080060D004F083F9002889D107B101AF98F8028046
S315080060E0404603F0F3FD06466FB13F69F6B2002E4F
S315080060F0D7D0F8B203F070FD3F0A761EF6E73846A9
S3150800610003F06AFD761EF6B2002ECAD0FF27404677
S3150800611004F06FF90028F2D0012E0CBF8027002763
S31508006120EDE7002F0CBF4FF6FF70BDF814005BE7D4
S3150800613004F050F8012007B0BDE8F08F2168228AE4
S3150800614049880BF0EABF10B50024204600F098F8FD
S31508006150641C062CF9DB9B4800210170002010BD49
S315080061602DE9F04786B007460E9CDDF840800D46BF
S3150800617091469A460026A4B200A93046FFF78CFD40
S315080061809DF80000002804BF9DF80100B84231D1EF
S31508006190BDF80200A84204BFBDF80400484529D14D
S315080061A09DF80600504504BFBDF80800A04221D15D
S315080061B00F9C204603F08AFD0528A8BF04200C2161
S315080061C04E437E4FF51902466968404603F03CFE89
S315080061D08046204604F001F9012803D070B90498D6
S315080061E080450BD30120287202F007FAF05100F01F
S315080061F006F803E0761CF6B2062EBDDB4FE12DE964
S31508006200F0414FF0FF3886B0444602F0F6F90546ED
S3150800621000266A4F00A93046FFF73EFD9DF80100AB
S31508006220D0B19DF80000B8B90C217143CA59BDF820
S315080062300C00C9198002097AAA1A434621B190426C
S315080062402CBF831A002304E0BDF80E0008B1C2EB88
S315080062508023A34298BF1C46761C062EDADB5948D3
S3150800626014F1010F03D021460CF0ECF901E00021EE
S31508006270017006B0BDE8F0810000000000000000D3
S3150800628010B586B0044600A9FFF706FD00208DF874
S31508006290010000A92046FFF709FD00A803F067FCE6
S315080062A006B010BD80B5FFF7EBFFBDE80140A6E7D5
S315080062B0F0B5044687B020890090A379A288618842
S315080062C06078FF250126FDF735F908B9862073E0C1
S315080062D0E08920B1A189884238BF87206CD300277E
S315080062E001A93846FFF7D8FC9DF804109DF805006B
S315080062F0002904BF6178884216D1BDF80610628865
S31508006300914202BFBDF80810A28891420CD19DF8AF
S315080063100A10A279914202BFBDF80C102289914257
S3150800632002D100263D4607E0002804BFFF2D3D4662
S315080063307F1CFFB2062FD3DBE0894FF6FF71884238
S3150800634005D116B92846FFF7ADFF002034E0FF2D2A
S3150800635008BF892030D0DEB100218DF80410174F10
S3150800636061788DF805106188ADF80610A188ADF83A
S315080063700810A1798DF80A102189ADF80C100C21A6
S3150800638001FB05F602F039F9F0510021F0194160D8
S31508006390A089ADF81000E089ADF8120020690590D3
S315080063A001A803F0E4FB040005D101A92846FFF77C
S315080063B07DFCFFF724FF204607B0F0BD282A002001
S315080063C0895C0008202A00202DE9F04786B004469B
S315080063D0884691469A46FF250126002700A9384691
S315080063E0FFF75AFC9DF80000012801BF20689DF8B8
S315080063F00110427991421ED1BDF80210428891429D
S3150800640004BFBDF80410414515D19DF8061049454D
S3150800641002BFBDF80810228A91420CD1BDF80C10B3
S31508006420E288914202BF9DF80E100079814202D19E
S3150800643000263D4609E09DF80100002804BFFF2D0F
S315080064403D46781CC7B2062FC8DBFF2D08BF89203A
S3150800645025D0C6B101208DF80000206840798DF856
S31508006460010020684088ADF80200ADF804808DF878
S315080064700690208AADF80800E088ADF80C00206880
S3150800648000798DF80E00ADF810A000A803F06FFB98
S31508006490040003D100A92846FFF708FC204606B0E9
S315080064A0BDE8F08738B505F02DF805F02FF8FDF7AB
S315080064B0EDFD03F02DFB0022002100A8FCF784FB6C
S315080064C000B131BD07F04AFA0446012300220F2124
S315080064D0012002F0FBFB40F2A17505F013F825FA3E
S315080064E000F0C0070AD5DFF83C53287802F060FEB2
S315080064F0287802F0E6FE287802F0E6FF24B10FF2CB
S315080065009830A92102F058FD03F09EFF00F0E2FA48
S31508006510FCF7F0FEFCF71DFB03F0DDFC0221022070
S315080065200CF044F900F014FD0CF048F9DFF8F80215
S315080065304FF48B5101805221DFF8F0020180DFF819
S31508006540F002018001200CF099F9B4A40FF2583535
S3150800655001E003F08EFF04F091FC07F07FFA03F0E8
S31508006560E2FC02F0F9FC0CF02FF801210020FCF700
S31508006570C0FA0028EDD02A4621464FF6FF7002F0F1
S31508006580C2FAE6E707F072BB05F0E9BC0CF0CABF31
S3150800659038B50DF0F6F80446002528460BF076FEC9
S315080065A0A04201D1284632BD6D1CEDB2022DF4DBA6
S315080065B0FF2032BD7FB500F0A0F807F057FB38B1D1
S315080065C06088B0F5006F03D1601D03F0C2FA13E0CE
S315080065D0204603F0DDFA050014D1002600A930464E
S315080065E0FFF7D1F9002804BF9DF80000002805D15F
S315080065F021463046FFF7D2F9054603E0761CF6B287
S31508006600102EEBDB03F033FF284604B070BD38B517
S3150800661000F073F8204603F0B9FA050003D12046C6
S31508006620FFF702FA054603F022FF284632BD10B5E9
S31508006630044603F0CAFF7F4901EB0411097B814236
S3150800664008D12046FCF792FE20B12046BDE810404E
S31508006650FDF728B9FF2010BD70B504460D46FDF7B5
S315080066601FF90646FF2E07D003F0AFFF714901EB6D
S3150800667006110A7B824201D0002070BD4888288016
S31508006680888868808879287101212046FDF70EF9E7
S31508006690687100212046FDF709F9A871012070BD2F
S315080066A02DE9F04105460E469046FDF7F9F80746EE
S315080066B04FF6FF74FF2F13D003F087FF5D4901EBF8
S315080066C00711097B81420BD10EB9012202E0012E86
S315080066D006D1002241462846FDF70CF900B1048888
S315080066E02046BDE8F08110B500F007F8204600F016
S315080066F0E1FBBDE8104003F0BABE044603F0ACBEA9
S3150800670038B50C464C490968455CAA4201D20020B6
S3150800671032BD002100912B4601460022204609F091
S31508006720C7F8284632BD70B598B004460D461646D9
S3150800673003F092FE522203A93046FFF7E1FF060056
S3150800674011D00DF109000DF015F802A80DF014F896
S3150800675003A801909DF908309DF80920009629465E
S31508006760204600F00FFB03F082FE18B070BD2DE93D
S31508006770F04198B005461E9C0E4690461F4603F00B
S315080067806BFE522203A93846FFF7BAFF48B10297B3
S3150800679003A901910090234642463146284600F057
S315080067A032FB03F064FE18B0BDE8F0812DE9F04134
S315080067B004460D460698079F9046194609F05EF866
S315080067C00646FF2E08BF182022D020463E70022813
S315080067D004D9C01E08D0401E0DD014E033464246E8
S315080067E029460CF032FC0CE033460C220C214046BC
S315080067F00CF0ACFC05E033460C22414628460CF06A
S3150800680080FC044600E00224304608F0B4FF204627
S31508006810BDE8F0810822094903F07EBA25703E00DA
S3150800682001F014BED52000200223002006230020F4
S315080068300823002008250020FC200020C42C002066
S3150800684010B582B0FFF759FF0DF101000CF092FF69
S3150800685000A80CF091FF9DF900209DF80110204634
S315080068600DF086F803F003FE13BD38B504460D4651
S3150800687003F0F2FD294620460DF045F808E038B544
S3150800688004460D4603F0E8FD294620460DF0C2F8F9
S31508006890BDE8314003F0EBBD61662D6D61696E2D73
S315080068A0736F632E630000005A30315F41313945FA
S315080068B0554532370000000010B57B4C207903F0AF
S315080068C04CF90020607110BD82B0039840B9764833
S315080068D00321417108304FF4205102B0FCF79FB9EB
S315080068E002B0E9E730B5704C0FF245156179002022
S315080068F02072491E208A83B005293AD8DFE801F0BC
S31508006900031037242A370121B42000F0ECF90220BD
S3150800691060714FF4806104F10800FCF780F937BD17
S315080069200121B42000F0DFF95EA301220321112022
S315080069300BF00BFC6078FF210BF045FC5B494FF62A
S31508006940FF700BF02FFC03E021782A460DF0D7F8EC
S3150800695078B10CE000A907F056F918B900A800F0BC
S3150800696009F837BD208A29460DF0E9F808B1FFF77E
S31508006970A3FF37BD7FB5044600254B4E00A9284620
S31508006980FFF701F8002804BF9DF80000012815D17B
S315080069909DF801007178884202BFBDF80200718A2D
S315080069A0884202BF9DF804003178884206D1082241
S315080069B021460DF1050003F0F9F948B36D1CEDB257
S315080069C0102DDBDB002500A92846FEF7DCFF002892
S315080069D004BF9DF80000002822D101208DF8000090
S315080069E0082270788DF80100214630788DF8040069
S315080069F0708AADF802000DF1050003F08DF900A9C3
S31508006A002846FEF7CBFF58B9318A2846FEF7A4FF79
S31508006A1006207071357106F10800FCF7F5F87FBDA0
S31508006A206D1CEDB2102DCEDBFFF746FF7FBD0000D3
S31508006A3002780021D20758BFFFF73EBF70B54288DB
S31508006A40042A25D1184A80689378012B19BF037A3E
S31508006A50C0680378406800E0491CC9B20C469C42ED
S31508006A601CDA30F81440002500E06D1CD678EDB22B
S31508006A70B542F1D2566936F81560B442F5D154825A
S31508006A800520507102F10800BDE87040FCF7BCB85B
S31508006A90012A03D1BDE8704080686BE7BDE8704005
S31508006AA00AE700000000000034290020C968000831
S31508006AB0B42102B582B059B1FF2909DA2121019121
S31508006AC0402302A9009100220321FCF714FA00B121
S31508006AD002200EBD0020DFF83C15FF2301EBC002A3
S31508006AE01371002241F83020401C0328F6DB70475A
S31508006AF02DE9F84B0BB484B01446032B05DB109D27
S31508006B002978490706D5052B01DA012079E095F899
S31508006B10049001E095F802900026DFF8F8B40BEB34
S31508006B20C6000079FF2804D0701CC6B2032EF6DB17
S31508006B30FF26DDF848805FEA080003D0FF2E08BF6D
S31508006B40B4205ED02079FCF7ABFE0746FF2F08BFBE
S31508006B50A32056D0207903F081FC002851D1DFF814
S31508006B60B80400EB071000214388238060889DF84D
S31508006B7044200090484603F077FB18B1E08840F0BF
S31508006B802000E080BDF814109DF81000224603F09E
S31508006B9077FBBDF81810884220D3FF208DF808002F
S31508006BA002A8019000952246BDF81830BDF81410C9
S31508006BB09DF81000DBB2FFF7F9FD07465FEA08000B
S31508006BC00ED06FB99DF80800FF2814D00BEBC6004D
S31508006BD09DF8081001714BF836800CE074270DE01B
S31508006BE0BA2F07D1A079C00608D5002701200DF0D5
S31508006BF0AEF800E017B9112002F08EFF03F037FC5B
S31508006C00384608B0BDE8F08B10B584B0069C00F095
S31508006C1005F80420FFF76CFF04B010BD009302943A
S31508006C2013460A4601240146019470472DE9F043AC
S31508006C3085B004460C9D0D9F884616469946022C3B
S31508006C400BD100A95FFA88F0FEF79DFE78B99DF88A
S31508006C50010030719DF804007071029700200190C0
S31508006C6000954B46324641462046FFF741FF05B0A0
S31508006C70BDE8F08330B583B00025069C01950094E5
S31508006C80FFF7D4FF3EBD2DE9F04188B0044688469B
S31508006C9016461F46002503A92846FEF774FEF8B9CE
S31508006CA09DF80C10012902BF9DF80D10227991421A
S31508006CB002BFBDF80E10628891420DD19DF81000F2
S31508006CC060710297002001900096434622462946A5
S31508006CD00220FFF70DFF18B9691CCDB2102DDADBBB
S31508006CE008B0BDE8F08130B583B004460D4600F023
S31508006CF0AEFA70B96DB101A80021016003200090B9
S31508006D008DF8054001AB002236214FF6FC700DF0D8
S31508006D10ABF83EBDF8B50D4604462888164608B1B8
S31508006D200020F2BD688848F2040148F2010788424B
S31508006D301CBF48F2060188420DD048F2200188425D
S31508006D401CBF1328B84206D048F20501884202D172
S31508006D503079B24908702946204602F00EFF00280D
S31508006D6002BF688848F22101884203D1717820461B
S31508006D7002F0F1FE6888B842A4BF082002F00AFFB4
S31508006D800120F2BD2DE9F04788B081460E469246AD
S31508006D9098460CF0F6FC8DF8089003960546119F68
S31508006DA00497ADF816508DF818A08DF81980109C28
S31508006DB0ADF81440FFF7EAFB8DF81A00FFF7E8FB79
S31508006DC08DF81B0003F0FFFB8DF81C0002A8FBF7EB
S31508006DD015FBA8B9A3B23A46314628460CF01BFF64
S31508006DE070B9A3B23A4631462846FFF793FF38B939
S31508006DF001900095A3B23A464946304603F0E7F8B3
S31508006E0008B0BDE8F0872DE9FC4780468A46174654
S31508006E100C9880491D46002201EBC2031B79834268
S31508006E2010D0521CD2B2032AF6DB4FF0000900221A
S31508006E3001EBC2031C79844207D0521CD2B2032A42
S31508006E40F6DB07E051F83290F1E7FF2018710020D1
S31508006E5041F832002946404602F068FE002D04BF7C
S31508006E603888002806D17888B0F5004FBCBF0820BE
S31508006E7002F052FE012002F08DFE0A9C0B9E36B1EE
S31508006E803078C00703D500F00EF8FCF7A9FA5FEAD8
S31508006E90090002D000F007F8C84700F004F802F02D
S31508006EA056FEBDE8F38701950096A3B23A465146C9
S31508006EB04046704770B5044682B090380CD0401EE4
S31508006EC03AD0C01E38D0801E36D0801E34D0133833
S31508006ED0042831D9113831D10DF02EF80646FFF7BE
S31508006EE051FB451EAD41ED0F2EB1002D14BFB088E4
S31508006EF03089ADF800000DF102000AF0A0FABDF8DD
S31508006F000200800605D5BDF8000040F02000ADF867
S31508006F1000002A4600A9002002F040FEBDF8000045
S31508006F200AF07AFABC2C02D102F02DFE01E00DF02F
S31508006F30BEF802F029FE01E003F006F8204601F04B
S31508006F4044FC20460DF068F92046FBF728FC73BD83
S31508006F5010B584B0324C002003F07BFA207880B953
S31508006F606478012C08BF0AF0B1F900A8FFF758FCAD
S31508006F7070B99DF80000A04203D0012C08BF022872
S31508006F8006D10FF2A8000068019001A800F073FA74
S31508006F9003F06DFA1FBD38B504460D4603F05CFADA
S31508006FA02946204601F0AAFBBDE8314003F05FBA46
S31508006FB070B504460D46164603F04EFA3246294683
S31508006FC0204601F0B3FBBDE8704003F050BA10B597
S31508006FD0044603F041FA204601F0E1FBBDE8104003
S31508006FE003F045BA7020704738B50E4909680A7823
S31508006FF0044670205AB94D78012D08BF02250DF0B8
S31508007000A7FE21462846BDE8344000F042B932BD05
S3150800701000000000F024002008250020D4200020CD
S31508007020C0FD0108DC290020FBF74CBB000000006E
S31508007030DFF8202C1268127882420AD019B1012A88
S3150800704003D1022805D000207047022A08BF01286C
S31508007050F9D101207047DFF8001C0875704710B594
S31508007060DFF8F04B2068407B112804D0B6210FF2D8
S31508007070100001F0A1FF20684121417310BD0000F6
S315080070806173736F63696174696F6E2E63000000C4
S3150800709080B5022003F09DFA03F0A4FADFF8B80BD6
S315080070A0DFF8B01B0968097B042903D3C17C491D95
S315080070B0C17404E04FF47A711830FBF7B0FD00F0A4
S315080070C049BE10B5DFF8904B002060742078FF2881
S315080070D003D008F050FBFF20207010BD38B50446D9
S315080070E00D4608F0D1FA007C00F00701400800F0D0
S315080070F0380000EB410000F11102DFF82C0C0068A3
S31508007100205CD2B282420ADA831ADBB20F2B88BF1E
S315080071100F23002000902146284608F0C9FB31BD00
S31508007120DFF8300B0068407B33281CBF4328532800
S3150800713001D101207047002070471FB506F085FE73
S31508007140F8B1DFF8144B00A92078FFF7C7FF002035
S31508007150207661790DF1030001F0ACF8FFF7B1FF75
S3150800716000F010F800F0B6FB007DC00702D50DF060
S315080071702FFE08B90EF030F80DF029FE012001F0B7
S31508007180CDF91FBD10B500F0A5FB017B032906D379
S3150800719040884FF6FF71884208BF032008D004F0E4
S315080071A097FE044604F098FE2146FEF764FB02208B
S315080071B004F09AFE0EF0EAF8BDE8104000F0CEBDE5
S315080071C038B5DFF8944A2075FFF77BFF00214FF6A4
S315080071D0FF7001F06FF9DFF87C5A2868417B0329B4
S315080071E018BF00291CD0332918BF432912D101F032
S315080071F003F92868017B032906D303214173207DFF
S31508007200BDE8324003F037BA207D03F034FABDE812
S315080072103140B7E721214173BDE83140FDF7DDB8BC
S3150800722031BD10B500F056FB002141734FF6FE70D4
S3150800723006F020FD4FF6FF7006F024FDDFF8184A29
S3150800724001F0DAF8207DBDE8104003F014BA1CB549
S3150800725004462346182201F0D1F8DFF8280B00214E
S31508007260017114B1FF2C02D10121017007E001213F
S3150800727000F8041BA100491C89B2FBF7D7FC00F0F3
S315080072806DFD002016BDDFF8FC0A00210171002003
S31508007290DDE730B589B004460D4668690790287C55
S315080072A00690E8890590287B0490E87A039095F97A
S315080072B00A000290288901900095234616220FF2AB
S315080072C0601100F073F9287B00280CBF4FF6FE709A
S315080072D006F0CCFC2B4622460146012009B0BDE843
S315080072E030402DE9F04180460F4616461C46DFF829
S315080072F064592868407B00284BD1701EC0B2052807
S3150800730047D2DFF8780A00780A2842D103F06CF9E8
S3150800731000283ED103F06AF908B1042E39D3207B40
S31508007320032816D14FF6FE70874214D1012E08BFE6
S31508007330002710D0022E2CD106F098FC4FF6FC71CF
S31508007340884202D206F092FC01E00EF0EDF90746FB
S3150800735001E0012E1DD0B8F1000F0CD0207B0328C8
S315080073600CBF01210021012E0CBF012000200AF0CC
S315080073708FF8002850D12146384600F055FF0028DE
S315080073804AD103F02BF903F017F920B103F02EF9CF
S3150800739008B1702040E02868407BDFF8BC783328C5
S315080073A01EBF532800207875304600F021FFDFF80D
S315080073B0D069307820B103F019F908B909F046FB0D
S315080073C0207B032803D12046BDE8F0412EE00822A1
S315080073D0214607F1080002F09FFC207B032828BFFE
S315080073E000203874FFF76DFE94203875387C002825
S315080073F00CBF01203120296848730020B8747278C0
S3150800740001202968897B00FA01F1032005F09EFE18
S3150800741010B1296800224A73BDE8F0810000000017
S3150800742042423870574242425742440010B5044619
S315080074300022082104F0A4FD08B1012010BD06F0C1
S3150800744015FC00224FF6FF7100F017FF217C20463D
S3150800745000F030FF6269E189207C0DF0C8FFDFF893
S31508007460F4070068007B012808BF0AF03AFDFFF719
S3150800747089FE002010BD70B582B00546DFF8D447F6
S315080074802068407B002802BFDFF8F00800780A2849
S3150800749001D0702076BD0EF0AAFA00283FD1DFF899
S315080074A0B8672DB10222294606F1200002F034FC05
S315080074B000A800F0CBFF08B1932076BD9DF80030F8
S315080074C0142200F09BFF00F03DFF48BB9DF800002A
S315080074D000F08EFE2068007B012818BF022805D020
S315080074E003280ED3002000F0F1FF50B100F041FF51
S315080074F02068007B032828BF0EF01BFBFFF742FE1F
S315080075000DE02068132141730020B0740522012084
S315080075102168897B00FA01F1052005F017FE002095
S3150800752076BDFF222DE9FC4104460D46904600F043
S31508007530D1F9017B012927D0407B022818BF0328EF
S3150800754022D104F060FDDFF8380842782946032086
