S01600005A636C4C69686774466163746F72792E733337E5
S31508000000281E002069BD0108D19B0108D39B010861
S31508000010A70B0000000000000000FFFF54000008C6
S3150800002004030300000000000000000000000000B8
S3150800003000000000000000000000000000000000B2
S315080000400000000000000000000000007A01000027
S3150800005000000000281E002069BD0108D19B010888
S31508000060D39B0108A70A080100010008040303AC92
S3150800007000537A01000000000000000000000000A4
S315080000800000000000000000000000000000000062
S31508000090000000000000000000000000FFFFFFFF56
S315080000A0FFFFFFFFFFFFFFFF00E002080000000060
S315080000B000000000FFFFFFFFFFFFFFFFFFFFFFFF3E
S315080000C0FFFFFFFFFFFFFFFFFFFFFFFFFFFFFFFF32
S315080000D0FFFFFFFFF02F002000000000EA2F00209E
S315080000E0EA2F0020281E0020A826020898C001082A
S315080000F0C8140020600D002000000308003000200E
S31508000100281E002069BD0108D19B0108D39B010860
S31508000110D79B0108D59B0108D99B0108489D010872
S31508000120489D0108489D0108489D0108489D010809
S31508000130DB9B0108489D010889BF0108AB1C000824
S315080001404D970108489D010899540008489D0108E3
S31508000150CFA80008489D0108489D0108489D010848
S315080001604949000861130008EF0D000891010008CD
S31508000170489D0108AB530008F35300082B220008DA
S3150800018073A30008489D0108489D0108499D010878
S3150800019070B52B482B4942780B685B0724D5032A90
S315080001A022DA00EB420384889C810123847803FACF
S315080001B002F222438270244C027892B1002522FA78
S315080001C005F6F60708D54570AB405A40027000EBB5
S315080001D04500808A206007E06D1CEDB2032DEEDB3A
S315080001E002E02260032242704FF6FF700860BFF3F8
S315080001F05F8F70BD124800210170002203214170F3
S315080002000021C1700521018100218170001D0E4960
S315080002100A604A604FF400428A601022CA60486148
S31508000220012088610320C8600421064801644FF64E
S31508000230FF7101604FF400610448016000F043B8A3
S31508000240A027002010A8004004D0004000E100E0EC
S31508000250DFF8D43433F810001040C840704730B582
S31508000260DFF8C8340FF2745434F810409C60DFF895
S31508000270B84434F81050954311402943D9600222F6
S315080002801A6000221A6024F8101058680028FCD159
S3150800029030BDDFF89C04DFF89C148A780AB14978E7
S315080002A00FE089566FF008029142B8BF302108DB8B
S315080002B0C16D39B140F24A31C26DB1FBF2F189B272
S315080002C0C91E01607047E0B50A237F22DFF868047B
S315080002D000F062F84FF6FF72BDF806100D20FFF722
S315080002E0BEFF07BDF8B50546DFF84844B5F5004F2B
S315080002F019D102237F22DFF8440400F04DF8BDF837
S315080003000000000AFF2814BF002818206070BDF8F6
S3150800031000000006C00E10281CBF001D00F091F951
S31508000320BDF80000C543E07808B1002005E0A089C3
S31508000330ADB26840C00701D50120E070A58105F07F
S315080003400106C5F34007DFF8F803016841F40041E8
S3150800035001604FF440520FF2A84000EB4600407887
S31508000360010389B20220FFF77AFF304600F04AFA05
S315080003704022B90100F0FCF92D06A80E00F0010094
S315080003803843A070FFF785FFE07818B1FFF79BFFA9
S315080003900020E0700020F2BD018800A800F0A8BA8D
S315080003A02DE9F04F87B0DFF89C53287804900B3876
S315080003B0C0B203900423039A0B2100A800F060FB47
S315080003C09DF800008DF80A009DF801008DF80900D7
S315080003D09DF802008DF808009DF803008DF80500C9
S315080003E0D94E3078012804D16878471EBF41FF0FDF
S315080003F000E0012700F0CAFD80469DF90200A8F139
S315080004000A0408F10A0A5045B6BF84424FF0010BA8
S315080004104FF0000B012003998840ADF806009DF8BF
S315080004200100000604D4A888BDF80610084201D0C9
S315080004304FF0010B00F040FE9DF8030000060AD4B9
S31508000440E888BDF80610084205D19DF90000504518
S31508000450B8BF844202DB4FF0010901E04FF0000902
S315080004604BEA070059EA000000F09B80B74800688D
S3150800047000F002008DF80400DFF8D4A2DAF80000D4
S3150800048000F4E0600590B3484FF4E0610160002095
S3150800049001F000FA01F048FCAF4CA7B1687850B1FA
S315080004A0AA48006840084000A84908600120307042
S315080004B001F01BFD07E0206840F40050206020682A
S315080004C020F480502060307801280CD101F039FEE4
S315080004D09E48006840F001009C4908600020307082
S315080004E0642001F002FD2FB1687818B90498C0B2EB
S315080004F001F007FF687838B1206820F48050206042
S31508000500206840F400502060BDF80600C643BBF1E1
S31508000510000F08D001F0E2FF8DF801008DF8028087
S31508000520A8883040A880B9F1000F08D002F07DF8FD
S315080005308DF803008DF80080E8883040E8809DF942
S3150800054000009DF90A10884202BF9DF801009DF837
S31508000550091088420BD19DF902009DF908108842BE
S3150800056002BF9DF803009DF80510884206D00423B3
S3150800057000AA0399C9B20B2000F093FA0598CAF8A5
S31508000580000000F0C3FA9DF8040001F083F902F0B8
S3150800059070F9687828B148F260702060642001F02C
S315080005A0A4FC9DF8010001F003FF9DF8030002F08A
S315080005B037F807B0BDE8F08F80B500F0E3FCBDE87A
S315080005C00140EDE600F0DEBC70B50646A6F10B0468
S315080005D001F0C3F80546A6F10B00C0B2102801D3F6
S315080005E08A2070BD5D488168090702D40068C00783
S315080005F001D58C2070BD5348067059490A680C2AE3
S315080006000ED0A4B20FF26C1232F8242090F908002A
S315080006108018C861FFF7C4FE012D08BF01F031F844
S31508000620002070BD10B5044600F0ACFC2046BDE8BD
S315080006301040C9E74348007870473E4890F90000E3
S3150800064070472DE9F04186B006466FF02A008642CB
S3150800065046DB14237F224348FFF79EFEBDF81000B1
S315080006604FF6FF71884203D0400448BF012506D4DF
S315080006703F2200211020FFF7EBFD044600252D48F8
S31508000680394906F12B02D2B22F2A1AD213220FF2B7
S31508000690241300E0521ED2B213F91270BE42F9DBDF
S315080006A003EB420676780E6013F8121001700020EC
S315080006B0002680460327ADB14FF6BF72BDF810106D
S315080006C029E0092E0CDA325C0A60067014237F22B0
S315080006D02648FFF761FE03200126B0462827EAE7E9
S315080006E08B201DE04FF46052C10200F041F84FF430
S315080006F0E062310200F03CF880224FEAC81100F0AF
S3150800070037F884F020003C18A4B2402C28BF3F24B8
S315080007103F2284F0200100F02BF8FFF7BAFD0020F5
S3150800072006B0BDE8F0810000682C0020E810004003
S31508000730641000402C260020081D0208141D02081B
S315080007401C1000402226002001270020802000409F
S3150800075000E100E080E100E0D010004060200040A9
S31508000760AC100040041D0208C0100040061D020817
S315080007700B2074E5AA212900552329000025280005
S31508000780AA26270055282700002A2600AA2B260075
S31508000790552D2500002F2400AA30240055322300A9
S315080007A000342200AA3522005537210000392000DE
S315080007B0AA3A2000D500E601EC02EF03F204F4059C
S315080007C0F506F707F808F909FA0AFB0BFC0DFD0F01
S315080007D0FE11FF1300160119021C031F1000110059
S315080007E0200030004000410050006000700080008A
S315080007F09000A000B000C000D000E000F0000000AB
S3150800080000000103F0B589B00446002001F004FB9E
S315080008100A237F222548018800A800F069F84FF6C8
S31508000820FF75BDF80200A84204D1DC210FF294003E
S3150800083002F058F800260FF2A40701E02A4616B976
S315080008404FF47C4203E0022E08BF4EF23F0200A896
S3150800085000F032F8761C052EF0D3012C03D11423B0
S315080008607F22134802E014237F221248018803A836
S3150800087000F03EF800260FF26C072A4608E02A46E2
S31508000880012E08BF4FF6C07202D0082E08BF0022FC
S3150800089003A800F011F8761C0A2EF0D3012C04BF29
S315080008A0012001F0B9FA09B0F0BD0000081D0208E0
S315080008B0061D0208041D020830F81610F05DFFF741
S315080008C0CEBC0000616E616C6F6775652D63656CE3
S315080008D06C2D626961732E630000000000100C0D18
S315080008E00E000000010203040708090A0B0F0000A6
S315080008F030B50446104683B07F2808BF0020B1F5FE
S31508000900004F1AD108237F2240F6120100A8FFF7EC
S31508000910EFFF08220FF2C40100A802F0D1FD30B99A
S3150800092008237F2240F2A27100A8FFF7E1FF082200
S3150800093000A9204602F07AFD37BD204D294300FB69
S3150800094003111A46204602F071FD37BD2DE9FC4415
S315080009500C461A490FF2780A41EA00061546C007FE
S3150800096002D5622100F030F8E80702D5632100F0CD
S315080009702BF81348864204D3A819401E1149884209
S3150800098002D3642100F020F8002706E0B85DFF28AE
S3150800099002D06B2100F018F87F1CAF42F6D36A0824
S315080009A02146304602F0F7FD28B15046BDE8FC4422
S315080009B0712101F097BFBDE8F38400000000040828
S315080009C00008040800100408504601F08BBF000018
S315080009D06D66672D746F6B656E2E6300FFFFFFFFF4
S315080009E0FFFFFFFF30B50FF21811DFF80C510A6848
S315080009F083B001A80024026001202870002002F0BC
S31508000A000FFE30B1002002F00BFE10B12C70492009
S31508000A103EBDDFF8E800018802237F220DF10200BF
S31508000A2000F02EF802237F22002100A800F028F803
S31508000A30204601A9BDF8022031F81010914208BFDE
S31508000A400124401C0228F4D3BDF8000024B1B0F5F7
S31508000A507F7F09D100203EBDB0F57F7F14BF0420FB
S31508000A600620002129703EBD012002F0D9FD002094
S31508000A7002F0D6FD0028EDD0002028704A203EBDA1
S31508000A8010B5FF2908DCDFF87040247844B1BDE8CA
S31508000A901040C9B203F0EAB8BDE81040FFF728BF16
S31508000AA010BD2DE9F04105460E46174698460FF249
S31508000AB05400FF2D12DC104C2178A1B1617811B1D8
S31508000AC0C22101F00FFF01206070434632463946C5
S31508000AD0E8B203F028FA0020607004E0CD21BDE8F2
S31508000AE0F04101F0FFBEBDE8F0810349097800290D
S31508000AF018BF03F027BB7047C92F0020101D020836
S31508000B00FE01FD02746F6B656E2E630010B5DFF88B
S31508000B1044451020206303F0C5FBDFF83C150A683E
S31508000B2042F001020A6003F0C3FBDFF8300560609B
S31508000B302060616889316160012121638A30E06043
S31508000B40A060E0688930E06002202063DFF81005C5
S31508000B504FF6FF71016010BDDFF8080545F2640124
S31508000B60C1601E21416250210162C821C1618165AF
S31508000B70F021C16545F69001416688218166062106
S31508000B80C16644F2066101604FF6FF714160DFF805
S31508000B90D804007838B1DFF8D40448F260710160EF
S31508000BA04FF4C1514160DFF8C804016841F00401FF
S31508000BB00160DFF8C0040021417070472DE9F84F45
S31508000BC00446DFF8B4148A2202FB0012121D0092B2
S31508000BD0521C5378127802EB03221FFA82FB0BF49D
S31508000BE040424FF000094FF0010A0BF44063042518
S31508000BF0B3F5006F08BF082503D0B3F5406F08BFEB
S31508000C000E25130004D05FEA4B635CBFAB1CDDB254
S31508000C10DFF868341B784B705FEA8B6374D5DFF8AE
S31508000C206064736E1B066FD54718009828184FF432
S31508000C300068B2F5404F07D103F040FB5FEA0009B0
S31508000C4027D005F108000EE0B2F5004F21D1407813
S31508000C500099695C01EB002080B203F03BFBFF289A
S31508000C600CD1CA46A81CC0B241080BF00702032AD9
S31508000C700FD1002C14BF7268326815E0DFF804142F
S31508000C80096831F810004FF4FE61084218BFD146D2
S31508000C90E8D10020B870F06DC00635D5B06C002CD0
S31508000CA008BF4FF4806828E08A42F2D3002C14BFAC
S31508000CB0726832684B1C9A42F8D30099405C042843
S31508000CC0E7D1BAF1000F02D10020B87004E0002085
S31508000CD0B870B9F1000FDED0F06DC0060AD4B06C5A
S31508000CE00CB94FF4806810EA080F03D0706C40F016
S31508000CF0010070640120B87006E010EA080F03D0FE
S31508000D00706C400840007064BDE8F18F2DE9FC4E18
S31508000D100446DFF864B38A2000FB04B0071DDFF839
S31508000D206053002C0CBF286868684600C0B20528C6
S31508000D3005D24FF4F6710FF2783001F0D3FD5FFA61
S31508000D4086F909EB0700A0F108063078717801EBFF
S31508000D5000201FFA80FA9BF80100307003F080FB30
S31508000D607070C94EF06B20F48050F063686ED4B989
S31508000D70306840051CD41AF4E45F0FD100F087FDF3
S31508000D8010B15FEA4A4009D53878802806D204EBC4
S31508000D900B0082784946384603F0C0FB002C0CBF8E
S31508000DA00120022020E0012CE5D130680005E2D5BB
S31508000DB0B648017881B100210170B54801681AF476
S31508000DC0E45F02D00022402004E07878000900F0B1
S31508000DD001028F2003F01DFD002C0CBF4FF480602C
S31508000DE04FF400603060D9E72861BDE8F38E2DE93D
S31508000DF0F84F9B4C2068216C01EA0005A04EDFF8ED
S31508000E0094A2DFF88882DFF87092A34F1AE040B107
S31508000E104878C00605D400229D4801688F2003F053
S31508000E20F8FC280605D503F04FFD25F0800580203F
S31508000E302060E80506D503F047FD25F480754FF4D4
S31508000E4080702060002D68D0280706D50020FFF79F
S31508000E50B5FE25F0080508202060E80606D501201D
S31508000E60FFF7ACFE25F010051020206005F06000A5
S31508000E70602803D1B06CC0050AD401E0A80605D5E0
S31508000E8025F0200520202060002006E0680606D50B
S31508000E9025F04005402020600120FFF737FFE804D1
S31508000EA010D525F480554FF480502060D7F800B04F
S31508000EB0082038607868000548BF00F033F91FFA43
S31508000EC08BF03860E807ACD56D086D00012020600E
S31508000ED099F800000028A4D000F051FC0128A0D100
S31508000EE098F8000000289CD09AF80000042898D1A9
S31508000EF0F068400800F001008A2101FB0091091DF5
S31508000F00002814BF7268326812B92268D204F7D56D
S31508000F10002814BF7068306879E700202060BDE8B3
S31508000F20F18F5E4800687047F0B589B004460D46F3
S31508000F300021032001F046FC04AE1BE0002701F067
S31508000F405CFC26F8170001F058FC00A921F81700E8
S31508000F507F1C082FF3DB04A803F070FD0020208017
S31508000F60218836F8102051402180401C0828F7DBDC
S31508000F706D1EA41CEDB2002DE0D101F07AFC012013
S31508000F8009B0F0BD0321022001F01CBCF8B52924E4
S31508000F904FF6FF7501F031FC281A90FBF4F000F1CA
S31508000FA03A063F4F3878B8B90321032001F00AFC06
S31508000FB002237F223B48018800A8FFF799FC01F02D
S31508000FC01CFCBDF80010401880B2281A90FBF4F0FB
S31508000FD0253078700120387001F04BFC7878301A8B
S31508000FE040B2F2BD80B50321022001F0EBFBBDE85B
S31508000FF00140CBE770B500242B48007890B9FFF77D
S31508001000F1FF05461B4E707848B13078401B40B258
S3150800101003F025FD0B2805DB3570012402E0357049
S3150800102001207070204670BD80B540B11F48002170
S3150800103001600948016821F08001016001BD00F0E6
S315080010405BFC00F033FC00F0E5FBBDE8024000F075
S31508001050C9BB00000020004084200040DC2C002092
S3150800106000A000404C10004023260020D01000406D
S3150800107080200040DB2F0020D82C002022260020CC
S31508001080202000406C24002004A00040F426002004
S315080010900C270020FF260020B820004038200040FA
S315080010A0D92F00200E1D02080127002054100040E9
S315080010B07068792E6300000010B584B00A237F2279
S315080010C00B48018800A8FFF713FC4FF6FF74BDF81C
S315080010D00000A04204D14E210FF2180001F002FCD4
S315080010E02246BDF800100020FFF7B9F81FBD000022
S315080010F0081D0208616E616C6F6775652D66696CFF
S315080011007465722E63000000DFF8F407417A39B17E
S31508001110017A012904BFC07A042801D10120704749
S3150800112000207047DFF8DC07016821F48051016070
S31508001130DFF8CC07017881B100210170DFF8C81704
S315080011400A68520852000A600A6842F001020A60F8
S3150800115000228169402003F05CBB70470FF63C0112
S31508001160405C7047010603D54FF67F710840C00002
S3150800117070478001B0FBF1F080B2FF2888BFFF20DE
S31508001180C0F1FF00C0B2704738B5DFF87407817A3E
S31508001190012901D1002032BDDFF87447617871B1A9
S315080011A0E178807B4518ADB22079854228BF05468F
S315080011B003F06EFC0121A940491E084000E000200A
S315080011C061790818C0B232BD2DE9F0470446C00758
S315080011D003D540F26D1100F050FADFF83857286D44
S315080011E0C00748BF8C2000F19180DFF81467002003
S315080011F030733070DFF818773878A0B12078122865
S3150800120018BF0C280BD1617801F00701032902BF2A
S31508001210001910F8020C042804BF01203073A86FC7
S3150800122040F0010002E0A86F40084000A867707B04
S31508001230DFF8E486DFF8E496797899B10021B1738E
S31508001240296D41F004012965012807D14FF6FF7081
S31508001250C9F800004FF40070C8F80000FFF794FFC3
S3150800126082460CE0296D21F0040129654FF0000A39
S31508001270012804D100F042FA642000F036FEA86F77
S3150800128020F00800A8671420E864C5F848A0787814
S3150800129030B1707B002801BFA86C00280120A86423
S315080012A0B8790028286D14BF40F0080020F008001F
S315080012B02865FFF729FF28B1D9F8400040F0080053
S315080012C0C9F84000202028626C602C6068687F306E
S315080012D06860042028624FF4E064DFF8440604607E
S315080012E006E003F0E5FB18B103F0EAFB02F0DAFFCB
S315080012F0DFF83006006800F003000328F1D0C8F8CC
S315080013000040286D40F0010028650020BDE8F08700
S3150800131010B50446FFF705FE201A0003000B333804
S31508001320DFF8041688421AD2DFF8000602210160A7
S31508001330DFF8FC15A2B24A60220C02F00F020A601E
S31508001340016C41F002010164DFF8E84500202070D5
S3150800135002E0012003F0B8FB20780028F9D010BD80
S315080013602DE9F84FDFF8D0657068716C08401FFAF0
S3150800137080F8C6F80480DFF89C75DFF8845568782D
S31508001380002840F0D180DFF8B445DFF884955FEA9D
S31508001390C8704CD5D7F800A0386C796C41EA004182
S315080013A0A96199F8000000283DD09AF80100800646
S315080013B039D5012028704FF480503060306C40F4E5
S315080013C080503064FFF7A0FE88B3192000F08DFD29
S315080013D0DFF86CB54FF44040CBF82800DBF8000086
S315080013E00090E06E40F40050E066E06E40F48050F5
S315080013F0E066A8699AF800104901B8310818FFF79D
S3150800140087FFE06E80098001E066E06E00A9098822
S315080014100843E0660020CBF8280048F26070E066D2
S31508001420A88A206003E00022002003F0F2F95FEAB0
S3150800143008600CD5287830B1002028700022A969E8
S31508001440402003F0E6F9306C20F4805030645FEAFF
S31508001450486008D5687830B9FFF763FD0022014671
S31508001460892003F0D6F95FEAC8604FD5287ADFF8F5
S31508001470A8A4012804BF697B01291ED100F061FEDA
S31508001480386F40F00100386700206873FFF73EFBAD
S315080014900A2000F02AFD4FF000084FF6FF70706032
S315080014A04FF4E060CAF800000920B8660120B86465
S315080014B0B86F40F00800B86718E0A97B491CA97303
S315080014C099F80220C9B2914215D2012808BF00F046
S315080014D0D8F8B86F20F00800B8671420B866FFF788
S315080014E053FEB8644FF40070CAF80000386D40F037
S315080014F0010038650AE0012808BF00F0C2F8FFF7C6
S3150800150010FD002201468D2003F083F95FEA08707A
S315080015100AD5FFF7F9FD38B12068A88201202060B6
S31508001520706C20F0080070645FEA88600AD5202095
S315080015303862687830B9FFF7F4FC00220146882043
S3150800154003F067F9687820B118F4407F04BF0120DA
S31508001550A870BDE8F18FDFF8F0030088704770B512
S3150800156082B00446FFF72EF8DFF8E0030021016099
S31508001570DFF894531521E960092101651F214160AF
S3150800158001210166DFF8C0030088FEF7ABFEFFF70E
S31508001590E3FA03F0C9FD00F040F9DFF86463308A26
S315080015A000F068F9708A00F06DF902F07BFE696850
S315080015B041F04001696002F07BFE707900F002F9A3
S315080015C0B07900F00FF9307900F03EF9DFF88003C2
S315080015D090F90000FFF735F8F07800F05BF996F916
S315080015E0070000F063F902237F22DFF86803018809
S315080015F000A8FFF77DF9BDF80000C0054CBF002024
S31508001600BDF80000DFF850130870DFF850030078C3
S31508001610FEF7DAFF18B140F2963100F02EF8012CE9
S3150800162005D12868C00711D500F02BF80EE06CB973
S315080016302868C0070AD400F084FD286840F0010035
S315080016402860C82000F051FC00207073DFF8CC42F7
S31508001650F120206440F2F910E063FFF757FA286892
S31508001660C00707D54FF6FF702060DFF8AC024FF4CD
S31508001670E061016000F058FB73BD0FF2103001F015
S3150800168031B970B5DFF8D8522E68DFF87442607B3E
S31508001690012832D002F006FE48F2D00129606A68B5
S315080016A0520509D548F222022A606A68D205F5D59C
S315080016B029606A685207F1D4B6B22E60DFF8601264
S315080016C04FF4E0620A60DFF87C120A6A5208520098
S315080016D00A620A68520852000A600A6842F0020260
S315080016E00A604A6A42F001024A620121617302F005
S315080016F0DFFDBDE8704000F0F5BC70BD70B5804CEC
S31508001700607B48B300F01DFD02F0CCFD0546DFF80E
S315080017105402012101607D4E306D40F001003065B4
S3150800172000206073FFF7F2F920203060306B40F03C
S3150800173002003063F06D40F00800F065284602F0BC
S31508001740B7FD0A2000F0D1FB74484FF6FF7101601F
S3150800175071484FF4E061016070BD6948407B70478D
S3150800176010B5674C607B18B140F28741FFF785FFDB
S31508001770207A18B1FFF785FF207A607310BD60489C
S31508001780007A704780B5022801D3012002BD5C4962
S315080017900872487B012804D1087A20B9FFF7AEFF02
S315080017A001E0FFF7DDFF002002BD6F4800688002F8
S315080017B000149A386FF07F0201B29142B8BF104602
S315080017C040B2704710B5044602F06CFD6749002C1C
S315080017D00A6814BF42F0120222F012020A6048494F
S315080017E04C7140E038B5044602F05CFD054600F051
S315080017F016FD40B95D48002C016814BF41F0800110
S3150800180021F0800101603E4884712846BDE83240D7
S3150800181002F04EBD3A4880797047554855494A788E
S315080018200B7813EB02220260CA788B7813EB02223C
S3150800183042604A790B7913EB02228260CA79897968
S3150800184011EB0221C160704710B5044602F02AFD6B
S315080018504649002C0A6814BF42F0200222F02002F2
S315080018600A6027490C71BDE8104002F021BD2448E2
S31508001870008A7047224908823F4908607047204815
S31508001880408A70471E4948823C49086070473C4870
S31508001890007870471C4900280A6814BF42F0020203
S315080018A022F002020A601649C870704738B5044625
S315080018B07F2C0ED102237F223248018800A8FFF729
S315080018C017F8BDF80000C00554BFBDF800406FF01A
S315080018D04A0402F0E7FC054600F0A1FC30B964B200
S315080018E004F19A008005000C274908600448C47171
S315080018F0284602F0DDFC31BD014890F90700704723
S31508001900F426002040A000408020004030200040FF
S31508001910802600201020004000E100E004A00040DE
S3150800192080E100E0A8200040CDFF070008A00040A5
S3150800193040200040E32F002000A000406410004033
S31508001940E410004060200040382600205C1000406B
S315080019502C260020181D02082A26002022260020F0
S315080019601C100040281000400C1000408420004045
S3150800197098200040BC2C0020942000409020004075
S31508001980102700201C1D0208541000407068792D8D
S31508001990636F6D6D6F6E2E6300000000FEFEF7F735
S315080019A0C8C80100DFF8F8035121016070472DE926
S315080019B0F041054603F0CEFBFA2190FBF1F64FF411
S315080019C0F070B0FBF6F73FB21E2D01DBE81B04D51D
S315080019D0A8B2BDE8F04100F088BA02F063FC804680
S315080019E003F01EFCDFF8BC030721016000214160FB
S315080019F08160DFF8B4134FF000720A60E91B09B280
S31508001A007143C91C8908491E416000F0AEF8DFF829
S31508001A1090733C68386820F04000386003F002FC98
S31508001A203C602E6003F002FC03F008FC4046BDE86B
S31508001A30F04102F03DBC38B5054603F08BFBFA21B0
S31508001A4090FBF1F44FF4F070B0FBF4F02D1A2DB2C0
S31508001A501E2D04DA8A210FF2943000F043FFDFF8D6
S31508001A60440307210160002141608160DFF83813D3
S31508001A704FF000720A6005FB04F1C91C8908491E6B
S31508001A80416031BDDFF82403B0F9000000B97047A2
S31508001A902DE9F0410024DFF818532C60DFF81463B1
S31508001AA034604FF4A040706041F29A084046FFF750
S31508001AB07EFF6F6803F056FB00010A21B0FBF1F0C8
S31508001AC000F5C870C01B00B24FF4487190FBF1F0E6
S31508001AD000F3030030604046FFF769FF08274046D9
S31508001AE0FFF765FF686804197F1EF8D103F03AFB13
S31508001AF04FF4FA414843211DC908B0FBF1F080B202
S31508001B007060BDE8F081DFF8A402B0F9000000B902
S31508001B10704738B56FF00F04DFF89C520120A860B3
S31508001B202C608020FFF743FFE868FF2802D8641C72
S31508001B30102CF5DB31BD70B5DFF88002016841F085
S31508001B40010101600121416002F0ACFB044600F08E
S31508001B500CF8DFF84C02512101602E6003F066FB99
S31508001B602046BDE8704002F0A3BBDFF854522E6849
S31508001B70286840084000286003F058BB00207047DA
S31508001B80F8B5014640F2DC500446884AB2F90070BE
S31508001B908D4D8C4E012F15DA022030812860A869F8
S31508001BA000F00300032857D0002F03D5A86940F09A
S31508001BB00200A8610846FFF7E1FF04001BD1002FC9
S31508001BC04AD547E031894FF6FF77B9421CD102233F
S31508001BD07F227E48018806F10800FEF789FE3089D3
S31508001BE0B84204BF02203081A869800703D4A869D7
S31508001BF040F00200A861012070703089286020B288
S31508001C00FFF719FF2046F2BDAA699207EFD5727849
S31508001C10002AF8D1A86810F00100AA6803D10F2994
S31508001C2009D2491C06E0920705D532791AB103296B
S31508001C3001D3491E31813071308902283CBF022008
S31508001C403081286831898842D5D1A86900F0030017
S31508001C50032801D0FFF76FFF0020F2BD2DE9F047FA
S31508001C60804600244E4D564E02F01CFB814603F07A
S31508001C70D7FA4046FFF784FF08B901240AE000F0C6
S31508001C804CF8D5F800A000F0ABF8C5F800A037600E
S31508001C9003F0CCFA03F0D2FA484602F009FB002C0E
S31508001CA0E2D0BDE8F0870220D8E710B53D4800210C
S31508001CB041608160016821F0020101603A484FF0F5
S31508001CC0007101603F4C607848B1002060700620C2
S31508001CD0FFF754FF3548B0F9000001281CDBA0784F
S31508001CE0012814D13A48012101603A490968C9070F
S31508001CF048BF03200FD40221A170016C41F00101F5
S31508001D0001643548042101603448016010BDA0789B
S31508001D10042801D10520A07010BD37683068400836
S31508001D204000306003F082BA2DE9F843254C20784C
S31508001D30002830D0E07800282DD11C48B0F90000E2
S31508001D40012820DA40F2CD310FF2A00000F0CAFDDA
S31508001D5019E002F0A7FA804603F062FAA07805288F
S31508001D600CD0174EFFF7D9FF0D4DD5F8009000F0AF
S31508001D7037F8C5F80090376003F058FA03F05EFAB2
S31508001D80404602F095FAA0780528E2D10020607056
S31508001D900520FFF763FF00202070BDE8F1830000EF
S31508001DA00080004010E000E004ED00E0201D02087D
S31508001DB0104000400C000040084000401C40004015
S31508001DC094ED00E0C826002004400040161D0208D5
S31508001DD018A000400C40004080E200E000E100E06E
S31508001DE0286820F04000286003F01CBA636C6F6313
S31508001DF06B732E630000000010B56D4C002000F0D8
S31508001E003EFD40F68C218842206834BF40F0080029
S31508001E1020F00800206010BD10B582B0044600F01E
S31508001E205FF800A8FEF764FD9DF801009DF8001014
S31508001E30FF2902BFFF280420002104B1801CC0B27C
S31508001E40082828BF0720082928BF0721594A1368E8
S31508001E5023F4607343EAC01010601068C00851EAA2
S31508001E60C000106013BD00B583B002237F2252481C
S31508001E70018800A8FEF73CFDBDF800004FF6FF718B
S31508001E8088420EBF4FF4E1600A2190FBF1F0ADF8ED
S31508001E900000FFF760FBC0071FD500F021F801A876
S31508001EA0FEF726FD9DF80500FF2808BF0420811CC3
S31508001EB0C9B20829A8BF0721C1F12F02BDF8003011
S31508001EC0C0F12F0002EBD272521000FB0320C1F1C1
S31508001ED02F01B0FBF1F0ADF80000BDF800000EBD13
S31508001EE002237F2235480188704770B50646344C70
S31508001EF0256803F037F9FA2190FBF1F070432F308B
S31508001F003021B0FBF1F0032809D3616D41F00101DE
S31508001F1061652168491B0903090B8142F9D370BD24
S31508001F2010B5040004D110BD4FF47A70FFF7DDFF39
S31508001F302046441E80B20028F6D110BD704738B539
S31508001F400C4620B1012819D003282CD02DE01D4DB0
S31508001F5094B11D48844204D0CA210FF2740000F0DF
S31508001F60C1FC03F0FFF84FF47A714843B0FBF4F074
S31508001F70401EB0F5005F0ED2286014E05CB103F095
S31508001F80F1F84FF4FA61620801FB0020B0FBF4F0A7
S31508001F90B0F5003F01D3202032BD0C4900F0010204
S31508001FA04A6040080860002032BD212032BD00008A
S31508001FB000BC0040180000400C1D02080A1D02085B
S31508001FC038200040100004E020A1070068C800403F
S31508001FD06D6963726F2D636F6D6D6F6E2D696E74AB
S31508001FE065726E616C2E630038B50120FFF7C8FD77
S31508001FF00020FFF711FFDFF85C42206840F0080078
S31508002000206003F0B6F8FFF7F7FE00F020F88D78A9
S31508002010DFF84432DD608D890560CD89456000F0C2
S315080020201EF8206820F010002060FEF7E3F803F0A1
S3150800203072F903F075F9FFF736FE03F098F8BDE874
S31508002040314003F0B2B840F2016003F005BA8349A3
S3150800205083480A78C2604B78824AD3607047088AF8
S315080020601060488A5060888A1860C88A586039E0C3
S31508002070F0B50B68794C0F25646A960005FA06F6E2
S31508002080344212D0002606EB820724FA07F7FF0728
S3150800209008D5B70005FA07F730F812C0BB4307EAB8
S315080020A00C073B43761C042EEDDB0B60F0BDF0B548
S315080020B00B686A4CFF25646AD600B5402C420FD0DF
S315080020C0002505EBC20624FA06F6F60705D501260D
S315080020D0AE40175CB3433E4033436D1C082DF0DB1E
S315080020E00B60F0BD10B55D4C606A002825D0002253
S315080020F05D49201DFFF7DBFF01225C49201DFFF724
S31508002100D6FF02225A49201DFFF7D1FF0022544963
S3150800211000F014F80122574900F010F8022251493C
S3150800212000F00CF80322544900F008F804224A4942
S3150800213000F004F804F1180032E010BD04F11800AC
S3150800214096E710B5454C606A002825D00022464916
S315080021502046FFF7ACFF012244492046FFF7A7FFB8
S31508002160022243492046FFF7A2FF00223C4900F01D
S3150800217014F801223F4900F010F80222394900F00C
S315080021800CF803223C4900F008F80422324900F012
S3150800219004F804F10C0003E010BD04F10C0067E735
S315080021A0BDE810400522354962E70320FEF79DBCCD
S315080021B080B503F053FA0FF2D00101EB800002BD9F
S315080021C080B503F04FFAC1B200040FF2E802000E20
S315080021D052F8200000EB810002BD000010B503F0A4
S315080021E03DFA044603F03EFAC0B208B9012C07D1FD
S315080021F0072C11D8DFE804F004100608080A0C0EAC
S31508002200002010BD092010BD022010BD032010BDFE
S315080022100B2010BD062010BD44F0800010BD0F48ED
S31508002220007A70470D48807A704716484FF4004187
S31508002230C160082101600949887A50B110480068D0
S315080022400B7A800900F0010083421CBF0872FEF772
S31508002250EBBE704700BC004000B8004024250020B3
S3150800226000B0004000B400400CB000400CB4004080
S315080022700CB8004004B0004004B4004004B8004064
S3150800228008B0004014A80040554E4B00464942008D
S3150800229042544C0045585400505752005744470082
S315080022A020535700435253004653480042414400C6
S315080022B0464C5400DC170208E017020838180208D2
S315080022C058180208601802086C18020878180208DC
S315080022D0841802088C18020898180208A818020818
S315080022E02A490A68920992010A600A681043086036
S315080022F027484FF400410160002101606420FFF780
S31508002300F4BD2DE9F0478046224DD5F8009028689F
S3150800231040F4004028601D4F386820F4805038602B
S315080023201D4C207868B11D48A178627800EB8202BE
S3150800233012F82A2C891A00EB880010F82A0C46187D
S3150800234002E0202601202070B0B2FFF7C9FF0FF285
S31508002350500A02E0B0B2FFF7C3FF386B042805D075
S31508002360386B400754BF761E761CF3E7F86A38B117
S3150800237084F80180A6701FFA89F02860BDE8F08706
S3150800238040F22111504600F0ADFAE6E7D0100040C1
S31508002390181000401C100040E02F002074070008A9
S315080023A0616E616C6F6775652D76636F2E630000CD
S315080023B04FF4FE52810189B20C20FDF750BF2DE97A
S315080023C0F84F8A4CA568ADB200264FF00A080127D7
S315080023D0B94620681FFA80FA00F04BFAB02020634D
S315080023E0DFF80CB2DBF800000120FFF77EFDB9F13B
S315080023F0000F11D0AAF10300874202DAF81C87B24F
S3150800240013E057460AF5004020600621092000F02F
S31508002410D9F94FF000090BE0DBF80000000707D5F3
S31508002420042FA6BFF81E87B2002707F500402060D4
S315080024301A2EA8BF6FF0090804DA16F1190FB8BFEB
S315080024404FF00A08464436B27019A060DBF800005F
S315080024500007C9D5012FC7DAB9F1000FC4D1A560A5
S31508002460C4F800A00820CBF800006248006880B2D3
S31508002470BDE8F28F10B560494FF0FF325A4B1C7811
S3150800248064B1002819BF4A605C48486041F21110DF
S315080024900860D9889888BDE8104090E7002819BFD9
S315080024A04A600A604860086000F0E3F906210920DE
S315080024B0BDE8104000F0D7B938B50120FFF7DAFFBC
S315080024C004460020FFF7D6FF05460120FFF7D2FF96
S315080024D04042001B00EB450000B232BD2DE9F04F2B
S315080024E083B0474CA06AADF804002068ADF8020036
S315080024F0444D2868ADF800003B4E307858B14FF689
S31508002500FF7200210820FDF7A3FE8046C022C021E5
S315080025100820FDF7A4FE3C4F3C48007810B148F26D
S3150800252060703860708840F4404040F04C00F863B2
S315080025300220A0620120206040F24C40FFF7D5FC43
S315080025400120E86028600020B0804020F0803078C4
S3150800255000B12020FFF72CFFFFF7AEFF834640208F
S31508002560B0807F20F080FFF723FFFFF7A5FF00F07C
S315080025704FF8FE2101FB00FAABEB090B307850B19E
S31508002580484602F06CFA00F043F880B20AEB89116B
S31508002590B1FBF0F004E000F03CF880B2BAFBF0F0D2
S315080025A080B2401C4FEAC039BDF800002860002000
S315080025B0E86002202060BDF802002060BDF8040033
S315080025C0A0620020F863307830B14FF6FF721FFA28
S315080025D088F10820FDF743FE40F24C40FFF785FCE2
S315080025E04FEA1940BDE8FE8FEA260020C0100040D9
S315080025F018A000400070004038100040EEEEFFFFC3
S315080026006020004028100040D010004023260020FB
S315080026108146584602F023BA3F22410089B201E0BA
S315080026203F2201460220FDF71ABE2DE9F04F93B06E
S31508002630564CE06CADF808002068ADF80600544D1D
S31508002640E86AADF804004FF6FF7200210120FDF795
S31508002650FFFDADF802004FF6FF7200210B20FDF7D3
S31508002660F7FDADF800004FF4004020600020286117
S31508002670686148F2020000F08DF84CF68C30E06490
S3150800268048F2F000E8624FF4805211460120FDF747
S31508002690E6FD4FF6FF7200210B20FDF7E0FD06214F
S315080026A0062000F0E0F8804600F087F883464CF6EE
S315080026B09C30E0640020FFF7AFFF0621084600F0D3
S315080026C081F80026B0B2FFF7A7FF0621062000F022
S315080026D079F800F092F803A921F81600761C202E46
S315080026E0F0DB00F08AF81020FFF796FF00F065F897
S315080026F0A0EB0B00BDF82C10A1EB0801404301FB31
S3150800270001094FF0100A112700F050F800F055F8AB
S3150800271000F045F805DB81461FFA87FA7F1C202F53
S31508002720F2DB504610280ED10F2700F03FF800F0D4
S3150800273044F800F034F806DB81461FFA87FA781E5B
S3150800274007B2002FF1D5BDF80800E064BDF8060011
S315080027502060BDF80400E8624FF6FF72BDF802106B
S315080027600120FDF77CFD4FF6FF72BDF800100B2027
S31508002770FDF775FD01202861002000F00BF84FEAEF
S315080027804A00C0B213B0BDE8F08F0000C010004088
S3150800279018100040286040F24C40FFF7A6BBA0EB9B
S315080027A00B00404306FB06004845704703A830F86F
S315080027B01700A0EB0806B8B22EE70621072000F09E
S315080027C052B8704770B505460E4602F029FD3D4CD5
S315080027D0206C20F00800206402F030FD01F062FD54
S315080027E0310341EAC51141F00101374A1160082158
S315080027F02160BDE8704001F05BBD2DE9F041334C26
S31508002800334D304E25E002F00BFD324804210160BD
S31508002810306C40F0080030642F6828684008400093
S31508002820286002F003FDD4F80080206820F04000FC
S31508002830206002F0F7FCC4F800802F6002F0F6FC76
S31508002840306C20F00800306423480421016002F04F
S31508002850F5FC30680007D6D5082030601F480068A8
S3150800286080B2BDE8F08180B5FFF7ACFFBDE8014056
S31508002870C3E7154801684908490001607047F8B57B
S315080028800746FFF7F0FA044639460320FFF7EBFF41
S31508002890054639460120FFF7E6FF06463946002079
S315080028A0FFF7E1FF08490A68520852000A60401B10
S315080028B00004711BB0FBF1F060434000000CF2BD50
S315080028C00000000018A0004004700040008000408E
S315080028D094ED00E000E100E080E200E000700040D6
S315080028E042DE704738B504460D4602F049FC01F051
S315080028F0D9FC2946204602F0E7FE2B4622460FF26F
S315080029008851002003F0B5FA29462046BDE8344030
S31508002910E6E72DE9F843DFF84C05DFF84C65016872
S31508002920371D4FF420657965016AB965DFF83C15EE
S315080029300968F965416A3966816A7966C16AB9665C
S31508002940016BF966806B386797F8340040074CBF0F
S31508002950FC6BBC6BA04602F021FEA6463865864590
S31508002960DFF80C15DFF80C25DFF80C3524BFA3F1CA
S315080029702009F14520D354F818EFC7F840E054F879
S3150800298004EF7C6DC7F844E0E405E40D062C17D186
S315080029903C6CA646964513D38E4511D224884DF62F
S315080029A0426E74450CD106F18C04756865607D68C5
S315080029B0A56040F2017503E000243C647C6480460F
S315080029C0DFF8B844A04202D2204600E0001D984233
S315080029D004D2D0F800E0BEF1CD3FF7D0181AB8649B
S315080029E00020F864844606EB8004401CC4F878C0CE
S315080029F00628F8DB002004E0C0B206EB800CCCF811
S31508002A00784098452DD253F8044D9442F9D38C4218
S31508002A10F7D25FEAC47CF4D54FF0000C06EB8C0EB7
S31508002A20DEF878E0A64506D00CF1010C5FFA8CFCBE
S31508002A30BCF1060FF2DBBCF1060FE2D1002814BF89
S31508002A40401E0520D8E77C6F4FF0000C06EB8C0182
S31508002A500CF1010CCA6F8A67BCF1050FF6DBC6F8E4
S31508002A608C400146481EC9B20029ECD1786DC005D4
S31508002A70C00D02280AD0032816D0042817D0052826
S31508002A8018D0062819D00C281DD01FE0DFF8F0034F
S31508002A900168890748BF40F602151CD40068C007BC
S31508002AA019D540F2025516E040F6012513E040F626
S31508002AB0022510E040F603250DE0B5F5206F0AD192
S31508002AC040F6042507E040F6052504E018B1242859
S31508002AD038BF40F607252846BDE8F2832DE9F04FB2
S31508002AE0DFF884538046A86B85B0410707D50FF2F7
S31508002AF0AC312E6C2F6D03910024A14607E00FF22E
S31508002B00A431EE6BEF6CDFF8709303916C6D0007E0
S31508002B104CBF0FF298320FF29C32B9EB040A07D079
S31508002B2064204FEA5A0100FB0710B0FBFAFB01E0EC
S31508002B304FF0000B0296CDF8049000944046039B94
S31508002B400FF2783103F02DF90FF2A0311FFA8AF04F
S31508002B5001901FFA8BF303980090BAB2404603F02F
S31508002B6020F995F8380040070CD4AAF19800874256
S31508002B7008D1686DC149884204D20FF2AC3140468B
S31508002B8003F00FF9B14528BFA64205D2039A0FF202
S31508002B90C431404603F005F9404603F059F9286E5A
S31508002BA0E8B10FF2D031404603F0F3F80026A8A7A3
S31508002BB00FF27474286EF040C00707D554F8262023
S31508002BC0107818B13946404603F0E3F8761C112E02
S31508002BD0F0DB404605B0BDE8F04F03F0C6B8404606
S31508002BE005B0BDE8F04F0FF2BC3103F0DAB82DE9B5
S31508002BF0F0479D4F0FF2B0590FF2C8560FF2B06862
S31508002C000FF2284A044607F1440502F02BFD40F26C
S31508002C100151401A16D0401E17D040F2FF11401A33
S31508002C2035D04FF44071401A39D0401E53D0401E5B
S31508002C3073D0401E00F0B080401E00F0C880401ED1
S31508002C4006D0C2E00FF2743142E00FF2B031C0E0B4
S31508002C50E86C012806D0032807D0042807D00528E1
S31508002C6008D00AE00FF2E03608E07AA606E00FF28E
S31508002C70E03603E00FF2E03600E077A60FF2E03127
S31508002C8000F0B5F82B6D0FF20041324603E02B6DCC
S31508002C90EA6C0FF20C41204603F083F890E00FF23D
S31508002CA01C4100F0A4F8686AC0F3400018B10FF29E
S31508002CB0244100F09CF8686AC0F3807018B10FF2DE
S31508002CC0504100F094F8686AC00F79D00FF2744149
S31508002CD000F08DF874E00FF2A84100F088F895F836
S31508002CE0200010F0030F01D000F07CF8286AC0F32A
S31508002CF0C01018B1EA6A494600F076F80027286A33
S31508002D00F840C00705D500F069F810B1314600F063
S31508002D106BF87F1C082FF2DB52E00FF2B04100F08F
S31508002D2066F800F05FF8286AC0F3802018B10FF241
S31508002D30B44100F05CF8286AC0F3C03018B1EA6AFA
S31508002D40494600F051F80827286AF840C00705D513
S31508002D5000F044F810B1314600F046F87F1C102FF9
S31508002D60F2DB95F82000000603D10FF2C04100F00F
S31508002D703EF801270FF2E4460FF29C58286BF840FC
S31508002D80C00705D500F02AF810B1314600F02CF836
S31508002D907F1C042FF2DB13E00FF2C84100F027F87E
S31508002DA000F020F81027286AF840C00705D500F07B
S31508002DB015F810B1314600F017F87F1C1A2FF2DB10
S31508002DC02046BDE8F04703F043B8BDE8F0870FF2A8
S31508002DD0B04100F00CF800F005F8F1E758F82720A4
S31508002DE0107870477A6C5146204602F0DABF2046C2
S31508002DF002F0D7BF2DE9F0478046DFF888A00FF22A
S31508002E006C560FF2A049002514A715A406E0404603
S31508002E1002F0BFFF404603F01BF86D1C3078A8B1DE
S31508002E205AF8043B32464946404602F0B2FF16F8C5
S31508002E30010B0028FBD1307800281EBFEDB205F043
S31508002E400300032814BF21463946E0E7BDE8F087AA
S31508002E5020257000414443003F3F00000D0A000052
S31508002E602C20000004ED00E00000002000E300E054
S31508002E7098C0010890010008281E0020980000202C
S31508002E801CA00040040000200D0A5B415353455224
S31508002E90543A25703A25645D0D0A000070726F6316
S31508002EA0657373006D61696E000000005468726591
S31508002EB06164000048616E646C6572002570206D5F
S31508002EC06F6465207573696E672025702073746159
S31508002ED0636B202825347820746F20253478292CB4
S31508002EE0205350203D2025347800000025752062A7
S31508002EF079746573207573656420282575252529D9
S31508002F0020696E20257020737461636B20286F75A5
S31508002F1074206F6620257520627974657320746F36
S31508002F2074616C2900000000537461636B205F6D47
S31508002F3061795F20686176652075736564207570B0
S31508002F4020746F203130302525206F6620746F7409
S31508002F50616C2E005350206973206F757473696411
S31508002F606520257020737461636B2072616E6765D6
S31508002F7021000000496E7465727275707473206161
S31508002F80637469766520286F72207072652D656D89
S31508002F907074656420616E6420737461636B656424
S31508002FA0293A00004E6F20696E74657272757074E6
S31508002FB07320616374697665000000005265736565
S31508002FC0742063617573653A205761746368646F2A
S31508002FD06720657870697265642C206E6F2072654B
S31508002FE06C6961626C6520657874726120696E66C9
S31508002FF06F726D6174696F6E0000000052657365CB
S31508003000742063617573653A205761746368646FE9
S315080030106720636175676874207769746820656ED0
S3150800302068616E63656420696E666F00496E7374C5
S3150800303072756374696F6E20616464726573733A3E
S3150800304020253478000000005343312052780000D0
S315080030504D414320527800005343322052780000F5
S3150800306052657365742063617573653A20444D41F2
S315080030702070726F74656374696F6E2076696F6C01
S315080030806174696F6E000000444D413A2025702C2A
S3150800309020616464726573733A20253478000000F1
S315080030A052657365742063617573653A204173735D
S315080030B06572742025703A256400000052657365B0
S315080030C0742063617573653A2048617264204661AD
S315080030D0756C7400484653522E5645435454424C18
S315080030E03A206572726F722072656164696E672034
S315080030F0766563746F72207461626C6520666F72A0
S3150800310020616E20657863657074696F6E000000D3
S31508003110484653522E464F524345443A20636F6EF3
S31508003120666967757261626C65206661756C742084
S31508003130636F756C64206E6F742061637469766161
S3150800314074650000484653522E4445425547455635
S31508003150543A206661756C742072656C6174656496
S3150800316020746F206465627567202D20652E672E92
S315080031702C20657865637574656420424B5054004D
S3150800318052657365742063617573653A204D656D84
S315080031906F7279204D616E6167656D656E74204644
S315080031A061756C7400000000496C6C6567616C2081
S315080031B061636365737320616464726573733A202F
S315080031C025347800434653522E25700052657365A0
S315080031D0742063617573653A20427573204661757C
S315080031E06C74000041646472657373206973206FA0
S315080031F06620616E20696E737472756374696F6E8A
S3150800320020616674657220627573206661756C74D8
S31508003210206F636375727265642C206E6F742074F8
S3150800322068652063617573652E0000004346535236
S315080032302E286E6F6E6529206C6F6164206F722070
S3150800324073746F726520617420616E20696C6C6599
S3150800325067616C20616464726573730041465352FA
S315080032602E25700052657365742063617573653A1F
S31508003270205573616765204661756C74000000000F
S3150800328052657365742063617573653A2044656297
S315080032907567204D6F6E69746F72204661756C7420
S315080032A0000000002570203D20253478000000002D
S315080032B0E4110208241202085C12020860120208CD
S315080032C0A41202085C1202085C120208E012020844
S315080032D01013020840130208641302088C1302082C
S315080032E0CC1302085C1202085C12020808140208D1
S315080032F03814020870140208AC140208DC14020818
S315080033005C1202085C1202085C1202085C120208CF
S3150800331014150208441502085C12020884150208EE
S31508003320C815020808160208441602084C160208B0
S3150800333054160208601602086C1602087816020867
S315080033407C160208801602088C16020898160208CF
S31508003350A0160208A8160208AC160208B416020837
S31508003360BC160208C4160208CC16020852300052CF
S315080033703100523200523300523400523500523670
S31508003380005237005238005239005231300052315B
S31508003390310052313200523133284C5229004D53F4
S315080033A050005053500050430078505352004D532C
S315080033B0502075736564005053502075736564001A
S315080033C043535441434B20626F74746F6D004943F5
S315080033D0535200534843535200494E545F41435495
S315080033E04956450043465352004846535200444600
S315080033F05352004D4D41522F4246415200414653C9
S315080034005200526574300052657431005265743248
S315080034100052657433005265743400526574350081
S31508003420446174300044617431000000814233D233
S3150800343010185118401E491E10E011F8013900F8FD
S315080034400139121F11F8013900F8013911F801394B
S3150800345000F8013911F8013900F8013992B2042A45
S31508003460EBDA92B2002A1EBF11F8013900F80139C9
S31508003470521EF6D1704711F8013B00F8013B121FA6
S3150800348011F8013B00F8013B11F8013B00F8013B3C
S3150800349011F8013B00F8013B92B2042AEBDA92B22A
S315080034A0002A1EBF11F8013B00F8013B521EF6D157
S315080034B07047130003D00A46194602F023BD704729
S315080034C010B500E0521E92B232B110F8013B11F865
S315080034D0014BA342F6D00FE0002010BD10B500E066
S315080034E0521E92B232B110F8013B11F8014BA342B9
S315080034F0F6D001E0002010BD181B40B210BD000038
S315080035004148018A40F6A772914202BF418A4FF4A8
S315080035107F40014204D102298041C043C00F704751
S31508003520002070472DE9F84F8246884600F0BAFE1B
S315080035300446364D2F68286840084000286001F088
S3150800354075FEDFF8C0B001208BF80000FFF7D8FF42
S3150800355020B9FF210FF2B800FFF7C4F92A48D0F8BE
S31508003560289041464AF48070C84706462F6001F005
S315080035705DFE204600F09CFE00208BF800000FF24E
S3150800358098040EB1305D04E041464AF40070C8471D
S31508003590005DBDE8F28F2DE9F84F804689464FEA6F
S315080035A0420A00F07FFE0546184E37683068400824
S315080035B04000306001F03AFEFFF7A2FF28B94FF449
S315080035C0A1710FF24C00FFF78DF90F48D0F824B01F
S315080035D00023524649464046D8470446376001F01C
S315080035E025FE284600F064FE0FF22C050CB1605D3E
S315080035F005E05346002249464046D847405DBDE8A7
S31508003600F28F0000D82F00200000040894ED00E097
S31508003610666C6173682E6300000202024B4B4647D4
S315080036202DE9F94788B01B22FF2101A8FFF741FFC2
S31508003630DFF8C4908222FF214846FFF73AFF362575
S315080036404FF01B0A00270FF2C4082C48385C411CAF
S3150800365001EBD1714C102A497E5CFF2803D16F21FA
S315080036604046FFF73FF97F2E03DB70214046FFF700
S3150800367039F92448385C00B11934601C00FB06F49B
S31508003680214830F817100FF29400A2B202F076F82B
S315080036906519012E1CBF29F817A0B2447F1C1B2FE1
S315080036A0D3DB40F21C44A54234BF12A30FF2C00379
S315080036B01B2000902246A9B20FF27C0002F05EF8A9
S315080036C0A5420ED301F05CFD00F0ECFD0FF2AC0153
S315080036D023462A46002002F0CCFB9B214046FFF7F2
S315080036E001F99DF8200001A900F025F90AB0BDE806
S315080036F0F08700006F6B0000542B0020D4190208D5
S31508003700F0190208B81902088019020873696D2DA4
S31508003710656570726F6D2E63000000004372656107
S31508003720746F723A2030782532582C20576F72649D
S31508003730733A2025640A000053696D454520646183
S3150800374074613A20256420776F726473206F66204F
S315080037502564206D617820282570292C20746F6BCC
S31508003760656E436F756E743A2025640A0000000082
S31508003770544F4F204C415247450000000D0A455210
S31508003780524F523A2053696D454520646174612051
S31508003790746F6F206C617267652E2020436F6D70A1
S315080037A0696C696E67207769746820256420776F6D
S315080037B072647320636F6E73756D65642E20204D79
S315080037C0617820616C6C6F77656420697320256465
S315080037D02E0D0A0010B5DFF8643ADFF8644A24882B
S315080037E0001B03EB4000002304E030F8134021F8E7
S315080037F013405B1C9342F8DB002010BD2DE9F04115
S3150800380082B004460D4616460027DFF8308A01E0E6
S31508003810B81CC7B2B7421ADA78194078795D01EB55
S315080038200020ADF80000012200A907EBD77004EBD1
S315080038306000DFF80C3A1B88C01A08EB4000FFF757
S31508003840AAFE0028E4D002F0A6FB002000E0012032
S31508003850BDE8F681F8B504460E46154600270DE084
S3150800386000F019F8761C04EB4700BDF80010090AA9
S315080038704170BDF8000004F817007F1CB7EB550F20
S31508003880EEDBE80706D500F006F82819BDF80010A3
S3150800389000F8011CF1BD012200A9B0B29AE7DFF8D1
S315080038A09C19DFF89C291288801A01EB4001022036
S315080038B0FFF738BEDFF88C19415CDFF88C29825C8B
S315080038C0DFF88839C05C10B102F5997292B241EA04
S315080038D0C21080B2704710B5DFF8743903EB4002A6
S315080038E0DFF86049005D012801D1104610BD108837
S315080038F0081803EB400010BD38B50C46DFF854191C
S315080039000D782A462146FFF765FF208800281CBF48
S315080039104FF6FF7188420AD0012000E0401CC0B271
S31508003920A84206D234F8101022889142F6D0002018
S3150800393032BD012032BD2DE9F04F9DB089460446BF
S31508003940DFF81479002038707880DFF810090088CD
S31508003950ADF8000008A9FFF7CFFF8246012078706E
S31508003960DFF8FC080588DFF8FC08B0F80080BDF829
S315080039700060DFF8CC080088ADF8040083460AA981
S31508003980FFF7BAFFD0B1BAF1000F43D04FF6FE7079
S31508003990BDF82010814204D1BDF82800012806D1BF
S315080039A00FE0012904BFBDF82810814232D0BDF8C6
S315080039B02000BDF8281088422CD202E0BAF1000F88
S315080039C027D0002078703046CDF808B00795CDF896
S315080039D01480DFF8801809788DF806100818ADF8F5
S315080039E0100000F05DFABDF81000FFF7F3FEDFF8EF
S315080039F0780800880690BDF80200000B4FF6FF789D
S31508003A009DF80610884218BF0F2800D114B3002568
S31508003A1015E0012478780128D5D158460296CDF8C4
S31508003A201C800595D5E7069805FB00F4BDF804004B
S31508003A3000F028FCBDF8000000F024FC6D1C9DF881
S31508003A4006008542EFDB012038704D2002F0A3FA0C
S31508003A500025FBE0BDF8105000F022FA2846FFF7D3
S31508003A60B9FE6E1CBDF80200C043C0B2ADF8020034
S31508003A70DFF8F8070588BDF80200A84218BF012438
S31508003A804FF0000A1FE0401CC1B2A94217D2C0B2CB
S31508003A908346DFF8DC1731F81B10BDF80E2091427B
S31508003AA0F1D1FFF707FF4FF680710840BDF80C10FB
S31508003AB04FF680721140884208BF0BF809A00AF138
S31508003AC001001FFA80FABDF80200824507DA0222D1
S31508003AD003A9B0B2FFF77EFEB61C0020D4E700218A
S31508003AE000E0491CA94219DA11F809008842F8D001
S31508003AF0012413E02AF81160012201A9BDF810304B
S31508003B0003EB4000401C00F0D0FABDF80400C0F3F7
S31508003B10C710401C00EBD07006EB6006DFF830A734
S31508003B20B6B20598864213DA012200A93046FFF795
S31508003B3051FEBDF8000040450AD0761C000ABDF8C3
S31508003B40001001F07F02BDF80210884202DB012452
S31508003B5000252BE0002100E0491CA942CCDA11F827
S31508003B6009308342F8D1C9B2FF29C5D07F2A0CBFD4
S31508003B704FF0000C9446DFF8CC36CB5C9C4509DA4E
S31508003B80BDF800C0CCF3C01CDFF8C0E611F80EE0A3
S31508003B90F44501D00124AFE7012BABD07F2A08BF3B
S31508003BA000223AF811105118A4E76D1CDFF8C40674
S31508003BB00088854204DA3AF815004045F5D1012413
S31508003BC07E80B5B2059885420ADA012200A9284600
S31508003BD0FFF700FE6E1CBDF800004045F1D034E743
S31508003BE0002CFCD101220CA9029800F05EFABDF85F
S31508003BF0300040450DD105E0401C80B2202813D383
S31508003C002034A4B20799029A891A8C4205DB01204E
S31508003C10387000201DB0BDE8F08FA51820220CA929
S31508003C20A8B2FFF7D7FD00200CA931F810104145BE
S31508003C30E2D0A8B2FFF733FE203CA4B2E0E7029830
S31508003C40069905FB010000F01EFB6D1C9DF8060099
S31508003C508542F4DB01203870414600F043F818B17C
S31508003C6000F022F90028D4D10120D3E72DE9F84540
S31508003C7004460D4616469A4631462846FFF72BFE59
S31508003C80B0F80080DFF8C075DFF8E01509888D42C6
S31508003C900AD27F2E08BF0026DFF8A805285C8642D0
S31508003CA002DAE85D824503D040F2864100F0F9F970
S31508003CB0DFF89805285C68B14146284600F028FADE
S31508003CC0E95D012908BF20700AD0022914BF2060C7
S31508003CD0208005E0524641462046BDE8F845B9E54C
S31508003CE0BDE8F1852DE9F34F83B0DFF85405048864
S31508003CF0DFF86405407800281ABFDFF860050088F9
S31508003D002046DFF8501509780D18ADB2DFF85C05C6
S31508003D100088ADF80800C043C0B200EB013000F5DA
S31508003D205060ADF8020000F0CAF92B1B00F0C3F989
S31508003D306E1CB6B2002832D10025DFF8347510E0C3
S31508003D40E8B2FFF7B7FDADF8040037F81500ADF88F
S31508003D500600022200F0ACF9002820D1B61CB6B243
S31508003D606D1CBDF808008542EADB002500E06D1CE5
S31508003D70BDF80800854280F28E804FF0000A1AE0EE
S31508003D8000F08EF81FFA89F0FFF724FD09F1010902
S31508003D9000F095F9BB191B1B00F08DF9002874D1AA
S31508003DA07F1CFFB25F45EBDBDFF8CC04285C861985
S31508003DB0B6B20AF1010ADFF88C0415F800B05FFA0A
S31508003DC08AFADA45D3D25146E8B2FFF784FD80462F
S31508003DD0B8F80090DFF874042F5CF80140EA052073
S31508003DE0ADF80000BBF1010FBDF800000CBF40F0B4
S31508003DF07F004AEA0000ADF80000DFF84004311BF6
S31508003E0000EB4100711C89B201914FF6FF7189459B
S31508003E101EBFBDF80010BDF81020914218D19DF8BC
S31508003E200C100029C5D0012200A9FFF7B4FB019E9A
S31508003E3058BBA8F80060DFF810042A5CDFF83C04D9
S31508003E4050F82510B0B2FFF7D9FC0028ACD11FE016
S31508003E50DFF8F413695C491C01EBD171C9054FEA17
S31508003E60116B012200A9FFF796FB019E68B9A8F815
S31508003E700060002F95D04946E8B200F049F9019054
S31508003E805A4600F015F900288ED002F084F8002072
S31508003E9005B0BDE8F08FDFF8C00346800120F7E7DC
S31508003EA001220DF1020170472DE9F04182B0DFF8D9
S31508003EB0AC030688DFF888030488DFF89C53687823
S31508003EC0002812BF204630462646012200A9FFF7E1
S31508003ED081FCBDF8000001280CBF4FF6FE70401E9D
S31508003EE0ADF80000DFF86C030778DFF85083384632
S31508003EF0471E70B1012200A9BFB2B819001B08EB12
S31508003F004000FFF748FB0028F1D002F044F80020F3
S31508003F1007E06978481E8041C00F68700020287045
S31508003F200120BDE8F6812DE9FE4F83460C4617466B
S31508003F309A4600208DF80400012539465846FFF7B1
S31508003F40CAFC81465E46C94909888B450AD27F2F35
S31508003F5008BF0027BB48305C874203DABA48305CA2
S31508003F60824503D040F2A95100F09BF8BA4F787801
S31508003F7020B1BB48B0F80080B14803E0B948B0F8B2
S31508003F800080B6480088397849B97988081ABC4942
S31508003F9009888842B4BF4320442001F0FCFFB9F8E1
S31508003FA00010AA48305C78B1584600F0B1F8BAF16A
S31508003FB0010F08BF217804D0BAF1020F0CBF21887F
S31508003FC0216881426BD02BE002914FF0000B23E071
S31508003FD0012200A902980BEBDB7300EB630000F0EB
S31508003FE064F80BEB040040781BF8041001EB002082
S31508003FF080B2AAF101018B4505D1C0B2BDF8001007
S31508004000C9B2ADF80010BDF80010884218BF0025E7
S315080040100BF102005FFA80FBD345D9DB002D3ED1B8
S31508004020FFF73EFFB9F80000401E00F03EF8924840
S31508004030355C7888A8F10101491B814200DB60B92B
S31508004040387808B945201CE0BDF802100020FFF7B3
S3150800405049FE20B301208DF804007888401C78803A
S315080040607949725C214680B2FFF7C8FBB8B100F007
S3150800407026F87B885B1E724C24881B1B00F01BF8F5
S3150800408010B101F088FF0AE09DF8040010B1FFF7AF
S315080040900BFF20B17888A9F8000028187880BDE8B9
S315080040A0F78F0FF2E810FEF71DBC80B2FFF792BB40
S315080040B001A96248331B00EB4300FFF76CBA0122E3
S315080040C00DF102015D48704770B582B004460025BF
S315080040D01926012200A9A0B2FFF77CFB641CBDF8D3
S315080040E0000048B14FF47F41401A02D0FF3806D08D
S315080040F007E0681C40B276BDAD1C761EE9D168B2F1
S3150800410076BDBDF80000C0B200B96D1CE843F1E702
S3150800411038B50C46002100914B49455C2A46214694
S3150800412000A8FFF797FB681C00EBD07004EB600053
S3150800413080B2FFF7C9FF002848BFC043009940B2C4
S31508004140401832BDF0B583B004462546404830F8DD
S315080041501560464909888C4202D23C48285C18B941
S3150800416040F2A961FFF79DFF37482D5C681C00EBFC
S31508004170D07006EB6007B8B2FFF7A6FF322814D254
S31508004180C1074CBF00214FF47F41ADF8041001224E
S3150800419001A92A4BBFB207EB6000294F3F88C01B15
S315080041A003EB4000FFF7F7F960B131462046FFF709
S315080041B0AFFF0090401C00902B467F2200A92046A6
S315080041C0FFF7B1FEF7BDF8B5234C2078002832D1A9
S315080041D01B480588607800281ABF204806882E469E
S315080041E01C4807783846471E02281DD3012200A915
S315080041F0FFB2B819FFF759FFBDF800000028F1D043
S315080042001948008807FB006000F03DF80020ADF86B
S315080042100000012200A90948BB195B1BFFF74BFFE9
S3150800422048B101F0B8FEF1BD3046FFF738FBFFB2E2
S315080042300FB901202070F1BD0000000000E002085F
S3150800424054190208F0190208D4190208B819020804
S31508004250542B002050190208AC2F002058190208C8
S31508004260561902085A190208521902085E19020854
S31508004270801902086019020864190208141C020849
S315080042805C190208201880B2FFF709BB73696D2D07
S31508004290656570726F6D2D696E7465726E616C2ED0
S315080042A063000000EFF31180602181F311887047E5
S315080042B080F31188704770470120704700207047C7
S315080042C000207047002070470020704770477047ED
S315080042D070470000F8B506000C4C276814D0FFF7A5
S315080042E0E1FF0B4D2978226822F8116037F8021B86
S315080042F0B142FBD1FFF7DCFFB81E2168401AC005A2
S315080043002978000E884200D1FF20F2BD64240020DF
S315080043106824002010B56A4800686A4C206060600E
S3150800432048220021FFF7C5F8206867490978017017
S315080043302068002101732068417320680B2181736E
S3150800434020680321C17320684FF6FE7101824FF67B
S31508004350FF71418200F09CFB2168087600F098FB0B
S315080043602168487600F094FB2168887620685749CA
S315080043700978C176206856490968816255490978DD
S3150800438080F82C10206854490968016310BD10B5DF
S31508004390FCF750F94B4C6168897B884203D0084684
S315080043A0FCF740F950B9FCF748F90146606890F9FE
S315080043B00F00814204D0FCF744F908B1012010BD72
S315080043C06068008AFDF756FA6068408AFDF75AFA6F
S315080043D06068007B012818BF0020FDF735FA002029
S315080043E010BD10B53D4C0020207002F020F820B911
S315080043F02046BDE8104002F04DB802F02FFA08B189
S3150800440002F05DFA51E080B5002000F015F828B1F9
S31508004410002000F005F808B1002002BDFF2002BD0B
S3150800442028480068407B02281CBF1128432801D170
S31508004430012070470020704722480068017B042944
S315080044408041C00F704700207047002070477047B2
S31508004450704700207047012070477047002070475A
S31508004460002070477047704700207047002070474B
S3150800447080B50020FFF7D4FF30B112480068007BF2
S31508004480032801D2002002BDFF2002BD10B504009A
S3150800449004D0D9210FF26800FEF724FA482008490B
S315080044A0096800FB041007494860BDE810406EE73C
S315080044B004484068008A704702484068408A704746
S315080044C0842400209C2C0020BD240020BE2400202B
S315080044D08C24002090240020942400208C2C00207A
S315080044E07047002070470020704702F038BA7047BE
S315080044F0704701F03DBD02F075BD02F0EDBE00004B
S31508004500656D6265722D6D756C74692D6E6574774F
S315080045106F726B2D737475622E63000070B5044656
S315080045200D461646FDF776F938B16078002E14BFA9
S3150800453040F0200000F0DF0060702946204603F0B6
S315080045406DF8FF2822D09C4C014604F10C0003F0BC
S315080045507DFA2088401C2080618880B281420BD277
S31508004560A088401CA08004F10C0003F084FA02F035
S31508004570D2FF2088401E2080608821888842F2D396
S315080045808E480078BDE8704002F085B870BD2DE908
S31508004590F04E86B0044600208DF80500FFF782FE2F
S315080045A0854D2988491E2980FFF782FE204602F09C
S315080045B03BFF90F8009090F801A000200090082397
S315080045C07F480068205CA0F10802D2B2214602A802
S315080045D003F03EF802AE7078FFF744FF794800789A
S315080045E098B1A86800280FD0F078FCF7BBFD4946BB
S315080045F0FCF7BFFD024696F9020000F166035BB2BE
S315080046004946204600F0BCF894E00AF00700022864
S315080046102DD0FF208DF80400204602F005FF00F19A
S31508004620010B584603F0D1FA0546A9EB0500801E92
S3150800463047B2002F06D5204602F06DFFFFF713FF9D
S31508004640002081E001A9584603F054FC002874D1E3
S315080046500AF0070001280BD105EB0B019DF80400B1
S3150800466004F0FFFE20B99DF8040002F054FF64E050
S315080046709DF804005249096810F801A052490968D2
S3150800468044544F480068205C00F12001C9B29DF8E7
S31508004690040002F0CFFE9DF8040003F05EFA00F075
S315080046A00C0004281CBFEF19002578B280B20090D0
S315080046B06B1C9BB2224651469DF8040003F094F900
S315080046C007EB0A01C9B29DF8040003F073F8707885
S315080046D03E490978884204D3BD210FF2F800FEF757
S315080046E001F99DF8040003F033FA8004800C717810
S315080046F040EA813189B29DF8040003F02BFAF0787C
S31508004700FCF730FD4946FCF734FD0246032100F06C
S315080047101EF8B07800F16602D2B2042100F017F84C
S315080047209DF80820052100F012F89DF8044020465F
S3150800473002F01BFA01208DF80500204602F0EBFE78
S31508004740FFF791FE9DF8050006B0BDE8F08E9DF8CE
S31508004750040003F0DBB910B5174CA18829B1C9B21A
S315080047601D20FFF7CAFE0020A08004F10C0003F00C
S3150800477082F9FF2803D0FFF70AFF0028F5D010BDFD
S3150800478030B5A1B014461D46002200924B1CDBB280
S31508004790014601A802F05CFFFFF75FFE2A462146A4
S315080047A001A8054B9B689847FFF75DFE21B030BD11
S315080047B0074803F087B9000058270020D52F0020A6
S315080047C050240020F52600205824002088240020A4
S315080047D0642700206D61632D726563656976652EB1
S315080047E06300000038B504460D46012004F000FFBA
S315080047F06248002D12BF00210178491C01706048EB
S3150800480044706048FCF7E0FC0020BDE8324004F044
S31508004810EFBE10B5144600283ED0402823D088287D
S3150800482018BF89283FD08D282ED08F2845D15648C5
S31508004830007804280DD144B154480221017040F68D
S315080048400620BDE8104004F0DBBEFCF789FF3120E6
S315080048502FE0012000F0C5FFFCF782FF002C0CBFFB
S315080048603120002025E0454801784078814204D26D
S3150800487000210120BDE81040B4E7002000F0B1FF98
S31508004880FCF76EFF402014E0002000F0AAFF01218B
S315080048902020FFF732FE0BE0012000F0A2FFFCF714
S315080048A05FFF002005E0002000F09BFFFCF758FFA3
S315080048B08D20BDE8104002F0FEB8D0210FF2E400CA
S315080048C0BDE81040FEF70EB830480078022800D040
S315080048D0704780B52E480078042807D00C280ED1DA
S315080048E02C480078022818BF7C2808D104F0A3FEBB
S315080048F0FCF736FF0020BDE8024002F0DCB801BD37
S3150800490038B50024FFF7CEFC05462048007810B9D4
S31508004910FCF770FB04462846FFF7CAFC002C1CBFB0
S31508004920BDE8314001F035BB31BD80B5FFF7E8FF82
S3150800493014211948BDE8044001F0BEBD40F20D112E
S315080049400FF26000FDF7CEBF38B5144C2068216C15
S3150800495001EA0005ADB2A80706D5206C20F00200D2
S3150800496020640F4801210170680705D5206C20F0E6
S315080049700400206401F036FC256031BD872700203D
S3150800498080260020142E0020FF260020082E002056
S315080049902827002029270020842F002008A000406F
S315080049A0E32F00206D61632D656D3235302E63006F
S315080049B038B504461B4D214600F03DF8E860211D38
S315080049C000F039F8A86004F1080100F034F86860CE
S315080049D004F10C0100F02FF8286031BD7047F8B5D6
S315080049E00446114D80202860104E062030600720AE
S315080049F0286030688007FCD5002704EB870100F0A3
S31508004A001AF8A8627F1C042FF7D330684007FCD534
S31508004A1000262A6B04EB860100F00AF8761C042EA1
S31508004A20F7D3F1BD383000400030004010A00040F8
S31508004A30002004F013BE002004F01EBE70B5044624
S31508004A400D46FFF72FFC06462846FFF7B1FF20461E
S31508004A50FFF7C5FF3046BDE87040FFF729BC0028C0
S31508004A6048BF40427047000081B209B94BF6EF6172
S31508004A700E4A1180000C08BF4FF6CE2050807047B2
S31508004A800288130448BF4A40510001801046704707
S31508004A9038B5064C62212046FFF7F2FF054641F27B
S31508004AA00B01A01CFFF7ECFF684032BDAE250020C5
S31508004AB0EFF3118060288041C043C00F70470000A3
S31508004AC0002181F3118870472DE9F04FDFF8FC4586
S31508004AD099B0824660681890BAF1070F08BF4FF080
S31508004AE0030A04D0BAF1080F08BF4FF0020ADFF82C
S31508004AF0E0653068716840EA0120B16840EA014023
S31508004B0000907068400703D5E06940F00200E06154
S31508004B103068400703D5E06940F00400E06100987A
S31508004B203169C840C00703D5E06940F00800E06174
S31508004B300020DFF89475DFF89C857860BAF1010FDC
S31508004B4000F06782C0F08D82BAF1030F1ED005D33C
S31508004B50BAF1040F40F08582606017E0D8F840008B
S31508004B60C00703D5E06940F04000E061D8F840008E
S31508004B70400703D5E06940F02000E061D8F840001E
S31508004B80800703D5E06940F01000E061FFF78AFB73
S31508004B9000F003FB8DF85C004FF0000BD8F84000DE
S31508004BA0DFF83495DFF83455DFF83415DFF83425A7
S31508004BB01690D8F844001590D9F84C001490D9F8F6
S31508004BC050001390D9F854001290D9F85800119053
S31508004BD0DFF8140500681090DFF80C0540680F90A0
S31508004BE0DFF8040540690E90DFF8FC04406A0D9072
S31508004BF028680C9068680B90A8680A90E86809907D
S31508004C002869089068690790A8690690E869059078
S31508004C10A86B0490DFF8D404006849680391022160
S31508004C202160DFF8CC140968126841EA0221DFF82E
S31508004C30C424126841EA024102914FF0FF316162D1
S31508004C40DFF8B4140A687968D20409D57268D207FD
S31508004C5006D5E269D20744BF4FF0010B41F48071D3
S31508004C60DFF894241268920409D57268520606D5AC
S31508004C70E269D20744BF4FF0010B41F48041DFF8E7
S31508004C8078341B6801225B040ED5009BD6F80CC04D
S31508004C9023FA0CF3DB0707D5E369DB0704D5F368CA
S31508004CA002FA03F393461943DFF84C341B681B04D6
S31508004CB010D5009BD6F810C023FA0CF3DB0709D5EC
S31508004CC0E369DB0702D4E3691B0703D53369934617
S31508004CD09A401143DFF820241268D20306D5E26908
S31508004CE0120644BF4FF0010B41F0006179600021C4
S31508004CF07268D20748BF4FF480517268520648BF9F
S31508004D0041F40051009AF368DA40D20748BF41F4EB
S31508004D108041009A3369DA40D20748BF41F400411E
S31508004D20E269D20605D4E269920602D4E26952061D
S31508004D3001D541F01001E269120648BF41F48031FD
S31508004D4008400190A52000F01FFA0120E063E06901
S31508004D50A16B11B1616A0142FAD0616A014200F0A1
S31508004D60EF800020E0634FF0010B786840F0804048
S31508004D70786000F055FA0720C8F800000F20C9F837
S31508004D80000004F08DFC189860601698C8F840007A
S31508004D901598C8F844001498C9F84C001398C9F82F
S31508004DA050001298C9F854001198C9F8580010997B
S31508004DB0CD4801600F9941600E9941610D99416294
S31508004DC00C9828600B9868600A98A8600998E860AB
S31508004DD008982861079868610698A8610598E861A7
S31508004DE00498A8630199C1480160BD4803994160C8
S31508004DF04FF0FF31C1480160BD48BE490268B94855
S31508004E0000680968636AE569D6F810C0DDF808E045
S31508004E1042EA002040EA0140009980EA0E002B4051
S31508004E200840590801F0010140EA8120990801F07B
S31508004E30010140EA8100D90801F0010101FA0CF1EB
S31508004E4008437D6803F47C7140EA01502843786082
S31508004E50FFF728FA00F0F2F9002020609DF85C00C0
S31508004E6008B100F086F97868A0490968C90303D52E
S31508004E70010144BF20212162D8F84010890704D5D2
S31508004E80C10144BF0221C8F80C10D8F840104907E0
S31508004E9004D5810144BF0421C8F80C10D8F8401085
S31508004EA0C90704D5410144BF0121C8F80C10D9F837
S31508004EB04C1011F0E00F05D0C10503D58E494FF40B
S31508004EC080520A60D9F8501011F0E00F05D041045D
S31508004ED003D589494FF400520A60D9F8541011F0E5
S31508004EE0E00F08D0F16820FA01F1C90703D5824915
S31508004EF04FF480420A60D9F8581011F0E00F07D035
S31508004F003169C840C00703D57B484FF400410160AA
S31508004F10BBF1000F74D17A480068000570D5606847
S31508004F2080076DD5BAF1040F6AD070480068C006CC
S31508004F3043D571480068C0063FD5012038705FE048
S31508004F40BBF1000F7FF411AF40F2072C66486649A3
S31508004F5080696C4A40084000886161496048C068B9
S31508004F6040F00400C8600121674801704FF20F0144
S31508004F701388634504BF53888B4204D14CF23C33F3
S31508004F8053804FF0010B564BDFF854C11B6843F0B2
S31508004F908053CCF800300378002BFCD1BBF1000F0E
S31508004FA01CBF51804FF0000B554855494068000416
S31508004FB0B86089680843B860DDE600F0D3F8FA21DE
S31508004FC090FBF1F04FF47A7148432F303021B0FB53
S31508004FD0F1F0002139704D494A6D42F001024A65E7
S31508004FE00A68474B464C5B68A46844EA0343BC68B6
S31508004FF0A34205D10B689B1A1B031B0B8342F0D3F4
S31508005000786840F00040786019B0BDE8F04FFFF7C7
S3150800501057BD00F0C2F80446A52000F0B5F800F028
S31508005020FFF8FFF74DFD3A4D2E6828684008400006
S31508005030286000F0FBF8374FD7F80080386820F072
S315080050404000386000F0EEF8C7F800802E6000F0E7
S31508005050EDF80CB100F08DF819B0BDE8F04F00F08E
S31508005060EDB819B0BDE8F04F40F232410FF2B0008A
S31508005070FDF738BC164ACBB21360C1F30723536059
S31508005080C1F307419160002323490B601368002B85
S3150800509004BF5368002B01D192681AB10A6842F01E
S315080050A001020A600A6842F400720A600A6842F05D
S315080050B080020A6008E519490978890141F48001E6
S315080050C041F48041D6E70000D82B002004000040B8
S315080050D008BC004014A0004014A80040005000403E
S315080050E004ED00E008B400400440004000E100E0A0
S315080050F008B0004008B8004000E200E080E200E0A6
S315080051000C60004000000020002E002038200040DF
S3150800511094ED00E000800040200000402D2500208E
S31508005120736C6565702E630008237F220248018828
S315080051300248FBF7DDBB00BF1E1D0208BC2C002081
S315080051402D480068C00702D442F6E060704745F66D
S31508005150C050704780B5FFF7F3FF2849096801B9C1
S31508005160400802BD80B5FFF7EBFF400802BDFCF71B
S31508005170CABC2348012181604EF6BE21416000E089
S315080051802048012101607047A52805D11C484DF625
S31508005190AD61416002210160704719480068C00787
S315080051A001D5012070470020704780B51648174A78
S315080051B01021016016481749007858B103280CBF1A
S315080051C000200120106040F6510008600020FCF71E
S315080051D0A7FE06E0022010604FF400600860FCF7A6
S315080051E051FC07210C4801600021016410210B487D
S315080051F00160002002BD00001C4000402040004025
S31508005200006000400860004080E100E008000040BF
S31508005210C32F00200C60004014A0004000E100E00D
S3150800522072B6704700BF30BF00BF7047BFF35F8FCD
S31508005230BFF34F8FBFF36F8F7047000062B670479A
S3150800524000B12120704700B1704710B52B4804689B
S31508005250608828B10FF2C00040F27921FDF742FBC1
S31508005260A188C9B2A01D00F03CFA0020A0802080C9
S3150800527010BD704780B50B46114620B9184600F098
S3150800528030FA002002BD212002BDFFF779BFF0B534
S315080052901B4B1D4A1C6812881A4D0FE0268810F809
S315080052A0017B3619B77126882F88761C96FBF7FC82
S315080052B007FB1C662680A688761CA6800E46711EED
S315080052C0F6B2CEB1A688571EBE42E7DB18680F4B6A
S315080052D00F491C7824B90088088023201870F0BD6F
S315080052E00988018023211970038841888B423ABFB7
S315080052F0511A5918591A8180F0BD0000E02500207E
S31508005300F0250020D45E000848190208D42500209C
S31508005310D825002070477047756172742E630000A7
S315080053202DE9F041454C464EDFF8188100202065EE
S315080053304FF40055356002202060E56000202065A6
S31508005340206D40F0600020650E2000F01DF888F8FA
S3150800535000004FF480470020606537600420206015
S31508005360E76016213848016000206065606D40F0EE
S3150800537060006065162000F007F888F801003348D9
S3150800538005600760BDE8F0810E2802D0162802D015
S3150800539009E02F4800E02F480068800900F0010066
S315080053A080F0010070470020704710B523484FF47D
S315080053B00051C160022101600E20FFF7E5FF214C74
S315080053C0227801468A4218BF21700DD1501E8041AD
S315080053D0C00F20700E20217804F07AFD2178481E2F
S315080053E08041C00F20702178BDE810400E2004F0DF
S315080053F06FBD10B511484FF48041C16004210160AA
S315080054001620FFF7C1FF0F4C627801468A4218BF83
S3150800541061700DD1501E8041C00F607016206178F2
S3150800542004F056FD6178481E8041C00F60706178AF
S31508005430BDE81040162004F04BBD000014A800403B
S3150800544080E100E0B32F002014BC004000E100E03A
S3150800545008B4004008B8004010B50446FEF722FF1D
S31508005460504830210160504801605048016050485A
S3150800547010210160200A08BF24024E4804804FF21A
S315080054800F014180BFF35F8F4B48002101604160E7
S315080054904A484B49016010BD10B54A4C2068C00601
S315080054A00BD5444848490A68C0F894204968C0F8AA
S315080054B0901040F60620FFF7CFFF2068C00708D5F2
S315080054C0424803210170206C4008400020640120F6
S315080054D020602068000703D5206C20F008002064AF
S315080054E010BD80B5002000F009F830B9F5210FF29B
S315080054F0F000BDE80440FDF7F5B901BD2DE9FC440F
